:020000040800F2
:10000000341E0020250100088D0100088D01000824
:100010008D0100088D0100088D010008000000001E
:10002000000000000000000000000000C56700089C
:100030008D010008000000009D680008D9680008D4
:100040008D0100088D0100088D0100088D01000858
:100050008D0100088D0100088D0100088D01000848
:100060008D0100088D0100088D0100088D01000838
:100070008D0100088D0100088D0100088D01000828
:100080008D0100088D0100088D01000800000000AE
:100090000000000000000000000000008D010008CA
:1000A0008D0100088D0100088D0100088D010008F8
:1000B0008D0100088D0100088D0100088D010008E8
:1000C0008D0100088D0100088D0100088D010008D8
:1000D0008D0100088D0100088D0100088D010008C8
:1000E0008D0100088D0100088D010008000000004E
:1000F0000000000000000000000000000000000000
:1001000000000000000000000000000000000000EF
:1001100000000000000000008D0100088D010008B3
:100120005FF808F180B582B000AF134B7B60134BD2
:100130003B600BE07B681A683B681A603B6803F120
:1001400004033B607B6803F104037B603A680C4B5B
:100150009A42EFD30B480C494FF000028842B8BFD7
:1001600040F8042BFADB00F015F803F0E7FE07F186
:100170000807BD4680BD00BF48A30008000000205E
:100180001800002018000020341A002080B400AFAE
:10019000FEE700BF80B500AF174B174A126842F068
:1001A00001021A60144A144B5968144B01EA030304
:1001B0005360114A104B1B6823F0847323F480337F
:1001C00013600D4B0C4A126822F480221A600A4B0D
:1001D000094A526822F4FE025A60074B4FF41F028C
:1001E0009A60054B4FF00002DA6200F00BF8044B06
:1001F0004FF000629A6080BD001002400000FFF8DE
:1002000000ED00E080B500AF00F002F880BD00BF57
:1002100080B483B000AF4FF000037B604FF0000369
:100220003B60314B304A126842F480321A602E4BE8
:100230001B6803F400333B607B6803F101037B60C0
:100240003B68002B03D17B68B3F5A06FEFD1264B41
:100250001B6803F40033002B03D04FF001033B6015
:1002600002E04FF000033B603B68012B37D11E4B8F
:100270001D4A52685A601C4B1B4A52685A601A4BFE
:10028000194A52685A60184B174A526822F47C1275
:100290005A60154B144A526842F498125A60124B35
:1002A000114A126842F080721A6000BF0E4B1B6840
:1002B00003F00073002BF9D00B4B0B4A526822F06D
:1002C00003025A60084B084A526842F002025A6020
:1002D00000BF054B5B6803F00C03082BF9D107F155
:1002E0000C07BD4680BC70470010024080B485B04A
:1002F00000AF0346FB710D4B1B889BB2FB60FB7983
:10030000002B04D1FB6843F03803FB6005E0FB6879
:1003100023F0380343F00803FB60044BFA6892B201
:100320001A8007F11407BD4680BC704700300140B9
:1003300080B483B000AF0346FB7107F10C07BD46E4
:1003400080BC704780B400AF4FF001031846BD4633
:1003500080BC704780B582B000AF0346FB71FB796B
:100360009BB20B48194608F0FFFE00BF08484FF04B
:10037000010108F015FF0346002BF7D0044808F0F0
:1003800001FF0346DBB2184607F10807BD4680BDF2
:100390000030014080B500AF4FF0FF00FFF7DAFFFB
:1003A0000346184680BD00BF80B582B000AF0B4B3E
:1003B0004FF032021A60FFF7EDFFFFF7EBFF034645
:1003C000FB71FB79FF2B03D0044B1B68002BF4D18E
:1003D000FB79184607F10807BD4680BD1C000020C8
:1003E00080B500AF03484FF4004100F089FFFFF7EC
:1003F000D1FF80BD0008014080B590B000AF03463A
:10040000B9607A60FB734FF6FF733B82434B7B61AD
:100410004FF00003FB624FF000033B634FF000031B
:100420007B627B683B624FF000037B634FF4405379
:10043000BB634FF00003FB63394808F0C1FC394847
:1004400008F0BEFCFB7B002B1DD0BB68BB614FF0EE
:100450000003FB614FF08003BB6207F114033048D7
:10046000194608F06DFD07F11003BB614FF0100352
:10047000FB614FF00003BB6207F1140329481946E2
:1004800008F05EFD1CE007F11003BB614FF00003B4
:10049000FB614FF00003BB6207F1140320481946CB
:1004A00008F04EFDBB68BB614FF01003FB614FF0DD
:1004B0008003BB6207F114031A48194608F040FD97
:1004C00017484FF0010108F07DFD16484FF001017B
:1004D00008F078FD14484FF003014FF0010208F0D6
:1004E0001DFE00BF4FF0200008F08AFD0346002BE0
:1004F000F8D00B484FF0000108F064FD09484FF0B8
:10050000000108F05FFD08484FF003014FF00002C2
:1005100008F004FE07F14007BD4680BD0C300140E5
:100520001C000240300002400030014080B500AFA6
:100530004D4B4D4A926942F001029A614A4B4A4A38
:10054000926942F004029A61474B474A926942F02D
:1005500008029A6145484FF0010100F0FBFE4FF0A0
:1005600001004FF0010100F0F5FE414B404A526896
:1005700042F040525A603E4B3D4A526822F040429F
:100580005A603B4B4FF400421A613A4B394A1268A9
:1005900042F440521A60374B364A126822F4404205
:1005A0001A60344B334A126842F400421A60314BED
:1005B000304A126822F440321A602E4B2D4A1268DB
:1005C00022F440221A602B4B2A4A126842F400227D
:1005D0001A60284B4FF010021A61264B254A126808
:1005E00042F440121A60234B224A126822F440025D
:1005F0001A60204B1F4A126842F400021A601A4B1C
:10060000194A926942F480529A611B4B4FF00002E2
:100610009A80194B4FF004021A80174B164A128821
:1006200092B242F0380292B21A80134B124A1288E8
:1006300092B242F4807292B21A800F4B0E4A128824
:1006400092B242F4007292B21A800B4B0A4A12889C
:1006500092B242F0400292B21A804FF001004FF085
:10066000010104F021FC80BD0010024000023000B6
:1006700000080140000C01400030014080B582B00C
:1006800000AF1D4B1B78DBB203F00103002B08D138
:100690001A484FF4004100F041FEFFF785FEFFF7D6
:1006A0009FFE174808F0DAFC15484FF0000108F0EB
:1006B00015FD4FF480504FF0000104F017FC4FF08F
:1006C0003803BB804FF02803FB7107F104030D488A
:1006D000194600F035FD4FF00000FFF729FE064BEC
:1006E0001B78DBB243F00103DAB2034B1A7007F157
:1006F0000807BD4680BD00BF000000200008014083
:1007000000300140000C014080B584B000AF78603B
:100710003960134B4FF00A021A60FFF73BFE0346A5
:10072000FB73FB7BFF2B03D10D4B1B68002BF4D11C
:10073000FB7BFE2B02D04FF000030BE04FF00100DB
:1007400079683A68FFF758FEFFF724FEFFF722FEAC
:100750004FF00103184607F11007BD4680BD00BFEA
:100760001800002080B584B000AF78600B46FB70A5
:10077000FFF71AFE0346FF2B02D04FF0000323E0E1
:10078000FB781846FFF7E6FDFB78FD2B1AD04FF0FB
:10079000000079684FF40072FFF72EFE4FF0FF0063
:1007A000FFF7D8FD4FF0FF00FFF7D4FDFFF7F2FD94
:1007B0000346FB73FB7B03F01F03052B02D04FF0B6
:1007C000000301E04FF00103184607F11007BD4692
:1007D00080BD00BF80B584B000AF03463960FB71B7
:1007E000FB795BB2002B10DAFB7903F07F03FB711E
:1007F0004FF077004FF00001FFF7ECFF0346BB73AB
:10080000BB7B012B01D9BB7B5AE030484FF4004140
:1008100000F076FD2D484FF4004100F07FFDFFF71A
:10082000C3FD0346FF2B02D04FF0FF0348E0FB79E6
:100830001846FFF78FFD3B684FEA1363DBB218469B
:10084000FFF788FD3B684FEA1343DBB21846FFF71A
:1008500081FD3B684FEA1323DBB21846FFF77AFDB0
:100860003B68DBB21846FFF775FD4FF00103FB73E1
:10087000FB79402B02D14FF09503FB73FB79482B9A
:1008800002D14FF08703FB73FB7B1846FFF762FD35
:10089000FB794C2B01D1FFF77DFD4FF00A03FB7371
:1008A000FFF778FD0346BB73BB7B5BB2002B06DA18
:1008B000FB7B03F1FF33FB73FB7B002BF0D1BB7B96
:1008C000184607F11007BD4680BD00BF0008014073
:1008D00090B585B000AF0346FB71FB79002B02D0C9
:1008E0004FF00103DCE0714B1B78DBB203F0020335
:1008F000002B03D06D4B1B78DBB2D1E0FFF716FE67
:100900004FF00000FFF7F2FC4FF00A03FB7305E025
:10091000FFF740FDFB7B03F1FF33FB73FB7B002BF9
:10092000F6D14FF000037B734FF040004FF0000111
:10093000FFF750FF0346012B40F098805C4B4FF0CF
:1009400064021A604FF048004FF4D571FFF742FF80
:100950000346012B56D14FF00003FB730DE0FC7BE7
:10096000FFF718FD03461A4607F110010B1903F8AB
:10097000082CFB7B03F10103FB73FB7B032BEED9FC
:10098000BB7A012B72D1FB7AAA2B6FD100BF484BE7
:100990001B68002B08D04FF0E9004FF08041FFF7B3
:1009A00019FF0346002BF2D1414B1B68002B5DD091
:1009B0004FF07A004FF00001FFF70CFF0346002BC9
:1009C00054D14FF00003FB730DE0FC7BFFF7E2FC1A
:1009D00003461A4607F110010B1903F8082CFB7B9C
:1009E00003F10103FB73FB7B032BEED93B7A03F08E
:1009F0004003002B02D04FF00C0301E04FF0040342
:100A00007B7333E04FF0E9004FF00001FFF7E2FEA7
:100A10000346012B06D84FF002037B734FF0E90326
:100A2000BB7306E04FF001037B734FF04103BB73D0
:100A300000BF1F4B1B68002B08D0BB7B18464FF034
:100A40000001FFF7C7FE0346002BF2D1184B1B68CD
:100A5000002B08D04FF050004FF40071FFF7BAFEA2
:100A60000346002B02D04FF000037B73114B7A7BBF
:100A70001A70FFF7B5FC7B7B002B0CD00B4B1B785F
:100A8000DBB223F00103DAB2084B1A704FF0010019
:100A9000FFF72CFC01E0FFF7F1FD044B1B78DBB204
:100AA000184607F11407BD4690BD00BF00000020A6
:100AB000180000202000002080B483B000AF03465F
:100AC000FB71FB79002B02D04FF0010302E0044BD5
:100AD0001B78DBB2184607F10C07BD4680BC704797
:100AE0000000002080B584B000AFB9607A60024693
:100AF000FA73FB70FB7B002B02D1FB78002B02D139
:100B00004FF0040359E02F4B1B78DBB203F00103D5
:100B1000DBB2002B02D04FF003034EE02A4B1B78D0
:100B200003F00803002B03D17B684FEA43237B606B
:100B3000FB78012B13D14FF051007968FFF74AFE83
:100B40000346002B31D1B8684FF40071FFF7DCFD8C
:100B50000346002B29D04FF00003FB7025E04FF037
:100B600052007968FFF736FE0346002B1DD1B868A6
:100B70004FF40071FFF7C8FD034683F00103DBB2B9
:100B8000002B0BD1BB6803F50073BB60FB7803F14E
:100B9000FF33FB70FB78002BE9D100E000BF4FF082
:100BA0004C004FF00001FFF715FEFFF719FCFB7832
:100BB000002B0CBF00230123DBB2184607F11007FE
:100BC000BD4680BD000000202000002080B584B01C
:100BD00000AFB9607A600246FA73FB70FB7B002BB2
:100BE00002D1FB78002B02D14FF0040378E03F4B99
:100BF0001B78DBB203F00103DBB2002B02D04FF015
:100C000003036DE0394B1B78DBB203F00403002BC8
:100C100002D04FF0020363E0354B1B7803F008036A
:100C2000002B03D17B684FEA43237B60FB78012BC9
:100C300013D14FF058007968FFF7CCFD0346002B25
:100C400046D1B8684FF0FE01FFF78CFD0346002B3C
:100C50003ED04FF00003FB703AE0254B1B7803F0C9
:100C60000603002B05D0FB784FF0D7001946FFF79D
:100C7000B1FD4FF059007968FFF7ACFD0346002B3A
:100C800026D1B8684FF0FC01FFF76CFD034683F0F6
:100C90000103DBB2002B0BD1BB6803F50073BB6013
:100CA000FB7803F1FF33FB70FB78002BE9D100E008
:100CB00000BF4FF000004FF0FD01FFF753FD03466A
:100CC00083F00103DBB2002B02D04FF00103FB7075
:100CD000FFF786FBFB78002B0CBF00230123DBB260
:100CE000184607F11007BD4680BD00BF0000002078
:100CF0002000002090B58BB000AF0B463A60024652
:100D0000FA71BB713B683B62FB79002B02D04FF05C
:100D1000040310E24FF0010387F82730BB79052B5D
:100D20002DD13B6A1B78012B0FD0022B14D0002B46
:100D300020D1FFF707FB0346002B01D0FFF79EFCF5
:100D40004FF0000387F82730F3E1FFF7EFFB4FF098
:100D5000000387F82730ECE13B6A03F10104FFF759
:100D6000F1FA0346DBB223704FF0000387F8273017
:100D700000BFDEE14FF0040387F82730D9E1AE4B26
:100D80001B78DBB203F00103DBB2002B02D04FF083
:100D90000303D0E1BB790E2B00F2A98101A252F826
:100DA00023F000BFE10D0008010E0008D10E00087D
:100DB000E30E0008EF100008EF100008EF10000825
:100DC000EF100008EF100008EF100008FB0F0008FC
:100DD0000D1000084510000871100008BF10000831
:100DE00096484FF4004100F099FAFFF7DDFA034608
:100DF000FF2B40F081814FF0000387F8273096E108
:100E00004FF049004FF00001FFF7E4FC0346002BD0
:100E100040F0748107F10C0318464FF01001FFF702
:100E200073FC0346002B00F06B813B7B4FEA93136E
:100E3000DBB2012B10D17B7D1A463B7D4FEA0323A9
:100E40009BB2D3189BB203F10103FB833B68FA8B7F
:100E50004FEA82221A6036E07B7C03F00F03DAB29D
:100E6000BB7D4FEAD313DBB2D318DAB27B7D03F03C
:100E70000303DBB24FEA4303DBB2D318DBB203F167
:100E8000020387F826303B7D4FEA9313DBB21A4604
:100E9000FB7C4FEA83039BB2D3189AB2BB7C03F06E
:100EA00003039BB24FEA83239BB2D3189BB203F197
:100EB0000103FB833B68F98B97F82620A2F1090216
:100EC00001FA02F21A604FF0000387F827302EE192
:100ED0003B684FF400721A804FF0000387F8273008
:100EE00025E1574B1B7803F00403002B36D04FF05D
:100EF000CD004FF00001FFF76DFC0346002B40F0E2
:100F00000181FFF747FA07F10C0318464FF0100173
:100F1000FFF7FAFB0346002B00F0F6804FF030039A
:100F200087F8263007E0FFF735FA97F8263003F107
:100F3000FF3387F8263097F82630002BF3D13B6833
:100F4000BA7D4FEA1212D2B24FF0100101FA02F24A
:100F50001A604FF0000387F82730E8E04FF04900AF
:100F60004FF00001FFF736FC0346002B40F0CE8027
:100F700007F10C0318464FF01001FFF7C5FB0346BD
:100F8000002B00F0C5802E4B1B7803F00203002BD2
:100F900016D03B68BA7D02F03F024FEA4201FA7D6B
:100FA0004FEAD212D2B28A1802F101017A7E4FEAD8
:100FB0009212D2B202F1FF3201FA02F21A6017E085
:100FC0003B68BA7D02F07C024FEAA20292B202F1C3
:100FD0000102F97D01F003014FEAC100F97D4FEAFA
:100FE0005111C9B2411801F1010101FB02F21A606D
:100FF0004FF0000387F8273099E0114B1A783B6ACD
:101000001A704FF0000387F8273090E04FF0490046
:101010004FF00001FFF7DEFB0346002B7AD1386A60
:101020004FF01001FFF770FB0346002B74D04FF018
:10103000000387F827307AE0000000200008014014
:10104000200000204FF04A004FF00001FFF7C2FBE4
:101050000346002B62D1386A4FF01001FFF754FBB2
:101060000346002B5CD04FF0000387F827305EE08A
:101070004FF07A004FF00001FFF7ACFB0346002B66
:1010800050D14FF0040387F826300FE0FFF782F9C4
:1010900003461A463B6A1A703B6A03F101033B623E
:1010A00097F8263003F1FF3387F8263097F826307B
:1010B000002BEBD14FF0000387F8273037E04FF0DB
:1010C000CD004FF00001FFF785FB0346002B2BD12D
:1010D000FFF760F9386A4FF04001FFF715FB034650
:1010E000002B23D04FF0000387F827301FE04FF08C
:1010F000040387F827301AE000BF18E000BF16E0AD
:1011000000BF14E000BF12E000BF10E000BF0EE01F
:1011100000BF0CE000BF0AE000BF08E000BF06E02F
:1011200000BF04E000BF02E000BF00E000BFFFF727
:1011300057F997F82730184607F12C07BD4690BDA0
:1011400080B489B000AF786039604FF00003FB6174
:101150004FF000033B614FF00003BB614FF0000311
:10116000FB604FF000037B614FF00003BB603B6806
:10117000DB7803F00F03FB613B68DB7803F01003BF
:10118000002B05D03B689B78FA6942EA0303FB61B8
:101190003B681B8803F0FF03002B51D07B681B6862
:1011A0007B614FF00003BB6144E0BB694FF001027B
:1011B00002FA03F3FB603B681B881A46FB6802EAED
:1011C00003033B613A69FB689A422FD1BB694FEA3E
:1011D0008303FB60FB684FF00F0202FA03F3BB606E
:1011E000BB686FEA03037A6902EA03037B61FB6869
:1011F000FA6902FA03F37A6942EA03037B613B6806
:10120000DB78282B07D1BB694FF0010202FA03F209
:101210007B685A610AE03B68DB78482B06D1BB69E2
:101220004FF0010202FA03F27B681A61BB6903F115
:101230000103BB61BB69072BB7D97B687A691A6068
:101240003B681B88FF2B56D97B685B687B614FF03E
:101250000003BB6149E0BB6903F108034FF00102E1
:1012600002FA03F3FB603B681B881A46FB6802EA3C
:1012700003033B613A69FB689A4232D1BB694FEA8A
:101280008303FB60FB684FF00F0202FA03F3BB60BD
:10129000BB686FEA03037A6902EA03037B61FB68B8
:1012A000FA6902FA03F37A6942EA03037B613B6855
:1012B000DB78282B08D1BB6903F108034FF001024A
:1012C00002FA03F27B685A613B68DB78482B08D14D
:1012D000BB6903F108034FF0010202FA03F27B68D5
:1012E0001A61BB6903F10103BB61BB69072BB2D96A
:1012F0007B687A695A6007F12407BD4680BC704755
:1013000080B483B000AF78600B467B807A887B68BE
:101310001A6107F10C07BD4680BC704780B483B0EA
:1013200000AF78600B467B807A887B685A6107F152
:101330000C07BD4680BC704780B483B000AF7860B6
:101340000B467B807A887B68DA6007F10C07BD4624
:1013500080BC704780B487B000AF78600B46FB70EC
:101360004FF000033B614FF00003FB604FF00003C0
:101370007B614FF00003BB607B68002B03DA354BC9
:10138000DB697B6102E0334B5B687B617B6803F464
:1013900070234FEA1343BB607B684FEA03434FEA75
:1013A00013433B617B6803F44013B3F5401F0AD13C
:1013B0007B6923F070637B61264B264A526822F0DA
:1013C00070625A6028E07B6803F48013002B11D010
:1013D000BB684FF0030202FA03F3FB60FB686FEA9D
:1013E00003037A6902EA03037B617B6943F070635C
:1013F0007B6111E07B684FEA53534FEA03133A696C
:1014000002FA03F36FEA03037A6902EA03037B61DA
:101410007B6943F070637B61FB78002B0BD07B68AA
:101420004FEA53534FEA03133A6902FA03F37A6916
:1014300042EA03037B617B68002B03DA054B7A6980
:10144000DA6102E0034B7A695A6007F11C07BD4676
:1014500080BC70470000014080B58AB000AF786062
:1014600039604FF000033B767968B14BA3FB012351
:101470004FEAD30213464FEA83039B184FEA430314
:10148000CA1AD3B203F13003DBB2FB757A68A84BFA
:10149000A3FB02134FEAD3037B607968A44BA3FB41
:1014A00001234FEAD30213464FEA83039B184FEA06
:1014B0004303CA1AD3B203F13003DBB2BB757A68B7
:1014C0009B4BA3FB02134FEAD3037B607968984BD5
:1014D000A3FB01234FEAD30213464FEA83039B1871
:1014E0004FEA4303CA1AD3B203F13003DBB27B7570
:1014F0007A688F4BA3FB02134FEAD3037B607968B2
:101500008B4BA3FB01234FEAD30213464FEA83031D
:101510009B184FEA4303CA1AD3B203F13003DBB27C
:101520003B757A68824BA3FB02134FEAD3037B60BF
:1015300079687F4BA3FB01234FEAD30213464FEA9E
:1015400083039B184FEA4303CA1AD3B203F1300353
:10155000DBB2FB747A68764BA3FB02134FEAD3032A
:101560007B607968724BA3FB01234FEAD3021346D9
:101570004FEA83039B184FEA4303CA1AD3B203F11D
:101580003003DBB2BB744FF0190003F0EBFD7A6857
:10159000674BA3FB02134FEAD3037B607968644B6C
:1015A000A3FB01234FEAD30213464FEA83039B18A0
:1015B0004FEA4303CA1AD3B203F13003DBB27B74A0
:1015C0007A685B4BA3FB02134FEAD3037B60796815
:1015D000574BA3FB01234FEAD30213464FEA830381
:1015E0009B184FEA4303CA1AD3B203F13003DBB2AC
:1015F0003B747A684E4BA3FB02134FEAD3037B6024
:1016000079684B4BA3FB01234FEAD30213464FEA01
:1016100083039B184FEA4303CA1AD3B203F1300382
:10162000DBB2FB737A68424BA3FB02134FEAD3038E
:101630007B6079683E4BA3FB01234FEAD30213463C
:101640004FEA83039B184FEA4303CA1AD3B203F14C
:101650003003DBB2BB737A68354BA3FB02134FEA4E
:10166000D3037B607968324BA3FB01234FEAD3029B
:1016700013464FEA83039B184FEA4303CA1AD3B2B7
:1016800003F13003DBB27B737A68294BA3FB0213AF
:101690004FEAD3037B607968254BA3FB01234FEA14
:1016A000D30213464FEA83039B184FEA4303CA1A37
:1016B000D3B203F13003DBB23B737A681C4BA3FB5C
:1016C00002134FEAD3037B607968194BA3FB012314
:1016D0004FEAD30213464FEA83039B184FEA4303B2
:1016E000CA1AD3B203F13003DBB2FB727A68104B33
:1016F000A3FB02134FEAD3037B6079680C4BA3FB77
:1017000001234FEAD30213464FEA83039B184FEAA3
:101710004303CA1AD3B203F13003DBB2BB727A6857
:10172000034BA3FB02134FEAD3037B60796801E00C
:10173000CDCCCCCC324BA3FB01234FEAD3021346D2
:101740004FEA83039B184FEA4303CA1AD3B203F14B
:101750003003DBB27B727A68294BA3FB02134FEA9A
:10176000D301274BA3FB01234FEAD30213464FEAD1
:1017700083039B184FEA4303CA1AD3B203F1300321
:10178000DBB23B724FF000033B6207F108023B6A99
:10179000D3181B78FB614FF03003FB614FF0190049
:1017A00003F0E0FC09E03B6A03F101033B6207F14F
:1017B00008023B6AD3181B78FB61FB69302BF2D01F
:1017C0004FF0190003F0CEFC3B6A7B620EE07A6AB0
:1017D0003B6AD31A3A68D31807F108017A6A8A1863
:1017E00012781A707B6A03F101037B627B6A102B0B
:1017F000EDDD3B68184607F12807BD4680BD00BFF8
:10180000CDCCCCCC80B58EB000AF78604FF064000A
:1018100003F0A8FC4FF0320003F0A4FC01F068FED6
:1018200038634FF0640003F09DFC504B1B781A4660
:101830004F4B1B68D2183B6B9A4280F0918007F1A6
:101840000803386B194602F031FA4FF0640003F0D8
:1018500089FC4FF000037B630DE007F108027B6B0E
:10186000D3181A7807F118017B6BCB181A707B6BB1
:1018700003F101037B637B6B092BEEDD4FF064000A
:1018800003F070FC4FF02C0387F822304FF0640017
:1018900003F068FC03F0D6FC4FF000037B630FE01D
:1018A0007B6B03F10B0333497A6B8A18127807F1CB
:1018B0003801CB1803F8202C7B6B03F101037B6309
:1018C0007B6B032BECDD03F0CBFC4FF0640003F0EB
:1018D00049FC4FF02C0387F827304FF00003FB85BD
:1018E0004FF000037B6321E04FF001027B6B02FAB3
:1018F00003F39AB2204B1B689BB202EA0303FB85F9
:10190000FA8D7B6B42FA03F3FB857B6B03F11003CB
:10191000FA8DD2B202F13002D2B207F13801CB18FF
:1019200003F8202C7B6B03F101037B637B6B022BA1
:10193000DADD4FF00A0387F82B3007F11803184659
:101940004FF0140100F01AF8034687F82D304FF0DD
:10195000640003F007FC01F0CBFD0246044B1A6063
:101960004FF0640003F0FEFB58E700BF28000020A2
:101970003C000020281A0020241A002080B588B0DE
:1019800000AF78603960314B1B68002B55D1304A6D
:1019900007F10C0307CA03C31A8003F102034FEADD
:1019A00012421A7003F04EFC07F10C032948194645
:1019B0004FF0030206F0B8FC0346FB77FB7F002BD9
:1019C0000ED007F10C03234819464FF00A0206F027
:1019D000ABFC0346FB77FB7F002B01D0FB7F30E0A5
:1019E0001C4BDB681B48194607F07EF80346FB7763
:1019F000FB7F002B01D0FB7F23E03A6807F118033F
:101A00001448796806F0F6FD0346FB77FB7F002B50
:101A100001D0FB7F15E00F4806F090FF0346FB77EF
:101A2000FB7F002B01D0FB7F0BE00A4807F046F854
:101A30000346FB7703F014FC02E04FF00003FB7752
:101A4000FB7F184607F12007BD4680BD181A00200D
:101A500084A100084000002080B588B000AF4FF09E
:101A60000003FB614FF00003BB6151E001F0C6FED3
:101A70000346FB6102F056FF4FF0190003F072FBC2
:101A80004FF000004FF0000102F080FD5A4802F0D4
:101A900053FD4FF000004FF0080102F077FD4FF0CA
:101AA000190003F05FFB554B1B881A463B46104656
:101AB0001946FFF7D1FC3B46184602F03DFD4FF0BA
:101AC00001004FF0050102F061FD4D4B1B881A46E5
:101AD0003B4610461946FFF7BFFC3B46184602F04E
:101AE0002BFD4FF0190003F03DFB4FF001004FF0CC
:101AF000000102F04BFD00F08DF84FF0190003F0EB
:101B000031FB404802F018FD4FF4FA7003F02AFB55
:101B1000FB69022BAAD13C4B1B6CFB82FB8A40F277
:101B20000160194607F014FE4FF00003FB614FF00F
:101B3000C80003F017FB4DE001F060FE0346FB61B7
:101B400002F0F0FE4FF0190003F00CFB4FF0000024
:101B50004FF0000102F01AFD2C4802F0EDFC4FF0AE
:101B600000004FF0080102F011FD00F053F8284B7F
:101B70001B881A463B4610461946FFF76DFC3B464C
:101B8000184602F0D9FC4FF001004FF0050102F0B9
:101B9000FDFC1B4B1B881A463B4610461946FFF7B7
:101BA0005BFC3B46184602F0C7FC4FF0190003F0FF
:101BB000D9FA4FF001004FF0000102F0E7FC4FF0BE
:101BC000190003F0CFFA0F4802F0B6FC4FF4FA7098
:101BD00003F0C8FAFB69022BAED10B4B1B6CFB82E6
:101BE000074B1B884FF4C060194607F0B1FD07F1A1
:101BF0002007BD4680BD00BF90A100082C0000203A
:101C00002E1A0020281A00200024014098A1000864
:101C10003400002080B584B000AF4FF00003FB60BB
:101C20004FF0190003F09EFA4FF00003BB600AE08A
:101C3000434BBA6833F81230FA68D318FB60BB68BC
:101C400003F10103BB60BB68092BF1DDFA683D4B72
:101C5000A3FB02134FEAD3039AB23B4B1A804FF017
:101C60000A0003F07FFA384B1B881A46374B1B6873
:101C7000D21A13464FEA83039B184FEA43031A46CE
:101C8000334B1B68B2FBF3F37B6079682D4BA3FBEE
:101C900001234FEAD30213464FEA83039B184FEA0E
:101CA0004303CA1AD3B203F13003DAB2294BDA7014
:101CB0004FF00A0003F056FA7A68224BA3FB021396
:101CC0004FEAD3037B60234B4FF02E029A70796862
:101CD0001C4BA3FB01234FEAD30213464FEA8303B5
:101CE0009B184FEA4303CA1AD3B203F13003DAB2A6
:101CF000184B5A704FF00A0003F034FA7A68114B0F
:101D0000A3FB02134FEAD3037B6079680D4BA3FB5F
:101D100001234FEAD30213464FEA83039B184FEA8D
:101D20004303CA1AD3B203F13003DAB2094B1A7073
:101D3000084B4FF000021A7107F11007BD4680BD35
:101D4000001A0020CDCCCCCC2E1A00203000002070
:101D500038000020281A002080B584B000AF034668
:101D6000FB7102F0DFFD4FF000004FF0000102F0C8
:101D70000DFC374802F0E0FB364BFA7910469847E5
:101D8000354802F0D9FBFB799BB203F5FA43BB81DE
:101D9000BA8907F10A031046194607F081FC4FF093
:101DA000320003F0DFF939E001F028FD0346FB7350
:101DB0004FF0190003F0D6F9FB7B012B0BD17B8987
:101DC000002B03D14FF063037B8104E07B8903F197
:101DD000FF339BB27B81FB7B042B0BD17B89622B76
:101DE00003D94FF000037B8104E07B8903F10103F9
:101DF0009BB27B814FF001004FF0000102F0C6FB67
:101E0000164802F099FB134B7A89104698471448FC
:101E100002F092FB4FF0190003F0A4F9FB7B022BB8
:101E2000C2D14FF0320003F09DF9FB799BB203F56C
:101E3000FA43BB817B89BA891046194607F088FCB2
:101E4000084B984702F06EFD07F11007BD4680BDB4
:101E5000A0A10008193B0008A8A10008B0A1000833
:101E6000BCA100082942000880B588B000AF7860A6
:101E700001F03EFBB8614FF00003FB7774E0FB7F9D
:101E80009BB21A464FEA8202D3184FEA43039BB231
:101E9000A3F50043FB82FB8A184602F029F838615B
:101EA000FB8A03F102039BB2184602F021F8F860A6
:101EB0003B695C4AA2FB03124FEA12425A4901FBFA
:101EC00002F29B1A3B61FB68564AA2FB03124FEADF
:101ED0001242554901FB02F29B1AFB60BB69514A51
:101EE000A2FB03124FEA12424F4901FB02F29B1A76
:101EF000BB614FF4967003F035F9BA69FB689A42FA
:101F000007D2BA693B699A4203D94FF00103BB7704
:101F100002E04FF00003BB773A69FB689A4203D9AD
:101F2000BB7F83F00103BB77BB7F012B0BD1FB7F12
:101F30004FF0010202FA03F31A463C4B1B681A43A6
:101F40003A4B1A600CE0FB7F4FF0010202FA03F3F8
:101F50006FEA03031A46354B1B681A40334B1A606D
:101F6000FB7F03F10103FB77FB7F022B87D94FF047
:101F7000010003F0F7F84FF00003FB774DE0FB7F23
:101F80009BB21A464FEA8202D3189BB203F5FC4378
:101F9000FB82FB8A184601F0ABFF3861FB8A03F134
:101FA00002039BB2184601F0A3FFF8604FF0010056
:101FB00003F0D8F801F09CFAB861BB69FA68B3FB8A
:101FC000F2F2F96801FB02F29B1ABB61BA693B6944
:101FD0009A420ED24FF00103BB77FB7F4FF0010214
:101FE00002FA03F31A46124B1B681A43104B1A608D
:101FF0000FE04FF00003BB77FB7F4FF0010202FAC6
:1020000003F36FEA03031A46094B1B681A40084B97
:102010001A60FB7F03F10103FB77FB7F022BAED934
:1020200026E700BF07452EC2805101001C1A002080
:10203000CC17002080B584B000AF78604FF000036B
:102040007B7343E07B7B254AD35CBB73BB7B1F2B3D
:1020500010D8BB7B4FF0010202FA03F3DAB2204B37
:102060001B68DBB202EA0303FB73FA7BBB7B42FA19
:1020700003F3FB73BB7B1F2B14D9BB7BA3F12003A2
:10208000BB73BB7B4FF0010202FA03F3DAB2154BCC
:102090001B68DBB202EA0303FB73FA7BBB7B42FAE9
:1020A00003F3FB73FB7B012B06D1BB7B18464FF080
:1020B000010100F019F805E0BB7B18464FF0000164
:1020C00000F012F87B7B03F101037B737B7B022B17
:1020D000B8D94FF0010003F045F8AFE70400002045
:1020E0001C1A0020CC17002080B483B000AF024639
:1020F0000B46FA71BB71BB79012B12D1154BFA79E2
:102100004FF0010101FA02F21A61FB794FF001026E
:1021100002FA03F31A46104B1B681A430E4B1A605F
:1021200013E00C4BFA794FF0010101FA02F25A6107
:10213000FB794FF0010202FA03F36FEA03031A4638
:10214000054B1B681A40044B1A6007F10C07BD468B
:1021500080BC704700100140241A002080B584B074
:1021600000AF4FF00003FB7202F0DCFB4FF0000009
:102170004FF0010102F00AFA284802F0DDF947F6B3
:10218000FF433B813A8907F106031046194607F0E1
:1021900087FA4FF00A0002F0E5FF2FE04FF06400ED
:1021A00002F0E0FF4FF001004FF0030102F0EEF902
:1021B0001B4B1B6CFB604FF00A0002F0D3FF194B66
:1021C000F86898474FF001004FF0010102F0DEF986
:1021D000FA68154BA3FB02134FEA5313FB604FF051
:1021E0000A0002F0BFFF0F4BF86898474FF00A0053
:1021F00002F0B8FF01F002FB0346FB72FB7A022BF0
:10220000CCD1FB689BB23A891046194607F0A0FA78
:1022100002F088FB07F11007BD4680BDC0A1000891
:1022200000240140193B00081F85EB5180B584B0A4
:1022300000AF03463960FB803B68FB813B684FEA97
:102240001343BB81FB8803F101039AB2FB8910465B
:10225000194607F07DFAFA88BB891046194607F03F
:1022600077FA07F11007BD4680BD00BF80B584B086
:1022700000AF0346FB71FB7903F1FF33102B6FD8DE
:1022800001A252F823F000BF61230008CD2200080C
:10229000D7220008E1220008EB2200080D230008E5
:1022A00017230008212300082B23000835230008EA
:1022B0003F23000861230008492300084F2300083A
:1022C00055230008612300085B230008264B4FF0CC
:1022D0000000984744E0244B4FF0010098473FE04E
:1022E000214B4FF0020098473AE001F001F9034614
:1022F000FB81FB8918464FF0010100F09BFBB860A1
:10230000B86801F007F902F00DFB29E04FF000007A
:1023100000F022FA24E04FF0010000F01DFA1FE067
:102320004FF0020000F018FA1AE04FF00000FFF73B
:1023300013FD15E04FF00100FFF70EFD10E04FF028
:102340000200FFF709FD0BE0084B984708E0FFF794
:1023500005FF05E0FFF780FB02E000F009F800BF91
:1023600007F11007BD4680BD85280008112400082C
:1023700080B584B000AF4FF00A0002F0F3FE02F027
:10238000D1FA07F10C034FF4C460194607F088F93D
:102390004FF0640002F0E6FE4FF000004FF0000145
:1023A00002F0F4F8174802F0C7F840F6B83002F02F
:1023B000D9FEFB68DBB2184600F0A0F80346FB60CC
:1023C000FB689BB24FF4C460194607F0C1F94FF0A7
:1023D000320002F0C7FE02F0A5FA4FF000004FF005
:1023E000020102F0D3F8084802F0A6F84FF4FA70A0
:1023F00002F0B8FE054B984702F094FA07F1100777
:10240000BD4680BD04A2000814A2000829420008AD
:1024100080B584B000AF4FF00A0002F0A3FE02F0D6
:1024200081FA07F10C0340F20260194607F038F90F
:102430004FF0640002F096FE4FF000004FF00001F4
:1024400002F0A4F8294802F077F84FF47A7002F00D
:1024500089FEFB68DBB2184600F050F80346FB60CB
:10246000FB689BB240F20260194607F071F94FF029
:10247000320002F077FE07F10C0340F203601946C8
:1024800007F00EF902F04EFA4FF000004FF0020193
:1024900002F07CF8164802F04FF84FF4FA7002F0A0
:1024A00061FEFB68DBB2184600F028F80346FB60CB
:1024B000FB689BB240F20360194607F049F902F04D
:1024C00031FA4FF000004FF0020102F05FF80948C6
:1024D00002F032F84FF4FA7002F044FE064B9847CF
:1024E00002F020FA07F11007BD4680BD20A20008C7
:1024F00034A2000814A200082942000880B584B064
:1025000000AF0346FB71FB79632B3BD94FF06303AC
:10251000FB7137E001F072F90346FB734FF01900CD
:1025200002F020FEFB7B012B0AD1FB79002B03D1AB
:102530004FF06303FB7103E0FB7903F1FF33FB71A1
:10254000FB7B042B0AD1FB79622B03D94FF00003EC
:10255000FB7103E0FB7903F10103FB714FF0010014
:102560004FF0000102F012F80B4801F0E5FF0B4BB1
:10257000FA79104698470A4801F0DEFF4FF019003B
:1025800002F0F0FDFB7B022BC4D1FB79184607F16A
:102590001007BD4680BD00BFB0A10008193B000870
:1025A000BCA1000880B586B000AF78607968664B42
:1025B000A3FB01234FEA531213464FEA03139B1A5E
:1025C0004FEA8303CA1A13467B757A685E4BA3FBF6
:1025D00002134FEA53137B6079685B4BA3FB012323
:1025E0004FEA531213464FEA03139B1A4FEA830331
:1025F000CA1A1346BB757A68534BA3FB02134FEA02
:1026000053137B607968514BA3FB01234FEA1312EC
:1026100013464FEA43039B184FEAC303CA1A1346F3
:10262000FB7502F07FF94FF0140002F09BFD80E093
:1026300001F0E4F803463B753B7D012B0AD1FB7D9D
:10264000622B03D94FF00003FB7503E0FB7D03F120
:102650000103FB753B7D022B0AD1BB7D3A2B03D9CD
:102660004FF00003BB7503E0BB7D03F10103BB75B5
:102670003B7D032B0AD17B7D3A2B03D94FF000031E
:102680007B7503E07B7D03F101037B754FF0140044
:1026900002F068FD4FF000004FF0040101F076FFFA
:1026A0002B4BFA7D104698472A4801F045FF284BEE
:1026B000BA7D10469847274801F03EFF244B7A7DAB
:1026C000104698474FF00A0002F04CFDFB7DFB746A
:1026D000BB7DBB747B7D7B74FB7C4FF4616202FB32
:1026E00003F37B60BA7C13464FEA03139B1A4FEA4D
:1026F00083037A68D3187B607B7C7A68D3187B600D
:102700004FF00A0002F02EFD4FF001004FF00301E0
:1027100001F03CFF07F108037868194601F0C6FA9A
:1027200007F10803184600F0F5FA4FF00A0002F02E
:1027300019FD3B7D042B7FF47BAF7B68184607F1C6
:102740001807BD4680BD00BF89888888ABAAAAAAA1
:10275000193B000800A2000880B586B000AF034610
:10276000FB714FF00A0002F0FDFC02F0DBF8FB7990
:102770009BB21A464FEA8202D3189BB203F5FC4380
:102780007B827B8A184601F0B3FB78617A69394B0A
:102790009A4201D9374B7B614FF000004FF00201A4
:1027A00001F0F4FE344801F0C7FE40F6B83002F004
:1027B000D9FC7869FFF7F6FE7861FB799BB21A467F
:1027C0004FEA8202D3189BB203F5FC437B827B8ADB
:1027D00018467969FFF72AFD4FF0320002F0C2FC7B
:1027E000FB799BB21A464FEA8202D3189BB203F5DB
:1027F000FC4303F102037B827B8A184601F078FBDD
:10280000786102F08FF84FF000004FF0020101F004
:10281000BDFE1A4801F090FE4FF4FA7002F0A2FCDF
:102820007869FFF7BFFE7861FB799BB21A464FEAE1
:102830008202D3189BB203F5FC4303F102037B82AF
:102840007B8A18467969FFF7F1FC02F06BF84FF0CC
:1028500000004FF0020101F099FE094801F06CFE02
:102860004FF4FA7002F07EFC02F05CF807F11807F2
:10287000BD4680BD3070050040A2000850A200088F
:1028800014A2000880B588B000AF0346FB714FF07A
:102890000003FB61FB799BB21A464FEA8202D31810
:1028A0004FEA43039BB2A3F500437B834FF0000341
:1028B0007B7602F037F84FF000004FF0020101F094
:1028C00065FE444801F038FE40F6B83002F04AFC9C
:1028D00002F028F84FF0320002F044FC7B8B1846DF
:1028E00001F006FB78614FF0320002F03BFC7869A2
:1028F0004FF0010100F09EF838617B8B1846396972
:10290000FFF794FC02F00EF84FF000004FF00201C8
:1029100001F03CFE304801F00FFE4FF0320002F0B3
:1029200021FC02F08FFCFB799BB21A464FEA82022F
:10293000D3184FEA43039BB2A3F5FE43A3F1FE0372
:102940007B837B8B184601F0D3FA786102F088FC18
:1029500040F6B83002F006FC01F0E4FF78694FF071
:10296000010100F067F838617B8B18463969FFF781
:102970005DFC01F0D7FF4FF0320002F0F3FB02F0F4
:1029800061FCFB799BB21A464FEA8202D3184FEAE8
:1029900043039BB2A3F5FE43A3F1FC037B837B8B34
:1029A000184601F0A5FA786102F05AFC7B6903F041
:1029B0000103FB614FF0320002F0D4FB074BDBB2A6
:1029C0001846F96900F00CF801F0ACFF07F1200798
:1029D000BD4680BD60A200086CA200087CA2000871
:1029E00080B584B000AF03463960FB7101F09AFFF7
:1029F0004FF000004FF0000101F0C8FDFB791846D0
:102A000001F09AFD4FF0320002F0ACFB4FF00003F2
:102A1000FB734FF0320002F0A5FBFB7B022BFCD1D5
:102A20004FF0320002F09EFB3B68184607F110079A
:102A3000BD4680BD90B593B000AF78610B46FB7486
:102A40004FF0000387F8433007F1340318467969E3
:102A500000F006FA87E000F0D1FE034687F8433025
:102A600097F84330012B0BD1BB8E162B03D94FF0B7
:102A70000003BB8604E0BB8E03F101039BB2BB865F
:102A800097F84330022B0BD1FB8E3A2B03D94FF032
:102A90000003FB8604E0FB8E03F101039BB2FB867F
:102AA00097F84330032B0BD13B8F3A2B03D94FF0D0
:102AB00000033B8704E03B8F03F101039BB23B879C
:102AC0004FF00A0002F04EFB4FF000004FF0000103
:102AD00001F05CFD8D4BBA8E104698478C4801F092
:102AE0002BFD8A4BFA8E10469847894801F024FD49
:102AF000864B3A8F1046984707F134030FCB00F00E
:102B000067FB786407F124031846796C00F0A8F994
:102B100007F11803786C194601F0C8F84FF000006F
:102B20004FF00A0101F032FD784BBA8C10469847FD
:102B3000764BFA8C10469847744B3A8D104698475E
:102B40004FF001004FF0020101F020FD4FF00A00AC
:102B500002F008FB07F11803184600F0DBF84FF00D
:102B60000A0002F0FFFA97F84330042B7FF473AFAA
:102B70004FF0000387F84330FB7C012B40F0A58029
:102B80009DE000F03BFE034687F8433097F8433062
:102B9000032B0BD1FB8F322B03D94FF00C03FB8798
:102BA00004E0FB8F03F101039BB2FB8797F84330EE
:102BB000022B0BD1BB8F0B2B03D94FF00103BB872B
:102BC00004E0BB8F03F101039BB2BB8797F843304E
:102BD000012B0BD17B8F1E2B03D94FF001037B8779
:102BE00004E07B8F03F101039BB27B874FF00A0067
:102BF00002F0B8FA07F134030FCB00F0E9FA786479
:102C00003B461846796C00F02BF907F124043B464B
:102C1000186859689A6807C49B89238007F11803CC
:102C2000786C194601F042F801F07CFE4FF00A0082
:102C300002F098FA4FF000004FF0000101F0A6FCFE
:102C4000324B7A8F10469847314801F075FC2F4B74
:102C5000BA8F104698472E4801F06EFC2B4BFA8F26
:102C6000104698474FF00A0002F07CFA4FF000003F
:102C70004FF00A0101F08AFC244B7A8D10469847E8
:102C8000224BBA8D10469847204BFA8D1046984734
:102C90004FF001004FF0020101F078FC4FF00A0004
:102CA00002F060FA07F11803184600F033F84FF00D
:102CB0000A0002F057FA4FF0320002F053FA97F888
:102CC0004330042B7FF45DAF19E04FF000037B64C9
:102CD000BB8E4FF4616202FB03F37A6CD3187B6402
:102CE000FB8E1A4613464FEA03139B1A4FEA8303DF
:102CF0007A6CD3187B643B8F7A6CD3187B647B6CC3
:102D0000184607F14C07BD4690BD00BF193B0008AF
:102D100000A2000880B584B000AF786088E001F0C0
:102D200051FCFB7B4FEA1313DBB24FEAC3239BB288
:102D300049481946FEF700FB474B474AD26842F024
:102D40008002DA60444B444AD26842F40072DA608E
:102D5000424B4FF00A021A6000BF404B1B68002B29
:102D60000CBF00220122D2B203F1FF313B4B1960AC
:102D7000002AF2D1384B384AD26822F08002DA6059
:102D800035484FF00001FEF7D7FAFB7B9BB203F00A
:102D90000F039BB24FEAC3239BB22F481946FEF79D
:102DA000CBFA2E4B4FF00A021A6000BF2B4B1B6868
:102DB000002B0CBF00220122D2B203F1FF31274BBE
:102DC0001960002AF2D1244B234AD26842F08002D3
:102DD000DA60214B204AD26842F40072DA601F4B5D
:102DE0004FF00A021A6000BF1C4B1B68002B0CBF7F
:102DF00000220122D2B203F1FF31184B1960002AE0
:102E0000F2D1154B144AD26822F08002DA60124BDC
:102E1000114AD26822F40072DA600F4B0E4AD2686F
:102E200022F48072DA600C484FF00001FEF784FA59
:102E30007B681B78FB73FB7B002B0CBF00230123FB
:102E4000DBB27A6802F101027A60002B7FF467AF8F
:102E500007F11007BD4680BD000C0140C4170020DB
:102E6000B0B48BB000AF054679607A68954BD31843
:102E70003B627968944BA3FB01034FEA531213465C
:102E80004FEA03139B1A4FEA8303CA1A93B23B8299
:102E90007A688D4BA3FB02134FEA53137B6079686A
:102EA000894BA3FB01234FEA531213464FEA031346
:102EB0009B1A4FEA8303CA1A93B2FB817A68824B4A
:102EC000A3FB02034FEA53137B6079687F4BA3FB9C
:102ED00001234FEA131213464FEA43039B184FEAAC
:102EE000C303CA1A93B2BB813A6A794BA3FB0203AC
:102EF0004FEA13433B623A6A764BA3FB02134FEA55
:102F0000D31340F2B55101FB03F3D31AFB833A6AA2
:102F1000704BA3FB02034FEAD3137B77FB8B03F1C8
:102F20000103FB83FB8B3A2B0BD87B7F03F103035D
:102F30009BB24FEA83039BB2FB82FB8B03F101033D
:102F4000BB84FB8B3A2B1DD9FB8BB3F5B77F19D80C
:102F50007B7F9BB24FEA83039AB2FB8B03F1FF3373
:102F60005D4981FB0301C9184FEA21214FEAE37350
:102F7000CB1A9BB2D3189BB203F10C039BB2FB821A
:102F8000FB8BBB84FA8B40F26D139A422CD97B7F6A
:102F90009BB24FEA83039AB2FB8B03F1FF334E4996
:102FA00081FB0301C9184FEA21214FEAE373CB1AD1
:102FB0009BB2D3189BB203F10C039BB2FB82FB8B39
:102FC000A3F5B773444A82FB0312D2184FEA2221B9
:102FD0004FEAE3728A1A40F26D1101FB02F29A1A6B
:102FE00093B203F10103BB84BB8C002B09D0BB8CD3
:102FF0001F2B06D84FF0010387F82730BB8C87F8CA
:103000002630BB8C1F2B0CD9BB8C3B2B09D84FF027
:10301000020387F82730BB8CDBB2A3F11F0387F8CC
:103020002630BB8C3B2B0CD9BB8C5A2B09D84FF0CC
:10303000030387F82730BB8CDBB2A3F13B0387F88F
:103040002630BB8C5A2B0CD9BB8C782B09D84FF06F
:10305000040387F82730BB8CDBB2A3F15A0387F84F
:103060002630BB8C782B0CD9BB8C972B09D84FF012
:10307000050387F82730BB8CDBB2A3F1780387F810
:103080002630BB8C972B0CD9BB8CB52B09D84FF0B5
:10309000060387F82730BB8CDBB203F1690387F89E
:1030A0002630BB8CB52B19D9BB8CD42B16D84FF03E
:1030B000070387F82730BB8CDBB203F14B0387F89B
:1030C00026300BE0800CFFB089888888ABAAAAAABA
:1030D00007452EC273B06D16B1F98CB3BB8CD42BDF
:1030E0000CD9BB8CF32B09D84FF0080387F8273095
:1030F000BB8CDBB203F12C0387F82630BB8CF32B9F
:103100000ED9BA8C40F211139A4209D84FF0090334
:1031100087F82730BB8CDBB203F10D0387F826302C
:10312000BA8C40F211139A420DD9BB8CB3F5987F3B
:1031300009D84FF00A0387F82730BB8CDBB2A3F124
:10314000110387F82630BB8CB3F5987F0DD9BB8C63
:10315000B3F5A77F09D84FF00B0387F82730BB8C56
:10316000DBB2A3F1300387F82630BB8CB3F5A77F21
:103170000ED9BA8C40F26D139A4209D84FF00C0365
:1031800087F82730BB8CDBB2A3F14E0387F82630DB
:1031900097F826309BB27B8297F827309BB2BB8290
:1031A000FB8B3B2B05D14FF01D037B824FF00203BD
:1031B000BB822B4607F10C0407CC186059609A605B
:1031C00022889A81284607F12C07BD46B0BC70477B
:1031D00090B486B000AF3C4684E80F003B890C2BCE
:1031E0004FD801A252F823F01D3200082332000804
:1031F0002B320008333200083B320008433200080B
:103200004B320008533200085B320008633200087A
:103210006B320008733200087B3200084FF0000365
:10322000FB824FF00003FB822BE04FF01F03FB8279
:1032300027E04FF03B03FB8223E04FF05A03FB8271
:103240001FE04FF07803FB821BE04FF09703FB82F7
:1032500017E04FF0B503FB8213E04FF0D403FB827D
:103260000FE04FF0F303FB820BE040F21113FB82FF
:1032700007E04FF49873FB8203E04FF4A773FB82DF
:1032800000BFFA88FB8AD318BB82BB8A3B2B09D8C4
:103290007B8903F003039BB2002B03D1BB8A03F1AC
:1032A000FF33BB823B89022B0CD1FB881C2B09D935
:1032B0007B8903F003039BB2002B03D1BB8A03F18C
:1032C000FF33BB82BB8A002B02D14FF00103BB82CC
:1032D0007B89214A02FB03F2204BD3183B613B88D8
:1032E0004FF4616202FB03F33A69D3183B617B88B8
:1032F0001A4613464FEA03139B1A4FEA83033A69AF
:10330000D3183B61BB881A463B69D218144BD318BB
:103310003B61BB8A134A02FB03F31A463B69D3188D
:10332000A3F52833A3F540733B617B89A3F1080320
:10333000002B01DA03F103034FEAA303094A02FB5E
:1033400003F33A69D3183B613B69184607F1180744
:10335000BD4690BC704700BF8033E101009671E923
:1033600080F3004F8051010080B586B000AF4FF070
:1033700000037B614FF000033B6100F03FFA03461E
:10338000FB6059497A6913464FEAC3039B1A4FEA17
:103390008303CB1803F104031B68BB6096E052491A
:1033A0007A6913464FEAC3039B1A4FEA8303CB188B
:1033B00003F104031B68BB604FF000004FF00001F5
:1033C00001F0E4F84949BA6813464FEAC3039B1871
:1033D0004FEA4303CB18184601F0AEF800F00EFA9E
:1033E00003467B607B68002B05DD4FF0640001F035
:1033F000B9FE01F097FA4FF00A0001F0B3FE7B68C6
:10340000022B2BD138497A6913464FEAC3039B1A22
:103410004FEA8303CB1803F118031B68012B0DD16E
:1034200031497A6913464FEAC3039B1A4FEA830373
:10343000CB1803F110031B683B610CE02A497A6941
:1034400013464FEAC3039B1A4FEA8303CB1803F1D9
:1034500010031B687B6101F065FA37E07B68032B82
:103460000FD121497A6913464FEAC3039B1A4FEAE9
:103470008303CB1803F114031B687B6101F052FA3C
:1034800024E07B68012B0FD117497A6913464FEA74
:10349000C3039B1A4FEA8303CB1803F108031B688D
:1034A0007B6101F03FFA11E07B68042B0ED10E49DD
:1034B0007A6913464FEAC3039B1A4FEA8303CB187A
:1034C00003F10C031B687B6101F02CFA3B69002BB4
:1034D0003FF465AF4FF0010001F044FE3B69184630
:1034E00007F11807BD4680BD009F0008609D0008D9
:1034F00080B400AF064B1B8B9BB24FEA0342044BD8
:103500009B8B9BB242EA03031846BD4680BC7047C2
:103510000028004080B483B000AF78600F4B0F4AA2
:10352000928892B242F0100292B29A800B4B7A6863
:103530004FEA124292B21A83084B7A6892B29A8387
:10354000064B064A928892B222F0100292B29A80FA
:1035500007F10C07BD4680BC704700BF0028004043
:1035600080B400AF2E4B2E4AD26942F0C052DA61CD
:103570002C4B2C4A126842F480721A60284B1B6A4A
:1035800003F40043002B45D1254B254A126A42F42F
:1035900080321A62224B224A126A22F480321A6264
:1035A0001F4B1F4A126A42F401421A621E4B1E4A06
:1035B000928892B242F0100292B29A801A4B47F669
:1035C000FF729A81184B184A928892B222F0100228
:1035D00092B29A80124B124A126A42F001021A62A7
:1035E00000BF0F4B1B6A03F00103002BF9D00E4BF9
:1035F0000D4A928892B222F0080292B29A8000BFDD
:10360000094B9B889BB203F00803002BF8D04FF0C6
:10361000010301E04FF000031846BD4680BC70472F
:1036200000100240007000400028004080B584B0C7
:1036300000AF78604FF00003FB604FF00003FB60C9
:103640000DE0FB6803F101020B4B33F812100A4B3B
:10365000FA6823F81210FB6803F10103FB60FB68B2
:10366000082BEEDD054B1B6C9AB2034B5A824FF0D0
:103670000A0001F077FDDDE7001A00200024014078
:1036800080B590B000AF78604FF00003BB6301F0ED
:1036900049F900E000BFFFF72BFF786307F1200333
:1036A0001846796BFFF7DCFB4FF000004FF000018C
:1036B00000F06CFF4C4BFA8C104698474B4800F0DA
:1036C0003BFF494B3A8D10469847484800F034FF7D
:1036D000454B7A8D104698474FF001004FF000019E
:1036E00000F054FF404B3A8C104698473E4B7A8C82
:1036F000104698473C4BBA8C104698474FF005004F
:1037000001F030FD4FF001004FF0070100F03EFFE7
:10371000374800F011FF4FF0050001F023FDFEF7E0
:1037200079FA3448FFF7F6FA4FF0050001F01AFD78
:1037300040F24E2001F016FD4FF000004FF00A015C
:1037400000F024FF4FF00003FB6318E0FB6B4FF029
:10375000010202FA03F39AB2274B1B689BB202EAFA
:1037600003037B867A8EFB6B42FA03F37B861E4B48
:103770007A8E10469847FB6B03F10103FB63FB6BEA
:10378000022BE3D94FF00E0001F0ECFC07F1180317
:10379000786B1946FDF760FE4FF0030001F0E2FC84
:1037A00000F02CF8034687F831304FF0030001F0A9
:1037B000D9FC97F83130022B7FF46CAF4FF06400E6
:1037C00001F0D0FC01F0AEF84FF4FA7001F0CAFC41
:1037D000FFF7CAFD034687F8303097F830301846B7
:1037E000FEF744FD57E700BF193B000888A2000818
:1037F0008CA20008281A0020241A002080B48FB060
:1038000000AF4FF00A0387F8333068E097F83330A1
:1038100003F1FF3387F833306C4BDB6BFB62FA6AE2
:1038200040F62E139A4294BF00230123DAB2F96ABC
:1038300040F6272399428CBF00230123DBB202EA22
:103840000303DBB2002B3CD1FB6AB3F5FA6F94BFE4
:1038500000230123DAB2F96A40F6FB0399428CBFD8
:1038600000230123DBB202EA0303DBB2002B28D1E1
:10387000FA6A40F2A4639A4294BF00230123DAB2A9
:10388000F96A40F29D7399428CBF00230123DBB299
:1038900002EA0303DBB2002B13D1FB6AB3F5966F88
:1038A00094BF00230123DAB2F96A40F2DB53994254
:1038B0008CBF00230123DBB202EA0303DBB2002B3F
:1038C0000DD097F833304FEA830307F13801CB1856
:1038D000FA6A43F8382C7A6BFB6AD3187B6397F843
:1038E0003330002B92D17A6B394BA3FB02134FEA92
:1038F000D303FB62FA6A40F62E139A4294BF002368
:103900000123DAB2F96A40F6272399428CBF0023DB
:103910000123DBB202EA0303DBB2002B04D04FF039
:10392000040387F82B304AE0FB6AB3F5FA6F94BFC3
:1039300000230123DAB2F96A40F6FB0399428CBFF7
:1039400000230123DBB202EA0303DBB2002B04D025
:103950004FF0030387F82B3031E0FA6A40F2A4639A
:103960009A4294BF00230123DAB2F96A40F29D73B0
:1039700099428CBF00230123DBB202EA0303DBB2CE
:10398000002B04D04FF0020387F82B3017E0FB6ABE
:10399000B3F5966F94BF00230123DAB2F96A40F2BF
:1039A000DB5399428CBF00230123DBB202EA0303FD
:1039B000DBB2002B03D04FF0010387F82B30184601
:1039C00007F13C07BD4680BC704700BF00240140A2
:1039D000CDCCCCCC80B400AF4C4B4C4A926942F079
:1039E00004029A614A4B4A4A126822F030021A6075
:1039F000474B474A126822F0C0021A60444B444ABF
:103A0000126822F440721A60414B414A126822F453
:103A100040621A603E4B3E4A126822F440521A60DD
:103A20003B4B3B4A126822F440421A60384B384AFA
:103A3000126822F440321A60354B354A126822F47B
:103A400040221A60314B314A926942F400729A6105
:103A50002E4B2E4A526822F440425A602D4B4FF0B2
:103A600000025A602B4B2B4A926842F004029A6083
:103A700000BF284B9B6803F00403002BF9D0254BB3
:103A80004FF4E0429A60234B224A926842F400428B
:103A90009A60204B1F4A926842F002029A601D4BC6
:103AA0001C4A526842F480725A601A4B194A526892
:103AB00042F480625A60174B4FF440129A63154BE0
:103AC000144A926B42F001029A63124B114A926BB4
:103AD00042F040029A630F4B0E4A926B42F44062EE
:103AE0009A630C4B0B4A926B42F400329A63094B77
:103AF000084A926842F001029A60064B054A9268B1
:103B000042F400129A60BD4680BC7047001002402B
:103B1000000801400024014080B582B000AF034698
:103B2000FB71FB79092B0BD84FF0300000F006FE3B
:103B3000FB7903F13003DBB2184600F0FFFD26E00D
:103B4000FA79154BA3FB02134FEAD303DBB203F15F
:103B50003003DBB2184600F0F1FDFA790E4BA3FBFF
:103B600002134FEAD303DBB21A464FEA4212D21ACB
:103B70004FEA8202D31A4FEA4303DAB2FB79D31831
:103B8000DBB203F13003DBB2184600F0D7FD07F1DA
:103B90000807BD4680BD00BFCDCCCCCC80B400AF03
:103BA000284B284A926942F010029A61264B264A15
:103BB000526822F00C025A60234B234A526822F0CA
:103BC000C0025A60204B204A126822F00C021A6090
:103BD0001D4B1D4A126822F0C0021A601A4B1A4A85
:103BE000126822F440621A60174B174A126822F4D6
:103BF00040421A60144B144A526842F001025A6063
:103C0000114B114A526842F010025A600E4B0E4A94
:103C1000126842F001021A600B4B0B4A126842F024
:103C200010021A60084B084A126842F480721A6047
:103C3000054B054A126842F480521A60BD4680BCAA
:103C4000704700BF001002400010014080B582B0F4
:103C500000AF7860084B4FF480725A614FF47A706D
:103C600001F080FA044B4FF480721A6143F69820F9
:103C700001F078FAEEE700BF0010014080B582B095
:103C800000AF7860084B4FF400721A614FF4C870AF
:103C900001F068FA044B4FF400725A614FF4C87097
:103CA00001F060FAEEE700BF0010014080B483B07D
:103CB00000AF786039603B6803F10A034FF00002FF
:103CC0001A703B6803F109007968884BA3FB012354
:103CD0004FEAD30213464FEA83039B184FEA43038C
:103CE000CA1AD3B203F13003DBB203703B6803F1AD
:103CF00008007A687D4BA3FB02134FEAD3037B6075
:103D000079687A4BA3FB01234FEAD30213464FEAAB
:103D100083039B184FEA4303CA1AD3B203F130035B
:103D2000DBB203703B6803F107007A686F4BA3FBBB
:103D300002134FEAD3037B6079686C4BA3FB01232A
:103D40004FEAD30213464FEA83039B184FEA43031B
:103D5000CA1AD3B203F13003DBB203703B6803F13C
:103D600006007A68614BA3FB02134FEAD3037B6022
:103D700079685E4BA3FB01234FEAD30213464FEA57
:103D800083039B184FEA4303CA1AD3B203F13003EB
:103D9000DBB203703B6803F105007A68534BA3FB69
:103DA00002134FEAD3037B607968504BA3FB0123D6
:103DB0004FEAD30213464FEA83039B184FEA4303AB
:103DC000CA1AD3B203F13003DBB203703B6803F1CC
:103DD00004007A68454BA3FB02134FEAD3037B60D0
:103DE0007968424BA3FB01234FEAD30213464FEA03
:103DF00083039B184FEA4303CA1AD3B203F130037B
:103E0000DBB203703B6803F103007A68374BA3FB16
:103E100002134FEAD3037B607968344BA3FB012381
:103E20004FEAD30213464FEA83039B184FEA43033A
:103E3000CA1AD3B203F13003DBB203703B6803F15B
:103E400002007A68294BA3FB02134FEAD3037B607D
:103E50007968264BA3FB01234FEAD30213464FEAAE
:103E600083039B184FEA4303CA1AD3B203F130030A
:103E7000DBB203703B6803F101007A681B4BA3FBC4
:103E800002134FEAD3037B607968184BA3FB01232D
:103E90004FEAD30213464FEA83039B184FEA4303CA
:103EA000CA1AD3B203F13003DBB203707A680F4B46
:103EB000A3FB02134FEAD3010C4BA3FB01234FEAF0
:103EC000D30213464FEA83039B184FEA4303CA1AEF
:103ED000D3B203F13003DAB23B681A703B6818467C
:103EE00007F10C07BD4680BC704700BFCDCCCCCCE1
:103EF00080B584B000AF0346FB804FF00003FB6049
:103F0000FA8807F10A031046194605F0C9FBFB8839
:103F100003F101039AB207F108031046194605F0B0
:103F2000BFFB7B894FEA03423B89D318FB60FB68E8
:103F3000184607F11007BD4680BD00BF80B58AB0A6
:103F400004AFFCF727F901F06DFF05F035FA4FF4E7
:103F50000040FFF7CDFF386107F1040338691946C7
:103F6000FFF7A4FEFFF736FD00F07EFC00F0DAFC60
:103F70004FF001004FF0000100F008FB07F10403CF
:103F8000184600F0D9FA4FF000037B6103E07B692B
:103F900003F101037B617A698E4B9A42F7D9FFF7EF
:103FA000FDFD4FF003004FF00101FEF79DF84FF0CB
:103FB00002004FF00101FEF797F84FF000037B611C
:103FC00003E07B6903F101037B617A69824B9A42CA
:103FD000F7D94FF001004FF00101FEF785F84FF0DF
:103FE00000037B6103E07B6903F101037B617A6974
:103FF000794B9A42F7D94FF000004FF00101FEF7DC
:1040000073F84FF000037B6103E07B6903F1010368
:104010007B617A696F4B9A42F7D97048FFF77AFA59
:10402000FFF79EFA4FF00003FB734FF00000FCF720
:104030004FFC03461A466A4B1A606A4B9847684B16
:104040001B68002B11D14FF00000674904F03EF9C6
:1040500003461A46624B1A6064484FF00F01FDF7A1
:104060008DFC03461A465E4B1A6000F05BFC4FF075
:1040700001004FF0000100F089FA594B1B68DBB2D8
:104080001846FFF749FD574B98474FF000037B61F7
:1040900003E07B6903F101037B617A694D4B9A422E
:1040A000F7D9534B4FF0010200924FF000020192FA
:1040B0004FF0000202924FF0000203924D48194661
:1040C0004FF046024FF0000300F076FF4A4B4FF0EE
:1040D000010200924FF0000201924FF000020292A2
:1040E0004FF000020392454819464FF046024FF048
:1040F000000300F061FF424B4FF0020200924FF0CC
:10410000000201924FF0000202924FF0000203926F
:104110003C4819464FF0C0024FF0000300F04CFF3E
:10412000394B4FF0010200924FF0000201924FF024
:10413000000202924FF000020392344819464FF0F9
:1041400046024FF0000300F037FF314B4FF0010201
:1041500000924FF0000201924FF0000202924FF0E5
:10416000000203922B4819464FF046024FF000031D
:1041700000F022FF284B4FF0010200924FF00002A6
:1041800001924FF0000202924FF000020392234886
:1041900019464FF046024FF0000300F00DFFFB7B85
:1041A000002B14D11E4B4FF0010200924FF0000281
:1041B00001924FF0000202924FF000020392194860
:1041C00019464FF480724FF0000300F0F5FE00F046
:1041D000F5FFFEE7FF083D003F0D03003C5E335056
:1041E000181A002029420008D017002090A20008C9
:1041F000A0A200084D3C0008A4A200087D3C0008D5
:10420000ACA2000881360008B0A20008691E0008B0
:10421000B8A2000835200008C0A200082D3600080A
:10422000C8A200080518000880B592B000AF4FF092
:104230000003A7F846304DE0B7F8463003F5FA43DF
:10424000A7F84430B7F8442007F142031046194656
:1042500005F026FAB7F84630B7F84220D1B2A74A9F
:10426000D154A74B1B68012B2EDDA6484FF0080147
:10427000FDF784FBB7F8462007F1340310461946D2
:10428000FFF714FD07F1340318464FF00B01FDF75B
:1042900075FB9D484FF00E01FDF770FBB7F84630F7
:1042A000964AD35C1A4607F1340310461946FFF7C5
:1042B000FDFC4FF00A0387F83E3007F1340318463F
:1042C0004FF00B01FDF75AFBB7F8463003F101033D
:1042D000A7F84630B7F84630022BADD947F6FF4372
:1042E000A7F84430B7F844301846884905F0D8F9A3
:1042F0004FF4C060864905F0D3F940F2016085496A
:1043000005F0CEF9834B1B881A46814B1B88D31AC4
:10431000814A82FB03124FEAE373D21A7F4B1A6081
:104320007B4B1B8819467D4B1A6813464FEA8373F3
:104330009B1A4FEA8303CB181A46794B1A60704BCD
:104340001B68002B40F3CF80714B1B881A4607F186
:10435000340310461946FFF7A9FC4FF00003A7F8F5
:10436000463013E0B7F84630B7F8462007F1480169
:104370008A1812F8142C07F14801CB1803F8482CBE
:10438000B7F8463003F10103A7F84630B7F84630D6
:10439000092BE7D94FF00A03BB7262484FF00A01BC
:1043A000FDF7ECFA3B4618464FF00B01FDF7E6FA35
:1043B000584B1B881A4607F1340310461946FFF77D
:1043C00075FC4FF00003A7F8463013E0B7F846300D
:1043D000B7F8462007F148018A1812F8142C07F1A3
:1043E0004801CB1803F8482CB7F8463003F1010315
:1043F000A7F84630B7F84630092BE7D94FF00A0343
:10440000BB7249484FF00A01FDF7B8FA3B4618461F
:104410004FF00B01FDF7B2FA414B1A6807F1340374
:1044200010461946FFF742FC4FF00003A7F846304C
:1044300013E0B7F84630B7F8462007F148018A186C
:1044400012F8142C07F14801CB1803F8482CB7F8E0
:10445000463003F10103A7F84630B7F84630092B80
:10446000E7D94FF00A03BB7330484FF00E01FDF758
:1044700085FA3B4618464FF00B01FDF77FFA274BB4
:104480001B681A4607F1340310461946FFF70EFC65
:104490004FF00003A7F8463013E0B7F84630B7F8FE
:1044A000462007F148018A1812F8142C07F1480138
:1044B000CB1803F8482CB7F8463003F10103A7F8EE
:1044C0004630B7F84630092BE7D94FF00A03BB73E3
:1044D00017484FF00E01FDF751FA3B4618464FF0D2
:1044E0000B01FDF74BFA134B4FF4C460194605F06E
:1044F000D7F807F14807BD4680BD00BF0400002083
:10450000181A0020D0A20008DCA20008301A0020EF
:10451000340000202C00002056555555380000204E
:1045200030000020ECA20008F8A2000804A3000854
:1045300014A300082800002080B584B000AF786084
:104540000FE0FB7BBF2B08D9FB7BA3F1C0030E4A16
:10455000D35C184600F0F2F803E0FB7B184600F04D
:10456000EDF87B681B78FB73FB7B002B0CBF0023F3
:104570000123DBB27A6802F101027A60002BE0D1FC
:1045800007F11007BD4680BD209D000880B584B0AE
:1045900000AF02460B46FA71BB71BB7903F1800391
:1045A000FB60FB79012B03D1FB6803F14003FB6047
:1045B000FB68DBB2184600F023F807F11007BD4690
:1045C00080BD00BF80B582B000AF4FF008004FF053
:1045D000010100F08BFC4FF4F743BB804FF0100358
:1045E000FB714FF00303BB7107F104030348194645
:1045F000FCF7A6FD07F10807BD4680BD000C014091
:1046000080B582B000AF0346FB71FFF7DBFF494B7B
:1046100045F6C0521A6000BF464B1B68002B0CBF0A
:1046200000220122D2B203F1FF31424B1960002A6D
:10463000F2D1414B404AD26822F40072DA60FB7931
:104640004FEA1313DBB24FEAC3239BB23A48194631
:10465000FCF772FE384B384AD26842F08002DA60CA
:10466000344B4FF00A021A6000BF324B1B68002B1C
:104670000CBF00220122D2B203F1FF312D4B196091
:10468000002AF2D12C4B2C4AD26822F08002DA6048
:1046900029484FF00001FCF74FFEFB799BB203F075
:1046A0000F039BB24FEAC3239BB223481946FCF782
:1046B00043FE204B4FF00A021A6000BF1D4B1B68DF
:1046C000002B0CBF00220122D2B203F1FF31194BA3
:1046D0001960002AF2D1184B174AD26842F08002C2
:1046E000DA60144B4FF00A021A6000BF114B1B68CE
:1046F000002B0CBF00220122D2B203F1FF310D4B7F
:104700001960002AF2D10C4B0B4AD26822F08002C9
:10471000DA60094B084AD26822F40072DA60064B6C
:10472000054AD26822F48072DA6007F10807BD46B4
:1047300080BD00BFC4170020000C014080B582B0CE
:1047400000AF0346FB71FFF73DFFFB794FEA131300
:10475000DBB24FEAC3239BB241481946FCF7ECFD9C
:104760003F4B3F4AD26842F08002DA603C4B3C4A01
:10477000D26842F40072DA603A4B4FF00A021A60D3
:1047800000BF384B1B68002B0CBF00220122D2B2A5
:1047900003F1FF31334B1960002AF2D1304B304A1C
:1047A000D26822F08002DA602D484FF00001FCF759
:1047B000C3FDFB799BB203F00F039BB24FEAC32307
:1047C0009BB227481946FCF7B7FD264B4FF00A026B
:1047D0001A6000BF234B1B68002B0CBF0022012274
:1047E000D2B203F1FF311F4B1960002AF2D11C4BEA
:1047F0001B4AD26842F08002DA60194B184AD2682C
:1048000042F40072DA60174B4FF00A021A6000BFE0
:10481000144B1B68002B0CBF00220122D2B203F103
:10482000FF31104B1960002AF2D10D4B0C4AD268AF
:1048300022F08002DA600A4B094AD26822F4007240
:10484000DA60074B064AD26822F48072DA600448C4
:104850004FF00001FCF770FD07F10807BD4680BD71
:10486000000C0140C417002080B500AFFFF7AAFE7E
:104870002A4B2B4A1A6000BF284B1B68002B0CBF29
:1048800000220122D2B203F1FF31244B1960002A29
:10489000F2D14FF02000FFF7B3FE204B204A1A6000
:1048A00000BF1E4B1B68002B0CBF00220122D2B29E
:1048B00003F1FF31194B1960002AF2D14FF00C00BF
:1048C000FFF79EFE154B164A1A6000BF134B1B687C
:1048D000002B0CBF00220122D2B203F1FF310F4B9B
:1048E0001960002AF2D14FF00100FFF789FE0B4B4F
:1048F0000B4A1A6000BF094B1B68002B0CBF00223B
:104900000122D2B203F1FF31044B1960002AF2D127
:104910004FF00400FFF774FE80BD00BFC4170020F5
:104920004019010080B500AF4FF00100FFF768FEAD
:1049300080BD00BF80B586B004AF4FF000037B6040
:1049400000F086FA134B1B68002B15D0124B4FF06A
:10495000030200924FF0000201924FF00002029217
:104960004FF0000203920D4819464FF046024FF0F7
:10497000000300F021FB78607B68002B04D14FF02E
:10498000500080F31188FEE77B68184607F108079E
:10499000BD4680BD9402002024A30008B94A000847
:1049A00080B588B000AFF860B9607A603B604FF0C6
:1049B0000003FB611F4B1B68002B34D0BB683B61BD
:1049C0007B687B61FB68BB613B68002B1FD101F0FA
:1049D000A3F80346012B0CD1164B1A6807F11003FC
:1049E00010461946BA6A4FF0000301F093FBF861D4
:1049F00019E0104B1A6807F11003104619464FF0E2
:104A000000024FF0000301F085FBF8610BE0094B59
:104A10001A6807F11003104619463A684FF0000370
:104A200001F022FCF861FB69184607F12007BD463A
:104A300080BD00BF9402002080B586B002AF7860D0
:104A400039601C4B1B68DB68DB68FB60FB6803F1AB
:104A50000403184601F0BCF9FB68DB69012B20D187
:104A6000FB689A697B68D318F86819463A687B68CE
:104A700000F0B8F80346012B13D14FF00003009368
:104A8000F8684FF000017A684FF00003FFF788FFE5
:104A9000B860BB68002B04D14FF0500080F3118840
:104AA000FEE7FB685B6AF868984707F11007BD46A8
:104AB00080BD00BF8C02002080B584B000AF78605C
:104AC00007F10803184600F043F8F860BB68F8687F
:104AD000194600F003F800F0CDF8F1E780B584B096
:104AE00000AF7860396000F0ADFB07F108031846AD
:104AF00000F052F8F860BB68002B1ED13B68002B19
:104B00000AD17A68FB689A4206D800F0A9FB786857
:104B1000F968FFF791FF14E00C4B1A687968FB689D
:104B2000CB1A1046194601F0EFFD00F099FB034641
:104B3000002B05D101F07EFE03E000F091FB00E0C8
:104B400000BF07F11007BD4680BD00BF94020020E2
:104B500080B485B000AF78600E4B1B681B68002BDB
:104B600014BF002201227B681A607B681B68002B3F
:104B700005D1084B1B68DB681B68FB6002E04FF047
:104B80000003FB60FB68184607F11407BD4680BCB4
:104B9000704700BF8C02002080B584B000AF786001
:104BA00000F0F0FBF8600E4B1B68FA689A4209D2DD
:104BB0000B4B1B68184600F0E9F87B684FF00102C8
:104BC0001A6003E07B684FF000021A60044BFA6839
:104BD0001A60FB68184607F11007BD4680BD00BF8C
:104BE0009802002080B586B000AFF860B9607A60A6
:104BF0003B604FF000037B61FB68BA685A60FB685A
:104C0000FA681A61BA687B689A4214D87A683B6875
:104C1000D21AFB689B699A4203D34FF001037B6170
:104C20001EE0124B1A68FB6803F104031046194694
:104C300001F094F814E07A683B689A4207D2BA68A7
:104C40003B689A4203D34FF001037B6108E0084BB5
:104C50001A68FB6803F104031046194601F07EF858
:104C60007B69184607F11807BD4680BD90020020F9
:104C70008C02002080B58AB002AF07F10403184609
:104C8000FFF78AFFF8616CE03B69BB61BB69002BF1
:104C900009D0BB695B69002B05D0BB6903F1040334
:104CA000184601F095F8BB68032B53D801A252F8BF
:104CB00023F000BFC54C0008554D00081F4D0008EB
:104CC0004D4D0008FA68BB699B69D218FB68B8694A
:104CD0001146FA69FFF786FF0346012B3CD1BB69F9
:104CE0005B6AB8699847BB69DB69012B36D1FA6802
:104CF000BB699B69D3184FF000020092B8694FF06E
:104D000000011A464FF00003FFF74AFE78617B6905
:104D1000002B25D14FF0500080F31188FEE7FA6890
:104D2000BB699A61BB699B69002B04D14FF05000AD
:104D300080F31188FEE7BB699A69FB69D318B869EB
:104D40001946FA69FB69FFF74DFF0AE0B86904F0FC
:104D5000F5FA06E000BF04E000BF02E000BF00E09B
:104D600000BF094B1A6807F10803104619464FF0B7
:104D700000024FF0000301F0E1FA0346002B83D15B
:104D800007F12007BD4680BD9402002080B58AB09F
:104D900002AF786044E02C4B1B68DB681B68FB614A
:104DA000294B1B68DB68DB68BB61BB6903F104034B
:104DB000184601F00DF8BB695B6AB8699847BB6992
:104DC000DB69012B2CD1BB699A69FB69D3187B6124
:104DD0007A69FB699A420FD9BB697A695A60BB69E3
:104DE000BA691A61184B1A68BB6903F104031046CB
:104DF000194600F0B3FF13E04FF000030093B869C9
:104E00004FF00001FA694FF00003FFF7C9FD386168
:104E10003B69002B04D14FF0500080F31188FEE76E
:104E2000094B1B681B68002BB5D1074B1B68FB6047
:104E3000064B1A68044B1A60044BFA681A6007F1B3
:104E40002007BD4680BD00BF8C02002090020020DC
:104E500080B500AF01F0FAFC0E4B1B68002B16D199
:104E60000D4800F021FF0D4800F01EFF0C4B0A4AD0
:104E70001A600C4B094A1A604FF005004FF00C0104
:104E80004FF0000201F0FEF80246024B1A6001F0FA
:104E9000EFFC80BD94020020640200207802002014
:104EA0008C0200209002002080B483B000AF7860B4
:104EB0000B46FB70FB78002B07D00B4B0A4A51695D
:104EC0007A6841EA02025A6108E0074B064A5169D2
:104ED0007A686FEA020201EA02025A6107F10C07DE
:104EE000BD4680BC704700BF0010024080B483B054
:104EF00000AF78600B46FB70FB78002B07D00B4BA4
:104F00000A4A91697A6841EA02029A6108E0074B0D
:104F1000064A91697A686FEA020201EA02029A611E
:104F200007F10C07BD4680BC704700BF001002406F
:104F300080B483B000AF78600B46FB70FB78002B29
:104F400007D00B4B0A4AD1687A6841EA0202DA605C
:104F500008E0074B064AD1687A686FEA020201EA64
:104F60000202DA6007F10C07BD4680BC704700BF43
:104F70000010024080B483B000AF78600B46FB7035
:104F8000FB78002B07D00B4B0A4A11697A6841EA7B
:104F900002021A6108E0074B064A11697A686FEA53
:104FA000020201EA02021A6107F10C07BD4680BC49
:104FB000704700BF0010024080B58AB002AFF860B1
:104FC000B9603B601346FB80FB68002B04D14FF0B7
:104FD000500080F31188FEE7BB6A042B04D94FF020
:104FE000500080F31188FEE7FB881846396B00F00B
:104FF00039FDB861BB69002B00F08E80BB691A6B6C
:10500000FB8803F1FF334FEA8303D3187B617B698D
:1050100023F007037B617B6903F00703002B04D0B7
:105020004FF0500080F31188FEE7FB880093B869C9
:10503000B968BA6A7B6B00F01FFC7869F9683A6856
:1050400001F090FB03461A46BB691A60BB691B68F6
:1050500003F00703002B04D04FF0500080F31188B9
:10506000FEE7FB6A002B02D0FB6ABA691A6001F006
:10507000EDFB354B1B6803F10102334B1A60334BD8
:105080001B68002B09D1314BBA691A602E4B1B6883
:10509000012B0FD100F02EFC0CE02D4B1B68002BD8
:1050A00008D12A4B1B68DA6ABB6A9A4202D8274B9E
:1050B000BA691A60BB69DA6A264B1B689A4203D93F
:1050C000BB69DA6A234B1A60234B1B6803F10102A8
:1050D000214B1A60BB69DA6A204B1B689A4203D9DC
:1050E000BB69DA6A1D4B1A60BB69DA6A13464FEA7C
:1050F00083039B184FEA83031A46194BD218BB69E6
:1051000003F104031046194600F000FE4FF00103BE
:10511000FB6101F0ADFB02E04FF0FF33FB61FB6987
:10512000012B0BD10A4B1B68002B07D0074B1B68C8
:10513000DA6ABB6A9A4201D201F07CFBFB6918462D
:1051400007F12007BD4680BD740300209C020020AB
:10515000840300207C0300209803002080030020AB
:10516000A002002080B584B000AF78604FF000034B
:10517000FB607B68002B13D000F064F80D4B1A68BD
:105180007B68D318BB600C4B1B6803F10403184603
:1051900000F01EFEB86800F02DFC00F061F8F86029
:1051A000FB68002B01D101F045FB07F11007BD465C
:1051B00080BD00BF780300209C02002080B586B02F
:1051C00004AF1C4B4FF0000200924FF0000201921E
:1051D0004FF0000202924FF0000203921648194667
:1051E0004FF046024FF00003FFF7E6FE78607B6861
:1051F000012B02D1FFF79EFB78607B68012B0DD15C
:105200004FF0500080F311880C4B4FF001021A60F0
:105210000B4B4FF000021A6001F0EEFA7B68002B96
:1052200004D14FF0500080F31188FEE707F1080722
:10523000BD4680BD2CA300085558000884030020FB
:105240007803002080B400AF044B1B6803F1010217
:10525000024B1A60BD4680BC704700BF8803002027
:1052600090B583B000AF4FF000037B603D4B1B68EF
:10527000002B04D14FF0500080F31188FEE701F0BD
:10528000E5FA384B1B6803F1FF32364B1A60354B99
:105290001B68002B5ED1344B1B68002B5AD04FF09B
:1052A00000033B602EE0314BDB68DB681C4604F1F9
:1052B0001803184600F08CFD04F10403184600F0B2
:1052C00087FDE26A2A4B1B689A4202D9E26A284BA0
:1052D0001A60E26A13464FEA83039B184FEA83037E
:1052E0001A46244BD21804F104031046194600F064
:1052F0000DFDE26A204B1B68DB6A9A4202D34FF035
:1053000001033B60194B1B68002BCCD11B4B1B6866
:10531000002B0FD007E000F047F8184B1B6803F193
:10532000FF32164B1A60154B1B68002BF3D14FF060
:1053300001033B603B68012B03D0114B1B68012B21
:1053400008D14FF001037B600D4B4FF000021A6053
:1053500001F070FA01F08CFA7B68184607F10C072F
:10536000BD4690BD88030020740300203403002054
:1053700080030020A00200209C0200208C0300205B
:105380009003002080B582B000AF01F05FFA054BBA
:105390001B687B6001F06CFA7B68184607F1080710
:1053A000BD4680BD7803002080B584B000AF4A4B75
:1053B0001B68002B40F08580484B1B6803F10102FD
:1053C000464B1A60454B1B68002B2CD1444B1B6885
:1053D0001B68002B04D04FF0500080F31188FEE7CB
:1053E0003F4B1B68FB603F4B1A683D4B1A603D4BBF
:1053F000FA681A603C4B1B6803F101023A4B1A60D1
:10540000374B1B681B68002B04D1384B4FF0FF3221
:105410001A6008E0324B1B68DB68DB68BB60BB6866
:105420005A68324B1A602D4B1A68304B1B689A42EF
:105430004DD32B4B1B681B68002B04D12B4B4FF01B
:10544000FF321A6043E0264B1B68DB68DB68BB60F9
:10545000BB685B687B60214B1A687B689A4203D209
:10546000224B7A681A6032E0BB6803F104031846E5
:1054700000F0AEFCBB689B6A002B05D0BB6803F153
:105480001803184600F0A4FCBB68DA6A184B1B68C6
:105490009A4203D9BB68DA6A154B1A60BB68DA6AAC
:1054A00013464FEA83039B184FEA83031A46114BB6
:1054B000D218BB6803F104031046194600F026FC1D
:1054C000B7E70D4B1B6803F101020B4B1A6007F1A4
:1054D0001007BD4680BD00BF880300207803002070
:1054E0002C03002030030020940300200C00002037
:1054F00080030020A00200208C03002080B483B031
:1055000000AF284B1B68002B14D0274B4FF0010233
:105510001A6041E0254B1B68002B04D14FF050006E
:1055200080F31188FEE7214B1B6803F1FF321F4B0C
:105530001A6000E000BF1D4B1A6813464FEA830350
:105540009B184FEA83031A46194BD3181B68002B8C
:10555000E0D0164B1A6813464FEA83039B184FEAB4
:1055600083031A46124BD3187B607B685B685A68CA
:105570007B685A607B685A687B6803F108039A422B
:1055800004D17B685B685A687B685A607B685B689B
:10559000DB681A46074B1A6007F10C07BD4680BC52
:1055A000704700BF88030020900300208003002084
:1055B000A00200209C02002080B584B000AF78607B
:1055C00039607B68002B04D14FF0500080F31188C4
:1055D000FEE7144B1B6803F118037868194600F0C6
:1055E000BDFB104B1B6803F10403184600F0F0FBF1
:1055F0003B68B3F1FF3F08D10A4B1B6803F104037A
:105600000948194600F082FB07E0084B1A683B681E
:10561000D318FB60F86800F0EDF907F11007BD46FC
:1056200080BD00BF9C0200206003002078030020A2
:1056300080B584B000AF786039607B68002B04D1FE
:105640004FF0500080F31188FEE70D4B1B6803F10B
:1056500018037868194600F059FB094B1B6803F1E1
:105660000403184600F0B4FB064B1A683B68D318D5
:10567000FB60F86800F0BEF907F11007BD4680BD79
:105680009C0200207803002080B584B000AF7860D1
:105690007B68DB68DB68BB60BB68002B04D14FF024
:1056A000500080F31188FEE7BB6803F11803184629
:1056B00000F08EFB204B1B68002B22D1BB6803F14E
:1056C0000403184600F084FBBB68DA6A1B4B1B68B6
:1056D0009A4203D9BB68DA6A184B1A60BB68DA6A67
:1056E00013464FEA83039B184FEA83031A46144B71
:1056F000D218BB6803F104031046194600F006FBFC
:1057000006E0BB6803F118030E48194600F0FEFAE4
:10571000BB68DA6A0C4B1B68DB6A9A4203D34FF012
:105720000103FB6002E04FF00003FB60FB681846DA
:1057300007F11007BD4680BD8803002080030020CC
:10574000A0020020340300209C02002080B483B01B
:1057500000AF78607B68002B04D14FF0500080F3DD
:105760001188FEE7064B1A687B681A60054B1A68B9
:105770007B685A6007F10C07BD4680BC704700BFCC
:10578000940300207803002080B584B000AF7860D7
:1057900039607B68002B04D14FF0500080F31188F2
:1057A000FEE73B68002B04D14FF0500080F31188D6
:1057B000FEE701F04BF83B681B68B3F1FF3F03D1F4
:1057C0004FF00003FB602CE07B681A68194B1B68E4
:1057D0009A4209D07B685A68174B1B689A4203D8D3
:1057E0004FF00103FB601CE0134B1A687B685B6899
:1057F000D21A3B681B689A4210D23B681A687B68D1
:1058000059680D4B1B68CB1AD2183B681A60786830
:10581000FFF79CFF4FF00003FB6002E04FF0010335
:10582000FB6001F025F8FB68184607F11007BD463C
:1058300080BD00BF940300207803002080B400AF37
:10584000034B4FF001021A60BD4680BC704700BF99
:105850009003002080B582B000AF786000E000BF08
:1058600000F08CF8034B1B68012BF8D900F0E2FF25
:10587000F6E700BFA002002080B584B000AFF8605A
:10588000B9607A603B60FB6803F134031A46BB6879
:10589000104619464FF00A0204F006FAFB684FF072
:1058A000000283F83D207B68042B02D94FF00403EB
:1058B0007B60FB687A68DA62FB687A681A64FB6866
:1058C00003F10403184600F013FAFB6803F1180310
:1058D000184600F00DFAFB68FA681A617B68C3F19C
:1058E0000502FB689A61FB68FA685A6207F11007C3
:1058F000BD4680BD80B582B000AF4FF000037B6035
:1059000010E07A6813464FEA83039B184FEA83033B
:105910001A46124BD318184600F0C6F97B6803F1FB
:1059200001037B607B68042BEBD90D4800F0BCF9C8
:105930000C4800F0B9F90C4800F0B6F90B4800F03B
:10594000B3F90B4800F0B0F90A4B054A1A600A4B4C
:10595000044A1A6007F10807BD4680BDA002002076
:105960000403002018030020340300204803002013
:10597000600300202C0300203003002080B582B09B
:1059800000AF194B1B68002B2AD0FFF75BFC174BAD
:105990001B68002B14BF002301237B60FFF760FC12
:1059A0007B68002B1CD100F051FF104BDB68DB68DB
:1059B0003B603B6803F10403184600F009FA0C4B06
:1059C0001B6803F1FF320A4B1A60074B1B6803F197
:1059D000FF32054B1A6000F04BFF386800F07CF88E
:1059E00007F10807BD4680BD5C0300204803002086
:1059F0007403002080B582B000AF7860144B1B6840
:105A00007A685A60134B1B687A689A420AD2124B22
:105A10001A680F4B1B6803F104031046194600F087
:105A20009DF911E00D4B1A68094B1B6803F1040343
:105A30001046194600F092F9094B1B687A689A42A1
:105A400002D2074B7A681A6007F10807BD4680BD8D
:105A50009C02002078030020300300202C0300204B
:105A60000C00002080B584B000AF03463960FB8095
:105A70004FF0440003F0B4FB0346FB60FB68002BCF
:105A800023D03B68002B07D1FB884FEA83031846DD
:105A900003F0A6FB034600E03B68FA681363FB686B
:105AA0001B6B002B06D1F86803F048FC4FF0000395
:105AB000FB600AE0FB681A6BFB884FEA8303104621
:105AC0004FF0A5011A4604F095F8FB68184607F157
:105AD0001007BD4680BD00BF80B582B000AF7860C2
