:020000040800F2
:10000000CC1F0020CD0B00083D0C00083D0C000863
:100010003D0C00083D0C00083D0C000800000000ED
:1000200000000000000000000000000041CA0008BD
:100030003D0C00080000000045CB000881CB000803
:100040003D0C00083D0C00083D0C00083D0C00086C
:100050003D0C00083D0C0008CD2B0008DD2B0008EE
:10006000ED2B00083D0C00083D0C00083D0C00087D
:100070003D0C00083D0C0008092700081D2700085A
:100080003D0C00083D0C00083D0C0008000000007D
:10009000000000000000000000000000AD2B000880
:1000A000C13D00083D0C00083D0C00083D0C000857
:1000B0003D0C0008CD3C00083D0C00083D0C00083C
:1000C0003D0C00083D0C00083D0C00083D0C0008EC
:1000D0003D0C0008852400083D0C00083D0C00087C
:1000E000FD2B00083D0C00083D0C0008000000003E
:1000F0000000000000000000000000000000000000
:1001000000000000000000000000000000000000EF
:1001100000000000000000003D0C00083D0C00083D
:100120005FF808F180B485B000AF786039604FF0B7
:100130000003FB817B681B88FB817A684FF4305396
:10014000C4F201039A421FD07A684FF45053C4F2AC
:1001500001039A4218D07B68B3F1804F14D07A68BB
:100160004FF48063C4F200039A420DD07A684FF4D2
:100170000063C4F200039A4206D07A684FF44063E9
:10018000C4F200039A4208D1FB8923F07003FB817B
:100190003B685A88FB891343FB817A684FF480538C
:1001A000C4F200039A420FD07A684FF4A053C4F20D
:1001B00000039A4208D0FB8923F44073FB813B681B
:1001C000DA88FB891343FB817B68FA891A803B68D4
:1001D0009A887B689A853B681A887B681A857A6852
:1001E0004FF43053C4F201039A421BD07A684FF4A3
:1001F0005053C4F201039A4214D07A684FF48043FA
:10020000C4F201039A420DD07A684FF48843C4F2D5
:1002100001039A4206D07A684FF49043C4F2010376
:100220009A4204D13B681B7A1A467B681A867B681F
:100230004FF001029A8207F11407BD4680BC704757
:1002400080B485B000AF786039604FF000037B81E7
:100250004FF00003FB814FF00003BB817B681B8CD8
:100260009BB223F001039AB27B681A847B681B8CD3
:10027000FB817B689B88BB817B681B8B7B817B8937
:1002800023F070037B817B8923F003037B813B6830
:100290001A887B8913437B81FB8923F00203FB814E
:1002A0003B681A89FB891343FB813B685A88FB89A9
:1002B0001343FB817A684FF43053C4F201039A422E
:1002C0001BD07A684FF45053C4F201039A4214D001
:1002D0007A684FF48043C4F201039A420DD07A68E1
:1002E0004FF48843C4F201039A4206D07A684FF46F
:1002F0009043C4F201039A4223D1FB8923F00803FF
:10030000FB813B685A89FB891343FB81FB8923F0FE
:100310000403FB813B689A88FB891343FB81BB89FB
:1003200023F48073BB81BB8923F40073BB813B68DA
:100330009A89BB891343BB813B68DA89BB89134324
:10034000BB817B68BA899A807B687A891A833B680B
:10035000DA887B689A867B68FA891A8407F1140721
:10036000BD4680BC704700BF80B485B000AF7860E8
:1003700039604FF000037B814FF00003FB814FF0A9
:100380000003BB817B681B8C9BB223F010039AB2E5
:100390007B681A847B681B8CFB817B689B88BB8194
:1003A0007B681B8B7B817B8923F4E0437B817B898A
:1003B00023F440737B813B681B884FEA03239AB286
:1003C0007B8913437B81FB8923F02003FB813B68FE
:1003D0001B894FEA03139AB2FB891343FB813B68E5
:1003E0005B884FEA03139AB2FB891343FB817A6857
:1003F0004FF43053C4F201039A4206D07A684FF4A6
:100400005053C4F201039A422FD1FB8923F0800399
:10041000FB813B685B894FEA03139AB2FB89134364
:10042000FB81FB8923F04003FB813B689B884FEAFB
:1004300003139AB2FB891343FB81BB8923F48063C6
:10044000BB81BB8923F40063BB813B689B894FEA76
:1004500083039AB2BB891343BB813B68DB894FEAB4
:1004600083039AB2BB891343BB817B68BA899A80A4
:100470007B687A891A833B68DA887B681A877B688D
:10048000FA891A8407F11407BD4680BC704700BF83
:1004900080B485B000AF786039604FF000037B8195
:1004A0004FF00003FB814FF00003BB817B681B8C86
:1004B0009BB223F480739AB27B681A847B681B8C8E
:1004C000FB817B689B88BB817B689B8B7B817B8965
:1004D00023F070037B817B8923F003037B813B68DE
:1004E0001A887B8913437B81FB8923F40073FB818A
:1004F0003B681B894FEA03239AB2FB891343FB81B4
:100500003B685B884FEA03239AB2FB891343FB8164
:100510007A684FF43053C4F201039A4206D07A68E5
:100520004FF45053C4F201039A422FD1FB8923F4B4
:100530000063FB813B685B894FEA03239AB2FB8926
:100540001343FB81FB8923F48063FB813B689B8819
:100550004FEA03239AB2FB891343FB81BB8923F43F
:100560008053BB81BB8923F40053BB813B689B89CB
:100570004FEA03139AB2BB891343BB813B68DB8903
:100580004FEA03139AB2BB891343BB817B68BA89D4
:100590009A807B687A899A833B68DA887B689A8735
:1005A0007B68FA891A8407F11407BD4680BC70473E
:1005B00080B485B000AF786039604FF00003BB8134
:1005C0004FF000037B814FF00003FB817B681B8CA5
:1005D0009BB223F480539AB27B681A847B681B8C8D
:1005E0007B817B689B88FB817B689B8BBB81BB8904
:1005F00023F4E043BB81BB8923F44073BB813B6898
:100600001B884FEA03239AB2BB891343BB817B89C2
:1006100023F400537B813B681B894FEA03339AB272
:100620007B8913437B813B685B884FEA03339AB233
:100630007B8913437B817A684FF43053C4F2010302
:100640009A4206D07A684FF45053C4F201039A429A
:100650000BD1FB8923F48043FB813B689B894FEAE4
:1006600083139AB2FB891343FB817B68FA899A80D2
:100670007B68BA899A833B68DA887B68A3F8402054
:100680007B687A891A8407F11407BD4680BC7047DD
:1006900080B584B000AF786039604FF00003FB8113
:1006A0004FF00103BB813B685B88002B03D14FF007
:1006B0000203FB8102E04FF00003FB813B689B8853
:1006C000012B03D14FF00203BB8102E04FF0010385
:1006D000BB813B681B88002B1CD13B6859883B6859
:1006E0009A883B681B89786800F07CF93B68DB8856
:1006F0007868194600F00EF93B681B89F989BA89B8
:10070000786800F0E1F93B68DB887868194600F00A
:100710001DF91BE03B6859883B689A883B681B8938
:10072000786800F0D1F93B68DB887868194600F0FA
:100730000DF93B681B89F989BA89786800F052F98C
:100740003B68DB887868194600F0E4F807F1100789
:10075000BD4680BD80B483B000AF78607B684FF643
:10076000FF729A807B684FF000021A807B684FF01E
:100770000002DA807B684FF000025A807B684FF0FD
:1007800000021A7207F10C07BD4680BC704700BF1B
:1007900080B483B000AF78607B684FF000021A80AD
:1007A0007B684FF000025A807B684FF000029A800D
:1007B0007B684FF00002DA807B684FF000021A81FC
:1007C0007B684FF000025A817B684FF000029A81EB
:1007D0007B684FF00002DA8107F10C07BD4680BC50
:1007E000704700BF80B483B000AF78600B46FB70E9
:1007F000FB78002B08D07B681B889BB243F0010379
:100800009AB27B681A8007E07B681B889BB223F052
:1008100001039AB27B681A8007F10C07BD4680BCC1
:10082000704700BF80B483B000AF786013460A46BB
:100830007A807B707B78002B08D07B689B899AB28A
:100840007B8813439AB27B689A810AE07B689B8914
:100850009AB27B886FEA03039BB213409AB27B681B
:100860009A8107F10C07BD4680BC704780B485B003
:1008700000AF78600B467B804FF00003FB817B6804
:100880001B89FB81FB8923F07003FB81FA897B883C
:100890001343FB817B68FA891A8107F11407BD466F
:1008A00080BC704780B483B000AF78600B467B801B
:1008B0007B681B899BB223F007039AB27B681A817D
:1008C0007B681B899AB27B8813439AB27B681A8132
:1008D00007F10C07BD4680BC704700BF80B483B0F1
:1008E00000AF78600B467B807B681B899BB223F04E
:1008F00080039AB27B681A817B681B899AB27B88D5
:1009000013439AB27B681A8107F10C07BD4680BC7D
:10091000704700BF80B483B000AF78600B467B8027
:100920007B681B8B9BB223F00C039AB27B681A8303
:100930007B681B8B9AB27B8813439AB27B681A83BD
:1009400007F10C07BD4680BC704700BF80B483B080
:1009500000AF78600B467B807B681B8B9BB223F4D7
:1009600040639AB27B681A837B681B8B9AB27B8840
:100970004FEA03239BB213439AB27B681A8307F1B1
:100980000C07BD4680BC704780B483B000AF786070
:100990007B689B8E9BB2184607F10C07BD4680BC56
:1009A000704700BF80B483B000AF78607B681B8F56
:1009B0009BB2184607F10C07BD4680BC704700BFCC
:1009C00080B483B000AF78600B467B807B886FEA91
:1009D00003039AB27B681A8207F10C07BD4680BCFC
:1009E000704700BF80B487B000AFF86079813A816A
:1009F000FB804FF00003BB824FF00003FB82FB68DB
:100A00001B8C9BB223F001039AB2FB681A84FB682B
:100A10001B8BBB82FB681B8CFB82BB8A23F0F3031E
:100A2000BB82FB884FEA03139AB23B8913439AB205
:100A3000BB8A1343BB82FA684FF43053C4F20103FC
:100A40009A421FD0FA684FF45053C4F201039A42FD
:100A500018D0FB68B3F1804F14D0FA684FF480636C
:100A6000C4F200039A420DD0FA684FF40063C4F256
:100A700000039A4206D0FA684FF44063C4F20003C0
:100A80009A420BD1FB8A23F00203FB827A89FB8A0C
:100A900013439BB243F00103FB820AE0FB8A23F07D
:100AA0000A03FB827A89FB8A13439BB243F001035A
:100AB000FB82FB68BA8A1A83FB68FA8A1A8407F1F8
:100AC0001C07BD4680BC704780B487B000AFF8609B
:100AD00079813A81FB804FF00003BB824FF0000325
:100AE000FB824FF000037B82FB681B8C9BB223F0E0
:100AF00010039AB2FB681A84FB681B8BBB82FB68ED
:100B00001B8CFB827B894FEA03137B82BB8A23F415
:100B100040734FEA03534FEA1353BB82FB884FEAFB
:100B200003339AB2BB8A1343BB823B894FEA032348
:100B30009AB2BB8A1343BB82FA684FF43053C4F2B3
:100B400001039A421FD0FA684FF45053C4F20103D4
:100B50009A4218D0FB68B3F1804F14D0FA684FF472
:100B60008063C4F200039A420DD0FA684FF4006328
:100B7000C4F200039A4206D0FA684FF44063C4F20C
:100B800000039A420BD1FB8A23F02003FB827A8A6E
:100B9000FB8A13439BB243F01003FB820AE0FB8AFB
:100BA00023F0A003FB827A89FB8A13439BB243F0B4
:100BB0001003FB82FB68BA8A1A83FB68FA8A1A84DC
:100BC00007F11C07BD4680BC704700BF80B582B0EE
:100BD00000AF40F68453C0F601037B6040F200038F
:100BE000C2F200033B600BE07B681A683B681A6046
:100BF0003B6803F104033B607B6803F104037B6003
:100C00003A6840F24403C2F200039A42ECD3094826
:100C100009494FF000028842B8BF40F8042BFFF6A4
:100C2000FAAF00F00FF808F00FF807F10807BD461B
:100C300080BD000048000020D01B002080B400AF21
:100C4000FEE700BF80B500AF4FF48053C4F202034B
:100C50004FF48052C4F20202126842F001021A609C
:100C60004FF48052C4F202024FF48053C4F20203E4
:100C700059684FF00003CFF6FF030B4053604FF469
:100C80008053C4F202034FF48052C4F2020212688D
:100C900022F0847222F480321A604FF48053C4F23E
:100CA00002034FF48052C4F20202126822F480223E
:100CB0001A604FF48053C4F202034FF48052C4F21E
:100CC0000202526822F4FE025A604FF48053C4F2CA
:100CD00002034FF41F029A604FF48053C4F20203E0
:100CE0004FF00002DA6200F009F84FF46D43CEF2E3
:100CF00000034FF000629A6080BD00BF80B500AF76
:100D000000F002F880BD00BF80B483B000AF4FF0A8
:100D100000037B604FF000033B604FF48053C4F24C
:100D200002034FF48052C4F20202126842F480328D
:100D30001A604FF48053C4F202031B6803F40033BB
:100D40003B607B6803F101037B603B68002B03D1B0
:100D50007B68B3F5A06FECD14FF48053C4F202036B
:100D60001B6803F40033002B03D04FF001033B60FA
:100D700002E04FF000033B603B68012B6DD14FF464
:100D80008053C4F202034FF48052C4F2020252684C
:100D90005A604FF48053C4F202034FF48052C4F2FD
:100DA000020252685A604FF48053C4F202034FF4B7
:100DB0008052C4F2020252685A604FF48053C4F267
:100DC00002034FF48052C4F20202526822F47C12F1
:100DD0005A604FF48053C4F202034FF48052C4F2BD
:100DE0000202526842F498125A604FF48053C4F2DF
:100DF00002034FF48052C4F20202126842F0807281
:100E00001A6000BF4FF48053C4F202031B6803F062
:100E10000073002BF6D04FF48053C4F202034FF45A
:100E20008052C4F20202526822F003025A604FF468
:100E30008053C4F202034FF48052C4F2020252689B
:100E400042F002025A6000BF4FF48053C4F2020322
:100E50005B6803F00C03082BF6D107F10C07BD46C5
:100E600080BC704780B485B000AF0346FB714FF47F
:100E70004053C4F201031B889BB2FB60FB79002B3B
:100E800004D1FB6843F03803FB6005E0FB6823F006
:100E9000380343F00803FB604FF44053C4F20103EE
:100EA000FA6892B21A8007F11407BD4680BC7047F9
:100EB00080B483B000AF0346FB7107F10C07BD4659
:100EC00080BC704780B400AF4FF001031846BD46A8
:100ED00080BC704780B582B000AF0346FB71FB79E0
:100EE0009BB24FF44050C4F2010019460EF0D4FA00
:100EF00000BF4FF44050C4F201004FF001010EF06A
:100F0000E7FA0346002BF4D04FF44050C4F201003E
:100F10000EF0D0FA0346DBB2184607F10807BD46CB
:100F200080BD00BF80B500AF4FF0FF00FFF7D2FFDC
:100F30000346184680BD00BF80B582B000AF40F2C6
:100F40004C03C2F200034FF032021A60FFF7EAFFCF
:100F5000FFF7E8FF0346FB71FB79FF2B06D040F259
:100F60004C03C2F200031B68002BF1D1FB79184639
:100F700007F10807BD4680BD80B500AF4FF40060A3
:100F8000C4F201004FF4004101F062F8FFF7CAFF1C
:100F900080BD00BF80B590B000AF0346B9607A60F5
:100FA000FB734FF6FF733B8243F20C03C4F2010361
:100FB0007B614FF00003FB624FF000033B634FF097
:100FC00000037B627B683B624FF000037B634FF45E
:100FD0004053BB634FF00003FB634FF01C00C4F2AF
:100FE00002000DF0C1FF4FF03000C4F202000DF01E
:100FF000BBFFFB7B002B23D0BB68BB614FF0000322
:10100000FB614FF08003BB6207F114034FF01C003B
:10101000C4F2020019460EF0B7F807F11003BB61E5
:101020004FF01003FB614FF00003BB6207F11403A4
:101030004FF03000C4F2020019460EF0A5F822E08D
:1010400007F11003BB614FF00003FB614FF0000399
:10105000BB6207F114034FF01C00C4F202001946F2
:101060000EF092F8BB68BB614FF01003FB614FF0CC
:101070008003BB6207F114034FF03000C4F202009A
:1010800019460EF081F84FF01C00C4F202004FF038
:1010900001010EF0B9F84FF03000C4F202004FF039
:1010A00001010EF0B1F84FF44050C4F201004FF0CE
:1010B00003014FF001020EF0CBF900BF4FF020000A
:1010C0000EF0BEF80346002BF8D04FF01C00C4F21F
:1010D00002004FF000010EF097F84FF03000C4F21C
:1010E00002004FF000010EF08FF84FF44050C4F2B0
:1010F00001004FF003014FF000020EF0A9F907F1D3
:101100004007BD4680BD00BF80B500AF4FF480539F
:10111000C4F202034FF48052C4F20202926942F018
:1011200001029A614FF48053C4F202034FF48052DB
:10113000C4F20202926942F004029A614FF48053B1
:10114000C4F202034FF48052C4F20202926942F0E8
:1011500008029A614FF40070C0F230004FF00101B4
:1011600000F092FF4FF001004FF0010100F08CFF02
:101170004FF40063C4F201034FF40062C4F20102B1
:10118000526842F040525A604FF40063C4F20103C7
:101190004FF40062C4F20102526822F040425A60E9
:1011A0004FF40063C4F201034FF400421A614FF49C
:1011B0004063C4F201034FF44062C4F201021268BA
:1011C00042F440521A604FF44063C4F201034FF4FA
:1011D0004062C4F20102126822F440421A604FF4E5
:1011E0004063C4F201034FF44062C4F2010212688A
:1011F00042F400421A604FF44063C4F201034FF41A
:101200004062C4F20102126822F440321A604FF4C4
:101210004063C4F201034FF44062C4F20102126859
:1012200022F440221A604FF44063C4F201034FF4E9
:101230004062C4F20102126842F400221A604FF4C4
:101240004063C4F201034FF010021A614FF440638F
:10125000C4F201034FF44062C4F20102126842F486
:1012600040121A604FF44063C4F201034FF440622D
:10127000C4F20102126822F440021A604FF4406383
:10128000C4F201034FF44062C4F20102126842F456
:1012900000021A604FF48053C4F202034FF48052EC
:1012A000C4F20202926942F480529A614FF44053B0
:1012B000C4F201034FF000029A804FF44053C4F28D
:1012C00001034FF004021A804FF44053C4F20103AB
:1012D0004FF44052C4F20102128892B242F0380236
:1012E00092B21A804FF44053C4F201034FF44052BB
:1012F000C4F20102128892B242F4807292B21A8051
:101300004FF44053C4F201034FF44052C4F20102BF
:10131000128892B242F4007292B21A804FF4405393
:10132000C4F201034FF44052C4F20102128892B297
:1013300042F0400292B21A804FF001004FF00101DA
:1013400009F0A2FA80BD00BF80B582B000AF40F2C4
:101350001403C2F200031B78DBB203F00103002B7D
:101360000BD14FF40060C4F201004FF4004100F0D3
:101370007DFEFFF7E1FDFFF7FFFD4FF44050C4F2A3
:1013800001000EF001F84FF44050C4F201004FF09C
:1013900000010EF03DF84FF480504FF0000109F0CD
:1013A0009DFA4FF03803BB804FF02803FB7107F123
:1013B00004034FF44060C4F20100194600F05AFDE6
:1013C0004FF00000FFF774FD40F21403C2F2000377
:1013D0001B78DBB243F00103DAB240F21403C2F22D
:1013E00000031A7007F10807BD4680BD80B584B0C0
:1013F00000AF7860396040F24803C2F200034FF05A
:101400000A021A60FFF78EFD0346FB73FB7BFF2B7E
:1014100006D140F24803C2F200031B68002BF1D151
:10142000FB7BFE2B02D04FF000030BE04FF00100DE
:1014300079683A68FFF7AEFDFFF774FDFFF772FDBC
:101440004FF00103184607F11007BD4680BD00BFED
:1014500080B584B000AF78600B46FB70FFF76CFD81
:101460000346FF2B02D04FF0000323E0FB78184621
:10147000FFF730FDFB78FD2B1AD04FF000007968A4
:101480004FF40072FFF786FD4FF0FF00FFF722FDDB
:101490004FF0FF00FFF71EFDFFF744FD0346FB730F
:1014A000FB7B03F01F03052B02D04FF0000301E08C
:1014B0004FF00103184607F11007BD4680BD00BF7D
:1014C00080B584B000AF03463960FB71FB795BB235
:1014D000002B10DAFB7903F07F03FB714FF07700EC
:1014E0004FF00001FFF7ECFF0346BB73BB7B012B02
:1014F00001D9BB7B60E04FF40060C4F201004FF4FF
:10150000004100F0A5FD4FF40060C4F201004FF46B
:10151000004100F0ABFDFFF70FFD0346FF2B02D0AB
:101520004FF0FF0348E0FB791846FFF7D3FC3B6818
:101530004FEA1363DBB21846FFF7CCFC3B684FEA77
:101540001343DBB21846FFF7C5FC3B684FEA132391
:10155000DBB21846FFF7BEFC3B68DBB21846FFF76C
:10156000B9FC4FF00103FB73FB79402B02D14FF024
:101570009503FB73FB79482B02D14FF08703FB7374
:10158000FB7B1846FFF7A6FCFB794C2B01D1FFF73C
:10159000C9FC4FF00A03FB73FFF7C4FC0346BB739F
:1015A000BB7B5BB2002B06DAFB7B03F1FF33FB73E3
:1015B000FB7B002BF0D1BB7B184607F11007BD4623
:1015C00080BD00BF90B585B000AF0346FB71FB79CD
:1015D000002B02D04FF00103FDE040F21403C2F2F1
:1015E00000031B78DBB203F00203002B06D040F2AD
:1015F0001403C2F200031B78DBB2ECE0FFF784FDBA
:101600004FF00000FFF72EFC4FF00A03FB7305E0DC
:10161000FFF788FCFB7B03F1FF33FB73FB7B002BA5
:10162000F6D14FF000037B734FF040004FF0000104
:10163000FFF746FF0346012B40F0A78040F2480326
:10164000C2F200034FF064021A604FF048004FF4FA
:10165000D571FFF735FF0346012B5CD14FF0000336
:10166000FB730DE0FC7BFFF75DFC03461A4607F1B8
:1016700010010B1903F8082CFB7B03F10103FB732A
:10168000FB7B032BEED9BB7A012B7ED1FB7AAA2BF5
:101690007BD100BF40F24803C2F200031B68002B5D
:1016A00008D04FF0E9004FF08041FFF709FF0346F3
:1016B000002BEFD140F24803C2F200031B68002B5D
:1016C00063D04FF07A004FF00001FFF7F9FE0346B8
:1016D000002B5AD14FF00003FB730DE0FC7BFFF7AA
:1016E00021FC03461A4607F110010B1903F8082CD8
:1016F000FB7B03F10103FB73FB7B032BEED93B7AEE
:1017000003F04003002B02D04FF00C0301E04FF038
:1017100004037B7339E04FF0E9004FF00001FFF75D
:10172000CFFE0346012B06D84FF002037B734FF028
:10173000E903BB7305E04FF001037B734FF04103F6
:10174000BB7300BF40F24803C2F200031B68002BCA
:1017500008D0BB7B18464FF00001FFF7B1FE0346EF
:10176000002BEFD140F24803C2F200031B68002BAC
:1017700008D04FF050004FF40071FFF7A1FE034670
:10178000002B02D04FF000037B7340F25003C2F2F3
:1017900000037A7B1A70FFF7EFFB7B7B002B12D0E4
:1017A00040F21403C2F200031B78DBB223F0010302
:1017B000DAB240F21403C2F200031A704FF00100D3
:1017C000FFF750FB01E0FFF7BFFD40F21403C2F248
:1017D00000031B78DBB2184607F11407BD4690BD25
:1017E00080B483B000AF0346FB71FB79002B02D0BD
:1017F0004FF0010305E040F21403C2F200031B782E
:10180000DBB2184607F10C07BD4680BC704700BF2D
:1018100080B584B000AFB9607A600246FA73BB73DA
:10182000FB7B002B02D1BB7B002B02D14FF00403CA
:101830005EE040F21403C2F200031B78DBB203F057
:101840000103002B02D04FF0030351E040F250039C
:10185000C2F200031B7803F00803002B03D17B685E
:101860004FEA43237B60BB7B012B13D14FF0510028
:101870007968FFF725FE0346002B31D1B8684FF495
:101880000071FFF7B3FD0346002B29D04FF0000392
:10189000BB7325E04FF052007968FFF711FE034655
:1018A000002B1DD1B8684FF40071FFF79FFD034670
:1018B00083F00103DBB2002B0BD1BB6803F500738F
:1018C000BB60BB7B03F1FF33BB73BB7B002BE9D158
:1018D00000E000BF4FF04C004FF00001FFF7F0FDBB
:1018E000FFF74AFBBB7B002B0CBF00230123DBB2BD
:1018F000184607F11007BD4680BD00BF80B584B013
:1019000000AFB9607A600246FA73BB73FB7B002BB1
:1019100002D1BB7B002B02D14FF0040383E040F2E5
:101920001403C2F200031B78DBB203F00103002BA7
:1019300002D04FF0030376E040F21403C2F200033A
:101940001B78DBB203F00403002B02D04FF002033C
:1019500069E040F25003C2F200031B7803F0080371
:10196000002B03D17B684FEA43237B60BB7B012BB9
:1019700013D14FF058007968FFF7A2FD0346002B02
:1019800049D1B8684FF0FE01FFF762FD0346002B16
:1019900041D04FF00003BB733DE040F25003C2F270
:1019A00000031B7803F00603002B05D0BB7B4FF030
:1019B000D7001946FFF784FD4FF059007968FFF70B
:1019C0007FFD0346002B26D1B8684FF0FC01FFF7DE
:1019D0003FFD034683F00103DBB2002B0BD1BB6854
:1019E00003F50073BB60BB7B03F1FF33BB73BB7BB1
:1019F000002BE9D100E000BF4FF000004FF0FD01E7
:101A0000FFF726FD034683F00103DBB2002B02D073
:101A10004FF00103BB73FFF7AFFABB7B002B0CBF8A
:101A200000230123DBB2184607F11007BD4680BD35
:101A300090B58BB000AF0B463A600246FA71BB71AD
:101A40003B683B62FB79002B02D04FF004030CE2B1
:101A50004FF0010387F82730BB79052B2DD13B6A66
:101A60001B78012B0FD0022B14D0002B20D1FFF7B5
:101A700029FA0346002B01D0FFF766FC4FF0000364
:101A800087F82730EFE1FFF73FFB4FF0000387F8BF
:101A90002730E8E13B6A03F10104FFF713FA03463C
:101AA000DBB223704FF0000387F8273000BFDAE184
:101AB0004FF0040387F82730D5E140F21403C2F257
:101AC00000031B78DBB203F00103002B02D04FF0C0
:101AD0000303CAE1BB790E2B00F2B18101A252F8D7
:101AE00023F000BF211B0008471B0008171C00083B
:101AF000291C00083F1E00083F1E00083F1E00086A
:101B00003F1E00083F1E00083F1E0008511D000830
:101B1000691D0008951D0008C11D00080F1E000862
:101B20004FF40060C4F201004FF4004100F09EFA4F
:101B3000FFF702FA0346FF2B40F086814FF00003C7
:101B400087F8273080E14FF049004FF00001FFF7A0
:101B5000B7FC0346002B40F0798107F10C031846CF
:101B60004FF01001FFF742FC0346002B00F06E819E
:101B70003B7B4FEA9313DBB2012B10D17B7D1A46DE
:101B80003B7D4FEA03239BB2D3189BB203F10103C1
:101B9000FB83FB8B4FEA83223B681A6036E07B7C39
:101BA00003F00F03DAB2BB7D4FEAD313DBB2D318D5
:101BB000DAB27B7D03F00303DBB24FEA4303DBB20F
:101BC000D318DBB203F1020387F826303B7D4FEADE
:101BD0009313DBB21A46FB7C4FEA83039BB2D31804
:101BE0009AB2BB7C03F003039BB24FEA83239BB200
:101BF000D3189BB203F10103FB83FA8B97F82630CD
:101C0000A3F1090302FA03F23B681A604FF00003E4
:101C100087F827301AE13B684FF400721A804FF0C2
:101C2000000387F827301CE140F25003C2F20003A2
:101C30001B7803F00403002B36D04FF0CD004FF09B
:101C40000001FFF73DFC0346002B40F00181FFF748
:101C500069F907F10C0318464FF01001FFF7C6FBB6
:101C60000346002B00F0F4804FF0300387F8263055
:101C700007E0FFF757F997F8263003F1FF3387F8AD
:101C8000263097F82630002BF3D1BB7D4FEA131393
:101C9000DBB24FF0100202FA03F23B681A604FF019
:101CA000000387F82730D3E04FF049004FF00001E0
:101CB000FFF706FC0346002B40F0CA8007F10C0337
:101CC00018464FF01001FFF791FB0346002B00F080
:101CD000BF8040F25003C2F200031B7803F00203FE
:101CE000002B17D0BB7D03F03F034FEA4302FB7D7F
:101CF0004FEAD313DBB2D31803F101027B7E4FEA24
:101D00009313DBB203F1FF3302FA03F31A463B6885
:101D10001A6018E0BB7D03F07C034FEAA3039BB27B
:101D200003F10103FA7D02F003024FEAC201FA7DDA
:101D30004FEA5212D2B28A1802F1010202FB03F3F7
:101D40001A463B681A604FF0000387F827307FE09F
:101D500040F25003C2F200031A783B6A1A704FF047
:101D6000000387F827307CE04FF049004FF0000176
:101D7000FFF7A6FB0346002B6CD1386A4FF0100129
:101D8000FFF734FB0346002B64D04FF0000387F8C5
:101D900027305FE04FF04A004FF00001FFF790FB63
:101DA0000346002B58D1386A4FF01001FFF71EFB95
:101DB0000346002B50D04FF0000387F827304BE04C
:101DC0004FF07A004FF00001FFF77AFB0346002B3B
:101DD00044D14FF0040387F826300FE0FFF7A2F854
:101DE00003461A463B6A1A703B6A03F101033B62E1
:101DF00097F8263003F1FF3387F8263097F826301E
:101E0000002BEBD14FF0000387F8273026E04FF08E
:101E1000CD004FF00001FFF753FB0346002B1FD10D
:101E2000FFF780F8386A4FF04001FFF7DFFA03460A
:101E3000002B15D04FF0000387F8273010E04FF04B
:101E4000040387F827300CE000BF0AE000BF08E079
:101E500000BF06E000BF04E000BF02E000BF00E0FA
:101E600000BFFFF789F897F82730184607F12C07CD
:101E7000BD4690BD80B489B000AF786039604FF046
:101E80000003FB614FF000033B614FF00003BB61B7
:101E90004FF00003FB604FF000037B614FF0000345
:101EA000BB603B68DB7803F00F03FB613B68DB78CA
:101EB00003F01003002B04D03B689B78FA691343AE
:101EC000FB613B681B88DBB2002B4ED07B681B6834
:101ED0007B614FF00003BB6141E0BB694FF0010241
:101EE00002FA03F3FB603B681B881A46FB68134049
:101EF0003B613A69FB689A422DD1BB694FEA830383
:101F0000FB60FB684FF00F0202FA03F3BB60BB6893
:101F10006FEA03037A6913407B61FB68FA6902FA8E
:101F200003F37A6913437B613B68DB78282B07D185
:101F3000BB694FF0010202FA03F27B685A610AE0C2
:101F40003B68DB78482B06D1BB694FF0010202FAEF
:101F500003F27B681A61BB6903F10103BB61BB69D2
:101F6000072BBAD97B687A691A603B681B88FF2BFC
:101F700053D97B685B687B614FF00003BB6146E02F
:101F8000BB6903F108034FF0010202FA03F3FB609F
:101F90003B681B881A46FB6813403B613A69FB6843
:101FA0009A4230D1BB694FEA8303FB60FB684FF074
:101FB0000F0202FA03F3BB60BB686FEA03037A699E
:101FC00013407B61FB68FA6902FA03F37A691343F1
:101FD0007B613B68DB78282B08D1BB6903F10803E0
:101FE0004FF0010202FA03F27B685A613B68DB782A
:101FF000482B08D1BB6903F108034FF0010202FA34
:1020000003F27B681A61BB6903F10103BB61BB6921
:10201000072BB5D97B687A695A6007F12407BD465A
:1020200080BC704780B483B000AF78607B684FF6A7
:10203000FF721A807B684FF002029A707B684FF043
:102040000402DA7007F10C07BD4680BC704700BF80
:1020500080B483B000AF78600B467B807A887B6861
:102060001A6107F10C07BD4680BC704780B483B08D
:1020700000AF78600B467B807A887B685A6107F1F5
:102080000C07BD4680BC704780B487B000AF786055
:102090000B46FB704FF000033B614FF00003FB6009
:1020A0004FF000037B614FF00003BB607B68002BA7
:1020B00006DA4FF00003C4F20103DB697B6105E03F
:1020C0004FF00003C4F201035B687B617B6803F49B
:1020D00070234FEA1343BB607B684FEA03434FEA28
:1020E00013433B617B6803F44013B3F5401F10D1E9
:1020F0007B6923F070637B614FF00003C4F201033E
:102100004FF00002C4F20102526822F070625A607D
:1021100026E07B6803F48013002B10D0BB684FF0DF
:10212000030202FA03F3FB60FB686FEA03037A69B8
:1021300013407B617B6943F070637B6110E07B68D7
:102140004FEA53534FEA03133A6902FA03F36FEA73
:1021500003037A6913407B617B6943F070637B61A1
:10216000FB78002B0AD07B684FEA53534FEA0313E6
:102170003A6902FA03F37A6913437B617B68002BA7
:1021800006DA4FF00003C4F201037A69DA6105E070
:102190004FF00003C4F201037A695A6007F11C078B
:1021A000BD4680BC704700BF90B484B000AF02460B
:1021B0000B46FA71BB714FF00003FB60BB7903F073
:1021C00003034FEA83034FF00F0202FA03F3FB60AD
:1021D0004FF00003C4F20103BA794FEA9202D2B27F
:1021E00010464FF00002C4F20102B9794FEA9101A2
:1021F000C9B201F1020152F82110FA686FEA020235
:10220000114000F1020243F822104FF00003C4F223
:102210000103BA794FEA9202D2B210464FF000029F
:10222000C4F20102B9794FEA9101C9B201F1020188
:1022300052F82110FC79BA7902F003024FEA8202C7
:1022400004FA02F2114300F1020243F8221007F1EE
:102250001007BD4690BC704780B483B000AF034602
:10226000FB714FF46143CEF2000397F907204FEA68
:102270005212F97901F01F014FF0010000FA01F14B
:1022800043F8221007F10C07BD4680BC704700BF21
:1022900080B582B000AF4FF000037B6040F21803BE
:1022A000C2F200031B78322B64D141F68423C2F2C0
:1022B00000034FF030021A7050E041F6C023C2F222
:1022C00000031B78012B49D17B6803F00103002B2D
:1022D00006D141F6BA23C2F200031B787B801DE0D1
:1022E0007B884FEA03239BB27B8041F6BA23C2F27C
:1022F00000031B781A467B88D3189BB27B807B68CF
:102300004FEAD372D3184FEA63039BB203F5B86365
:102310009AB27B88104619460DF0FAFB41F6BA23B3
:10232000C2F200031A7841F68423C2F200031A7045
:1023300041F6C023C2F200034FF000021A7041F6CA
:102340004003C2F200034FF001021A704FF0010087
:1023500008F012FD7B6803F101037B607A6840F2AC
:102360008F139A42A9DD40F21803C2F200034FF026
:1023700030021A7040F21803C2F200031B78312BAE
:102380006ED14FF005037B6017E07B68DAB241F64F
:102390008423C2F200031A7041F64003C2F2000324
:1023A0004FF001021A704FF0010008F0E5FC00F058
:1023B00069F87B6803F1FF337B607B68002BE4D115
:1023C0004FF000037B603FE041F64003C2F20003A0
:1023D0001B78002B34D17B6803F00103002B0FD155
:1023E0007B684FEAD372D3184FEA63039BB203F5BD
:1023F000B8639AB207F10203104619460DF02CFBA0
:102400004FF0010008F0B8FC7B884FEA13239BB221
:10241000DAB241F68423C2F200031A707B884FEAD5
:1024200003239BB27B8041F64003C2F200034FF0CE
:1024300001021A7000F026F87B6803F101037B604B
:102440004FF0010008F098FC7A6840F28F139A422E
:10245000BADD40F21803C2F200034FF030021A70E6
:102460004FF0010008F088FC40F21803C2F20003AC
:102470001A7840F21803C2F200031A7007F1080735
:10248000BD4680BD80B500AF40F21803C2F2000324
:102490001B78302B40F0C2804FF46050C4F2010032
:1024A00040F2255109F0BCFC0346002B3CD04FF410
:1024B0006050C4F2010009F08FFC0346DBB203F068
:1024C0007F03DAB241F6BA23C2F200031A7041F672
:1024D000C023C2F200034FF001021A7041F6BA2382
:1024E000C2F200031B782F2B10D941F6BA23C2F297
:1024F00000031B78322B09D841F6BA23C2F200033D
:102500001A7840F21803C2F200031A704FF46053B5
:10251000C4F201034FF46052C4F20102128892B275
:1025200022F0200292B21A8040F25803C2F2000355
:102530001B783E2B0AD140F25D03C2F200031A78E9
:1025400041F69033C2F2000383F83E2040F2580374
:10255000C2F200031B781A4641F69033C2F2000320
:102560009A5C40F25D03C2F200031B785340DAB27A
:1025700040F25D03C2F200031A704FF46053C4F2DC
:10258000010340F25802C2F200021178084641F6F7
:102590009032C2F20002125C9A8001F10103DAB2B9
:1025A00040F25803C2F200031A7040F25803C2F21C
:1025B00000031B78402B22D14FF46050C4F201007D
:1025C00040F225514FF0010209F0B4FB40F25D03E7
:1025D000C2F200031A7841F69033C2F2000383F886
:1025E0003E2040F25803C2F200034FF000021A707E
:1025F00040F25D03C2F200034FF000021A704FF484
:102600006053C4F201034FF46052C4F20102128815
:1026100092B222F0400292B21A8074E04FF46050FD
:10262000C4F2010040F2255109F0FAFB0346002BE9
:1026300043D04FF46050C4F2010009F0CDFB0346D3
:10264000DBB203F07F03DAB241F6BA23C2F2000331
:102650001A7041F6C023C2F200034FF001021A7053
:102660004FF46053C4F201034FF46052C4F201020C
:10267000128892B222F0200292B21A8040F218031D
:10268000C2F200031B78302B17D141F6BA23C2F2F5
:1026900000031B782F2B10D941F6BA23C2F2000396
:1026A0001B78322B09D841F6BA23C2F200031A78FC
:1026B00040F21803C2F200031A7041F64003C2F25E
:1026C00000031B78012B10D14FF46053C4F20103B7
:1026D00041F68422C2F2000212789A8041F6400349
:1026E000C2F200034FF000021A704FF46053C4F2BC
:1026F00001034FF46052C4F20102128892B222F038
:10270000400292B21A8080BD80B400AF4FF0000347
:10271000C4F202031B68BD4680BC704780B400AFA2
:102720004FF00003C4F202031B68BD4680BC704733
:1027300080B586B000AF4FF001004FF0010108F006
:10274000A3F84FF005004FF0010108F0C7F84FF073
:1027500025033B754FF000037B754FF00003BB75FD
:102760004FF00103FB754FF400733B824FF00303FE
:10277000BB744FF01803FB7407F110034FF40060B3
:10278000C4F201001946FFF775FB4FF480633B82EA
:102790004FF00403FB7407F110034FF40060C4F220
:1027A00001001946FFF766FB4FF46050C4F20100C8
:1027B00009F05EF94FF480404FF0010108F08EF807
:1027C0004FF416533B604FF00003BB804FF0000303
:1027D000FB804FF000033B814FF00003BB814FF0C3
:1027E0000C037B813B464FF46050C4F20100194654
:1027F00009F0AAF94FF46050C4F201004FF4587187
:1028000009F0FCFA4FF46053C4F201034FF4605234
:10281000C4F20102928992B242F0200292B29A81ED
:102820004FF46053C4F201034FF46052C4F201024A
:10283000928992B242F0400292B29A814FF4605073
:10284000C4F201004FF0010109F054FA4FF02500E5
:10285000FFF702FD07F11807BD4680BD80B584B0C3
:1028600000AF4FF008004FF0010108F037F84FF0CB
:102870000303BB814FF02803FB7307F10C034FF4F4
:102880004060C4F201001946FFF7F4FA4FF001006E
:102890004FF00001FFF788FC4FF001037B604FF021
:1028A00000033B724FF010037B724FF00103BB72C9
:1028B00007F10403184608F0B9F84FF001004FF093
:1028C0000101FFF771FC4FF002037B604FF0000342
:1028D0003B724FF010037B724FF00103BB7207F1A4
:1028E0000403184608F0A2F84FF001004FF002016F
:1028F000FFF75AFC4FF004037B604FF000033B727C
:102900004FF010037B724FF00103BB7207F1040319
:10291000184608F08BF84FF006033B704FF00F039A
:102920007B704FF00F03BB704FF00103FB703B4611
:1029300018460CF0B5FC4FF007033B704FF00F0347
:102940007B704FF00F03BB704FF00103FB703B46F1
:1029500018460CF0A5FC4FF008033B704FF00F0336
:102960007B704FF00F03BB704FF00103FB703B46D1
:1029700018460CF095FC07F11007BD4680BD00BF5E
:1029800080B588B000AF4FF011004FF0010107F0A3
:10299000A5FF4FF002004FF0010107F0C9FF07F15A
:1029A0001C031846FFF73EFB4FF47073BB834FF0D8
:1029B0000303BB774FF01803FB7707F11C034FF4B9
:1029C0008050C4F201001946FFF754FA4FF44060FA
:1029D000C0F21A004FF00101FFF756FB07F1100398
:1029E0001846FDF7B7FE4FF40073FB8240F2E73361
:1029F000BB824FF0EF033B8207F110034FF480607E
:102A0000C4F200001946FDF78DFB3B461846FDF762
:102A1000BFFE4FF001037B804FF060033B804FF01F
:102A20000003FB803B464FF48060C4F2000019466F
:102A3000FDF706FC3B464FF48060C4F200001946E7
:102A4000FDF792FC3B464FF48060C4F2000019464B
:102A5000FDF71EFD3B464FF48060C4F200001946AE
:102A6000FDF7A6FD4FF48060C4F200004FF00101B5
:102A7000FDF7B8FE07F12007BD4680BD80B483B0E6
:102A800000AF4FF00003FB714FF00003FB7160E0FB
:102A9000FA79F97941F6F423C2F200035B5C4FEA5C
:102AA0004303D9B241F6F423C2F200039954FA79F0
:102AB000F97941F6F423C2F20003595C4FF4406304
:102AC000C4F201039868FB7920FA03F3DBB203F048
:102AD0000103DBB2CB18D9B241F6F423C2F20003F2
:102AE0009954FA7941F6F423C2F200039B5C082B57
:102AF00014D9FB794FF0010202FA03F3DAB241F67E
:102B0000C123C2F200031B78DBB21343DBB2DAB29B
:102B100041F6C123C2F200031A7016E0FB794FF0B0
:102B2000010202FA03F3DBB26FEA0303DAB241F601
:102B3000C123C2F200031B78DBB21340DBB2DAB26E
:102B400041F6C123C2F200031A70FB7903F10103BD
:102B5000FB71FB79012B9BD907F10C07BD4680BCAB
:102B6000704700BF80B582B000AF0346FB714FF0E5
:102B7000010008F001F907F10807BD4680BD00BF5C
:102B800080B582B000AF02460B46FA71BB714FF0C0
:102B9000050008F0F1F807F10807BD4680BD00BF49
:102BA00080B400AFBD4680BC704700BF80B500AFA9
:102BB0004FF0200007F0D6FF4FF0400007F0D2FFA3
:102BC0004FF0800007F0CEFF80BD00BF80B500AFA2
:102BD0004FF0010007F0C6FF80BD00BF80B500AF19
:102BE0004FF0020007F0BEFF80BD00BF80B500AF10
:102BF0004FF0040007F0B6FF80BD00BF80B500AF06
:102C00004FF4806007F0AEFF4FF4006007F0AAFFBA
:102C10004FF4805007F0A6FF80BD00BF80B582B0A2
:102C200000AF4FF00003FB714FF00003BB714FF09A
:102C300000037B7107F03EFA0FE04FF0140008F03C
:102C40009BF805F0C9FA0346FB7141F6C123C2F2B5
:102C500000031B78184605F035FCFB79022BECD1FC
:102C600007F028FA07F10807BD4680BD80B586B099
:102C700000AF78604FF00003BB824FF000037B8110
:102C80007B689BB24FEA03139BB203F21463BB82CF
:102C9000BA8A07F10A03104619460CF0DDFE07F068
:102CA00009FA40F22020C0F6010006F07BFF7B8984
:102CB000184604F005F803467B817B89BA8A1046E2
:102CC00019460CF025FF7B689BB24FEA03139BB2B9
:102CD00003F21563BB82BA8A07F10A03104619464C
:102CE0000CF0BAFE07F0E6F940F23020C0F6010021
:102CF00006F058FF7B89184603F0E2FF03467B810C
:102D00007B89BA8A104619460CF002FF7B689BB299
:102D10004FEA03139BB203F21663BB82BA8A07F130
:102D20000A03104619460CF097FE07F0C3F940F26B
:102D30004420C0F6010006F035FF7B89184603F0F9
:102D4000BFFF03467B817B89BA8A104619460CF087
:102D5000DFFE07F10A0340F6990019460CF07CFEED
:102D600007F0A8F940F25820C0F6010006F01AFF5B
:102D70007B89DBB2184603F043FF03467B817B89E6
:102D800040F6990019460CF0C3FE7B89DAB241F691
:102D90008523C2F200031A707B8903F2FF53BB82C2
:102DA000BB8A18464FF046010CF0B2FE7B891A46EA
:102DB00040F21C03C2F200034FF0460199547B68B5
:102DC0009BB24FEA03139BB203F21E63BB82BA8A23
:102DD00007F10A03104619460CF03EFE07F06AF9A7
:102DE00040F26C20C0F6010006F0DCFE7B89DBB20D
:102DF000184603F005FF03467B817B89BA8A10469B
:102E000019460CF085FE7B8903F2FF53BB82BB8A17
:102E100018464FF047010CF07BFE7B891A4640F2C2
:102E20001C03C2F200034FF0470199547B689BB228
:102E30004FEA03139BB203F21763BB82BA8A07F10E
:102E40000A03104619460CF007FE07F033F940F26A
:102E50007C20C0F6010006F0A5FE7B89184603F031
:102E60002FFF03467B817B89BA8A104619460CF0F6
:102E70004FFE7B689BB24FEA03139BB203F5C3631B
:102E8000BB82BB8A184605F065FE386107F012F96F
:102E900040F28C20C0F6010006F084FE4FF4FA7078
:102EA00007F06AFF386903F08BFF3861BB8A184668
:102EB000396903F067FD7B689BB24FEA03139BB24D
:102EC00003F22263BB82BA8A07F10A03104619464D
:102ED0000CF0C2FD07F0EEF840F2A020C0F60100B1
:102EE00006F060FE4FF4FA7007F046FF7B89184643
:102EF00003F0E6FE03467B817B89BA8A10461946B9
:102F00000CF006FE7B689BB24FEA03139BB203F200
:102F10001F63BB82BA8A07F10A03104619460CF0F8
:102F20009BFD07F0C7F840F2B020C0F6010006F0A4
:102F300039FE7B89DBB2184603F062FE03467B81D3
:102F40007B89BA8A104619460CF0E2FD07F0B2F808
:102F500040F2BC20C0F6010006F024FE4FF0000352
:102F6000FB7507E005F038F90346FB754FF00A00E2
:102F700007F002FFFB7D002BF4D0FB7D022B23D159
:102F80007B689BB24FEA03139BB203F21A63BB82C6
:102F900004F06AFEF860BB8A1846F96803F0F2FC98
:102FA0007B689BB24FEA03139BB203F21C63BB82A4
:102FB00004F05AFE02463B69D31A03F10503BA8AAC
:102FC0001046194603F0DEFCFB7D032B23D107F0EE
:102FD00071F840F2CC20C0F6010006F0E3FD4FF49A
:102FE0007A7007F0C9FE7B689BB24FEA03139BB26D
:102FF00003F21A63BB82BB8A184605F0ABFDF8608A
:10300000F8684FF0010104F0FDF8F860BB8A18463B
:10301000F96803F0B7FC07F04DF840F2D820C0F68D
:10302000010006F0BFFD4FF47A7007F0A5FE7B6843
:1030300003F162039BB24FEA0313BB82BB8A1846BB
:1030400005F088FDF860F8684FF0010104F0DAF847
:10305000F860BB8A1846F96803F094FC07F02AF878
:103060004FF0C80007F088FE07F0FCFE05F02AFFCD
:1030700007F00AFF07F11807BD4680BD80B582B092
:1030800000AF4FF00003FB7107F014F840F2E420AA
:10309000C0F6010006F086FD4FF0C80007F06CFE98
:1030A000FB79184603F0ACFD0346FB71FB7918462B
:1030B00000F024F807F10807BD4680BD80B582B056
:1030C00000AF4FF00003FB7106F0F4FF40F2E42084
:1030D000C0F6010006F066FD4FF0C80007F04CFE98
:1030E000FB79184603F08CFD0346FB71FB7918460B
:1030F000FFF7BCFD07F10807BD4680BD80B584B071
:1031000000AF78604FF00003FB814FF00003BB81FC
:103110007B689BB21A464FEAC202D31A9BB203F2F3
:103120004563FB81FA8907F10C03104619460CF040
:1031300093FC06F0BFFF40F2F020C0F6010006F05D
:1031400031FDBB89184603F0BBFD0346BB81BB893B
:10315000FA89104619460CF0DBFC7B689BB21A46D4
:103160004FEAC202D31A9BB203F24663FB81FA898B
:1031700007F10C03104619460CF06EFC06F09AFF9E
:1031800040F20430C0F6010006F00CFDBB89184681
:1031900003F096FD0346BB81BB89FA8910461946A8
:1031A0000CF0B6FC7B689BB21A464FEAC202D31AF7
:1031B0009BB203F24763FB81FA8907F10C031046C7
:1031C00019460CF049FC06F075FF40F21430C0F6C9
:1031D000010006F0E7FCBB89184603F071FD0346C9
:1031E000BB81BB89FA89104619460CF091FC7B68BB
:1031F0009BB21A464FEAC202D31A9BB203F5C963C7
:10320000FB81FA8907F10C03104619460CF024FCE7
:1032100006F050FF40F22430C0F6010006F0C2FC78
:10322000BB89184603F04CFD0346BB81BB89FA8974
:10323000104619460CF06CFC7B689BB21A464FEAAC
:10324000C202D31A9BB203F24963FB81FA8907F1E8
:103250000C03104619460CF0FFFB06F02BFF40F262
:103260003030C0F6010006F09DFCBB89184603F023
:1032700027FD0346BB81BB89FA89104619460CF02D
:1032800047FC7B689BB21A464FEAC202D31A9BB234
:1032900003F24A63FB81FA8907F10C0310461946D1
:1032A0000CF0DAFB06F006FF40F24030C0F60100F9
:1032B00006F078FCBB89184603F002FD0346BB818B
:1032C0004FF00A0007F058FDBB89FA8910461946ED
:1032D0000CF01EFC06F0EEFE4FF00A0007F04CFD6D
:1032E00005F0F0FD07F11007BD4680BD90B585B033
:1032F00000AF4FF00003BB734FF00003FB7306F009
:10330000D9FE40F2E420C0F6010006F04BFC4FF07D
:10331000C80007F031FDBB7B184603F071FC034683
:10332000BB7306F0C7FE40F24C30C0F6010006F059
:1033300039FCBB7B184605F0C5F840F25830C0F6A2
:10334000010006F02FFC07E04FF01E0007F014FD0F
:1033500004F042FF0346FB73FB7B022B02D0FB7B96
:10336000032BF1D14FF0C80007F006FDFB7B022BC9
:103370002DD1BB7B4FEA031303F5C363BB60BB686E
:103380009BB2184605F0E6FB7860BB7B4FEA03135F
:1033900003F21A63BB6004F067FC3860BB689BB241
:1033A0001846396803F0EEFABB7B4FEA031303F2C9
:1033B0001C63BB60BB689CB204F056FC02467B6891
:1033C000D31A03F105032046194603F0DBFA06F091
:1033D00071FE4FF0C80007F0CFFC07F11407BD469F
:1033E00090BD00BF80B58EB000AF78604FF0010295
:1033F0007B6802FA03F3DAB241F65103C2F200032A
:103400001B78DBB21343DBB2DAB241F65103C2F2EE
:1034100000031A704FF001004FF00001FFF7B0FBFE
:103420004FF000033B824FF0000387F836304FF037
:1034300000033B634FF00003BB624FF00003FB60EF
:103440004FF00003FB624FF0010007F095FC7B6832
:103450009BB24FEA03139BB203F21463FB84FA8C12
:1034600007F11403104619460CF0F6FA7B689BB27C
:103470004FEA03139BB203F21663FB84FA8C07F145
:103480000C03104619460CF0E7FA04F0EDFB386324
:10349000FB683A6BD318BB624FF0050007F06CFC79
:1034A0004FF00000FFF75EFB1DE004F0DDFB38632A
:1034B000BB8A4FF0010202FA03F3DAB241F6C123EC
:1034C000C2F200031B78DBB21340DBB287F8363060
:1034D00097F83620BB8A42FA03F387F836304FF06C
:1034E000190007F049FC97F83630002B03D13A6BEE
:1034F000BB6A9A42D9D34FF000004FF00001FFF7AA
:103500003FFB4FF47A7007F037FC4FF0000387F869
:10351000373086E04FF000037B814FF000033B62C1
:103520004FF00003FB614FF00003BB617B689BB26F
:103530004FEA03139BB203F5C363FB84FB8C18466D
:1035400005F008FBF8617B689BB24FEA03139BB25E
:1035500003F21A63FB84FB8C184605F0FBFAB86192
:1035600097F837309BB21A464FEAC202D31A9BB281
:1035700003F24963FB84FA8C07F10A0310461946EB
:103580000CF06AFA04F070FB0246BB69D21AFB69C0
:10359000B2FBF3F33B627B893A6AB2FBF3F3FB7550
:1035A0004FF000033B8197F837309BB21A464FEA41
:1035B000C202D31A9BB203F5C963FB84FA8C07F1EC
:1035C0001203104619460CF047FA97F837309BB2B1
:1035D0001A464FEAC202D31A9BB203F24A63FB8433
:1035E000FA8C07F10803104619460CF035FA7B8A6D
:1035F0001A467B689A420AD13B89012B07D1FB7D91
:10360000002B04D197F83730184600F0E5F84FF05A
:103610000A0007F0B1FB97F8373003F1010387F890
:10362000373097F83730082B7FF674AF7B689BB242
:103630004FEA03139BB203F21763FB84FA8C07F182
:103640000C03104619460CF007FA7B689BB24FEA50
:1036500003139BB203F21E63FB84FA8C07F1100381
:10366000104619460CF0F8F94FF00A0007F084FBF9
:1036700004F0FAFA386304F0F7FA0246FB68D3184C
:10368000BB624FF00A0007F077FB7B689BB24FEA02
:1036900003139BB203F21563FB84FA8C07F1140346
:1036A000104619460CF0D8F94FF0000387F8373070
:1036B0004FF0010387F836304CE04FF00A0007F076
:1036C0005BFBBB8A4FF0010202FA03F3DAB241F668
:1036D000C123C2F200031B78DBB21340DBB287F8D0
:1036E000363097F83620BB8A42FA03F387F8363033
:1036F00041F64C03C2F200031B68DBB203F0010386
:1037000087F8373004F0B0FA0246FB6A9A420ED9C5
:1037100097F83730012B0AD197F83630012B06D1B4
:103720003B6B03F101033B6304F09EFAF8624FF038
:10373000050007F021FB3B8ADAB297F8371097F8BB
:1037400036300B40DBB203F00103DBB21046194602
:1037500003F0D0F83A6BBB6A9A42AED33B8ADBB235
:1037600018464FF0000103F0C5F84FF00A0007F0CB
:1037700003FB4FF00100FFF7F5F97B689BB24FEABE
:1037800003139BB203F21C63FB8404F06DFA03463F
:10379000FA8C1046194603F0F5F84FF001027B68E9
:1037A00002FA03F3DBB26FEA0303DAB241F6510324
:1037B000C2F200031B78DBB21340DBB2DAB241F68F
:1037C0005103C2F200031A704FF0C80007F0D4FA98
:1037D00007F13807BD4680BD80B586B000AF786080
:1037E0004FF000037B617B689BB21A464FEAC2022E
:1037F000D31A9BB203F246637B827A8A07F11003E5
:10380000104619460CF028F97B689BB21A464FEA1D
:10381000C202D31A9BB203F245637B827A8A07F114
:103820000E03104619460CF017F97B689BB21A4636
:103830004FEAC202D31A9BB203F247637B827A8AB1
:1038400007F10C03104619460CF006F904F00CFAC7
:1038500002463B8AD3187B61FB89DBB218464FF0E6
:10386000010100F04DF803E04FF00A0007F084FA80
:1038700004F0FAF902467B699A42F5D3FB89DBB280
:1038800018464FF0000100F03BF8BB89184600F0E5
:1038900005F807F11807BD4680BD00BF80B584B0AC
:1038A00000AF0346FB804FF00003FB6004F0DCF93F
:1038B0000246FB88D318FB6041F68523C2F2000361
:1038C0001B7818464FF0010103F014F803E04FF0A5
:1038D0000A0007F051FA04F0C7F90246FB689A4261
:1038E000F5D341F68523C2F200031B7818464FF04A
:1038F000000102F0FFFF07F11007BD4680BD00BFC9
:1039000080B483B000AF02460B46FA71BB71BB793D
:10391000012B14D1FB794FF0010202FA03F3DAB262
:1039200041F65003C2F200031B78DBB21343DBB253
:10393000DAB241F65003C2F200031A7016E0FB79C6
:103940004FF0010202FA03F3DBB26FEA0303DAB2CB
:1039500041F65003C2F200031B78DBB21340DBB226
:10396000DAB241F65003C2F200031A70BB79C3F118
:103970000103BB71FB79002B10D14FF48063C4F2BB
:103980000003BA7992B211464FEA4111891A4FEAFF
:1039900081018A184FEAC20292B29A86FB79012B02
:1039A00010D14FF48063C4F20003BA7992B2114689
:1039B0004FEA4111891A4FEA81018A184FEAC2027F
:1039C00092B21A87FB79022B10D14FF48063C4F2B4
:1039D0000003BA7992B211464FEA4111891A4FEAAF
:1039E00081018A184FEAC20292B29A87FB79032BAF
:1039F00011D14FF48063C4F20003BA7992B2114638
:103A00004FEA4111891A4FEA81018A184FEAC2022E
:103A100092B2A3F8402007F10C07BD4680BC704766
:103A200080B58AB000AF78604FF0000387F8263089
:103A30004FF00100FFF796F84FF000004FF0000143
:103A4000FFF79EF84FF0000387F827308CE04FF027
:103A50000A0007F091F997F827309BB24FEA031359
:103A60009BB203F21C63BB84BB8C184605F072F852
:103A7000386204F0F9F8F86197F827309BB24FEA02
:103A800003139BB203F5C363BB84BB8C184605F0DC
:103A900061F8B861FA693B6AD31A7B6197F82730FD
:103AA0009BB24FEA03139BB203F21A63BB84BB8C35
:103AB000184605F04FF8386197F8273003F1620394
:103AC0009BB24FEA0313BB84BB8C184605F042F847
:103AD000F86097F827309BB24FEA03139BB203F2CA
:103AE0001F63BB84BA8C07F10B03104619460BF019
:103AF000B3FF4FF00A0007F03FF997F827304FF077
:103B0000010202FA03F3DAB241F65103C2F20003F2
:103B10001B78DBB21340DBB287F8263097F82620FB
:103B200097F8273042FA03F387F826307A69BB69A1
:103B30009A420FD9FA693B699A420BD9FA69FB6834
:103B40009A4207D2FB7A012B04D197F82730184606
:103B5000FFF748FC4FF00A0007F00EF997F82730FE
:103B600003F1010387F8273097F82730022B7FF6FF
:103B70006EAF67E780B582B000AF4FF480304FF092
:103B8000010106F0ABFE4FF40043BB804FF0480349
:103B9000FB714FF00303BB7107F104034FF4406066
:103BA000C4F201001946FEF765F94FF00100C8F2B2
:103BB00000004FF00101FEF767FA4FF018033B7069
:103BC0004FF000037B704FF00103BB704FF0010317
:103BD000FB703B4618460BF063FB41F6FC23C2F238
:103BE00000034FF004021A8041F6FC23C2F20003E6
:103BF0004FF000025A8041F6FC23C2F200034FF05E
:103C000001029A8041F6FC23C2F200034FF0000249
:103C1000DA8041F6FC23C2F200034FF000021A8161
:103C20004FF48040C4F2010041F6FC21C2F20001D1
:103C3000FCF72EFD4FF48040C4F201004FF060010C
:103C4000FCF714FE4FF48040C4F201004FF0040171
:103C5000FCF728FE4FF48040C4F201004FF08001D1
:103C6000FCF73CFE4FF48040C4F201004FF001012C
:103C7000FCF7B8FD4FF48040C4F201004FF004019E
:103C80004FF00102FCF7CEFD07F10807BD4680BDED
:103C900080B400AF4FF44063C4F201034FF44062BC
:103CA000C4F20102526822F040425A604FF440636D
:103CB000C4F201034FF44062C4F20102526842F0C0
:103CC00080525A60BD4680BC704700BF80B500AFCF
:103CD0004FF48060C4F200004FF00401FCF770FE66
:103CE0004FF48060C4F20000FCF75CFE03461A4605
:103CF00040F25E03C2F200031A8040F25E03C2F299
:103D000000031B889BB2002B2BD04FF48060C4F2C1
:103D10000000FCF739FE03464FF0640202FB03F299
:103D200040F25E03C2F200031B889BB292FBF3F3E6
:103D30009AB240F26003C2F200031A8040F200031C
:103D4000C2F200031A6840F25E03C2F200031B884D
:103D50009BB2B2FBF3F240F26403C2F200031A60BA
:103D60000DE040F26003C2F200034FF000021A803F
:103D700040F26403C2F200034FF000021A6040F206
:103D80006803C2F200031B781A4640F26003C2F2D5
:103D900000031B8899B241F60833C2F2000323F8EE
:103DA000121040F26803C2F200031B7803F1010312
:103DB000DAB240F26803C2F200031A7080BD00BF9D
:103DC00080B500AF4FF48040C4F201004FF0040111
:103DD000FCF7F6FD4FF48043C4F201031B8F9AB247
:103DE00040F25E03C2F200031A8040F25E03C2F2A8
:103DF00000031B889BB2002B18D04FF48043C4F201
:103E000001039B8E9BB24FF0640202FB03F240F26F
:103E10005E03C2F200031B889BB292FBF3F39AB2DB
:103E200040F26003C2F200031A800DE040F260032A
:103E3000C2F200034FF000021A8040F26403C2F2A3
:103E400000034FF000021A6040F26803C2F2000360
:103E50001B781A4640F26003C2F200031B8899B235
:103E600041F60833C2F2000323F8121040F268034F
:103E7000C2F200031B7803F10103DAB240F26803D7
:103E8000C2F200031A7080BD80B582B000AF4FF05F
:103E9000190006F071FF4FF00003FB710CE0FA7996
:103EA00041F60833C2F200034FF0000123F812106C
:103EB000FB7903F10103FB71FB79312BEFD940F260
:103EC0006903C2F200034FF000021A7040F2680367
:103ED000C2F200034FF000021A70FFF7D9FE4FF450
:103EE0004063C4F201034FF400425A614FF00500F1
:103EF00006F042FF4FF44063C4F201034FF4004266
:103F00001A61FFF737FE4FF0C80006F035FF40F2A8
:103F10006903C2F200034FF001021A7040F2680315
:103F2000C2F200034FF000021A704FF0050006F0D5
:103F300023FF00F005F807F10807BD4680BD00BF6C
:103F400080B59AB000AF4FF00A0006F015FF40F2BE
:103F50006903C2F200031B78012B40F0F0814FF09F
:103F600004033B664FF0000387F8673016E097F8CC
:103F7000671097F8672041F60833C2F2000333F860
:103F800012204FEA410307F16801CB1823F8642C93
:103F900097F8673003F1010387F8673097F86730C7
:103FA0002C2BE4D940F26A03C2F200034FF0000266
:103FB0001A704FF0000387F8673054E097F86720D5
:103FC00041F67833C2F200034FF0000199544FF0EC
:103FD0000A0006F0D1FE4FF0080387F8663038E09B
:103FE0003B6E4FEA430307F16802D31833F8643C91
:103FF000192B09D93B6E4FEA430307F16801CB182F
:1040000033F8643C222B1AD997F8672097F8671089
:1040100041F67833C2F200035B5CD9B297F86630A0
:1040200003F1FF334FF0010000FA03F3DBB20B435F
:10403000DBB2D9B241F67833C2F2000399543B6E39
:1040400003F101033B6697F8663003F1FF3387F80D
:10405000663097F86630002BC2D197F8673003F1CD
:10406000010387F8673097F86730042BA6D94FF023
:104070000A0006F081FE41F67833C2F200031B7895
:104080004FEA03239AB241F67833C2F200035B7819
:10409000D3189AB241F6D423C2F200035A8041F6F3
:1040A0007833C2F200039B784FEA03239AB241F6B9
:1040B0007833C2F20003DB78D3189AB241F6D423E6
:1040C000C2F200031A8041F67833C2F200035A7933
:1040D00041F6D423C2F200031A7141F6D423C2F28E
:1040E00000035A8841F68E33C2F200031B889A42BD
:1040F00012D941F6D423C2F200035A8841F6B823FC
:10410000C2F200031B889A4206D240F2B003C2F208
:1041100000034FF000021A7041F6D423C2F20003EC
:104120005A8841F68E33C2F200031B889A4206D2A7
:1041300040F2B003C2F200034FF001021A7041F6E0
:10414000D423C2F200035A8841F6B823C2F2000316
:104150001B889A4206D940F2B003C2F200034FF026
:1041600002021A704FF00A0006F006FE41F6D42350
:10417000C2F200031A8844F6D353C1F26203A3FBD0
:1041800002134FEA93134FF47A7101FB03F3D31A2E
:104190009AB248F21F53C5F2EB13A3FB02134FEA86
:1041A00053139BB2DBB203F13003DAB241F6803332
:1041B000C2F200031A7041F6D423C2F200031A8837
:1041C00048F21F53C5F2EB13A3FB02134FEA53133C
:1041D0004FF0640101FB03F3D31A9AB24CF6CD43BE
:1041E000CCF6CC43A3FB02134FEAD3039BB2DBB262
:1041F00003F13003DAB241F68033C2F200035A70A1
:1042000041F68033C2F200034FF02E029A7041F65D
:10421000D423C2F200031A884CF6CD43CCF6CC432B
:10422000A3FB02134FEAD3010B464FEA83035B184B
:104230004FEA4303D31A9BB2DBB203F13003DAB285
:1042400041F68033C2F20003DA704FF00A0006F044
:1042500093FD41F6D423C2F200035A8844F6D353A7
:10426000C1F26203A3FB02134FEA93134FF47A7176
:1042700001FB03F3D31A9AB248F21F53C5F2EB13B2
:10428000A3FB02134FEA53139BB2DBB203F13003DB
:10429000DAB241F6EC23C2F200031A7041F6D423DD
:1042A000C2F200035A8848F21F53C5F2EB13A3FB76
:1042B00002134FEA53134FF0640101FB03F3D31AC7
:1042C0009AB24CF6CD43CCF6CC43A3FB02134FEA93
:1042D000D3039BB2DBB203F13003DAB241F6EC2335
:1042E000C2F200035A7041F6EC23C2F200034FF011
:1042F0002E029A7041F6D423C2F200035A884CF67B
:10430000CD43CCF6CC43A3FB02134FEAD3010B46BB
:104310004FEA83035B184FEA4303D31A9BB2DBB225
:1043200003F13003DAB241F6EC23C2F20003DA7093
:1043300040F26A03C2F200034FF001021A7007F163
:104340006807BD4680BD00BF80B582B000AF4FF0AA
:104350000003FB714FF00003BB717EE04FF01E00C5
:1043600006F00AFD03F038FF0346FB714FF0000032
:104370004FF0000105F06AFCBB79184604F0A2F882
:1043800040F25C30C0F6010005F00CFCBA7941F651
:104390000833C2F2000333F8122048F21F53C5F26B
:1043A000EB13A3FB02134FEA53139BB2DBB2184685
:1043B00004F088F8BA7941F60833C2F2000333F802
:1043C0001230DBB2184604F07DF8FB79042B06D1DD
:1043D000BB79FF2B03D0BB7903F10103BB71FB79E0
:1043E000012B06D1BB79002B03D0BB7903F1FF333E
:1043F000BB714FF001004FF0000105F027FC40F2C7
:104400006030C0F6010005F0CDFB41F68030C2F20D
:10441000000040F28401C2F200014FF004024FF0AC
:10442000020303F06DFD4FF001004FF0070105F0AE
:104430000DFC40F26430C0F6010005F0B3FB41F61C
:10444000EC20C2F2000040F28401C2F200014FF001
:1044500004024FF00A0303F053FDFB79022B7FF4B3
:104460007DAF05F027FE07F10807BD4680BD00BF00
:1044700080B483B000AF0346FB80FA8840F29C030F
:10448000C2F200031B68D21A13464FEA83039B183B
:104490004FEA43031A4640F2A803C2F200031B6826
:1044A000B2FBF3F3DBB2184607F10C07BD4680BC44
:1044B000704700BF80B483B000AF0346FB71FA7948
:1044C00040F2A803C2F200031B6803FB02F246F2AB
:1044D0006763C6F2666383FB02134FEAA3014FEAE8
:1044E000E273CB1A9AB240F29C03C2F200031B683B
:1044F0009BB2D3189BB2184607F10C07BD4680BC8F
:10450000704700BF80B582B000AF4FF00003BB80A2
:104510004FF00003FB7105F0CDFD40F26830C0F6AE
:10452000010005F03FFB4FF00A0006F025FC07F103
:10453000040340F2046019460BF08EFABB8818465B
:10454000FFF796FF0346FB71FB79184600F0D2F99E
:104550000346FB714FF00A0006F00EFCFB7918468B
:10456000FFF7A8FF034640F2046019460BF0D0FAAB
:1045700005F0A0FD40F27830C0F6010005F012FB16
:104580004FF00A0006F0F8FB07F1040340F2056063
:1045900019460BF061FABB881846FFF769FF03461E
:1045A000FB71FB79184600F0A5F90346FB714FF04B
:1045B0000A0006F0E1FBFB791846FFF77BFF034694
:1045C00040F2056019460BF0A3FA05F073FD07F100
:1045D0000807BD4680BD00BF80B584B000AF03466C
:1045E000FB714FF00003FB7395E003F0F5FD03460C
:1045F000FB734FF001004FF0030105F027FBFA7940
:1046000044F6D353C1F2620383FB02134FEAA311B2
:104610004FEAE273CB1A4FF47A7101FB03F3D31A1A
:1046200048F21F52C5F2EB1282FB03124FEA6212EC
:104630004FEAE373D31ADBB23B72FA7948F21F53A5
:10464000C5F2EB13A3FB02134FEA53134FF06401BF
:1046500001FB03F3D31ADAB24CF6CD43CCF6CC43CC
:10466000A3FB02134FEAD303DBB27B72FA794CF659
:10467000CD43CCF6CC43A3FB02134FEAD3010B4648
:104680004FEA83035B184FEA4303D31ADBB2BB72D2
:1046900040F28430C0F6010005F084FA07F1080307
:1046A000184640F28401C2F200014FF003024FF0BD
:1046B000060303F025FC4FF001004FF00C0105F05C
:1046C000C5FA40F28830C0F6010005F06BFA4FF0F1
:1046D0000A0006F051FBFB7B042B0AD1FB79622B0D
:1046E00004D8FB7903F10103FB7102E04FF00003F2
:1046F000FB71FB7B012B0AD1FB79002B03D14FF01F
:104700000003FB7103E0FB7903F1FF33FB714FF012
:104710000A0006F031FBFB7B022B7FF466AFFB79CE
:10472000184607F11007BD4680BD00BF80B582B0B6
:1047300000AF4FF00003BB804FF00003FB7105F0AA
:10474000B9FC40F28C30C0F6010005F02BFA4FF0B6
:104750000A0006F011FB07F1040340F20760194656
:104760000BF07AF9BB88DBB21846FFF735FF03463A
:10477000FB714FF00A0006F0FFFAFB799BB240F2A2
:10478000076019460BF0C4F905F094FC40F29C3028
:10479000C0F6010005F006FA4FF00A0006F0ECFA48
:1047A00007F104034FF4C16019460BF055F9BB88BB
:1047B000DBB21846FFF710FF0346FB714FF00A000B
:1047C00006F0DAFAFB799BB24FF4C16019460BF0A0
:1047D0009FF905F06FFC07F10807BD4680BD00BFDB
:1047E00080B582B000AF03463960FB713B6803F1CE
:1047F0000302F9794CF6CD43CCF6CC43A3FB01037D
:104800004FEAD303DBB219464FEA4111C91A4FEA06
:104810008101CB1A4FEA4303D9B2FB79CB18DBB243
:1048200003F13003DBB213704FF0050006F0A4FA79
:10483000FA794CF6CD43CCF6CC43A3FB02134FEAF6
:10484000D303FB713B6803F102034FF02E021A7091
:104850003B6803F10102F9794CF6CD43CCF6CC4329
:10486000A3FB01034FEAD303DBB219464FEA411120
:10487000C91A4FEA8101CB1A4FEA4303D9B2FB7937
:10488000CB18DBB203F13003DBB213704FF005003D
:1048900006F072FAFA794CF6CD43CCF6CC43A3FB82
:1048A00002134FEAD303FB71FA794CF6CD43CCF6F1
:1048B000CC43A3FB02034FEAD303DBB21A464FEA11
:1048C0004212D21A4FEA8202D31A4FEA4303DAB2F3
:1048D000FB79D318DBB203F13003DAB23B681A700C
:1048E0003B6803F104034FF000021A7007F1080758
:1048F000BD4680BD80B584B000AF0346FB714FF06C
:104900000003FB7353E003F067FC0346FB734FF0B7
:1049100001004FF0030105F099F9FA7907F1080356
:1049200010461946FFF75CFF40F28430C0F60100E4
:1049300005F038F907F10803184640F28401C2F285
:1049400000014FF004024FF0060303F0D9FA4FF0D4
:1049500001004FF00C0105F079F940F28830C0F603
:10496000010005F01FF94FF00A0006F005FAFB7B85
:10497000042B0AD1FB79FD2B04D8FB7903F1010349
:10498000FB7102E04FF00003FB71FB7B012B0AD1AE
:10499000FB79002B03D14FF00003FB7103E0FB799F
:1049A00003F1FF33FB714FF00A0006F0E5F9FB7BE2
:1049B000022BA8D1FB79184607F11007BD4680BD30
:1049C00080B58AB000AF786039604FF000033B7665
:1049D00079684CF6CD43CCF6CC43A3FB01234FEAD8
:1049E000D30213464FEA83039B184FEA4303CA1AC4
:1049F000D3B203F13003DBB2FB757A684CF6CD43DA
:104A0000CCF6CC43A3FB02134FEAD3037B60796857
:104A10004CF6CD43CCF6CC43A3FB01234FEAD302A3
:104A200013464FEA83039B184FEA4303CA1AD3B2D3
:104A300003F13003DBB2BB757A684CF6CD43CCF69C
:104A4000CC43A3FB02134FEAD3037B6079684CF697
:104A5000CD43CCF6CC43A3FB01234FEAD30213464C
:104A60004FEA83039B184FEA4303CA1AD3B203F1F8
:104A70003003DBB27B757A684CF6CD43CCF6CC4381
:104A8000A3FB02134FEAD3037B6079684CF6CD4356
:104A9000CCF6CC43A3FB01234FEAD30213464FEAE3
:104AA00083039B184FEA4303CA1AD3B203F13003BE
:104AB000DBB23B757A684CF6CD43CCF6CC43A3FB16
:104AC00002134FEAD3037B6079684CF6CD43CCF6F2
:104AD000CC43A3FB01234FEAD30213464FEA8303DF
:104AE0009B184FEA4303CA1AD3B203F13003DBB277
:104AF000FB747A684CF6CD43CCF6CC43A3FB02138F
:104B00004FEAD3037B6079684CF6CD43CCF6CC43B7
:104B1000A3FB01234FEAD30213464FEA83039B18FA
:104B20004FEA4303CA1AD3B203F13003DBB2BB74BA
:104B30004FF0190006F020F97A684CF6CD43CCF618
:104B4000CC43A3FB02134FEAD3037B6079684CF696
:104B5000CD43CCF6CC43A3FB01234FEAD30213464B
:104B60004FEA83039B184FEA4303CA1AD3B203F1F7
:104B70003003DBB27B747A684CF6CD43CCF6CC4381
:104B8000A3FB02134FEAD3037B6079684CF6CD4355
:104B9000CCF6CC43A3FB01234FEAD30213464FEAE2
:104BA00083039B184FEA4303CA1AD3B203F13003BD
:104BB000DBB23B747A684CF6CD43CCF6CC43A3FB16
:104BC00002134FEAD3037B6079684CF6CD43CCF6F1
:104BD000CC43A3FB01234FEAD30213464FEA8303DE
:104BE0009B184FEA4303CA1AD3B203F13003DBB276
:104BF000FB737A684CF6CD43CCF6CC43A3FB02138F
:104C00004FEAD3037B6079684CF6CD43CCF6CC43B6
:104C1000A3FB01234FEAD30213464FEA83039B18F9
:104C20004FEA4303CA1AD3B203F13003DBB2BB73BA
:104C30007A684CF6CD43CCF6CC43A3FB02134FEA83
:104C4000D3037B6079684CF6CD43CCF6CC43A3FB11
:104C500001234FEAD30213464FEA83039B184FEA1E
:104C60004303CA1AD3B203F13003DBB27B737A6811
:104C70004CF6CD43CCF6CC43A3FB02134FEAD3034F
:104C80007B6079684CF6CD43CCF6CC43A3FB012383
:104C90004FEAD30213464FEA83039B184FEA4303BC
:104CA000CA1AD3B203F13003DBB23B737A684CF615
:104CB000CD43CCF6CC43A3FB02134FEAD3037B6076
:104CC00079684CF6CD43CCF6CC43A3FB01234FEAE5
:104CD000D30213464FEA83039B184FEA4303CA1AD1
:104CE000D3B203F13003DBB2FB727A684CF6CD43EA
:104CF000CCF6CC43A3FB02134FEAD3037B60796865
:104D00004CF6CD43CCF6CC43A3FB01234FEAD302B0
:104D100013464FEA83039B184FEA4303CA1AD3B2E0
:104D200003F13003DBB2BB727A684CF6CD43CCF6AC
:104D3000CC43A3FB02134FEAD3037B6079684CF6A4
:104D4000CD43CCF6CC43A3FB01234FEAD302134659
:104D50004FEA83039B184FEA4303CA1AD3B203F105
:104D60003003DBB27B727A684CF6CD43CCF6CC4391
:104D7000A3FB02134FEAD3014CF6CD43CCF6CC4350
:104D8000A3FB01234FEAD30213464FEA83039B1888
:104D90004FEA4303CA1AD3B203F13003DBB23B72CA
:104DA0004FF000033B6207F108023B6AD3181B78FF
:104DB000FB614FF03003FB614FF0190005F0DCFFA1
:104DC00009E03B6A03F101033B6207F108023B6A19
:104DD000D3181B78FB61FB69302BF2D04FF0190020
:104DE00005F0CAFF3B6A7B620EE07A6A3B6AD31A1F
:104DF0003A68D31807F108017A6A8A1812781A708B
:104E00007B6A03F101037B627B6A102BEDDD3B685B
:104E1000184607F12807BD4680BD00BF80B485B0A5
:104E200000AF78607B684FF0FA0202FB03F3FB608F
:104E300000BFFB68002B0CBF00230123DBB2FA6824
:104E400002F1FF32FA60002BF3D107F11407BD46DF
:104E500080BC704780B485B000AF0346FB714FF053
:104E60000003FB734FF00003BB604FF00003FB73C4
:104E70000BE04FF41053C4F201039B6CBA68D318D3
:104E8000BB60FB7B03F10103FB73FA7BFB799A4266
:104E9000EFD3FB79BA68B2FBF3F39BB2184607F184
:104EA0001407BD4680BC704780B584B000AF05F0E4
:104EB00001F94FF000004FF0000104F0C7FE40F28E
:104EC0008430C0F601004FF0010102F031FB42F2E4
:104ED0001070FFF7A3FF4FF06400FFF79FFF4FF044
:104EE0000A00FFF7B7FF0346BB804FF000004FF00A
:104EF000000104F0ABFE40F6C810C0F601004FF010
:104F0000020102F015FB42F21070FFF787FF4FF02D
:104F10006400FFF783FF4FF00A00FFF79BFF034693
:104F2000FB804FF000004FF0000104F08FFE40F6D0
:104F3000CC10C0F601004FF0060102F0F9FA42F27F
:104F40001070FFF76BFF4FF06400FFF767FF4FF043
:104F50000A00FFF77FFF03463B8105F0ABF840F204
:104F60008830C0F601004FF0010102F0E1FA42F290
:104F70001070FFF753FF4FF06400FFF74FFF4FF043
:104F80000A00FFF767FF03467B817B894FEAD30363
:104F90009AB2BB884FEAD3039BB29A4207D240F23F
:104FA000B803C2F200034FF001021A7018E07B89C7
:104FB0004FEAD3039AB2BB884FEAD3039BB29A421B
:104FC00007D940F2B803C2F200034FF000021A7092
:104FD00006E040F2B803C2F200034FF002021A707A
:104FE00040F2B803C2F200031B78002B77D1FB8894
:104FF0001A46BB88D31A4FEAD372D3184FEA630319
:105000009BB2A3F10503FB81BA88FB894FEA5303E6
:105010009BB2D31A9AB241F6C423C2F200031A809B
:10502000BA88FB89D3189AB241F6C423C2F20003AE
:105030005A80FA88FB89D31A9AB241F6C423C2F285
:1050400000039A803B891A46FB88D31A4FEAD37231
:10505000D3184FEA63039BB2A3F10503FB81FA88DF
:10506000FB89D3189AB241F6C423C2F20003DA8056
:105070003A89FB89D31A9AB241F6C423C2F20003DB
:105080001A817B891A463B89D31A4FEAD372D31807
:105090004FEA63039BB2A3F10503FB813A89FB89C5
:1050A000D3189AB241F6C423C2F200035A817A8916
:1050B000FB89D31A9AB241F6C423C2F200039A8143
:1050C0007A89FB894FEA53039BB2D3189AB241F60F
:1050D000C423C2F20003DA8100F07EF980E040F2DE
:1050E000B803C2F200031B78012B71D1BB881A46AA
:1050F000FB88D31A4FEAD372D3184FEA63039BB2EB
:10510000A3F10503FB81BA88FB89D31A9AB241F651
:10511000C423C2F200031A80BA88FB89D3189AB25A
:1051200041F6C423C2F200035A80FA88FB89D31ADD
:105130009AB241F6C423C2F200039A80FB881A4651
:105140003B89D31A4FEAD372D3184FEA63039BB259
:10515000A3F10503FB81FA88FB89D3189AB241F6C3
:10516000C423C2F20003DA803A89FB89D31A9AB2C7
:1051700041F6C423C2F200031A813B891A467B8997
:10518000D31A4FEAD372D3184FEA63039BB2A3F149
:105190000503FB813A89FB89D3189AB241F6C423EF
:1051A000C2F200035A817A89FB89D31A9AB241F676
:1051B000C423C2F200039A817A89FB89D3189AB278
:1051C00041F6C423C2F20003DA8100F005F907E0DA
:1051D00040F6D410C0F6010004F0E4FC00F01EF923
:1051E00041F6C423C2F200031A8841F6C423C2F276
:1051F00000031B8A9A4206D940F2B803C2F20003A8
:105200004FF001021A704FF000004FF0000104F05F
:105210001DFD40F6E410C0F6010004F0C3FC07F1E8
:105220001007BD4680BD00BF80B582B000AF4FF013
:105230000003FB7104F03EFF4FF4FA7005F09CFD93
:1052400093E002F0C9FF0346FB714FF000004FF0FE
:10525000000104F0FBFC40F6F010C0F6010004F081
:10526000A1FC4FF41053C4F20103DA6B48F21F5350
:10527000C5F2EB13A3FB02134FEA5313DBB218463C
:1052800003F020F94FF41053C4F20103DB6BDBB2DF
:10529000184603F017F940F6F410C0F6010004F0C8
:1052A00081FC4FF41053C4F201031A6C48F21F53EF
:1052B000C5F2EB13A3FB02134FEA5313DBB21846FC
:1052C00003F000F94FF41053C4F201031B6CDBB27E
:1052D000184603F0F7F84FF001004FF0000104F01A
:1052E000B5FC40F6F810C0F6010004F05BFC4FF48A
:1052F0001053C4F201035A6C48F21F53C5F2EB136A
:10530000A3FB02134FEA5313DBB2184603F0DAF89B
:105310004FF41053C4F201035B6CDBB2184603F088
:10532000D1F840F6FC10C0F6010004F03BFC4FF44D
:105330001053C4F201039A6C48F21F53C5F2EB13E9
:10534000A3FB02134FEA5313DBB2184603F0BAF87B
:105350004FF41053C4F201039B6CDBB2184603F008
:10536000B1F84FF0140005F007FDFB79022B7FF434
:1053700068AF04F09FFE07F10807BD4680BD00BF7F
:1053800080B582B000AF4FF00003FB7104F092FED5
:105390004FF4FA7005F0F0FC15E002F01DFF034633
:1053A000FB714FF000004FF0000104F04FFC41F69C
:1053B000E020C2F200004FF00A0102F0B9F84FF00D
:1053C000140005F0D9FCFB79022BE6D104F072FE43
:1053D00007F10807BD4680BD80B582B000AF4FF031
:1053E0000003FB7113E0FB799BB203F20A639AB2EC
:1053F000F97941F6C423C2F2000333F811301046A4
:1054000019460AF085FBFB7903F10103FB71FB7977
:10541000072BE8D907F10807BD4680BD80B582B0EB
:1054200000AF4FF00003FB7114E0FB799BB203F275
:105430000A639AB2FB794FEA430141F6C423C2F2F0
:105440000003CB18104619460AF006FBFB7903F15E
:105450000103FB71FB79072BE7D907F10807BD466C
:1054600080BD00BF80B58AB000AF78604FF0960075
:1054700005F082FC02F0F8FB38624FF0020005F004
:105480007BFC40F2B403C2F200031B683A6A9A4202
:1054900040F2368202F0E8FB024640F2B403C2F268
:1054A00000031A6007F10C03386A194603F072F919
:1054B0004FF0020005F060FC4FF000037B620FE04C
:1054C00007F10C027B6AD3181A7841F69033C2F2C6
:1054D0000003796A5B181A707B6A03F101037B622F
:1054E0007B6A092BECDD4FF0020005F045FC41F62C
:1054F0009033C2F200034FF02C029A724FF0020078
:1055000005F03AFC05F0AEFC4FF000037B6221E0B1
:105510007B6A03F10B0241F67033C2F20003796A31
:105520005B18197841F69033C2F2000399547B6AF4
:1055300003F1100241F68433C2F20003796A5B186A
:10554000197841F69033C2F2000399547B6A03F153
:1055500001037B627B6A032BDADD05F095FC4FF0DB
:10556000020005F009FC41F69033C2F200034FF04F
:105570002C02DA7341F69033C2F200034FF02C0292
:105580001A754FF00003FB834FF000037B6223E0AA
:105590004FF001027B6A02FA03F39AB241F6F82354
:1055A000C2F200031B689BB21340FB83FA8B7B6A39
:1055B00042FA03F3FB837B6A03F11502FB8BDBB238
:1055C00003F13003D9B241F69033C2F2000399548B
:1055D0007B6A03F101037B627B6A022BD8DD41F613
:1055E0009033C2F200034FF02C021A7641F680305D
:1055F000C2F2000041F69031C2F200014FF0040205
:105600004FF0190302F07CFC41F69033C2F2000324
:105610004FF02C025A7741F6EC20C2F2000041F61E
:105620009031C2F200014FF004024FF01E0302F06D
:1056300067FC41F69033C2F200034FF02C0283F86E
:1056400022204FF000037B6224E041F6C123C2F226
:1056500000031B781A464FF001017B6A01FA03F33D
:105660009BB213409BB2FB83FA8B7B6A42FA03F333
:10567000FB837B6A03F12302FB8BDBB203F1300374
:10568000D9B241F69033C2F2000399547B6A03F118
:1056900001037B627B6A022BD7DD41F69033C2F2B5
:1056A00000034FF02C0283F826204FF000037B62AA
:1056B00027E04FF48053C4F201039B689AB27B6ADF
:1056C00003F10A034FF0010101FA03F39BB2134007
:1056D000FB83FA8B7B6A03F10A0342FA03F3FB8331
:1056E0007B6A03F12702FB8BDBB203F13003D9B2F3
:1056F00041F69033C2F2000399547B6A03F101032F
:105700007B627B6A022BD4DD41F69033C2F2000348
:105710004FF02C0283F82A204FF000037B620DE04B
:105720007B6A03F12B0241F69033C2F200034FF083
:10573000300199547B6A03F101037B627B6A022B7F
:10574000EEDD41F69033C2F200034FF02C0283F8F5
:105750002E204FF000037B6227E04FF40063C4F279
:105760000103DB689AB27B6A03F108034FF0010181
:1057700001FA03F39BB21340FB83FA8B7B6A03F1BC
:10578000080342FA03F3FB837B6A03F12F02FB8BCE
:10579000DBB203F13003D9B241F69033C2F2000319
:1057A00099547B6A03F101037B627B6A022BD4DD8F
:1057B00041F69033C2F200034FF02C0283F83220FE
:1057C0004FF000037B620DE07B6A03F1330241F688
:1057D0009033C2F200034FF0300199547B6A03F119
:1057E00001037B627B6A022BEEDD41F69033C2F24D
:1057F00000034FF02C0283F836204FF000037B6249
:1058000024E041F65003C2F200031B781A464FF021
:1058100001017B6A01FA03F39BB213409BB2FB8345
:10582000FA8B7B6A42FA03F3FB837B6A03F137024C
:10583000FB8BDBB203F13003D9B241F69033C2F2F5
:10584000000399547B6A03F101037B627B6A022B9C
:10585000D7DD41F69033C2F200034FF02C0283F8FB
:105860003A204FF000037B6224E041F65103C2F27C
:1058700000031B781A464FF001017B6A01FA03F31B
:105880009BB213409BB2FB83FA8B7B6A42FA03F311
:10589000FB837B6A03F13B02FB8BDBB203F130033A
:1058A000D9B241F69033C2F2000399547B6A03F1F6
:1058B00001037B627B6A022BD7DD41F69033C2F293
:1058C00000034FF0000283F83E2041F69033C2F20D
:1058D00000034FF0550283F83F2040F25D03C2F20F
:1058E00000034FF000021A7041F69030C2F200003F
:1058F0004FF0400100F00CF84FF0020005F03CFAC8
:105900004FF0020005F038FAFEF7BEFAB2E500BF2C
:1059100080B588B000AF7860396041F6B423C2F238
:1059200000031B68002B6DD140F60022C0F6010277
:1059300007F10C0307CA03C31A8003F102034FEAFD
:1059400012421A7005F08EFA07F10C0340F2BC0007
:10595000C2F2000019464FF0030208F0B7FD0346FB
:10596000FB77FB7F002B11D007F10C0340F2BC004A
:10597000C2F2000019464FF00A0208F0A7FD0346E4
:10598000FB77FB7F002B01D0FB7F3FE040F2BC03A5
:10599000C2F20003DB6840F2BC00C2F2000019460C
:1059A00009F076F90346FB77FB7F002B01D0FB7FE4
:1059B0002CE03A6807F1180340F2BC00C2F2000084
:1059C000796808F0E9FE0346FB77FB7F002B01D0E6
:1059D000FB7F1BE040F2BC00C2F2000009F082F83D
:1059E0000346FB77FB7F002B01D0FB7F0EE040F2EC
:1059F000BC00C2F2000009F035F90346FB7705F060
:105A000043FA02E04FF00003FB77FB7F184607F1F3
:105A10002007BD4680BD00BF80B584B000AF4FF009
:105A20000003FB6068E002F0D7FB0346FB604FF029
:105A3000050005F0A1F94FF000004FF0000104F05F
:105A400005F940F60C20C0F6010004F0ABF84FF069
:105A5000050005F091F940F2016040F29A01C2F2AE
:105A6000000109F0F9FF40F29A03C2F200031B881B
:105A70001A4607F104031046194602F0E1FF07F148
:105A80000403184640F27401C2F200014FF0040210
:105A90004FF0080302F034FA4FF001004FF0050117
:105AA00004F0D4F84FF41053C4F201031A6C07F158
:105AB00004031046194602F0C3FF07F10403184619
:105AC00004F070F84FF00A0005F056F94FF00100AD
:105AD0004FF0000104F0BAF800F0D2F94FF00A00DC
