:020000040800F2
:10000000FC1F0020090B0008690B0008690B0008A1
:10001000690B0008690B0008690B0008000000006C
:100020000000000000000000000000008DB5000886
:10003000690B00080000000061B600089DB60008CA
:10004000690B0008690B0008690B0008690B0008C0
:10005000690B0008690B0008613000087D3000085A
:1000600099300008690B0008690B0008690B00084B
:10007000690B0008690B0008F92900080D2A00081F
:10008000690B0008690B0008690B000800000000FC
:10009000000000000000000000000000C530000863
:1000A0001D440008554500087D450008690B0008FF
:1000B000690B0008C9420008690B0008690B0008B9
:1000C000690B0008690B0008690B0008690B000840
:1000D000690B000865210008690B0008690B00081E
:1000E000A5300008690B0008690B0008000000003B
:1000F0000000000000000000000000000000000000
:1001000000000000000000000000000000000000EF
:100110000000000000000000690B0008690B0008E7
:100120005FF808F180B485B000AF786039600023D3
:10013000FB817B681B88FB817A682E4B9A4213D027
:100140007A682D4B9A420FD07B68B3F1804F0BD069
:100150007A682A4B9A4207D07A68294B9A4203D090
:100160007A68284B9A4208D1FB8923F07003FB81FF
:100170003B685A88FB891343FB817A68224B9A4279
:100180000CD07A68214B9A4208D0FB8923F4407343
:10019000FB813B68DA88FB891343FB817B68FA8922
:1001A0001A803B689A887B689A853B681A887B68C6
:1001B0001A857A680F4B9A420FD07A680E4B9A4292
:1001C0000BD07A68124B9A4207D07A68114B9A4248
:1001D00003D07A68104B9A4204D13B681B7A1A46C6
:1001E0007B681A867B6801229A821437BD465DF8C7
:1001F000047B7047002C01400034014000040040A3
:1002000000080040000C00400010004000140040B6
:1002100000400140004401400048014080B485B0E6
:1002200000AF7860396000237B810023FB810023CD
:10023000BB817B681B8C9BB223F001039AB27B6865
:100240001A847B681B8CFB817B689B88BB817B68E5
:100250001B8B7B817B8923F070037B817B8923F05F
:1002600003037B813B681A887B8913437B81FB896D
:1002700023F00203FB813B681A89FB891343FB814E
:100280003B685A88FB891343FB817A68244B9A4266
:100290000FD07A68234B9A420BD07A68224B9A424D
:1002A00007D07A68214B9A4203D07A68204B9A4251
:1002B00023D1FB8923F00803FB813B685A89FB8922
:1002C0001343FB81FB8923F00403FB813B689A887D
:1002D000FB891343FB81BB8923F48073BB81BB89FA
:1002E00023F40073BB813B689A89BB891343BB81AC
:1002F0003B68DA89BB891343BB817B68BA899A80E2
:100300007B687A891A833B68DA887B689A867B687F
:10031000FA891A841437BD465DF8047B704700BF24
:10032000002C0140003401400040014000440140E5
:100330000048014080B485B000AF78603960002388
:100340007B810023FB810023BB817B681B8C9BB2DC
:1003500023F010039AB27B681A847B681B8CFB81A4
:100360007B689B88BB817B681B8B7B817B8923F4AB
:10037000E0437B817B8923F440737B813B681B884E
:100380001B029AB27B8913437B81FB8923F02003F4
:10039000FB813B681B891B019AB2FB891343FB81DC
:1003A0003B685B881B019AB2FB891343FB817A6827
:1003B000224B9A4203D07A68214B9A422BD1FB8977
:1003C00023F08003FB813B685B891B019AB2FB89A8
:1003D0001343FB81FB8923F04003FB813B689B882F
:1003E0001B019AB2FB891343FB81BB8923F4806311
:1003F000BB81BB8923F40063BB813B689B899B0065
:100400009AB2BB891343BB813B68DB899B009AB2DC
:10041000BB891343BB817B68BA899A807B687A89E0
:100420001A833B68DA887B681A877B68FA891A84A2
:100430001437BD465DF8047B704700BF002C0140B7
:100440000034014080B485B000AF7860396000238B
:100450007B810023FB810023BB817B681B8C9BB2CB
:1004600023F480739AB27B681A847B681B8CFB81AF
:100470007B689B88BB817B689B8B7B817B8923F01E
:1004800070037B817B8923F003037B813B681A889F
:100490007B8913437B81FB8923F40073FB813B68D9
:1004A0001B891B029AB2FB891343FB813B685B8863
:1004B0001B029AB2FB891343FB817A68224B9A4252
:1004C00003D07A68214B9A422BD1FB8923F4006335
:1004D000FB813B685B891B029AB2FB891343FB815A
:1004E000FB8923F48063FB813B689B881B029AB2E3
:1004F000FB891343FB81BB8923F48053BB81BB89F8
:1005000023F40053BB813B689B891B019AB2BB89D2
:100510001343BB813B68DB891B019AB2BB89134340
:10052000BB817B68BA899A807B687A899A833B68A9
:10053000DA887B689A877B68FA891A841437BD4603
:100540005DF8047B704700BF002C0140003401407F
:1005500080B485B000AF786039600023BB81002390
:100560007B810023FB817B681B8C9BB223F480532F
:100570009AB27B681A847B681B8C7B817B689B8822
:10058000FB817B689B8BBB81BB8923F4E043BB81F0
:10059000BB8923F44073BB813B681B881B029AB262
:1005A000BB891343BB817B8923F400537B813B6868
:1005B0001B891B039AB27B8913437B813B685B8851
:1005C0001B039AB27B8913437B817A68124B9A4250
:1005D00003D07A68114B9A420AD1FB8923F48043F5
:1005E000FB813B689B899B019AB2FB891343FB818A
:1005F0007B68FA899A807B68BA899A833B68DA8833
:100600007B68A3F840207B687A891A841437BD463A
:100610005DF8047B704700BF002C014000340140AE
:1006200080B584B000AF786039600023FB8101237E
:10063000BB813B685B88002B02D10223FB8101E078
:100640000023FB813B689B88012B02D10223BB81E5
:1006500001E00123BB813B681B88002B1CD13B6858
:1006600059883B689A883B681B89786800F06EF966
:100670003B68DB887868194600F002F93B681B8903
:10068000F989BA89786800F0CBF93B68DB8878682B
:10069000194600F011F91BE03B6859883B689A88BD
:1006A0003B681B89786800F0BBF93B68DB88786899
:1006B000194600F001F93B681B89F989BA89786805
:1006C00000F044F93B68DB887868194600F0D8F8F8
:1006D0001037BD4680BD00BF80B483B000AF7860E6
:1006E0007B684FF6FF729A807B6800221A807B68D5
:1006F0000022DA807B6800225A807B6800221A720E
:100700000C37BD465DF8047B704700BF80B483B0F2
:1007100000AF78607B6800221A807B6800225A80D4
:100720007B6800229A807B680022DA807B68002246
:100730001A817B6800225A817B6800229A817B683B
:100740000022DA810C37BD465DF8047B704700BF9C
:1007500080B483B000AF78600B46FB70FB78002B51
:1007600008D07B681B889BB243F001039AB27B6878
:100770001A8007E07B681B889BB223F001039AB2C2
:100780007B681A800C37BD465DF8047B704700BF5C
:1007900080B483B000AF786013460A467A807B70DD
:1007A0007B78002B08D07B689B899AB27B881343A7
:1007B0009AB27B689A8109E07B689B899AB27B88B0
:1007C000DB439BB213409AB27B689A810C37BD46DB
:1007D0005DF8047B704700BF80B485B000AF7860DF
:1007E0000B467B800023FB817B681B89FB81FB8997
:1007F00023F07003FB81FA897B881343FB817B68BC
:10080000FA891A811437BD465DF8047B704700BF32
:1008100080B483B000AF78600B467B807B681B8917
:100820009BB223F007039AB27B681A817B681B890D
:100830009AB27B8813439AB27B681A810C37BD4603
:100840005DF8047B704700BF80B483B000AF786070
:100850000B467B807B681B899BB223F080039AB296
:100860007B681A817B681B899AB27B8813439AB292
:100870007B681A810C37BD465DF8047B704700BF6A
:1008800080B483B000AF78600B467B807B681B8BA5
:100890009BB223F00C039AB27B681A837B681B8B94
:1008A0009AB27B8813439AB27B681A830C37BD4691
:1008B0005DF8047B704700BF80B483B000AF786000
:1008C0000B467B807B681B8B9BB223F440639AB200
:1008D0007B681A837B681B8B9AB27B881B029BB256
:1008E00013439AB27B681A830C37BD465DF8047BCC
:1008F000704700BF80B483B000AF78607B689B8E88
:100900009BB218460C37BD465DF8047B704700BFAC
:1009100080B483B000AF78607B681B8F9BB21846B1
:100920000C37BD465DF8047B704700BF80B483B0D0
:1009300000AF78600B467B807B88DB439AB27B6894
:100940001A820C37BD465DF8047B704780B487B0CF
:1009500000AFF86079813A81FB800023BB820023DD
:10096000FB82FB681B8C9BB223F001039AB2FB68ED
:100970001A84FB681B8BBB82FB681B8CFB82BB8AC7
:1009800023F0F303BB82FB881B019AB23B8913431C
:100990009AB2BB8A1343BB82FA681C4B9A4213D0AB
:1009A000FA681B4B9A420FD0FB68B3F1804F0BD013
:1009B000FA68184B9A4207D0FA68174B9A4203D04C
:1009C000FA68164B9A420BD1FB8A23F00203FB8292
:1009D0007A89FB8A13439BB243F00103FB820AE04E
:1009E000FB8A23F00A03FB827A89FB8A13439BB2BA
:1009F00043F00103FB82FB68BA8A1A83FB68FA8A18
:100A00001A841C37BD465DF8047B7047002C0140FA
:100A1000003401400004004000080040000C004089
:100A200080B487B000AFF86079813A81FB80002301
:100A3000BB820023FB8200237B82FB681B8C9BB262
:100A400023F010039AB2FB681A84FB681B8BBB82ED
:100A5000FB681B8CFB827B891B017B82BB8A23F496
:100A600040731B051B0DBB82FB881B039AB2BB8A1C
:100A70001343BB823B891B029AB2BB8A1343BB82DE
:100A8000FA681C4B9A4213D0FA681B4B9A420FD05B
:100A9000FB68B3F1804F0BD0FA68184B9A4207D02D
:100AA000FA68174B9A4203D0FA68164B9A420BD158
:100AB000FB8A23F02003FB827A8AFB8A13439BB2D2
:100AC00043F01003FB820AE0FB8A23F0A003FB82C1
:100AD0007A89FB8A13439BB243F01003FB82FB68C5
:100AE000BA8A1A83FB68FA8A1A841C37BD465DF8F5
:100AF000047B7047002C014000340140000400409A
:100B000000080040000C004080B582B000AF114BDF
:100B10007B60114B3B6007E03B681A1D3A607A68C6
:100B2000111D796012681A603A680C4B9A42F3D32F
:100B30000B480C494FF000028842B8BF40F8042B24
:100B4000FFF6FAAF00F014F807F0C8FB0837BD460F
:100B500080BD00BF60F300080000002048000020B6
:100B600048000020FC1B002080B400AFFEE700BF5F
:100B700080B500AF164B164A126842F001021A60A7
:100B8000134A134B5968134B0B405360104A104BD8
:100B90001B6823F0847323F4803313600C4B0C4ADE
:100BA000126822F480221A60094B094A526822F422
:100BB000FE025A60064B4FF41F029A60044B00225B
:100BC000DA6200F00BF8044B4FF000629A6080BDCF
:100BD000001002400000FFF800ED00E080B500AF1B
:100BE00000F002F880BD00BF80B483B000AF0023E6
:100BF0007B6000233B60304B2F4A126842F4803206
:100C00001A602D4B1B6803F400333B607B68013393
:100C10007B603B68002B03D17B68B3F5A06FF0D1FC
:100C2000254B1B6803F00203002B02D001233B601D
:100C300001E000233B603B68012B37D11E4B1E4A6D
:100C400052685A601C4B1C4A52685A601A4B1A4A26
:100C500052685A60184B184A526822F47C125A6043
:100C6000154B154A526842F498125A60124B124AB8
:100C7000126842F080721A6000BF0F4B1B6803F0CD
:100C80000073002BF9D00C4B0B4A526822F0030280
:100C90005A60094B084A526842F002025A6000BF8B
:100CA000054B5B6803F00C03082BF9D10C37BD46EC
:100CB0005DF8047B704700BF0010024080B485B02F
:100CC00000AF0346FB710D4B1B889BB2FB60FB79A9
:100CD000002B04D1FB6843F03803FB6005E0FB68A0
:100CE00023F0380343F00803FB60044BFA6892B228
:100CF0001A801437BD465DF8047B70470030014010
:100D000080B483B000AF0346FB710C37BD465DF87D
:100D1000047B704780B400AF01231846BD465DF8E0
:100D2000047B704780B582B000AF0346FB71FB794E
:100D30009BB20A4819460CF0A7FE00BF07480121E4
:100D40000CF0BEFE0346002BF8D004480CF0AAFEBF
:100D50000346DBB218460837BD4680BD003001406F
:100D600080B500AFFF20FFF7DDFF0346184680BDCA
:100D700080B582B000AF0A4B32221A60FFF7F0FF55
:100D8000FFF7EEFF0346FB71FB79FF2B03D0044B0B
:100D90001B68002BF4D1FB7918460837BD4680BD8F
:100DA0004C00002080B500AF03484FF4004100F034
:100DB00099FEFFF7D5FF80BD0008014080B590B0D7
:100DC00000AF0346B9607A60FB734FF6FF733B8256
:100DD000384B7B610023FB6200233B6300237B6273
:100DE0007B683B6200237B634FF44053BB6300236B
:100DF000FB6331480CF02AFC30480CF027FCFB7BED
:100E0000002B19D0BB68BB610023FB618023BB6250
:100E100007F11403284819460CF0D4FC07F110031D
:100E2000BB611023FB610023BB6207F1140323485D
:100E300019460CF0C7FC18E007F11003BB61002352
:100E4000FB610023BB6207F114031B4819460CF039
:100E5000B9FCBB68BB611023FB618023BB6207F157
:100E60001403164819460CF0ADFC134801210CF090
:100E7000E7FC124801210CF0E3FC11480321012298
:100E80000CF0DEFD00BF20200CF0F6FC0346002B2A
:100E9000F9D0094800210CF0D3FC084800210CF0DF
:100EA000CFFC0748032100220CF0CAFD4037BD46A5
:100EB00080BD00BF0C3001401C00024030000240E9
:100EC0000030014080B500AF494B494A926942F079
:100ED00001029A61464B464A926942F004029A61C5
:100EE000434B434A926942F008029A61414801210A
:100EF00000F014FE0120012100F010FE3E4B3E4A9E
:100F0000526842F040525A603B4B3B4A526822F0D2
:100F100040425A60384B4FF400421A61374B374A0F
:100F2000126842F440521A60344B344A126822F478
:100F300040421A60314B314A126842F400421A6052
:100F40002E4B2E4A126822F440321A602B4B2B4A49
:100F5000126822F440221A60284B284A126842F490
:100F600000221A60254B10221A61244B234A126872
:100F700042F440121A60214B204A126822F44002C7
:100F80001A601E4B1D4A126842F400021A60184B88
:100F9000174A926942F480529A61194B00229A8052
:100FA000174B04221A80164B154A128892B242F04F
:100FB000380292B21A80124B114A128892B242F44D
:100FC000807292B21A800E4B0D4A128892B242F48D
:100FD000007292B21A800A4B094A128892B242F009
:100FE000400292B21A800120012108F057FD80BD15
:100FF000001002400002300000080140000C0140D7
:101000000030014080B582B000AF194B1B78DBB2D5
:1010100003F00103002B08D116484FF4004100F003
:101020006FFDFFF7A5FEFFF7BDFE13480CF0AEFC09
:10103000114800210CF0E4FC4FF48050002108F02E
:101040004BFD3823BB802823FB713B1D0B48194601
:1010500000F078FC0020FFF753FE054B1B78DBB255
:1010600043F00103DAB2024B1A700837BD4680BD67
:10107000140000200008014000300140000C014035
:1010800080B584B000AF78603960104B0A221A60D6
:10109000FFF766FE0346FB73FB7BFF2B03D10B4B75
:1010A0001B68002BF4D1FB7BFE2B01D0002309E051
:1010B000012079683A68FFF781FEFFF751FEFFF7DC
:1010C0004FFE012318461037BD4680BD4800002062
:1010D00080B584B000AF78600B46FB70FFF748FE28
:1010E0000346FF2B01D000231EE0FB781846FFF7D4
:1010F00019FEFB78FD2B16D0002079684FF40072A2
:10110000FFF75CFEFF20FFF70DFEFF20FFF70AFE52
:10111000FFF726FE0346FB73FB7B03F01F03052B43
:1011200001D0002300E0012318461037BD4680BDE2
:1011300080B584B000AF03463960FB71FB795BB2C8
:10114000002B0EDAFB7903F07F03FB71772000217F
:10115000FFF7EEFF0346BB73BB7B012B01D9BB7BC3
:1011600051E02B484FF4004100F0BCFC28484FF4FC
:10117000004100F0C5FCFFF7FBFD0346FF2B01D04B
:10118000FF2340E0FB791846FFF7CCFD3B681B0EC0
:10119000DBB21846FFF7C6FD3B681B0CDBB21846F6
:1011A000FFF7C0FD3B681B0ADBB21846FFF7BAFD2C
:1011B0003B68DBB21846FFF7B5FD0123FB73FB79F3
:1011C000402B01D19523FB73FB79482B01D1872359
:1011D000FB73FB7B1846FFF7A5FDFB794C2B01D178
:1011E000FFF7BEFD0A23FB73FFF7BAFD0346BB738F
:1011F000BB7B5BB2002B05DAFB7B013BFB73FB7B0C
:10120000002BF1D1BB7B18461037BD4680BD00BF17
:101210000008014090B585B000AF0346FB71FB7933
:10122000002B01D00123C1E0624B1B78DBB203F03D
:101230000203002B03D05F4B1B78DBB2B6E0FFF755
:1012400041FE0020FFF73AFD0A23FB7304E0FFF79D
:1012500087FDFB7B013BFB73FB7B002BF7D100235E
:101260007B7340200021FFF763FF0346012B40F012
:101270008480514B64221A6048204FF4D571FFF7E7
:1012800057FF0346012B4DD10023FB730CE0FC7B81
:10129000FFF766FD03461A4607F11003234403F8DF
:1012A000082CFB7B0133FB73FB7B032BEFD9BB7A51
:1012B000012B62D1FB7AAA2B5FD100BF3E4B1B688A
:1012C000002B07D0E9204FF08041FFF731FF0346A4
:1012D000002BF3D1384B1B68002B4ED07A20002115
:1012E000FFF726FF0346002B47D10023FB730CE0DA
:1012F000FC7BFFF735FD03461A4607F11003234434
:1013000003F8082CFB7B0133FB73FB7B032BEFD92A
:101310003B7A03F04003002B01D00C2300E00423B0
:101320007B732AE0E9200021FFF702FF0346012B2F
:1013300004D802237B73E923BB7303E001237B738F
:101340004123BB7300BF1C4B1B68002B07D0BB7B2A
:1013500018460021FFF7ECFE0346002BF3D1164B95
:101360001B68002B07D050204FF40071FFF7E0FE00
:101370000346002B01D000237B73104B7A7B1A703D
:10138000FFF710FD7B7B002B0BD00A4B1B78DBB2E9
:1013900023F00103DAB2074B1A700120FFF78EFC2D
:1013A00001E0FFF72FFE034B1B78DBB21846143722
:1013B000BD4690BD140000204800002050000020D1
:1013C00080B483B000AF0346FB71FB79002B01D0E2
:1013D000012302E0044B1B78DBB218460C37BD46F4
:1013E0005DF8047B704700BF1400002080B584B016
:1013F00000AFB9607A600246FA73BB73FB7B002BC7
:1014000002D1BB7B002B01D104234FE0294B1B7879
:10141000DBB203F00103002B01D0032346E0264B8F
:101420001B7803F00803002B02D17B685B027B6012
:10143000BB7B012B11D151207968FFF779FE034660
:10144000002B2BD1B8684FF40071FFF719FE03464B
:10145000002B23D00023BB7320E052207968FFF7D4
:1014600067FE0346002B19D1B8684FF40071FFF7EF
:1014700007FE034683F00103DBB2002B00D009E036
:10148000BB6803F50073BB60BB7B013BBB73BB7BDD
:10149000002BE9D14C200021FFF74AFEFFF782FC28
:1014A000BB7B002B0CBF00230123DBB21846103797
:1014B000BD4680BD140000205000002080B584B0DF
:1014C00000AFB9607A600246FA73BB73FB7B002BF6
:1014D00002D1BB7B002B01D1042369E0364B1B7882
:1014E000DBB203F00103002B01D0032360E0324B99
:1014F0001B78DBB203F00403002B01D0022357E07A
:101500002E4B1B7803F00803002B02D17B685B0293
:101510007B60BB7B012B10D158207968FFF708FE58
:101520000346002B3CD1B868FE21FFF7D1FD0346EE
:10153000002B35D00023BB7332E0204B1B7803F027
:101540000603002B04D0BB7BD7201946FFF7F0FD24
:1015500059207968FFF7ECFD0346002B20D1B868CD
:10156000FC21FFF7B5FD034683F00103DBB2002B3E
:1015700000D009E0BB6803F50073BB60BB7B013B97
:10158000BB73BB7B002BEAD10020FD21FFF7A0FD40
:10159000034683F00103DBB2002B01D00123BB73B0
:1015A000FFF700FCBB7B002B0CBF00230123DBB249
:1015B00018461037BD4680BD1400002050000020A2
:1015C00090B58BB000AF0B463A600246FA71BB7122
:1015D0003B683B62FB79002B01D00423ADE1012382
:1015E00087F82730BB79052B28D13B6A1B78012B64
:1015F0000ED0022B12D0002B1BD1FFF78BFB034622
:10160000002B01D0FFF7FEFC002387F8273014E001
:10161000FFF758FC002387F827300EE03B6A5C1C7C
:10162000FFF778FB0346DBB22370002387F82730EF
:1016300003E0042387F827307DE17CE1B84B1B7879
:10164000DBB203F00103002B01D0032375E1BB796A
:101650000E2B00F26B8101A252F823F099160008BC
:10166000B716000863170008731700082D19000843
:101670002D1900082D1900082D1900082D19000832
:101680002D1900085B1800086B1800089118000855
:10169000B7180008F7180008A2484FF4004100F0FE
:1016A0002FFAFFF765FB0346FF2B03D1002387F8D2
:1016B00027303EE13DE149200021FFF739FD034697
:1016C000002B4DD107F10C0318461021FFF7D8FC71
:1016D0000346002B44D03B7B9B09DBB2012B0DD191
:1016E0007B7D1A463B7D1B029BB213449BB20133A8
:1016F000FB83FB8B9A023B681A602DE07B7C03F036
:101700000F03DAB2BB7DDB09DBB21344DAB27B7DB7
:1017100003F00303DBB25B00DBB21344DBB2023342
:1017200087F826303B7D9B09DBB21A46FB7C9B0089
:101730009BB213449AB2BB7C03F003039BB29B029F
:101740009BB213449BB20133FB83FA8B97F826308C
:10175000093B9A403B681A60002387F82730E8E08D
:10176000E7E03B684FF400721A80002387F82730C7
:10177000DFE06D4B1B7803F00403002B2BD0CD2052
:101780000021FFF7D5FC0346002B65D1FFF7E8FAEF
:1017900007F10C0318461021FFF772FC0346002BDB
:1017A0005AD0302387F8263006E0FFF7D9FA97F8A9
:1017B0002630013B87F8263097F82630002BF4D1ED
:1017C000BB7D1B09DBB210229A403B681A600023E4
:1017D00087F82730ADE049200021FFF7A9FC034638
:1017E000002B39D107F10C0318461021FFF748FCF4
:1017F0000346002B30D04C4B1B7803F00203002B28
:1018000012D0BB7D03F03F035A00FB7DDB09DBB246
:1018100013445A1C7B7E9B09DBB2013B02FA03F3A3
:101820001A463B681A6013E0BB7D03F07C039B10F3
:101830009BB20133FA7D02F00302D100FA7D520916
:10184000D2B20A44013202FB03F31A463B681A6023
:10185000002387F827306CE06BE0334B1A783B6A43
:101860001A70002387F8273063E049200021FFF732
:101870005FFC0346002B0AD1386A1021FFF700FCF9
:101880000346002B03D0002387F8273051E050E0B7
:101890004A200021FFF74CFC0346002B0AD1386A8E
:1018A0001021FFF7EDFB0346002B03D0002387F840
:1018B00027303EE03DE07A200021FFF739FC034667
:1018C000002B17D1042387F826300BE03C6A631CF9
:1018D0003B62FFF745FA0346237097F82630013B39
:1018E00087F8263097F82630002BEFD1002387F8B1
:1018F00027301EE01DE0CD200021FFF719FC034634
:10190000002B0CD1FFF72CFA386A4021FFF7B8FB07
:101910000346002B03D0002387F8273009E008E0B6
:10192000140000200008014050000020042387F824
:101930002730FFF737FA97F8273018462C37BD467F
:1019400090BD00BF80B489B000AF786039600023DB
:10195000FB6100233B610023BB610023FB6000238C
:101960007B610023BB603B68DB7803F00F03FB6106
:101970003B68DB7803F01003002B04D03B689B78B6
:10198000FA691343FB613B681B88DBB2002B44D030
:101990007B681B687B610023BB6138E0BB69012267
:1019A00002FA03F3FB603B681B881A46FB6813408E
:1019B0003B613A69FB689A4226D1BB699B00FB6098
:1019C000FB680F2202FA03F3BB60BB68DB437A6952
:1019D00013407B61FB68FA6902FA03F37A691343E7
:1019E0007B613B68DB78282B05D1BB6901229A40DB
:1019F0007B685A6108E03B68DB78482B04D1BB69FF
:101A000001229A407B681A61BB690133BB61BB69E3
:101A1000072BC3D97B687A691A603B681B88FF2B48
:101A200046D97B685B687B610023BB613AE0BB6998
:101A30000833012202FA03F3FB603B681B881A4655
:101A4000FB6813403B613A69FB689A4227D1BB6946
:101A50009B00FB60FB680F2202FA03F3BB60BB68CC
:101A6000DB437A6913407B61FB68FA6902FA03F38E
:101A70007A6913437B613B68DB78282B05D1BB690E
:101A8000083301229A407B685A613B68DB78482B17
:101A900005D1BB69083301229A407B681A61BB6992
:101AA0000133BB61BB69072BC1D97B687A695A6076
:101AB0002437BD465DF8047B704700BF80B483B017
:101AC00000AF78607B684FF6FF721A807B68022255
:101AD0009A707B680422DA700C37BD465DF8047B8F
:101AE000704700BF80B483B000AF78600B467B8046
:101AF0007A887B681A610C37BD465DF8047B7047B5
:101B000080B483B000AF78600B467B807A887B68B6
:101B10005A610C37BD465DF8047B704780B487B0CE
:101B200000AF78600B46FB7000233B610023FB6035
:101B300000237B610023BB607B68002B03DA2E4B04
:101B4000DB697B6102E02C4B5B687B617B6803F4A3
:101B500070231B0CBB607B689BB23B617B6803F40A
:101B60004013B3F5401F0AD17B6923F070637B619A
:101B7000214B214A526822F070625A6021E07B6852
:101B800003F48013002B0ED0BB68032202FA03F388
:101B9000FB60FB68DB437A6913407B617B6943F040
:101BA00070637B610DE07B685B0D1B013A6902FA93
:101BB00003F3DB437A6913407B617B6943F0706315
:101BC0007B61FB78002B08D07B685B0D1B013A69B9
:101BD00002FA03F37A6913437B617B68002B03DA13
:101BE000054B7A69DA6102E0034B7A695A601C3767
:101BF000BD465DF8047B70470000014080B483B0AF
:101C000000AF0346FB71084B97F907205209F97999
:101C100001F01F01012000FA01F143F822100C37F6
:101C2000BD465DF8047B704700E100E080B582B0FE
:101C300000AF0346FB711A4B1B78002B10D1194BD8
:101C40001B785A1CD1B2174A1170F979164AA2FBB7
:101C500001025209D2B23032D1B2144AD1540FE04B
:101C6000104B1B785A1CD1B20E4A1170F9790E4AEA
:101C7000A2FB01025209D2B23032D1B20C4AD15485
:101C8000FB79094AA2FB03125209642101FB02F20B
:101C90009B1ADBB2184606F0B7F80837BD4680BD80
:101CA00091000020900000201F85EB517000002063
:101CB0008000002080B584B000AF0023FB730023B8
:101CC000BB7300237B7300233B7300237B810023C2
:101CD0007B6000233B6007F0A3FB6A4807F06EF9C6
:101CE0004FF4FA7008F04CF832E005F097FF034625
:101CF000FB730020002107F097F9634807F05EF9B5
:101D0000624B1B689BB2184600F0D2F9604807F09E
:101D100055F95E4B5B689BB2184600F0C9F901208B
:101D2000002107F081F90A2008F02AF8594807F045
:101D300045F9564B9B689BB2184600F0B9F95648D6
:101D400007F03CF9514BDB689BB2184600F0B0F944
:101D5000FB7B002BC9D007F063FBFB7B013B7B7354
:101D60000023FB734D4807F029F9BB7B184604F0AC
:101D700089FE0346BB73BB7B184601F0A1F807F050
:101D80004FFB474807F01AF93B7B184604F07AFEF0
:101D900003463B737A7B3D4B53F822307B6007F060
:101DA0003FFB404807F00AF9BB7B184600F0C0FF34
:101DB0000023FB7317E00A2007F0E2FF05F02EFF77
:101DC0000346FB7307F02CFB374807F0F7F80120B8
:101DD000002107F029F97A7B2C4B53F822309BB273
:101DE000184600F065F9FB7B022BE4D17A7B274B88
:101DF00053F822303B60BB7B184601F061F8C820E5
:101E000007F0BEFF3B689AB27B689BB2D31A9BB2C5
:101E10001A463B7B92FBF3F37B817A7B234B7989D8
:101E200023F8121007F0FCFA214807F0C7F83B68C6
:101E30009BB2184600F03CF90120002107F0F4F8AD
:101E40001C4807F0BBF87B89184600F031F97B8904
:101E500040F2426019460CF0B9F80023FB7306E02B
:101E60000A2007F08DFF05F0D9FE0346FB73FB7BCC
:101E7000022BF5D107F0D4FAC82007F081FF103704
:101E8000BD4680BD88E6000894E60008781800206A
:101E900098E600089CE60008A0E60008A4E6000812
:101EA000B4E60008C4E60008D4E60008FC1A0020E6
:101EB000E4E60008ECE6000880B584B000AF134605
:101EC0000246FA710A46BA71BB800023FB60BB88E8
:101ED000104A128802FB03F20F4BA3FB0213DB082C
:101EE000FB600023FB72002000F022FFBA790B4B4D
:101EF000002143F8221002E00A2007F041FF074BBF
:101F00001A68FB689A42F7D3002000F0D9FF103717
:101F1000BD4680BDFC1A0020CDCCCCCC781800206A
:101F200080B586B000AF13460246FA710A46BA7110
:101F3000BB8000233B610023FB600023BB600023C8
:101F4000FB8200237B7507F06BFA4F4807F036F8E9
:101F500006E00A2007F014FF05F060FE03467B75DB
:101F60007B7D002BF5D07B7D022B01D1FFF7A2FEFC
:101F700001233B7580E007F053FA444807F01EF850
:101F8000434B1B88184600F093F8FB8A184605213E
:101F900004F012FE0346FB82FB8A3D4A128802FBD4
:101FA00003F23C4BA3FB0213DB083B6107F038FA5A
:101FB000394807F003F83B699BB2184600F078F8FF
:101FC0000120002107F030F8344806F0F7FFBA7915
:101FD000334B53F82220324B53F822309BB2184631
:101FE00000F066F800237B75002000F0A1FEBA79AE
:101FF0002B4B002143F822101BE00A2007F0C0FE03
:1020000007F00EFA274806F0D9FFBA79244B53F8A7
:1020100022309BB2184600F04BF80120002107F057
:1020200003F8214806F0CAFF3B699BB2184600F04E
:102030003FF81B4B1A683B699A42DED3002000F040
:102040003FFF07F0EDF9194806F0B8FF06E00A2057
:1020500007F096FE05F0E2FD03467B757B7D002BC5
:10206000F5D07B7D022B05D101233B750C4B002263
:102070001A6001E000233B753B7D012B3FF47BAFF1
:102080001837BD4680BD00BFF4E6000804E700082D
:10209000FC1A0020CDCCCCCC10E7000818E70008D3
:1020A000781800201CE7000824E7000828E700084B
:1020B00080B582B000AF0346FB80FA88164BA3FBC5
:1020C00002135B0B9BB2DBB2184605F09DFEFB884A
:1020D000114AA2FB0312520B42F2107101FB02F2F1
:1020E0009B1A9AB20D4BA3FB02135B099BB2DBB2A6
:1020F000184605F089FEFB88084AA2FB0312520924
:10210000642101FB02F29B1A9BB2DBB2184605F078
:102110007BFE0837BD4680BD5917B7D11F85EB51EF
:1021200080B485B000AF396013460246FA71BB71C6
:102130000023FB730023FB7309E0FB7B3A68134425
:102140001A78FB795340FB71FB7B0133FB73FA7BFD
:10215000BB799A42F1D3FB7918461437BD465DF836
:10216000047B704780B500AF5C4B1B88062B02D9FF
:102170005A4B00221A805A4840F2255108F082FC3E
:102180000346002B18D0564808F05CFC0346DAB230
:10219000544B1A70514B1B885A1C91B24F4A1180F4
:1021A000504A1178504AD1544D4B4D4A128892B240
:1021B00022F0200292B21A80494B494A128892B208
:1021C00022F0400292B21A80484B1B78002B17D0A5
:1021D000474B1A78474B1B789A4211D2404A444BDE
:1021E0001B78591CC8B2424908704349CB5C9380A4
:1021F0003B4B3B4A128892B222F0400292B21A80C4
:102200003E4B1B78002B67D13D4B1B78042B32D102
:102210003C4B1B78002B03D1324B1A783A4B1A7087
:10222000384B1B785A1CD1B2364A11702D4A11789E
:10223000364AD154334B1A78334B1B789A421AD111
:10224000314B1B78302031491A46FFF769FF0346AE
:102250001A462F4B1A702E4B1B78002B03D1274B9D
:1022600001221A7001E000F095F8254B00221A7047
:10227000244B00221A701B4B1B785A2B03D1254B81
:1022800001221A7028E0174B1B78582B07D1214BDD
:102290001B78012B03D11F4B02221A701CE01D4B2F
:1022A0001B78022B18D10F4B1B78302B11D00D4B04
:1022B0001B78312B03D1124B03221A7009E0094B12
:1022C0001B78322B05D10E4B04221A700D4B0022C5
:1022D0001A70104B00221A7080BD00BF5C000020F5
:1022E00000380140F61A0020281B00205900002069
:1022F0005A00002019000020501B0020C1000020BF
:10230000C0000020BE000020BF0000208C1800206C
:10231000C2000020BD00002080B582B000AF786010
:102320000A4B1B78012B04D100F04EF8074B00221A
:102330001A700A2007F024FD054B1B78012B01D1F0
:1023400000F008F80A2007F01BFDE9E7C1000020B3
:102350005900002080B500AF0A4BDA780A4B1A709A
:102360000A4B00221A7002E0052007F009FD074B16
:102370001A78054B1B789A42F6D3054B00221A7047
:1023800080BD00BF501B0020190000205A00002013
:102390005900002080B483B000AF0023FB710023FC
:1023A000FB7106E0FB79074A0021D154FB79013328
:1023B000FB71FB790F2BF5D90C37BD465DF8047B1B
:1023C000704700BF8C18002080B500AF574B5B787A
:1023D0000C2B00F2A88001A252F823F0112400086F
:1023E00035240008472400084F240008572400081B
:1023F000632400086F2400087B2400088724000859
:102400009B240008AD240008B72400080325000819
:10241000464B9978454BDA78444B1B791B0298B2AE
:10242000424B5B7903449BB2084611461A46FFF7BC
:1024300043FD78E03D4B9A783C4BDB7810461946DB
:1024400004F09EF96FE03A4B33221A706BE0384B80
:1024500030221A7067E0354B9B78184600F068FC14
:1024600061E0324B9B78184600F02AFD5BE02F4B71
:102470009B78184600F06AFA55E02C4B9B7818467A
:1024800000F05CF84FE02A4B1B78332B04D1274B2C
:102490009A78284B1A7046E045E0244B9A78234BF3
:1024A000DB781046194601F09DFD3CE01F4B9A7801
:1024B000214B1A7037E01F4B00221A701C4B33223D
:1024C0001A701C4B00221A700020002104F058F9E9
:1024D0000120002104F054F90220002104F050F9F9
:1024E0000320002104F04CF9022000F0E9FC032055
:1024F00000F0E6FC002000F0E3FC012000F0E0FC2E
:1025000011E00A4B9B781A02084BDB7813441A023D
:10251000064B1B7913441A02044B5B79134418468B
:1025200005F0E6F900BFFFF735FF80BD8C180020ED
:10253000180000201C0000203C1B002080B584B047
:1025400000AF0346FB71944B5A221A70924B5822EB
:102550005A70914B33229A708F4B1822DA70FB79A4
:10256000012B61D18D4B1A788B4B1A718C4B1B68E8
:10257000DAB2894B5A718B4B1B68DAB2864B9A716F
:10258000894B1A78844BDA71884B1B68DAB2824B1C
:102590001A72874B1A78804B5A72864B1A787E4B88
:1025A0009A72844B5A787C4BDA72824B9A787A4BC7
:1025B0001A73804BDA78784B5A737F4B1B8B9BB224
:1025C000DAB2754B9A737C4B1B8B9BB21B0A9BB286
:1025D000DAB2714BDA73784B9B8B9BB2DAB26E4BEB
:1025E0001A74754B9B8B9BB21B0A9BB2DAB26A4B77
:1025F0005A74724B1B88DAB2674B9A746F4B1B8804
:102600001B0A9BB2DAB2644BDA746C4B5B88DAB2A9
:10261000614B1A75694B5B881B0A9BB2DAB25E4B41
:102620005A755D4BFA799A75FB79022B45D105F005
:102630004DF9F860604B1B8B9BB2DAB2564B1A71A6
:102640005D4B1B8B9BB21B0A9BB2DAB2524B5A7189
:10265000594B9B8B9BB2DAB24F4B9A71564B9B8B6B
:102660009BB21B0A9BB2DAB24B4BDA71544B1B88FC
:10267000DAB2494B1A72524B1B881B0A9BB2DAB270
:10268000454B5A724E4B5B88DAB2434B9A724C4BB5
:102690005B881B0A9BB2DAB23F4BDA72484B9B88CD
:1026A000DAB23D4B1A73464B9B881B0A9BB2DAB2D7
:1026B000394B5A73384BFA799A73FB79032B38D11B
:1026C000404B9B68DAB2344B1A713E4B9B681B0A35
:1026D000DAB2314B5A713B4B9B681B0CDAB22E4B72
:1026E0009A71384B9B681B0EDAB22B4BDA71364B62
:1026F0009B68DAB2284B1A72334B9B681B0ADAB21A
:10270000254B5A72304B9B681B0CDAB2224B9A72E3
:102710002D4B9B681B0EDAB21F4BDA72254B9A7851
:102720001D4B1A73234BDA781B4B5A731A4BFA79E9
:102730009A73FB79042B62D1244B1A78164B1A71C9
:10274000234B1A78144B5A71224B1B789B00DAB238
:10275000214B1B781344DAB20F4B9A711F4B1B8825
:10276000DAB20D4BDA711E4B1B881B0A9BB2DAB230
:10277000094B1A72084B00225A721A4B1A78064BF0
:102780009A72194B1B88DAB2034BDA72164B1B880C
:102790001B0A9BB2DAB229E0501B0020180000206F
:1027A000F81A002088180020201B0020481B002059
:1027B0009D180020A01B002000280040681B00205E
:1027C000801B002000080140000C0140B4000020E4
:1027D000B5000020B7000020B6000020921B0020AA
:1027E0001E1B00209C180020FC1A00204E4B1A7360
:1027F0004E4B1A784C4B5A734B4BFA799A73FB79C0
:10280000052B39D14A4B1B88DAB2474B1A71484B1A
:102810001B881B0A9BB2DAB2434B5A71444B5B884C
:10282000DAB2414B9A71424B5B881B0A9BB2DAB217
:102830003D4BDA713F4B1B68DAB23B4B1A723D4B92
:102840001B681B0ADAB2384B5A723A4B1B681B0CD6
:10285000DAB2354B9A72374B1B681B0EDAB2324B29
:10286000DA72354B1A78304B1A73304B1A782E4B7C
:102870005A732D4BFA799A73FB79062B3DD12C4B69
:102880001B88DAB2284B1A71294B1B881B0A9BB292
:10289000DAB2254B5A71264B5B88DAB2224B9A7119
:1028A000234B5B881B0A9BB2DAB21F4B5A71214B38
:1028B0005B68DAB21C4B1A721E4B5B681B0ADAB2F9
:1028C000194B5A721B4B5B681B0CDAB2164B9A728F
:1028D000184B5B681B0EDAB2134BDA72174B5B882E
:1028E000DAB2114B1A73154B5B881B0A9BB2DAB232
:1028F0000D4B5A730C4BFA799A7300200A49172230
:10290000FFF70EFC03461A46074BDA75064BDA78DA
:102910000B4B1A700B4B00221A700B4B01221A70D2
:102920001037BD4680BD00BF501B0020041B002097
:10293000681B0020781800203C1B0020FC1A002097
:10294000190000205A0000205900002080B584B0F2
:1029500000AF78600023FB730023BB8100237B81E1
:10296000204BDAB2204B1A70204BDAB21E4B5A7051
:102970001F4BDAB21C4B9A701B4B0D22DA707B682E
:10298000DAB2194B1A710023FB7321E07B6803F55F
:10299000B8735A00FB7B13449BB25B00BB81BA89BE
:1029A00007F10A03104619460BF0C4FAFB7B5B00E3
:1029B00005330D4A0021D154FB7B03335B007A8938
:1029C000D2B25242D1B2084AD154FB7B0133FB73DD
:1029D000FB7B032BDAD9074B01221A701037BD4657
:1029E00080BD00BF30E70008501B002034E700081E
:1029F00038E700085900002080B400AF024B1B6884
:102A0000BD465DF8047B70470000024080B400AF13
:102A1000024B1B68BD465DF8047B70470000024016
:102A200080B586B000AF0120012107F037F82523DB
:102A30003B7500237B750023BB750123FB754FF4A9
:102A400000733B820323BB741823FB7407F110034C
:102A500023481946FEF776FF4FF480633B82042338
:102A6000FB7407F110031E481946FEF76BFF1D4863
:102A700007F0B2FE4FF48040012107F02DF84FF42B
:102A800016533B600023BB800023FB8000233B8167
:102A90000023BB810C237B813B461248194607F07B
:102AA000F7FE10484FF4587107F0DCFF0D4B0D4A4C
:102AB000928992B242F0200292B29A81094B094A5D
:102AC000928992B242F0400292B29A810548012165
:102AD00007F098FF2520FFF791F81837BD4680BD15
:102AE000000801400038014080B584B000AF4FF4C9
:102AF000B873BB812823FB7307F10C030348194605
:102B0000FEF720FF1037BD4680BD00BF0008014022
:102B100080B588B000AF1020012106F0DDFF022053
:102B2000012106F0F7FF07F11C031846FEF7C6FF68
:102B30004FF47073BB830323BB771823FB7707F134
:102B40001C0320481946FEF7FDFE1F480121FEF731
:102B5000E5FF07F110031846FDF7BEFD4FF40073C3
:102B6000FB8240F2E733BB82EF233B8207F1100385
:102B700016481946FDF7D6FA3B461846FDF7C6FD3E
:102B800001237B8060233B800023FB803B460F4872
:102B90001946FDF743FB3B460C481946FDF7CAFBB7
:102BA0003B460A481946FDF74DFC3B460748194687
:102BB000FDF7CEFC05480121FDF7CAFD2037BD46D3
:102BC00080BD00BF00100140000C1A00000400404E
:102BD00080B582B000AF06F023FC0023FB80002309
:102BE0007B7100233B7106F01BFC2D4806F0E6F9D3
:102BF0003B1D40F2446019460BF09CF93B791846A6
:102C000003F040FF03463B713B7940F244601946B4
:102C10000BF0DCF903F018FA0A2007F0B1F806F01F
:102C2000FFFB204806F0CAF91CE004F0F7FF03465A
:102C30007B711D4B1B88FB80052007F0A1F801204C
:102C4000002106F0F1F9FA88184BA3FB02135B0987
:102C50009BB2DBB2184605F0D7F8FB88DBB218460A
:102C600005F0D2F87B79022BDFD10A2007F088F833
:102C7000FB8840F2226019460BF0A8F903F0E4F952
:102C80004FF4FA6007F07CF8094806F097F9002342
:102C90007B7106F0C5FB05F037FC0837BD4680BDEB
:102CA0003CE700084CE70008681B00201F85EB513B
:102CB00060E7000880B582B000AF0023BB8000232E
:102CC000FB713B1D40F2446019460BF033F9BB88A1
:102CD000FB71114B1B7803F002035B10012B18D121
:102CE000FB79032B15D80D4B1B881A460C4B1B8800
:102CF00002339A4203DDFB79184600F019F8074BBE
:102D00001A88074B1B889A4203D2FB79184600F0B9
:102D1000D7F80837BD4680BD1C000020681B002086
:102D2000B41B002080B400AFBD465DF8047B704743
:102D300080B584B000AF0346FB71012007F020F896
:102D40000023FB725A4B1B781A46FB7942FA03F3B5
:102D5000DBB203F00103FB72FB7A002B40F0A5808D
:102D6000FB79012202FA03F3DAB2514B1B78DBB292
:102D70001343DBB2DAB24E4B1A700023BB7200234E
:102D80007B720023FB734B4B9A68FB7901339B00EA
:102D900022FA03F3DBB203F00103BB72FB790122D9
:102DA00002FA03F3DAB2444B1B78DBB21340DBB216
:102DB0007B727A7AFB7942FA03F37B72BB7A002B3F
:102DC00044D17B7A002B41D1FB79002B02D0FB79D7
:102DD000012B3BD1FB79184600F016F94FF416731E
:102DE000BB8119E0334B9A68FB7901339B0022FACF
:102DF00003F3DBB203F00103BB72BB7A012B03D1F7
:102E0000FB7B0133FB7301E00023FB73012006F021
:102E1000B7FFBB89013BBB81FB7B022B02D8BB897F
:102E2000002BDFD1BB89002B0CD1FB79012202FAE8
:102E300003F3DAB2204B1B78DBB21343DBB2DAB216
:102E40001D4B1A70FB79184600F0F4F8FB79022B41
:102E500002D0FB79032B09D1164B164A5169FA7936
:102E60000B32012000FA02F20A435A61FB79012277
:102E700002FA03F3DAB2114B1B78DBB21343DBB275
:102E8000DAB20E4B1A70052006F07AFFFB790122A8
:102E900002FA03F3DBB2DB43DAB2054B1B78DBB299
:102EA0001340DBB2DAB2024B1A701037BD4680BD58
:102EB00058000020000801403C1B0020201B00207F
:102EC00080B584B000AF0346FB710023FB724A4B10
:102ED0001B781A46FB7942FA03F3DBB203F00103D5
:102EE000FB72FB7A002B40F08480FB79184600F0DF
:102EF0008BF80023FB730023BB7200237B724FF41B
:102F00001673BB813D4B9A68FB7901339B0022FA13
:102F100003F3DBB203F00103BB72FB79012202FA77
:102F200003F3DAB2364B1B78DBB21340DBB27B72B1
:102F30007A7AFB7942FA03F37B72BB7A012B26D1B2
:102F40007B7A002B23D1FB79002B02D0FB79012B5C
:102F50001DD116E0294B9A68FB7901339B0022FAB8
:102F600003F303F00103002B03D1FB7B0133FB735D
:102F700001E00023FB73012006F002FFBB89013B47
:102F8000BB81FB7B022B02D8BB89002BE2D1FB79F2
:102F9000184600F04FF8FB79022B02D0FB79032B87
:102FA00009D1164B154A1169FA790B32012000FA42
:102FB00002F20A431A61FB79012202FA03F3DBB23F
:102FC000DB43DAB20F4B1B78DBB21340DBB2DAB271
:102FD0000C4B1A70FB79012202FA03F3DBB2DB43DC
:102FE000DAB2054B1B78DBB21340DBB2DAB2024B2C
:102FF0001A701037BD4680BD5800002000080140FF
:103000003C1B0020201B002080B483B000AF03468F
:10301000FB71074B064A5169FA790B32012000FA1D
:1030200002F20A435A610C37BD465DF8047B7047D3
:103030000008014080B483B000AF0346FB71074B2A
:10304000064A1169FA790B32012000FA02F20A43AA
:103050001A610C37BD465DF8047B704700080140DB
:1030600080B500AF012006F0AFFD034B1B685A1C72
:10307000014B1A6080BD00BF7818002080B500AFFA
:10308000022006F0A1FD034B5B685A1C014B5A60FD
:1030900080BD00BF7818002080B500AF042006F086
:1030A00093FD80BD80B500AF4FF4806006F08CFDCD
:1030B0004FF4006006F088FD4FF4805006F084FD68
:1030C00080BD00BF80B500AF202006F07DFD402010
:1030D00006F07AFD802006F077FD80BD80B582B0D5
:1030E00000AF0023FB710023BB7100237B7106F04E
:1030F00097F974E0142006F043FE04F08FFD0346B8
:10310000FB710020002105F08FFF394805F056FFC4
:10311000BB79184604F078FEFB79042B03D1BB7908
:103120001846FFF705FEFB79032B03D1BB79184640
:10313000FFF7C6FEFB79012B08D1BB79012B03D821
:10314000BB790133BB7101E00023BB71012006F0A4
:1031500017FE0120002105F067FF264805F02EFF2D
:10316000254B1B78184604F04FFE012006F008FEA0
:10317000224805F023FF224B9B6803F01003002B2D
:1031800003D0204805F01AFF02E01F4805F016FFA3
:103190001B4B9B6803F02003002B03D0194805F05C
:1031A0000DFF1CE0184805F009FF154B9B6803F064
:1031B0004003002B03D0134805F000FF02E0124843
:1031C00005F0FCFE0E4B9B6803F48073002B03D0CC
:1031D0000C4805F0F3FE02E00B4805F0EFFEFB792A
:1031E000022B87D106F01CF90837BD4680BD00BF11
:1031F0006CE7000878E70008201B00207CE7000847
:103200000008014084E7000838E7000880B582B074
:1032100000AF0023FB710223BB7100237B7106F01A
:10322000FFF86EE0142006F0ABFD04F0F7FC034657
:10323000FB710020002105F0F7FE364805F0BEFEC8
:10324000BB79184604F0E0FDFB79042B0DD1324B1D
:10325000314A1169BA790B32012000FA02F20A43AD
:103260001A61BB791846FFF7CFFEFB79032B0DD10E
:10327000294B294A5169BA790B32012000FA02F22E
:103280000A435A61BB791846FFF7D4FEFB79012B3C
:1032900008D1BB79032B03D8BB790133BB7101E0A3
:1032A0000223BB71012006F06BFD0120002105F017
:1032B000BBFE1A4805F082FE194B1B78184604F035
:1032C000A3FD012006F05CFD164805F077FE124BC9
:1032D000DB6803F40053002B03D0134805F06EFEA7
:1032E00002E0124805F06AFE0B4BDB6803F48043F2
:1032F000002B03D00C4805F061FE02E00B4805F0FE
:103300005DFEFB79022B8DD106F08AF80837BD46A9
:1033100080BD00BF6CE700080008014078E70008A6
:10332000201B00207CE7000884E7000838E700083D
:1033300080B582B000AF0023FB710023BB71002376
:103340007B7100233B7100237B8006F069F87FE0EE
:10335000142006F015FD04F061FC0346FB7100200B
:10336000002105F061FE414B1B887B807B88DBB22E
:10337000184604F049FD3D4B5B887B807B88DBB2BF
:10338000184604F041FD3A4805F018FE394B9B8C75
:103390007B807B881846FEF78BFEFB79042B02D1DD
:1033A0000120FFF7C5FCFB79012B05D10120FFF7B8
:1033B00041FE0120FFF784FD012006F0E1FC012021
:1033C000002105F031FE2C4B1B78184604F01CFD43
:1033D0002A4805F0F3FD00233B80294B9B685B09DD
:1033E0003B803B881846FEF763FE264805F0E6FD65
:1033F000012006F0C5FC224B9B685B0903F001032A
:10340000002B03D0204805F0D9FD02E01F4805F04D
:10341000D5FD1B4B9B689B0903F00103002B03D0D8
:10342000194805F0CBFD02E0184805F0C7FD144B24
:103430009B68DB0903F00103002B03D0124805F061
:10344000BDFD02E0114805F0B9FD114805F0B6FDDB
:10345000FB79022B7FF47CAF05F0E2FFFFF73EFE25
:10346000FFF7D4FE0837BD4680BD00BF681B0020B3
:1034700088E7000800480140201B00208CE7000876
:103480000008014090E7000884E7000838E70008DA
:1034900094E7000880B586B000AF78600023BB8257
:1034A00000237B817B689BB21B019BB203F21463F8
:1034B000BB82BA8A07F10A03104619460AF03AFDA0
:1034C00005F0AEFF954805F079FD7B89184603F0BD
:1034D00023FB03467B817B89BA8A104619460AF092
:1034E00075FD7B689BB21B019BB203F21563BB8227
:1034F000BA8A07F10A03104619460AF01BFD05F0C7
:103500008FFF874805F05AFD7B89184603F004FBBE
:1035100003467B817B89BA8A104619460AF056FD1C
:103520007B689BB21B019BB203F21663BB82BA8A13
:1035300007F10A03104619460AF0FCFC05F070FF7B
:10354000784805F03BFD7B89184603F0E5FA034611
:103550007B817B89BA8A104619460AF037FD07F14C
:103560000A0340F6990019460AF0E4FC05F058FFFA
:103570006D4805F023FD7B89DBB2184603F082FA23
:1035800003467B817B8940F6990019460AF01EFDAF
:103590007B89DAB2654B1A707B8903F2FF53BB82D9
:1035A000BB8A184646210AF011FD7B89604A4621F4
:1035B000D1547B689BB21B019BB203F21E63BB829A
:1035C000BA8A07F10A03104619460AF0B3FC05F05F
:1035D00027FF584805F0F2FC7B89DBB2184603F060
:1035E00051FA03467B817B89BA8A104619460AF054
:1035F000EDFC7B8903F2FF53BB82BB8A184647214F
:103600000AF0E4FC7B894A4A4721D1547B689BB28B
:103610001B019BB203F21763BB82BA8A07F10A034C
:10362000104619460AF086FC05F0FAFE424805F0FD
:10363000C5FC7B89184603F06FFA03467B817B89C2
:10364000BA8A104619460AF0C1FC7B689BB21B017E
:103650009BB203F5C363BB82BB8A184604F0FCFD32
:10366000386105F0DDFE354805F0A8FC4FF4FA702E
:1036700006F086FB386903F0F7FA3861BB8A184612
:10368000396903F0B3F87B689BB21B019BB203F26C
:103690002263BB82BA8A07F10A03104619460AF070
:1036A00049FC05F0BDFE264805F088FC4FF4FA7091
:1036B00006F066FB7B89184603F02EFA03467B81F1
:1036C0007B89BA8A104619460AF080FC7B689BB257
:1036D0001B019BB203F21F63BB82BA8A07F10A0384
:1036E000104619460AF026FC05F09AFE154805F02A
:1036F00065FC7B89DBB2184603F0C4F903467B8185
:103700007B89BA8A104619460AF060FC05F088FEEB
:103710000D4805F053FC0023FB751EE098E70008F8
:10372000A8E70008BCE70008D0E70008D41A00208A
:1037300020000020E4E70008F4E7000804E800089F
:1037400018E8000828E8000834E8000804F066FAE1
:103750000346FB750A2006F013FBFB7D002BF5D01A
:10376000FB7D022B20D17B689BB21B019BB203F235
:103770001A63BB8204F0AAF8F860BB8A1846F9689D
:1037800003F034F87B689BB21B019BB203F21C630D
:10379000BB8204F09BF802463B69D31A0533BA8A10
:1037A0001046194603F022F8FB7D032B1ED105F0CD
:1037B00037FE244805F002FC4FF47A7006F0E0FA78
:1037C0007B689BB21B019BB203F21A63BB82BB8A6C
:1037D000184604F041FDF860F868012103F032FC5E
:1037E000F860BB8A1846F96803F000F805F018FE87
:1037F000154805F0E3FB4FF47A7006F0C1FA7B68D8
:1038000062339BB21B01BB82BB8A184604F024FDC5
:10381000F860F868012103F015FCF860BB8A1846CF
:10382000F96802F0E3FF05F0FBFDC82006F0A8FAF6
:1038300006F008FB04F068FE06F012FB1837BD46E0
:1038400080BD00BF44E8000850E8000880B582B0A1
:1038500000AF0023FB7105F0E3FD094805F0AEFB66
:10386000C82006F08DFAFB79184603F00BF90346E1
:10387000FB71FB79184600F021F80837BD4680BD82
:103880005CE8000880B582B000AF0023FB7105F052
:10389000C7FD094805F092FBC82006F071FAFB79D4
:1038A000184603F0EFF80346FB71FB791846FFF763
:1038B000F1FD0837BD4680BD5CE8000880B584B0E6
:1038C00000AF78600023FB810023BB817B689BB243
:1038D0001A46D200D31A9BB203F24563FB81FA89E0
:1038E00007F10C03104619460AF024FB05F098FD79
:1038F000604805F063FBBB89184603F00DF90346E9
:10390000BB81BB89FA89104619460AF05FFB7B68C8
:103910009BB21A46D200D31A9BB203F24663FB81D4
:10392000FA8907F10C03104619460AF003FB05F06B
:1039300077FD514805F042FBBB89184603F0ECF8CF
:103940000346BB81BB89FA89104619460AF03EFB43
:103950007B689BB21A46D200D31A9BB203F247632C
:10396000FB81FA8907F10C03104619460AF0E2FAC6
:1039700005F056FD414805F021FBBB89184603F0D0
:10398000CBF80346BB81BB89FA89104619460AF079
:103990001DFB7B689BB21A46D200D31A9BB203F57B
:1039A000C963FB81FA8907F10C03104619460AF036
:1039B000C1FA05F035FD324805F000FBBB89184619
:1039C00003F0AAF80346BB81BB89FA891046194661
:1039D0000AF0FCFA7B689BB21A46D200D31A9BB25B
:1039E00003F24963FB81FA8907F10C03104619467B
:1039F0000AF0A0FA05F014FD224805F0DFFABB89B1
:103A0000184603F089F80346BB81BB89FA89104642
:103A100019460AF0DBFA7B689BB21A46D200D31A29
:103A20009BB203F24A63FB81FA8907F10C0310464B
:103A300019460AF07FFA05F0F3FC134805F0BEFAC8
:103A4000BB89184603F068F80346BB810A2006F0DC
:103A500097F9BB89FA89104619460AF0B7FA05F0BA
:103A6000DFFC0A2006F08CF904F04EFD1037BD464D
:103A700080BD00BF68E800087CE800088CE800080A
:103A80009CE80008A8E80008B8E8000890B585B0F0
:103A900000AF0023BB730023FB7305F0C1FC2F486C
:103AA00005F08CFAC82006F06BF9BB7B184602F0D3
:103AB000E9FF0346BB7305F0B3FC294805F07EFA25
:103AC000BB7B184604F0A0F9264805F077FA06E01B
:103AD0001E2006F055F904F0A1F80346FB73FB7BAA
:103AE000022B02D0FB7B032BF2D1C82006F048F951
:103AF000FB7B022B29D1BB7B1B0103F5C363BB609E
:103B0000BB689BB2184604F0A7FB7860BB7B1B0127
:103B100003F21A63BB6003F0D9FE3860BB689BB246
:103B20001846396802F062FEBB7B1B0103F21C637E
:103B3000BB60BB689CB203F0C9FE02467B68D31A27
:103B400005332046194602F051FE05F069FCC820F5
:103B500006F016F91437BD4690BD00BF5CE80008BA
:103B6000C4E80008D0E8000880B58EB000AF7860E7
:103B700001227B6802FA03F3DAB2984B1B78DBB2BE
:103B80001343DBB2DAB2954B1A700120FFF798F9B4
:103B900000233B82002387F8363000233B63002359
:103BA000BB620023FB600023FB62012006F0E8F803
:103BB0007B689BB21B019BB203F21463FB84FA8CFB
:103BC00007F11403104619460AF0B4F97B689BB25A
:103BD0001B019BB203F21663FB84FA8C07F10C0302
:103BE000104619460AF0A6F903F070FE3863FB6828
:103BF0003A6B1344BB62052006F0C2F80020FFF7C1
:103C000097F818E003F062FE3863BB8A012202FADB
:103C100003F3DAB2724B1B78DBB21340DBB287F8E6
:103C2000363097F83620BB8A42FA03F387F83630ED
:103C3000192006F0A5F897F83630002B03D13A6B1F
:103C4000BB6A9A42DED30020FFF73AF94FF47A704C
:103C500006F096F8002387F837307AE000237B815E
:103C600000233B620023FB610023BB617B689BB2A6
:103C70001B019BB203F5C363FB84FB8C184604F065
:103C8000EBFAF8617B689BB21B019BB203F21A63EB
:103C9000FB84FB8C184604F0DFFAB86197F83730E4
:103CA0009BB21A46D200D31A9BB203F24963FB843B
:103CB000FA8C07F10A03104619460AF03BF903F0A3
:103CC00005FE0246BB69D21AFB69B2FBF3F33B6205
:103CD0007B893A6AB2FBF3F3FB7500233B8197F8CB
:103CE00037309BB21A46D200D31A9BB203F5C96390
:103CF000FB84FA8C07F11203104619460AF01AF9F0
:103D000097F837309BB21A46D200D31A9BB203F20F
:103D10004A63FB84FA8C07F10803104619460AF03F
:103D200009F97B8A1A467B689A420AD13B89012BA2
:103D300007D1FB7D002B04D197F83730184600F0EF
:103D4000CFF80A2006F01CF897F83730013387F8CF
:103D5000373097F83730082B80D97B689BB21B012E
:103D60009BB203F21763FB84FA8C07F10C03104635
:103D700019460AF0DFF87B689BB21B019BB203F285
:103D80001E63FB84FA8C07F11003104619460AF0F3
:103D9000D1F80A2005F0F4FF03F098FD386303F032
:103DA00095FD0246FB681344BB620A2005F0E8FF5C
:103DB0007B689BB21B019BB203F21563FB84FA8CF8
:103DC00007F11403104619460AF0B4F8002387F8E7
:103DD0003730012387F8363047E000BF9D180020B8
:103DE000041B00200A2005F0CBFFBB8A012202FA47
:103DF00003F3DAB2374B1B78DBB21340DBB287F840
:103E0000363097F83620BB8A42FA03F387F836300B
:103E1000314B1B68DBB203F0010387F8373003F046
:103E200055FD0246FB6A9A420DD997F83730012BAF
:103E300009D197F83630012B05D13B6B01333B6339
:103E400003F044FDF862052005F09AFF3B8ADAB2E0
:103E500097F8371097F836300B40DBB203F00103C8
:103E6000DBB21046194602F08BFC3A6BBB6A9A42F1
:103E7000B8D33B8ADBB21846002102F081FC0A204D
:103E800005F07EFF0120FEF753FF7B689BB21B010C
:103E90009BB203F21C63FB8403F018FD0346FA8C0B
:103EA0001046194602F0A2FC01227B6802FA03F3D5
:103EB000DBB2DB43DAB2094B1B78DBB21340DBB277
:103EC000DAB2064B1A70C82005F05AFF3837BD46E3
:103ED00080BD00BF041B0020881800209D18002012
:103EE00080B586B000AF786000237B617B689BB2B1
:103EF0001A46D200D31A9BB203F246637B827A8AB7
:103F000007F11003104619460AF014F87B689BB2BB
:103F10001A46D200D31A9BB203F245637B827A8A97
:103F200007F10E03104619460AF004F87B689BB2AD
:103F30001A46D200D31A9BB203F247637B827A8A75
:103F400007F10C031046194609F0F4FF03F0BEFC1C
:103F500002463B8A13447B61FB89DBB21846012190
:103F600000F040F802E00A2005F00AFF03F0AEFC82
:103F700002467B699A42F6D3FB89DBB218460021E0
:103F800000F030F8BB89184600F004F81837BD4639
:103F900080BD00BF80B584B000AF0346FB80002326
:103FA000FB6003F093FC0246FB881344FB600C4B60
:103FB0001B781846012102F0E3FB02E00A2005F01D
:103FC000DFFE03F083FC0246FB689A42F6D3044B03
:103FD0001B781846002102F0D3FB1037BD4680BD88
:103FE000D41A002080B483B000AF02460B46FA71A9
:103FF000BB71BB79012B0DD1FB79012202FA03F3CE
:10400000DAB22D4B1B78DBB21343DBB2DAB22A4BA8
:104010001A700EE0FB79012202FA03F3DBB2DB43F4
:10402000DAB2254B1B78DBB21340DBB2DAB2224B9B
:104030001A70BB79C3F10103BB71FB79002B0AD164
:104040001E4ABB799BB219464901C91A89000B4423
:10405000DB009BB29386FB79012B0AD1174ABB790F
:104060009BB219464901C91A89000B44DB009BB277
:104070001387FB79022B0AD1104ABB799BB21946F0
:104080004901C91A89000B44DB009BB29387FB7975
:10409000032B0BD1094ABB799BB219464901C91AB6
:1040A00089000B44DB009BB2A2F840300C37BD46C0
:1040B0005DF8047B704700BF9C180020000400409E
:1040C00080B58AB000AF7860002387F826300120E1
:1040D000FEF72EFE0020FEF7F3FE002387F82730C0
:1040E0007EE00A2005F04CFE97F827309BB21B01BA
:1040F0009BB203F21C63BB84BB8C184604F0ACF883
:10410000386203F0E3FBF86197F827309BB21B019C
:104110009BB203F5C363BB84BB8C184604F09CF8C8
:10412000B861FA693B6AD31A7B6197F827309BB272
:104130001B019BB203F21A63BB84BB8C184604F0CC
:104140008BF8386197F8273062339BB21B01BB8430
:10415000BB8C184604F080F8F86097F827309BB2C3
:104160001B019BB203F21F63BB84BA8C07F10B03E4
:104170001046194609F0DEFE0A2005F001FE97F808
:104180002730012202FA03F3DAB2184B1B78DBB2B4
:104190001340DBB287F8263097F8262097F82730AF
:1041A00042FA03F387F826307A69BB699A420FD93D
:1041B000FA693B699A420BD9FA69FB689A4207D2BD
:1041C000FB7A012B04D197F827301846FFF7CCFC77
:1041D0000A2005F0D5FD97F82730013387F82730FE
:1041E00097F82730022B7FF67CAF76E79D180020EA
:1041F00080B582B000AF4FF48030012105F06CFC37
:104200004FF40043BB804823FB710323BB713B1D6C
:104210001F481946FDF796FB1E480121FDF77EFC5D
:1042200018233B7000237B700123BB700123FB70BC
:104230003B46184609F04AFB174B04221A80164BDE
:1042400000225A80144B01229A80134B0022DA80FC
:10425000114B00221A8111480F49FCF7E1F90F4870
:104260006021FCF7B9FA0D480421FCF7D1FA0B489C
:104270008021FCF7E9FA09480121FCF769FA0748AF
:1042800004210122FCF784FA0837BD4680BD00BF37
:10429000000C014001000080881B0020004001400C
:1042A00080B400AF074B074A526822F040425A6080
:1042B000044B044A526842F080525A60BD465DF891
:1042C000047B7047000C014080B500AF48480421D2
:1042D000FCF72CFB4648FCF71BFB03461A46454BF4
:1042E0001A80444B1B889BB2002B18D04048FCF727
:1042F00001FB0346642202FB03F23E4B1B889BB288
:1043000092FBF3F39AB23C4B1A803C4B1A68394B40
:104310001B889BB2B2FBF3F2394B1A6005E0364BB7
:1043200000221A80364B00221A60364B1B7801336C
:10433000DAB2344B1A70334B1A78334B1B789A42EB
:1043400055D9324B1B78002B51D12B4B1B889BB27C
:10435000192B19D9284B1B889BB2222B14D82C4B14
:104360001B782B4A12782B498A5CD1B22A4A1278E0
:10437000012000FA02F2D2B2D243D2B20A40D2B243
:10438000D1B2244AD15411E0214B1B78204A127833
:1043900020498A5CD1B2204A1278012000FA02F248
:1043A000D2B20A43D2B2D1B21A4AD1541A4B1B78B4
:1043B000002B16D1184B07221A70154B1B780133AE
:1043C000DAB2134B1A70124B1B78042B0FD10F4B20
:1043D00001221A700E4B00221A700F4B07221A701E
:1043E00005E00D4B1B78013BDAB20B4B1A7080BD18
:1043F0000004004060000020620000200000002057
:1044000064000020680000201A0000206A000020DC
:10441000B61B0020A01B0020941B002080B500AF1D
:1044200042480421FCF782FA404B1B8F9AB2404B62
:104430001A803F4B1B889BB2002B0ED03B4B9B8EB0
:104440009BB2642202FB03F2394B1B889BB292FBA6
:10445000F3F39AB2374B1A8005E0364B00221A80EC
:10446000354B00221A60354B1B780133DAB2334BDF
:104470001A70324B1A78324B1B789A4255D9314B0D
:104480001B78002B51D12B4B1B889BB2192B19D9B0
:10449000284B1B889BB2222B14D82B4B1B782A4A03
:1044A00012782A498A5CD1B2294A1278012000FA8E
:1044B00002F2D2B2D243D2B20A40D2B2D1B2234A2D
:1044C000D15411E0204B1B781F4A12781F498A5C97
:1044D000D1B21F4A1278012000FA02F2D2B20A4386
:1044E000D2B2D1B2194AD154194B1B78002B16D134
:1044F000174B07221A70144B1B780133DAB2124B98
:104500001A70114B1B78042B0FD10E4B01221A701D
:104510000D4B00221A700E4B07221A7005E00C4B4F
:104520001B78013BDAB20A4B1A7080BD0040014093
:10453000600000206200002064000020680000206D
:104540001A0000206A000020B61B0020A01B0020DB
:10455000941B002080B500AF06480221FCF7E6F965
:10456000044B9B8C9AB2044B5A80024B00229A84D3
:1045700080BD00BF00440140681B002080B500AF33
:1045800009480221FCF7D2F9084B9B6803F4007339
:10459000002B04D1044B9B8C9AB2054B1A80024B22
:1045A00000229A8480BD00BF00480140000C0140F9
:1045B000681B002080B582B000AF192005F0E0FB39
:1045C0000023FB7106E0FB79144A0021D154FB79EA
:1045D0000133FB71FB79042BF5D9114B00221A70C2
:1045E000104B00221A70FFF75BFE0F4B4FF4004296
:1045F0005A61052005F0C4FB0B4B4FF400421A61D1
:10460000FFF7F6FDC82005F0BBFB052005F0B8FB61
:1046100000F00CF80837BD4680BD00BFA01B00208D
:10462000680000206A000020000C014080B500AF47
:104630000A2005F0A5FB644B1B78012B40F0C380DA
:104640000A2005F09DFB614B1B781B029AB25F4B61
:104650005B7813449AB25E4B5A805C4B9B781B028A
:104660009AB25A4BDB7813449AB2594B1A80574B83
:104670005A79574B1A71564B5A88564B1B889A4297
:1046800008D9534B5A88544B1B889A4202D2534B39
:1046900000221A704E4B5A884E4B1B889A4202D207
:1046A0004E4B01221A704A4B5A884B4B1B889A4238
:1046B00002D94A4B02221A700A2005F061FB444BD2
:1046C0001B88474AA2FB031292094FF47A7101FB3F
:1046D00002F29B1A9AB2434BA3FB02135B099BB2F3
:1046E000DBB23033DAB2404B1A70394B1B883D4A8B
:1046F000A2FB03125209642101FB02F29B1A9AB237
:104700003A4BA3FB0213DB089BB2DBB23033DAB2C5
:10471000354B5A70344B2E229A702D4B1A88334BDE
:10472000A3FB0213D9080B469B000B445B00D31A72
:104730009BB2DBB23033DAB22B4BDA700A2005F0D1
:104740001FFB234B5B88264AA2FB031292094FF4FE
:104750007A7101FB02F29B1A9AB2224BA3FB02135D
:104760005B099BB2DBB23033DAB2214B1A70184BC3
:104770005B881C4AA2FB03125209642101FB02F26E
:104780009B1A9AB2194BA3FB0213DB089BB2DBB254
:104790003033DAB2164B5A70154B2E229A700C4BEE
:1047A0005A88124BA3FB0213D9080B469B000B44FB
:1047B0005B00D31A9BB2DBB23033DAB20C4BDA7047
:1047C000014B00221A7080BD6A000020A01B00204F
:1047D000181B0020B81B0020F41A00206C000020D9
:1047E000D34D62101F85EB51A81B0020CDCCCCCC43
:1047F000381B002080B582B000AF0023FB7100237E
:10480000BB713EE01E2005F0BBFA03F007FA034639
:10481000FB710020002104F007FC1E4B1B7818469A
:1048200003F0F2FA1C4804F0C9FBFB79042B05D114
:10483000184B1B780133DAB2164B1A70FB79012B37
:1048400005D1144B1B78013BDAB2124B1A700120D0
:10485000002104F0E9FB114804F0B0FB10481149B5
:104860000422022303F0D8F80120072104F0DCFB26
:104870000D4804F0A3FB0D480A4904220A2303F063
:10488000CBF8FB79022BBDD104F0CAFD0837BD4639
:1048900080BD00BF1A000020D4E80008D8E8000856
:1048A000A81B002080000020DCE80008381B002046
:1048B00080B483B000AF0346FB80FA88094B1B68C5
:1048C000D21A13469B0013445B001A46064B1B6822
:1048D000B2FBF3F3DBB218460C37BD465DF8047B40
:1048E000704700BFA4000020B000002080B483B057
:1048F00000AF0346FB71FB790A4A126802FB03F31F
:10490000094A82FB03129210DB17D31A9AB2074BA3
:104910001B689BB213449BB218460C37BD465DF82A
:10492000047B7047B000002067666666A400002024
:1049300080B582B000AF0023BB800023FB7104F080
:104940006FFD284804F03AFB0A2005F019FA3B1DD8
:1049500040F20460194609F0EDFABB881846FFF7EB
:10496000A7FF0346FB71FB79184600F085F9034663
:10497000FB710A2005F004FAFB791846FFF7B6FF31
:10498000034640F20460194609F020FB04F048FD9C
:10499000154804F013FB0A2005F0F2F93B1D40F224
:1049A0000560194609F0C6FABB881846FFF780FF74
:1049B0000346FB71FB79184600F05EF90346FB7174
:1049C0000A2005F0DDF9FB791846FFF78FFF034653
:1049D00040F20560194609F0F9FA04F021FD0837A4
:1049E000BD4680BDE0E8000860E7000880B584B0FF
:1049F00000AF0346FB710023FB73FB793E4AA3FB28
:104A000002015A1A52080A449209652101FB02F276
:104A10009B1AFB7167E003F001F90346FB73012069
:104A2000032104F001FBFA79344B83FB0213991143
:104A3000D317CB1A4FF47A7101FB03F3D31A304A20
:104A400082FB03125211DB17D31ADBB23B72FB79E4
:104A50002B4AA2FB03125209642101FB02F29B1AAA
:104A6000DAB2284BA3FB0213DB08DBB27B72FA79C4
:104A7000244BA3FB0213D9080B469B000B445B009D
:104A8000D31ADBB2BB72204804F098FA07F108038E
:104A900018461E490322062302F0BEFF01200C2106
:104AA00004F0C2FA1A4804F089FA0A2005F068F9FD
:104AB000FB7B042B08D1FB79632B03D8FB790133F3
:104AC000FB7101E00023FB71FB7B012B08D1FB791B
:104AD000002B02D10023FB7102E0FB79013BFB714B
:104AE0000A2005F04DF9FB7B022B94D1FB79184687
:104AF0001037BD4680BD00BF57866F44D34D62104E
:104B00001F85EB51CDCCCCCCF0E800088000002014
:104B1000F4E8000880B582B000AF0023BB8000231A
:104B2000FB7104F07DFC204804F048FA0A2005F0EF
:104B300027F93B1D40F20760194609F0FBF9BB88D5
:104B4000DBB21846FFF752FF0346FB710A2005F05F
:104B500017F9FB799BB240F20760194609F036FA63
:104B600004F05EFC114804F029FA0A2005F008F967
:104B70003B1D4FF4C160194609F0DCF9BB88DBB27C
:104B80001846FFF733FF0346FB710A2005F0F8F8DB
:104B9000FB799BB24FF4C160194609F017FA04F093
:104BA0003FFC0837BD4680BDF8E8000808E900086A
:104BB00080B582B000AF03463960FB713B68DA1CF8
:104BC000F9792C4BA3FB0103DB08DBB21946490141
:104BD000C91A8900CB1A5B00D9B2FB790B44DBB24E
:104BE0003033DBB21370052005F0CAF8FA79214B97
:104BF000A3FB0213DB08FB713B6802332E221A7001
:104C00003B685A1CF9791B4BA3FB0103DB08DBB2A1
:104C100019464901C91A8900CB1A5B00D9B2FB7940
:104C20000B44DBB23033DBB21370052005F0A8F87B
:104C3000FA79104BA3FB0213DB08FB71FA790D4BD9
:104C4000A3FB0203DB08DBB21A465201D21A920020
:104C5000D31A5B00DAB2FB791344DBB23033DAB239
:104C60003B681A703B68043300221A700837BD464F
:104C700080BD00BFCDCCCCCC80B584B000AF0346A6
:104C8000FB710023FB733EE002F0C8FF0346FB7399
:104C90000120032104F0C8F9FA7907F1080310464E
:104CA0001946FFF785FF1C4804F088F907F108034F
:104CB00018461A490422062302F0AEFE01200C21F8
:104CC00004F0B2F9164804F079F90A2005F058F812
:104CD000FB7B042B08D1FB79FD2B03D8FB79013337
:104CE000FB7101E00023FB71FB7B012B08D1FB79F9
:104CF000002B02D10023FB7102E0FB79013BFB7129
:104D00000A2005F03DF8FB7B022BBDD1FB7918464C
:104D10001037BD4680BD00BFF0E8000880000020CD
:104D2000F4E8000880B58AB000AF786039600023ED
:104D30003B767968AC4BA3FB0123DA0813469B0052
:104D400013445B00CA1AD3B23033DBB2FB757A6806
:104D5000A54BA3FB0213DB087B607968A24BA3FB86
:104D60000123DA0813469B0013445B00CA1AD3B22E
:104D70003033DBB2BB757A689B4BA3FB0213DB08B5
:104D80007B607968984BA3FB0123DA0813469B00EC
:104D900013445B00CA1AD3B23033DBB27B757A6836
:104DA000914BA3FB0213DB087B6079688E4BA3FB5E
:104DB0000123DA0813469B0013445B00CA1AD3B2DE
:104DC0003033DBB23B757A68874BA3FB0213DB08F9
:104DD0007B607968844BA3FB0123DA0813469B00B0
:104DE00013445B00CA1AD3B23033DBB2FB747A6867
:104DF0007D4BA3FB0213DB087B6079687A4BA3FB36
:104E00000123DA0813469B0013445B00CA1AD3B28D
:104E10003033DBB2BB74192004F0B2FF7A68724BF6
:104E2000A3FB0213DB087B6079686F4BA3FB0123B4
:104E3000DA0813469B0013445B00CA1AD3B230331E
:104E4000DBB27B747A68684BA3FB0213DB087B60E0
:104E50007968654BA3FB0123DA0813469B001344D2
:104E60005B00CA1AD3B23033DBB23B747A685E4B54
:104E7000A3FB0213DB087B6079685B4BA3FB012378
:104E8000DA0813469B0013445B00CA1AD3B23033CE
:104E9000DBB2FB737A68544BA3FB0213DB087B6025
:104EA0007968514BA3FB0123DA0813469B00134496
:104EB0005B00CA1AD3B23033DBB2BB737A684A4B99
:104EC000A3FB0213DB087B607968474BA3FB01233C
:104ED000DA0813469B0013445B00CA1AD3B230337E
:104EE000DBB27B737A68404BA3FB0213DB087B6069
:104EF00079683D4BA3FB0123DA0813469B0013445A
:104F00005B00CA1AD3B23033DBB23B737A68364BDC
:104F1000A3FB0213DB087B607968334BA3FB0123FF
:104F2000DA0813469B0013445B00CA1AD3B230332D
:104F3000DBB2FB727A682C4BA3FB0213DB087B60AD
:104F40007968294BA3FB0123DA0813469B0013441D
:104F50005B00CA1AD3B23033DBB2BB727A68224B21
:104F6000A3FB0213DB087B6079681F4BA3FB0123C3
:104F7000DA0813469B0013445B00CA1AD3B23033DD
:104F8000DBB27B727A68184BA3FB0213D908164B6D
:104F9000A3FB0123DA0813469B0013445B00CA1AE3
:104FA000D3B23033DBB23B7200233B6207F108021D
:104FB0003B6A13441B78FB613023FB61192004F02A
:104FC000DFFE08E03B6A01333B6207F108023B6AFF
:104FD00013441B78FB61FB69302BF3D0192004F0DC
:104FE000CFFE3B6A7B620FE0CDCCCCCC7A6A3B6AC9
:104FF000D31A3A68134407F108017A6A0A4412780E
:105000001A707B6A01337B627B6A102BEEDD3B6892
:1050100018462837BD4680BD80B485B000AF7860A3
:105020007B68FA2202FB03F3FB6000BFFB685A1E99
:10503000FA60002BFAD11437BD465DF8047B704747
:1050400080B584B000AF04F0EBF90020002103F03C
:10505000EBFF9548012102F04FF947F23050FFF77E
:10506000DBFF00F0ADFD6420FFF7D6FF8F4B1B8800
:10507000BB800020002103F0D7FF8D48022102F001
:105080003BF947F23050FFF7C7FF00F099FD64206D
:10509000FFF7C2FF854B1B88FB800020002103F037
:1050A000C3FF8448062102F027F947F23050FFF78A
:1050B000B3FF00F085FD6420FFF7AEFF7B4B1B883C
:1050C0003B8104F0ADF97C48012102F015F947F26B
:1050D0003050FFF7A1FF00F073FD6420FFF79CFF45
:1050E000724B1B887B817B89DB089AB2BB88DB080B
:1050F0009BB29A4203D2714B01221A700EE07B8957
:10510000DB089AB2BB88DB089BB29A4203D96B4B8F
:1051100000221A7002E0694B02221A70674B1B785A
:10512000002B54D1FB881A46BB88D31ADA0F1344DC
:105130005B109BB2053BFB81BA88FB895B089BB285
:10514000D31A9AB25E4B1A80BA88FB8913449AB27A
:105150005B4B5A80FA88FB89D31A9AB2584B9A80D3
:105160003B891A46FB88D31ADA0F13445B109BB2B3
:10517000053BFB81FA88FB8913449AB2504BDA80D5
:105180003A89FB89D31A9AB24D4B1A817B891A4608
:105190003B89D31ADA0F13445B109BB2053BFB81AA
:1051A0003A89FB8913449AB2454B5A817A89FB8923
:1051B000D31A9AB2424B9A817A89FB895B089BB2D7
:1051C00013449AB23E4BDA8100F0B4F959E03B4BFC
:1051D0001B78012B50D1BB881A46FB88D31ADA0FF3
:1051E00013445B109BB2053BFB81BA88FB89D31A41
:1051F0009AB2334B1A80BA88FB8913449AB2304B67
:105200005A80FA88FB89D31A9AB22D4B9A80FB8870
:105210001A463B89D31ADA0F13445B109BB2053B45
:10522000FB81FA88FB8913449AB2254BDA803A89CC
:10523000FB89D31A9AB2224B1A813B891A467B8981
:10524000D31ADA0F13445B109BB2053BFB813A89FA
:10525000FB8913449AB21A4B5A817A89FB89D31A73
:105260009AB2174B9A817A89FB8913449AB2144BEC
:10527000DA8100F05FF904E0124803F09FFE00F0CD
:1052800077F90F4B1A880E4B1B8A9A4202D90B4BA7
:1052900001221A700020002103F0C6FE0A4803F024
:1052A0008DFE1037BD4680BDF0E80008801B002051
:1052B00034EF000838EF0008F4E8000892000020FE
:1052C000081B002040EF000850EF000880B582B0B6
:1052D00000AF0023FB7104F0A3F84FF4FA7004F060
:1052E0004FFD5EE002F09AFC0346FB7100200021B6
:1052F00003F09AFE2F4803F061FE2F4B1A882F4BC4
:10530000A3FB02135B099BB2DBB2184602F07CFDE3
:10531000294B1B88DBB2184602F076FD284803F0C3
:105320004DFE254B5A88254BA3FB02135B099BB20C
:10533000DBB2184602F068FD1F4B5B88DBB21846F3
:1053400002F062FD0120002103F06EFE1D4803F013
:1053500035FE194B9A88194BA3FB02135B099BB2CC
:10536000DBB2184602F050FD134B9B88DBB21846A7
:1053700002F04AFD144803F021FE0F4BDA880F4B70
:10538000A3FB02135B099BB2DBB2184602F03CFDA3
:10539000094BDB88DBB2184602F036FD142004F01E
:1053A000EFFCFB79022B9DD104F03AF80837BD469B
:1053B00080BD00BF94E60008801B00201F85EB51D4
:1053C0005CEF00089CE6000860EF000880B582B042
:1053D00000AF0023FB710023BB7104F021F84FF4F0
:1053E000FA7004F0CDFC3BE002F018FC0346FB71C0
:1053F0000020002103F018FE022004F0C1FC00236D
:10540000BB7108E0BB791A4AD35C1846FCF70EFC66
:10541000BB790133BB71BB79042BF3D9012004F0B4
:10542000AFFC0120002103F0FFFD114B5B79184612
:10543000FCF7FCFB0E4B9B791846FCF7F7FB0D487D
:1054400003F0BCFD0C4B1B78184602F0DDFC08484D
:105450000A490722092302F0DFFA142004F090FC25
:10546000FB79022BC0D103F0DBFF0837BD4680BDBE
:10547000281B002090E70008C200002080000020C8
:1054800080B582B000AF0023FB710023BB7103F035
:10549000C7FF4FF4FA7004F073FC3BE002F0BEFB70
:1054A0000346FB710020002103F0BEFD022004F042
:1054B00067FC0023BB7108E0BB791A4AD35C18462D
:1054C000FCF7B4FBBB790133BB71BB79042BF3D977
:1054D000012004F055FC0120002103F0A5FD114B33
:1054E0005B791846FCF7A2FB0E4B9B791846FCF73C
:1054F0009DFB0D4803F062FD0C4B1B78184602F033
:1055000083FC08480A490722092302F085FA14207F
:1055100004F036FCFB79022BC0D103F081FF083781
:10552000BD4680BD501B002090E700085A000020B7
:105530008000002080B582B000AF0023FB710FE037
:10554000FB799BB203F20A639AB2F979074B33F8FD
:1055500011301046194608F039FDFB790133FB7113
:10556000FB79072BECD90837BD4680BD081B00200E
:1055700080B582B000AF0023FB710FE0FB799BB2D6
:1055800003F20A639AB2FB795900074B0B441046A9
:10559000194608F0CFFCFB790133FB71FB79072B2F
:1055A000ECD90837BD4680BD081B002080B58AB005
:1055B00000AF7860962004F0E3FB02F087F93862D0
:1055C000022004F0DDFBA54B1B683A6A9A4240F2C8
:1055D000AE8102F07BF90246A04B1A6007F10C0382
:1055E000386A194602F0F2FC022004F0C9FB0023DD
:1055F0007B620BE007F10C027B6A13441A7898492E
:105600007B6A0B441A707B6A01337B627B6A092BCD
:10561000F0DD022004F0B4FB914B2C229A720220A0
:1056200004F0AEFB04F00EFC00237B6212E07B6A08
:105630000B338C497A6A0A441178894AD1547B6ABF
:10564000103389497A6A0A441178854AD1547B6AB1
:1056500001337B627B6A032BE9DD04F001FC02204D
:1056600004F08EFB7E4B2C22DA737D4B2C221A75B4
:105670000023FB8300237B6219E001227B6A02FA8C
:1056800003F39AB2794B1B689BB21340FB83FA8BEE
:105690007B6A42FA03F3FB837B6A1533FA8BD2B23F
:1056A0003032D1B26E4AD1547B6A01337B627B6A5D
:1056B000022BE2DD6A4B2C221A766D4868490422DF
:1056C000192302F0A9F9664B2C225A7769486449DC
:1056D00004221E2302F0A0F9614B2C2283F8222021
:1056E00000237B621AE0644B1B781A4601217B6A17
:1056F00001FA03F39BB213409BB2FB83FA8B7B6AE4
:1057000042FA03F3FB837B6A2333FA8BD2B2303243
:10571000D1B2534AD1547B6A01337B627B6A022B3C
:10572000E1DD4F4B2C2283F8262000237B621BE017
:10573000524B9B689AB27B6A0433012101FA03F34E
:105740009BB21340FB83FA8B7B6A043342FA03F368
:10575000FB837B6A2733FA8BD2B23032D1B2404A14
:10576000D1547B6A01337B627B6A022BE0DD3C4BC8
:105770002C2283F82A2000237B621AE0404B1B78FE
:105780001A4601217B6A01FA03F39BB213409BB2D4
:10579000FB83FA8B7B6A42FA03F3FB837B6A2B332E
:1057A000FA8BD2B23032D1B22D4AD1547B6A013356
:1057B0007B627B6A022BE1DD294B2C2283F82E20B1
:1057C00000237B621BE02D4BDB689AB27B6A0B33B4
:1057D000012101FA03F39BB21340FB83FA8B7B6A2E
:1057E0000B3342FA03F3FB837B6A2F33FA8BD2B27B
:1057F0003032D1B21A4AD1547B6A01337B627B6A60
:10580000022BE0DD164B2C2283F8322000237B6232
:105810001AE01B4B1B781A4601217B6A01FA03F33D
:105820009BB213409BB2FB83FA8B7B6A42FA03F371
:10583000FB837B6A3333FA8BD2B23032D1B2084A5F
:10584000D1547B6A01337B627B6A022BE1DD044B1E
:105850002C2283F8362000237B622EE0B800002043
:10586000BC1B0020981B0020AC1B0020481B002004
:10587000A81B0020381B0020041B0020000801404A
:10588000201B0020304B1B781A4601217B6A01FA4D
:1058900003F39BB213409BB2FB83FA8B7B6A42FA01
:1058A00003F3FB837B6A3733FA8BD2B23032D1B247
:1058B000264AD1547B6A01337B627B6A022BE1DD8D
:1058C000224B2C2283F83A2000237B621AE0204BE3
:1058D0001B781A4601217B6A01FA03F39BB213403D
:1058E0009BB2FB83FA8B7B6A42FA03F3FB837B6AEE
:1058F0003B33FA8BD2B23032D1B2144AD1547B6AE4
:1059000001337B627B6A022BE1DD104B0D2283F8B1
:105910003E200E4B0A2283F83F200E4B00221A70C5
:105920000A48402100F018F8022004F029FA022069
:1059300004F026FAFEF73EFEFDF7BCF9FDF7F2F99A
:1059400008F098FD39E600BF9C180020BC1B002021
:105950009D1800205E00002080B588B000AF786000
:1059600039602E4B1B68002B51D12D4A07F10C03D7
:1059700007CA03C31A800233120C1A7004F062FAC9
:1059800007F10C0327481946032207F08DF9034657
:10599000FB77FB7F002B0DD007F10C032148194644
:1059A0000A2207F081F90346FB77FB7F002B01D029
:1059B000FB7F2FE01B4BDB681A48194607F0F2FC0F
:1059C0000346FB77FB7F002B01D0FB7F22E03A6888
:1059D00007F118031348796807F0A2FA0346FB772A
:1059E000FB7F002B01D0FB7F14E00E4807F01EFC6C
:1059F0000346FB77FB7F002B01D0FB7F0AE00948C1
:105A000007F0BCFC0346FB7704F02AFA01E0002310
:105A1000FB77FB7F18462037BD4680BDF01A00207B
:105A200064EF0008C400002080B584B000AF0023FC
:105A3000FB6046E002F0F2F80346FB60052004F04C
:105A40009FF90020002103F0EFFA554803F0B6FA61
:105A5000052004F095F940F20160524908F06AFA15
:105A6000504B1B881A463B1D1046194602F094FB0A
:105A70003B1D18464C490422082301F0CDFF0120AC
:105A8000052103F0D1FA494B9B881A463B1D10466D
:105A9000194602F081FB3B1D184603F08FFA0A20DD
:105AA00004F06EF90120002103F0BEFA00F028F99D
:105AB0000A2004F065F93E4803F080FA642004F0FF
:105AC0005FF9FB68022BB5D1384B9B887B817B89C2
:105AD00040F20160194608F079FA0023FB600020CB
