:020000040800F2
:10000000F41F0020090B0008690B0008690B0008A9
:10001000690B0008690B0008690B0008000000006C
:1000200000000000000000000000000081AD00089A
:10003000690B00080000000055AE000891AE0008F2
:10004000690B0008690B0008690B0008690B0008C0
:10005000690B0008690B0008092B0008252B000814
:10006000412B0008690B0008690B0008690B0008A8
:10007000690B0008690B000891240008A5240008FA
:10008000690B0008690B0008690B000800000000FC
:100090000000000000000000000000006D2B0008C0
:1000A000693D0008A13E0008B53E0008690B000844
:1000B000690B0008153C0008690B0008690B000873
:1000C000690B0008690B0008690B0008690B000840
:1000D000690B000821210008690B0008690B000862
:1000E0004D2B0008690B0008690B00080000000098
:1000F0000000000000000000000000000000000000
:1001000000000000000000000000000000000000EF
:100110000000000000000000690B0008690B0008E7
:100120005FF808F180B485B000AF786039600023D3
:10013000FB817B681B88FB817A682E4B9A4213D027
:100140007A682D4B9A420FD07B68B3F1804F0BD069
:100150007A682A4B9A4207D07A68294B9A4203D090
:100160007A68284B9A4208D1FB8923F07003FB81FF
:100170003B685A88FB891343FB817A68224B9A4279
:100180000CD07A68214B9A4208D0FB8923F4407343
:10019000FB813B68DA88FB891343FB817B68FA8922
:1001A0001A803B689A887B689A853B681A887B68C6
:1001B0001A857A680F4B9A420FD07A680E4B9A4292
:1001C0000BD07A68124B9A4207D07A68114B9A4248
:1001D00003D07A68104B9A4204D13B681B7A1A46C6
:1001E0007B681A867B6801229A821437BD465DF8C7
:1001F000047B7047002C01400034014000040040A3
:1002000000080040000C00400010004000140040B6
:1002100000400140004401400048014080B485B0E6
:1002200000AF7860396000237B810023FB810023CD
:10023000BB817B681B8C9BB223F001039AB27B6865
:100240001A847B681B8CFB817B689B88BB817B68E5
:100250001B8B7B817B8923F070037B817B8923F05F
:1002600003037B813B681A887B8913437B81FB896D
:1002700023F00203FB813B681A89FB891343FB814E
:100280003B685A88FB891343FB817A68244B9A4266
:100290000FD07A68234B9A420BD07A68224B9A424D
:1002A00007D07A68214B9A4203D07A68204B9A4251
:1002B00023D1FB8923F00803FB813B685A89FB8922
:1002C0001343FB81FB8923F00403FB813B689A887D
:1002D000FB891343FB81BB8923F48073BB81BB89FA
:1002E00023F40073BB813B689A89BB891343BB81AC
:1002F0003B68DA89BB891343BB817B68BA899A80E2
:100300007B687A891A833B68DA887B689A867B687F
:10031000FA891A841437BD465DF8047B704700BF24
:10032000002C0140003401400040014000440140E5
:100330000048014080B485B000AF78603960002388
:100340007B810023FB810023BB817B681B8C9BB2DC
:1003500023F010039AB27B681A847B681B8CFB81A4
:100360007B689B88BB817B681B8B7B817B8923F4AB
:10037000E0437B817B8923F440737B813B681B884E
:100380001B029AB27B8913437B81FB8923F02003F4
:10039000FB813B681B891B019AB2FB891343FB81DC
:1003A0003B685B881B019AB2FB891343FB817A6827
:1003B000224B9A4203D07A68214B9A422BD1FB8977
:1003C00023F08003FB813B685B891B019AB2FB89A8
:1003D0001343FB81FB8923F04003FB813B689B882F
:1003E0001B019AB2FB891343FB81BB8923F4806311
:1003F000BB81BB8923F40063BB813B689B899B0065
:100400009AB2BB891343BB813B68DB899B009AB2DC
:10041000BB891343BB817B68BA899A807B687A89E0
:100420001A833B68DA887B681A877B68FA891A84A2
:100430001437BD465DF8047B704700BF002C0140B7
:100440000034014080B485B000AF7860396000238B
:100450007B810023FB810023BB817B681B8C9BB2CB
:1004600023F480739AB27B681A847B681B8CFB81AF
:100470007B689B88BB817B689B8B7B817B8923F01E
:1004800070037B817B8923F003037B813B681A889F
:100490007B8913437B81FB8923F40073FB813B68D9
:1004A0001B891B029AB2FB891343FB813B685B8863
:1004B0001B029AB2FB891343FB817A68224B9A4252
:1004C00003D07A68214B9A422BD1FB8923F4006335
:1004D000FB813B685B891B029AB2FB891343FB815A
:1004E000FB8923F48063FB813B689B881B029AB2E3
:1004F000FB891343FB81BB8923F48053BB81BB89F8
:1005000023F40053BB813B689B891B019AB2BB89D2
:100510001343BB813B68DB891B019AB2BB89134340
:10052000BB817B68BA899A807B687A899A833B68A9
:10053000DA887B689A877B68FA891A841437BD4603
:100540005DF8047B704700BF002C0140003401407F
:1005500080B485B000AF786039600023BB81002390
:100560007B810023FB817B681B8C9BB223F480532F
:100570009AB27B681A847B681B8C7B817B689B8822
:10058000FB817B689B8BBB81BB8923F4E043BB81F0
:10059000BB8923F44073BB813B681B881B029AB262
:1005A000BB891343BB817B8923F400537B813B6868
:1005B0001B891B039AB27B8913437B813B685B8851
:1005C0001B039AB27B8913437B817A68124B9A4250
:1005D00003D07A68114B9A420AD1FB8923F48043F5
:1005E000FB813B689B899B019AB2FB891343FB818A
:1005F0007B68FA899A807B68BA899A833B68DA8833
:100600007B68A3F840207B687A891A841437BD463A
:100610005DF8047B704700BF002C014000340140AE
:1006200080B584B000AF786039600023FB8101237E
:10063000BB813B685B88002B02D10223FB8101E078
:100640000023FB813B689B88012B02D10223BB81E5
:1006500001E00123BB813B681B88002B1CD13B6858
:1006600059883B689A883B681B89786800F06EF966
:100670003B68DB887868194600F002F93B681B8903
:10068000F989BA89786800F0CBF93B68DB8878682B
:10069000194600F011F91BE03B6859883B689A88BD
:1006A0003B681B89786800F0BBF93B68DB88786899
:1006B000194600F001F93B681B89F989BA89786805
:1006C00000F044F93B68DB887868194600F0D8F8F8
:1006D0001037BD4680BD00BF80B483B000AF7860E6
:1006E0007B684FF6FF729A807B6800221A807B68D5
:1006F0000022DA807B6800225A807B6800221A720E
:100700000C37BD465DF8047B704700BF80B483B0F2
:1007100000AF78607B6800221A807B6800225A80D4
:100720007B6800229A807B680022DA807B68002246
:100730001A817B6800225A817B6800229A817B683B
:100740000022DA810C37BD465DF8047B704700BF9C
:1007500080B483B000AF78600B46FB70FB78002B51
:1007600008D07B681B889BB243F001039AB27B6878
:100770001A8007E07B681B889BB223F001039AB2C2
:100780007B681A800C37BD465DF8047B704700BF5C
:1007900080B483B000AF786013460A467A807B70DD
:1007A0007B78002B08D07B689B899AB27B881343A7
:1007B0009AB27B689A8109E07B689B899AB27B88B0
:1007C000DB439BB213409AB27B689A810C37BD46DB
:1007D0005DF8047B704700BF80B485B000AF7860DF
:1007E0000B467B800023FB817B681B89FB81FB8997
:1007F00023F07003FB81FA897B881343FB817B68BC
:10080000FA891A811437BD465DF8047B704700BF32
:1008100080B483B000AF78600B467B807B681B8917
:100820009BB223F007039AB27B681A817B681B890D
:100830009AB27B8813439AB27B681A810C37BD4603
:100840005DF8047B704700BF80B483B000AF786070
:100850000B467B807B681B899BB223F080039AB296
:100860007B681A817B681B899AB27B8813439AB292
:100870007B681A810C37BD465DF8047B704700BF6A
:1008800080B483B000AF78600B467B807B681B8BA5
:100890009BB223F00C039AB27B681A837B681B8B94
:1008A0009AB27B8813439AB27B681A830C37BD4691
:1008B0005DF8047B704700BF80B483B000AF786000
:1008C0000B467B807B681B8B9BB223F440639AB200
:1008D0007B681A837B681B8B9AB27B881B029BB256
:1008E00013439AB27B681A830C37BD465DF8047BCC
:1008F000704700BF80B483B000AF78607B689B8E88
:100900009BB218460C37BD465DF8047B704700BFAC
:1009100080B483B000AF78607B681B8F9BB21846B1
:100920000C37BD465DF8047B704700BF80B483B0D0
:1009300000AF78600B467B807B88DB439AB27B6894
:100940001A820C37BD465DF8047B704780B487B0CF
:1009500000AFF86079813A81FB800023BB820023DD
:10096000FB82FB681B8C9BB223F001039AB2FB68ED
:100970001A84FB681B8BBB82FB681B8CFB82BB8AC7
:1009800023F0F303BB82FB881B019AB23B8913431C
:100990009AB2BB8A1343BB82FA681C4B9A4213D0AB
:1009A000FA681B4B9A420FD0FB68B3F1804F0BD013
:1009B000FA68184B9A4207D0FA68174B9A4203D04C
:1009C000FA68164B9A420BD1FB8A23F00203FB8292
:1009D0007A89FB8A13439BB243F00103FB820AE04E
:1009E000FB8A23F00A03FB827A89FB8A13439BB2BA
:1009F00043F00103FB82FB68BA8A1A83FB68FA8A18
:100A00001A841C37BD465DF8047B7047002C0140FA
:100A1000003401400004004000080040000C004089
:100A200080B487B000AFF86079813A81FB80002301
:100A3000BB820023FB8200237B82FB681B8C9BB262
:100A400023F010039AB2FB681A84FB681B8BBB82ED
:100A5000FB681B8CFB827B891B017B82BB8A23F496
:100A600040731B051B0DBB82FB881B039AB2BB8A1C
:100A70001343BB823B891B029AB2BB8A1343BB82DE
:100A8000FA681C4B9A4213D0FA681B4B9A420FD05B
:100A9000FB68B3F1804F0BD0FA68184B9A4207D02D
:100AA000FA68174B9A4203D0FA68164B9A420BD158
:100AB000FB8A23F02003FB827A8AFB8A13439BB2D2
:100AC00043F01003FB820AE0FB8A23F0A003FB82C1
:100AD0007A89FB8A13439BB243F01003FB82FB68C5
:100AE000BA8A1A83FB68FA8A1A841C37BD465DF8F5
:100AF000047B7047002C014000340140000400409A
:100B000000080040000C004080B582B000AF114BDF
:100B10007B60114B3B6007E03B681A1D3A607A68C6
:100B2000111D796012681A603A680C4B9A42F3D32F
:100B30000B480C494FF000028842B8BF40F8042B24
:100B4000FFF6FAAF00F014F806F0D0FF0837BD4604
:100B500080BD00BF94EA000800000020440000208F
:100B600048000020F81B002080B400AFFEE700BF63
:100B700080B500AF164B164A126842F001021A60A7
:100B8000134A134B5968134B0B405360104A104BD8
:100B90001B6823F0847323F4803313600C4B0C4ADE
:100BA000126822F480221A60094B094A526822F422
:100BB000FE025A60064B4FF41F029A60044B00225B
:100BC000DA6200F00BF8044B4FF000629A6080BDCF
:100BD000001002400000FFF800ED00E080B500AF1B
:100BE00000F002F880BD00BF80B483B000AF0023E6
:100BF0007B6000233B60304B2F4A126842F4803206
:100C00001A602D4B1B6803F400333B607B68013393
:100C10007B603B68002B03D17B68B3F5A06FF0D1FC
:100C2000254B1B6803F40033002B02D001233B60EB
:100C300001E000233B603B68012B37D11E4B1E4A6D
:100C400052685A601C4B1C4A52685A601A4B1A4A26
:100C500052685A60184B184A526822F47C125A6043
:100C6000154B154A526842F498125A60124B124AB8
:100C7000126842F080721A6000BF0F4B1B6803F0CD
:100C80000073002BF9D00C4B0B4A526822F0030280
:100C90005A60094B084A526842F002025A6000BF8B
:100CA000054B5B6803F00C03082BF9D10C37BD46EC
:100CB0005DF8047B704700BF0010024080B485B02F
:100CC00000AF0346FB710D4B1B889BB2FB60FB79A9
:100CD000002B04D1FB6843F03803FB6005E0FB68A0
:100CE00023F0380343F00803FB60044BFA6892B228
:100CF0001A801437BD465DF8047B70470030014010
:100D000080B483B000AF0346FB710C37BD465DF87D
:100D1000047B704780B400AF01231846BD465DF8E0
:100D2000047B704780B582B000AF0346FB71FB794E
:100D30009BB20A4819460CF0A1FA00BF07480121EE
:100D40000CF0B8FA0346002BF8D004480CF0A4FAD3
:100D50000346DBB218460837BD4680BD003001406F
:100D600080B500AFFF20FFF7DDFF0346184680BDCA
:100D700080B582B000AF0A4B32221A60FFF7F0FF55
:100D8000FFF7EEFF0346FB71FB79FF2B03D0044B0B
:100D90001B68002BF4D1FB7918460837BD4680BD8F
:100DA0004C00002080B500AF03484FF4004100F034
:100DB00099FEFFF7D5FF80BD0008014080B590B0D7
:100DC00000AF0346B9607A60FB734FF6FF733B8256
:100DD000384B7B610023FB6200233B6300237B6273
:100DE0007B683B6200237B634FF44053BB6300236B
:100DF000FB6331480CF024F830480CF021F8FB7B01
:100E0000002B19D0BB68BB610023FB618023BB6250
:100E100007F11403284819460CF0CEF807F1100327
:100E2000BB611023FB610023BB6207F1140323485D
:100E300019460CF0C1F818E007F11003BB6100235C
:100E4000FB610023BB6207F114031B4819460CF039
:100E5000B3F8BB68BB611023FB618023BB6207F161
:100E60001403164819460CF0A7F8134801210CF09A
:100E7000E1F8124801210CF0DDF8114803210122AC
:100E80000CF0D8F900BF20200CF0F0F80346002B3E
:100E9000F9D0094800210CF0CDF8084800210CF0E9
:100EA000C9F80748032100220CF0C4F94037BD46B9
:100EB00080BD00BF0C3001401C00024030000240E9
:100EC0000030014080B500AF494B494A926942F079
:100ED00001029A61464B464A926942F004029A61C5
:100EE000434B434A926942F008029A61414801210A
:100EF00000F014FE0120012100F010FE3E4B3E4A9E
:100F0000526842F040525A603B4B3B4A526822F0D2
:100F100040425A60384B4FF400421A61374B374A0F
:100F2000126842F440521A60344B344A126822F478
:100F300040421A60314B314A126842F400421A6052
:100F40002E4B2E4A126822F440321A602B4B2B4A49
:100F5000126822F440221A60284B284A126842F490
:100F600000221A60254B10221A61244B234A126872
:100F700042F440121A60214B204A126822F44002C7
:100F80001A601E4B1D4A126842F400021A60184B88
:100F9000174A926942F480529A61194B00229A8052
:100FA000174B04221A80164B154A128892B242F04F
:100FB000380292B21A80124B114A128892B242F44D
:100FC000807292B21A800E4B0D4A128892B242F48D
:100FD000007292B21A800A4B094A128892B242F009
:100FE000400292B21A800120012108F051F980BD1F
:100FF000001002400002300000080140000C0140D7
:101000000030014080B582B000AF194B1B78DBB2D5
:1010100003F00103002B08D116484FF4004100F003
:101020006FFDFFF7A5FEFFF7BDFE13480CF0A8F813
:10103000114800210CF0DEF84FF48050002108F038
:1010400045F93823BB802823FB713B1D0B4819460B
:1010500000F078FC0020FFF753FE054B1B78DBB255
:1010600043F00103DAB2024B1A700837BD4680BD67
:10107000140000200008014000300140000C014035
:1010800080B584B000AF78603960104B0A221A60D6
:10109000FFF766FE0346FB73FB7BFF2B03D10B4B75
:1010A0001B68002BF4D1FB7BFE2B01D0002309E051
:1010B000012079683A68FFF781FEFFF751FEFFF7DC
:1010C0004FFE012318461037BD4680BD4800002062
:1010D00080B584B000AF78600B46FB70FFF748FE28
:1010E0000346FF2B01D000231EE0FB781846FFF7D4
:1010F00019FEFB78FD2B16D0002079684FF40072A2
:10110000FFF75CFEFF20FFF70DFEFF20FFF70AFE52
:10111000FFF726FE0346FB73FB7B03F01F03052B43
:1011200001D0002300E0012318461037BD4680BDE2
:1011300080B584B000AF03463960FB71FB795BB2C8
:10114000002B0EDAFB7903F07F03FB71772000217F
:10115000FFF7EEFF0346BB73BB7B012B01D9BB7BC3
:1011600051E02B484FF4004100F0BCFC28484FF4FC
:10117000004100F0C5FCFFF7FBFD0346FF2B01D04B
:10118000FF2340E0FB791846FFF7CCFD3B681B0EC0
:10119000DBB21846FFF7C6FD3B681B0CDBB21846F6
:1011A000FFF7C0FD3B681B0ADBB21846FFF7BAFD2C
:1011B0003B68DBB21846FFF7B5FD0123FB73FB79F3
:1011C000402B01D19523FB73FB79482B01D1872359
:1011D000FB73FB7B1846FFF7A5FDFB794C2B01D178
:1011E000FFF7BEFD0A23FB73FFF7BAFD0346BB738F
:1011F000BB7B5BB2002B05DAFB7B013BFB73FB7B0C
:10120000002BF1D1BB7B18461037BD4680BD00BF17
:101210000008014090B585B000AF0346FB71FB7933
:10122000002B01D00123C1E0624B1B78DBB203F03D
:101230000203002B03D05F4B1B78DBB2B6E0FFF755
:1012400041FE0020FFF73AFD0A23FB7304E0FFF79D
:1012500087FDFB7B013BFB73FB7B002BF7D100235E
:101260007B7340200021FFF763FF0346012B40F012
:101270008480514B64221A6048204FF4D571FFF7E7
:1012800057FF0346012B4DD10023FB730CE0FC7B81
:10129000FFF766FD03461A4607F11003234403F8DF
:1012A000082CFB7B0133FB73FB7B032BEFD9BB7A51
:1012B000012B62D1FB7AAA2B5FD100BF3E4B1B688A
:1012C000002B07D0E9204FF08041FFF731FF0346A4
:1012D000002BF3D1384B1B68002B4ED07A20002115
:1012E000FFF726FF0346002B47D10023FB730CE0DA
:1012F000FC7BFFF735FD03461A4607F11003234434
:1013000003F8082CFB7B0133FB73FB7B032BEFD92A
:101310003B7A03F04003002B01D00C2300E00423B0
:101320007B732AE0E9200021FFF702FF0346012B2F
:1013300004D802237B73E923BB7303E001237B738F
:101340004123BB7300BF1C4B1B68002B07D0BB7B2A
:1013500018460021FFF7ECFE0346002BF3D1164B95
:101360001B68002B07D050204FF40071FFF7E0FE00
:101370000346002B01D000237B73104B7A7B1A703D
:10138000FFF710FD7B7B002B0BD00A4B1B78DBB2E9
:1013900023F00103DAB2074B1A700120FFF78EFC2D
:1013A00001E0FFF72FFE034B1B78DBB21846143722
:1013B000BD4690BD140000204800002050000020D1
:1013C00080B483B000AF0346FB71FB79002B01D0E2
:1013D000012302E0044B1B78DBB218460C37BD46F4
:1013E0005DF8047B704700BF1400002080B584B016
:1013F00000AFB9607A600246FA73BB73FB7B002BC7
:1014000002D1BB7B002B01D104234FE0294B1B7879
:10141000DBB203F00103002B01D0032346E0264B8F
:101420001B7803F00803002B02D17B685B027B6012
:10143000BB7B012B11D151207968FFF779FE034660
:10144000002B2BD1B8684FF40071FFF719FE03464B
:10145000002B23D00023BB7320E052207968FFF7D4
:1014600067FE0346002B19D1B8684FF40071FFF7EF
:1014700007FE034683F00103DBB2002B00D009E036
:10148000BB6803F50073BB60BB7B013BBB73BB7BDD
:10149000002BE9D14C200021FFF74AFEFFF782FC28
:1014A000BB7B002B0CBF00230123DBB21846103797
:1014B000BD4680BD140000205000002080B584B0DF
:1014C00000AFB9607A600246FA73BB73FB7B002BF6
:1014D00002D1BB7B002B01D1042369E0364B1B7882
:1014E000DBB203F00103002B01D0032360E0324B99
:1014F0001B78DBB203F00403002B01D0022357E07A
:101500002E4B1B7803F00803002B02D17B685B0293
:101510007B60BB7B012B10D158207968FFF708FE58
:101520000346002B3CD1B868FE21FFF7D1FD0346EE
:10153000002B35D00023BB7332E0204B1B7803F027
:101540000603002B04D0BB7BD7201946FFF7F0FD24
:1015500059207968FFF7ECFD0346002B20D1B868CD
:10156000FC21FFF7B5FD034683F00103DBB2002B3E
:1015700000D009E0BB6803F50073BB60BB7B013B97
:10158000BB73BB7B002BEAD10020FD21FFF7A0FD40
:10159000034683F00103DBB2002B01D00123BB73B0
:1015A000FFF700FCBB7B002B0CBF00230123DBB249
:1015B00018461037BD4680BD1400002050000020A2
:1015C00090B58BB000AF0B463A600246FA71BB7122
:1015D0003B683B62FB79002B01D00423ADE1012382
:1015E00087F82730BB79052B28D13B6A1B78012B64
:1015F0000ED0022B12D0002B1BD1FFF78BFB034622
:10160000002B01D0FFF7FEFC002387F8273014E001
:10161000FFF758FC002387F827300EE03B6A5C1C7C
:10162000FFF778FB0346DBB22370002387F82730EF
:1016300003E0042387F827307DE17CE1B84B1B7879
:10164000DBB203F00103002B01D0032375E1BB796A
:101650000E2B00F26B8101A252F823F099160008BC
:10166000B716000863170008731700082D19000843
:101670002D1900082D1900082D1900082D19000832
:101680002D1900085B1800086B1800089118000855
:10169000B7180008F7180008A2484FF4004100F0FE
:1016A0002FFAFFF765FB0346FF2B03D1002387F8D2
:1016B00027303EE13DE149200021FFF739FD034697
:1016C000002B4DD107F10C0318461021FFF7D8FC71
:1016D0000346002B44D03B7B9B09DBB2012B0DD191
:1016E0007B7D1A463B7D1B029BB213449BB20133A8
:1016F000FB83FB8B9A023B681A602DE07B7C03F036
:101700000F03DAB2BB7DDB09DBB21344DAB27B7DB7
:1017100003F00303DBB25B00DBB21344DBB2023342
:1017200087F826303B7D9B09DBB21A46FB7C9B0089
:101730009BB213449AB2BB7C03F003039BB29B029F
:101740009BB213449BB20133FB83FA8B97F826308C
:10175000093B9A403B681A60002387F82730E8E08D
:10176000E7E03B684FF400721A80002387F82730C7
:10177000DFE06D4B1B7803F00403002B2BD0CD2052
:101780000021FFF7D5FC0346002B65D1FFF7E8FAEF
:1017900007F10C0318461021FFF772FC0346002BDB
:1017A0005AD0302387F8263006E0FFF7D9FA97F8A9
:1017B0002630013B87F8263097F82630002BF4D1ED
:1017C000BB7D1B09DBB210229A403B681A600023E4
:1017D00087F82730ADE049200021FFF7A9FC034638
:1017E000002B39D107F10C0318461021FFF748FCF4
:1017F0000346002B30D04C4B1B7803F00203002B28
:1018000012D0BB7D03F03F035A00FB7DDB09DBB246
:1018100013445A1C7B7E9B09DBB2013B02FA03F3A3
:101820001A463B681A6013E0BB7D03F07C039B10F3
:101830009BB20133FA7D02F00302D100FA7D520916
:10184000D2B20A44013202FB03F31A463B681A6023
:10185000002387F827306CE06BE0334B1A783B6A43
:101860001A70002387F8273063E049200021FFF732
:101870005FFC0346002B0AD1386A1021FFF700FCF9
:101880000346002B03D0002387F8273051E050E0B7
:101890004A200021FFF74CFC0346002B0AD1386A8E
:1018A0001021FFF7EDFB0346002B03D0002387F840
:1018B00027303EE03DE07A200021FFF739FC034667
:1018C000002B17D1042387F826300BE03C6A631CF9
:1018D0003B62FFF745FA0346237097F82630013B39
:1018E00087F8263097F82630002BEFD1002387F8B1
:1018F00027301EE01DE0CD200021FFF719FC034634
:10190000002B0CD1FFF72CFA386A4021FFF7B8FB07
:101910000346002B03D0002387F8273009E008E0B6
:10192000140000200008014050000020042387F824
:101930002730FFF737FA97F8273018462C37BD467F
:1019400090BD00BF80B489B000AF786039600023DB
:10195000FB6100233B610023BB610023FB6000238C
:101960007B610023BB603B68DB7803F00F03FB6106
:101970003B68DB7803F01003002B04D03B689B78B6
:10198000FA691343FB613B681B88DBB2002B44D030
:101990007B681B687B610023BB6138E0BB69012267
:1019A00002FA03F3FB603B681B881A46FB6813408E
:1019B0003B613A69FB689A4226D1BB699B00FB6098
:1019C000FB680F2202FA03F3BB60BB68DB437A6952
:1019D00013407B61FB68FA6902FA03F37A691343E7
:1019E0007B613B68DB78282B05D1BB6901229A40DB
:1019F0007B685A6108E03B68DB78482B04D1BB69FF
:101A000001229A407B681A61BB690133BB61BB69E3
:101A1000072BC3D97B687A691A603B681B88FF2B48
:101A200046D97B685B687B610023BB613AE0BB6998
:101A30000833012202FA03F3FB603B681B881A4655
:101A4000FB6813403B613A69FB689A4227D1BB6946
:101A50009B00FB60FB680F2202FA03F3BB60BB68CC
:101A6000DB437A6913407B61FB68FA6902FA03F38E
:101A70007A6913437B613B68DB78282B05D1BB690E
:101A8000083301229A407B685A613B68DB78482B17
:101A900005D1BB69083301229A407B681A61BB6992
:101AA0000133BB61BB69072BC1D97B687A695A6076
:101AB0002437BD465DF8047B704700BF80B483B017
:101AC00000AF78607B684FF6FF721A807B68022255
:101AD0009A707B680422DA700C37BD465DF8047B8F
:101AE000704700BF80B483B000AF78600B467B8046
:101AF0007A887B681A610C37BD465DF8047B7047B5
:101B000080B483B000AF78600B467B807A887B68B6
:101B10005A610C37BD465DF8047B704780B487B0CE
:101B200000AF78600B46FB7000233B610023FB6035
:101B300000237B610023BB607B68002B03DA2E4B04
:101B4000DB697B6102E02C4B5B687B617B6803F4A3
:101B500070231B0CBB607B689BB23B617B6803F40A
:101B60004013B3F5401F0AD17B6923F070637B619A
:101B7000214B214A526822F070625A6021E07B6852
:101B800003F48013002B0ED0BB68032202FA03F388
:101B9000FB60FB68DB437A6913407B617B6943F040
:101BA00070637B610DE07B685B0D1B013A6902FA93
:101BB00003F3DB437A6913407B617B6943F0706315
:101BC0007B61FB78002B08D07B685B0D1B013A69B9
:101BD00002FA03F37A6913437B617B68002B03DA13
:101BE000054B7A69DA6102E0034B7A695A601C3767
:101BF000BD465DF8047B70470000014080B483B0AF
:101C000000AF0346FB71084B97F907205209F97999
:101C100001F01F01012000FA01F143F822100C37F6
:101C2000BD465DF8047B704700E100E080B582B0FE
:101C300000AF0346FB711A4B1B78002B10D1194BD8
:101C40001B785A1CD1B2174A1170F979164AA2FBB7
:101C500001025209D2B23032D1B2144AD1540FE04B
:101C6000104B1B785A1CD1B20E4A1170F9790E4AEA
:101C7000A2FB01025209D2B23032D1B20C4AD15485
:101C8000FB79094AA2FB03125209642101FB02F20B
:101C90009B1ADBB2184605F0BFFC0837BD4680BD75
:101CA00095000020940000201F85EB517400002057
:101CB0008400002080B584B000AF0023FB730023B4
:101CC000BB7300237B7300233B7300237B810023C2
:101CD0007B6000233B6006F09DFF6A4806F058FDDC
:101CE0004FF4FA7007F046FC32E005F0B9FB03460A
:101CF000FB730020002106F081FD634806F048FDDB
:101D0000624B1B689BB2184600F0D2F9604806F09F
:101D10003FFD5E4B5B689BB2184600F0C9F901209D
:101D2000002106F06BFD0A2007F024FC594806F05C
:101D30002FFD564B9B689BB2184600F0B9F95648E8
:101D400006F026FD514BDB689BB2184600F0B0F957
:101D5000FB7B002BC9D006F05DFFFB7B013B7B7357
:101D60000023FB734D4806F013FDBB7B184604F0BF
:101D70009DFA0346BB73BB7B184600F027FE06F0B6
:101D800049FF474806F004FD3B7B184604F08EFAF5
:101D900003463B737A7B3D4B53F822307B6006F061
:101DA00039FF404806F0F4FCBB7B184600F07AFD92
:101DB0000023FB7317E00A2007F0DCFB05F050FB63
:101DC0000346FB7306F026FF374806F0E1FC0120CE
:101DD000002106F013FD7A7B2C4B53F822309BB286
:101DE000184600F065F9FB7B022BE4D17A7B274B88
:101DF00053F822303B60BB7B184600F0E7FDC8205B
:101E000007F0B8FB3B689AB27B689BB2D31A9BB2CF
:101E10001A463B7B92FBF3F37B817A7B234B7989D8
:101E200023F8121006F0F6FE214806F0B1FC3B68DC
:101E30009BB2184600F03CF90120002106F0DEFCC0
:101E40001C4806F0A5FC7B89184600F031F97B8917
:101E500040F2426019460BF0B3FC0023FB7306E02E
:101E60000A2007F087FB05F0FBFA0346FB73FB7BB8
:101E7000022BF5D106F0CEFEC82007F07BFB103711
:101E8000BD4680BDCCDD0008D8DD000884180020E8
:101E9000DCDD0008E0DD0008E4DD0008E8DD000826
:101EA000F8DD000808DE000818DE0008041B00202A
:101EB00028DE000830DE000880B584B000AF13468D
:101EC0000246FA710A46BA71BB800023FB60BB88E8
:101ED000104A128802FB03F20F4BA3FB0213DB082C
:101EE000FB600023FB72002000F0DCFCBA790B4B96
:101EF000002143F8221002E00A2007F03BFB074BC9
:101F00001A68FB689A42F7D3002000F05FFD103793
:101F1000BD4680BD041B0020CDCCCCCC8418002055
:101F200080B586B000AF13460246FA710A46BA7110
:101F3000BB8000233B610023FB600023BB600023C8
:101F4000FB8200237B7506F065FE4F4806F020FCFF
:101F500006E00A2007F00EFB05F082FA03467B75C7
:101F60007B7D002BF5D07B7D022B01D1FFF7A2FEFC
:101F700001233B7580E006F04DFE444806F008FC66
:101F8000434B1B88184600F093F8FB8A184605213E
:101F900004F026FA0346FB82FB8A3D4A128802FBC4
:101FA00003F23C4BA3FB0213DB083B6106F032FE5D
:101FB000394806F0EDFB3B699BB2184600F078F813
:101FC0000120002106F01AFC344806F0E1FBBA7942
:101FD000334B53F82220324B53F822309BB2184631
:101FE00000F066F800237B75002000F05BFCBA79F6
:101FF0002B4B002143F822101BE00A2007F0BAFA0D
:1020000006F008FE274806F0C3FBBA79244B53F8C4
:1020100022309BB2184600F04BF80120002106F058
:10202000EDFB214806F0B4FB3B699BB2184600F07B
:102030003FF81B4B1A683B699A42DED3002000F040
:10204000C5FC06F0E7FD194806F0A2FB06E00A20F1
:1020500007F090FA05F004FA03467B757B7D002BB0
:10206000F5D07B7D022B05D101233B750C4B002263
:102070001A6001E000233B753B7D012B3FF47BAFF1
:102080001837BD4680BD00BF38DE000848DE0008B6
:10209000041B0020CDCCCCCC54DE00085CDE000854
:1020A0008418002060DE000868DE00086CDE00088E
:1020B00080B582B000AF0346FB80FA88164BA3FBC5
:1020C00002135B0B9BB2DBB2184605F0A5FAFB8846
:1020D000114AA2FB0312520B42F2107101FB02F2F1
:1020E0009B1A9AB20D4BA3FB02135B099BB2DBB2A6
:1020F000184605F091FAFB88084AA2FB0312520920
:10210000642101FB02F29B1A9BB2DBB2184605F078
:1021100083FA0837BD4680BD5917B7D11F85EB51EB
:1021200080B500AF534B1B88062B02D9514B0022C0
:102130001A80514840F2255108F09EF80346002BC2
:1021400018D04D4808F078F80346DAB24B4B1A70B5
:10215000484B1B885A1C91B2464A1180474A117855
:10216000474AD154444B444A128892B222F020028A
:1021700092B21A80404B404A128892B222F040023A
:1021800092B21A803F4B1B78002B17D03E4B1A7827
:102190003E4B1B789A4211D2374A3B4B1B78591C55
:1021A000C8B2394908703A49CB5C9380324B324A05
:1021B000128892B222F0400292B21A80354B1B78FC
:1021C000002B55D1344B1B78042B20D1334B1B787B
:1021D000002B03D1294B1A78314B1A702F4B1B78E7
:1021E0005A1CD1B22D4A1170244A11782D4AD1546B
:1021F0002B4B1A78294B1B789A4208D1254B012288
:102200001A70254B00221A70244B00221A701B4BA7
:102210001B785A2B03D1244B01221A7028E0174B4C
:102220001B78582B07D1204B1B78012B03D11E4B59
:1022300002221A701CE01C4B1B78022B18D10F4B8A
:102240001B78302B11D00D4B1B78312B03D1124B47
:1022500003221A7009E0094B1B78322B05D10E4B73
:1022600004221A700D4B00221A700F4B00221A70B4
:1022700080BD00BF5A00002000380140FE1A002037
:10228000301B0020580000205900002019000020B9
:10229000541B0020C5000020C4000020C200002004
:1022A000C300002098180020C100002080B582B033
:1022B00000AF78600C4B1B78012B04D100F04CF878
:1022C000094B00221A700A2007F054F9074B1B78BB
:1022D000012B04D100F00CF8044B00221A700A20E4
:1022E00007F048F9E6E700BFC500002058000020CD
:1022F00080B500AF084BDA78084B1A70084B002203
:102300001A7002E0052007F035F9054B1A78034BE7
:102310001B789A42F6D380BD541B00201900002080
:102320005900002080B483B000AF0023FB7100236C
:10233000FB7106E0FB79074A0021D154FB79013398
:10234000FB71FB79062BF5D90C37BD465DF8047B94
:10235000704700BF9818002080B500AF264B5B780F
:10236000062B46D801A252F823F000BF89230008AB
:10237000AD230008BF230008C7230008CF230008AF
:10238000DB230008E72300081B4B99781A4BDA7807
:10239000194B1B791B0298B2174B5B7903449BB214
:1023A000084611461A46FFF787FD22E0124B9A783D
:1023B000114BDB781046194603F0F8FD19E00F4B7E
:1023C00033221A7015E00D4B30221A7011E00A4BBF
:1023D0009B78184600F066FA0BE0074B9B7818468E
:1023E00000F0F4FA05E0044B9B78184600F008F87A
:1023F00000BFFFF797FF80BD98180020180000204D
:1024000080B584B000AF78600023FB730023BB81EC
:102410001A4BDAB21A4B1A701A4BDAB2184B5A70BE
:10242000194BDAB2164B9A70154B0D22DA707B6895
:10243000DAB2134B1A710023FB7315E07B6803F5C6
:10244000B8735A00FB7B13449BB25B00BB81FB7BE0
:102450005B005A1D0A4B1344BA89104619460BF00B
:1024600063F9FB7B0133FB73FB7B032BE6D9074B43
:1024700001221A701037BD4680BD00BF74DE00080F
:10248000541B002078DE00087CDE00085800002085
:1024900080B400AF024B1B68BD465DF8047B7047FB
:1024A0000000024080B400AF024B1B68BD465DF8DF
:1024B000047B70470000024080B586B000AF012069
:1024C000012106F0E5FE0520012106F0FFFE25238F
:1024D0003B7500237B750023BB750123FB754FF40F
:1024E00000733B820323BB741823FB7407F11003B2
:1024F00023481946FFF726FA4FF480633B820423F2
:10250000FB7407F110031E481946FFF71BFA1D481C
:1025100007F05CFD4FF48040012106F0D7FE4FF438
:1025200016533B600023BB800023FB8000233B81CC
:102530000023BB810C237B813B461248194607F0E0
:10254000A1FD10484FF4587107F086FE0D4B0D4A5F
:10255000928992B242F0200292B29A81094B094AC2
:10256000928992B242F0400292B29A8105480121CA
:1025700007F042FE2520FFF741FB1837BD4680BD1E
:10258000000801400038014080B500AF042001215F
:1025900006F09CFE1E4B1E4A926942F001029A61AF
:1025A0001C4B1C4A526842F000725A601A4B1A4A7D
:1025B000526822F040625A60174B174A526842F044
:1025C00080725A60144B144A526822F440025A60D6
:1025D000114B114A526842F480125A600E4B0E4A57
:1025E000526822F440225A600B4B0B4A526842F464
:1025F00080325A60084B084A526822F440425A60BE
:10260000054B054A526842F480525A6080BD00BFB3
:1026100000100240000001400008014080B584B075
:1026200000AF2420012106F051FE4FF48073BB81DE
:102630002823FB7307F10C0308481946FFF782F9BA
:102640000323BB812823FB7307F10C0303481946BE
:10265000FFF778F91037BD4680BD00BF0008014084
:1026600080B588B000AF1120012106F02FFE0220B6
:10267000012106F049FE07F11C031846FFF71EFA78
:102680004FF47073BB830323BB771823FB7707F1E9
:102690001C0320481946FFF755F91F480121FFF791
:1026A0003DFA07F110031846FEF716F84FF40073D1
:1026B000FB8240F2E733BB82EF233B8207F110033A
:1026C00016481946FDF72EFD3B461846FEF71EF844
:1026D00001237B8060233B800023FB803B460F4827
:1026E0001946FDF79BFD3B460C481946FDF722FEB7
:1026F0003B460A481946FDF7A5FE3B4607481946E2
:10270000FDF726FF05480121FEF722F82037BD46D8
:1027100080BD00BF00100140000C1A000004004002
:1027200080B582B000AF06F075FA0023FB8000236D
:102730007B7106F06FFA374806F02AF81CE004F0C7
:102740008FFE03467B71344B1B88FB80052006F00F
:1027500011FF0120002106F051F8FA882F4BA3FB4E
:1027600002135B099BB2DBB2184604F055FFFB88ED
:10277000DBB2184604F050FF7B79022BDFD10A2030
:1027800006F0F8FEFB8840F2226019460BF018F8BC
:1027900003F09EF84FF4FA6006F0ECFE204805F0D6
:1027A000F7FF1CE004F05CFE03467B711A4B1B88AC
:1027B000FB80052006F0DEFE0120002106F01EF859
:1027C000FA88164BA3FB02135B099BB2DBB21846D7
:1027D00004F022FFFB88DBB2184604F01DFF7B7972
:1027E000022BDFD100237B710A2006F0C3FEFB8899
:1027F00040F2326019460AF0E3FF03F069F84FF443
:10280000FA6006F0B7FE06F005FA05F067FA083739
:10281000BD4680BD80DE0008641B00201F85EB5193
:1028200094DE000880B500AF0A4B1B881A460A4B9D
:102830001B8802339A4202DD012000F033F8054B79
:102840001A88054B1B889A4202D2012000F0BEF87C
:1028500080BD00BF641B0020B01B002080B500AF0E
:102860000C4B9A880C4B1B889A4205D90B4B1B7852
:102870001846002103F09AFB064B9A88084B1B88E8
:102880009A4205D2054B1B781846012103F08EFBB6
:1028900080BD00BF7C1B00209C0000209A0000200F
:1028A0009E00002080B584B000AF0346FB7101207C
:1028B00006F060FE0023FB720023BB720023FB7353
:1028C0003F4B9B68DAB2FB790633012101FA03F32F
:1028D000DBB21340FB72FA7AFB79063342FA03F358
:1028E000FB72FB79012202FA03F3DAB2354B1B7853
:1028F000DBB21340DBB2BB72BA7AFB7942FA03F364
:10290000BB72FB7A002B47D1BB7A002B44D1FB79F9
:10291000184600F0CDF84FF41673BB8122E0FB7926
:10292000012B09D1264B9A68FB79063322FA03F36F
:10293000DBB203F00103FB72214B9A68FB7906338B
:1029400022FA03F303F00103002B03D0FB7B0133D6
:10295000FB7301E00023FB73012006F00BFEBB8933
:10296000013BBB81FB7B022B02D8BB89002BD6D15C
:10297000BB89002B0CD1FB79012202FA03F3DAB2F6
:10298000104B1B78DBB21343DBB2DAB20D4B1A707B
:10299000FB79184600F0A2F8FB79012202FA03F352
:1029A000DAB2094B1B78DBB21343DBB2DAB2064B67
:1029B0001A70052006F0DEFD1037BD4680BD00BF51
:1029C00000080140401B0020281B002080B584B077
:1029D00000AF0346FB71FB79184600F069F800234D
:1029E000FB730023FB720023BB724FF41673BB8191
:1029F0002C4B9B68DAB2FB790633012101FA03F311
:102A0000DBB21340FB72FA7AFB79063342FA03F326
:102A1000FB72FB79012202FA03F3DAB2224B1B7834
:102A2000DBB21340DBB2BB72BA7AFB7942FA03F332
:102A3000BB72FB7A012B1FD1BB7A002B1CD115E096
:102A4000184B9A68FB79063322FA03F303F001036B
:102A5000002B03D1FB7B0133FB7301E00023FB73ED
:102A6000012006F087FDBB89013BBB81FB7B022B6C
:102A700002D8BB89002BE3D1FB79184600F02EF871
:102A8000FB79012202FA03F3DBB2DB43DAB2074B34
:102A90001B78DBB21340DBB2DAB2044B1A7010378A
:102AA000BD4680BD00080140401B0020281B0020BF
:102AB00080B483B000AF0346FB71074B064A5169EF
:102AC000FA790B32012000FA02F20A435A610C37FC
:102AD000BD465DF8047B70470008014080B483B0B8
:102AE00000AF0346FB71074B064A1169FA790B32B6
:102AF000012000FA02F20A431A610C37BD465DF864
:102B0000047B70470008014080B500AF012006F04B
:102B100055FC034B1B685A1C014B1A6080BD00BF5B
:102B20008418002080B500AF022006F047FC034B5C
:102B30005B685A1C014B5A6080BD00BF841800209E
:102B400080B500AF042006F039FC80BD80B500AF31
:102B50004FF4806006F032FC4FF4006006F02EFC6B
:102B60004FF4805006F02AFC80BD00BF80B500AF56
:102B7000202006F023FC402006F020FC802006F0F8
:102B80001DFC80BD80B582B000AF0023FB71002327
:102B9000BB7100237B7106F03DF85AE0142006F06B
:102BA000E9FC04F05DFC0346FB710020002105F008
:102BB00025FE2C4805F0ECFDBB79184604F02CFDF1
:102BC000FB79042B03D1BB791846FFF771FFFB7922
:102BD000032B03D1BB791846FFF780FFFB79012B4C
:102BE00008D1BB79012B03D8BB790133BB7101E05C
:102BF0000023BB71012006F0BDFC0120002105F07F
:102C0000FDFD194805F0C4FD184B1B78184604F06B
:102C100003FD012006F0AEFC154805F0B9FD0023C8
:102C20007B7113E0134B9A687B79063322FA03F326
:102C300003F00103002B03D00F4805F0A9FD02E0CB
:102C40000E4805F0A5FD7B7901337B717B79042B60
:102C5000E8D9FB79022BA1D105F0DCFF0837BD468E
:102C600080BD00BFA0DE0008ACDE0008281B0020ED
:102C7000B0DE000800080140B8DE00087CDE000875
:102C800080B582B000AF0023FB710023BB7100232D
:102C90007B7100233B7100237B8005F0BBFF7EE04E
:102CA000142006F067FC04F0DBFB0346FB710020F8
:102CB000002105F0A3FD3F4B1B687B807B881846F5
:102CC000FFF7F6F93C4B1B887B807B88DBB218460C
:102CD00004F0A2FC394805F05BFD394B9B8C7B80EE
:102CE0007B881846FFF7E4F9FB79042B02D1012019
:102CF000FFF7D8FDFB79012B05D10120FFF7EEFE90
:102D00000120FFF763FE012006F034FC01200021C2
:102D100005F074FD2B4B1B78184604F07DFC2A4807
:102D200005F036FD00233B80284B9B685B093B8008
:102D30003B881846FFF7BCF9254805F029FD01201E
:102D400006F018FC214B9B685B0903F00103002B84
:102D500003D0204805F01CFD02E01F4805F018FDD7
:102D60001A4B9B689B0903F00103002B03D0194801
:102D700005F00EFD02E0184805F00AFD134B9B68B4
:102D8000DB0903F00103002B03D0124805F000FD1E
:102D900002E0114805F0FCFC104805F0F9FCFB7955
:102DA000022B7FF47DAF05F035FFFFF7EBFE083710
:102DB000BD4680BD84180020641B0020BCDE0008D6
:102DC00000480140281B0020C0DE00080008014028
:102DD000C4DE0008B8DE00087CDE0008C8DE00089B
:102DE00080B586B000AF78600023BB8200237B8172
:102DF0007B689BB21B019BB203F21463BB82BA8A4D
:102E000007F10A03104619460AF08EFC05F002FF8E
:102E1000954805F0BDFC7B89184603F091FA0346FE
:102E20007B817B89BA8A104619460AF0C9FC7B6807
:102E30009BB21B019BB203F21563BB82BA8A07F1F6
:102E40000A03104619460AF06FFC05F0E3FE8748B6
:102E500005F09EFC7B89184603F072FA03467B81DD
:102E60007B89BA8A104619460AF0AAFC7B689BB295
:102E70001B019BB203F21663BB82BA8A07F10A03F5
:102E8000104619460AF050FC05F0C4FE784805F0DB
:102E90007FFC7B89184603F053FA03467B817B89CC
:102EA000BA8A104619460AF08BFC07F10A0340F66D
:102EB000990019460AF038FC05F0ACFE6D4805F0A3
:102EC00067FC7B89DBB2184603F0F0F903467B818F
:102ED0007B8940F6990019460AF072FC7B89DAB2C8
:102EE000654B1A707B8903F2FF53BB82BB8A18467D
:102EF00046210AF065FC7B89604A4621D1547B68F3
:102F00009BB21B019BB203F21E63BB82BA8A07F11C
:102F10000A03104619460AF007FC05F07BFE5848E4
:102F200005F036FC7B89DBB2184603F0BFF9034697
:102F30007B817B89BA8A104619460AF041FC7B895D
:102F400003F2FF53BB82BB8A184647210AF038FCC4
:102F50007B894A4A4721D1547B689BB21B019BB2B3
:102F600003F21763BB82BA8A07F10A0310461946B7
:102F70000AF0DAFB05F04EFE424805F009FC7B89B9
:102F8000184603F0DDF903467B817B89BA8A104637
:102F900019460AF015FC7B689BB21B019BB203F536
:102FA000C363BB82BB8A184604F05EFD386105F03E
:102FB00031FE354805F0ECFB4FF4FA7006F0DAFA12
:102FC000386903F065FA3861BB8A1846396903F03D
:102FD00023F87B689BB21B019BB203F22263BB8286
:102FE000BA8A07F10A03104619460AF09DFB05F05C
:102FF00011FE264805F0CCFB4FF4FA7006F0BAFA41
:103000007B89184603F09CF903467B817B89BA8A49
:10301000104619460AF0D4FB7B689BB21B019BB299
:1030200003F21F63BB82BA8A07F10A0310461946EE
:103030000AF07AFB05F0EEFD154805F0A9FB7B8947
:10304000DBB2184603F032F903467B817B89BA8AEA
:10305000104619460AF0B4FB05F0DCFD0D4805F0FA
:1030600097FB0023FB751EE0CCDE0008DCDE0008C9
:10307000F0DE000804DF0008DC1A00201C0000203D
:1030800018DF000828DF000838DF00084CDF0008E0
:103090005CDF000868DF000804F0E2F90346FB7516
:1030A0000A2006F067FAFB7D002BF5D0FB7D022B92
:1030B00020D17B689BB21B019BB203F21A63BB82D7
:1030C00004F026F8F860BB8A1846F96802F0A4FFFD
:1030D0007B689BB21B019BB203F21C63BB8204F0B2
:1030E00017F802463B69D31A0533BA8A10461946C7
:1030F00002F092FFFB7D032B1ED105F08BFD2448CF
:1031000005F046FB4FF47A7006F034FA7B689BB208
:103110001B019BB203F21A63BB82BB8A184604F000
:10312000A3FCF860F868012103F0AEFBF860BB8AED
:103130001846F96802F070FF05F06CFD154805F0BF
:1031400027FB4FF47A7006F015FA7B6862339BB266
:103150001B01BB82BB8A184604F086FCF860F86845
:10316000012103F091FBF860BB8A1846F96802F070
:1031700053FF05F04FFDC82006F0FCF906F05CFA9D
:1031800004F0ACFD06F066FA1837BD4680BD00BFFE
:1031900078DF000884DF000880B582B000AF00232C
:1031A000FB7105F037FD094805F0F2FAC82006F07A
:1031B000E1F9FB79184603F079F80346FB71FB79D6
:1031C000184600F021F80837BD4680BD90DF0008A2
:1031D00080B582B000AF0023FB7105F01BFD0948EC
:1031E00005F0D6FAC82006F0C5F9FB79184603F0B9
:1031F0005DF80346FB71FB791846FFF7F1FD0837D0
:10320000BD4680BD90DF000880B584B000AF786017
:103210000023FB810023BB817B689BB21A46D2004E
:10322000D31A9BB203F24563FB81FA8907F10C03C1
:10323000104619460AF078FA05F0ECFC604805F0F3
:10324000A7FABB89184603F07BF80346BB81BB890C
:10325000FA89104619460AF0B3FA7B689BB21A46FF
:10326000D200D31A9BB203F24663FB81FA8907F1BD
:103270000C03104619460AF057FA05F0CBFC5148EA
:1032800005F086FABB89184603F05AF80346BB815D
:10329000BB89FA89104619460AF092FA7B689BB2FC
:1032A0001A46D200D31A9BB203F24763FB81FA8914
:1032B00007F10C03104619460AF036FA05F0AAFC8D
:1032C000414805F065FABB89184603F039F8034612
:1032D000BB81BB89FA89104619460AF071FA7B68EE
:1032E0009BB21A46D200D31A9BB203F5C963FB8185
:1032F000FA8907F10C03104619460AF015FA05F091
:1033000089FC324805F044FABB89184603F018F8E6
:103310000346BB81BB89FA89104619460AF050FA68
:103320007B689BB21A46D200D31A9BB203F2496360
:10333000FB81FA8907F10C03104619460AF0F4F9EB
:1033400005F068FC224805F023FABB89184602F014
:10335000F7FF0346BB81BB89FA89104619460AF07C
:103360002FFA7B689BB21A46D200D31A9BB203F2A3
:103370004A63FB81FA8907F10C03104619460AF0EB
:10338000D3F905F047FC134805F002FABB8918464B
:1033900002F0D6FF0346BB810A2006F0EBF8BB899A
:1033A000FA89104619460AF00BFA05F033FC0A2098
:1033B00006F0E0F804F092FC1037BD4680BD00BF77
:1033C0009CDF0008B0DF0008C0DF0008D0DF000885
:1033D000DCDF0008ECDF000890B585B000AF00230B
:1033E000BB730023FB7305F015FC2F4805F0D0F9E3
:1033F000C82006F0BFF8BB7B184602F057FF034613
:10340000BB7305F007FC294805F0C2F9BB7B1846E1
:1034100004F002F9264805F0BBF906E01E2006F08C
:10342000A9F804F01DF80346FB73FB7B022B02D0C6
:10343000FB7B032BF2D1C82006F09CF8FB7B022B10
:1034400029D1BB7B1B0103F5C363BB60BB689BB287
:10345000184604F009FB7860BB7B1B0103F21A637A
:10346000BB6003F055FE3860BB689BB218463968F4
:1034700002F0D2FDBB7B1B0103F21C63BB60BB6887
:103480009CB203F045FE02467B68D31A0533204602
:10349000194602F0C1FD05F0BDFBC82006F06AF830
:1034A0001437BD4690BD00BF90DF0008F8DF00086C
:1034B00004E0000880B58EB000AF786001227B6820
:1034C00002FA03F3DAB2984B1B78DBB21343DBB298
:1034D000DAB2954B1A700120FFF778FA00233B828D
:1034E000002387F8363000233B630023BB620023B0
:1034F000FB600023FB62012006F03CF87B689BB276
:103500001B019BB203F21463FB84FA8C07F11403D2
:10351000104619460AF008F97B689BB21B019BB262
:1035200003F21663FB84FA8C07F10C03104619466C
:103530000AF0FAF803F0ECFD3863FB683A6B1344C9
:10354000BB62052006F016F80020FFF7ABF918E083
:1035500003F0DEFD3863BB8A012202FA03F3DAB21C
:10356000724B1B78DBB21340DBB287F8363097F82A
:103570003620BB8A42FA03F387F83630192005F06B
:10358000F9FF97F83630002B03D13A6BBB6A9A42A9
:10359000DED30020FFF71AFA4FF47A7005F0EAFF45
:1035A000002387F837307AE000237B8100233B62D9
:1035B0000023FB610023BB617B689BB21B019BB2B4
:1035C00003F5C363FB84FB8C184604F04DFAF861E5
:1035D0007B689BB21B019BB203F21A63FB84FB8CDA
:1035E000184604F041FAB86197F837309BB21A4692
:1035F000D200D31A9BB203F24963FB84FA8C07F121
:103600000A03104619460AF08FF803F081FD0246BE
:10361000BB69D21AFB69B2FBF3F33B627B893A6A5E
:10362000B2FBF3F3FB7500233B8197F837309BB275
:103630001A46D200D31A9BB203F5C963FB84FA8CF5
:1036400007F11203104619460AF06EF897F8373062
:103650009BB21A46D200D31A9BB203F24A63FB8490
:10366000FA8C07F10803104619460AF05DF87B8AC8
:103670001A467B689A420AD13B89012B07D1FB7D10
:10368000002B04D197F83730184600F0CFF80A2005
:1036900005F070FF97F83730013387F8373097F827
:1036A0003730082B80D97B689BB21B019BB203F299
:1036B0001763FB84FA8C07F10C03104619460AF0D5
:1036C00033F87B689BB21B019BB203F21E63FB8441
:1036D000FA8C07F11003104619460AF025F80A2063
:1036E00005F048FF03F014FD386303F011FD0246B6
:1036F000FB681344BB620A2005F03CFF7B689BB269
:103700001B019BB203F21563FB84FA8C07F11403CF
:10371000104619460AF008F8002387F837300123CD
:1037200087F8363047E000BFA31800200D1B0020AB
:103730000A2005F01FFFBB8A012202FA03F3DAB266
:10374000374B1B78DBB21340DBB287F8363097F883
:103750003620BB8A42FA03F387F83630314B1B68B8
:10376000DBB203F0010387F8373003F0D1FC0246E7
:10377000FB6A9A420DD997F83730012B09D197F897
:103780003630012B05D13B6B01333B6303F0C0FCAA
:10379000F862052005F0EEFE3B8ADAB297F83710A2
:1037A00097F836300B40DBB203F00103DBB2104672
:1037B000194602F0FBFB3A6BBB6A9A42B8D33B8ACC
:1037C000DBB21846002102F0F1FB0A2005F0D2FE20
:1037D0000120FFF767F87B689BB21B019BB203F2E5
:1037E0001C63FB8403F094FC0346FA8C10461946D4
:1037F00002F012FC01227B6802FA03F3DBB2DB4326
:10380000DAB2094B1B78DBB21340DBB2DAB2064BFB
:103810001A70C82005F0AEFE3837BD4680BD00BF27
:103820000D1B002094180020A318002080B586B03E
:1038300000AF786000237B617B689BB21A46D200A0
:10384000D31A9BB203F246637B827A8A07F1100394
:103850001046194609F068FF7B689BB21A46D200F1
:10386000D31A9BB203F245637B827A8A07F10E0377
:103870001046194609F058FF7B689BB21A46D200E1
:10388000D31A9BB203F247637B827A8A07F10C0357
:103890001046194609F048FF03F03AFC02463B8AFD
:1038A00013447B61FB89DBB21846012100F040F82C
:1038B00002E00A2005F05EFE03F02AFC02467B6966
:1038C0009A42F6D3FB89DBB21846002100F030F8AB
:1038D000BB89184600F004F81837BD4680BD00BF0C
:1038E00080B584B000AF0346FB800023FB6003F08B
:1038F0000FFC0246FB881344FB600C4B1B781846F8
:10390000012102F053FB02E00A2005F033FE03F030
:10391000FFFB0246FB689A42F6D3044B1B7818461D
:10392000002102F043FB1037BD4680BDDC1A0020A9
:1039300080B483B000AF02460B46FA71BB71BB790D
:10394000012B0DD1FB79012202FA03F3DAB22D4BE0
:103950001B78DBB21343DBB2DAB22A4B1A700EE0EB
:10396000FB79012202FA03F3DBB2DB43DAB2254B27
:103970001B78DBB21340DBB2DAB2224B1A70BB7990
:10398000C3F10103BB71FB79002B0AD11E4ABB793D
:103990009BB219464901C91A89000B44DB009BB24E
:1039A0009386FB79012B0AD1174ABB799BB2194642
:1039B0004901C91A89000B44DB009BB21387FB79CC
:1039C000022B0AD1104ABB799BB219464901C91A88
:1039D00089000B44DB009BB29387FB79032B0BD14F
:1039E000094ABB799BB219464901C91A89000B449F
:1039F000DB009BB2A2F840300C37BD465DF8047B7B
:103A0000704700BFA21800200004004080B58AB0B3
:103A100000AF7860002387F826300120FEF742FFD0
:103A20000020FEF7D3FF002387F827307EE00A202E
:103A300005F0A0FD97F827309BB21B019BB203F263
:103A40001C63BB84BB8C184604F00EF8386203F08C
:103A50005FFBF86197F827309BB21B019BB203F51F
:103A6000C363BB84BB8C184603F0FEFFB861FA69E0
:103A70003B6AD31A7B6197F827309BB21B019BB23C
:103A800003F21A63BB84BB8C184603F0EDFF386168
:103A900097F8273062339BB21B01BB84BB8C18465E
:103AA00003F0E2FFF86097F827309BB21B019BB24E
:103AB00003F21F63BB84BA8C07F10B03104619464F
:103AC00009F032FE0A2005F055FD97F82730012253
:103AD00002FA03F3DAB2184B1B78DBB21340DBB205
:103AE00087F8263097F8262097F8273042FA03F314
:103AF00087F826307A69BB699A420FD9FA693B691F
:103B00009A420BD9FA69FB689A4207D2FB7A012BD9
:103B100004D197F827301846FFF7CCFC0A2005F0AF
:103B200029FD97F82730013387F8273097F8273099
:103B3000022B7FF67CAF76E7A318002080B582B019
:103B400000AF4FF48030012105F0C0FB4FF400437B
:103B5000BB804823FB710323BB713B1D1F481946E3
:103B6000FDF7F0FE1E480121FDF7D8FF18233B703A
:103B700000237B700123BB700123FB703B4618467A
:103B800009F09EFA174B04221A80164B00225A8025
:103B9000144B01229A80134B0022DA80114B002231
:103BA0001A8111480F49FCF73BFD0F486021FCF7D3
:103BB00013FE0D480421FCF72BFE0B488021FCF777
:103BC00043FE09480121FCF7C3FD074804210122F7
:103BD000FCF7DEFD0837BD4680BD00BF000C01408C
:103BE00001000080841B00200040014080B400AF31
:103BF000074B074A526822F040425A60044B044A7D
:103C0000526842F080525A60BD465DF8047B7047AE
:103C1000000C014080B500AF48480421FCF786FE47
:103C20004648FCF775FE03461A46454B1A80444B3E
:103C30001B889BB2002B18D04048FCF75BFE034664
:103C4000642202FB03F23E4B1B889BB292FBF3F310
:103C50009AB23C4B1A803C4B1A68394B1B889BB27A
:103C6000B2FBF3F2394B1A6005E0364B00221A80A2
:103C7000364B00221A60364B1B780133DAB2344BD4
:103C80001A70334B1A78334B1B789A4255D9324B02
:103C90001B78002B51D12B4B1B889BB2192B19D9A8
:103CA000284B1B889BB2222B14D82C4B1B782B4AF9
:103CB00012782B498A5CD1B22A4A1278012000FA84
:103CC00002F2D2B2D243D2B20A40D2B2D1B2244A24
:103CD000D15411E0214B1B78204A127820498A5C8C
:103CE000D1B2204A1278012000FA02F2D2B20A437D
:103CF000D2B2D1B21A4AD1541A4B1B78002B16D12A
:103D0000184B07221A70154B1B780133DAB2134B8C
:103D10001A70124B1B78042B0FD10F4B01221A7013
:103D20000E4B00221A700F4B07221A7005E00D4B44
:103D30001B78013BDAB20B4B1A7080BD00040040C7
:103D40005E000020600000200000002064000020D1
:103D5000680000201A0000206A000020B21B00202A
:103D60009C1B0020921B002080B500AF424804211C
:103D7000FCF7DCFD404B1B8F9AB2404B1A803F4B47
:103D80001B889BB2002B0ED03B4B9B8E9BB26422B8
:103D900002FB03F2394B1B889BB292FBF3F39AB2FE
:103DA000374B1A8005E0364B00221A80354B002233
:103DB0001A60354B1B780133DAB2334B1A70324B31
:103DC0001A78324B1B789A4255D9314B1B78002B0D
:103DD00051D12B4B1B889BB2192B19D9284B1B880F
:103DE0009BB2222B14D82B4B1B782A4A12782A49D3
:103DF0008A5CD1B2294A1278012000FA02F2D2B2CA
:103E0000D243D2B20A40D2B2D1B2234AD15411E045
:103E1000204B1B781F4A12781F498A5CD1B21F4A77
:103E20001278012000FA02F2D2B20A43D2B2D1B221
:103E3000194AD154194B1B78002B16D1174B072266
:103E40001A70144B1B780133DAB2124B1A70114BF3
:103E50001B78042B0FD10E4B01221A700D4B002240
:103E60001A700E4B07221A7005E00C4B1B78013BB1
:103E7000DAB20A4B1A7080BD004001405E0000209B
:103E80006000002064000020680000201A0000206C
:103E90006A000020B21B00209C1B0020921B002007
:103EA00080B500AF02480221FCF740FD80BD00BF95
:103EB0000044014080B500AF09480221FCF736FDFF
:103EC000084B9B6803F40073002B04D1044B9B8CBC
:103ED0009AB2054B1A80024B00229A8480BD00BF23
:103EE00000480140000C0140641B002080B582B0F6
:103EF00000AF192005F03EFB0023FB7106E0FB79C3
:103F0000144A0021D154FB790133FB71FB79042B56
:103F1000F5D9114B00221A70104B00221A70FFF7CE
:103F200065FE0F4B4FF400425A61052005F022FB5D
:103F30000B4B4FF400421A61FFF700FEC82005F05A
:103F400019FB052005F016FB00F00CF80837BD46FC
:103F500080BD00BF9C1B0020680000206A0000207C
:103F6000000C014080B500AF0A2005F003FB644B54
:103F70001B78012B40F0C3800A2005F0FBFA614B4F
:103F80001B781B029AB25F4B5B7813449AB25E4B6C
:103F90005A805C4B9B781B029AB25A4BDB781344D5
:103FA0009AB2594B1A80574B5A79574B1A71564B44
:103FB0005A88564B1B889A4208D9534B5A88544BFF
:103FC0001B889A4202D2534B00221A704E4B5A88D9
:103FD0004E4B1B889A4202D24E4B01221A704A4B1A
:103FE0005A884B4B1B889A4202D94A4B02221A70BC
:103FF0000A2005F0BFFA444B1B88474AA2FB031274
:1040000092094FF47A7101FB02F29B1A9AB2434B68
:10401000A3FB02135B099BB2DBB23033DAB2404B35
:104020001A70394B1B883D4AA2FB031252096421C6
:1040300001FB02F29B1A9AB23A4BA3FB0213DB0874
:104040009BB2DBB23033DAB2354B5A70344B2E228E
:104050009A702D4B1A88334BA3FB0213D9080B46D9
:104060009B000B445B00D31A9BB2DBB23033DAB255
:104070002B4BDA700A2005F07DFA234B5B88264A29
:10408000A2FB031292094FF47A7101FB02F29B1A10
:104090009AB2224BA3FB02135B099BB2DBB2303313
:1040A000DAB2214B1A70184B5B881C4AA2FB031230
:1040B0005209642101FB02F29B1A9AB2194BA3FB2D
:1040C0000213DB089BB2DBB23033DAB2164B5A7004
:1040D000154B2E229A700C4B5A88124BA3FB0213DD
:1040E000D9080B469B000B445B00D31A9BB2DBB292
:1040F0003033DAB20C4BDA70014B00221A7080BDFB
:104100006A0000209C1B0020201B0020B41B002004
:10411000FC1A002071000020D34D62101F85EB5166
:10412000A41B0020CDCCCCCC3C1B002080B582B0A1
:1041300000AF0023FB710023BB713EE01E2005F0A1
:1041400019FA03F08DF90346FB710020002104F0F9
:1041500055FB1E4B1B78184603F05EFA1C4804F012
:1041600017FBFB79042B05D1184B1B780133DAB20E
:10417000164B1A70FB79012B05D1144B1B78013BB0
:10418000DAB2124B1A700120002104F037FB1148FB
:1041900004F0FEFA104811490422022303F05EF8ED
:1041A0000120072104F02AFB0D4804F0F1FA0D4824
:1041B0000A4904220A2303F051F8FB79022BBDD1EE
:1041C00004F028FD0837BD4680BD00BF1A0000205E
:1041D00008E000080CE00008A41B00208400002078
:1041E00010E000083C1B002080B483B000AF034601
:1041F000FB80FA88094B1B68D21A13469B001344B4
:104200005B001A46064B1B68B2FBF3F3DBB21846A1
:104210000C37BD465DF8047B704700BFA800002046
:10422000B400002080B483B000AF0346FB71FB797B
:104230000A4A126802FB03F3094A82FB0312921036
:10424000DB17D31A9AB2074B1B689BB213449BB27D
:1042500018460C37BD465DF8047B7047B40000205B
:1042600067666666A800002080B582B000AF0023B4
:10427000BB800023FB7104F0CDFC284804F088FAD1
:104280000A2005F077F93B1D40F20460194609F059
:104290004BFABB881846FFF7A7FF0346FB71FB7973
:1042A000184600F085F90346FB710A2005F062F913
:1042B000FB791846FFF7B6FF034640F20460194643
:1042C00009F07EFA04F0A6FC154804F061FA0A2011
:1042D00005F050F93B1D40F20560194609F024FA3B
:1042E000BB881846FFF780FF0346FB71FB79184631
:1042F00000F05EF90346FB710A2005F03BF9FB79FB
:104300001846FFF78FFF034640F20560194609F093
:1043100057FA04F07FFC0837BD4680BD14E0000862
:1043200094DE000880B584B000AF0346FB71002323
:10433000FB73FB793E4AA3FB02015A1A52080A4456
:104340009209652101FB02F29B1AFB7167E003F001
:1043500087F80346FB730120032104F04FFAFA7932
:10436000344B83FB02139911D317CB1A4FF47A7194
:1043700001FB03F3D31A304A82FB03125211DB17FD
:10438000D31ADBB23B72FB792B4AA2FB0312520910
:10439000642101FB02F29B1ADAB2284BA3FB021341
:1043A000DB08DBB27B72FA79244BA3FB0213D9083A
:1043B0000B469B000B445B00D31ADBB2BB72204858
:1043C00004F0E6F907F1080318461E490322062304
:1043D00002F044FF01200C2104F010FA1A4804F006
:1043E000D7F90A2005F0C6F8FB7B042B08D1FB792E
:1043F000632B03D8FB790133FB7101E00023FB71D0
:10440000FB7B012B08D1FB79002B02D10023FB7130
:1044100002E0FB79013BFB710A2005F0ABF8FB7B66
:10442000022B94D1FB7918461037BD4680BD00BFE2
:1044300057866F44D34D62101F85EB51CDCCCCCC49
:1044400024E000088400002028E0000880B582B045
:1044500000AF0023BB800023FB7104F0DBFB20488E
:1044600004F096F90A2005F085F83B1D40F207603C
:10447000194609F059F9BB88DBB21846FFF752FF1D
:104480000346FB710A2005F075F8FB799BB240F2F8
:104490000760194609F094F904F0BCFB114804F0D8
:1044A00077F90A2005F066F83B1D4FF4C160194604
:1044B00009F03AF9BB88DBB21846FFF733FF034631
:1044C000FB710A2005F056F8FB799BB24FF4C160EE
:1044D000194609F075F904F09DFB0837BD4680BD0B
:1044E0002CE000083CE0000880B582B000AF034635
:1044F0003960FB713B68DA1CF9792C4BA3FB010393
:10450000DB08DBB219464901C91A8900CB1A5B00E6
:10451000D9B2FB790B44DBB23033DBB21370052028
:1045200005F028F8FA79214BA3FB0213DB08FB7195
:104530003B6802332E221A703B685A1CF9791B4BD8
:10454000A3FB0103DB08DBB219464901C91A890044
:10455000CB1A5B00D9B2FB790B44DBB23033DBB250
:104560001370052005F006F8FA79104BA3FB02132F
:10457000DB08FB71FA790D4BA3FB0203DB08DBB20E
:104580001A465201D21A9200D31A5B00DAB2FB79B2
:104590001344DBB23033DAB23B681A703B68043341
:1045A00000221A700837BD4680BD00BFCDCCCCCCF0
:1045B00080B584B000AF0346FB710023FB733EE07F
:1045C00002F04EFF0346FB730120032104F016F9AD
:1045D000FA7907F1080310461946FFF785FF1C48D2
:1045E00004F0D6F807F1080318461A4904220623F6
:1045F00002F034FE01200C2104F000F9164804F00A
:10460000C7F80A2004F0B6FFFB7B042B08D1FB7926
:10461000FD2B03D8FB790133FB7101E00023FB7113
:10462000FB7B012B08D1FB79002B02D10023FB710E
:1046300002E0FB79013BFB710A2004F09BFFFB7B4E
:10464000022BBDD1FB7918461037BD4680BD00BF97
:1046500024E000088400002028E0000880B58AB02B
:1046600000AF7860396000233B767968AC4BA3FBE0
:104670000123DA0813469B0013445B00CA1AD3B225
:104680003033DBB2FB757A68A54BA3FB0213DB0862
:104690007B607968A24BA3FB0123DA0813469B00D9
:1046A00013445B00CA1AD3B23033DBB2BB757A68ED
:1046B0009B4BA3FB0213DB087B607968984BA3FB41
:1046C0000123DA0813469B0013445B00CA1AD3B2D5
:1046D0003033DBB27B757A68914BA3FB0213DB08A6
:1046E0007B6079688E4BA3FB0123DA0813469B009D
:1046F00013445B00CA1AD3B23033DBB23B757A681D
:10470000874BA3FB0213DB087B607968844BA3FB18
:104710000123DA0813469B0013445B00CA1AD3B284
:104720003033DBB2FB747A687D4BA3FB0213DB08EA
:104730007B6079687A4BA3FB0123DA0813469B0060
:1047400013445B00CA1AD3B23033DBB2BB741920F6
:1047500004F010FF7A68724BA3FB0213DB087B6046
:1047600079686F4BA3FB0123DA0813469B001344BF
:104770005B00CA1AD3B23033DBB27B747A68684B01
:10478000A3FB0213DB087B607968654BA3FB012365
:10479000DA0813469B0013445B00CA1AD3B23033C5
:1047A000DBB23B747A685E4BA3FB0213DB087B60D1
:1047B00079685B4BA3FB0123DA0813469B00134483
:1047C0005B00CA1AD3B23033DBB2FB737A68544B46
:1047D000A3FB0213DB087B607968514BA3FB012329
:1047E000DA0813469B0013445B00CA1AD3B2303375
:1047F000DBB2BB737A684A4BA3FB0213DB087B6016
:104800007968474BA3FB0123DA0813469B00134446
:104810005B00CA1AD3B23033DBB27B737A68404B89
:10482000A3FB0213DB087B6079683D4BA3FB0123EC
:10483000DA0813469B0013445B00CA1AD3B2303324
:10484000DBB23B737A68364BA3FB0213DB087B6059
:104850007968334BA3FB0123DA0813469B0013440A
:104860005B00CA1AD3B23033DBB2FB727A682C4BCE
:10487000A3FB0213DB087B607968294BA3FB0123B0
:10488000DA0813469B0013445B00CA1AD3B23033D4
:10489000DBB2BB727A68224BA3FB0213DB087B609E
:1048A00079681F4BA3FB0123DA0813469B001344CE
:1048B0005B00CA1AD3B23033DBB27B727A68184B12
:1048C000A3FB0213D908164BA3FB0123DA081346F6
:1048D0009B0013445B00CA1AD3B23033DBB23B7285
:1048E00000233B6207F108023B6A13441B78FB611B
:1048F0003023FB61192004F03DFE08E03B6A0133E0
:104900003B6207F108023B6A13441B78FB61FB69B9
:10491000302BF3D0192004F02DFE3B6A7B620FE0B0
:10492000CDCCCCCC7A6A3B6AD31A3A68134407F1EF
:1049300008017A6A0A4412781A707B6A01337B6232
:104940007B6A102BEEDD3B6818462837BD4680BDDC
:1049500080B485B000AF78607B68FA2202FB03F375
:10496000FB6000BFFB685A1EFA60002BFAD11437B7
:10497000BD465DF8047B704780B584B000AF04F09D
:1049800049F90020002103F039FF9548012102F088
:10499000D5F847F23050FFF7DBFF00F055FD6420FB
:1049A000FFF7D6FF8F4B1B88BB800020002103F050
:1049B00025FF8D48022102F0C1F847F23050FFF781
:1049C000C7FF00F041FD6420FFF7C2FF854B1B8845
:1049D000FB800020002103F011FF8448062102F033
:1049E000ADF847F23050FFF7B3FF00F02DFD642023
:1049F000FFF7AEFF7B4B1B883B8104F00BF97C4833
:104A0000012102F09BF847F23050FFF7A1FF00F0C0
:104A10001BFD6420FFF79CFF724B1B887B817B8909
:104A2000DB089AB2BB88DB089BB29A4203D2714B77
:104A300001221A700EE07B89DB089AB2BB88DB0882
:104A40009BB29A4203D96B4B00221A7002E0694B69
:104A500002221A70674B1B78002B54D1FB881A4630
:104A6000BB88D31ADA0F13445B109BB2053BFB8162
:104A7000BA88FB895B089BB2D31A9AB25E4B1A8044
:104A8000BA88FB8913449AB25B4B5A80FA88FB8937
:104A9000D31A9AB2584B9A803B891A46FB88D31A8C
:104AA000DA0F13445B109BB2053BFB81FA88FB894C
:104AB00013449AB2504BDA803A89FB89D31A9AB2DE
:104AC0004D4B1A817B891A463B89D31ADA0F13445E
:104AD0005B109BB2053BFB813A89FB8913449AB278
:104AE000454B5A817A89FB89D31A9AB2424B9A81F3
:104AF0007A89FB895B089BB213449AB23E4BDA81F8
:104B000000F05CF959E03B4B1B78012B50D1BB887E
:104B10001A46FB88D31ADA0F13445B109BB2053B8D
:104B2000FB81BA88FB89D31A9AB2334B1A80BA88B0
:104B3000FB8913449AB2304B5A80FA88FB89D31A06
:104B40009AB22D4B9A80FB881A463B89D31ADA0F0A
:104B500013445B109BB2053BFB81FA88FB8913442D
:104B60009AB2254BDA803A89FB89D31A9AB2224B42
:104B70001A813B891A467B89D31ADA0F13445B10DA
:104B80009BB2053BFB813A89FB8913449AB21A4BCD
:104B90005A817A89FB89D31A9AB2174B9A817A89FA
:104BA000FB8913449AB2144BDA8100F007F904E050
:104BB000124803F0EDFD00F01FF90F4B1A880E4B61
:104BC0001B8A9A4202D90B4B01221A700020002145
:104BD00003F014FE0A4803F0DBFD1037BD4680BD2C
:104BE00024E000087C1B002068E600086CE6000852
:104BF00028E0000896000020101B002074E6000842
:104C000084E6000880B582B000AF0023FB7104F099
:104C100001F84FF4FA7004F0ADFC5EE002F020FC05
:104C20000346FB710020002103F0E8FD2F4803F04C
:104C3000AFFD2F4B1A882F4BA3FB02135B099BB2CE
:104C4000DBB2184602F0E8FC294B1B88DBB21846A1
:104C500002F0E2FC284803F09BFD254B5A88254BC7
:104C6000A3FB02135B099BB2DBB2184602F0D4FC33
:104C70001F4B5B88DBB2184602F0CEFC01200021FE
:104C800003F0BCFD1D4803F083FD194B9A88194BB6
:104C9000A3FB02135B099BB2DBB2184602F0BCFC1B
:104CA000134B9B88DBB2184602F0B6FC144803F0A5
:104CB0006FFD0F4BDA880F4BA3FB02135B099BB20E
:104CC000DBB2184602F0A8FC094BDB88DBB21846C1
:104CD00002F0A2FC142004F04DFCFB79022B9DD1C4
:104CE00003F098FF0837BD4680BD00BFD8DD00083F
:104CF0007C1B00201F85EB5190E60008E0DD0008DA
:104D000094E6000880B582B000AF0023FB71002359
:104D1000BB7103F07FFF4FF4FA7004F02BFC3CE012
:104D200002F09EFB0346FB710020002103F066FDAC
:104D3000022004F01FFC0023BB7108E0BB791B4A72
:104D4000D35C1846FCF772FFBB790133BB71BB79AA
:104D5000042BF3D9012004F00DFC0120002103F005
:104D60004DFD124B5B791846FCF760FF0F4B9B79AA
:104D70001846FCF75BFF0E4803F00AFD0D4B1B883D
:104D8000DBB2184602F048FC08480B490722092309
:104D900002F064FA142004F0EDFBFB79022BBFD182
:104DA00003F038FF0837BD4680BD00BF301B002030
:104DB000C4DE00085A0000208400002080B582B0C4
:104DC00000AF0023FB710FE0FB799BB203F20A6393
:104DD0009AB2F979074B33F811301046194608F0AA
:104DE000EFFCFB790133FB71FB79072BECD908371A
:104DF000BD4680BD101B002080B582B000AF0023EF
:104E0000FB710FE0FB799BB203F20A639AB2FB7964
:104E10005900074B0B441046194608F085FCFB79F6
:104E20000133FB71FB79072BECD90837BD4680BDF8
:104E3000101B002080B58AB000AF7860962004F087
:104E400099FB02F065F93862022004F093FBA54B50
:104E50001B683A6A9A4240F2AE8102F059F9024662
:104E6000A04B1A6007F10C03386A194602F0B6FC31
:104E7000022004F07FFB00237B620BE007F10C02B1
:104E80007B6A13441A7898497B6A0B441A707B6AD0
:104E900001337B627B6A092BF0DD022004F06AFBA0
:104EA000914B2C229A72022004F064FB04F0C4FBA4
:104EB00000237B6212E07B6A0B338C497A6A0A44D6
:104EC0001178894AD1547B6A103389497A6A0A4435
:104ED0001178854AD1547B6A01337B627B6A032B4C
:104EE000E9DD04F0B7FB022004F044FB7E4B2C22EA
:104EF000DA737D4B2C221A750023FB8300237B621F
:104F000019E001227B6A02FA03F39AB2794B1B681B
:104F10009BB21340FB83FA8B7B6A42FA03F3FB8359
:104F20007B6A1533FA8BD2B23032D1B26E4AD15489
:104F30007B6A01337B627B6A022BE2DD6A4B2C22A7
:104F40001A766D4868490422192302F087F9664BE6
:104F50002C225A776948644904221E2302F07EF904
:104F6000614B2C2283F8222000237B621AE0644BE1
:104F70001B781A4601217B6A01FA03F39BB21340A6
:104F80009BB2FB83FA8B7B6A42FA03F3FB837B6A57
:104F90002333FA8BD2B23032D1B2534AD1547B6A26
:104FA00001337B627B6A022BE1DD4F4B2C2283F8BD
:104FB000262000237B621BE0524B9B689AB27B6ADF
:104FC0000633012101FA03F39BB21340FB83FA8BF2
:104FD0007B6A063342FA03F3FB837B6A2733FA8B3F
:104FE000D2B23032D1B2404AD1547B6A01337B62B3
:104FF0007B6A022BE0DD3C4B2C2283F82A20002325
:105000007B621AE0404B1B781A4601217B6A01FA49
:1050100003F39BB213409BB2FB83FA8B7B6A42FA89
:1050200003F3FB837B6A2B33FA8BD2B23032D1B2DB
:105030002D4AD1547B6A01337B627B6A022BE1DD0E
:10504000294B2C2283F82E2000237B621BE02D4B62
:10505000DB689AB27B6A0B33012101FA03F39BB23E
:105060001340FB83FA8B7B6A0B3342FA03F3FB8317
:105070007B6A2F33FA8BD2B23032D1B21A4AD15472
:105080007B6A01337B627B6A022BE0DD164B2C22AC
:1050900083F8322000237B621AE01B4B1B781A46F0
:1050A00001217B6A01FA03F39BB213409BB2FB839D
:1050B000FA8B7B6A42FA03F3FB837B6A3333FA8B06
:1050C000D2B23032D1B2084AD1547B6A01337B620A
:1050D0007B6A022BE1DD044B2C2283F8362000236F
:1050E0007B622EE0BC000020B81B0020941B002037
:1050F000A81B00204C1B0020A41B00203C1B0020F0
:105100000D1B002000080140281B0020304B1B789D
:105110001A4601217B6A01FA03F39BB213409BB24A
:10512000FB83FA8B7B6A42FA03F3FB837B6A373398
:10513000FA8BD2B23032D1B2264AD1547B6A0133D3
:105140007B627B6A022BE1DD224B2C2283F83A2022
:1051500000237B621AE0204B1B781A4601217B6AF0
:1051600001FA03F39BB213409BB2FB83FA8B7B6A79
:1051700042FA03F3FB837B6A3B33FA8BD2B23032C1
:10518000D1B2144AD1547B6A01337B627B6A022B11
:10519000E1DD104B0D2283F83E200E4B0A2283F8EE
:1051A0003F200E4B00221A700A48402100F018F8E8
:1051B000022004F0DFF9022004F0DCF9FEF796FE8D
:1051C000FDF730FBFDF74AFB08F0FAFC39E600BFBB
:1051D000A2180020B81B0020A31800205C000020AB
:1051E00080B588B000AF786039602E4B1B68002B0B
:1051F00051D12D4A07F10C0307CA03C31A800233A9
:10520000120C1A7004F018FA07F10C03274819461B
:10521000032207F043F90346FB77FB7F002B0DD0F9
:1052200007F10C03214819460A2207F037F9034613
:10523000FB77FB7F002B01D0FB7F2FE01B4BDB6854
:105240001A48194607F0A8FC0346FB77FB7F002BA2
:1052500001D0FB7F22E03A6807F118031348796810
:1052600007F058FA0346FB77FB7F002B01D0FB7F4A
:1052700014E00E4807F0D4FB0346FB77FB7F002BBE
:1052800001D0FB7F0AE0094807F072FC0346FB7778
:1052900004F0E0F901E00023FB77FB7F184620379C
:1052A000BD4680BDF81A002098E60008C80000201E
:1052B00080B584B000AF0023FB6046E002F0D0F878
:1052C0000346FB60052004F055F90020002103F09F
:1052D00095FA554803F05CFA052004F04BF940F2CA
:1052E0000160524908F020FA504B1B881A463B1DBA
:1052F0001046194602F058FB3B1D18464C49042243
:10530000082301F0ABFF0120052103F077FA494B98
:105310009B881A463B1D1046194602F045FB3B1D73
:10532000184603F035FA0A2004F024F90120002180
:1053300003F064FA00F028F90A2004F01BF93E4853
:1053400003F026FA642004F015F9FB68022BB5D1AE
:10535000384B9B887B817B8940F20160194608F0BD
:105360002FFA0023FB600020002103F047FA3348A6
:1053700003F00EFA4FF4FA6004F0FCF842E002F099
:105380006FF80346FB6003F045FC192004F0F2F8C7
:105390000020002103F032FA294803F0F9F9002037
:1053A000082103F02BFA00F0EFF8264B1B881A4671
:1053B0003B1D10461946FFF751F93B1D184603F0F7
:1053C000E7F90120052103F019FA1A4BDB881A4688
:1053D0003B1D10461946FFF741F93B1D184603F0E7
:1053E000D7F9192004F0C6F80120002103F006FACD
:1053F000192004F0BFF8104803F0CAF94FF4FA700E
:1054000004F0B8F8FB68022BB9D10A4B9B887B816A
:10541000084BDB884FF4C060194608F0D1F902F060
:105420005DFC1037BD4680BDA4E60008A400002046
:10543000740000207C1B0020941B0020ACE60008B8
:10544000BCE60008AC00002080B487B000AF0023A9
:105450007B6100233B610023FB600023BB600023D2
:105460007B6000233B6000233B6157E000237B61AE
:1054700026E07B695A1C3D4B33F812103B4B7A698E
:1054800023F812107B695A1C394B33F81210384B31
:105490007A6923F812107B695A1C364B33F81210C4
:1054A000344B7A6923F812107B695A1C324B33F85B
:1054B0001210314B7A6923F812107B6901337B613A
:1054C0007B69082BD5DD2D4BDB6B9AB2274B5A82BB
:1054D0002A4B1B6C9AB2264B5A82284B5B6C9AB2B1
:1054E000244B5A82254B9B6C9AB2234B5A821F4BFA
:1054F0005B8AFA681344FB601D4B5B8ABA681344ED
:10550000BB601C4B5B8A7A6813447B601A4B5B8AD6
:105510003A6813443B603B6901333B613B69082BAC
:10552000A4DDFA68164BA3FB0213DB089AB2154BF5
:105530001A80BA68124BA3FB0213DB089AB2114B14
:105540005A807A680E4BA3FB0213DB089AB20D4B0C
:105550009A803A680A4BA3FB0213DB089AB2094B04
:10556000DA801C37BD465DF8047B7047681B00205D
:10557000E01A00204C1800206C1800200024014084
:10558000CDCCCCCC7C1B002080B584B000AF0023F8
:10559000FB600023BB60052003F0ECFF464B9A88BC
:1055A000464B1B889A4203D9454B02221A700CE0E5
:1055B000414B9A88434B1B889A4203D2404B0122AD
:1055C0001A7002E03E4B00221A703B4BDA883E4BC9
:1055D0001B889A4203D93D4B02221A700CE0364BCD
:1055E000DA883B4B1B889A4203D2384B01221A704F
:1055F00002E0364B00221A70052003F0BBFF2E4B51
:10560000DB881A46334B1B68D21A13469B0013449F
:105610005B001A46304B1B68B2FBF3F37B607B6880
:10562000DAB22E4B1A7079682D4BA3FB0123DA08EE
:1056300013469B0013445B00CA1AD3B23033DAB26C
:10564000284BDA70052003F095FF7A68244BA3FB02
:105650000213DB087B60234B2E229A707968204B63
:10566000A3FB0123DA0813469B0013445B00CA1A0C
:10567000D3B23033DAB21B4B5A70052003F07AFFF5
:105680007A68174BA3FB0213DB087B607968144B25
:10569000A3FB0123DA0813469B0013445B00CA1ADC
:1056A000D3B23033DAB20F4B1A700E4B00221A719C
:1056B0001037BD4680BD00BF7C1B0020901B002022
:1056C000BA000020261B002066180020BB00002026
:1056D00080180020A8000020B4000020B90000209D
:1056E000CDCCCCCC941B002080B584B000AF00237F
:1056F000BB60052003F03EFF434BDA88434B1B8819
:105700009A4203D9424B02221A700CE03E4BDA88CF
:10571000404B1B889A4203D23D4B01221A7002E093
:105720003B4B00221A70052003F024FF3A4B1B88E4
:105730001A463A4B1B88D31A642202FB03F3384AF9
:1057400082FB03125211DB17D31A7B602E4BDA88CF
:10575000324B1B889A420ED92B4BDB881A462F4BB3
:105760001B88D31A642202FB03F31A467B68B2FB40
:10577000F3F3FB6001E00023FB60FB68DAB2294B26
:105780001A70294B00221A71F968284BA3FB0123D8
:10579000DA0813469B0013445B00CA1AD3B23033B5
:1057A000DAB2214BDA70FA68204BA3FB0213DB0854
:1057B000FB60F9681D4BA3FB0123DA0813469B002D
:1057C00013445B00CA1AD3B23033DAB2164B9A7064
:1057D000154B2E225A70FA68144BA3FB0213DB08F8
:1057E000FB60F968114BA3FB0123DA0813469B0009
:1057F00013445B00CA1AD3B23033DAB20A4B1A70C0
:105800001037BD4680BD00BF7C1B002066180020FD
:10581000BB00002080180020AE000020B000002057
:105820001F6B193AB8000020A81B0020CDCCCCCCAF
:1058300080B584B000AF0346FB710023FB7303F017
:10584000E9F90020002102F0D9FF1F4802F0A0FF73
:10585000FB790133FB71FB79184601F0DDFE1B4833
:1058600002F096FFFB79013BFB71FB799BB203F2DF
:10587000FF53BB81BA8907F10A031046194607F0A6
:1058800053FF322003F076FE7B89DBB2184600F02E
:105890000DFD03467B81322003F06CFEFB799BB249
:1058A00003F2FF53BB817B89BA891046194607F082
:1058B00087FF052003F05EFE02F010FA052003F0DA
:1058C00059FE1037BD4680BD1CE7000824E70008DC
:1058D00080B500AF03F09EF9044802F059FF4FF481
:1058E000FA7003F047FE03F095F980BD68E6000802
:1058F00080B588B000AF786001F00AFCB861002381
:10590000FB7772E0FB7F9BB21A46D20013449BB236
:1059100003F2DA53FB82FB8A184602F0A5F83861DD
:10592000FB8A02339BB2184602F09EF8F8603B698E
:10593000584AA2FB0312120C574901FB02F29B1AB0
:105940003B61FB68534AA2FB0312120C524901FB54
:1059500002F29B1AFB60BB694E4AA2FB0312120CB7
:105960004D4901FB02F29B1ABB61012003F002FECC
:10597000012003F0FFFDBA69FB689A4206D2BA69BA
:105980003B699A4202D90123BB7701E00023BB7730
:105990003A69FB689A420CD9BA693B699A4206D2C5
:1059A000BA69FB689A4202D90023BB7701E0012360
:1059B000BB77BB7F012B0AD1FB7F012202FA03F3E5
:1059C0001A46364B1B681A43344B1A600AE0FB7FB9
:1059D000012202FA03F3DB431A46304B1B681A40DC
:1059E0002E4B1A60FB7F0133FB77FB7F022B89D99B
:1059F000012003F0BFFD0023FB7747E0FB7F9BB254
:105A00001A46920013449BB203F5B863FB82FB8AEB
:105A1000184602F029F83861FB8A02339BB2184617
:105A200002F022F8F860012003F0A4FD01F070FB01
:105A3000B861BB69FA68B3FBF2F2F96801FB02F2E4
:105A40009B1ABB61BA693B699A420CD20123BB77AE
:105A5000FB7F012202FA03F31A46114B1B681A431B
:105A60000F4B1A600CE00023BB77FB7F012202FA88
:105A700003F3DB431A460A4B1B681A40084B1A60B3
:105A8000012003F077FDFB7F0133FB77FB7F022BC7
:105A9000B4D931E707452EC280510100001B002018
:105AA0009418002080B584B000AF7860A14B1B78BB
:105AB000332B00F02A8100233B7322E100237B7308
:105AC0003B7B9D4AD35CBB73BB7B1F2B0ED8BB7B40
:105AD000012202FA03F3DAB2984B1B68DBB21340DF
