:020000040800F2
:10000000FC1F0020090B0008690B0008690B0008A1
:10001000690B0008690B0008690B0008000000006C
:10002000000000000000000000000000C5B3000850
:10003000690B00080000000099B40008D5B400085E
:10004000690B0008690B0008690B0008690B0008C0
:10005000690B0008690B0008F52E0008112F000835
:100060002D2F0008690B0008690B0008690B0008B8
:10007000690B0008690B00082129000835290008D0
:10008000690B0008690B0008690B000800000000FC
:10009000000000000000000000000000592F0008D0
:1000A000B1420008E943000811440008690B000848
:1000B000690B00085D410008690B0008690B000826
:1000C000690B0008690B0008690B0008690B000840
:1000D000690B000865210008690B0008690B00081E
:1000E000392F0008690B0008690B000800000000A8
:1000F0000000000000000000000000000000000000
:1001000000000000000000000000000000000000EF
:100110000000000000000000690B0008690B0008E7
:100120005FF808F180B485B000AF786039600023D3
:10013000FB817B681B88FB817A682E4B9A4213D027
:100140007A682D4B9A420FD07B68B3F1804F0BD069
:100150007A682A4B9A4207D07A68294B9A4203D090
:100160007A68284B9A4208D1FB8923F07003FB81FF
:100170003B685A88FB891343FB817A68224B9A4279
:100180000CD07A68214B9A4208D0FB8923F4407343
:10019000FB813B68DA88FB891343FB817B68FA8922
:1001A0001A803B689A887B689A853B681A887B68C6
:1001B0001A857A680F4B9A420FD07A680E4B9A4292
:1001C0000BD07A68124B9A4207D07A68114B9A4248
:1001D00003D07A68104B9A4204D13B681B7A1A46C6
:1001E0007B681A867B6801229A821437BD465DF8C7
:1001F000047B7047002C01400034014000040040A3
:1002000000080040000C00400010004000140040B6
:1002100000400140004401400048014080B485B0E6
:1002200000AF7860396000237B810023FB810023CD
:10023000BB817B681B8C9BB223F001039AB27B6865
:100240001A847B681B8CFB817B689B88BB817B68E5
:100250001B8B7B817B8923F070037B817B8923F05F
:1002600003037B813B681A887B8913437B81FB896D
:1002700023F00203FB813B681A89FB891343FB814E
:100280003B685A88FB891343FB817A68244B9A4266
:100290000FD07A68234B9A420BD07A68224B9A424D
:1002A00007D07A68214B9A4203D07A68204B9A4251
:1002B00023D1FB8923F00803FB813B685A89FB8922
:1002C0001343FB81FB8923F00403FB813B689A887D
:1002D000FB891343FB81BB8923F48073BB81BB89FA
:1002E00023F40073BB813B689A89BB891343BB81AC
:1002F0003B68DA89BB891343BB817B68BA899A80E2
:100300007B687A891A833B68DA887B689A867B687F
:10031000FA891A841437BD465DF8047B704700BF24
:10032000002C0140003401400040014000440140E5
:100330000048014080B485B000AF78603960002388
:100340007B810023FB810023BB817B681B8C9BB2DC
:1003500023F010039AB27B681A847B681B8CFB81A4
:100360007B689B88BB817B681B8B7B817B8923F4AB
:10037000E0437B817B8923F440737B813B681B884E
:100380001B029AB27B8913437B81FB8923F02003F4
:10039000FB813B681B891B019AB2FB891343FB81DC
:1003A0003B685B881B019AB2FB891343FB817A6827
:1003B000224B9A4203D07A68214B9A422BD1FB8977
:1003C00023F08003FB813B685B891B019AB2FB89A8
:1003D0001343FB81FB8923F04003FB813B689B882F
:1003E0001B019AB2FB891343FB81BB8923F4806311
:1003F000BB81BB8923F40063BB813B689B899B0065
:100400009AB2BB891343BB813B68DB899B009AB2DC
:10041000BB891343BB817B68BA899A807B687A89E0
:100420001A833B68DA887B681A877B68FA891A84A2
:100430001437BD465DF8047B704700BF002C0140B7
:100440000034014080B485B000AF7860396000238B
:100450007B810023FB810023BB817B681B8C9BB2CB
:1004600023F480739AB27B681A847B681B8CFB81AF
:100470007B689B88BB817B689B8B7B817B8923F01E
:1004800070037B817B8923F003037B813B681A889F
:100490007B8913437B81FB8923F40073FB813B68D9
:1004A0001B891B029AB2FB891343FB813B685B8863
:1004B0001B029AB2FB891343FB817A68224B9A4252
:1004C00003D07A68214B9A422BD1FB8923F4006335
:1004D000FB813B685B891B029AB2FB891343FB815A
:1004E000FB8923F48063FB813B689B881B029AB2E3
:1004F000FB891343FB81BB8923F48053BB81BB89F8
:1005000023F40053BB813B689B891B019AB2BB89D2
:100510001343BB813B68DB891B019AB2BB89134340
:10052000BB817B68BA899A807B687A899A833B68A9
:10053000DA887B689A877B68FA891A841437BD4603
:100540005DF8047B704700BF002C0140003401407F
:1005500080B485B000AF786039600023BB81002390
:100560007B810023FB817B681B8C9BB223F480532F
:100570009AB27B681A847B681B8C7B817B689B8822
:10058000FB817B689B8BBB81BB8923F4E043BB81F0
:10059000BB8923F44073BB813B681B881B029AB262
:1005A000BB891343BB817B8923F400537B813B6868
:1005B0001B891B039AB27B8913437B813B685B8851
:1005C0001B039AB27B8913437B817A68124B9A4250
:1005D00003D07A68114B9A420AD1FB8923F48043F5
:1005E000FB813B689B899B019AB2FB891343FB818A
:1005F0007B68FA899A807B68BA899A833B68DA8833
:100600007B68A3F840207B687A891A841437BD463A
:100610005DF8047B704700BF002C014000340140AE
:1006200080B584B000AF786039600023FB8101237E
:10063000BB813B685B88002B02D10223FB8101E078
:100640000023FB813B689B88012B02D10223BB81E5
:1006500001E00123BB813B681B88002B1CD13B6858
:1006600059883B689A883B681B89786800F06EF966
:100670003B68DB887868194600F002F93B681B8903
:10068000F989BA89786800F0CBF93B68DB8878682B
:10069000194600F011F91BE03B6859883B689A88BD
:1006A0003B681B89786800F0BBF93B68DB88786899
:1006B000194600F001F93B681B89F989BA89786805
:1006C00000F044F93B68DB887868194600F0D8F8F8
:1006D0001037BD4680BD00BF80B483B000AF7860E6
:1006E0007B684FF6FF729A807B6800221A807B68D5
:1006F0000022DA807B6800225A807B6800221A720E
:100700000C37BD465DF8047B704700BF80B483B0F2
:1007100000AF78607B6800221A807B6800225A80D4
:100720007B6800229A807B680022DA807B68002246
:100730001A817B6800225A817B6800229A817B683B
:100740000022DA810C37BD465DF8047B704700BF9C
:1007500080B483B000AF78600B46FB70FB78002B51
:1007600008D07B681B889BB243F001039AB27B6878
:100770001A8007E07B681B889BB223F001039AB2C2
:100780007B681A800C37BD465DF8047B704700BF5C
:1007900080B483B000AF786013460A467A807B70DD
:1007A0007B78002B08D07B689B899AB27B881343A7
:1007B0009AB27B689A8109E07B689B899AB27B88B0
:1007C000DB439BB213409AB27B689A810C37BD46DB
:1007D0005DF8047B704700BF80B485B000AF7860DF
:1007E0000B467B800023FB817B681B89FB81FB8997
:1007F00023F07003FB81FA897B881343FB817B68BC
:10080000FA891A811437BD465DF8047B704700BF32
:1008100080B483B000AF78600B467B807B681B8917
:100820009BB223F007039AB27B681A817B681B890D
:100830009AB27B8813439AB27B681A810C37BD4603
:100840005DF8047B704700BF80B483B000AF786070
:100850000B467B807B681B899BB223F080039AB296
:100860007B681A817B681B899AB27B8813439AB292
:100870007B681A810C37BD465DF8047B704700BF6A
:1008800080B483B000AF78600B467B807B681B8BA5
:100890009BB223F00C039AB27B681A837B681B8B94
:1008A0009AB27B8813439AB27B681A830C37BD4691
:1008B0005DF8047B704700BF80B483B000AF786000
:1008C0000B467B807B681B8B9BB223F440639AB200
:1008D0007B681A837B681B8B9AB27B881B029BB256
:1008E00013439AB27B681A830C37BD465DF8047BCC
:1008F000704700BF80B483B000AF78607B689B8E88
:100900009BB218460C37BD465DF8047B704700BFAC
:1009100080B483B000AF78607B681B8F9BB21846B1
:100920000C37BD465DF8047B704700BF80B483B0D0
:1009300000AF78600B467B807B88DB439AB27B6894
:100940001A820C37BD465DF8047B704780B487B0CF
:1009500000AFF86079813A81FB800023BB820023DD
:10096000FB82FB681B8C9BB223F001039AB2FB68ED
:100970001A84FB681B8BBB82FB681B8CFB82BB8AC7
:1009800023F0F303BB82FB881B019AB23B8913431C
:100990009AB2BB8A1343BB82FA681C4B9A4213D0AB
:1009A000FA681B4B9A420FD0FB68B3F1804F0BD013
:1009B000FA68184B9A4207D0FA68174B9A4203D04C
:1009C000FA68164B9A420BD1FB8A23F00203FB8292
:1009D0007A89FB8A13439BB243F00103FB820AE04E
:1009E000FB8A23F00A03FB827A89FB8A13439BB2BA
:1009F00043F00103FB82FB68BA8A1A83FB68FA8A18
:100A00001A841C37BD465DF8047B7047002C0140FA
:100A1000003401400004004000080040000C004089
:100A200080B487B000AFF86079813A81FB80002301
:100A3000BB820023FB8200237B82FB681B8C9BB262
:100A400023F010039AB2FB681A84FB681B8BBB82ED
:100A5000FB681B8CFB827B891B017B82BB8A23F496
:100A600040731B051B0DBB82FB881B039AB2BB8A1C
:100A70001343BB823B891B029AB2BB8A1343BB82DE
:100A8000FA681C4B9A4213D0FA681B4B9A420FD05B
:100A9000FB68B3F1804F0BD0FA68184B9A4207D02D
:100AA000FA68174B9A4203D0FA68164B9A420BD158
:100AB000FB8A23F02003FB827A8AFB8A13439BB2D2
:100AC00043F01003FB820AE0FB8A23F0A003FB82C1
:100AD0007A89FB8A13439BB243F01003FB82FB68C5
:100AE000BA8A1A83FB68FA8A1A841C37BD465DF8F5
:100AF000047B7047002C014000340140000400409A
:100B000000080040000C004080B582B000AF114BDF
:100B10007B60114B3B6007E03B681A1D3A607A68C6
:100B2000111D796012681A603A680C4B9A42F3D32F
:100B30000B480C494FF000028842B8BF40F8042B24
:100B4000FFF6FAAF00F014F807F0E4FA0837BD46F4
:100B500080BD00BF88F10008000000204800002090
:100B600048000020001C002080B400AFFEE700BF5A
:100B700080B500AF164B164A126842F001021A60A7
:100B8000134A134B5968134B0B405360104A104BD8
:100B90001B6823F0847323F4803313600C4B0C4ADE
:100BA000126822F480221A60094B094A526822F422
:100BB000FE025A60064B4FF41F029A60044B00225B
:100BC000DA6200F00BF8044B4FF000629A6080BDCF
:100BD000001002400000FFF800ED00E080B500AF1B
:100BE00000F002F880BD00BF80B483B000AF0023E6
:100BF0007B6000233B60304B2F4A126842F4803206
:100C00001A602D4B1B6803F400333B607B68013393
:100C10007B603B68002B03D17B68B3F5A06FF0D1FC
:100C2000254B1B6803F00203002B02D001233B601D
:100C300001E000233B603B68012B37D11E4B1E4A6D
:100C400052685A601C4B1C4A52685A601A4B1A4A26
:100C500052685A60184B184A526822F47C125A6043
:100C6000154B154A526842F498125A60124B124AB8
:100C7000126842F080721A6000BF0F4B1B6803F0CD
:100C80000073002BF9D00C4B0B4A526822F0030280
:100C90005A60094B084A526842F002025A6000BF8B
:100CA000054B5B6803F00C03082BF9D10C37BD46EC
:100CB0005DF8047B704700BF0010024080B485B02F
:100CC00000AF0346FB710D4B1B889BB2FB60FB79A9
:100CD000002B04D1FB6843F03803FB6005E0FB68A0
:100CE00023F0380343F00803FB60044BFA6892B228
:100CF0001A801437BD465DF8047B70470030014010
:100D000080B483B000AF0346FB710C37BD465DF87D
:100D1000047B704780B400AF01231846BD465DF8E0
:100D2000047B704780B582B000AF0346FB71FB794E
:100D30009BB20A4819460CF0C3FD00BF07480121C9
:100D40000CF0DAFD0346002BF8D004480CF0C6FD89
:100D50000346DBB218460837BD4680BD003001406F
:100D600080B500AFFF20FFF7DDFF0346184680BDCA
:100D700080B582B000AF0A4B32221A60FFF7F0FF55
:100D8000FFF7EEFF0346FB71FB79FF2B03D0044B0B
:100D90001B68002BF4D1FB7918460837BD4680BD8F
:100DA0004C00002080B500AF03484FF4004100F034
:100DB00099FEFFF7D5FF80BD0008014080B590B0D7
:100DC00000AF0346B9607A60FB734FF6FF733B8256
:100DD000384B7B610023FB6200233B6300237B6273
:100DE0007B683B6200237B634FF44053BB6300236B
:100DF000FB6331480CF046FB30480CF043FBFB7BB7
:100E0000002B19D0BB68BB610023FB618023BB6250
:100E100007F11403284819460CF0F0FB07F1100302
:100E2000BB611023FB610023BB6207F1140323485D
:100E300019460CF0E3FB18E007F11003BB61002337
:100E4000FB610023BB6207F114031B4819460CF039
:100E5000D5FBBB68BB611023FB618023BB6207F13C
:100E60001403164819460CF0C9FB134801210CF075
:100E700003FC124801210CF0FFFB11480321012261
:100E80000CF0FAFC00BF20200CF012FC0346002BF3
:100E9000F9D0094800210CF0EFFB084800210CF0C4
:100EA000EBFB0748032100220CF0E6FC4037BD466F
:100EB00080BD00BF0C3001401C00024030000240E9
:100EC0000030014080B500AF494B494A926942F079
:100ED00001029A61464B464A926942F004029A61C5
:100EE000434B434A926942F008029A61414801210A
:100EF00000F014FE0120012100F010FE3E4B3E4A9E
:100F0000526842F040525A603B4B3B4A526822F0D2
:100F100040425A60384B4FF400421A61374B374A0F
:100F2000126842F440521A60344B344A126822F478
:100F300040421A60314B314A126842F400421A6052
:100F40002E4B2E4A126822F440321A602B4B2B4A49
:100F5000126822F440221A60284B284A126842F490
:100F600000221A60254B10221A61244B234A126872
:100F700042F440121A60214B204A126822F44002C7
:100F80001A601E4B1D4A126842F400021A60184B88
:100F9000174A926942F480529A61194B00229A8052
:100FA000174B04221A80164B154A128892B242F04F
:100FB000380292B21A80124B114A128892B242F44D
:100FC000807292B21A800E4B0D4A128892B242F48D
:100FD000007292B21A800A4B094A128892B242F009
:100FE000400292B21A800120012108F073FC80BDFA
:100FF000001002400002300000080140000C0140D7
:101000000030014080B582B000AF194B1B78DBB2D5
:1010100003F00103002B08D116484FF4004100F003
:101020006FFDFFF7A5FEFFF7BDFE13480CF0CAFBEE
:10103000114800210CF000FC4FF48050002108F012
:1010400067FC3823BB802823FB713B1D0B481946E6
:1010500000F078FC0020FFF753FE054B1B78DBB255
:1010600043F00103DAB2024B1A700837BD4680BD67
:10107000140000200008014000300140000C014035
:1010800080B584B000AF78603960104B0A221A60D6
:10109000FFF766FE0346FB73FB7BFF2B03D10B4B75
:1010A0001B68002BF4D1FB7BFE2B01D0002309E051
:1010B000012079683A68FFF781FEFFF751FEFFF7DC
:1010C0004FFE012318461037BD4680BD4800002062
:1010D00080B584B000AF78600B46FB70FFF748FE28
:1010E0000346FF2B01D000231EE0FB781846FFF7D4
:1010F00019FEFB78FD2B16D0002079684FF40072A2
:10110000FFF75CFEFF20FFF70DFEFF20FFF70AFE52
:10111000FFF726FE0346FB73FB7B03F01F03052B43
:1011200001D0002300E0012318461037BD4680BDE2
:1011300080B584B000AF03463960FB71FB795BB2C8
:10114000002B0EDAFB7903F07F03FB71772000217F
:10115000FFF7EEFF0346BB73BB7B012B01D9BB7BC3
:1011600051E02B484FF4004100F0BCFC28484FF4FC
:10117000004100F0C5FCFFF7FBFD0346FF2B01D04B
:10118000FF2340E0FB791846FFF7CCFD3B681B0EC0
:10119000DBB21846FFF7C6FD3B681B0CDBB21846F6
:1011A000FFF7C0FD3B681B0ADBB21846FFF7BAFD2C
:1011B0003B68DBB21846FFF7B5FD0123FB73FB79F3
:1011C000402B01D19523FB73FB79482B01D1872359
:1011D000FB73FB7B1846FFF7A5FDFB794C2B01D178
:1011E000FFF7BEFD0A23FB73FFF7BAFD0346BB738F
:1011F000BB7B5BB2002B05DAFB7B013BFB73FB7B0C
:10120000002BF1D1BB7B18461037BD4680BD00BF17
:101210000008014090B585B000AF0346FB71FB7933
:10122000002B01D00123C1E0624B1B78DBB203F03D
:101230000203002B03D05F4B1B78DBB2B6E0FFF755
:1012400041FE0020FFF73AFD0A23FB7304E0FFF79D
:1012500087FDFB7B013BFB73FB7B002BF7D100235E
:101260007B7340200021FFF763FF0346012B40F012
:101270008480514B64221A6048204FF4D571FFF7E7
:1012800057FF0346012B4DD10023FB730CE0FC7B81
:10129000FFF766FD03461A4607F11003234403F8DF
:1012A000082CFB7B0133FB73FB7B032BEFD9BB7A51
:1012B000012B62D1FB7AAA2B5FD100BF3E4B1B688A
:1012C000002B07D0E9204FF08041FFF731FF0346A4
:1012D000002BF3D1384B1B68002B4ED07A20002115
:1012E000FFF726FF0346002B47D10023FB730CE0DA
:1012F000FC7BFFF735FD03461A4607F11003234434
:1013000003F8082CFB7B0133FB73FB7B032BEFD92A
:101310003B7A03F04003002B01D00C2300E00423B0
:101320007B732AE0E9200021FFF702FF0346012B2F
:1013300004D802237B73E923BB7303E001237B738F
:101340004123BB7300BF1C4B1B68002B07D0BB7B2A
:1013500018460021FFF7ECFE0346002BF3D1164B95
:101360001B68002B07D050204FF40071FFF7E0FE00
:101370000346002B01D000237B73104B7A7B1A703D
:10138000FFF710FD7B7B002B0BD00A4B1B78DBB2E9
:1013900023F00103DAB2074B1A700120FFF78EFC2D
:1013A00001E0FFF72FFE034B1B78DBB21846143722
:1013B000BD4690BD140000204800002050000020D1
:1013C00080B483B000AF0346FB71FB79002B01D0E2
:1013D000012302E0044B1B78DBB218460C37BD46F4
:1013E0005DF8047B704700BF1400002080B584B016
:1013F00000AFB9607A600246FA73BB73FB7B002BC7
:1014000002D1BB7B002B01D104234FE0294B1B7879
:10141000DBB203F00103002B01D0032346E0264B8F
:101420001B7803F00803002B02D17B685B027B6012
:10143000BB7B012B11D151207968FFF779FE034660
:10144000002B2BD1B8684FF40071FFF719FE03464B
:10145000002B23D00023BB7320E052207968FFF7D4
:1014600067FE0346002B19D1B8684FF40071FFF7EF
:1014700007FE034683F00103DBB2002B00D009E036
:10148000BB6803F50073BB60BB7B013BBB73BB7BDD
:10149000002BE9D14C200021FFF74AFEFFF782FC28
:1014A000BB7B002B0CBF00230123DBB21846103797
:1014B000BD4680BD140000205000002080B584B0DF
:1014C00000AFB9607A600246FA73BB73FB7B002BF6
:1014D00002D1BB7B002B01D1042369E0364B1B7882
:1014E000DBB203F00103002B01D0032360E0324B99
:1014F0001B78DBB203F00403002B01D0022357E07A
:101500002E4B1B7803F00803002B02D17B685B0293
:101510007B60BB7B012B10D158207968FFF708FE58
:101520000346002B3CD1B868FE21FFF7D1FD0346EE
:10153000002B35D00023BB7332E0204B1B7803F027
:101540000603002B04D0BB7BD7201946FFF7F0FD24
:1015500059207968FFF7ECFD0346002B20D1B868CD
:10156000FC21FFF7B5FD034683F00103DBB2002B3E
:1015700000D009E0BB6803F50073BB60BB7B013B97
:10158000BB73BB7B002BEAD10020FD21FFF7A0FD40
:10159000034683F00103DBB2002B01D00123BB73B0
:1015A000FFF700FCBB7B002B0CBF00230123DBB249
:1015B00018461037BD4680BD1400002050000020A2
:1015C00090B58BB000AF0B463A600246FA71BB7122
:1015D0003B683B62FB79002B01D00423ADE1012382
:1015E00087F82730BB79052B28D13B6A1B78012B64
:1015F0000ED0022B12D0002B1BD1FFF78BFB034622
:10160000002B01D0FFF7FEFC002387F8273014E001
:10161000FFF758FC002387F827300EE03B6A5C1C7C
:10162000FFF778FB0346DBB22370002387F82730EF
:1016300003E0042387F827307DE17CE1B84B1B7879
:10164000DBB203F00103002B01D0032375E1BB796A
:101650000E2B00F26B8101A252F823F099160008BC
:10166000B716000863170008731700082D19000843
:101670002D1900082D1900082D1900082D19000832
:101680002D1900085B1800086B1800089118000855
:10169000B7180008F7180008A2484FF4004100F0FE
:1016A0002FFAFFF765FB0346FF2B03D1002387F8D2
:1016B00027303EE13DE149200021FFF739FD034697
:1016C000002B4DD107F10C0318461021FFF7D8FC71
:1016D0000346002B44D03B7B9B09DBB2012B0DD191
:1016E0007B7D1A463B7D1B029BB213449BB20133A8
:1016F000FB83FB8B9A023B681A602DE07B7C03F036
:101700000F03DAB2BB7DDB09DBB21344DAB27B7DB7
:1017100003F00303DBB25B00DBB21344DBB2023342
:1017200087F826303B7D9B09DBB21A46FB7C9B0089
:101730009BB213449AB2BB7C03F003039BB29B029F
:101740009BB213449BB20133FB83FA8B97F826308C
:10175000093B9A403B681A60002387F82730E8E08D
:10176000E7E03B684FF400721A80002387F82730C7
:10177000DFE06D4B1B7803F00403002B2BD0CD2052
:101780000021FFF7D5FC0346002B65D1FFF7E8FAEF
:1017900007F10C0318461021FFF772FC0346002BDB
:1017A0005AD0302387F8263006E0FFF7D9FA97F8A9
:1017B0002630013B87F8263097F82630002BF4D1ED
:1017C000BB7D1B09DBB210229A403B681A600023E4
:1017D00087F82730ADE049200021FFF7A9FC034638
:1017E000002B39D107F10C0318461021FFF748FCF4
:1017F0000346002B30D04C4B1B7803F00203002B28
:1018000012D0BB7D03F03F035A00FB7DDB09DBB246
:1018100013445A1C7B7E9B09DBB2013B02FA03F3A3
:101820001A463B681A6013E0BB7D03F07C039B10F3
:101830009BB20133FA7D02F00302D100FA7D520916
:10184000D2B20A44013202FB03F31A463B681A6023
:10185000002387F827306CE06BE0334B1A783B6A43
:101860001A70002387F8273063E049200021FFF732
:101870005FFC0346002B0AD1386A1021FFF700FCF9
:101880000346002B03D0002387F8273051E050E0B7
:101890004A200021FFF74CFC0346002B0AD1386A8E
:1018A0001021FFF7EDFB0346002B03D0002387F840
:1018B00027303EE03DE07A200021FFF739FC034667
:1018C000002B17D1042387F826300BE03C6A631CF9
:1018D0003B62FFF745FA0346237097F82630013B39
:1018E00087F8263097F82630002BEFD1002387F8B1
:1018F00027301EE01DE0CD200021FFF719FC034634
:10190000002B0CD1FFF72CFA386A4021FFF7B8FB07
:101910000346002B03D0002387F8273009E008E0B6
:10192000140000200008014050000020042387F824
:101930002730FFF737FA97F8273018462C37BD467F
:1019400090BD00BF80B489B000AF786039600023DB
:10195000FB6100233B610023BB610023FB6000238C
:101960007B610023BB603B68DB7803F00F03FB6106
:101970003B68DB7803F01003002B04D03B689B78B6
:10198000FA691343FB613B681B88DBB2002B44D030
:101990007B681B687B610023BB6138E0BB69012267
:1019A00002FA03F3FB603B681B881A46FB6813408E
:1019B0003B613A69FB689A4226D1BB699B00FB6098
:1019C000FB680F2202FA03F3BB60BB68DB437A6952
:1019D00013407B61FB68FA6902FA03F37A691343E7
:1019E0007B613B68DB78282B05D1BB6901229A40DB
:1019F0007B685A6108E03B68DB78482B04D1BB69FF
:101A000001229A407B681A61BB690133BB61BB69E3
:101A1000072BC3D97B687A691A603B681B88FF2B48
:101A200046D97B685B687B610023BB613AE0BB6998
:101A30000833012202FA03F3FB603B681B881A4655
:101A4000FB6813403B613A69FB689A4227D1BB6946
:101A50009B00FB60FB680F2202FA03F3BB60BB68CC
:101A6000DB437A6913407B61FB68FA6902FA03F38E
:101A70007A6913437B613B68DB78282B05D1BB690E
:101A8000083301229A407B685A613B68DB78482B17
:101A900005D1BB69083301229A407B681A61BB6992
:101AA0000133BB61BB69072BC1D97B687A695A6076
:101AB0002437BD465DF8047B704700BF80B483B017
:101AC00000AF78607B684FF6FF721A807B68022255
:101AD0009A707B680422DA700C37BD465DF8047B8F
:101AE000704700BF80B483B000AF78600B467B8046
:101AF0007A887B681A610C37BD465DF8047B7047B5
:101B000080B483B000AF78600B467B807A887B68B6
:101B10005A610C37BD465DF8047B704780B487B0CE
:101B200000AF78600B46FB7000233B610023FB6035
:101B300000237B610023BB607B68002B03DA2E4B04
:101B4000DB697B6102E02C4B5B687B617B6803F4A3
:101B500070231B0CBB607B689BB23B617B6803F40A
:101B60004013B3F5401F0AD17B6923F070637B619A
:101B7000214B214A526822F070625A6021E07B6852
:101B800003F48013002B0ED0BB68032202FA03F388
:101B9000FB60FB68DB437A6913407B617B6943F040
:101BA00070637B610DE07B685B0D1B013A6902FA93
:101BB00003F3DB437A6913407B617B6943F0706315
:101BC0007B61FB78002B08D07B685B0D1B013A69B9
:101BD00002FA03F37A6913437B617B68002B03DA13
:101BE000054B7A69DA6102E0034B7A695A601C3767
:101BF000BD465DF8047B70470000014080B483B0AF
:101C000000AF0346FB71084B97F907205209F97999
:101C100001F01F01012000FA01F143F822100C37F6
:101C2000BD465DF8047B704700E100E080B582B0FE
:101C300000AF0346FB711A4B1B78002B10D1194BD8
:101C40001B785A1CD1B2174A1170F979164AA2FBB7
:101C500001025209D2B23032D1B2144AD1540FE04B
:101C6000104B1B785A1CD1B20E4A1170F9790E4AEA
:101C7000A2FB01025209D2B23032D1B20C4AD15485
:101C8000FB79094AA2FB03125209642101FB02F20B
:101C90009B1ADBB2184605F0D3FF0837BD4680BD5E
:101CA00095000020940000201F85EB517400002057
:101CB0008400002080B584B000AF0023FB730023B4
:101CC000BB7300237B7300233B7300237B810023C2
:101CD0007B6000233B6007F0BFFA6A4807F08AF890
:101CE0004FF4FA7007F068FF32E005F0B3FE0346E8
:101CF000FB730020002107F0B3F8634807F07AF87F
:101D0000624B1B689BB2184600F0D2F9604807F09E
:101D100071F85E4B5B689BB2184600F0C9F9012070
:101D2000002107F09DF80A2007F046FF594807F008
:101D300061F8564B9B689BB2184600F0B9F95648BB
:101D400007F058F8514BDB689BB2184600F0B0F929
:101D5000FB7B002BC9D007F07FFAFB7B013B7B7339
:101D60000023FB734D4807F045F8BB7B184604F091
:101D7000A5FD0346BB73BB7B184601F00BF807F0CB
:101D80006BFA474807F036F83B7B184604F096FD9F
:101D900003463B737A7B3D4B53F822307B6007F060
:101DA0005BFA404807F026F8BB7B184600F058FF66
:101DB0000023FB7317E00A2007F0FEFE05F04AFE41
:101DC0000346FB7307F048FA374807F013F8012081
:101DD000002107F045F87A7B2C4B53F822309BB258
:101DE000184600F065F9FB7B022BE4D17A7B274B88
:101DF00053F822303B60BB7B184600F0CBFFC82075
:101E000007F0DAFE3B689AB27B689BB2D31A9BB2AA
:101E10001A463B7B92FBF3F37B817A7B234B7989D8
:101E200023F8121007F018FA214806F0E3FF3B6888
:101E30009BB2184600F03CF90120002107F010F891
:101E40001C4806F0D7FF7B89184600F031F97B89E2
:101E500040F2426019460BF0D5FF0023FB7306E009
:101E60000A2007F0A9FE05F0F5FD0346FB73FB7B96
:101E7000022BF5D107F0F0F9C82007F09DFE1037CE
:101E8000BD4680BDC0E40008CCE4000884180020F2
:101E9000D0E40008D4E40008D8E40008DCE400083A
:101EA000ECE40008FCE400080CE500080C1B002032
:101EB0001CE5000824E5000880B584B000AF134697
:101EC0000246FA710A46BA71BB800023FB60BB88E8
:101ED000104A128802FB03F20F4BA3FB0213DB082C
:101EE000FB600023FB72002000F0BAFEBA790B4BB6
:101EF000002143F8221002E00A2007F05DFE074BA4
:101F00001A68FB689A42F7D3002000F043FF1037AD
:101F1000BD4680BD0C1B0020CDCCCCCC841800204D
:101F200080B586B000AF13460246FA710A46BA7110
:101F3000BB8000233B610023FB600023BB600023C8
:101F4000FB8200237B7507F087F94F4806F052FFAC
:101F500006E00A2007F030FE05F07CFD03467B75A5
:101F60007B7D002BF5D07B7D022B01D1FFF7A2FEFC
:101F700001233B7580E007F06FF9444806F03AFF13
:101F8000434B1B88184600F093F8FB8A184605213E
:101F900004F02EFD0346FB82FB8A3D4A128802FBB9
:101FA00003F23C4BA3FB0213DB083B6107F054F93F
:101FB000394806F01FFF3B699BB2184600F078F8DD
:101FC0000120002106F04CFF344806F013FFBA79D7
:101FD000334B53F82220324B53F822309BB2184631
:101FE00000F066F800237B75002000F039FEBA7916
:101FF0002B4B002143F822101BE00A2007F0DCFDE8
:1020000007F02AF9274806F0F5FEBA79244B53F871
:1020100022309BB2184600F04BF80120002106F058
:102020001FFF214806F0E6FE3B699BB2184600F010
:102030003FF81B4B1A683B699A42DED3002000F040
:10204000A9FE07F009F9194806F0D4FE06E00A20B7
:1020500007F0B2FD05F0FEFC03467B757B7D002B8F
:10206000F5D07B7D022B05D101233B750C4B002263
:102070001A6001E000233B753B7D012B3FF47BAFF1
:102080001837BD4680BD00BF2CE500083CE50008C0
:102090000C1B0020CDCCCCCC48E5000850E5000856
:1020A0008418002054E500085CE5000860E500089D
:1020B00080B582B000AF0346FB80FA88164BA3FBC5
:1020C00002135B0B9BB2DBB2184605F0B9FDFB882F
:1020D000114AA2FB0312520B42F2107101FB02F2F1
:1020E0009B1A9AB20D4BA3FB02135B099BB2DBB2A6
:1020F000184605F0A5FDFB88084AA2FB0312520909
:10210000642101FB02F29B1A9BB2DBB2184605F078
:1021100097FD0837BD4680BD5917B7D11F85EB51D4
:1021200080B485B000AF396013460246FA71BB71C6
:102130000023FB730023FB7309E0FB7B3A68134425
:102140001A78FB795340FB71FB7B0133FB73FA7BFD
:10215000BB799A42F1D3FB7918461437BD465DF836
:10216000047B704780B500AF5C4B1B88062B02D9FF
:102170005A4B00221A805A4840F2255108F09EFB23
:102180000346002B18D0564808F078FB0346DAB215
:10219000544B1A70514B1B885A1C91B24F4A1180F4
:1021A000504A1178504AD1544D4B4D4A128892B240
:1021B00022F0200292B21A80494B494A128892B208
:1021C00022F0400292B21A80484B1B78002B17D0A5
:1021D000474B1A78474B1B789A4211D2404A444BDE
:1021E0001B78591CC8B2424908704349CB5C9380A4
:1021F0003B4B3B4A128892B222F0400292B21A80C4
:102200003E4B1B78002B67D13D4B1B78042B32D102
:102210003C4B1B78002B03D1324B1A783A4B1A7087
:10222000384B1B785A1CD1B2364A11702D4A11789E
:10223000364AD154334B1A78334B1B789A421AD111
:10224000314B1B78302031491A46FFF769FF0346AE
:102250001A462F4B1A702E4B1B78002B03D1274B9D
:1022600001221A7001E000F095F8254B00221A7047
:10227000244B00221A701B4B1B785A2B03D1254B81
:1022800001221A7028E0174B1B78582B07D1214BDD
:102290001B78012B03D11F4B02221A701CE01D4B2F
:1022A0001B78022B18D10F4B1B78302B11D00D4B04
:1022B0001B78312B03D1124B03221A7009E0094B12
:1022C0001B78322B05D10E4B04221A700D4B0022C5
:1022D0001A70104B00221A7080BD00BF5A000020F7
:1022E00000380140061B0020381B00205800002049
:1022F00059000020190000205C1B0020C5000020B0
:10230000C4000020C2000020C30000209818002054
:10231000C6000020C100002080B582B000AF786008
:102320000A4B1B78012B04D100F04EF8074B00221A
:102330001A700A2007F040FC054B1B78012B01D1D5
:1023400000F008F80A2007F037FCE9E7C500002094
:102350005800002080B500AF0A4BDA780A4B1A709B
:102360000A4B00221A7002E0052007F025FC074BFB
:102370001A78054B1B789A42F6D3054B00221A7047
:1023800080BD00BF5C1B0020190000205900002008
:102390005800002080B483B000AF0023FB710023FD
:1023A000FB7106E0FB79074A0021D154FB79013328
:1023B000FB71FB790F2BF5D90C37BD465DF8047B1B
:1023C000704700BF9818002080B500AF394B5B788C
:1023D0000A2B6CD801A252F823F000BF0924000890
:1023E0002D2400083F240008472400084F2400083B
:1023F0005B24000867240008732400087F24000879
:1024000093240008A52400082A4B9978294BDA78F0
:10241000284B1B791B0298B2264B5B7903449BB275
:10242000084611461A46FFF747FD40E0214B9A78CF
:10243000204BDB781046194604F0BEF837E01E4BFF
:1024400033221A7033E01C4B30221A702FE0194BE4
:102450009B78184600F004FC29E0164B9B78184640
:1024600000F098FC23E0134B9B78184600F002FA2A
:102470001DE0104B9B78184600F024F817E00E4B37
:102480001B78332B04D10B4B9A780C4B1A700EE04F
:102490000DE0084B9A78074BDB781046194601F09F
:1024A000EBFC04E0034B9A78054B1A7000BFFFF772
:1024B00071FF80BD98180020180000201C0000202B
:1024C000481B002080B584B000AF0346FB71964BDB
:1024D0005A221A70944B58225A70934B33229A7096
:1024E000914B1022DA70FB79012B2DD18F4B1A788A
:1024F0008D4B1A718E4B1B68DAB28B4B5A718D4B18
:102500001B68DAB2884B9A718B4B1A78864BDA715A
:102510008A4B1B68DAB2844B1A72894B1A78824B49
:102520005A72884B1A78804B9A72864B5A787E4B37
:10253000DA72844B9A787C4B1A73824BDA787A4B36
:102540005A73794BFA799A73FB79022B45D105F0CE
:10255000D9F8F8607C4B1B8B9BB2DAB2724B1A71C4
:10256000794B1B8B9BB21B0A9BB2DAB26E4B5A7132
:10257000754B9B8B9BB2DAB26B4B9A71724B9B8BF8
:102580009BB21B0A9BB2DAB2674BDA716F4B1B88A6
:10259000DAB2654B1A726D4B1B881B0A9BB2DAB21A
:1025A000614B5A72694B5B88DAB25F4B9A72674B28
:1025B0005B881B0A9BB2DAB25B4BDA72634B9B8877
:1025C000DAB2594B1A73614B9B881B0A9BB2DAB281
:1025D000554B5A73544BFA799A73FB79032B38D1C4
:1025E0005B4B9B68DAB2504B1A71594B9B681B0AC4
:1025F000DAB24D4B5A71564B9B681B0CDAB24A4B00
:102600009A71534B9B681B0EDAB2474BDA71514BF0
:102610009B68DAB2444B1A724E4B9B681B0ADAB2C3
:10262000414B5A724B4B9B681B0CDAB23E4B9A7271
:10263000484B9B681B0EDAB23B4BDA72414B9A78DF
:10264000394B1A733F4BDA78374B5A73364BFA795A
:102650009A73FB79042B37D13F4B1A78324B1A719E
:102660003E4B1A78304B5A713D4B1B789B00DAB2C7
:102670003C4B1B781344DAB22B4B9A713A4B1B88B4
:10268000DAB2294BDA71394B1B881B0A9BB2DAB2DA
:10269000254B1A72244B00225A72354B1A78224B62
:1026A0009A72344B1B88DAB21F4BDA72314B1B889B
:1026B0001B0A9BB2DAB21C4B1A732F4B1A781A4BB7
:1026C0005A73194BFA799A73FB79052B69D12B4B05
:1026D0001B88DAB2144B1A71284B1B881B0A9BB259
:1026E000DAB2114B5A71254B5B88DAB20E4B9A71F4
:1026F000224B5B881B0A9BB2DAB20B4BDA71204B80
:102700001B68DAB2084B1A721D4B1B681B0ADAB23F
:10271000054B5A721A4B1B681B0CDAB2024B9A72A9
:10272000174B1B682EE000BF5C1B00201800002028
:10273000081B002094180020301B0020541B002090
:10274000A9180020A41B002000280040841B0020A2
:1027500000080140000C0140B8000020B900002032
:10276000BB000020BA000020961B00202E1B00207A
:10277000A81800200C1B0020151B00206C1B00203B
:10278000841800201B0EDAB2314BDA72314B1A7802
:102790002F4B1A73304B1A782D4B5A732C4BFA79F6
:1027A0009A73FB79062B3DD12C4B1B88DAB2284B50
:1027B0001A712A4B1B881B0A9BB2DAB2244B5A713E
:1027C000264B5B88DAB2224B9A71244B5B881B0A3A
:1027D0009BB2DAB21E4B5A71214B5B68DAB21C4BCA
:1027E0001A721F4B5B681B0ADAB2194B5A721C4BE8
:1027F0005B681B0CDAB2164B9A72194B5B681B0EA6
:10280000DAB2134BDA72174B5B88DAB2104B1A73D9
:10281000144B5B881B0A9BB2DAB20D4B5A730C4BFC
:10282000FA799A7300200A490F22FFF779FC0346D0
:102830001A46074BDA73064BDA780B4B1A700B4BC0
:1028400000221A700A4B01221A701037BD4680BD53
:102850005C1B0020481B0020151B00206C1B002067
:10286000841800200C1B00201900002059000020B3
:102870005800002080B584B000AF78600023FB735F
:102880000023BB8100237B81204BDAB2204B1A70DE
:10289000204BDAB21E4B5A701F4BDAB21C4B9A70A7
:1028A0001B4B0D22DA707B68DAB2194B1A710023C8
:1028B000FB7321E07B6803F5B8735A00FB7B13447C
:1028C0009BB25B00BB81BA8907F10A031046194627
:1028D0000BF04CFAFB7B5B0005330D4A0021D15411
:1028E000FB7B03335B007A89D2B25242D1B2084AF1
:1028F000D154FB7B0133FB73FB7B032BDAD9074BF2
:1029000001221A701037BD4680BD00BF68E500087F
:102910005C1B00206CE5000870E5000858000020F2
:1029200080B400AF024B1B68BD465DF8047B704766
:102930000000024080B400AF024B1B68BD465DF84A
:10294000047B70470000024080B586B000AF0120D4
:10295000012106F0BFFF25233B7500237B75002373
:10296000BB750123FB754FF400733B820323BB74DB
:102970001823FB7407F1100323481946FEF7E2FF02
:102980004FF480633B820423FB7407F110031E485D
:102990001946FEF7D7FF1D4807F03AFE4FF4804076
:1029A000012106F0B5FF4FF416533B600023BB80B6
:1029B0000023FB8000233B810023BB810C237B8110
:1029C0003B461248194607F07FFE10484FF45871F5
:1029D00007F064FF0D4B0D4A928992B242F020023B
:1029E00092B29A81094B094A928992B242F040020E
:1029F00092B29A810548012107F020FF2520FFF7B8
:102A0000FDF81837BD4680BD000801400038014080
:102A100080B584B000AF4FF4B873BB812823FB733B
:102A200007F10C0303481946FEF78CFF1037BD462B
:102A300080BD00BF0008014080B588B000AF102005
:102A4000012106F065FF0220012106F07FFF07F15A
:102A50001C031846FFF732F84FF47073BB8303234F
:102A6000BB771823FB7707F11C0320481946FEF7B4
:102A700069FF1F480121FFF751F807F110031846BD
:102A8000FDF72AFE4FF40073FB8240F2E733BB826E
:102A9000EF233B8207F1100316481946FDF742FB6E
:102AA0003B461846FDF732FE01237B8060233B80C6
:102AB0000023FB803B460F481946FDF7AFFB3B4622
:102AC0000C481946FDF736FC3B460A481946FDF707
:102AD000B9FC3B4607481946FDF73AFD0548012178
:102AE000FDF736FE2037BD4680BD00BF0010014017
:102AF000000C1A000004004080B582B000AF06F060
:102B0000ABFB0023FB8000237B7106F0A5FB37485D
:102B100006F070F91CE004F09DFF03467B71344B16
:102B20001B88FB80052007F047F80120002106F0F4
:102B300097F9FA882F4BA3FB02135B099BB2DBB218
:102B4000184605F07DF8FB88DBB2184605F078F8EA
:102B50007B79022BDFD10A2007F02EF8FB8840F2A8
:102B6000226019460BF04EF903F0B8F94FF4FA6001
:102B700007F022F8204806F03DF91CE004F06AFF57
:102B800003467B711A4B1B88FB80052007F014F865
:102B90000120002106F064F9FA88164BA3FB02130A
:102BA0005B099BB2DBB2184605F04AF8FB88DBB242
:102BB000184605F045F87B79022BDFD100237B71A5
:102BC0000A2006F0F9FFFB8840F2326019460BF04C
:102BD00019F903F083F94FF4FA6006F0EDFF06F0FF
:102BE0003BFB05F0ADFB0837BD4680BD74E5000832
:102BF0006C1B00201F85EB5188E5000880B400AFF6
:102C0000BD465DF8047B704780B500AF0F4B1B7865
:102C100003F00103002B17D00D4B9A880D4B1B8836
:102C20009A4205D90C4B1B781846002103F0C4FCCE
:102C3000074B9A88094B1B889A4205D2064B1B7892
:102C40001846012103F0B8FC80BD00BF1C00002025
:102C5000841B00209C0000209A0000209E00002081
:102C600080B584B000AF0346FB71012006F0A4FFDD
:102C70000023FB720023BB720023FB73424B9A6854
:102C8000FB7901339B0022FA03F3DBB203F001036B
:102C9000FB72FB79012202FA03F3DAB23B4B1B7899
:102CA000DBB21340DBB2BB72BA7AFB7942FA03F3B0
:102CB000BB72FB7A002B44D1BB7A002B41D1FB794C
:102CC000002B02D0FB79012B3BD1FB79184600F099
:102CD000E5F84FF41673BB8119E02B4B9A68FB792A
:102CE00001339B0022FA03F3DBB203F00103FB7212
:102CF000FB7A012B03D1FB7B0133FB7301E0002343
:102D0000FB73012006F058FFBB89013BBB81FB7BB5
:102D1000022B02D8BB89002BDFD1BB89002B0CD141
:102D2000FB79012202FA03F3DAB2184B1B78DBB20B
:102D30001343DBB2DAB2154B1A70FB79184600F078
:102D4000C3F8FB79022B02D0FB79032B09D10E4B80
:102D50000D4A1169FA790B32012000FA02F20A4396
:102D60001A61FB79012202FA03F3DAB2084B1B78ED
:102D7000DBB21343DBB2DAB2054B1A70052006F062
:102D80001BFF1037BD4680BD00080140481B0020D6
:102D9000301B002080B584B000AF0346FB71FB7987
:102DA000184600F07BF80023FB730023FB7200231E
:102DB000BB724FF41673BB81354B9A68FB790133B4
:102DC0009B0022FA03F3DBB203F00103FB72FB79F1
:102DD000012202FA03F3DAB22E4B1B78DBB2134066
:102DE000DBB2BB72BA7AFB7942FA03F3BB72FB7AAD
:102DF000012B26D1BB7A002B23D1FB79002B02D0EB
:102E0000FB79012B1DD116E0214B9A68FB79013328
:102E10009B0022FA03F303F00103002B03D1FB7B99
:102E20000133FB7301E00023FB73012006F0C4FEB5
:102E3000BB89013BBB81FB7B022B02D8BB89002BEA
:102E4000E2D1FB79184600F03FF8FB79022B02D063
:102E5000FB79032B09D10E4B0D4A5169FA790B32DC
:102E6000012000FA02F20A435A61FB79012202FAB8
:102E700003F3DBB2DB43DAB2074B1B78DBB2134060
:102E8000DBB2DAB2044B1A701037BD4680BD00BF0A
:102E900000080140481B0020301B002080B483B094
:102EA00000AF0346FB71074B064A5169FA790B32B2
:102EB000012000FA02F20A435A610C37BD465DF860
:102EC000047B70470008014080B483B000AF034624
:102ED000FB71074B064A1169FA790B32012000FA9F
:102EE00002F20A431A610C37BD465DF8047B704755
:102EF0000008014080B500AF012006F081FD034BC2
:102F00001B685A1C014B1A6080BD00BF841800204A
:102F100080B500AF022006F073FD034B5B685A1CBE
:102F2000014B5A6080BD00BF8418002080B500AFFF
:102F3000042006F065FD80BD80B500AF4FF48060D1
:102F400006F05EFD4FF4006006F05AFD4FF480502D
:102F500006F056FD80BD00BF80B500AF202006F012
:102F60004FFD402006F04CFD802006F049FD80BD5D
:102F700080B582B000AF0023FB710023BB7100233A
:102F80007B7106F069F974E0142006F015FE04F078
:102F900061FD0346FB710020002105F061FF394807
:102FA00005F028FFBB79184604F04AFEFB79042B94
:102FB00003D1BB791846FFF753FEFB79032B03D1EE
:102FC000BB791846FFF7E6FEFB79012B08D1BB79E8
:102FD000012B03D8BB790133BB7101E00023BB7126
:102FE000012006F0E9FD0120002105F039FF264807
:102FF00005F000FF254B1B78184604F021FE012048
:1030000006F0DAFD224805F0F5FE224B9B6803F03E
:103010001003002B03D0204805F0ECFE02E01F480F
:1030200005F0E8FE1B4B9B6803F02003002B03D048
:10303000194805F0DFFE1CE0184805F0DBFE154BD3
:103040009B6803F04003002B03D0134805F0D2FE29
:1030500002E0124805F0CEFE0E4B9B6803F480732D
:10306000002B03D00C4805F0C5FE02E00B4805F02C
:10307000C1FEFB79022B87D106F0EEF80837BD467A
:1030800080BD00BF94E50008A0E50008301B0020CB
:10309000A4E5000800080140ACE5000870E5000860
:1030A00080B582B000AF0023FB710223BB71002307
:1030B0007B7106F0D1F86EE0142006F07DFD04F07F
:1030C000C9FC0346FB710020002105F0C9FE36480B
:1030D00005F090FEBB79184604F0B2FDFB79042B95
:1030E0000DD1324B314A1169BA790B32012000FA05
:1030F00002F20A431A61BB791846FFF7CFFEFB794B
:10310000032B0DD1294B294A5169BA790B32012081
:1031100000FA02F20A435A61BB791846FFF7D4FE5F
:10312000FB79012B08D1BB79032B03D8BB79013381
:10313000BB7101E00223BB71012006F03DFD0120BF
:10314000002105F08DFE1A4805F054FE194B1B783E
:10315000184604F075FD012006F02EFD164805F016
:1031600049FE124BDB6803F40053002B03D01348D5
:1031700005F040FE02E0124805F03CFE0B4BDB6818
:1031800003F48043002B03D00C4805F033FE02E02B
:103190000B4805F02FFEFB79022B8DD106F05CF871
:1031A0000837BD4680BD00BF94E500080008014017
:1031B000A0E50008301B0020A4E50008ACE50008ED
:1031C00070E5000880B582B000AF0023FB710023DA
:1031D000BB7100237B7100233B7100237B8006F0D1
:1031E0003BF87FE0142006F0E7FC04F033FC0346D4
:1031F000FB710020002105F033FE414B1B887B80D2
:103200007B88DBB2184604F01BFD3D4B5B887B805E
:103210007B88DBB2184604F013FD3A4805F0EAFD5E
:10322000394B9B8C7B807B881846FEF741FFFB79EE
:10323000042B02D10120FFF713FDFB79012B05D1EF
:103240000120FFF741FE0120FFF7A4FD012006F059
:10325000B3FC0120002105F003FE2C4B1B7818461F
:1032600004F0EEFC2A4805F0C5FD00233B80294B05
:103270009B685B093B803B881846FEF719FF264890
:1032800005F0B8FD012006F097FC224B9B685B0916
:1032900003F00103002B03D0204805F0ABFD02E052
:1032A0001F4805F0A7FD1B4B9B689B0903F001031A
:1032B000002B03D0194805F09DFD02E0184805F0E9
:1032C00099FD144B9B68DB0903F00103002B03D02D
:1032D000124805F08FFD02E0114805F08BFD114802
:1032E00005F088FDFB79022B7FF47CAF05F0B4FF7D
:1032F000FFF73EFEFFF7D4FE0837BD4680BD00BF96
:103300006C1B0020B0E5000800480140301B002085
:10331000B4E5000800080140B8E50008ACE5000885
:1033200070E50008BCE5000880B586B000AF7860A5
:103330000023BB8200237B817B689BB21B019BB275
:1033400003F21463BB82BA8A07F10A0310461946D6
:103350000AF00CFD05F080FF954805F04BFD7B89D8
:10336000184603F0F5FA03467B817B89BA8A10463A
:1033700019460AF047FD7B689BB21B019BB203F222
:103380001563BB82BA8A07F10A03104619460AF090
:10339000EDFC05F061FF874805F02CFD7B891846A0
:1033A00003F0D6FA03467B817B89BA8A1046194618
:1033B0000AF028FD7B689BB21B019BB203F21663E7
:1033C000BB82BA8A07F10A03104619460AF0CEFCFE
:1033D00005F042FF784805F00DFD7B89184603F0A3
:1033E000B7FA03467B817B89BA8A104619460AF0F0
:1033F00009FD07F10A0340F6990019460AF0B6FCE8
:1034000005F02AFF6D4805F0F5FC7B89DBB2184614
:1034100003F054FA03467B817B8940F699001946F4
:103420000AF0F0FC7B89DAB2654B1A707B8903F2F3
:10343000FF53BB82BB8A184646210AF0E3FC7B8916
:10344000604A4621D1547B689BB21B019BB203F2B8
:103450001E63BB82BA8A07F10A03104619460AF0B6
:1034600085FC05F0F9FE584805F0C4FC7B89DBB209
:10347000184603F023FA03467B817B89BA8A1046FB
:1034800019460AF0BFFC7B8903F2FF53BB82BB8A5B
:10349000184647210AF0B6FC7B894A4A4721D15495
:1034A0007B689BB21B019BB203F21763BB82BA8A93
:1034B00007F10A03104619460AF058FC05F0CCFE45
:1034C000424805F097FC7B89184603F041FA034611
:1034D0007B817B89BA8A104619460AF093FC7B6887
:1034E0009BB21B019BB203F5C363BB82BB8A184628
:1034F00004F0CEFD386105F0AFFE354805F07AFCEA
:103500004FF4FA7006F058FB386903F0C9FA3861D5
:10351000BB8A1846396903F085F87B689BB21B01AA
:103520009BB203F22263BB82BA8A07F10A031046F8
:1035300019460AF01BFC05F08FFE264805F05AFCE0
:103540004FF4FA7006F038FB7B89184603F000FA56
:1035500003467B817B89BA8A104619460AF052FCE1
:103560007B689BB21B019BB203F21F63BB82BA8ACA
:1035700007F10A03104619460AF0F8FB05F06CFE45
:10358000154805F037FC7B89DBB2184603F096F945
:1035900003467B817B89BA8A104619460AF032FCC1
:1035A00005F05AFE0D4805F025FC0023FB751EE0D2
:1035B000C0E50008D0E50008E4E50008F8E50008EB
:1035C000E41A0020200000200CE600081CE6000899
:1035D0002CE6000840E6000850E600085CE600081B
:1035E00004F038FA0346FB750A2006F0E5FAFB7D85
:1035F000002BF5D0FB7D022B20D17B689BB21B01F9
:103600009BB203F21A63BB8204F07CF8F860BB8AB9
:103610001846F96803F006F87B689BB21B019BB261
:1036200003F21C63BB8204F06DF802463B69D31AB7
:103630000533BA8A1046194602F0F4FFFB7D032BCE
:103640001ED105F009FE244805F0D4FB4FF47A7032
:1036500006F0B2FA7B689BB21B019BB203F21A63BD
:10366000BB82BB8A184604F013FDF860F86801219C
:1036700003F004FCF860BB8A1846F96802F0D2FF38
:1036800005F0EAFD154805F0B5FB4FF47A7006F039
:1036900093FA7B6862339BB21B01BB82BB8A1846DC
:1036A00004F0F6FCF860F868012103F0E7FBF8602D
:1036B000BB8A1846F96802F0B5FF05F0CDFDC820B9
:1036C00006F07AFA06F0DAFA04F03AFE06F0E4FAC6
:1036D0001837BD4680BD00BF6CE6000878E60008DC
:1036E00080B582B000AF0023FB7105F0B5FD09483D
:1036F00005F080FBC82006F05FFAFB79184603F05E
:10370000DDF80346FB71FB79184600F021F8083715
:10371000BD4680BD84E6000880B582B000AF0023BE
:10372000FB7105F099FD094805F064FBC82006F01F
:1037300043FAFB79184603F0C1F80346FB71FB79A5
:103740001846FFF7F1FD0837BD4680BD84E6000846
:1037500080B584B000AF78600023FB810023BB817B
:103760007B689BB21A46D200D31A9BB203F2456320
:10377000FB81FA8907F10C03104619460AF0F6FAA4
:1037800005F06AFD604805F035FBBB89184603F07B
:10379000DFF80346BB81BB89FA89104619460AF057
:1037A00031FB7B689BB21A46D200D31A9BB203F25C
:1037B0004663FB81FA8907F10C03104619460AF0AB
:1037C000D5FA05F049FD514805F014FBBB891846B0
:1037D00003F0BEF80346BB81BB89FA89104619463F
:1037E0000AF010FB7B689BB21A46D200D31A9BB238
:1037F00003F24763FB81FA8907F10C03104619466F
:103800000AF0B4FA05F028FD414805F0F3FABB8947
:10381000184603F09DF80346BB81BB89FA89104620
:1038200019460AF0EFFA7B689BB21A46D200D31A07
:103830009BB203F5C963FB81FA8907F10C031046BB
:1038400019460AF093FA05F007FD324805F0D2FA5E
:10385000BB89184603F07CF80346BB81BB89FA8913
:10386000104619460AF0CEFA7B689BB21A46D2007F
:10387000D31A9BB203F24963FB81FA8907F10C0367
:10388000104619460AF072FA05F0E6FC224805F0E7
:10389000B1FABB89184603F05BF80346BB81BB89CC
:1038A000FA89104619460AF0ADFA7B689BB21A46AF
:1038B000D200D31A9BB203F24A63FB81FA8907F163
:1038C0000C03104619460AF051FA05F0C5FC1348DE
:1038D00005F090FABB89184603F03AF80346BB811D
:1038E0000A2006F069F9BB89FA89104619460AF0E0
:1038F00089FA05F0B1FC0A2006F05EF904F020FD1B
:103900001037BD4680BD00BF90E60008A4E6000861
:10391000B4E60008C4E60008D0E60008E0E60008C7
:1039200090B585B000AF0023BB730023FB7305F097
:1039300093FC2F4805F05EFAC82006F03DF9BB7BEA
:10394000184602F0BBFF0346BB7305F085FC29480F
:1039500005F050FABB7B184604F072F9264805F0D2
:1039600049FA06E01E2006F027F904F073F8034632
:10397000FB73FB7B022B02D0FB7B032BF2D1C82015
:1039800006F01AF9FB7B022B29D1BB7B1B0103F547
:10399000C363BB60BB689BB2184604F079FB7860D8
:1039A000BB7B1B0103F21A63BB6003F0ABFE386004
:1039B000BB689BB21846396802F034FEBB7B1B0122
:1039C00003F21C63BB60BB689CB203F09BFE024623
:1039D0007B68D31A05332046194602F023FE05F012
:1039E0003BFCC82006F0E8F81437BD4690BD00BF88
:1039F00084E60008ECE60008F8E6000880B58EB022
:103A000000AF786001227B6802FA03F3DAB2984BC8
:103A10001B78DBB21343DBB2DAB2954B1A7001208C
:103A2000FFF7B8F900233B82002387F836300023E4
:103A30003B630023BB620023FB600023FB62012089
:103A400006F0BAF87B689BB21B019BB203F21463C9
:103A5000FB84FA8C07F11403104619460AF086F924
:103A60007B689BB21B019BB203F21663FB84FA8C4A
:103A700007F10C03104619460AF078F903F042FEEC
:103A80003863FB683A6B1344BB62052006F094F878
:103A90000020FFF7E5F818E003F034FE3863BB8A36
:103AA000012202FA03F3DAB2724B1B78DBB2134045
:103AB000DBB287F8363097F83620BB8A42FA03F338
:103AC00087F83630192006F077F897F83630002B53
:103AD00003D13A6BBB6A9A42DED30020FFF75AF952
:103AE0004FF47A7006F068F8002387F837307AE0F0
:103AF00000237B8100233B620023FB610023BB6129
:103B00007B689BB21B019BB203F5C363FB84FB8CF8
:103B1000184604F0BDFAF8617B689BB21B019BB2AA
:103B200003F21A63FB84FB8C184604F0B1FAB86107
:103B300097F837309BB21A46D200D31A9BB203F2E1
:103B40004963FB84FA8C07F10A03104619460AF010
:103B50000DF903F0D7FD0246BB69D21AFB69B2FB2F
:103B6000F3F33B627B893A6AB2FBF3F3FB75002304
:103B70003B8197F837309BB21A46D200D31A9BB2DA
:103B800003F5C963FB84FA8C07F11203104619464A
:103B90000AF0ECF897F837309BB21A46D200D31AE5
:103BA0009BB203F24A63FB84FA8C07F108031046C8
:103BB00019460AF0DBF87B8A1A467B689A420AD1DA
:103BC0003B89012B07D1FB7D002B04D197F83730BF
:103BD000184600F0CFF80A2005F0EEFF97F83730CE
:103BE000013387F8373097F83730082B80D97B6856
:103BF0009BB21B019BB203F21763FB84FA8C07F1A3
:103C00000C03104619460AF0B1F87B689BB21B0101
:103C10009BB203F21E63FB84FA8C07F1100310467B
:103C200019460AF0A3F80A2005F0C6FF03F06AFD62
:103C3000386303F067FD0246FB681344BB620A2049
:103C400005F0BAFF7B689BB21B019BB203F21563C0
:103C5000FB84FA8C07F11403104619460AF086F823
:103C6000002387F83730012387F8363047E000BF5C
:103C7000A9180020151B00200A2005F09DFFBB8A13
:103C8000012202FA03F3DAB2374B1B78DBB213409E
:103C9000DBB287F8363097F83620BB8A42FA03F356
:103CA00087F83630314B1B68DBB203F0010387F82D
:103CB000373003F027FD0246FB6A9A420DD997F888
:103CC0003730012B09D197F83630012B05D13B6BEA
:103CD00001333B6303F016FDF862052005F06CFF2D
:103CE0003B8ADAB297F8371097F836300B40DBB2E0
:103CF00003F00103DBB21046194602F05DFC3A6B9B
:103D0000BB6A9A42B8D33B8ADBB21846002102F064
:103D100053FC0A2005F050FF0120FEF7A1FF7B684D
:103D20009BB21B019BB203F21C63FB8403F0EAFC11
:103D30000346FA8C1046194602F074FC01227B6897
:103D400002FA03F3DBB2DB43DAB2094B1B78DBB2D6
:103D50001340DBB2DAB2064B1A70C82005F02CFF14
:103D60003837BD4680BD00BF151B002094180020C9
:103D7000A918002080B586B000AF786000237B6171
:103D80007B689BB21A46D200D31A9BB203F24663F9
:103D90007B827A8A07F110031046194609F0E6FF84
:103DA0007B689BB21A46D200D31A9BB203F24563DA
:103DB0007B827A8A07F10E031046194609F0D6FF76
:103DC0007B689BB21A46D200D31A9BB203F24763B8
:103DD0007B827A8A07F10C031046194609F0C6FF68
:103DE00003F090FC02463B8A13447B61FB89DBB203
:103DF0001846012100F040F802E00A2005F0DCFE40
:103E000003F080FC02467B699A42F6D3FB89DBB261
:103E10001846002100F030F8BB89184600F004F87D
:103E20001837BD4680BD00BF80B584B000AF0346E3
:103E3000FB800023FB6003F065FC0246FB88134413
:103E4000FB600C4B1B781846012102F0B5FB02E029
:103E50000A2005F0B1FE03F055FC0246FB689A42C9
:103E6000F6D3044B1B781846002102F0A5FB10374F
:103E7000BD4680BDE41A002080B483B000AF024686
:103E80000B46FA71BB71BB79012B0DD1FB79012275
:103E900002FA03F3DAB22D4B1B78DBB21343DBB229
:103EA000DAB22A4B1A700EE0FB79012202FA03F310
:103EB000DBB2DB43DAB2254B1B78DBB21340DBB25B
:103EC000DAB2224B1A70BB79C3F10103BB71FB79E3
:103ED000002B0AD11E4ABB799BB219464901C91A67
:103EE00089000B44DB009BB29386FB79012B0AD13E
:103EF000174ABB799BB219464901C91A89000B447C
:103F0000DB009BB21387FB79022B0AD1104ABB79E5
:103F10009BB219464901C91A89000B44DB009BB2C8
:103F20009387FB79032B0BD1094ABB799BB21946C6
:103F30004901C91A89000B44DB009BB2A2F840304A
:103F40000C37BD465DF8047B704700BFA818002001
:103F50000004004080B58AB000AF7860002387F885
:103F600026300120FEF77CFE0020FEF713FF002321
:103F700087F827307EE00A2005F01EFE97F82730EC
:103F80009BB21B019BB203F21C63BB84BB8C184623
:103F900004F07EF8386203F0B5FBF86197F827303B
:103FA0009BB21B019BB203F5C363BB84BB8C184659
:103FB00004F06EF8B861FA693B6AD31A7B6197F82E
:103FC00027309BB21B019BB203F21A63BB84BB8CEC
:103FD000184604F05DF8386197F8273062339BB2D9
:103FE0001B01BB84BB8C184604F052F8F86097F8AC
:103FF00027309BB21B019BB203F21F63BB84BA8CB8
:1040000007F10B031046194609F0B0FE0A2005F02F
:10401000D3FD97F82730012202FA03F3DAB2184BE6
:104020001B78DBB21340DBB287F8263097F82620E6
:1040300097F8273042FA03F387F826307A69BB698C
:104040009A420FD9FA693B699A420BD9FA69FB681F
:104050009A4207D2FB7A012B04D197F827301846F1
:10406000FFF7CCFC0A2005F0A7FD97F827300133B5
:1040700087F8273097F82730022B7FF67CAF76E75A
:10408000A918002080B582B000AF4FF48030012124
:1040900005F03EFC4FF40043BB804823FB71032333
:1040A000BB713B1D1F481946FDF74CFC1E48012102
:1040B000FDF734FD18233B7000237B700123BB7098
:1040C0000123FB703B46184609F01CFB174B0422EA
:1040D0001A80164B00225A80144B01229A80134BEF
:1040E0000022DA80114B00221A8111480F49FCF797
:1040F00097FA0F486021FCF76FFB0D480421FCF78D
:1041000087FB0B488021FCF79FFB09480121FCF746
:104110001FFB074804210122FCF73AFB0837BD4684
:1041200080BD00BF000C0140010000808C1B0020FE
:104130000040014080B400AF074B074A526822F0AC
:1041400040425A60044B044A526842F080525A601E
:10415000BD465DF8047B7047000C014080B500AFA0
:1041600048480421FCF7E2FB4648FCF7D1FB034634
:104170001A46454B1A80444B1B889BB2002B18D023
:104180004048FCF7B7FB0346642202FB03F23E4BB8
:104190001B889BB292FBF3F39AB23C4B1A803C4BC8
:1041A0001A68394B1B889BB2B2FBF3F2394B1A6089
:1041B00005E0364B00221A80364B00221A60364B3F
:1041C0001B780133DAB2344B1A70334B1A78334B05
:1041D0001B789A4255D9324B1B78002B51D12B4B6F
:1041E0001B889BB2192B19D9284B1B889BB2222BF9
:1041F00014D82C4B1B782B4A12782B498A5CD1B2ED
:104200002A4A1278012000FA02F2D2B2D243D2B284
:104210000A40D2B2D1B2244AD15411E0214B1B78CA
:10422000204A127820498A5CD1B2204A12780120B3
:1042300000FA02F2D2B20A43D2B2D1B21A4AD1542F
:104240001A4B1B78002B16D1184B07221A70154BEE
:104250001B780133DAB2134B1A70124B1B78042B04
:104260000FD10F4B01221A700E4B00221A700F4B08
:1042700007221A7005E00D4B1B78013BDAB20B4B9D
:104280001A7080BD000400405E0000206000002025
:104290000000002064000020680000201A000020B8
:1042A0006A000020BA1B0020A41B0020981B0020DD
:1042B00080B500AF42480421FCF738FB404B1B8F10
:1042C0009AB2404B1A803F4B1B889BB2002B0ED0FA
:1042D0003B4B9B8E9BB2642202FB03F2394B1B8843
:1042E0009BB292FBF3F39AB2374B1A8005E0364B40
:1042F00000221A80354B00221A60354B1B7801339F
:10430000DAB2334B1A70324B1A78324B1B789A421E
:1043100055D9314B1B78002B51D12B4B1B889BB2AD
:10432000192B19D9284B1B889BB2222B14D82B4B45
:104330001B782A4A12782A498A5CD1B2294A127813
:10434000012000FA02F2D2B2D243D2B20A40D2B273
:10435000D1B2234AD15411E0204B1B781F4A127866
:104360001F498A5CD1B21F4A1278012000FA02F27A
:10437000D2B20A43D2B2D1B2194AD154194B1B78E6
:10438000002B16D1174B07221A70144B1B780133E0
:10439000DAB2124B1A70114B1B78042B0FD10E4B53
:1043A00001221A700D4B00221A700E4B07221A7050
:1043B00005E00C4B1B78013BDAB20A4B1A7080BD4A
:1043C000004001405E0000206000002064000020EA
:1043D000680000201A0000206A000020BA1B00209C
:1043E000A41B0020981B002080B500AF06480221C6
:1043F000FCF79CFA044B9B8C9AB2044B5A80024BFC
:1044000000229A8480BD00BF004401406C1B002044
:1044100080B500AF09480221FCF788FA084B9B6879
:1044200003F40073002B04D1044B9B8C9AB2054B10
:104430001A80024B00229A8480BD00BF00480140D0
:10444000000C01406C1B002080B582B000AF192029
:1044500005F0B2FB0023FB7106E0FB79144A002152
:10446000D154FB790133FB71FB79042BF5D9114B46
:1044700000221A70104B00221A70FFF75BFE0F4BE0
:104480004FF400425A61052005F096FB0B4B4FF4A8
:1044900000421A61FFF7F6FDC82005F08DFB0520EC
:1044A00005F08AFB00F00CF80837BD4680BD00BF60
:1044B000A41B0020680000206A000020000C0140BE
:1044C00080B500AF0A2005F077FB644B1B78012B09
:1044D00040F0C3800A2005F06FFB614B1B781B0284
:1044E0009AB25F4B5B7813449AB25E4B5A805C4B36
:1044F0009B781B029AB25A4BDB7813449AB2594B01
:104500001A80574B5A79574B1A71564B5A88564B4B
:104510001B889A4208D9534B5A88544B1B889A429D
:1045200002D2534B00221A704E4B5A884E4B1B88B6
:104530009A4202D24E4B01221A704A4B5A884B4B78
:104540001B889A4202D94A4B02221A700A2005F0AF
:1045500033FB444B1B88474AA2FB031292094FF4DA
:104560007A7101FB02F29B1A9AB2434BA3FB02132E
:104570005B099BB2DBB23033DAB2404B1A70394B75
:104580001B883D4AA2FB03125209642101FB02F27F
:104590009B1A9AB23A4BA3FB0213DB089BB2DBB225
:1045A0003033DAB2354B5A70344B2E229A702D4B81
:1045B0001A88334BA3FB0213D9080B469B000B440C
:1045C0005B00D31A9BB2DBB23033DAB22B4BDA701A
:1045D0000A2005F0F1FA234B5B88264AA2FB03125E
:1045E00092094FF47A7101FB02F29B1A9AB2224BA4
:1045F000A3FB02135B099BB2DBB23033DAB2214B6F
:104600001A70184B5B881C4AA2FB031252096421E2
:1046100001FB02F29B1A9AB2194BA3FB0213DB08AF
:104620009BB2DBB23033DAB2164B5A70154B2E22E6
:104630009A700C4B5A88124BA3FB0213D9080B46F5
:104640009B000B445B00D31A9BB2DBB23033DAB26F
:104650000C4BDA70014B00221A7080BD6A000020FA
:10466000A41B0020281B0020BC1B0020041B0020D2
:1046700071000020D34D62101F85EB51AC1B002050
:10468000CDCCCCCC441B002080B582B000AF002341
:10469000FB710023BB713EE01E2005F08DFA03F094
:1046A000D9F90346FB710020002104F0D9FB1E4B11
:1046B0001B78184603F0C4FA1C4804F09BFBFB79F6
:1046C000042B05D1184B1B780133DAB2164B1A7044
:1046D000FB79012B05D1144B1B78013BDAB2124B4D
:1046E0001A700120002104F0BBFB114804F082FB8A
:1046F000104811490422022303F0AAF801200721DF
:1047000004F0AEFB0D4804F075FB0D480A49042285
:104710000A2303F09DF8FB79022BBDD104F09CFD28
:104720000837BD4680BD00BF1A000020FCE6000827
:1047300000E70008AC1B00208400002004E700080C
:10474000441B002080B483B000AF0346FB80FA888E
:10475000094B1B68D21A13469B0013445B001A4690
:10476000064B1B68B2FBF3F3DBB218460C37BD46B1
:104770005DF8047B704700BFA8000020B400002053
:1047800080B483B000AF0346FB71FB790A4A12681C
:1047900002FB03F3094A82FB03129210DB17D31AC0
:1047A0009AB2074B1B689BB213449BB218460C3756
:1047B000BD465DF8047B7047B400002067666666FE
:1047C000A800002080B582B000AF0023BB8000238A
:1047D000FB7104F041FD284804F00CFB0A2005F0B1
:1047E000EBF93B1D40F20460194609F0BFFABB88A3
:1047F0001846FFF7A7FF0346FB71FB79184600F048
:1048000085F90346FB710A2005F0D6F9FB791846B5
:10481000FFF7B6FF034640F20460194609F0F2FACA
:1048200004F01AFD154804F0E5FA0A2005F0C4F971
:104830003B1D40F20560194609F098FABB881846FE
:10484000FFF780FF0346FB71FB79184600F05EF925
:104850000346FB710A2005F0AFF9FB791846FFF714
:104860008FFF034640F20560194609F0CBFA04F0C9
:10487000F3FC0837BD4680BD08E7000888E500085E
:1048800080B584B000AF0346FB710023FB73FB7956
:104890003E4AA3FB02015A1A52080A4492096521B2
:1048A00001FB02F29B1AFB7167E003F0D3F80346A9
:1048B000FB730120032104F0D3FAFA79344B83FB14
:1048C00002139911D317CB1A4FF47A7101FB03F33A
:1048D000D31A304A82FB03125211DB17D31ADBB210
:1048E0003B72FB792B4AA2FB03125209642101FBA4
:1048F00002F29B1ADAB2284BA3FB0213DB08DBB2ED
:104900007B72FA79244BA3FB0213D9080B469B0058
:104910000B445B00D31ADBB2BB72204804F06AFA86
:1049200007F1080318461E490322062302F090FFF0
:1049300001200C2104F094FA1A4804F05BFA0A20D2
:1049400005F03AF9FB7B042B08D1FB79632B03D8E4
:10495000FB790133FB7101E00023FB71FB7B012B31
:1049600008D1FB79002B02D10023FB7102E0FB7917
:10497000013BFB710A2005F01FF9FB7B022B94D150
:10498000FB7918461037BD4680BD00BF57866F447F
:10499000D34D62101F85EB51CDCCCCCC18E700086D
:1049A000840000201CE7000880B582B000AF00231F
:1049B000BB800023FB7104F04FFC204804F01AFA7E
:1049C0000A2005F0F9F83B1D40F20760194609F08E
:1049D000CDF9BB88DBB21846FFF752FF0346FB71E7
:1049E0000A2005F0E9F8FB799BB240F2076019460E
:1049F00009F008FA04F030FC114804F0FBF90A2031
:104A000005F0DAF83B1D4FF4C160194609F0AEF924
:104A1000BB88DBB21846FFF733FF0346FB710A2061
:104A200005F0CAF8FB799BB24FF4C160194609F052
:104A3000E9F904F011FC0837BD4680BD20E7000805
:104A400030E7000880B582B000AF03463960FB71E3
:104A50003B68DA1CF9792C4BA3FB0103DB08DBB2C2
:104A600019464901C91A8900CB1A5B00D9B2FB79F2
:104A70000B44DBB23033DBB21370052005F09CF839
:104A8000FA79214BA3FB0213DB08FB713B6802336D
:104A90002E221A703B685A1CF9791B4BA3FB0103A9
:104AA000DB08DBB219464901C91A8900CB1A5B0041
:104AB000D9B2FB790B44DBB23033DBB21370052083
:104AC00005F07AF8FA79104BA3FB0213DB08FB71AF
:104AD000FA790D4BA3FB0203DB08DBB21A46520145
:104AE000D21A9200D31A5B00DAB2FB791344DBB21C
:104AF0003033DAB23B681A703B68043300221A7014
:104B00000837BD4680BD00BFCDCCCCCC80B584B0CD
:104B100000AF0346FB710023FB733EE002F09AFFF7
:104B20000346FB730120032104F09AF9FA7907F197
:104B3000080310461946FFF785FF1C4804F05AF990
:104B400007F1080318461A490422062302F080FEE2
:104B500001200C2104F084F9164804F04BF90A20D6
:104B600005F02AF8FB7B042B08D1FB79FD2B03D839
:104B7000FB790133FB7101E00023FB71FB7B012B0F
:104B800008D1FB79002B02D10023FB7102E0FB79F5
:104B9000013BFB710A2005F00FF8FB7B022BBDD116
:104BA000FB7918461037BD4680BD00BF18E70008E6
:104BB000840000201CE7000880B58AB000AF786050
:104BC000396000233B767968AC4BA3FB0123DA08FC
:104BD00013469B0013445B00CA1AD3B23033DBB2D6
:104BE000FB757A68A54BA3FB0213DB087B60796831
:104BF000A24BA3FB0123DA0813469B0013445B007E
:104C0000CA1AD3B23033DBB2BB757A689B4BA3FBB5
:104C10000213DB087B607968984BA3FB0123DA0859
:104C200013469B0013445B00CA1AD3B23033DBB285
:104C30007B757A68914BA3FB0213DB087B60796874
:104C40008E4BA3FB0123DA0813469B0013445B0041
:104C5000CA1AD3B23033DBB23B757A68874BA3FBF9
:104C60000213DB087B607968844BA3FB0123DA081D
:104C700013469B0013445B00CA1AD3B23033DBB235
:104C8000FB747A687D4BA3FB0213DB087B607968B9
:104C90007A4BA3FB0123DA0813469B0013445B0005
:104CA000CA1AD3B23033DBB2BB74192004F084FFCC
:104CB0007A68724BA3FB0213DB087B6079686F4B49
:104CC000A3FB0123DA0813469B0013445B00CA1AB6
:104CD000D3B23033DBB27B747A68684BA3FB021328
:104CE000DB087B607968654BA3FB0123DA08134678
:104CF0009B0013445B00CA1AD3B23033DBB23B745F
:104D00007A685E4BA3FB0213DB087B6079685B4B20
:104D1000A3FB0123DA0813469B0013445B00CA1A65
:104D2000D3B23033DBB2FB737A68544BA3FB02136C
:104D3000DB087B607968514BA3FB0123DA0813463B
:104D40009B0013445B00CA1AD3B23033DBB2BB738F
:104D50007A684A4BA3FB0213DB087B607968474BF8
:104D6000A3FB0123DA0813469B0013445B00CA1A15
:104D7000D3B23033DBB27B737A68404BA3FB0213B0
:104D8000DB087B6079683D4BA3FB0123DA081346FF
:104D90009B0013445B00CA1AD3B23033DBB23B73BF
:104DA0007A68364BA3FB0213DB087B607968334BD0
:104DB000A3FB0123DA0813469B0013445B00CA1AC5
:104DC000D3B23033DBB2FB727A682C4BA3FB0213F5
:104DD000DB087B607968294BA3FB0123DA081346C3
:104DE0009B0013445B00CA1AD3B23033DBB2BB72F0
:104DF0007A68224BA3FB0213DB087B6079681F4BA8
:104E0000A3FB0123DA0813469B0013445B00CA1A74
:104E1000D3B23033DBB27B727A68184BA3FB021338
:104E2000D908164BA3FB0123DA0813469B00134451
:104E30005B00CA1AD3B23033DBB23B7200233B6251
:104E400007F108023B6A13441B78FB613023FB61C6
:104E5000192004F0B1FE08E03B6A01333B6207F120
:104E600008023B6A13441B78FB61FB69302BF3D0CB
:104E7000192004F0A1FE3B6A7B620FE0CDCCCCCCC4
:104E80007A6A3B6AD31A3A68134407F108017A6ACE
:104E90000A4412781A707B6A01337B627B6A102B9A
:104EA000EEDD3B6818462837BD4680BD80B485B02E
:104EB00000AF78607B68FA2202FB03F3FB6000BF5F
:104EC000FB685A1EFA60002BFAD11437BD465DF814
:104ED000047B704780B584B000AF04F0BDF90020BA
:104EE000002103F0BDFF9548012102F021F947F2AE
:104EF0003050FFF7DBFF00F0ADFD6420FFF7D6FF79
:104F00008F4B1B88BB800020002103F0A9FF8D4838
:104F1000022102F00DF947F23050FFF7C7FF00F011
:104F200099FD6420FFF7C2FF854B1B88FB800020A2
:104F3000002103F095FF8448062102F0F9F847F2BA
:104F40003050FFF7B3FF00F085FD6420FFF7AEFFA0
:104F50007B4B1B883B8104F07FF97C48012102F0E8
:104F6000E7F847F23050FFF7A1FF00F073FD64202F
:104F7000FFF79CFF724B1B887B817B89DB089AB211
:104F8000BB88DB089BB29A4203D2714B01221A7094
:104F90000EE07B89DB089AB2BB88DB089BB29A42A1
:104FA00003D96B4B00221A7002E0694B02221A707F
:104FB000674B1B78002B54D1FB881A46BB88D31A49
:104FC000DA0F13445B109BB2053BFB81BA88FB8967
:104FD0005B089BB2D31A9AB25E4B1A80BA88FB89DF
:104FE00013449AB25B4B5A80FA88FB89D31A9AB25F
:104FF000584B9A803B891A46FB88D31ADA0F134420
:105000005B109BB2053BFB81FA88FB8913449AB283
:10501000504BDA803A89FB89D31A9AB24D4B1A81E8
:105020007B891A463B89D31ADA0F13445B109BB273
:10503000053BFB813A89FB8913449AB2454B5A815F
:105040007A89FB89D31A9AB2424B9A817A89FB8971
:105050005B089BB213449AB23E4BDA8100F0B4F97C
:1050600059E03B4B1B78012B50D1BB881A46FB887B
:10507000D31ADA0F13445B109BB2053BFB81BA884D
:10508000FB89D31A9AB2334B1A80BA88FB8913442E
:105090009AB2304B5A80FA88FB89D31A9AB22D4BB8
:1050A0009A80FB881A463B89D31ADA0F13445B10A7
:1050B0009BB2053BFB81FA88FB8913449AB2254BCE
:1050C000DA803A89FB89D31A9AB2224B1A813B893A
:1050D0001A467B89D31ADA0F13445B109BB2053B47
:1050E000FB813A89FB8913449AB21A4B5A817A8917
:1050F000FB89D31A9AB2174B9A817A89FB89134498
:105100009AB2144BDA8100F05FF904E0124803F020
:1051100071FE00F077F90F4B1A880E4B1B8A9A42EA
:1051200002D90B4B01221A700020002103F098FED7
:105130000A4803F05FFE1037BD4680BD18E700083F
:10514000841B00205CED000860ED00081CE70008EF
:1051500096000020181B002068ED000878ED00087C
:1051600080B582B000AF0023FB7104F075F84FF4F6
:10517000FA7004F021FD5EE002F06CFC0346FB7166
:105180000020002103F06CFE2F4803F033FE2F4B6C
:105190001A882F4BA3FB02135B099BB2DBB21846A4
:1051A00002F04EFD294B1B88DBB2184602F048FD89
:1051B000284803F01FFE254B5A88254BA3FB0213FA
:1051C0005B099BB2DBB2184602F03AFD1F4B5B88CD
:1051D000DBB2184602F034FD0120002103F040FE4E
:1051E0001D4803F007FE194B9A88194BA3FB0213C5
:1051F0005B099BB2DBB2184602F022FD134B9B8881
:10520000DBB2184602F01CFD144803F0F3FD0F4B0F
:10521000DA880F4BA3FB02135B099BB2DBB2184683
:1052200002F00EFD094BDB88DBB2184602F008FDE8
:10523000142004F0C1FCFB79022B9DD104F00CF882
:105240000837BD4680BD00BFCCE40008841B0020A9
:105250001F85EB5184ED0008D4E4000888ED0008B8
:1052600080B582B000AF0023FB710023BB7103F057
:10527000F3FF4FF4FA7004F09FFC3BE002F0EAFB0E
:105280000346FB710020002103F0EAFD022004F038
:1052900093FC0023BB7108E0BB791A4AD35C184623
:1052A000FCF7C4FCBB790133BB71BB79042BF3D988
:1052B000012004F081FC0120002103F0D1FD114BFD
:1052C0005B791846FCF7B2FC0E4B9B791846FCF74D
:1052D000ADFC0D4803F08EFD0C4B1B78184602F018
:1052E000AFFC08480A490722092302F0B1FA14204A
:1052F00004F062FCFB79022BC0D103F0ADFF08374C
:10530000BD4680BD381B0020B8E50008C60000205F
:105310008400002080B582B000AF0023FB71002321
:10532000BB7103F099FF4FF4FA7004F045FC3BE0C9
:1053300002F090FB0346FB710020002103F090FD7A
:10534000022004F039FC0023BB7108E0BB791A4A43
:10535000D35C1846FCF76AFCBB790133BB71BB799F
:10536000042BF3D9012004F027FC0120002103F0D5
:1053700077FD114B5B791846FCF758FC0E4B9B7977
:105380001846FCF753FC0D4803F034FD0C4B1B781A
:10539000184602F055FC08480A490722092302F082
:1053A00057FA142004F008FCFB79022BC0D103F05B
:1053B00053FF0837BD4680BD5C1B0020B8E50008E0
:1053C000590000208400002080B582B000AF002387
:1053D000FB710FE0FB799BB203F20A639AB2F97991
:1053E000074B33F811301046194608F00BFDFB79D6
:1053F0000133FB71FB79072BECD90837BD4680BD23
:10540000181B002080B582B000AF0023FB710FE0B5
:10541000FB799BB203F20A639AB2FB795900074BFE
:105420000B441046194608F0A1FCFB790133FB71CF
:10543000FB79072BECD90837BD4680BD181B00202F
:1054400080B58AB000AF7860962004F0B5FB02F01A
:1054500059F93862022004F0AFFBA54B1B683A6A89
:105460009A4240F2AE8102F04DF90246A04B1A601A
:1054700007F10C03386A194602F0C4FC022004F05C
:105480009BFB00237B620BE007F10C027B6A134459
:105490001A7898497B6A0B441A707B6A01337B62E5
:1054A0007B6A092BF0DD022004F086FB914B2C2255
:1054B0009A72022004F080FB04F0E0FB00237B6280
:1054C00012E07B6A0B338C497A6A0A441178894A64
:1054D000D1547B6A103389497A6A0A441178854A23
:1054E000D1547B6A01337B627B6A032BE9DD04F0D4
:1054F000D3FB022004F060FB7E4B2C22DA737D4B41
:105500002C221A750023FB8300237B6219E0012201
:105510007B6A02FA03F39AB2794B1B689BB2134081
:10552000FB83FA8B7B6A42FA03F3FB837B6A1533B6
:10553000FA8BD2B23032D1B26E4AD1547B6A013387
:105540007B627B6A022BE2DD6A4B2C221A766D4865
:1055500068490422192302F07BF9664B2C225A7702
:105560006948644904221E2302F072F9614B2C221F
:1055700083F8222000237B621AE0644B1B781A46D2
:1055800001217B6A01FA03F39BB213409BB2FB83B8
:10559000FA8B7B6A42FA03F3FB837B6A2333FA8B31
:1055A000D2B23032D1B2534AD1547B6A01337B62DA
:1055B0007B6A022BE1DD4F4B2C2283F8262000234F
:1055C0007B621BE0524B9B689AB27B6A04330121D9
:1055D00001FA03F39BB21340FB83FA8B7B6A04331B
:1055E00042FA03F3FB837B6A2733FA8BD2B2303261
:1055F000D1B2404AD1547B6A01337B627B6A022B71
:10560000E0DD3C4B2C2283F82A2000237B621AE049
:10561000404B1B781A4601217B6A01FA03F39BB2C7
:1056200013409BB2FB83FA8B7B6A42FA03F3FB8342
:105630007B6A2B33FA8BD2B23032D1B22D4AD1549D
:105640007B6A01337B627B6A022BE1DD294B2C22D2
:1056500083F82E2000237B621BE02D4BDB689AB27F
:105660007B6A0B33012101FA03F39BB21340FB83E6
:10567000FA8B7B6A0B3342FA03F3FB837B6A2F338B
:10568000FA8BD2B23032D1B21A4AD1547B6A01338A
:105690007B627B6A022BE0DD164B2C2283F83220E2
:1056A00000237B621AE01B4B1B781A4601217B6AA0
:1056B00001FA03F39BB213409BB2FB83FA8B7B6A24
:1056C00042FA03F3FB837B6A3333FA8BD2B2303274
:1056D000D1B2084AD1547B6A01337B627B6A022BC8
:1056E000E1DD044B2C2283F8362000237B622EE080
:1056F000BC000020C01B00209C1B0020B01B002011
:10570000541B0020AC1B0020441B0020151B002054
:1057100000080140301B0020304B1B781A46012145
:105720007B6A01FA03F39BB213409BB2FB83FA8BB3
:105730007B6A42FA03F3FB837B6A3733FA8BD2B27C
:105740003032D1B2264AD1547B6A01337B627B6A04
:10575000022BE1DD224B2C2283F83A2000237B62CE
:105760001AE0204B1B781A4601217B6A01FA03F3E9
:105770009BB213409BB2FB83FA8B7B6A42FA03F322
:10578000FB837B6A3B33FA8BD2B23032D1B2144AFC
:10579000D1547B6A01337B627B6A022BE1DD104BC3
:1057A0000D2283F83E200E4B0A2283F83F200E4B39
:1057B00000221A700A48402100F018F8022004F074
:1057C000FBF9022004F0F8F9FEF73EFEFDF716FAA9
:1057D000FDF71AFA08F06AFD39E600BFA8180020A4
:1057E000C01B0020A91800205C00002080B588B0F4
:1057F00000AF786039602E4B1B68002B51D12D4AC9
:1058000007F10C0307CA03C31A800233120C1A7083
:1058100004F034FA07F10C0327481946032207F075
:105820005FF90346FB77FB7F002B0DD007F10C03DC
:10583000214819460A2207F053F90346FB77FB7FFC
:10584000002B01D0FB7F2FE01B4BDB681A48194669
:1058500007F0C4FC0346FB77FB7F002B01D0FB7FE6
:1058600022E03A6807F118031348796807F074FAE0
:105870000346FB77FB7F002B01D0FB7F14E00E4833
:1058800007F0F0FB0346FB77FB7F002B01D0FB7F8B
:105890000AE0094807F08EFC0346FB7704F0FCF9A8
:1058A00001E00023FB77FB7F18462037BD4680BD13
:1058B000001B00208CED0008C800002080B584B0DB
:1058C00000AF0023FB6046E002F0C4F80346FB6033
:1058D000052004F071F90020002103F0C1FA5548B9
:1058E00003F088FA052004F067F940F2016052499C
:1058F00008F03CFA504B1B881A463B1D10461946CF
:1059000002F066FB3B1D18464C490422082301F0B7
:105910009FFF0120052103F0A3FA494B9B881A46FB
:105920003B1D1046194602F053FB3B1D184603F081
:1059300061FA0A2004F040F90120002103F090FAF6
:1059400000F028F90A2004F037F93E4803F052FA33
:10595000642004F031F9FB68022BB5D1384B9B88E9
:105960007B817B8940F20160194608F04BFA0023E5
:10597000FB600020002103F073FA334803F03AFA89
:105980004FF4FA6004F018F942E002F063F80346BD
:10599000FB6003F061FC192004F00EF900200021E7
:1059A00003F05EFA294803F025FA0020082103F0ED
:1059B00057FA00F0EFF8264B1B881A463B1D10469D
:1059C0001946FFF7F9F83B1D184603F013FA0120BA
:1059D000052103F045FA1A4BDB881A463B1D104699
:1059E0001946FFF7E9F83B1D184603F003FA1920A2
:1059F00004F0E2F80120002103F032FA192004F04B
:105A0000DBF8104803F0F6F94FF4FA7004F0D4F81C
:105A1000FB68022BB9D10A4B9B887B81084BDB8842
:105A20004FF4C060194608F0EDF902F089FC103718
:105A3000BD4680BD98ED0008A40000207400002041
:105A4000841B00209C1B0020A0ED0008B0ED000886
:105A5000AC00002080B487B000AF00237B6100233E
:105A60003B610023FB600023BB6000237B600023BD
:105A70003B6000233B6157E000237B6126E07B69AC
:105A80005A1C3D4B33F812103B4B7A6923F8121025
:105A90007B695A1C394B33F81210384B7A6923F85A
:105AA00012107B695A1C364B33F81210344B7A694A
:105AB00023F812107B695A1C324B33F81210314B09
:105AC0007A6923F812107B6901337B617B69082BAB
:105AD000D5DD2D4BDB6B9AB2274B5A822A4B1B6CC0
