:020000040800F2
:10000000FC1F0020090B0008690B0008690B0008A1
:10001000690B0008690B0008690B0008000000006C
:10002000000000000000000000000000D1B6000841
:10003000690B000800000000A5B70008E1B7000840
:10004000690B0008690B0008690B0008690B0008C0
:10005000690B0008690B0008F5310008113200082F
:100060002D320008690B0008690B0008690B0008B5
:10007000690B0008690B0008CD2A0008E12A000876
:10008000690B0008690B0008690B000800000000FC
:1000900000000000000000000000000059320008CD
:1000A000B1450008E946000811470008690B00083F
:1000B000690B00085D440008690B0008690B000823
:1000C000690B0008690B0008690B0008690B000840
:1000D000690B000865210008690B0008690B00081E
:1000E00039320008690B0008690B000800000000A5
:1000F0000000000000000000000000000000000000
:1001000000000000000000000000000000000000EF
:100110000000000000000000690B0008690B0008E7
:100120005FF808F180B485B000AF786039600023D3
:10013000FB817B681B88FB817A682E4B9A4213D027
:100140007A682D4B9A420FD07B68B3F1804F0BD069
:100150007A682A4B9A4207D07A68294B9A4203D090
:100160007A68284B9A4208D1FB8923F07003FB81FF
:100170003B685A88FB891343FB817A68224B9A4279
:100180000CD07A68214B9A4208D0FB8923F4407343
:10019000FB813B68DA88FB891343FB817B68FA8922
:1001A0001A803B689A887B689A853B681A887B68C6
:1001B0001A857A680F4B9A420FD07A680E4B9A4292
:1001C0000BD07A68124B9A4207D07A68114B9A4248
:1001D00003D07A68104B9A4204D13B681B7A1A46C6
:1001E0007B681A867B6801229A821437BD465DF8C7
:1001F000047B7047002C01400034014000040040A3
:1002000000080040000C00400010004000140040B6
:1002100000400140004401400048014080B485B0E6
:1002200000AF7860396000237B810023FB810023CD
:10023000BB817B681B8C9BB223F001039AB27B6865
:100240001A847B681B8CFB817B689B88BB817B68E5
:100250001B8B7B817B8923F070037B817B8923F05F
:1002600003037B813B681A887B8913437B81FB896D
:1002700023F00203FB813B681A89FB891343FB814E
:100280003B685A88FB891343FB817A68244B9A4266
:100290000FD07A68234B9A420BD07A68224B9A424D
:1002A00007D07A68214B9A4203D07A68204B9A4251
:1002B00023D1FB8923F00803FB813B685A89FB8922
:1002C0001343FB81FB8923F00403FB813B689A887D
:1002D000FB891343FB81BB8923F48073BB81BB89FA
:1002E00023F40073BB813B689A89BB891343BB81AC
:1002F0003B68DA89BB891343BB817B68BA899A80E2
:100300007B687A891A833B68DA887B689A867B687F
:10031000FA891A841437BD465DF8047B704700BF24
:10032000002C0140003401400040014000440140E5
:100330000048014080B485B000AF78603960002388
:100340007B810023FB810023BB817B681B8C9BB2DC
:1003500023F010039AB27B681A847B681B8CFB81A4
:100360007B689B88BB817B681B8B7B817B8923F4AB
:10037000E0437B817B8923F440737B813B681B884E
:100380001B029AB27B8913437B81FB8923F02003F4
:10039000FB813B681B891B019AB2FB891343FB81DC
:1003A0003B685B881B019AB2FB891343FB817A6827
:1003B000224B9A4203D07A68214B9A422BD1FB8977
:1003C00023F08003FB813B685B891B019AB2FB89A8
:1003D0001343FB81FB8923F04003FB813B689B882F
:1003E0001B019AB2FB891343FB81BB8923F4806311
:1003F000BB81BB8923F40063BB813B689B899B0065
:100400009AB2BB891343BB813B68DB899B009AB2DC
:10041000BB891343BB817B68BA899A807B687A89E0
:100420001A833B68DA887B681A877B68FA891A84A2
:100430001437BD465DF8047B704700BF002C0140B7
:100440000034014080B485B000AF7860396000238B
:100450007B810023FB810023BB817B681B8C9BB2CB
:1004600023F480739AB27B681A847B681B8CFB81AF
:100470007B689B88BB817B689B8B7B817B8923F01E
:1004800070037B817B8923F003037B813B681A889F
:100490007B8913437B81FB8923F40073FB813B68D9
:1004A0001B891B029AB2FB891343FB813B685B8863
:1004B0001B029AB2FB891343FB817A68224B9A4252
:1004C00003D07A68214B9A422BD1FB8923F4006335
:1004D000FB813B685B891B029AB2FB891343FB815A
:1004E000FB8923F48063FB813B689B881B029AB2E3
:1004F000FB891343FB81BB8923F48053BB81BB89F8
:1005000023F40053BB813B689B891B019AB2BB89D2
:100510001343BB813B68DB891B019AB2BB89134340
:10052000BB817B68BA899A807B687A899A833B68A9
:10053000DA887B689A877B68FA891A841437BD4603
:100540005DF8047B704700BF002C0140003401407F
:1005500080B485B000AF786039600023BB81002390
:100560007B810023FB817B681B8C9BB223F480532F
:100570009AB27B681A847B681B8C7B817B689B8822
:10058000FB817B689B8BBB81BB8923F4E043BB81F0
:10059000BB8923F44073BB813B681B881B029AB262
:1005A000BB891343BB817B8923F400537B813B6868
:1005B0001B891B039AB27B8913437B813B685B8851
:1005C0001B039AB27B8913437B817A68124B9A4250
:1005D00003D07A68114B9A420AD1FB8923F48043F5
:1005E000FB813B689B899B019AB2FB891343FB818A
:1005F0007B68FA899A807B68BA899A833B68DA8833
:100600007B68A3F840207B687A891A841437BD463A
:100610005DF8047B704700BF002C014000340140AE
:1006200080B584B000AF786039600023FB8101237E
:10063000BB813B685B88002B02D10223FB8101E078
:100640000023FB813B689B88012B02D10223BB81E5
:1006500001E00123BB813B681B88002B1CD13B6858
:1006600059883B689A883B681B89786800F06EF966
:100670003B68DB887868194600F002F93B681B8903
:10068000F989BA89786800F0CBF93B68DB8878682B
:10069000194600F011F91BE03B6859883B689A88BD
:1006A0003B681B89786800F0BBF93B68DB88786899
:1006B000194600F001F93B681B89F989BA89786805
:1006C00000F044F93B68DB887868194600F0D8F8F8
:1006D0001037BD4680BD00BF80B483B000AF7860E6
:1006E0007B684FF6FF729A807B6800221A807B68D5
:1006F0000022DA807B6800225A807B6800221A720E
:100700000C37BD465DF8047B704700BF80B483B0F2
:1007100000AF78607B6800221A807B6800225A80D4
:100720007B6800229A807B680022DA807B68002246
:100730001A817B6800225A817B6800229A817B683B
:100740000022DA810C37BD465DF8047B704700BF9C
:1007500080B483B000AF78600B46FB70FB78002B51
:1007600008D07B681B889BB243F001039AB27B6878
:100770001A8007E07B681B889BB223F001039AB2C2
:100780007B681A800C37BD465DF8047B704700BF5C
:1007900080B483B000AF786013460A467A807B70DD
:1007A0007B78002B08D07B689B899AB27B881343A7
:1007B0009AB27B689A8109E07B689B899AB27B88B0
:1007C000DB439BB213409AB27B689A810C37BD46DB
:1007D0005DF8047B704700BF80B485B000AF7860DF
:1007E0000B467B800023FB817B681B89FB81FB8997
:1007F00023F07003FB81FA897B881343FB817B68BC
:10080000FA891A811437BD465DF8047B704700BF32
:1008100080B483B000AF78600B467B807B681B8917
:100820009BB223F007039AB27B681A817B681B890D
:100830009AB27B8813439AB27B681A810C37BD4603
:100840005DF8047B704700BF80B483B000AF786070
:100850000B467B807B681B899BB223F080039AB296
:100860007B681A817B681B899AB27B8813439AB292
:100870007B681A810C37BD465DF8047B704700BF6A
:1008800080B483B000AF78600B467B807B681B8BA5
:100890009BB223F00C039AB27B681A837B681B8B94
:1008A0009AB27B8813439AB27B681A830C37BD4691
:1008B0005DF8047B704700BF80B483B000AF786000
:1008C0000B467B807B681B8B9BB223F440639AB200
:1008D0007B681A837B681B8B9AB27B881B029BB256
:1008E00013439AB27B681A830C37BD465DF8047BCC
:1008F000704700BF80B483B000AF78607B689B8E88
:100900009BB218460C37BD465DF8047B704700BFAC
:1009100080B483B000AF78607B681B8F9BB21846B1
:100920000C37BD465DF8047B704700BF80B483B0D0
:1009300000AF78600B467B807B88DB439AB27B6894
:100940001A820C37BD465DF8047B704780B487B0CF
:1009500000AFF86079813A81FB800023BB820023DD
:10096000FB82FB681B8C9BB223F001039AB2FB68ED
:100970001A84FB681B8BBB82FB681B8CFB82BB8AC7
:1009800023F0F303BB82FB881B019AB23B8913431C
:100990009AB2BB8A1343BB82FA681C4B9A4213D0AB
:1009A000FA681B4B9A420FD0FB68B3F1804F0BD013
:1009B000FA68184B9A4207D0FA68174B9A4203D04C
:1009C000FA68164B9A420BD1FB8A23F00203FB8292
:1009D0007A89FB8A13439BB243F00103FB820AE04E
:1009E000FB8A23F00A03FB827A89FB8A13439BB2BA
:1009F00043F00103FB82FB68BA8A1A83FB68FA8A18
:100A00001A841C37BD465DF8047B7047002C0140FA
:100A1000003401400004004000080040000C004089
:100A200080B487B000AFF86079813A81FB80002301
:100A3000BB820023FB8200237B82FB681B8C9BB262
:100A400023F010039AB2FB681A84FB681B8BBB82ED
:100A5000FB681B8CFB827B891B017B82BB8A23F496
:100A600040731B051B0DBB82FB881B039AB2BB8A1C
:100A70001343BB823B891B029AB2BB8A1343BB82DE
:100A8000FA681C4B9A4213D0FA681B4B9A420FD05B
:100A9000FB68B3F1804F0BD0FA68184B9A4207D02D
:100AA000FA68174B9A4203D0FA68164B9A420BD158
:100AB000FB8A23F02003FB827A8AFB8A13439BB2D2
:100AC00043F01003FB820AE0FB8A23F0A003FB82C1
:100AD0007A89FB8A13439BB243F01003FB82FB68C5
:100AE000BA8A1A83FB68FA8A1A841C37BD465DF8F5
:100AF000047B7047002C014000340140000400409A
:100B000000080040000C004080B582B000AF114BDF
:100B10007B60114B3B6007E03B681A1D3A607A68C6
:100B2000111D796012681A603A680C4B9A42F3D32F
:100B30000B480C494FF000028842B8BF40F8042B24
:100B4000FFF6FAAF00F014F807F06AFC0837BD466C
:100B500080BD00BFA4F40008000000204800002071
:100B600048000020FC1B002080B400AFFEE700BF5F
:100B700080B500AF164B164A126842F001021A60A7
:100B8000134A134B5968134B0B405360104A104BD8
:100B90001B6823F0847323F4803313600C4B0C4ADE
:100BA000126822F480221A60094B094A526822F422
:100BB000FE025A60064B4FF41F029A60044B00225B
:100BC000DA6200F00BF8044B4FF000629A6080BDCF
:100BD000001002400000FFF800ED00E080B500AF1B
:100BE00000F002F880BD00BF80B483B000AF0023E6
:100BF0007B6000233B60304B2F4A126842F4803206
:100C00001A602D4B1B6803F400333B607B68013393
:100C10007B603B68002B03D17B68B3F5A06FF0D1FC
:100C2000254B1B6803F00203002B02D001233B601D
:100C300001E000233B603B68012B37D11E4B1E4A6D
:100C400052685A601C4B1C4A52685A601A4B1A4A26
:100C500052685A60184B184A526822F47C125A6043
:100C6000154B154A526842F498125A60124B124AB8
:100C7000126842F080721A6000BF0F4B1B6803F0CD
:100C80000073002BF9D00C4B0B4A526822F0030280
:100C90005A60094B084A526842F002025A6000BF8B
:100CA000054B5B6803F00C03082BF9D10C37BD46EC
:100CB0005DF8047B704700BF0010024080B485B02F
:100CC00000AF0346FB710D4B1B889BB2FB60FB79A9
:100CD000002B04D1FB6843F03803FB6005E0FB68A0
:100CE00023F0380343F00803FB60044BFA6892B228
:100CF0001A801437BD465DF8047B70470030014010
:100D000080B483B000AF0346FB710C37BD465DF87D
:100D1000047B704780B400AF01231846BD465DF8E0
:100D2000047B704780B582B000AF0346FB71FB794E
:100D30009BB20A4819460CF049FF00BF0748012141
:100D40000CF060FF0346002BF8D004480CF04CFF79
:100D50000346DBB218460837BD4680BD003001406F
:100D600080B500AFFF20FFF7DDFF0346184680BDCA
:100D700080B582B000AF0A4B32221A60FFF7F0FF55
:100D8000FFF7EEFF0346FB71FB79FF2B03D0044B0B
:100D90001B68002BF4D1FB7918460837BD4680BD8F
:100DA0004C00002080B500AF03484FF4004100F034
:100DB00099FEFFF7D5FF80BD0008014080B590B0D7
:100DC00000AF0346B9607A60FB734FF6FF733B8256
:100DD000384B7B610023FB6200233B6300237B6273
:100DE0007B683B6200237B634FF44053BB6300236B
:100DF000FB6331480CF0CCFC30480CF0C9FCFB7BA9
:100E0000002B19D0BB68BB610023FB618023BB6250
:100E100007F11403284819460CF076FD07F110037A
:100E2000BB611023FB610023BB6207F1140323485D
:100E300019460CF069FD18E007F11003BB610023AF
:100E4000FB610023BB6207F114031B4819460CF039
:100E50005BFDBB68BB611023FB618023BB6207F1B4
:100E60001403164819460CF04FFD134801210CF0ED
:100E700089FD124801210CF085FD11480321012252
:100E80000CF080FE00BF20200CF098FD0346002BE4
:100E9000F9D0094800210CF075FD084800210CF03C
:100EA00071FD0748032100220CF06CFE4037BD465F
:100EB00080BD00BF0C3001401C00024030000240E9
:100EC0000030014080B500AF494B494A926942F079
:100ED00001029A61464B464A926942F004029A61C5
:100EE000434B434A926942F008029A61414801210A
:100EF00000F014FE0120012100F010FE3E4B3E4A9E
:100F0000526842F040525A603B4B3B4A526822F0D2
:100F100040425A60384B4FF400421A61374B374A0F
:100F2000126842F440521A60344B344A126822F478
:100F300040421A60314B314A126842F400421A6052
:100F40002E4B2E4A126822F440321A602B4B2B4A49
:100F5000126822F440221A60284B284A126842F490
:100F600000221A60254B10221A61244B234A126872
:100F700042F440121A60214B204A126822F44002C7
:100F80001A601E4B1D4A126842F400021A60184B88
:100F9000174A926942F480529A61194B00229A8052
:100FA000174B04221A80164B154A128892B242F04F
:100FB000380292B21A80124B114A128892B242F44D
:100FC000807292B21A800E4B0D4A128892B242F48D
:100FD000007292B21A800A4B094A128892B242F009
:100FE000400292B21A800120012108F0F9FD80BD73
:100FF000001002400002300000080140000C0140D7
:101000000030014080B582B000AF194B1B78DBB2D5
:1010100003F00103002B08D116484FF4004100F003
:101020006FFDFFF7A5FEFFF7BDFE13480CF050FD66
:10103000114800210CF086FD4FF48050002108F08B
:10104000EDFD3823BB802823FB713B1D0B4819465F
:1010500000F078FC0020FFF753FE054B1B78DBB255
:1010600043F00103DAB2024B1A700837BD4680BD67
:10107000140000200008014000300140000C014035
:1010800080B584B000AF78603960104B0A221A60D6
:10109000FFF766FE0346FB73FB7BFF2B03D10B4B75
:1010A0001B68002BF4D1FB7BFE2B01D0002309E051
:1010B000012079683A68FFF781FEFFF751FEFFF7DC
:1010C0004FFE012318461037BD4680BD4800002062
:1010D00080B584B000AF78600B46FB70FFF748FE28
:1010E0000346FF2B01D000231EE0FB781846FFF7D4
:1010F00019FEFB78FD2B16D0002079684FF40072A2
:10110000FFF75CFEFF20FFF70DFEFF20FFF70AFE52
:10111000FFF726FE0346FB73FB7B03F01F03052B43
:1011200001D0002300E0012318461037BD4680BDE2
:1011300080B584B000AF03463960FB71FB795BB2C8
:10114000002B0EDAFB7903F07F03FB71772000217F
:10115000FFF7EEFF0346BB73BB7B012B01D9BB7BC3
:1011600051E02B484FF4004100F0BCFC28484FF4FC
:10117000004100F0C5FCFFF7FBFD0346FF2B01D04B
:10118000FF2340E0FB791846FFF7CCFD3B681B0EC0
:10119000DBB21846FFF7C6FD3B681B0CDBB21846F6
:1011A000FFF7C0FD3B681B0ADBB21846FFF7BAFD2C
:1011B0003B68DBB21846FFF7B5FD0123FB73FB79F3
:1011C000402B01D19523FB73FB79482B01D1872359
:1011D000FB73FB7B1846FFF7A5FDFB794C2B01D178
:1011E000FFF7BEFD0A23FB73FFF7BAFD0346BB738F
:1011F000BB7B5BB2002B05DAFB7B013BFB73FB7B0C
:10120000002BF1D1BB7B18461037BD4680BD00BF17
:101210000008014090B585B000AF0346FB71FB7933
:10122000002B01D00123C1E0624B1B78DBB203F03D
:101230000203002B03D05F4B1B78DBB2B6E0FFF755
:1012400041FE0020FFF73AFD0A23FB7304E0FFF79D
:1012500087FDFB7B013BFB73FB7B002BF7D100235E
:101260007B7340200021FFF763FF0346012B40F012
:101270008480514B64221A6048204FF4D571FFF7E7
:1012800057FF0346012B4DD10023FB730CE0FC7B81
:10129000FFF766FD03461A4607F11003234403F8DF
:1012A000082CFB7B0133FB73FB7B032BEFD9BB7A51
:1012B000012B62D1FB7AAA2B5FD100BF3E4B1B688A
:1012C000002B07D0E9204FF08041FFF731FF0346A4
:1012D000002BF3D1384B1B68002B4ED07A20002115
:1012E000FFF726FF0346002B47D10023FB730CE0DA
:1012F000FC7BFFF735FD03461A4607F11003234434
:1013000003F8082CFB7B0133FB73FB7B032BEFD92A
:101310003B7A03F04003002B01D00C2300E00423B0
:101320007B732AE0E9200021FFF702FF0346012B2F
:1013300004D802237B73E923BB7303E001237B738F
:101340004123BB7300BF1C4B1B68002B07D0BB7B2A
:1013500018460021FFF7ECFE0346002BF3D1164B95
:101360001B68002B07D050204FF40071FFF7E0FE00
:101370000346002B01D000237B73104B7A7B1A703D
:10138000FFF710FD7B7B002B0BD00A4B1B78DBB2E9
:1013900023F00103DAB2074B1A700120FFF78EFC2D
:1013A00001E0FFF72FFE034B1B78DBB21846143722
:1013B000BD4690BD140000204800002050000020D1
:1013C00080B483B000AF0346FB71FB79002B01D0E2
:1013D000012302E0044B1B78DBB218460C37BD46F4
:1013E0005DF8047B704700BF1400002080B584B016
:1013F00000AFB9607A600246FA73BB73FB7B002BC7
:1014000002D1BB7B002B01D104234FE0294B1B7879
:10141000DBB203F00103002B01D0032346E0264B8F
:101420001B7803F00803002B02D17B685B027B6012
:10143000BB7B012B11D151207968FFF779FE034660
:10144000002B2BD1B8684FF40071FFF719FE03464B
:10145000002B23D00023BB7320E052207968FFF7D4
:1014600067FE0346002B19D1B8684FF40071FFF7EF
:1014700007FE034683F00103DBB2002B00D009E036
:10148000BB6803F50073BB60BB7B013BBB73BB7BDD
:10149000002BE9D14C200021FFF74AFEFFF782FC28
:1014A000BB7B002B0CBF00230123DBB21846103797
:1014B000BD4680BD140000205000002080B584B0DF
:1014C00000AFB9607A600246FA73BB73FB7B002BF6
:1014D00002D1BB7B002B01D1042369E0364B1B7882
:1014E000DBB203F00103002B01D0032360E0324B99
:1014F0001B78DBB203F00403002B01D0022357E07A
:101500002E4B1B7803F00803002B02D17B685B0293
:101510007B60BB7B012B10D158207968FFF708FE58
:101520000346002B3CD1B868FE21FFF7D1FD0346EE
:10153000002B35D00023BB7332E0204B1B7803F027
:101540000603002B04D0BB7BD7201946FFF7F0FD24
:1015500059207968FFF7ECFD0346002B20D1B868CD
:10156000FC21FFF7B5FD034683F00103DBB2002B3E
:1015700000D009E0BB6803F50073BB60BB7B013B97
:10158000BB73BB7B002BEAD10020FD21FFF7A0FD40
:10159000034683F00103DBB2002B01D00123BB73B0
:1015A000FFF700FCBB7B002B0CBF00230123DBB249
:1015B00018461037BD4680BD1400002050000020A2
:1015C00090B58BB000AF0B463A600246FA71BB7122
:1015D0003B683B62FB79002B01D00423ADE1012382
:1015E00087F82730BB79052B28D13B6A1B78012B64
:1015F0000ED0022B12D0002B1BD1FFF78BFB034622
:10160000002B01D0FFF7FEFC002387F8273014E001
:10161000FFF758FC002387F827300EE03B6A5C1C7C
:10162000FFF778FB0346DBB22370002387F82730EF
:1016300003E0042387F827307DE17CE1B84B1B7879
:10164000DBB203F00103002B01D0032375E1BB796A
:101650000E2B00F26B8101A252F823F099160008BC
:10166000B716000863170008731700082D19000843
:101670002D1900082D1900082D1900082D19000832
:101680002D1900085B1800086B1800089118000855
:10169000B7180008F7180008A2484FF4004100F0FE
:1016A0002FFAFFF765FB0346FF2B03D1002387F8D2
:1016B00027303EE13DE149200021FFF739FD034697
:1016C000002B4DD107F10C0318461021FFF7D8FC71
:1016D0000346002B44D03B7B9B09DBB2012B0DD191
:1016E0007B7D1A463B7D1B029BB213449BB20133A8
:1016F000FB83FB8B9A023B681A602DE07B7C03F036
:101700000F03DAB2BB7DDB09DBB21344DAB27B7DB7
:1017100003F00303DBB25B00DBB21344DBB2023342
:1017200087F826303B7D9B09DBB21A46FB7C9B0089
:101730009BB213449AB2BB7C03F003039BB29B029F
:101740009BB213449BB20133FB83FA8B97F826308C
:10175000093B9A403B681A60002387F82730E8E08D
:10176000E7E03B684FF400721A80002387F82730C7
:10177000DFE06D4B1B7803F00403002B2BD0CD2052
:101780000021FFF7D5FC0346002B65D1FFF7E8FAEF
:1017900007F10C0318461021FFF772FC0346002BDB
:1017A0005AD0302387F8263006E0FFF7D9FA97F8A9
:1017B0002630013B87F8263097F82630002BF4D1ED
:1017C000BB7D1B09DBB210229A403B681A600023E4
:1017D00087F82730ADE049200021FFF7A9FC034638
:1017E000002B39D107F10C0318461021FFF748FCF4
:1017F0000346002B30D04C4B1B7803F00203002B28
:1018000012D0BB7D03F03F035A00FB7DDB09DBB246
:1018100013445A1C7B7E9B09DBB2013B02FA03F3A3
:101820001A463B681A6013E0BB7D03F07C039B10F3
:101830009BB20133FA7D02F00302D100FA7D520916
:10184000D2B20A44013202FB03F31A463B681A6023
:10185000002387F827306CE06BE0334B1A783B6A43
:101860001A70002387F8273063E049200021FFF732
:101870005FFC0346002B0AD1386A1021FFF700FCF9
:101880000346002B03D0002387F8273051E050E0B7
:101890004A200021FFF74CFC0346002B0AD1386A8E
:1018A0001021FFF7EDFB0346002B03D0002387F840
:1018B00027303EE03DE07A200021FFF739FC034667
:1018C000002B17D1042387F826300BE03C6A631CF9
:1018D0003B62FFF745FA0346237097F82630013B39
:1018E00087F8263097F82630002BEFD1002387F8B1
:1018F00027301EE01DE0CD200021FFF719FC034634
:10190000002B0CD1FFF72CFA386A4021FFF7B8FB07
:101910000346002B03D0002387F8273009E008E0B6
:10192000140000200008014050000020042387F824
:101930002730FFF737FA97F8273018462C37BD467F
:1019400090BD00BF80B489B000AF786039600023DB
:10195000FB6100233B610023BB610023FB6000238C
:101960007B610023BB603B68DB7803F00F03FB6106
:101970003B68DB7803F01003002B04D03B689B78B6
:10198000FA691343FB613B681B88DBB2002B44D030
:101990007B681B687B610023BB6138E0BB69012267
:1019A00002FA03F3FB603B681B881A46FB6813408E
:1019B0003B613A69FB689A4226D1BB699B00FB6098
:1019C000FB680F2202FA03F3BB60BB68DB437A6952
:1019D00013407B61FB68FA6902FA03F37A691343E7
:1019E0007B613B68DB78282B05D1BB6901229A40DB
:1019F0007B685A6108E03B68DB78482B04D1BB69FF
:101A000001229A407B681A61BB690133BB61BB69E3
:101A1000072BC3D97B687A691A603B681B88FF2B48
:101A200046D97B685B687B610023BB613AE0BB6998
:101A30000833012202FA03F3FB603B681B881A4655
:101A4000FB6813403B613A69FB689A4227D1BB6946
:101A50009B00FB60FB680F2202FA03F3BB60BB68CC
:101A6000DB437A6913407B61FB68FA6902FA03F38E
:101A70007A6913437B613B68DB78282B05D1BB690E
:101A8000083301229A407B685A613B68DB78482B17
:101A900005D1BB69083301229A407B681A61BB6992
:101AA0000133BB61BB69072BC1D97B687A695A6076
:101AB0002437BD465DF8047B704700BF80B483B017
:101AC00000AF78607B684FF6FF721A807B68022255
:101AD0009A707B680422DA700C37BD465DF8047B8F
:101AE000704700BF80B483B000AF78600B467B8046
:101AF0007A887B681A610C37BD465DF8047B7047B5
:101B000080B483B000AF78600B467B807A887B68B6
:101B10005A610C37BD465DF8047B704780B487B0CE
:101B200000AF78600B46FB7000233B610023FB6035
:101B300000237B610023BB607B68002B03DA2E4B04
:101B4000DB697B6102E02C4B5B687B617B6803F4A3
:101B500070231B0CBB607B689BB23B617B6803F40A
:101B60004013B3F5401F0AD17B6923F070637B619A
:101B7000214B214A526822F070625A6021E07B6852
:101B800003F48013002B0ED0BB68032202FA03F388
:101B9000FB60FB68DB437A6913407B617B6943F040
:101BA00070637B610DE07B685B0D1B013A6902FA93
:101BB00003F3DB437A6913407B617B6943F0706315
:101BC0007B61FB78002B08D07B685B0D1B013A69B9
:101BD00002FA03F37A6913437B617B68002B03DA13
:101BE000054B7A69DA6102E0034B7A695A601C3767
:101BF000BD465DF8047B70470000014080B483B0AF
:101C000000AF0346FB71084B97F907205209F97999
:101C100001F01F01012000FA01F143F822100C37F6
:101C2000BD465DF8047B704700E100E080B582B0FE
:101C300000AF0346FB711A4B1B78002B10D1194BD8
:101C40001B785A1CD1B2174A1170F979164AA2FBB7
:101C500001025209D2B23032D1B2144AD1540FE04B
:101C6000104B1B785A1CD1B20E4A1170F9790E4AEA
:101C7000A2FB01025209D2B23032D1B20C4AD15485
:101C8000FB79094AA2FB03125209642101FB02F20B
:101C90009B1ADBB2184606F059F90837BD4680BDDD
:101CA00091000020900000201F85EB517000002063
:101CB0008000002080B584B000AF0023FB730023B8
:101CC000BB7300237B7300233B7300237B810023C2
:101CD0007B6000233B6007F045FC6A4807F010FA80
:101CE0004FF4FA7008F0EEF832E006F039F80346E7
:101CF000FB730020002107F039FA634807F000FA6F
:101D0000624B1B689BB2184600F0D2F9604807F09E
:101D1000F7F95E4B5B689BB2184600F0C9F90120E9
:101D2000002107F023FA0A2008F0CCF8594807F000
:101D3000E7F9564B9B689BB2184600F0B9F9564834
:101D400007F0DEF9514BDB689BB2184600F0B0F9A2
:101D5000FB7B002BC9D007F005FCFB7B013B7B73B1
:101D60000023FB734D4807F0CBF9BB7B184604F00A
:101D70002BFF0346BB73BB7B184601F03FF907F00E
:101D8000F1FB474807F0BCF93B7B184604F01CFF09
:101D900003463B737A7B3D4B53F822307B6007F060
:101DA000E1FB404807F0ACF9BB7B184601F03CF87A
:101DB0000023FB7317E00A2008F084F805F0D0FF39
:101DC0000346FB7307F0CEFB374807F099F9012073
:101DD000002107F0CBF97A7B2C4B53F822309BB2D1
:101DE000184600F065F9FB7B022BE4D17A7B274B88
:101DF00053F822303B60BB7B184601F0FFF8C82047
:101E000008F060F83B689AB27B689BB2D31A9BB229
:101E10001A463B7B92FBF3F37B817A7B234B7989D8
:101E200023F8121007F09EFB214807F069F93B6880
:101E30009BB2184600F03CF90120002107F096F90A
:101E40001C4807F05DF97B89184600F031F97B8961
:101E500040F2426019460CF05BF90023FB7306E088
:101E60000A2008F02FF805F07BFF0346FB73FB7B8D
:101E7000022BF5D107F076FBC82008F023F81037C5
:101E8000BD4680BDCCE70008D8E7000878180020E0
:101E9000DCE70008E0E70008E4E70008E8E70008FE
:101EA000F8E7000808E8000818E80008FC1A002015
:101EB00028E8000830E8000880B584B000AF134679
:101EC0000246FA710A46BA71BB800023FB60BB88E8
:101ED000104A128802FB03F20F4BA3FB0213DB082C
:101EE000FB600023FB72002000F09EFFBA790B4BD1
:101EF000002143F8221002E00A2007F0E3FF074B1D
:101F00001A68FB689A42F7D3002001F077F810377F
:101F1000BD4680BDFC1A0020CDCCCCCC781800206A
:101F200080B586B000AF13460246FA710A46BA7110
:101F3000BB8000233B610023FB600023BB600023C8
:101F4000FB8200237B7507F00DFB4F4807F0D8F8A4
:101F500006E00A2007F0B6FF05F002FF03467B7596
:101F60007B7D002BF5D07B7D022B01D1FFF7A2FEFC
:101F700001233B7580E007F0F5FA444807F0C0F80C
:101F8000434B1B88184600F093F8FB8A184605213E
:101F900004F0B4FE0346FB82FB8A3D4A128802FB32
:101FA00003F23C4BA3FB0213DB083B6107F0DAFAB8
:101FB000394807F0A5F83B699BB2184600F078F85D
:101FC0000120002107F0D2F8344807F099F8BA79D7
:101FD000334B53F82220324B53F822309BB2184631
:101FE00000F066F800237B75002000F01DFFBA7931
:101FF0002B4B002143F822101BE00A2007F062FF60
:1020000007F0B0FA274807F07BF8BA79244B53F869
:1020100022309BB2184600F04BF80120002107F057
:10202000A5F8214807F06CF83B699BB2184600F010
:102030003FF81B4B1A683B699A42DED3002000F040
:10204000DDFF07F08FFA194807F05AF806E00A207A
:1020500007F038FF05F084FE03467B757B7D002B7F
:10206000F5D07B7D022B05D101233B750C4B002263
:102070001A6001E000233B753B7D012B3FF47BAFF1
:102080001837BD4680BD00BF38E8000848E80008A2
:10209000FC1A0020CDCCCCCC54E800085CE8000849
:1020A0007818002060E8000868E800086CE800087C
:1020B00080B582B000AF0346FB80FA88164BA3FBC5
:1020C00002135B0B9BB2DBB2184605F03FFFFB88A7
:1020D000114AA2FB0312520B42F2107101FB02F2F1
:1020E0009B1A9AB20D4BA3FB02135B099BB2DBB2A6
:1020F000184605F02BFFFB88084AA2FB0312520981
:10210000642101FB02F29B1A9BB2DBB2184605F078
:102110001DFF0837BD4680BD5917B7D11F85EB514C
:1021200080B485B000AF396013460246FA71BB71C6
:102130000023FB730023FB7309E0FB7B3A68134425
:102140001A78FB795340FB71FB7B0133FB73FA7BFD
:10215000BB799A42F1D3FB7918461437BD465DF836
:10216000047B704780B500AF574B1B88062B02D904
:10217000554B00221A80554840F2255108F024FDA5
:102180000346002B0ED0514808F0FEFC0346DAB29D
:102190004F4B1A704D4B4D4A128892B222F02002DA
:1021A00092B21A80494B494A128892B222F04002F8
:1021B00092B21A80474B1B78002B17D0464B1A78E7
:1021C000464B1B789A4211D2404A434B1B78591C0C
:1021D000C8B2414908704249CB5C93803B4B3B4AB3
:1021E000128892B222F0400292B21A803D4B1B78C4
:1021F000002B67D13C4B1B78042B32D13B4B1B7817
:10220000002B03D1324B1A78394B1A70374B1B789D
:102210005A1CD1B2354A11702D4A1178354AD15421
:10222000324B1A78324B1B789A421AD1304B1B78BA
:10223000302030491A46FFF773FF03461A462E4BEB
:102240001A702D4B1B78002B03D1264B01221A70DC
:1022500001E000F093F8244B00221A70234B002277
:102260001A701B4B1B785A2B03D1244B01221A7076
:1022700028E0174B1B78582B07D1204B1B78012BDC
:1022800003D11E4B02221A701CE01C4B1B78022B40
:1022900018D10F4B1B78302B11D00D4B1B78312BE5
:1022A00003D1114B03221A7009E0094B1B78322B22
:1022B00005D10D4B04221A700C4B00221A700F4BE3
:1022C00000221A7080BD00BF5C0000200038014071
:1022D000F61A0020590000205A00002019000020A2
:1022E000401B0020C1000020C0000020BE000020D4
:1022F000BF0000208C180020C2000020BD0000207C
:1023000080B582B000AF78600A4B1B78012B04D1F6
:1023100000F04EF8074B00221A700A2007F0D2FD99
:10232000054B1B78012B01D100F008F80A2007F0BB
:10233000C9FDE9E7C10000205900002080B500AFC9
:102340000A4BDA780A4B1A700A4B00221A7002E024
:10235000052007F0B7FD074B1A78054B1B789A420A
:10236000F6D3054B00221A7080BD00BF401B002031
:10237000190000205A0000205900002080B483B0CA
:1023800000AF0023FB710023FB7106E0FB79074AD5
:102390000021D154FB790133FB71FB790F2BF5D967
:1023A0000C37BD465DF8047B704700BF8C180020D9
:1023B00080B500AF5A4B5B780C2B00F2AE8001A2C7
:1023C00052F823F0F92300081D2400082F240008E8
:1023D000432400084B240008572400086324000805
:1023E0006F2400087B2400088F240008A124000823
:1023F000AB240008F7240008494B9978484BDA7859
:10240000474B1B791B0298B2454B5B7903449BB247
:10241000084611461A46FFF74FFD7EE0404B9A787A
:102420003F4BDB781046194604F04CFA75E03D4B03
:1024300033221A703C4B1B781846002104F042FAF4
:102440006BE0384B30221A7067E0354B9B781846AA
:1024500000F0EAFC61E0324B9B78184600F0CEFDBC
:102460005BE02F4B9B78184600F0DAFA55E02C4BD6
:102470009B78184600F05EF84FE02A4B1B78332B10
:1024800004D1274B9A78294B1A7046E045E0244B3B
:102490009A78234BDB781046194601F06DFE3CE03C
:1024A0001F4B9A78224B1A7037E0204B00221A708B
:1024B0001C4B33221A701D4B00221A700020002181
:1024C00004F000FA0120002104F0FCF902200021B0
:1024D00004F0F8F90320002104F0F4F9022000F0E0
:1024E0008DFD032000F08AFD002000F087FD012013
:1024F00000F084FD11E00A4B9B781A02084BDB7850
:1025000013441A02064B1B7913441A02044B5B79DD
:102510001344184605F08EFA00BFFFF72FFF80BD69
:102520008C18002018000020960000201C000020BD
:102530002C1B002080B584B000AF0346FB71974B85
:102540005A221A70954B58225A70944B33229A7023
:10255000924B2822DA70FB79012B40F0C880904B17
:102560001A788E4B1A718F4B1B68DAB28B4B5A71EB
:102570008D4B1B68DAB2894B9A718C4B1A78874B5A
:10258000DA718B4B1B68DAB2844B1A72894B1A785A
:10259000824B5A72884B1A78804B9A72864B5A78C3
:1025A0007E4BDA72844B9A787C4B1A73824BDA78C2
:1025B0007A4B5A73814B1B8B9BB2DAB2774B9A736F
:1025C0007E4B1B8B9BB21B0A9BB2DAB2734BDA7346
:1025D0007A4B9B8B9BB2DAB2704B1A74774B9B8B06
:1025E0009BB21B0A9BB2DAB26C4B5A74744B1B88B9
:1025F000DAB26A4B9A74724B1B881B0A9BB2DAB22E
:10260000664BDA746E4B5B88DAB2644B1A756C4BAE
:102610005B881B0A9BB2DAB2604B5A75694B1B8808
:10262000DAB25E4B9A75674B1B881B0A9BB2DAB213
:102630005A4BDA75634B5B88DAB2584B1A76614BAA
:102640005B881B0A9BB2DAB2544B5A765D4B9B886F
:10265000DAB2524B9A765B4B9B881B0A9BB2DAB27A
:102660004E4BDA76574BDB88DAB24C4B1A77554B28
:10267000DB881B0A9BB2DAB2484B5A77524B1B6875
:10268000DAB2464B9A77504B1B681B0ADAB2434BBF
:10269000DA774D4B1B681B0CDAB2404B83F82020D5
:1026A000494B1B681B0EDAB23C4B83F82120444B8C
:1026B0001B88DAB2394B83F82220414B1B881B0A56
:1026C0009BB2DAB2354B83F823203D4B5B88DAB2FC
:1026D000324B83F824203A4B5B881B0A9BB2DAB258
:1026E0002E4B83F825202D4BFA7983F82620FB7991
:1026F000022B40D105F08CF9F860344B1B88DAB21C
:10270000264B1A71314B1B881B0A9BB2DAB2234B42
:102710005A712F4B1B88DAB2204B9A712C4B1B88B5
:102720001B0A9BB2DAB21D4BDA711C4B00221A72E3
:10273000244B1B881B0A9BB2DAB2184B5A72214BEE
:102740005B88DAB2154B9A721E4B5B881B0A9BB2F0
:10275000DAB2124BDA721B4B9B88DAB20F4B1A7348
:10276000184B9B881B0A9BB2DAB20C4B5A730B4B6B
:10277000FA7983F82620FB79032B59D1154B9B68F6
:10278000DAB2064B1A71134B9B681B0ADAB2034B81
:102790005A71104B9B681B0C1EE000BF401B0020B1
:1027A00018000020F81A002088180020201B0020A4
:1027B000381B00209D180020A01B0020002800408E
:1027C000681B0020801B0020781800209800002043
:1027D0009A00002000080140DAB27E4B9A717E4BCD
:1027E0009B681B0EDAB27B4BDA717C4B9B68DAB2CA
:1027F000784B1A72794B9B681B0ADAB2754B5A7286
:10280000764B9B681B0CDAB2724B9A72734B9B68C7
:102810001B0EDAB26F4BDA72714B9A786D4B1A73EA
:102820006F4BDA786B4B5A736A4BFA7983F8262030
:10283000FB79042B38D16B4B1A78664B1A716A4BB3
:102840001A78644B5A71694B1B789B00DAB2684B5B
:102850001B781344DAB25F4B9A71664B1B88DAB26D
:102860005C4BDA71644B1B881B0A9BB2DAB2594B82
:102870001A72584B00225A72604B1A78554B9A7252
:102880005F4B1B88DAB2534BDA725D4B1B881B0A15
:102890009BB2DAB24F4B1A735A4B1A784D4B5A739C
:1028A0004C4BFA7983F82620FB79052B3AD1564B0D
:1028B0001B88DAB2474B1A71534B1B881B0A9BB219
:1028C000DAB2444B5A71504B5B88DAB2414B9A7181
:1028D0004D4B5B881B0A9BB2DAB23E4BDA714B4B15
:1028E0001B68DAB23B4B1A72484B1B681B0ADAB200
:1028F000384B5A72454B1B681B0CDAB2354B9A7237
:10290000424B1B681B0EDAB2324BDA72404B1A781C
:10291000304B1A733B4B1A782E4B5A732D4BFA7966
:1029200083F82620FB79062B3DD1374B1B88DAB282
:10293000284B1A71344B1B881B0A9BB2DAB2254B09
:102940005A71314B5B88DAB2224B9A712E4B5B88FD
:102950001B0A9BB2DAB21F4B5A712C4B5B68DAB27E
:102960001C4B1A72294B5B681B0ADAB2194B5A725C
:10297000264B5B681B0CDAB2164B9A72234B5B68D2
:102980001B0EDAB2134BDA721D4B5B88DAB2114BB5
:102990001A731B4B5B881B0A9BB2DAB20D4B5A733E
:1029A0000C4BFA799A7500200A492722FFF7B8FBE9
:1029B00003461A46074B83F82720064BDA78154B57
:1029C0001A70154B00221A70144B01221A7010371E
:1029D000BD4680BD401B002000080140000C0140A6
:1029E000A01B0020B4000020B5000020B70000208C
:1029F000B6000020921B00201E1B00209C18002007
:102A0000FC1A0020041B0020681B002078180020FE
:102A10002C1B0020190000205A0000205900002023
:102A200080B584B000AF78600023FB730023BB81C6
:102A300000237B81204BDAB2204B1A70204BDAB294
:102A40001E4B5A701F4BDAB21C4B9A701B4B0D2257
:102A5000DA707B68DAB2194B1A710023FB7321E03C
:102A60007B6803F5B8735A00FB7B13449BB25B0091
:102A7000BB81BA8907F10A03104619460BF0FCFA2C
:102A8000FB7B5B0005330D4A0021D154FB7B0333F4
:102A90005B007A89D2B25242D1B2084AD154FB7B50
:102AA0000133FB73FB7B032BDAD9074B01221A702E
:102AB0001037BD4680BD00BF74E80008401B0020F1
:102AC00078E800087CE800085900002080B400AFD6
:102AD000024B1B68BD465DF8047B70470000024056
:102AE00080B400AF024B1B68BD465DF8047B7047A5
:102AF0000000024080B586B000AF0120012107F040
:102B00006FF825233B7500237B750023BB750123DC
:102B1000FB754FF400733B820323BB741823FB74D3
:102B200007F1100323481946FEF70CFF4FF48063AA
:102B30003B820423FB7407F110031E481946FEF77D
:102B400001FF1D4807F0EAFE4FF48040012107F025
:102B500065F84FF416533B600023BB800023FB80D5
:102B600000233B810023BB810C237B813B46124821
:102B7000194607F02FFF10484FF4587108F014F869
:102B80000D4B0D4A928992B242F0200292B29A8184
:102B9000094B094A928992B242F0400292B29A815C
:102BA0000548012107F0D0FF2520FFF727F8183747
:102BB000BD4680BD000801400038014080B584B0AA
:102BC00000AF4FF4B873BB812823FB7307F10C03EC
:102BD00003481946FEF7B6FE1037BD4680BD00BF5C
:102BE0000008014080B588B000AF1020012107F037
:102BF00015F80220012107F02FF807F11C031846F1
:102C0000FEF75CFF4FF47073BB830323BB7718237D
:102C1000FB7707F11C0320481946FEF793FE1F4877
:102C20000121FEF77BFF07F110031846FDF754FD65
:102C30004FF40073FB8240F2E733BB82EF233B8209
:102C400007F1100316481946FDF76CFA3B46184683
:102C5000FDF75CFD01237B8060233B800023FB802C
:102C60003B460F481946FDF7D9FA3B460C48194632
:102C7000FDF760FB3B460A481946FDF7E3FB3B4680
:102C800007481946FDF764FC05480121FDF760FD82
:102C90002037BD4680BD00BF00100140000C1A0067
:102CA0000004004080B582B000AF06F05BFC00235A
:102CB000FB8000237B7100233B7106F053FC2D4801
:102CC00006F01EFA3B1D40F2446019460BF0D4F9A1
:102CD0003B79184603F078FF03463B713B7940F29D
:102CE000446019460BF014FA03F050FA0A2007F07A
:102CF000E9F806F037FC204806F002FA1CE005F07F
:102D00002FF803467B711D4B1B88FB80052007F0C5
:102D1000D9F80120002106F029FAFA88184BA3FB04
:102D200002135B099BB2DBB2184605F00FF9FB8872
:102D3000DBB2184605F00AF97B79022BDFD10A20B5
:102D400007F0C0F8FB8840F2226019460BF0E0F96A
:102D500003F01CFA4FF4FA6007F0B4F8094806F0E3
:102D6000CFF900237B7106F0FDFB05F06FFC0837FF
:102D7000BD4680BD80E8000890E80008681B002080
:102D80001F85EB51A4E8000880B582B000AF002396
:102D9000BB800023FB713B1D40F2446019460BF0E1
:102DA0006BF9BB88FB71194B1B7803F002035B10B6
:102DB000012B27D1FB79032B24D80023BB71144BA3
:102DC0001B781A46FB7942FA03F3DBB203F00103E6
:102DD000BB71BB79002B15D10E4B1B881A460E4BCD
:102DE0001B8802339A4203DDFB79184600F01CF879
:102DF000084B1A88084B1B889A4203D2FB79184665
:102E000000F0FCF80837BD4680BD00BF1C00002064
:102E100058000020681B0020B41B002080B400AFC5
:102E2000BD465DF8047B704780B584B000AF0346B3
:102E3000FB71012007F046F80023FB726B4B1B78F7
:102E40001A46FB7942FA03F3DBB203F00103FB728B
:102E5000FB7A002B40F0A780FB79012202FA03F3F2
:102E6000DAB2624B1B78DBB21343DBB2DAB25F4BF0
:102E70001A700023FB730023BB720023BB735C4BEF
:102E80009A68FB7901339B0022FA03F3DBB203F06B
:102E90000103FB73012007F015F8FB79012202FA08
:102EA00003F3DAB2534B1B78DBB21340DBB2BB72D5
:102EB000BA7AFB7942FA03F3BB72FB7B002B40D159
:102EC000BB7A002B3DD1FB79002B02D0FB79012B83
:102ED00037D1FB79184600F061F94FF41673BB81C6
:102EE00019E0434B9A68FB7901339B0022FA03F304
:102EF000DBB203F00103FB73FB7B012B03D1BB7B34
:102F00000133BB7301E00023BB73012006F0DAFF3D
:102F1000BB89013BBB81BB7B022B02D8BB89002B49
:102F2000DFD1BB89002B0CD1FB79012202FA03F31C
:102F3000DAB2304B1B78DBB21343DBB2DAB22D4B83
:102F40001A70FB79184600F03FF9FB79012202FA6A
:102F500003F3DBB2DB43DAB2274B1B78DBB213405F
:102F6000DBB2DAB2244B1A70FA7BFB7902FA03F374
:102F7000DAB2214B1B78DBB21343DBB2DAB21E4B61
:102F80001A70052006F09EFFFB79012202FA03F376
:102F9000DBB2DB43DAB2154B1B78DBB21340DBB29A
:102FA000DAB2124B1A70FB79022B02D0FB79032B99
:102FB00016D10F4B0E4A5169FA790B32012000FAF3
:102FC00002F20A435A61FB79012202FA03F3DAB2F0
:102FD000094B1B78DBB21343DBB2DAB2064B1A7033
:102FE000012006F06FFF1037BD4680BD580000205D
:102FF000000801402C1B0020201B002080B584B05D
:1030000000AF0346FB710023FB72604B1B781A462E
:10301000FB7942FA03F3DBB203F00103FB72FB7AA4
:10302000002B40F09180FB79012202FA03F3DAB21F
:10303000564B1B78DBB21343DBB2DAB2534B1A7038
:103040000023FB730023BB7200237B724FF41673C3
:10305000BB814F4B9A68FB7901339B0022FA03F343
:10306000DBB203F00103BB72FB79012202FA03F326
:10307000DAB2484B1B78DBB21340DBB27B72012023
:1030800006F020FF7A7AFB7942FA03F37B72BB7A6F
:10309000012B2AD17B7A002B27D1FB79002B02D080
:1030A000FB79012B21D1FB79184600F077F816E067
:1030B000374B9A68FB7901339B0022FA03F303F044
:1030C0000103002B03D1FB7B0133FB7301E00023E1
:1030D000FB73012006F0F6FEBB89013BBB81FB7B45
:1030E000022B02D8BB89002BE2D1FB79184600F0F5
:1030F0006BF8FB79012202FA03F3DBB2DB43DAB2AD
:10310000254B1B78DBB21340DBB2DAB2224B1A70CC
:10311000BA7AFB7902FA03F3DAB21F4B1B78DBB2FF
:103120001343DBB2DAB21C4B1A70FB79012202FAAC
:1031300003F3DBB2DB43DAB2144B1B78DBB2134090
:10314000DBB2DAB2114B1A70FB79022B02D0FB7999
:10315000032B18D10E4B0E4A1169FA790B3201205C
:1031600000FA02F20A431A61FB79012202FA03F320
:10317000DBB2DB43DAB2084B1B78DBB21340DBB2C5
:10318000DAB2054B1A701037BD4680BD58000020DA
:10319000000801402C1B0020201B002080B483B0BD
:1031A00000AF0346FB71074B064A5169FA790B32AF
:1031B000012000FA02F20A435A610C37BD465DF85D
:1031C000047B70470008014080B483B000AF034621
:1031D000FB71074B064A1169FA790B32012000FA9C
:1031E00002F20A431A610C37BD465DF8047B704752
:1031F0000008014080B500AF012006F087FD034BB9
:103200001B685A1C014B1A6080BD00BF7818002053
:1032100080B500AF022006F079FD034B5B685A1CB5
:10322000014B5A6080BD00BF7818002080B500AF08
:10323000042006F06BFD80BD80B500AF4FF48060C8
:1032400006F064FD4FF4006006F060FD4FF480501E
:1032500006F05CFD80BD00BF80B500AF202006F009
:1032600055FD402006F052FD802006F04FFD80BD48
:1032700080B582B000AF0023FB710023BB71002337
:103280007B7106F06FF974E0142006F01BFE04F069
:1032900067FD0346FB710020002105F067FF3948F8
:1032A00005F02EFFBB79184604F050FEFB79042B85
:1032B00003D1BB791846FFF7B7FDFB79032B03D188
:1032C000BB791846FFF79AFEFB79012B08D1BB7931
:1032D000012B03D8BB790133BB7101E00023BB7123
:1032E000012006F0EFFD0120002105F03FFF2648F8
:1032F00005F006FF254B1B78184604F027FE012039
:1033000006F0E0FD224805F0FBFE224B9B6803F02F
:103310001003002B03D0204805F0F2FE02E01F4806
:1033200005F0EEFE1B4B9B6803F02003002B03D03F
:10333000194805F0E5FE1CE0184805F0E1FE154BC4
:103340009B6803F04003002B03D0134805F0D8FE20
:1033500002E0124805F0D4FE0E4B9B6803F4807324
:10336000002B03D00C4805F0CBFE02E00B4805F023
:10337000C7FEFB79022B87D106F0F4F80837BD466B
:1033800080BD00BFB0E80008BCE80008201B00209A
:10339000C0E8000800080140C8E800087CE8000810
:1033A00080B582B000AF0023FB710223BB71002304
:1033B0007B7106F0D7F86EE0142006F083FD04F070
:1033C000CFFC0346FB710020002105F0CFFE3648FC
:1033D00005F096FEBB79184604F0B8FDFB79042B86
:1033E0000DD1324B314A1169BA790B32012000FA02
:1033F00002F20A431A61BB791846FFF7CFFEFB7948
:10340000032B0DD1294B294A5169BA790B3201207E
:1034100000FA02F20A435A61BB791846FFF7D4FE5C
:10342000FB79012B08D1BB79032B03D8BB7901337E
:10343000BB7101E00223BB71012006F043FD0120B6
:10344000002105F093FE1A4805F05AFE194B1B782F
:10345000184604F07BFD012006F034FD164805F007
:103460004FFE124BDB6803F40053002B03D01348CC
:1034700005F046FE02E0124805F042FE0B4BDB6809
:1034800003F48043002B03D00C4805F039FE02E022
:103490000B4805F035FEFB79022B8DD106F062F862
:1034A0000837BD4680BD00BFB0E8000800080140F5
:1034B000BCE80008201B0020C0E80008C8E800089D
:1034C0007CE8000880B582B000AF0023FB710023C8
:1034D000BB7100237B7100233B7100237B8006F0CE
:1034E00041F87FE0142006F0EDFC04F039FC0346BF
:1034F000FB710020002105F039FE414B1B887B80C9
:103500007B88DBB2184604F021FD3D4B5B887B8055
:103510007B88DBB2184604F019FD3A4805F0F0FD4F
:10352000394B9B8C7B807B881846FEF7C1FDFB796D
:10353000042B02D10120FFF777FCFB79012B05D189
:103540000120FFF741FE0120FFF758FD012006F0A2
:10355000B9FC0120002105F009FE2C4B1B78184610
:1035600004F0F4FC2A4805F0CBFD00233B80294BF6
:103570009B685B093B803B881846FEF799FD26480F
:1035800005F0BEFD012006F09DFC224B9B685B0907
:1035900003F00103002B03D0204805F0B1FD02E049
:1035A0001F4805F0ADFD1B4B9B689B0903F0010311
:1035B000002B03D0194805F0A3FD02E0184805F0E0
:1035C0009FFD144B9B68DB0903F00103002B03D024
:1035D000124805F095FD02E0114805F091FD1148F3
:1035E00005F08EFDFB79022B7FF47CAF05F0BAFF6E
:1035F000FFF73EFEFFF7D4FE0837BD4680BD00BF93
:10360000681B0020CCE8000800480140201B002077
:10361000D0E8000800080140D4E80008C8E8000825
:103620007CE80008D8E8000880B586B000AF786074
:103630000023BB8200237B817B689BB21B019BB272
:1036400003F21463BB82BA8A07F10A0310461946D3
:103650000AF012FD05F086FF954805F051FD7B89C3
:10366000184603F0FBFA03467B817B89BA8A104631
:1036700019460AF04DFD7B689BB21B019BB203F219
:103680001563BB82BA8A07F10A03104619460AF08D
:10369000F3FC05F067FF874805F032FD7B8918468B
:1036A00003F0DCFA03467B817B89BA8A104619460F
:1036B0000AF02EFD7B689BB21B019BB203F21663DE
:1036C000BB82BA8A07F10A03104619460AF0D4FCF5
:1036D00005F048FF784805F013FD7B89184603F094
:1036E000BDFA03467B817B89BA8A104619460AF0E7
:1036F0000FFD07F10A0340F6990019460AF0BCFCD9
:1037000005F030FF6D4805F0FBFC7B89DBB2184605
:1037100003F05AFA03467B817B8940F699001946EB
:103720000AF0F6FC7B89DAB2654B1A707B8903F2EA
:10373000FF53BB82BB8A184646210AF0E9FC7B890D
:10374000604A4621D1547B689BB21B019BB203F2B5
:103750001E63BB82BA8A07F10A03104619460AF0B3
:103760008BFC05F0FFFE584805F0CAFC7B89DBB2F4
:10377000184603F029FA03467B817B89BA8A1046F2
:1037800019460AF0C5FC7B8903F2FF53BB82BB8A52
:10379000184647210AF0BCFC7B894A4A4721D1548C
:1037A0007B689BB21B019BB203F21763BB82BA8A90
:1037B00007F10A03104619460AF05EFC05F0D2FE36
:1037C000424805F09DFC7B89184603F047FA034602
:1037D0007B817B89BA8A104619460AF099FC7B687E
:1037E0009BB21B019BB203F5C363BB82BB8A184625
:1037F00004F0D4FD386105F0B5FE354805F080FCD5
:103800004FF4FA7006F05EFB386903F0CFFA3861C6
:10381000BB8A1846396903F08BF87B689BB21B01A1
:103820009BB203F22263BB82BA8A07F10A031046F5
:1038300019460AF021FC05F095FE264805F060FCCB
:103840004FF4FA7006F03EFB7B89184603F006FA47
:1038500003467B817B89BA8A104619460AF058FCD8
:103860007B689BB21B019BB203F21F63BB82BA8AC7
:1038700007F10A03104619460AF0FEFB05F072FE36
:10388000154805F03DFC7B89DBB2184603F09CF936
:1038900003467B817B89BA8A104619460AF038FCB8
:1038A00005F060FE0D4805F02BFC0023FB751EE0C3
:1038B000DCE80008ECE8000800E9000814E900086A
:1038C000D41A00202000002028E9000838E9000868
:1038D00048E900085CE900086CE9000878E900089C
:1038E00004F03EFA0346FB750A2006F0EBFAFB7D76
:1038F000002BF5D0FB7D022B20D17B689BB21B01F6
:103900009BB203F21A63BB8204F082F8F860BB8AB0
:103910001846F96803F00CF87B689BB21B019BB258
:1039200003F21C63BB8204F073F802463B69D31AAE
:103930000533BA8A1046194602F0FAFFFB7D032BC5
:103940001ED105F00FFE244805F0DAFB4FF47A7023
:1039500006F0B8FA7B689BB21B019BB203F21A63B4
:10396000BB82BB8A184604F019FDF860F868012193
:1039700003F00AFCF860BB8A1846F96802F0D8FF29
:1039800005F0F0FD154805F0BBFB4FF47A7006F02A
:1039900099FA7B6862339BB21B01BB82BB8A1846D3
:1039A00004F0FCFCF860F868012103F0EDFBF8601E
:1039B000BB8A1846F96802F0BBFF05F0D3FDC820AA
:1039C00006F080FA06F0E0FA04F040FE06F0EAFAAB
:1039D0001837BD4680BD00BF88E9000894E900089B
:1039E00080B582B000AF0023FB7105F0BBFD094834
:1039F00005F086FBC82006F065FAFB79184603F04F
:103A0000E3F80346FB71FB79184600F021F808370C
:103A1000BD4680BDA0E9000880B582B000AF00239C
:103A2000FB7105F09FFD094805F06AFBC82006F010
:103A300049FAFB79184603F0C7F80346FB71FB7996
:103A40001846FFF7F1FD0837BD4680BDA0E9000824
:103A500080B584B000AF78600023FB810023BB8178
:103A60007B689BB21A46D200D31A9BB203F245631D
:103A7000FB81FA8907F10C03104619460AF0FCFA9B
:103A800005F070FD604805F03BFBBB89184603F06C
:103A9000E5F80346BB81BB89FA89104619460AF04E
:103AA00037FB7B689BB21A46D200D31A9BB203F253
:103AB0004663FB81FA8907F10C03104619460AF0A8
:103AC000DBFA05F04FFD514805F01AFBBB8918469B
:103AD00003F0C4F80346BB81BB89FA891046194636
:103AE0000AF016FB7B689BB21A46D200D31A9BB22F
:103AF00003F24763FB81FA8907F10C03104619466C
:103B00000AF0BAFA05F02EFD414805F0F9FABB8932
:103B1000184603F0A3F80346BB81BB89FA89104617
:103B200019460AF0F5FA7B689BB21A46D200D31AFE
:103B30009BB203F5C963FB81FA8907F10C031046B8
:103B400019460AF099FA05F00DFD324805F0D8FA49
:103B5000BB89184603F082F80346BB81BB89FA890A
:103B6000104619460AF0D4FA7B689BB21A46D20076
:103B7000D31A9BB203F24963FB81FA8907F10C0364
:103B8000104619460AF078FA05F0ECFC224805F0D8
:103B9000B7FABB89184603F061F80346BB81BB89BD
:103BA000FA89104619460AF0B3FA7B689BB21A46A6
:103BB000D200D31A9BB203F24A63FB81FA8907F160
:103BC0000C03104619460AF057FA05F0CBFC1348CF
:103BD00005F096FABB89184603F040F80346BB810E
:103BE0000A2006F06FF9BB89FA89104619460AF0D7
:103BF0008FFA05F0B7FC0A2006F064F904F026FD00
:103C00001037BD4680BD00BFACE90008C0E9000820
:103C1000D0E90008E0E90008ECE90008FCE9000848
:103C200090B585B000AF0023BB730023FB7305F094
:103C300099FC2F4805F064FAC82006F043F9BB7BD5
:103C4000184602F0C1FF0346BB7305F08BFC294800
:103C500005F056FABB7B184604F078F9264805F0C3
:103C60004FFA06E01E2006F02DF904F079F803461D
:103C7000FB73FB7B022B02D0FB7B032BF2D1C82012
:103C800006F020F9FB7B022B29D1BB7B1B0103F53E
:103C9000C363BB60BB689BB2184604F07FFB7860CF
:103CA000BB7B1B0103F21A63BB6003F0B1FE3860FB
:103CB000BB689BB21846396802F03AFEBB7B1B0119
:103CC00003F21C63BB60BB689CB203F0A1FE02461A
:103CD0007B68D31A05332046194602F029FE05F009
:103CE00041FCC82006F0EEF81437BD4690BD00BF79
:103CF000A0E9000808EA000814EA000880B58EB0C0
:103D000000AF786001227B6802FA03F3DAB2984BC5
:103D10001B78DBB21343DBB2DAB2954B1A70012089
:103D2000FFF76CF900233B82002387F8363000232D
:103D30003B630023BB620023FB600023FB62012086
:103D400006F0C0F87B689BB21B019BB203F21463C0
:103D5000FB84FA8C07F11403104619460AF08CF91B
:103D60007B689BB21B019BB203F21663FB84FA8C47
:103D700007F10C03104619460AF07EF903F048FEDD
:103D80003863FB683A6B1344BB62052006F09AF86F
:103D90000020FFF749F818E003F03AFE3863BB8AC9
:103DA000012202FA03F3DAB2724B1B78DBB2134042
:103DB000DBB287F8363097F83620BB8A42FA03F335
:103DC00087F83630192006F07DF897F83630002B4A
:103DD00003D13A6BBB6A9A42DED30020FFF70EF99B
:103DE0004FF47A7006F06EF8002387F837307AE0E7
:103DF00000237B8100233B620023FB610023BB6126
:103E00007B689BB21B019BB203F5C363FB84FB8CF5
:103E1000184604F0C3FAF8617B689BB21B019BB2A1
:103E200003F21A63FB84FB8C184604F0B7FAB861FE
:103E300097F837309BB21A46D200D31A9BB203F2DE
:103E40004963FB84FA8C07F10A03104619460AF00D
:103E500013F903F0DDFD0246BB69D21AFB69B2FB20
:103E6000F3F33B627B893A6AB2FBF3F3FB75002301
:103E70003B8197F837309BB21A46D200D31A9BB2D7
:103E800003F5C963FB84FA8C07F112031046194647
:103E90000AF0F2F897F837309BB21A46D200D31ADC
:103EA0009BB203F24A63FB84FA8C07F108031046C5
:103EB00019460AF0E1F87B8A1A467B689A420AD1D1
:103EC0003B89012B07D1FB7D002B04D197F83730BC
:103ED000184600F0CFF80A2005F0F4FF97F83730C5
:103EE000013387F8373097F83730082B80D97B6853
:103EF0009BB21B019BB203F21763FB84FA8C07F1A0
:103F00000C03104619460AF0B7F87B689BB21B01F8
:103F10009BB203F21E63FB84FA8C07F11003104678
:103F200019460AF0A9F80A2005F0CCFF03F070FD4D
:103F3000386303F06DFD0246FB681344BB620A2040
:103F400005F0C0FF7B689BB21B019BB203F21563B7
:103F5000FB84FA8C07F11403104619460AF08CF81A
:103F6000002387F83730012387F8363047E000BF59
:103F70009D180020041B00200A2005F0A3FFBB8A27
:103F8000012202FA03F3DAB2374B1B78DBB213409B
:103F9000DBB287F8363097F83620BB8A42FA03F353
:103FA00087F83630314B1B68DBB203F0010387F82A
:103FB000373003F02DFD0246FB6A9A420DD997F87F
:103FC0003730012B09D197F83630012B05D13B6BE7
:103FD00001333B6303F01CFDF862052005F072FF1E
:103FE0003B8ADAB297F8371097F836300B40DBB2DD
:103FF00003F00103DBB21046194602F063FC3A6B92
:10400000BB6A9A42B8D33B8ADBB21846002102F061
:1040100059FC0A2005F056FF0120FEF705FF7B68DA
:104020009BB21B019BB203F21C63FB8403F0F0FC08
:104030000346FA8C1046194602F07AFC01227B688E
:1040400002FA03F3DBB2DB43DAB2094B1B78DBB2D3
:104050001340DBB2DAB2064B1A70C82005F032FF0B
:104060003837BD4680BD00BF041B002088180020E3
:104070009D18002080B586B000AF786000237B617A
:104080007B689BB21A46D200D31A9BB203F24663F6
:104090007B827A8A07F110031046194609F0ECFF7B
:1040A0007B689BB21A46D200D31A9BB203F24563D7
:1040B0007B827A8A07F10E031046194609F0DCFF6D
:1040C0007B689BB21A46D200D31A9BB203F24763B5
:1040D0007B827A8A07F10C031046194609F0CCFF5F
:1040E00003F096FC02463B8A13447B61FB89DBB2FA
:1040F0001846012100F040F802E00A2005F0E2FE37
:1041000003F086FC02467B699A42F6D3FB89DBB258
:104110001846002100F030F8BB89184600F004F87A
:104120001837BD4680BD00BF80B584B000AF0346E0
:10413000FB800023FB6003F06BFC0246FB8813440A
:10414000FB600C4B1B781846012102F0BBFB02E020
:104150000A2005F0B7FE03F05BFC0246FB689A42BA
:10416000F6D3044B1B781846002102F0ABFB103746
:10417000BD4680BDD41A002080B483B000AF024693
:104180000B46FA71BB71BB79012B0DD1FB79012272
:1041900002FA03F3DAB22D4B1B78DBB21343DBB226
:1041A000DAB22A4B1A700EE0FB79012202FA03F30D
:1041B000DBB2DB43DAB2254B1B78DBB21340DBB258
:1041C000DAB2224B1A70BB79C3F10103BB71FB79E0
:1041D000002B0AD11E4ABB799BB219464901C91A64
:1041E00089000B44DB009BB29386FB79012B0AD13B
:1041F000174ABB799BB219464901C91A89000B4479
:10420000DB009BB21387FB79022B0AD1104ABB79E2
:104210009BB219464901C91A89000B44DB009BB2C5
:104220009387FB79032B0BD1094ABB799BB21946C3
:104230004901C91A89000B44DB009BB2A2F8403047
:104240000C37BD465DF8047B704700BF9C1800200A
:104250000004004080B58AB000AF7860002387F882
:1042600026300120FEF7E0FD0020FEF7C7FE002308
:1042700087F827307EE00A2005F024FE97F82730E3
:104280009BB21B019BB203F21C63BB84BB8C184620
:1042900004F084F8386203F0BBFBF86197F827302C
:1042A0009BB21B019BB203F5C363BB84BB8C184656
:1042B00004F074F8B861FA693B6AD31A7B6197F825
:1042C00027309BB21B019BB203F21A63BB84BB8CE9
:1042D000184604F063F8386197F8273062339BB2D0
:1042E0001B01BB84BB8C184604F058F8F86097F8A3
:1042F00027309BB21B019BB203F21F63BB84BA8CB5
:1043000007F10B031046194609F0B6FE0A2005F026
:10431000D9FD97F82730012202FA03F3DAB2184BDD
:104320001B78DBB21340DBB287F8263097F82620E3
:1043300097F8273042FA03F387F826307A69BB6989
:104340009A420FD9FA693B699A420BD9FA69FB681C
:104350009A4207D2FB7A012B04D197F827301846EE
:10436000FFF7CCFC0A2005F0ADFD97F827300133AC
:1043700087F8273097F82730022B7FF67CAF76E757
:104380009D18002080B582B000AF4FF4803001212D
:1043900005F044FC4FF40043BB804823FB7103232A
:1043A000BB713B1D1F481946FDF7CCFA1E48012181
:1043B000FDF7B4FB18233B7000237B700123BB7017
:1043C0000123FB703B46184609F022FB174B0422E1
:1043D0001A80164B00225A80144B01229A80134BEC
:1043E0000022DA80114B00221A8111480F49FCF794
:1043F00017F90F486021FCF7EFF90D480421FCF78D
:1044000007FA0B488021FCF71FFA09480121FCF745
:104410009FF9074804210122FCF7BAF90837BD4685
:1044200080BD00BF000C014001000080881B0020FF
:104430000040014080B400AF074B074A526822F0A9
:1044400040425A60044B044A526842F080525A601B
:10445000BD465DF8047B7047000C014080B500AF9D
:1044600048480421FCF762FA4648FCF751FA034633
:104470001A46454B1A80444B1B889BB2002B18D020
:104480004048FCF737FA0346642202FB03F23E4B36
:104490001B889BB292FBF3F39AB23C4B1A803C4BC5
:1044A0001A68394B1B889BB2B2FBF3F2394B1A6086
:1044B00005E0364B00221A80364B00221A60364B3C
:1044C0001B780133DAB2344B1A70334B1A78334B02
:1044D0001B789A4255D9324B1B78002B51D12B4B6C
:1044E0001B889BB2192B19D9284B1B889BB2222BF6
:1044F00014D82C4B1B782B4A12782B498A5CD1B2EA
:104500002A4A1278012000FA02F2D2B2D243D2B281
:104510000A40D2B2D1B2244AD15411E0214B1B78C7
:10452000204A127820498A5CD1B2204A12780120B0
:1045300000FA02F2D2B20A43D2B2D1B21A4AD1542C
:104540001A4B1B78002B16D1184B07221A70154BEB
:104550001B780133DAB2134B1A70124B1B78042B01
:104560000FD10F4B01221A700E4B00221A700F4B05
:1045700007221A7005E00D4B1B78013BDAB20B4B9A
:104580001A7080BD0004004060000020620000201E
:104590000000002064000020680000201A000020B5
:1045A0006A000020B61B0020A01B0020941B0020E6
:1045B00080B500AF42480421FCF7B8F9404B1B8F8F
:1045C0009AB2404B1A803F4B1B889BB2002B0ED0F7
:1045D0003B4B9B8E9BB2642202FB03F2394B1B8840
:1045E0009BB292FBF3F39AB2374B1A8005E0364B3D
:1045F00000221A80354B00221A60354B1B7801339C
:10460000DAB2334B1A70324B1A78324B1B789A421B
:1046100055D9314B1B78002B51D12B4B1B889BB2AA
:10462000192B19D9284B1B889BB2222B14D82B4B42
:104630001B782A4A12782A498A5CD1B2294A127810
:10464000012000FA02F2D2B2D243D2B20A40D2B270
:10465000D1B2234AD15411E0204B1B781F4A127863
:104660001F498A5CD1B21F4A1278012000FA02F277
:10467000D2B20A43D2B2D1B2194AD154194B1B78E3
:10468000002B16D1174B07221A70144B1B780133DD
:10469000DAB2124B1A70114B1B78042B0FD10E4B50
:1046A00001221A700D4B00221A700E4B07221A704D
:1046B00005E00C4B1B78013BDAB20A4B1A7080BD47
:1046C00000400140600000206200002064000020E3
:1046D000680000201A0000206A000020B61B00209D
:1046E000A01B0020941B002080B500AF06480221CB
:1046F000FCF71CF9044B9B8C9AB2044B5A80024B7A
:1047000000229A8480BD00BF00440140681B002045
:1047100080B500AF09480221FCF708F9084B9B68F7
:1047200003F40073002B04D1044B9B8C9AB2054B0D
:104730001A80024B00229A8480BD00BF00480140CD
:10474000000C0140681B002080B582B000AF19202A
:1047500005F0B8FB0023FB7106E0FB79144A002149
:10476000D154FB790133FB71FB79042BF5D9114B43
:1047700000221A70104B00221A70FFF75BFE0F4BDD
:104780004FF400425A61052005F09CFB0B4B4FF49F
:1047900000421A61FFF7F6FDC82005F093FB0520E3
:1047A00005F090FB00F00CF80837BD4680BD00BF57
:1047B000A01B0020680000206A000020000C0140BF
:1047C00080B500AF0A2005F07DFB644B1B78012B00
:1047D00040F0C3800A2005F075FB614B1B781B027B
:1047E0009AB25F4B5B7813449AB25E4B5A805C4B33
:1047F0009B781B029AB25A4BDB7813449AB2594BFE
:104800001A80574B5A79574B1A71564B5A88564B48
:104810001B889A4208D9534B5A88544B1B889A429A
:1048200002D2534B00221A704E4B5A884E4B1B88B3
:104830009A4202D24E4B01221A704A4B5A884B4B75
:104840001B889A4202D94A4B02221A700A2005F0AC
:1048500039FB444B1B88474AA2FB031292094FF4D1
:104860007A7101FB02F29B1A9AB2434BA3FB02132B
:104870005B099BB2DBB23033DAB2404B1A70394B72
:104880001B883D4AA2FB03125209642101FB02F27C
:104890009B1A9AB23A4BA3FB0213DB089BB2DBB222
:1048A0003033DAB2354B5A70344B2E229A702D4B7E
:1048B0001A88334BA3FB0213D9080B469B000B4409
:1048C0005B00D31A9BB2DBB23033DAB22B4BDA7017
:1048D0000A2005F0F7FA234B5B88264AA2FB031255
:1048E00092094FF47A7101FB02F29B1A9AB2224BA1
:1048F000A3FB02135B099BB2DBB23033DAB2214B6C
:104900001A70184B5B881C4AA2FB031252096421DF
:1049100001FB02F29B1A9AB2194BA3FB0213DB08AC
:104920009BB2DBB23033DAB2164B5A70154B2E22E3
:104930009A700C4B5A88124BA3FB0213D9080B46F2
:104940009B000B445B00D31A9BB2DBB23033DAB26C
:104950000C4BDA70014B00221A7080BD6A000020F7
:10496000A01B0020181B0020B81B0020F41A0020F8
:104970006C000020D34D62101F85EB51A81B002056
:10498000CDCCCCCC281B002080B582B000AF00235A
:10499000FB710023BB713EE01E2005F093FA03F08B
:1049A000DFF90346FB710020002104F0DFFB1E4B02
:1049B0001B78184603F0CAFA1C4804F0A1FBFB79E7
:1049C000042B05D1184B1B780133DAB2164B1A7041
:1049D000FB79012B05D1144B1B78013BDAB2124B4A
:1049E0001A700120002104F0C1FB114804F088FB7B
:1049F000104811490422022303F0B0F801200721D6
:104A000004F0B4FB0D4804F07BFB0D480A49042276
:104A10000A2303F0A3F8FB79022BBDD104F0A2FD19
:104A20000837BD4680BD00BF1A00002018EA000804
:104A30001CEA0008A81B00208000002020EA0008D3
:104A4000281B002080B483B000AF0346FB80FA88A7
:104A5000094B1B68D21A13469B0013445B001A468D
:104A6000064B1B68B2FBF3F3DBB218460C37BD46AE
:104A70005DF8047B704700BFA4000020B000002058
:104A800080B483B000AF0346FB71FB790A4A126819
:104A900002FB03F3094A82FB03129210DB17D31ABD
:104AA0009AB2074B1B689BB213449BB218460C3753
:104AB000BD465DF8047B7047B000002067666666FF
:104AC000A400002080B582B000AF0023BB8000238B
:104AD000FB7104F047FD284804F012FB0A2005F0A2
:104AE000F1F93B1D40F20460194609F0C5FABB8894
:104AF0001846FFF7A7FF0346FB71FB79184600F045
:104B000085F90346FB710A2005F0DCF9FB791846AC
:104B1000FFF7B6FF034640F20460194609F0F8FAC1
:104B200004F020FD154804F0EBFA0A2005F0CAF95C
:104B30003B1D40F20560194609F09EFABB881846F5
:104B4000FFF780FF0346FB71FB79184600F05EF922
:104B50000346FB710A2005F0B5F9FB791846FFF70B
:104B60008FFF034640F20560194609F0D1FA04F0C0
:104B7000F9FC0837BD4680BD24EA0008A4E8000817
:104B800080B584B000AF0346FB710023FB73FB7953
:104B90003E4AA3FB02015A1A52080A4492096521AF
:104BA00001FB02F29B1AFB7167E003F0D9F80346A0
:104BB000FB730120032104F0D9FAFA79344B83FB0B
:104BC00002139911D317CB1A4FF47A7101FB03F337
:104BD000D31A304A82FB03125211DB17D31ADBB20D
:104BE0003B72FB792B4AA2FB03125209642101FBA1
:104BF00002F29B1ADAB2284BA3FB0213DB08DBB2EA
:104C00007B72FA79244BA3FB0213D9080B469B0055
:104C10000B445B00D31ADBB2BB72204804F070FA7D
:104C200007F1080318461E490322062302F096FFE7
:104C300001200C2104F09AFA1A4804F061FA0A20C3
:104C400005F040F9FB7B042B08D1FB79632B03D8DB
:104C5000FB790133FB7101E00023FB71FB7B012B2E
:104C600008D1FB79002B02D10023FB7102E0FB7914
:104C7000013BFB710A2005F025F9FB7B022B94D147
:104C8000FB7918461037BD4680BD00BF57866F447C
:104C9000D34D62101F85EB51CDCCCCCC34EA00084B
:104CA0008000002038EA000880B582B000AF002301
:104CB000BB800023FB7104F055FC204804F020FA6F
:104CC0000A2005F0FFF83B1D40F20760194609F085
:104CD000D3F9BB88DBB21846FFF752FF0346FB71DE
:104CE0000A2005F0EFF8FB799BB240F20760194605
:104CF00009F00EFA04F036FC114804F001FA0A201B
:104D000005F0E0F83B1D4FF4C160194609F0B4F915
:104D1000BB88DBB21846FFF733FF0346FB710A205E
:104D200005F0D0F8FB799BB24FF4C160194609F049
:104D3000EFF904F017FC0837BD4680BD3CEA0008D7
:104D40004CEA000880B582B000AF03463960FB71C1
:104D50003B68DA1CF9792C4BA3FB0103DB08DBB2BF
:104D600019464901C91A8900CB1A5B00D9B2FB79EF
:104D70000B44DBB23033DBB21370052005F0A2F830
:104D8000FA79214BA3FB0213DB08FB713B6802336A
:104D90002E221A703B685A1CF9791B4BA3FB0103A6
:104DA000DB08DBB219464901C91A8900CB1A5B003E
:104DB000D9B2FB790B44DBB23033DBB21370052080
:104DC00005F080F8FA79104BA3FB0213DB08FB71A6
:104DD000FA790D4BA3FB0203DB08DBB21A46520142
:104DE000D21A9200D31A5B00DAB2FB791344DBB219
:104DF0003033DAB23B681A703B68043300221A7011
:104E00000837BD4680BD00BFCDCCCCCC80B584B0CA
:104E100000AF0346FB710023FB733EE002F0A0FFEE
:104E20000346FB730120032104F0A0F9FA7907F18E
:104E3000080310461946FFF785FF1C4804F060F987
:104E400007F1080318461A490422062302F086FED9
:104E500001200C2104F08AF9164804F051F90A20C7
:104E600005F030F8FB7B042B08D1FB79FD2B03D830
:104E7000FB790133FB7101E00023FB71FB7B012B0C
:104E800008D1FB79002B02D10023FB7102E0FB79F2
:104E9000013BFB710A2005F015F8FB7B022BBDD10D
:104EA000FB7918461037BD4680BD00BF34EA0008C4
:104EB0008000002038EA000880B58AB000AF786032
:104EC000396000233B767968AC4BA3FB0123DA08F9
:104ED00013469B0013445B00CA1AD3B23033DBB2D3
:104EE000FB757A68A54BA3FB0213DB087B6079682E
:104EF000A24BA3FB0123DA0813469B0013445B007B
:104F0000CA1AD3B23033DBB2BB757A689B4BA3FBB2
:104F10000213DB087B607968984BA3FB0123DA0856
:104F200013469B0013445B00CA1AD3B23033DBB282
:104F30007B757A68914BA3FB0213DB087B60796871
:104F40008E4BA3FB0123DA0813469B0013445B003E
:104F5000CA1AD3B23033DBB23B757A68874BA3FBF6
:104F60000213DB087B607968844BA3FB0123DA081A
:104F700013469B0013445B00CA1AD3B23033DBB232
:104F8000FB747A687D4BA3FB0213DB087B607968B6
:104F90007A4BA3FB0123DA0813469B0013445B0002
:104FA000CA1AD3B23033DBB2BB74192004F08AFFC3
:104FB0007A68724BA3FB0213DB087B6079686F4B46
:104FC000A3FB0123DA0813469B0013445B00CA1AB3
:104FD000D3B23033DBB27B747A68684BA3FB021325
:104FE000DB087B607968654BA3FB0123DA08134675
:104FF0009B0013445B00CA1AD3B23033DBB23B745C
:105000007A685E4BA3FB0213DB087B6079685B4B1D
:10501000A3FB0123DA0813469B0013445B00CA1A62
:10502000D3B23033DBB2FB737A68544BA3FB021369
:10503000DB087B607968514BA3FB0123DA08134638
:105040009B0013445B00CA1AD3B23033DBB2BB738C
:105050007A684A4BA3FB0213DB087B607968474BF5
:10506000A3FB0123DA0813469B0013445B00CA1A12
:10507000D3B23033DBB27B737A68404BA3FB0213AD
:10508000DB087B6079683D4BA3FB0123DA081346FC
:105090009B0013445B00CA1AD3B23033DBB23B73BC
:1050A0007A68364BA3FB0213DB087B607968334BCD
:1050B000A3FB0123DA0813469B0013445B00CA1AC2
:1050C000D3B23033DBB2FB727A682C4BA3FB0213F2
:1050D000DB087B607968294BA3FB0123DA081346C0
:1050E0009B0013445B00CA1AD3B23033DBB2BB72ED
:1050F0007A68224BA3FB0213DB087B6079681F4BA5
:10510000A3FB0123DA0813469B0013445B00CA1A71
:10511000D3B23033DBB27B727A68184BA3FB021335
:10512000D908164BA3FB0123DA0813469B0013444E
:105130005B00CA1AD3B23033DBB23B7200233B624E
:1051400007F108023B6A13441B78FB613023FB61C3
:10515000192004F0B7FE08E03B6A01333B6207F117
:1051600008023B6A13441B78FB61FB69302BF3D0C8
:10517000192004F0A7FE3B6A7B620FE0CDCCCCCCBB
:105180007A6A3B6AD31A3A68134407F108017A6ACB
:105190000A4412781A707B6A01337B627B6A102B97
:1051A000EEDD3B6818462837BD4680BD80B485B02B
:1051B00000AF78607B68FA2202FB03F3FB6000BF5C
:1051C000FB685A1EFA60002BFAD11437BD465DF811
:1051D000047B704780B584B000AF04F0C3F90020B1
:1051E000002103F0C3FF9548012102F027F947F29F
:1051F0003050FFF7DBFF00F085FD6420FFF7D6FF9E
:105200008F4B1B88BB800020002103F0AFFF8D482F
:10521000022102F013F947F23050FFF7C7FF00F008
:1052200071FD6420FFF7C2FF854B1B88FB800020C7
:10523000002103F09BFF8448062102F0FFF847F2AB
:105240003050FFF7B3FF00F05DFD6420FFF7AEFFC5
:105250007B4B1B883B8104F085F97C48012102F0DF
:10526000EDF847F23050FFF7A1FF00F04BFD64204E
:10527000FFF79CFF724B1B887B817B89DB089AB20E
:10528000BB88DB089BB29A4203D2714B01221A7091
:105290000EE07B89DB089AB2BB88DB089BB29A429E
:1052A00003D96B4B00221A7002E0694B02221A707C
:1052B000674B1B78002B54D1FB881A46BB88D31A46
:1052C000DA0F13445B109BB2053BFB81BA88FB8964
:1052D0005B089BB2D31A9AB25E4B1A80BA88FB89DC
:1052E00013449AB25B4B5A80FA88FB89D31A9AB25C
:1052F000584B9A803B891A46FB88D31ADA0F13441D
:105300005B109BB2053BFB81FA88FB8913449AB280
:10531000504BDA803A89FB89D31A9AB24D4B1A81E5
:105320007B891A463B89D31ADA0F13445B109BB270
:10533000053BFB813A89FB8913449AB2454B5A815C
:105340007A89FB89D31A9AB2424B9A817A89FB896E
:105350005B089BB213449AB23E4BDA8100F08CF9A1
:1053600059E03B4B1B78012B50D1BB881A46FB8878
:10537000D31ADA0F13445B109BB2053BFB81BA884A
:10538000FB89D31A9AB2334B1A80BA88FB8913442B
:105390009AB2304B5A80FA88FB89D31A9AB22D4BB5
:1053A0009A80FB881A463B89D31ADA0F13445B10A4
:1053B0009BB2053BFB81FA88FB8913449AB2254BCB
:1053C000DA803A89FB89D31A9AB2224B1A813B8937
:1053D0001A467B89D31ADA0F13445B109BB2053B44
:1053E000FB813A89FB8913449AB21A4B5A817A8914
:1053F000FB89D31A9AB2174B9A817A89FB89134495
:105400009AB2144BDA8100F037F904E0124803F045
:1054100077FE00F04FF90F4B1A880E4B1B8A9A4209
:1054200002D90B4B01221A700020002103F09EFECE
:105430000A4803F065FE1037BD4680BD34EA000817
:10544000801B002078F000087CF0000838EA000893
:1054500092000020081B002084F0000894F000084F
:1054600080B582B000AF0023FB7104F07BF84FF4ED
:10547000FA7004F027FD5EE002F072FC0346FB7157
:105480000020002103F072FE2F4803F039FE2F4B5D
:105490001A882F4BA3FB02135B099BB2DBB21846A1
:1054A00002F054FD294B1B88DBB2184602F04EFD7A
:1054B000284803F025FE254B5A88254BA3FB0213F1
:1054C0005B099BB2DBB2184602F040FD1F4B5B88C4
:1054D000DBB2184602F03AFD0120002103F046FE3F
:1054E0001D4803F00DFE194B9A88194BA3FB0213BC
:1054F0005B099BB2DBB2184602F028FD134B9B8878
:10550000DBB2184602F022FD144803F0F9FD0F4B00
:10551000DA880F4BA3FB02135B099BB2DBB2184680
:1055200002F014FD094BDB88DBB2184602F00EFDD9
:10553000142004F0C7FCFB79022B9DD104F012F873
:105540000837BD4680BD00BFD8E70008801B00209B
:105550001F85EB51A0F00008E0E70008A4F0000868
:1055600080B582B000AF0023FB710023BB7103F054
:10557000F9FF4FF4FA7004F0A5FC19E002F0F0FB1B
:105580000346FB710020002103F0F0FD022004F02F
:1055900099FC012004F096FC0120002103F0E6FDB7
:1055A000074B1B78184602F0D1FC142004F08AFC4B
:1055B000FB79022BE2D103F0D5FF0837BD4680BD51
:1055C000C200002080B582B000AF0023FB71002331
:1055D000BB7103F0C7FF4FF4FA7004F073FC3BE0BB
:1055E00002F0BEFB0346FB710020002103F0BEFD6C
:1055F000022004F067FC0023BB7108E0BB791A4A63
:10560000D35C1846FCF712FBBB790133BB71BB7945
:10561000042BF3D9012004F055FC0120002103F0F4
:10562000A5FD114B5B791846FCF700FB0E4B9B79EF
:105630001846FCF7FBFA0D4803F062FD0C4B1B7893
:10564000184602F083FC08480A490722092302F0A1
:1056500085FA142004F036FCFB79022BC0D103F04C
:1056600081FF0837BD4680BD401B0020D4E80008FC
:105670005A0000208000002080B582B000AF0023D7
:10568000FB710FE0FB799BB203F20A639AB2F979DE
:10569000074B33F811301046194608F039FDFB79F5
:1056A0000133FB71FB79072BECD90837BD4680BD70
:1056B000081B002080B582B000AF0023FB710FE013
:1056C000FB799BB203F20A639AB2FB795900074B4C
:1056D0000B441046194608F0CFFCFB790133FB71EF
:1056E000FB79072BECD90837BD4680BD081B00208D
:1056F00080B58AB000AF7860962004F0E3FB02F03A
:1057000087F93862022004F0DDFBA54B1B683A6A7A
:105710009A4240F2AE8102F07BF90246A04B1A6039
:1057200007F10C03386A194602F0F2FC022004F07B
:10573000C9FB00237B620BE007F10C027B6A134478
:105740001A7898497B6A0B441A707B6A01337B6232
:105750007B6A092BF0DD022004F0B4FB914B2C2274
:105760009A72022004F0AEFB04F00EFC00237B6270
:1057700012E07B6A0B338C497A6A0A441178894AB1
:10578000D1547B6A103389497A6A0A441178854A70
:10579000D1547B6A01337B627B6A032BE9DD04F021
:1057A00001FC022004F08EFB7E4B2C22DA737D4B31
:1057B0002C221A750023FB8300237B6219E001224F
:1057C0007B6A02FA03F39AB2794B1B689BB21340CF
:1057D000FB83FA8B7B6A42FA03F3FB837B6A153304
:1057E000FA8BD2B23032D1B26E4AD1547B6A0133D5
:1057F0007B627B6A022BE2DD6A4B2C221A766D48B3
:1058000068490422192302F0A9F9664B2C225A7721
:105810006948644904221E2302F0A0F9614B2C223E
:1058200083F8222000237B621AE0644B1B781A461F
:1058300001217B6A01FA03F39BB213409BB2FB8305
:10584000FA8B7B6A42FA03F3FB837B6A2333FA8B7E
:10585000D2B23032D1B2534AD1547B6A01337B6227
:105860007B6A022BE1DD4F4B2C2283F8262000239C
:105870007B621BE0524B9B689AB27B6A0433012126
:1058800001FA03F39BB21340FB83FA8B7B6A043368
:1058900042FA03F3FB837B6A2733FA8BD2B23032AE
:1058A000D1B2404AD1547B6A01337B627B6A022BBE
:1058B000E0DD3C4B2C2283F82A2000237B621AE097
:1058C000404B1B781A4601217B6A01FA03F39BB215
:1058D00013409BB2FB83FA8B7B6A42FA03F3FB8390
:1058E0007B6A2B33FA8BD2B23032D1B22D4AD154EB
:1058F0007B6A01337B627B6A022BE1DD294B2C2220
:1059000083F82E2000237B621BE02D4BDB689AB2CC
:105910007B6A0B33012101FA03F39BB21340FB8333
:10592000FA8B7B6A0B3342FA03F3FB837B6A2F33D8
:10593000FA8BD2B23032D1B21A4AD1547B6A0133D7
:105940007B627B6A022BE0DD164B2C2283F832202F
:1059500000237B621AE01B4B1B781A4601217B6AED
:1059600001FA03F39BB213409BB2FB83FA8B7B6A71
:1059700042FA03F3FB837B6A3333FA8BD2B23032C1
:10598000D1B2084AD1547B6A01337B627B6A022B15
:10599000E1DD044B2C2283F8362000237B622EE0CD
:1059A000B8000020BC1B0020981B0020AC1B00206E
:1059B000381B0020A81B0020281B0020041B0020EF
:1059C00000080140201B0020304B1B781A460121A3
:1059D0007B6A01FA03F39BB213409BB2FB83FA8B01
:1059E0007B6A42FA03F3FB837B6A3733FA8BD2B2CA
:1059F0003032D1B2264AD1547B6A01337B627B6A52
:105A0000022BE1DD224B2C2283F83A2000237B621B
:105A10001AE0204B1B781A4601217B6A01FA03F336
:105A20009BB213409BB2FB83FA8B7B6A42FA03F36F
:105A3000FB837B6A3B33FA8BD2B23032D1B2144A49
:105A4000D1547B6A01337B627B6A022BE1DD104B10
:105A50000D2283F83E200E4B0A2283F83F200E4B86
:105A600000221A700A48402100F018F8022004F0C1
:105A700029FA022004F026FAFEF766FEFDF784F903
:105A8000FDF7CCF908F098FD39E600BF9C1800201E
:105A9000BC1B00209D1800205E00002080B588B04F
:105AA00000AF786039602E4B1B68002B51D12D4A16
:105AB00007F10C0307CA03C31A800233120C1A70D1
:105AC00004F062FA07F10C0327481946032207F095
:105AD0008DF90346FB77FB7F002B0DD007F10C03FC
