:020000040800F2
:10000000FC1F0020CD0B00083D0C00083D0C000833
:100010003D0C00083D0C00083D0C000800000000ED
:10002000000000000000000000000000B5B700085C
:100030003D0C000800000000B9B80008F5B8000841
:100040003D0C00083D0C00083D0C00083D0C00086C
:100050003D0C00083D0C00083D32000859320008F4
:10006000753200083D0C00083D0C00083D0C0008EE
:100070003D0C00083D0C0008092B00081D2B000852
:100080003D0C00083D0C00083D0C0008000000007D
:10009000000000000000000000000000A132000885
:1000A000E94300086D440008814400083D0C000845
:1000B0003D0C0008494300083D0C00083D0C0008B9
:1000C0003D0C00083D0C00083D0C00083D0C0008EC
:1000D0003D0C0008552900083D0C00083D0C0008A7
:1000E000813200083D0C00083D0C000800000000B3
:1000F0000000000000000000000000000000000000
:1001000000000000000000000000000000000000EF
:1001100000000000000000003D0C00083D0C00083D
:100120005FF808F180B485B000AF786039604FF0B7
:100130000003FB817B681B88FB817A684FF4305396
:10014000C4F201039A421FD07A684FF45053C4F2AC
:1001500001039A4218D07B68B3F1804F14D07A68BB
:100160004FF48063C4F200039A420DD07A684FF4D2
:100170000063C4F200039A4206D07A684FF44063E9
:10018000C4F200039A4208D1FB8923F07003FB817B
:100190003B685A88FB891343FB817A684FF480538C
:1001A000C4F200039A420FD07A684FF4A053C4F20D
:1001B00000039A4208D0FB8923F44073FB813B681B
:1001C000DA88FB891343FB817B68FA891A803B68D4
:1001D0009A887B689A853B681A887B681A857A6852
:1001E0004FF43053C4F201039A421BD07A684FF4A3
:1001F0005053C4F201039A4214D07A684FF48043FA
:10020000C4F201039A420DD07A684FF48843C4F2D5
:1002100001039A4206D07A684FF49043C4F2010376
:100220009A4204D13B681B7A1A467B681A867B681F
:100230004FF001029A8207F11407BD4680BC704757
:1002400080B485B000AF786039604FF000037B81E7
:100250004FF00003FB814FF00003BB817B681B8CD8
:100260009BB223F001039AB27B681A847B681B8CD3
:10027000FB817B689B88BB817B681B8B7B817B8937
:1002800023F070037B817B8923F003037B813B6830
:100290001A887B8913437B81FB8923F00203FB814E
:1002A0003B681A89FB891343FB813B685A88FB89A9
:1002B0001343FB817A684FF43053C4F201039A422E
:1002C0001BD07A684FF45053C4F201039A4214D001
:1002D0007A684FF48043C4F201039A420DD07A68E1
:1002E0004FF48843C4F201039A4206D07A684FF46F
:1002F0009043C4F201039A4223D1FB8923F00803FF
:10030000FB813B685A89FB891343FB81FB8923F0FE
:100310000403FB813B689A88FB891343FB81BB89FB
:1003200023F48073BB81BB8923F40073BB813B68DA
:100330009A89BB891343BB813B68DA89BB89134324
:10034000BB817B68BA899A807B687A891A833B680B
:10035000DA887B689A867B68FA891A8407F1140721
:10036000BD4680BC704700BF80B485B000AF7860E8
:1003700039604FF000037B814FF00003FB814FF0A9
:100380000003BB817B681B8C9BB223F010039AB2E5
:100390007B681A847B681B8CFB817B689B88BB8194
:1003A0007B681B8B7B817B8923F4E0437B817B898A
:1003B00023F440737B813B681B884FEA03239AB286
:1003C0007B8913437B81FB8923F02003FB813B68FE
:1003D0001B894FEA03139AB2FB891343FB813B68E5
:1003E0005B884FEA03139AB2FB891343FB817A6857
:1003F0004FF43053C4F201039A4206D07A684FF4A6
:100400005053C4F201039A422FD1FB8923F0800399
:10041000FB813B685B894FEA03139AB2FB89134364
:10042000FB81FB8923F04003FB813B689B884FEAFB
:1004300003139AB2FB891343FB81BB8923F48063C6
:10044000BB81BB8923F40063BB813B689B894FEA76
:1004500083039AB2BB891343BB813B68DB894FEAB4
:1004600083039AB2BB891343BB817B68BA899A80A4
:100470007B687A891A833B68DA887B681A877B688D
:10048000FA891A8407F11407BD4680BC704700BF83
:1004900080B485B000AF786039604FF000037B8195
:1004A0004FF00003FB814FF00003BB817B681B8C86
:1004B0009BB223F480739AB27B681A847B681B8C8E
:1004C000FB817B689B88BB817B689B8B7B817B8965
:1004D00023F070037B817B8923F003037B813B68DE
:1004E0001A887B8913437B81FB8923F40073FB818A
:1004F0003B681B894FEA03239AB2FB891343FB81B4
:100500003B685B884FEA03239AB2FB891343FB8164
:100510007A684FF43053C4F201039A4206D07A68E5
:100520004FF45053C4F201039A422FD1FB8923F4B4
:100530000063FB813B685B894FEA03239AB2FB8926
:100540001343FB81FB8923F48063FB813B689B8819
:100550004FEA03239AB2FB891343FB81BB8923F43F
:100560008053BB81BB8923F40053BB813B689B89CB
:100570004FEA03139AB2BB891343BB813B68DB8903
:100580004FEA03139AB2BB891343BB817B68BA89D4
:100590009A807B687A899A833B68DA887B689A8735
:1005A0007B68FA891A8407F11407BD4680BC70473E
:1005B00080B485B000AF786039604FF00003BB8134
:1005C0004FF000037B814FF00003FB817B681B8CA5
:1005D0009BB223F480539AB27B681A847B681B8C8D
:1005E0007B817B689B88FB817B689B8BBB81BB8904
:1005F00023F4E043BB81BB8923F44073BB813B6898
:100600001B884FEA03239AB2BB891343BB817B89C2
:1006100023F400537B813B681B894FEA03339AB272
:100620007B8913437B813B685B884FEA03339AB233
:100630007B8913437B817A684FF43053C4F2010302
:100640009A4206D07A684FF45053C4F201039A429A
:100650000BD1FB8923F48043FB813B689B894FEAE4
:1006600083139AB2FB891343FB817B68FA899A80D2
:100670007B68BA899A833B68DA887B68A3F8402054
:100680007B687A891A8407F11407BD4680BC7047DD
:1006900080B584B000AF786039604FF00003FB8113
:1006A0004FF00103BB813B685B88002B03D14FF007
:1006B0000203FB8102E04FF00003FB813B689B8853
:1006C000012B03D14FF00203BB8102E04FF0010385
:1006D000BB813B681B88002B1CD13B6859883B6859
:1006E0009A883B681B89786800F07CF93B68DB8856
:1006F0007868194600F00EF93B681B89F989BA89B8
:10070000786800F0E1F93B68DB887868194600F00A
:100710001DF91BE03B6859883B689A883B681B8938
:10072000786800F0D1F93B68DB887868194600F0FA
:100730000DF93B681B89F989BA89786800F052F98C
:100740003B68DB887868194600F0E4F807F1100789
:10075000BD4680BD80B483B000AF78607B684FF643
:10076000FF729A807B684FF000021A807B684FF01E
:100770000002DA807B684FF000025A807B684FF0FD
:1007800000021A7207F10C07BD4680BC704700BF1B
:1007900080B483B000AF78607B684FF000021A80AD
:1007A0007B684FF000025A807B684FF000029A800D
:1007B0007B684FF00002DA807B684FF000021A81FC
:1007C0007B684FF000025A817B684FF000029A81EB
:1007D0007B684FF00002DA8107F10C07BD4680BC50
:1007E000704700BF80B483B000AF78600B46FB70E9
:1007F000FB78002B08D07B681B889BB243F0010379
:100800009AB27B681A8007E07B681B889BB223F052
:1008100001039AB27B681A8007F10C07BD4680BCC1
:10082000704700BF80B483B000AF786013460A46BB
:100830007A807B707B78002B08D07B689B899AB28A
:100840007B8813439AB27B689A810AE07B689B8914
:100850009AB27B886FEA03039BB213409AB27B681B
:100860009A8107F10C07BD4680BC704780B485B003
:1008700000AF78600B467B804FF00003FB817B6804
:100880001B89FB81FB8923F07003FB81FA897B883C
:100890001343FB817B68FA891A8107F11407BD466F
:1008A00080BC704780B483B000AF78600B467B801B
:1008B0007B681B899BB223F007039AB27B681A817D
:1008C0007B681B899AB27B8813439AB27B681A8132
:1008D00007F10C07BD4680BC704700BF80B483B0F1
:1008E00000AF78600B467B807B681B899BB223F04E
:1008F00080039AB27B681A817B681B899AB27B88D5
:1009000013439AB27B681A8107F10C07BD4680BC7D
:10091000704700BF80B483B000AF78600B467B8027
:100920007B681B8B9BB223F00C039AB27B681A8303
:100930007B681B8B9AB27B8813439AB27B681A83BD
:1009400007F10C07BD4680BC704700BF80B483B080
:1009500000AF78600B467B807B681B8B9BB223F4D7
:1009600040639AB27B681A837B681B8B9AB27B8840
:100970004FEA03239BB213439AB27B681A8307F1B1
:100980000C07BD4680BC704780B483B000AF786070
:100990007B689B8E9BB2184607F10C07BD4680BC56
:1009A000704700BF80B483B000AF78607B681B8F56
:1009B0009BB2184607F10C07BD4680BC704700BFCC
:1009C00080B483B000AF78600B467B807B886FEA91
:1009D00003039AB27B681A8207F10C07BD4680BCFC
:1009E000704700BF80B487B000AFF86079813A816A
:1009F000FB804FF00003BB824FF00003FB82FB68DB
:100A00001B8C9BB223F001039AB2FB681A84FB682B
:100A10001B8BBB82FB681B8CFB82BB8A23F0F3031E
:100A2000BB82FB884FEA03139AB23B8913439AB205
:100A3000BB8A1343BB82FA684FF43053C4F20103FC
:100A40009A421FD0FA684FF45053C4F201039A42FD
:100A500018D0FB68B3F1804F14D0FA684FF480636C
:100A6000C4F200039A420DD0FA684FF40063C4F256
:100A700000039A4206D0FA684FF44063C4F20003C0
:100A80009A420BD1FB8A23F00203FB827A89FB8A0C
:100A900013439BB243F00103FB820AE0FB8A23F07D
:100AA0000A03FB827A89FB8A13439BB243F001035A
:100AB000FB82FB68BA8A1A83FB68FA8A1A8407F1F8
:100AC0001C07BD4680BC704780B487B000AFF8609B
:100AD00079813A81FB804FF00003BB824FF0000325
:100AE000FB824FF000037B82FB681B8C9BB223F0E0
:100AF00010039AB2FB681A84FB681B8BBB82FB68ED
:100B00001B8CFB827B894FEA03137B82BB8A23F415
:100B100040734FEA03534FEA1353BB82FB884FEAFB
:100B200003339AB2BB8A1343BB823B894FEA032348
:100B30009AB2BB8A1343BB82FA684FF43053C4F2B3
:100B400001039A421FD0FA684FF45053C4F20103D4
:100B50009A4218D0FB68B3F1804F14D0FA684FF472
:100B60008063C4F200039A420DD0FA684FF4006328
:100B7000C4F200039A4206D0FA684FF44063C4F20C
:100B800000039A420BD1FB8A23F02003FB827A8A6E
:100B9000FB8A13439BB243F01003FB820AE0FB8AFB
:100BA00023F0A003FB827A89FB8A13439BB243F0B4
:100BB0001003FB82FB68BA8A1A83FB68FA8A1A84DC
:100BC00007F11C07BD4680BC704700BF80B582B0EE
:100BD00000AF4FF6F433C0F600037B6040F2000331
:100BE000C2F200033B600BE07B681A683B681A6046
:100BF0003B6803F104033B607B6803F104037B6003
:100C00003A6840F24403C2F200039A42ECD3094826
:100C100009494FF000028842B8BF40F8042BFFF6A4
:100C2000FAAF00F00FF807F00BF907F10807BD461F
:100C300080BD000048000020001C002080B400AFF0
:100C4000FEE700BF80B500AF4FF48053C4F202034B
:100C50004FF48052C4F20202126842F001021A609C
:100C60004FF48052C4F202024FF48053C4F20203E4
:100C700059684FF00003CFF6FF030B4053604FF469
:100C80008053C4F202034FF48052C4F2020212688D
:100C900022F0847222F480321A604FF48053C4F23E
:100CA00002034FF48052C4F20202126822F480223E
:100CB0001A604FF48053C4F202034FF48052C4F21E
:100CC0000202526822F4FE025A604FF48053C4F2CA
:100CD00002034FF41F029A604FF48053C4F20203E0
:100CE0004FF00002DA6200F009F84FF46D43CEF2E3
:100CF00000034FF000629A6080BD00BF80B500AF76
:100D000000F002F880BD00BF80B483B000AF4FF0A8
:100D100000037B604FF000033B604FF48053C4F24C
:100D200002034FF48052C4F20202126842F480328D
:100D30001A604FF48053C4F202031B6803F40033BB
:100D40003B607B6803F101037B603B68002B03D1B0
:100D50007B68B3F5A06FECD14FF48053C4F202036B
:100D60001B6803F40033002B03D04FF001033B60FA
:100D700002E04FF000033B603B68012B6DD14FF464
:100D80008053C4F202034FF48052C4F2020252684C
:100D90005A604FF48053C4F202034FF48052C4F2FD
:100DA000020252685A604FF48053C4F202034FF4B7
:100DB0008052C4F2020252685A604FF48053C4F267
:100DC00002034FF48052C4F20202526822F47C12F1
:100DD0005A604FF48053C4F202034FF48052C4F2BD
:100DE0000202526842F498125A604FF48053C4F2DF
:100DF00002034FF48052C4F20202126842F0807281
:100E00001A6000BF4FF48053C4F202031B6803F062
:100E10000073002BF6D04FF48053C4F202034FF45A
:100E20008052C4F20202526822F003025A604FF468
:100E30008053C4F202034FF48052C4F2020252689B
:100E400042F002025A6000BF4FF48053C4F2020322
:100E50005B6803F00C03082BF6D107F10C07BD46C5
:100E600080BC704780B485B000AF0346FB714FF47F
:100E70004053C4F201031B889BB2FB60FB79002B3B
:100E800004D1FB6843F03803FB6005E0FB6823F006
:100E9000380343F00803FB604FF44053C4F20103EE
:100EA000FA6892B21A8007F11407BD4680BC7047F9
:100EB00080B483B000AF0346FB7107F10C07BD4659
:100EC00080BC704780B400AF4FF001031846BD46A8
:100ED00080BC704780B582B000AF0346FB71FB79E0
:100EE0009BB24FF44050C4F2010019460DF08EF948
:100EF00000BF4FF44050C4F201004FF001010DF06B
:100F0000A1F90346002BF4D04FF44050C4F2010085
:100F10000DF08AF90346DBB2184607F10807BD4613
:100F200080BD00BF80B500AF4FF0FF00FFF7D2FFDC
:100F30000346184680BD00BF80B582B000AF40F2C6
:100F40004C03C2F200034FF032021A60FFF7EAFFCF
:100F5000FFF7E8FF0346FB71FB79FF2B06D040F259
:100F60004C03C2F200031B68002BF1D1FB79184639
:100F700007F10807BD4680BD80B500AF4FF40060A3
:100F8000C4F201004FF4004101F062F8FFF7CAFF1C
:100F900080BD00BF80B590B000AF0346B9607A60F5
:100FA000FB734FF6FF733B8243F20C03C4F2010361
:100FB0007B614FF00003FB624FF000033B634FF097
:100FC00000037B627B683B624FF000037B634FF45E
:100FD0004053BB634FF00003FB634FF01C00C4F2AF
:100FE00002000CF07BFE4FF03000C4F202000CF067
:100FF00075FEFB7B002B23D0BB68BB614FF0000369
:10100000FB614FF08003BB6207F114034FF01C003B
:10101000C4F2020019460CF071FF07F11003BB6126
:101020004FF01003FB614FF00003BB6207F11403A4
:101030004FF03000C4F2020019460CF05FFF22E0CE
:1010400007F11003BB614FF00003FB614FF0000399
:10105000BB6207F114034FF01C00C4F202001946F2
:101060000CF04CFFBB68BB614FF01003FB614FF00D
:101070008003BB6207F114034FF03000C4F202009A
:1010800019460CF03BFF4FF01C00C4F202004FF079
:1010900001010CF073FF4FF03000C4F202004FF07A
:1010A00001010CF06BFF4FF44050C4F201004FF00F
:1010B00003014FF001020DF085F800BF4FF0200052
:1010C0000CF078FF0346002BF8D04FF01C00C4F260
:1010D00002004FF000010CF051FF4FF03000C4F25D
:1010E00002004FF000010CF049FF4FF44050C4F2F1
:1010F00001004FF003014FF000020DF063F807F11B
:101100004007BD4680BD00BF80B500AF4FF480539F
:10111000C4F202034FF48052C4F20202926942F018
:1011200001029A614FF48053C4F202034FF48052DB
:10113000C4F20202926942F004029A614FF48053B1
:10114000C4F202034FF48052C4F20202926942F0E8
:1011500008029A614FF40070C0F230004FF00101B4
:1011600000F092FF4FF001004FF0010100F08CFF02
:101170004FF40063C4F201034FF40062C4F20102B1
:10118000526842F040525A604FF40063C4F20103C7
:101190004FF40062C4F20102526822F040425A60E9
:1011A0004FF40063C4F201034FF400421A614FF49C
:1011B0004063C4F201034FF44062C4F201021268BA
:1011C00042F440521A604FF44063C4F201034FF4FA
:1011D0004062C4F20102126822F440421A604FF4E5
:1011E0004063C4F201034FF44062C4F2010212688A
:1011F00042F400421A604FF44063C4F201034FF41A
:101200004062C4F20102126822F440321A604FF4C4
:101210004063C4F201034FF44062C4F20102126859
:1012200022F440221A604FF44063C4F201034FF4E9
:101230004062C4F20102126842F400221A604FF4C4
:101240004063C4F201034FF010021A614FF440638F
:10125000C4F201034FF44062C4F20102126842F486
:1012600040121A604FF44063C4F201034FF440622D
:10127000C4F20102126822F440021A604FF4406383
:10128000C4F201034FF44062C4F20102126842F456
:1012900000021A604FF48053C4F202034FF48052EC
:1012A000C4F20202926942F480529A614FF44053B0
:1012B000C4F201034FF000029A804FF44053C4F28D
:1012C00001034FF004021A804FF44053C4F20103AB
:1012D0004FF44052C4F20102128892B242F0380236
:1012E00092B21A804FF44053C4F201034FF44052BB
:1012F000C4F20102128892B242F4807292B21A8051
:101300004FF44053C4F201034FF44052C4F20102BF
:10131000128892B242F4007292B21A804FF4405393
:10132000C4F201034FF44052C4F20102128892B297
:1013300042F0400292B21A804FF001004FF00101DA
:1013400008F0AEF980BD00BF80B582B000AF40F2BA
:101350001403C2F200031B78DBB203F00103002B7D
:101360000BD14FF40060C4F201004FF4004100F0D3
:101370007DFEFFF7E1FDFFF7FFFD4FF44050C4F2A3
:1013800001000CF0BBFE4FF44050C4F201004FF0DE
:1013900000010CF0F7FE4FF480504FF0000108F010
:1013A000A9F94FF03803BB804FF02803FB7107F118
:1013B00004034FF44060C4F20100194600F05AFDE6
:1013C0004FF00000FFF774FD40F21403C2F2000377
:1013D0001B78DBB243F00103DAB240F21403C2F22D
:1013E00000031A7007F10807BD4680BD80B584B0C0
:1013F00000AF7860396040F24803C2F200034FF05A
:101400000A021A60FFF78EFD0346FB73FB7BFF2B7E
:1014100006D140F24803C2F200031B68002BF1D151
:10142000FB7BFE2B02D04FF000030BE04FF00100DE
:1014300079683A68FFF7AEFDFFF774FDFFF772FDBC
:101440004FF00103184607F11007BD4680BD00BFED
:1014500080B584B000AF78600B46FB70FFF76CFD81
:101460000346FF2B02D04FF0000323E0FB78184621
:10147000FFF730FDFB78FD2B1AD04FF000007968A4
:101480004FF40072FFF786FD4FF0FF00FFF722FDDB
:101490004FF0FF00FFF71EFDFFF744FD0346FB730F
:1014A000FB7B03F01F03052B02D04FF0000301E08C
:1014B0004FF00103184607F11007BD4680BD00BF7D
:1014C00080B584B000AF03463960FB71FB795BB235
:1014D000002B10DAFB7903F07F03FB714FF07700EC
:1014E0004FF00001FFF7ECFF0346BB73BB7B012B02
:1014F00001D9BB7B60E04FF40060C4F201004FF4FF
:10150000004100F0A5FD4FF40060C4F201004FF46B
:10151000004100F0ABFDFFF70FFD0346FF2B02D0AB
:101520004FF0FF0348E0FB791846FFF7D3FC3B6818
:101530004FEA1363DBB21846FFF7CCFC3B684FEA77
:101540001343DBB21846FFF7C5FC3B684FEA132391
:10155000DBB21846FFF7BEFC3B68DBB21846FFF76C
:10156000B9FC4FF00103FB73FB79402B02D14FF024
:101570009503FB73FB79482B02D14FF08703FB7374
:10158000FB7B1846FFF7A6FCFB794C2B01D1FFF73C
:10159000C9FC4FF00A03FB73FFF7C4FC0346BB739F
:1015A000BB7B5BB2002B06DAFB7B03F1FF33FB73E3
:1015B000FB7B002BF0D1BB7B184607F11007BD4623
:1015C00080BD00BF90B585B000AF0346FB71FB79CD
:1015D000002B02D04FF00103FDE040F21403C2F2F1
:1015E00000031B78DBB203F00203002B06D040F2AD
:1015F0001403C2F200031B78DBB2ECE0FFF784FDBA
:101600004FF00000FFF72EFC4FF00A03FB7305E0DC
:10161000FFF788FCFB7B03F1FF33FB73FB7B002BA5
:10162000F6D14FF000037B734FF040004FF0000104
:10163000FFF746FF0346012B40F0A78040F2480326
:10164000C2F200034FF064021A604FF048004FF4FA
:10165000D571FFF735FF0346012B5CD14FF0000336
:10166000FB730DE0FC7BFFF75DFC03461A4607F1B8
:1016700010010B1903F8082CFB7B03F10103FB732A
:10168000FB7B032BEED9BB7A012B7ED1FB7AAA2BF5
:101690007BD100BF40F24803C2F200031B68002B5D
:1016A00008D04FF0E9004FF08041FFF709FF0346F3
:1016B000002BEFD140F24803C2F200031B68002B5D
:1016C00063D04FF07A004FF00001FFF7F9FE0346B8
:1016D000002B5AD14FF00003FB730DE0FC7BFFF7AA
:1016E00021FC03461A4607F110010B1903F8082CD8
:1016F000FB7B03F10103FB73FB7B032BEED93B7AEE
:1017000003F04003002B02D04FF00C0301E04FF038
:1017100004037B7339E04FF0E9004FF00001FFF75D
:10172000CFFE0346012B06D84FF002037B734FF028
:10173000E903BB7305E04FF001037B734FF04103F6
:10174000BB7300BF40F24803C2F200031B68002BCA
:1017500008D0BB7B18464FF00001FFF7B1FE0346EF
:10176000002BEFD140F24803C2F200031B68002BAC
:1017700008D04FF050004FF40071FFF7A1FE034670
:10178000002B02D04FF000037B7340F25003C2F2F3
:1017900000037A7B1A70FFF7EFFB7B7B002B12D0E4
:1017A00040F21403C2F200031B78DBB223F0010302
:1017B000DAB240F21403C2F200031A704FF00100D3
:1017C000FFF750FB01E0FFF7BFFD40F21403C2F248
:1017D00000031B78DBB2184607F11407BD4690BD25
:1017E00080B483B000AF0346FB71FB79002B02D0BD
:1017F0004FF0010305E040F21403C2F200031B782E
:10180000DBB2184607F10C07BD4680BC704700BF2D
:1018100080B584B000AFB9607A600246FA73BB73DA
:10182000FB7B002B02D1BB7B002B02D14FF00403CA
:101830005EE040F21403C2F200031B78DBB203F057
:101840000103002B02D04FF0030351E040F250039C
:10185000C2F200031B7803F00803002B03D17B685E
:101860004FEA43237B60BB7B012B13D14FF0510028
:101870007968FFF725FE0346002B31D1B8684FF495
:101880000071FFF7B3FD0346002B29D04FF0000392
:10189000BB7325E04FF052007968FFF711FE034655
:1018A000002B1DD1B8684FF40071FFF79FFD034670
:1018B00083F00103DBB2002B0BD1BB6803F500738F
:1018C000BB60BB7B03F1FF33BB73BB7B002BE9D158
:1018D00000E000BF4FF04C004FF00001FFF7F0FDBB
:1018E000FFF74AFBBB7B002B0CBF00230123DBB2BD
:1018F000184607F11007BD4680BD00BF80B584B013
:1019000000AFB9607A600246FA73BB73FB7B002BB1
:1019100002D1BB7B002B02D14FF0040383E040F2E5
:101920001403C2F200031B78DBB203F00103002BA7
:1019300002D04FF0030376E040F21403C2F200033A
:101940001B78DBB203F00403002B02D04FF002033C
:1019500069E040F25003C2F200031B7803F0080371
:10196000002B03D17B684FEA43237B60BB7B012BB9
:1019700013D14FF058007968FFF7A2FD0346002B02
:1019800049D1B8684FF0FE01FFF762FD0346002B16
:1019900041D04FF00003BB733DE040F25003C2F270
:1019A00000031B7803F00603002B05D0BB7B4FF030
:1019B000D7001946FFF784FD4FF059007968FFF70B
:1019C0007FFD0346002B26D1B8684FF0FC01FFF7DE
:1019D0003FFD034683F00103DBB2002B0BD1BB6854
:1019E00003F50073BB60BB7B03F1FF33BB73BB7BB1
:1019F000002BE9D100E000BF4FF000004FF0FD01E7
:101A0000FFF726FD034683F00103DBB2002B02D073
:101A10004FF00103BB73FFF7AFFABB7B002B0CBF8A
:101A200000230123DBB2184607F11007BD4680BD35
:101A300090B58BB000AF0B463A600246FA71BB71AD
:101A40003B683B62FB79002B02D04FF004030CE2B1
:101A50004FF0010387F82730BB79052B2DD13B6A66
:101A60001B78012B0FD0022B14D0002B20D1FFF7B5
:101A700029FA0346002B01D0FFF766FC4FF0000364
:101A800087F82730EFE1FFF73FFB4FF0000387F8BF
:101A90002730E8E13B6A03F10104FFF713FA03463C
:101AA000DBB223704FF0000387F8273000BFDAE184
:101AB0004FF0040387F82730D5E140F21403C2F257
:101AC00000031B78DBB203F00103002B02D04FF0C0
:101AD0000303CAE1BB790E2B00F2B18101A252F8D7
:101AE00023F000BF211B0008471B0008171C00083B
:101AF000291C00083F1E00083F1E00083F1E00086A
:101B00003F1E00083F1E00083F1E0008511D000830
:101B1000691D0008951D0008C11D00080F1E000862
:101B20004FF40060C4F201004FF4004100F09EFA4F
:101B3000FFF702FA0346FF2B40F086814FF00003C7
:101B400087F8273080E14FF049004FF00001FFF7A0
:101B5000B7FC0346002B40F0798107F10C031846CF
:101B60004FF01001FFF742FC0346002B00F06E819E
:101B70003B7B4FEA9313DBB2012B10D17B7D1A46DE
:101B80003B7D4FEA03239BB2D3189BB203F10103C1
:101B9000FB83FB8B4FEA83223B681A6036E07B7C39
:101BA00003F00F03DAB2BB7D4FEAD313DBB2D318D5
:101BB000DAB27B7D03F00303DBB24FEA4303DBB20F
:101BC000D318DBB203F1020387F826303B7D4FEADE
:101BD0009313DBB21A46FB7C4FEA83039BB2D31804
:101BE0009AB2BB7C03F003039BB24FEA83239BB200
:101BF000D3189BB203F10103FB83FA8B97F82630CD
:101C0000A3F1090302FA03F23B681A604FF00003E4
:101C100087F827301AE13B684FF400721A804FF0C2
:101C2000000387F827301CE140F25003C2F20003A2
:101C30001B7803F00403002B36D04FF0CD004FF09B
:101C40000001FFF73DFC0346002B40F00181FFF748
:101C500069F907F10C0318464FF01001FFF7C6FBB6
:101C60000346002B00F0F4804FF0300387F8263055
:101C700007E0FFF757F997F8263003F1FF3387F8AD
:101C8000263097F82630002BF3D1BB7D4FEA131393
:101C9000DBB24FF0100202FA03F23B681A604FF019
:101CA000000387F82730D3E04FF049004FF00001E0
:101CB000FFF706FC0346002B40F0CA8007F10C0337
:101CC00018464FF01001FFF791FB0346002B00F080
:101CD000BF8040F25003C2F200031B7803F00203FE
:101CE000002B17D0BB7D03F03F034FEA4302FB7D7F
:101CF0004FEAD313DBB2D31803F101027B7E4FEA24
:101D00009313DBB203F1FF3302FA03F31A463B6885
:101D10001A6018E0BB7D03F07C034FEAA3039BB27B
:101D200003F10103FA7D02F003024FEAC201FA7DDA
:101D30004FEA5212D2B28A1802F1010202FB03F3F7
:101D40001A463B681A604FF0000387F827307FE09F
:101D500040F25003C2F200031A783B6A1A704FF047
:101D6000000387F827307CE04FF049004FF0000176
:101D7000FFF7A6FB0346002B6CD1386A4FF0100129
:101D8000FFF734FB0346002B64D04FF0000387F8C5
:101D900027305FE04FF04A004FF00001FFF790FB63
:101DA0000346002B58D1386A4FF01001FFF71EFB95
:101DB0000346002B50D04FF0000387F827304BE04C
:101DC0004FF07A004FF00001FFF77AFB0346002B3B
:101DD00044D14FF0040387F826300FE0FFF7A2F854
:101DE00003461A463B6A1A703B6A03F101033B62E1
:101DF00097F8263003F1FF3387F8263097F826301E
:101E0000002BEBD14FF0000387F8273026E04FF08E
:101E1000CD004FF00001FFF753FB0346002B1FD10D
:101E2000FFF780F8386A4FF04001FFF7DFFA03460A
:101E3000002B15D04FF0000387F8273010E04FF04B
:101E4000040387F827300CE000BF0AE000BF08E079
:101E500000BF06E000BF04E000BF02E000BF00E0FA
:101E600000BFFFF789F897F82730184607F12C07CD
:101E7000BD4690BD80B489B000AF786039604FF046
:101E80000003FB614FF000033B614FF00003BB61B7
:101E90004FF00003FB604FF000037B614FF0000345
:101EA000BB603B68DB7803F00F03FB613B68DB78CA
:101EB00003F01003002B04D03B689B78FA691343AE
:101EC000FB613B681B88DBB2002B4ED07B681B6834
:101ED0007B614FF00003BB6141E0BB694FF0010241
:101EE00002FA03F3FB603B681B881A46FB68134049
:101EF0003B613A69FB689A422DD1BB694FEA830383
:101F0000FB60FB684FF00F0202FA03F3BB60BB6893
:101F10006FEA03037A6913407B61FB68FA6902FA8E
:101F200003F37A6913437B613B68DB78282B07D185
:101F3000BB694FF0010202FA03F27B685A610AE0C2
:101F40003B68DB78482B06D1BB694FF0010202FAEF
:101F500003F27B681A61BB6903F10103BB61BB69D2
:101F6000072BBAD97B687A691A603B681B88FF2BFC
:101F700053D97B685B687B614FF00003BB6146E02F
:101F8000BB6903F108034FF0010202FA03F3FB609F
:101F90003B681B881A46FB6813403B613A69FB6843
:101FA0009A4230D1BB694FEA8303FB60FB684FF074
:101FB0000F0202FA03F3BB60BB686FEA03037A699E
:101FC00013407B61FB68FA6902FA03F37A691343F1
:101FD0007B613B68DB78282B08D1BB6903F10803E0
:101FE0004FF0010202FA03F27B685A613B68DB782A
:101FF000482B08D1BB6903F108034FF0010202FA34
:1020000003F27B681A61BB6903F10103BB61BB6921
:10201000072BB5D97B687A695A6007F12407BD465A
:1020200080BC704780B483B000AF78607B684FF6A7
:10203000FF721A807B684FF002029A707B684FF043
:102040000402DA7007F10C07BD4680BC704700BF80
:1020500080B483B000AF78600B467B807A887B6861
:102060001A6107F10C07BD4680BC704780B483B08D
:1020700000AF78600B467B807A887B685A6107F1F5
:102080000C07BD4680BC704780B487B000AF786055
:102090000B46FB704FF000033B614FF00003FB6009
:1020A0004FF000037B614FF00003BB607B68002BA7
:1020B00006DA4FF00003C4F20103DB697B6105E03F
:1020C0004FF00003C4F201035B687B617B6803F49B
:1020D00070234FEA1343BB607B684FEA03434FEA28
:1020E00013433B617B6803F44013B3F5401F10D1E9
:1020F0007B6923F070637B614FF00003C4F201033E
:102100004FF00002C4F20102526822F070625A607D
:1021100026E07B6803F48013002B10D0BB684FF0DF
:10212000030202FA03F3FB60FB686FEA03037A69B8
:1021300013407B617B6943F070637B6110E07B68D7
:102140004FEA53534FEA03133A6902FA03F36FEA73
:1021500003037A6913407B617B6943F070637B61A1
:10216000FB78002B0AD07B684FEA53534FEA0313E6
:102170003A6902FA03F37A6913437B617B68002BA7
:1021800006DA4FF00003C4F201037A69DA6105E070
:102190004FF00003C4F201037A695A6007F11C078B
:1021A000BD4680BC704700BF90B484B000AF02460B
:1021B0000B46FA71BB714FF00003FB60BB7903F073
:1021C00003034FEA83034FF00F0202FA03F3FB60AD
:1021D0004FF00003C4F20103BA794FEA9202D2B27F
:1021E00010464FF00002C4F20102B9794FEA9101A2
:1021F000C9B201F1020152F82110FA686FEA020235
:10220000114000F1020243F822104FF00003C4F223
:102210000103BA794FEA9202D2B210464FF000029F
:10222000C4F20102B9794FEA9101C9B201F1020188
:1022300052F82110FC79BA7902F003024FEA8202C7
:1022400004FA02F2114300F1020243F8221007F1EE
:102250001007BD4690BC704780B483B000AF034602
:10226000FB71084B97F907205209F97901F01F011A
:10227000012000FA01F143F822100C37BD465DF849
:10228000047B704700E100E080B584B000AF00231C
:10229000FB730023BB7300237B7300233B7300237A
:1022A0007B8100237B6000233B6006F013FE6A48BD
:1022B00006F05AFC4FF4FA7007F06AFC32E005F0C1
:1022C0007DFA0346FB730020002106F083FC63487F
:1022D00006F04AFC624B1B689BB2184600F09EF960
:1022E000604806F041FC5E4B5B689BB2184600F00C
:1022F00095F90120002106F06DFC0A2007F048FC4A
:10230000594806F031FC564B9B689BB2184600F0CA
:1023100085F9564806F028FC514BDB689BB21846FD
:1023200000F07CF9FB7B002BC9D006F0D3FDFB7BD2
:10233000013B7B730023FB734D4806F015FCBB7B10
:10234000184604F03BF90346BB73BB7B184600F00C
:10235000D7FE06F0BFFD474806F006FC3B7B18465B
:1023600004F02CF903463B737A7B3D4B53F8223043
:102370007B6006F0AFFD404806F0F6FBBB7B1846DD
:1023800000F038FE0023FB7317E00A2007F000FC82
:1023900005F014FA0346FB7306F09CFD374806F07F
:1023A000E3FB0120002106F015FC7A7B2C4B53F84F
:1023B00022309BB2184600F031F9FB7B022BE4D1AE
:1023C0007A7B274B53F822303B60BB7B184600F0EA
:1023D00097FEC82007F0DCFB3B689AB27B689BB293
:1023E000D31A9BB21A463B7B92FBF3F37B817A7B39
:1023F000234B798923F8121006F06CFD214806F072
:10240000B3FB3B689BB2184600F008F9012000219D
:1024100006F0E0FB1C4806F0A7FB7B89184600F09D
:10242000FDF87B8940F2426019460CF02BFA00233C
:10243000FB7306E00A2007F0ABFB05F0BFF903468B
:10244000FB73FB7B022BF5D106F044FDC82007F09F
:102450009FFB1037BD4680BDB4EF0008C0EF0008F9
:102460004C180020C4EF0008C8EF0008CCEF0008AB
:10247000D0EF0008E0EF0008F0EF000800F00008DF
:10248000D81A002010F0000818F0000880B586B0B7
:1024900000AF13460246FA710A46BA71BB800023A8
:1024A0003B610023FB600023BB600023FB82002311
:1024B0007B7506F00FFD4F4806F056FB06E00A203C
:1024C00007F066FB05F07AF903467B757B7D002BF0
:1024D000F5D07B7D022B01D1FFF7D6FE01233B75A2
:1024E00080E006F0F7FC444806F03EFB434B1B88B7
:1024F000184600F093F8FB8A1846052104F00AF903
:102500000346FB82FB8A3D4A128802FB03F23C4BE6
:10251000A3FB0213DB083B6106F0DCFC394806F044
:1025200023FB3B699BB2184600F078F8012000219C
:1025300006F050FB344806F017FBBA79334B53F8DA
:102540002220324B53F822309BB2184600F066F836
:1025500000237B75002000F04DFDBA792B4B002144
:1025600043F822101BE00A2007F012FB06F0B2FC31
:10257000274806F0F9FABA79244B53F822309BB277
:10258000184600F04BF80120002106F023FB2148FB
:1025900006F0EAFA3B699BB2184600F03FF81B4B85
:1025A0001A683B699A42DED3002000F0A9FD06F0CC
:1025B00091FC194806F0D8FA06E00A2007F0E8FA7C
:1025C00005F0FCF803467B757B7D002BF5D07B7D09
:1025D000022B05D101233B750C4B00221A6001E050
:1025E00000233B753B7D012B3FF47BAF1837BD4685
:1025F00080BD00BF20F0000830F00008D81A00208D
:10260000CDCCCCCC3CF0000844F000084C180020A5
:1026100048F0000850F0000854F0000880B582B07F
:1026200000AF0346FB80FA88164BA3FB02135B0B3B
:102630009BB2DBB2184605F099F9FB88114AA2FB60
:102640000312520B42F2107101FB02F29B1A9AB272
:102650000D4BA3FB02135B099BB2DBB2184605F0DE
:1026600085F9FB88084AA2FB03125209642101FB89
:1026700002F29B1A9BB2DBB2184605F077F90837D5
:10268000BD4680BD5917B7D11F85EB5180B582B0CB
:1026900000AF00237B60AA4B1B78322B3FD1A94BA4
:1026A00030221A7034E0A84B1B78012B30D17B68A4
:1026B00003F00103002B03D1A44B1B787B8017E0B0
:1026C0007B881B029BB27B80A04B1B781A467B88C1
:1026D00013449BB27B807B68DA0F13445B109BB280
:1026E00003F5B8639AB27B88104619460CF0CAF815
:1026F000964B1A78934B1A70934B00221A70944B96
:1027000001221A70012007F043FA7B6801337B60D5
:102710007B68B3F5C87FC6DB894B30221A70884BC3
:102720001B78332B40F0B080884B1B78313B372B24
:1027300000F2AA8001A252F823F000BF1D28000871
:1027400027280008312800083B28000845280008F1
:102750004F280008892800088928000889280008CF
:102760008928000889280008892800088928000885
:102770008928000889280008892800088928000875
:102780008928000889280008892800088928000865
:102790008928000889280008892800088928000855
:1027A0008928000889280008892800088928000845
:1027B0008928000889280008892800088928000835
:1027C0008928000889280008892800088928000825
:1027D0008928000889280008892800088928000815
:1027E0008928000889280008892800088928000805
:1027F0008928000889280008892800085928000825
:102800006128000869280008712800087928000854
:102810008128000889280008892800080020002154
:1028200003F06CFD30E00020012103F067FD2BE098
:102830000120002103F062FD26E00120012103F0C8
:102840005DFD21E00220002103F058FD1CE0022084
:10285000012103F053FD17E0002000F0CBFB13E053
:10286000002000F04DFC0FE0012000F0C3FB0BE066
:10287000012000F045FC07E0022000F0BBFB03E074
:10288000022000F03DFC00BF2D4B1B78312B4CD1BA
:1028900005237B600EE07B68DAB22A4B1A702C4B62
:1028A00001221A70012007F073F900F053F87B68D9
:1028B000013B7B607B68002BEDD100237B602DE02A
:1028C000234B1B78002B26D17B6803F00103002BE0
:1028D0000CD17B68DA0F13445B109BB203F5B8632D
:1028E0009AB2BB1C104619460BF070FF012007F08E
:1028F0004FF97B881B0A9BB2DAB2124B1A707B88A5
:102900001B029BB27B80124B01221A7000F022F84E
:102910007B6801337B60012007F03AF97B68B3F5EF
:10292000C87FCDDB064B30221A70012007F030F94A
:10293000034B1A78024B1A700837BD4680BD00BFA2
:1029400018000020941A0020E01A0020D21A00205B
:102950004018002098B500AF604B1B78302B4FD14A
:102960005F4840F2255108F015F90346002B20D0AE
:102970005B4808F0EBF80346DBB203F07F03DAB202
:10298000584B1A70584B01221A70564B1B782F2B3C
:1029900007D9544B1B78332B03D8524B1A784F4B23
:1029A0001A704F4B4E4A128892B222F0200292B215
:1029B0001A804E4B1B784E4AD25C4E4B1B785340CC
:1029C000DAB24C4B1A70464A484B1B78591CC8B2B5
:1029D000464908704649CB5C9380444B1B78402B9A
:1029E00005D1424B00221A70424B00221A703C4B18
:1029F0003B4A128892B222F0400292B21A806BE0F7
:102A0000374840F2255108F0C5F80346002B37D06F
:102A1000394B1B885A1C91B2374A11801C463048EA
:102A200008F094F80346DBB203F07F03DAB2334BCD
:102A30001A55314B1B880A2B02D92F4B00221A80C2
:102A4000274808F083F80346DBB203F07F03DAB2CD
:102A5000244B1A70244B01221A70214B204A1288F1
:102A600092B222F0200292B21A801C4B1B78332BB8
:102A700006D11C4B1B78302B02D1184B30221A7018
:102A80001F4B1B78012B0BD1144B1B78332B07D01A
:102A9000134B1C4A12789A80194B00221A7013E0CB
:102AA0000F4A124B1B78591CC8B2104908701049C4
:102AB000CB5C93800D4B1B78402B05D10B4B002238
:102AC0001A700C4B00221A70054B054A128892B2FC
:102AD00022F0400292B21A8098BD00BF1800002078
:102AE00000380140D21A0020E01A002058000020CF
:102AF000C01B00205C0000205A000020041B0020A6
:102B000040180020941A002080B400AF024B1B68CC
:102B1000BD465DF8047B70470000024080B400AF02
:102B2000024B1B68BD465DF8047B70470000024005
:102B300080B586B000AF0120012106F0B1FD05206F
:102B4000012106F0D7FD25233B7500237B7500236B
:102B5000BB750123FB754FF400733B820323BB74E9
:102B60001823FB7407F1100323481946FFF782F975
:102B70004FF480633B820423FB7407F110031E486B
:102B80001946FFF777F91D4807F07EFE4FF48040A5
:102B9000012106F0AFFD4FF416533B600023BB80CC
:102BA0000023FB8000233B810023BB810C237B811E
:102BB0003B461248194607F0D3FE10484FF45871AF
:102BC00007F0D6FF0D4B0D4A928992B242F02002D7
:102BD00092B29A81094B094A928992B242F040021C
:102BE00092B29A810548012107F090FF2520FFF756
:102BF00033FB1837BD4680BD000801400038014056
:102C000080B500AF1A480121FFF73EFA194B194A67
:102C1000526822F040625A60164B164A526842F0DF
:102C200080725A60134B134A526822F440025A6071
:102C3000104B104A526842F480125A600D4B0D4AF4
:102C4000526822F440225A600A4B0A4A526842F4FF
:102C500080325A60074B074A526822F440425A6059
:102C6000044B044A526842F480525A6080BD00BF4F
:102C7000000430000008014080B584B000AF04209B
:102C8000012106F037FDE023BB812823FB7307F108
:102C90000C0303481946FFF7EDF81037BD4680BD19
:102CA0000008014080B584B000AF0820012106F083
:102CB00021FD0323BB812823FB7307F10C031F486D
:102CC0001946FFF7D7F801200021FFF76DFA01231D
:102CD0007B6000233B7210237B720123BB723B1D80
:102CE000184606F0AFFD01200121FFF75DFA02232F
:102CF0007B6000233B7210237B720123BB723B1D60
:102D0000184606F09FFD06233B700F237B700F23B0
:102D1000BB700123FB703B4618460BF07BF9072381
:102D20003B700F237B700F23BB700123FB703B466E
:102D300018460BF06FF91037BD4680BD000C0140FE
:102D400080B588B000AF1120012106F0D3FC02202D
:102D5000012106F0F9FC07F11C031846FFF762F9A0
:102D60004FF47073BB830323BB771823FB7707F102
:102D70001C0320481946FFF77DF81F480121FFF783
:102D800083F907F110031846FDF7E4FC4FF40073D4
:102D9000FB8240F2E733BB82EF233B8207F1100353
:102DA00016481946FDF7BEF93B461846FDF7F0FCFC
:102DB00001237B8060233B800023FB803B460F4840
:102DC0001946FDF73DFA3B460C481946FDF7CCFA8B
:102DD0003B460A481946FDF75BFB3B460748194648
:102DE000FDF7E6FB05480121FDF7FCFC2037BD4659
:102DF00080BD00BF00100140000C1A00000400401C
:102E000080B483B000AF0023FB710023FB713DE071
:102E1000FB79FA7921498A5C5200D1B21F4AD15418
:102E2000FB79FA791D49895C1D4A9068FA7920FA84
:102E300002F2D2B202F00102D2B20A44D1B2174A6F
:102E4000D154FB79154AD35C082B0DD9FB790122AB
:102E500002FA03F3DAB2134B1B78DBB21343DBB293
:102E6000DAB2104B1A700EE0FB79012202FA03F37A
:102E7000DBB2DB43DAB20B4B1B78DBB21340DBB2C5
:102E8000DAB2084B1A70FB790133FB71FB79012B25
:102E9000BED90C37BD465DF8047B7047181B002077
:102EA000000C0140E11A002080B582B000AF06F0AE
:102EB00011F80023FB8000237B7106F00BF83A48E1
:102EC00005F052FE1CE004F079FC03467B71374BA1
:102ED0001B88FB80052006F05BFE0120002105F029
:102EE00079FEFA88324BA3FB02135B099BB2DBB27B
:102EF000184604F03BFDFB88DBB2184604F036FDB3
:102F00007B79022BDFD10A2006F042FEFB8840F2DB
:102F1000226019460BF0B6FC05F0DCFF254805F0F1
:102F200023FE4FF4FA6006F033FE234805F01CFE42
:102F30001CE004F043FC03467B711C4B1B88FB80A8
:102F4000052006F025FE0120002105F043FEFA8849
:102F5000174BA3FB02135B099BB2DBB2184604F0CC
:102F600005FDFB88DBB2184604F000FD7B79022BDF
:102F7000DFD100237B710A2006F00AFEFB8840F2B5
:102F8000326019460BF07EFC05F0A4FF094805F0FD
:102F9000EBFD4FF4FA6006F0FBFD05F09BFF05F03A
:102FA0004BF80837BD4680BD5CF00008241B0020AC
:102FB0001F85EB5170F0000874F0000880B500AF79
:102FC0000A4B1B881A460A4B1B8802339A4202DDC1
:102FD000012000F00FF8054B1A88054B1B889A4218
:102FE00002D2012000F08CF880BD00BF241B00201D
:102FF000B81B002080B584B000AF0346FB710120F0
:1030000006F0C6FD0023FB720023BB720023FB7396
:10301000384B9B68DAB2FB790533012101FA03F3DF
:10302000DBB21340FB72FA7AFB79053342FA03F301
:10303000FB72FB79012202FA03F3DAB22E4B1B7802
:10304000DBB21340DBB2BB72BA7AFB7942FA03F30C
:10305000BB72FB7A002B3AD1BB7A002B37D1FB79BC
:10306000184600F0BFF84FF41673BB8115E0214BF2
:103070009A68FB79053322FA03F303F00103002B6E
:1030800003D0FB7B0133FB7301E00023FB730120C2
:1030900006F07EFDBB89013BBB81FB7B022B02D886
:1030A000BB89002BE3D1BB89002B0CD1FB7901221A
:1030B00002FA03F3DAB2104B1B78DBB21343DBB234
:1030C000DAB20D4B1A70FB79184600F0A1F8FB79C3
:1030D000012202FA03F3DAB2084B1B78DBB2134386
:1030E000DBB2DAB2054B1A70052006F051FD10373D
:1030F000BD4680BD00080140141B0020FC1A0020C2
:1031000080B584B000AF0346FB71FB79184600F030
:1031100069F80023FB730023FB720023BB724FF49A
:103120001673BB812C4B9B68DAB2FB790533012106
:1031300001FA03F3DBB21340FB72FA7AFB79053331
:1031400042FA03F3FB72FB79012202FA03F3DAB2CB
:10315000224B1B78DBB21340DBB2BB72BA7AFB792D
:1031600042FA03F3BB72FB7A012B1FD1BB7A002B0F
:103170001CD115E0184B9A68FB79053322FA03F34A
:1031800003F00103002B03D1FB7B0133FB7301E050
:103190000023FB73012006F0FBFCBB89013BBB81D4
:1031A000FB7B022B02D8BB89002BE3D1FB791846AD
:1031B00000F02EF8FB79012202FA03F3DBB2DB43C5
:1031C000DAB2074B1B78DBB21340DBB2DAB2044B46
:1031D0001A701037BD4680BD00080140141B002046
:1031E000FC1A002080B483B000AF0346FB71074B8C
:1031F000064A5169FA790B32012000FA02F20A43B9
:103200005A610C37BD465DF8047B704700080140E9
:1032100080B483B000AF0346FB71074B064A1169C7
:10322000FA790B32012000FA02F20A431A610C37D4
:10323000BD465DF8047B70470008014080B500AFD3
:10324000012006F09BFB034B1B685A1C014B1A60C4
:1032500080BD00BF4C18002080B500AF022006F0F2
:103260008DFB034B5B685A1C014B5A6080BD00BF4D
:103270004C18002080B500AF042006F07FFB80BD15
:1032800080B500AF4FF4806006F078FB4FF400602B
:1032900006F074FB4FF4805006F070FB80BD00BF59
:1032A00080B500AF202006F069FB402006F066FBE9
:1032B000802006F063FB80BD80B582B000AF0023A4
:1032C000FB710023BB7100237B7105F003FE5BE003
:1032D000142006F05DFC04F071FA0346FB71002037
:1032E000002105F077FC2C4805F03EFCBB79184620
:1032F00004F03CFBFB79042B03D1BB791846FFF7A4
:1033000079FEFB79032B03D1BB791846FFF7F8FE52
:10331000FB79012B08D1BB79012B03D8BB79013391
:10332000BB7101E00023BB71012006F031FC0120DC
:10333000002105F04FFC194805F016FC184B1B78CE
:10334000184604F013FB012006F022FC154805F096
:103350000BFC00237B7114E0134B9A68B9797B79DD
:103360000B4422FA03F303F00103002B03D00F48B0
:1033700005F0FAFB02E00E4805F0F6FB7B7901331D
:103380007B717B79022BE7D9FB79022BA0D105F069
:10339000A1FD0837BD4680BD80F000088CF0000814
:1033A000FC1A002090F000080008014098F0000886
:1033B0009CF0000880B582B000AF0023FB710023B1
:1033C000BB7100237B7100233B7100237B8005F0E0
:1033D00081FD7EE0142006F0DBFB04F0EFF90346EC
:1033E000FB710020002105F0F5FB3F4B1B687B8043
:1033F0007B881846FFF712F93C4B1B887B807B8843
:10340000DBB2184604F0B2FA394805F0ADFB394B8F
:103410009B8C7B807B881846FFF700F9FB79042B97
:1034200002D10120FFF7E6FDFB79012B05D1012038
:10343000FFF7EEFE0120FFF763FE012006F0A8FB78
:103440000120002105F0C6FB2B4B1B78184604F029
:103450008DFA2A4805F088FB00233B80284B9B68A7
:103460005B093B803B881846FFF7D8F8254805F0F4
:103470007BFB012006F08CFB214B9B685B0903F072
:103480000103002B03D0204805F06EFB02E01F482B
:1034900005F06AFB1A4B9B689B0903F00103002BA4
:1034A00003D0194805F060FB02E0184805F05CFB0A
:1034B000134B9B68DB0903F00103002B03D0124878
:1034C00005F052FB02E0114805F04EFB104805F0F4
:1034D0004BFBFB79022B7FF47DAF05F0FBFCFFF784
:1034E000EBFE0837BD4680BD4C180020241B002091
:1034F000A0F0000800480140FC1A0020A4F00008D9
:1035000000080140A8F0000898F000089CF00008AE
:10351000ACF0000880B586B000AF78600023BB82B5
:1035200000237B817B689BB21B019BB203F2146377
:10353000BB82BA8A07F10A03104619460BF046F916
:1035400005F0C8FC954805F00FFB7B89184603F091
:1035500089F803467B817B89BA8A104619460BF0AD
:1035600091F97B689BB21B019BB203F21563BB828E
:10357000BA8A07F10A03104619460BF027F905F03D
:10358000A9FC874805F0F0FA7B89184603F06AF831
:1035900003467B817B89BA8A104619460BF072F983
:1035A0007B689BB21B019BB203F21663BB82BA8A93
:1035B00007F10A03104619460BF008F905F08AFCDA
:1035C000784805F0D1FA7B89184603F04BF803469A
:1035D0007B817B89BA8A104619460BF053F907F1B3
:1035E0000A0340F6990019460BF0F0F805F072FC5A
:1035F0006D4805F0B9FA7B89DBB2184602F0DEFFB0
:1036000003467B817B8940F6990019460BF03AF915
:103610007B89DAB2654B1A707B8903F2FF53BB8258
:10362000BB8A184646210BF02DF97B89604A46215A
:10363000D1547B689BB21B019BB203F21E63BB8219
:10364000BA8A07F10A03104619460BF0BFF805F0D5
:1036500041FC584805F088FA7B89DBB2184602F035
:10366000ADFF03467B817B89BA8A104619460BF071
:1036700009F97B8903F2FF53BB82BB8A18464721B5
:103680000BF000F97B894A4A4721D1547B689BB2F1
:103690001B019BB203F21763BB82BA8A07F10A03CC
:1036A000104619460BF092F805F014FC424805F05C
:1036B0005BFA7B89184602F0D5FF03467B817B8944
:1036C000BA8A104619460BF0DDF87B689BB21B01E5
:1036D0009BB203F5C363BB82BB8A184604F06EFB42
:1036E000386105F0F7FB354805F03EFA4FF4FA7003
:1036F00006F04EFA386903F06DF83861BB8A184657
:10370000396902F031FE7B689BB21B019BB203F268
:103710002263BB82BA8A07F10A03104619460BF0EE
:1037200055F805F0D7FB264805F01EFA4FF4FA705D
:1037300006F02EFA7B89184602F094FF03467B813F
:103740007B89BA8A104619460BF09CF87B689BB2BD
:103750001B019BB203F21F63BB82BA8A07F10A0303
:10376000104619460BF032F805F0B4FB154805F089
:10377000FBF97B89DBB2184602F020FF03467B8110
:103780007B89BA8A104619460BF07CF805F0A2FB3B
:103790000D4805F0E9F90023FB751EE0B0F00008C4
:1037A000C0F00008D4F00008E8F000089C1A0020DF
:1037B0001C000020FCF000080CF100081CF10008BF
:1037C00030F1000840F100084CF1000803F0F6FF6A
:1037D0000346FB750A2006F0DBF9FB7D002BF5D0D4
:1037E000FB7D022B20D17B689BB21B019BB203F2B5
:1037F0001A63BB8203F004FEF860BB8A1846F968BE
:1038000002F0B2FD7B689BB21B019BB203F21C630A
:10381000BB8203F0F5FD02463B69D31A0533BA8A31
:103820001046194602F0A0FDFB7D032B1ED105F0CA
:1038300051FB244805F098F94FF47A7006F0A8F986
:103840007B689BB21B019BB203F21A63BB82BB8AEB
:10385000184604F0B3FAF860F868012103F086F91D
:10386000F860BB8A1846F96802F07EFD05F032FB6D
:10387000154805F079F94FF47A7006F089F97B68FC
:1038800062339BB21B01BB82BB8A184604F096FAD6
:10389000F860F868012103F069F9F860BB8A1846FE
:1038A000F96802F061FD05F015FBC82006F070F91B
:1038B00006F0E4F904F0C0FB06F0F2F91837BD4653
:1038C00080BD00BF5CF1000868F1000880B582B0DF
:1038D00000AF0023FB7105F0FDFA094805F044F93B
:1038E000C82006F055F9FB79184602F067FE03463A
:1038F000FB71FB79184600F021F80837BD4680BD02
:1039000074F1000880B582B000AF0023FB7105F0B0
:10391000E1FA094805F028F9C82006F039F9FB79E1
:10392000184602F04BFE0346FB71FB791846FFF781
:10393000F1FD0837BD4680BD74F1000880B584B044
:1039400000AF78600023FB810023BB817B689BB2C2
:103950001A46D200D31A9BB203F24563FB81FA895F
:1039600007F10C03104619460AF030FF05F0B2FAD1
:10397000604805F0F9F8BB89184602F073FE03466B
:10398000BB81BB89FA89104619460AF07BFF7B6828
:103990009BB21A46D200D31A9BB203F24663FB8154
:1039A000FA8907F10C03104619460AF00FFF05F0DB
:1039B00091FA514805F0D8F8BB89184602F052FE3A
:1039C0000346BB81BB89FA89104619460AF05AFFA3
:1039D0007B689BB21A46D200D31A9BB203F24763AC
:1039E000FB81FA8907F10C03104619460AF0EEFE36
:1039F00005F070FA414805F0B7F8BB89184602F0A7
:103A000031FE0346BB81BB89FA89104619460AF08C
:103A100039FF7B689BB21A46D200D31A9BB203F5DA
:103A2000C963FB81FA8907F10C03104619460AF0B5
:103A3000CDFE05F04FFA324805F096F8BB891846DE
:103A400002F010FE0346BB81BB89FA891046194675
:103A50000AF018FF7B689BB21A46D200D31A9BB2B9
:103A600003F24963FB81FA8907F10C0310461946FA
:103A70000AF0ACFE05F02EFA224805F075F8BB8975
:103A8000184602F0EFFD0346BB81BB89FA89104658
:103A900019460AF0F7FE7B689BB21A46D200D31A89
:103AA0009BB203F24A63FB81FA8907F10C031046CB
:103AB00019460AF08BFE05F00DFA134805F054F88C
:103AC000BB89184602F0CEFD0346BB810A2006F0F2
:103AD0005FF8BB89FA89104619460AF0D3FE05F053
:103AE000F9F90A2006F054F804F0A6FA1037BD469A
:103AF00080BD00BF80F1000894F10008A4F1000827
:103B0000B4F10008C0F10008D0F1000890B585B00C
:103B100000AF0023BB730023FB7305F0DBF92F48D4
:103B200005F022F8C82006F033F8BB7B184602F0F7
:103B300045FD0346BB7305F0CDF9294805F014F89F
:103B4000BB7B184603F012FF264805F00DF806E08F
:103B50001E2006F01DF803F031FE0346FB73FB7BCD
:103B6000022B02D0FB7B032BF2D1C82006F010F809
:103B7000FB7B022B29D1BB7B1B0103F5C363BB601D
:103B8000BB689BB2184604F019F97860BB7B1B0137
:103B900003F21A63BB6003F033FC3860BB689BB26E
:103BA0001846396802F0E0FBBB7B1B0103F21C6383
:103BB000BB60BB689CB203F023FC02467B68D31A4F
:103BC00005332046194602F0CFFB05F083F9C820E3
:103BD00005F0DEFF1437BD4690BD00BF74F100084C
:103BE000DCF10008E8F1000880B58EB000AF786025
:103BF00001227B6802FA03F3DAB2984B1B78DBB23E
:103C00001343DBB2DAB2954B1A700120FFF778FA52
:103C100000233B82002387F8363000233B630023D8
:103C2000BB620023FB600023FB62012005F0B0FFB4
:103C30007B689BB21B019BB203F21463FB84FA8C7A
:103C400007F11403104619460AF0C0FD7B689BB2C9
:103C50001B019BB203F21663FB84FA8C07F10C0381
:103C6000104619460AF0B2FD03F0CAFB3863FB6840
:103C70003A6B1344BB62052005F08AFF0020FFF772
:103C8000B9F918E003F0BCFB3863BB8A012202FAE1
:103C900003F3DAB2724B1B78DBB21340DBB287F866
:103CA000363097F83620BB8A42FA03F387F836306D
:103CB000192005F06DFF97F83630002B03D13A6BD1
:103CC000BB6A9A42DED30020FFF71AFA4FF47A70EB
:103CD00005F05EFF002387F837307AE000237B8110
:103CE00000233B620023FB610023BB617B689BB226
:103CF0001B019BB203F5C363FB84FB8C184604F0E5
:103D00005DF8F8617B689BB21B019BB203F21A63FA
:103D1000FB84FB8C184604F051F8B86197F83730F3
:103D20009BB21A46D200D31A9BB203F24963FB84BA
:103D3000FA8C07F10A03104619460AF047FD03F012
:103D40005FFB0246BB69D21AFB69B2FBF3F33B622D
:103D50007B893A6AB2FBF3F3FB7500233B8197F84A
:103D600037309BB21A46D200D31A9BB203F5C9630F
:103D7000FB84FA8C07F11203104619460AF026FD5F
:103D800097F837309BB21A46D200D31A9BB203F28F
:103D90004A63FB84FA8C07F10803104619460AF0BF
:103DA00015FD7B8A1A467B689A420AD13B89012B12
:103DB00007D1FB7D002B04D197F83730184600F06F
:103DC000CFF80A2005F0E4FE97F83730013387F882
:103DD000373097F83730082B80D97B689BB21B01AE
:103DE0009BB203F21763FB84FA8C07F10C031046B5
:103DF00019460AF0EBFC7B689BB21B019BB203F2F5
:103E00001E63FB84FA8C07F11003104619460AF072
:103E1000DDFC0A2005F0BCFE03F0F2FA386303F083
:103E2000EFFA0246FB681344BB620A2005F0B0FEBD
:103E30007B689BB21B019BB203F21563FB84FA8C77
:103E400007F11403104619460AF0C0FC002387F856
:103E50003730012387F8363047E000BF6118002073
:103E6000E11A00200A2005F093FEBB8A012202FA23
:103E700003F3DAB2374B1B78DBB21340DBB287F8BF
:103E8000363097F83620BB8A42FA03F387F836308B
:103E9000314B1B68DBB203F0010387F8373003F0C6
:103EA000AFFA0246FB6A9A420DD997F83730012BD8
:103EB00009D197F83630012B05D13B6B01333B63B9
:103EC00003F09EFAF862052005F062FE3B8ADAB242
:103ED00097F8371097F836300B40DBB203F0010348
:103EE000DBB21046194602F009FA3A6BBB6A9A42F5
:103EF000B8D33B8ADBB21846002102F0FFF90A2052
:103F000005F046FE0120FFF775F87B689BB21B01A8
:103F10009BB203F21C63FB8403F072FA0346FA8C33
:103F20001046194602F020FA01227B6802FA03F3D8
:103F3000DBB2DB43DAB2094B1B78DBB21340DBB2F6
:103F4000DAB2064B1A70C82005F022FE3837BD469B
:103F500080BD00BFE11A00205C180020611800201D
:103F600080B586B000AF786000237B617B689BB230
:103F70001A46D200D31A9BB203F246637B827A8A36
:103F800007F11003104619460AF020FC7B689BB22B
:103F90001A46D200D31A9BB203F245637B827A8A17
:103FA00007F10E03104619460AF010FC7B689BB21D
:103FB0001A46D200D31A9BB203F247637B827A8AF5
:103FC00007F10C03104619460AF000FC03F018FA3A
:103FD00002463B8A13447B61FB89DBB21846012110
:103FE00000F040F802E00A2005F0D2FD03F008FAE4
:103FF00002467B699A42F6D3FB89DBB21846002160
:1040000000F030F8BB89184600F004F81837BD46B8
:1040100080BD00BF80B584B000AF0346FB800023A5
:10402000FB6003F0EDF90246FB881344FB600C4B88
:104030001B781846012102F061F902E00A2005F020
:10404000A7FD03F0DDF90246FB689A42F6D3044B64
:104050001B781846002102F051F91037BD4680BD8B
:104060009C1A002080B483B000AF02460B46FA7160
:10407000BB71BB79012B0DD1FB79012202FA03F34D
:10408000DAB22D4B1B78DBB21343DBB2DAB22A4B28
:104090001A700EE0FB79012202FA03F3DBB2DB4374
:1040A000DAB2254B1B78DBB21340DBB2DAB2224B1B
:1040B0001A70BB79C3F10103BB71FB79002B0AD1E4
:1040C0001E4ABB799BB219464901C91A89000B44A3
:1040D000DB009BB29386FB79012B0AD1174ABB798F
:1040E0009BB219464901C91A89000B44DB009BB2F7
:1040F0001387FB79022B0AD1104ABB799BB2194670
:104100004901C91A89000B44DB009BB29387FB79F4
:10411000032B0BD1094ABB799BB219464901C91A35
:1041200089000B44DB009BB2A2F840300C37BD463F
:104130005DF8047B704700BF601800200004004059
:1041400080B58AB000AF7860002387F82630012060
:10415000FEF750FF0020FEF7D3FF002387F827303B
:104160007EE00A2005F014FD97F827309BB21B0172
:104170009BB203F21C63BB84BB8C184603F01EFE8B
:10418000386203F03DF9F86197F827309BB21B01C4
:104190009BB203F5C363BB84BB8C184603F00EFED1
:1041A000B861FA693B6AD31A7B6197F827309BB2F2
:1041B0001B019BB203F21A63BB84BB8C184603F04D
:1041C000FDFD386197F8273062339BB21B01BB8439
:1041D000BB8C184603F0F2FDF86097F827309BB2CD
:1041E0001B019BB203F21F63BB84BA8C07F10B0364
:1041F000104619460AF0EAFA0A2005F0C9FC97F8B9
:104200002730012202FA03F3DAB2184B1B78DBB233
:104210001340DBB287F8263097F8262097F827302E
:1042200042FA03F387F826307A69BB699A420FD9BC
:10423000FA693B699A420BD9FA69FB689A4207D23C
:10424000FB7A012B04D197F827301846FFF7CCFCF6
:104250000A2005F09DFC97F82730013387F82730B6
:1042600097F82730022B7FF67CAF76E761180020A5
:1042700080B582B000AF4FF48030012105F03AFAEA
:104280004FF40043BB804823FB710323BB713B1DEC
:104290001F481946FDF7EEFD1E480121FDF7F4FE0B
:1042A00018233B7000237B700123BB700123FB703C
:1042B0003B46184609F0AEFE174B04221A80164BF7
:1042C00000225A80144B01229A80134B0022DA807C
:1042D000114B00221A8111480F49FCF7D9F90F48F8
:1042E0006021FCF7C3FA0D480421FCF7DBFA0B4808
:1042F0008021FCF7F3FA09480121FCF773FA07481B
:1043000004210122FCF78EFA0837BD4680BD00BFAC
:10431000000C014001000080281B002000400140EB
:1043200080B400AF074B074A526822F040425A60FF
:10433000044B044A526842F080525A60BD465DF810
:10434000047B7047000C014080B500AF1F4804217A
:10435000FCF736FB1D48FCF725FB03461A461C4BB1
:104360001A801B4B1B889BB2002B18D01748FCF7F8
:104370000BFB0346642202FB03F2154B1B889BB226
:1043800092FBF3F39AB2134B1A80134B1A68104B3B
:104390001B889BB2B2FBF3F2104B1A6005E00D4B89
:1043A00000221A800D4B00221A600D4B1B781A4612
:1043B000084B1B8899B20B4B23F81210084B1B7843
:1043C0000133DAB2064B1A7080BD00BF0004004012
:1043D0005E0000206000002000000020640000203B
:1043E00068000020341B002080B500AF194804216C
:1043F000FCF7E6FA174B1B8F9AB2174B1A80164B35
:104400001B889BB2002B0ED0124B9B8E9BB264225A
:1044100002FB03F2104B1B889BB292FBF3F39AB2A0
:104420000E4B1A8005E00D4B00221A800C4B002227
:104430001A600C4B1B781A46084B1B8899B20A4B22
:1044400023F81210074B1B780133DAB2054B1A70B0
:1044500080BD00BF004001405E00002060000020E1
:104460006400002068000020341B002080B500AFED
:1044700002480221FCF7A4FA80BD00BF00440140BD
:1044800080B500AF09480221FCF79AFA084B9B68F7
:1044900003F40073002B04D1044B9B8C9AB2054BA0
:1044A0001A80024B00229A8480BD00BF0048014060
:1044B000000C0140241B002080B582B000AF192001
:1044C00005F066FB0023FB7107E0FA79174B00212A
:1044D00023F81210FB790133FB71FB79312BF4D9EE
:1044E000134B00221A70134B00221A70FFF718FFAB
:1044F000114B4FF400425A61052005F049FB0E4B69
:104500004FF400421A61FFF7B3FEC82005F040FBEC
:10451000074B01221A70074B00221A70052005F084
:1045200037FB00F00BF80837BD4680BD341B002078
:104530006900002068000020000C014080B59AB09E
:1045400000AF0A2005F024FB9A4B1B78012B40F0AA
:104550002D8104233B66002387F8673011E097F82C
:10456000673097F86710944A32F811205B0007F122
:1045700068010B4423F8642C97F86730013387F8FF
:10458000673097F867302C2BE9D98C4B00221A70D2
:10459000002387F8673042E097F86730884A0021A7
:1045A000D1540A2005F0F4FA082387F866302DE08C
:1045B0003B6E5B0007F16802134433F8643C192B2F
:1045C00009D93B6E5B0007F168010B4433F8643C8A
:1045D000222B00D812E097F8673097F867207849C7
:1045E0008A5CD1B297F86620013A012000FA02F203
:1045F000D2B20A43D2B2D1B2714AD1543B6E013326
:104600003B6697F86630013B87F8663097F866306E
:10461000002BCDD197F86730013387F8673097F8D2
:104620006730042BB8D90A2005F0B2FA644B1B7826
:104630001B029AB2624B5B7813449AB2614B5A8068
:104640005F4B9B781B029AB25D4BDB7813449AB2A6
:104650005C4B1A805A4B5A795A4B1A71594B5A88EB
:10466000594B1B889A4208D9564B5A88574B1B887E
:104670009A4202D2564B00221A70524B5A88524B21
:104680001B889A4202D2524B01221A704D4B5A8813
:104690004E4B1B889A4202D94D4B02221A700A20B7
:1046A00005F076FA474B1B884A4AA2FB031292098F
:1046B0004FF47A7101FB02F29B1A9AB2464BA3FBAC
:1046C00002135B099BB2DBB23033DAB2434B1A7090
:1046D0003C4B1B88404AA2FB03125209642101FB98
:1046E00002F29B1A9AB23E4BA3FB0213DB089BB269
:1046F000DBB23033DAB2394B5A70384B2E229A7013
:10470000304B1A88364BA3FB0213D9080B469B008B
:104710000B445B00D31A9BB2DBB23033DAB22F4BBF
:10472000DA700A2005F034FA264B5B88294AA2FB8E
:10473000031292094FF47A7101FB02F29B1A9AB2AA
:10474000254BA3FB02135B099BB2DBB23033DAB219
:10475000244B1A701B4B5B881F4AA2FB03125209A1
:10476000642101FB02F29B1A9AB21D4BA3FB0213B8
:10477000DB089BB2DBB23033DAB21A4B5A70194BFA
:104780002E229A700F4B5A88154BA3FB0213D9089F
:104790000B469B000B445B00D31A9BB2DBB2303359
:1047A000DAB2104BDA70054B01221A706837BD4639
:1047B00080BD00BF69000020341B00206A0000207B
:1047C000A41B0020F41A0020BE1B0020D01A0020D9
:1047D00071000020D34D62101F85EB51AC1B0020EF
:1047E000CDCCCCCC101B002080B582B000AF002314
:1047F000FB710023BB7152E01E2005F0C9F902F0E5
:10480000DDFF0346FB710020002104F0E3F9BB79D2
:10481000184603F0ABF8264804F0A6F9BA79254B00
:1048200033F81220244BA3FB02135B099BB2DBB2CB
:10483000184603F09BF8BA791E4B33F81230DBB2FE
:10484000184603F093F8FB79042B05D1BB79FF2BB5
:1048500002D0BB790133BB71FB79012B05D1BB7948
:10486000002B02D0BB79013BBB710120002104F079
:10487000B1F9124804F078F91148124904220223D0
:1048800002F09AFE0120072104F0A4F90E4804F07A
:104890006BF90E480B4904220A2302F08DFEFB79C6
:1048A000022BA9D104F016FB0837BD4680BD00BF1E
:1048B000ECF10008341B00201F85EB51F0F10008DB
:1048C000AC1B002084000020F4F10008101B002025
:1048D00080B483B000AF0346FB80FA88094B1B68A5
:1048E000D21A13469B0013445B001A46064B1B6802
:1048F000B2FBF3F3DBB218460C37BD465DF8047B20
:10490000704700BFA0000020AC00002080B483B03E
:1049100000AF0346FB71FB790A4A126802FB03F3FE
:10492000094A82FB03129210DB17D31A9AB2074B83
:104930001B689BB213449BB218460C37BD465DF80A
:10494000047B7047AC00002067666666A00000200C
:1049500080B582B000AF0023BB800023FB7104F060
:10496000B9FA284804F000F90A2005F011F93B1DB6
:1049700040F20460194609F029FFBB881846FFF78A
:10498000A7FF0346FB71FB79184600F075F9034653
:10499000FB710A2005F0FCF8FB791846FFF7B6FF1B
:1049A000034640F20460194609F06CFF04F092FAE5
:1049B000154804F0D9F80A2005F0EAF83B1D40F24A
:1049C0000560194609F002FFBB881846FFF780FF13
:1049D0000346FB71FB79184600F04EF90346FB7164
:1049E0000A2005F0D5F8FB791846FFF78FFF03463C
:1049F00040F20560194609F045FF04F06BFA0837EC
:104A0000BD4680BDF8F1000874F0000880B584B0A0
:104A100000AF0346FB710023FB7367E002F0CEFE9C
:104A20000346FB730120032104F0D4F8FA79334BD9
:104A300083FB02139911D317CB1A4FF47A7101FB40
:104A400003F3D31A2E4A82FB03125211DB17D31A37
:104A5000DBB23B72FB792A4AA2FB031252096421A2
:104A600001FB02F29B1ADAB2264BA3FB0213DB080E
:104A7000DBB27B72FA79234BA3FB0213D9080B46F6
:104A80009B000B445B00D31ADBB2BB721E4804F0E0
:104A90006BF807F1080318461C490322062302F0AD
:104AA0008BFD01200C2104F095F8194804F05CF806
:104AB0000A2005F06DF8FB7B042B08D1FB79622BF3
:104AC00003D8FB790133FB7101E00023FB71FB7B11
:104AD000012B08D1FB79002B02D10023FB7102E0EE
:104AE000FB79013BFB710A2005F052F8FB7B022B9E
:104AF00094D1FB7918461037BD4680BDD34D621066
:104B00001F85EB51CDCCCCCC08F2000884000020EE
:104B10000CF2000880B582B000AF0023BB800023F8
:104B2000FB7104F0D7F9204804F01EF80A2005F0C4
:104B30002FF83B1D40F20760194609F047FEBB887D
:104B4000DBB21846FFF762FF0346FB710A2005F04F
:104B50001FF8FB799BB240F20760194609F092FEFC
:104B600004F0B8F9114803F0FFFF0A2005F010F82F
:104B70003B1D4FF4C160194609F028FEBB88DBB22B
:104B80001846FFF743FF0346FB710A2005F000F8C3
:104B9000FB799BB24FF4C160194609F073FE04F033
:104BA00099F90837BD4680BD10F2000820F20008D0
:104BB00080B582B000AF03463960FB713B68DA1CF8
:104BC000F9792C4BA3FB0103DB08DBB21946490141
:104BD000C91A8900CB1A5B00D9B2FB790B44DBB24E
:104BE0003033DBB21370052004F0D2FFFA79214B89
:104BF000A3FB0213DB08FB713B6802332E221A7001
:104C00003B685A1CF9791B4BA3FB0103DB08DBB2A1
:104C100019464901C91A8900CB1A5B00D9B2FB7940
:104C20000B44DBB23033DBB21370052004F0B0FF6D
:104C3000FA79104BA3FB0213DB08FB71FA790D4BD9
:104C4000A3FB0203DB08DBB21A465201D21A920020
:104C5000D31A5B00DAB2FB791344DBB23033DAB239
:104C60003B681A703B68043300221A700837BD464F
:104C700080BD00BFCDCCCCCC80B584B000AF0346A6
:104C8000FB710023FB733EE002F098FD0346FB73CB
:104C90000120032103F09EFFFA7907F10803104673
:104CA0001946FFF785FF1C4803F05EFF07F1080374
:104CB00018461A490422062302F07EFC01200C212A
:104CC00003F088FF164803F04FFF0A2004F060FF4E
:104CD000FB7B042B08D1FB79FD2B03D8FB79013337
:104CE000FB7101E00023FB71FB7B012B08D1FB79F9
:104CF000002B02D10023FB7102E0FB79013BFB7129
:104D00000A2004F045FFFB7B022BBDD1FB7918463E
:104D10001037BD4680BD00BF08F2000884000020A7
:104D20000CF2000880B58AB000AF786039600023CB
:104D30003B767968AC4BA3FB0123DA0813469B0052
:104D400013445B00CA1AD3B23033DBB2FB757A6806
:104D5000A54BA3FB0213DB087B607968A24BA3FB86
:104D60000123DA0813469B0013445B00CA1AD3B22E
:104D70003033DBB2BB757A689B4BA3FB0213DB08B5
:104D80007B607968984BA3FB0123DA0813469B00EC
:104D900013445B00CA1AD3B23033DBB27B757A6836
:104DA000914BA3FB0213DB087B6079688E4BA3FB5E
:104DB0000123DA0813469B0013445B00CA1AD3B2DE
:104DC0003033DBB23B757A68874BA3FB0213DB08F9
:104DD0007B607968844BA3FB0123DA0813469B00B0
:104DE00013445B00CA1AD3B23033DBB2FB747A6867
:104DF0007D4BA3FB0213DB087B6079687A4BA3FB36
:104E00000123DA0813469B0013445B00CA1AD3B28D
:104E10003033DBB2BB74192004F0BAFE7A68724BEF
:104E2000A3FB0213DB087B6079686F4BA3FB0123B4
:104E3000DA0813469B0013445B00CA1AD3B230331E
:104E4000DBB27B747A68684BA3FB0213DB087B60E0
:104E50007968654BA3FB0123DA0813469B001344D2
:104E60005B00CA1AD3B23033DBB23B747A685E4B54
:104E7000A3FB0213DB087B6079685B4BA3FB012378
:104E8000DA0813469B0013445B00CA1AD3B23033CE
:104E9000DBB2FB737A68544BA3FB0213DB087B6025
:104EA0007968514BA3FB0123DA0813469B00134496
:104EB0005B00CA1AD3B23033DBB2BB737A684A4B99
:104EC000A3FB0213DB087B607968474BA3FB01233C
:104ED000DA0813469B0013445B00CA1AD3B230337E
:104EE000DBB27B737A68404BA3FB0213DB087B6069
:104EF00079683D4BA3FB0123DA0813469B0013445A
:104F00005B00CA1AD3B23033DBB23B737A68364BDC
:104F1000A3FB0213DB087B607968334BA3FB0123FF
:104F2000DA0813469B0013445B00CA1AD3B230332D
:104F3000DBB2FB727A682C4BA3FB0213DB087B60AD
:104F40007968294BA3FB0123DA0813469B0013441D
:104F50005B00CA1AD3B23033DBB2BB727A68224B21
:104F6000A3FB0213DB087B6079681F4BA3FB0123C3
:104F7000DA0813469B0013445B00CA1AD3B23033DD
:104F8000DBB27B727A68184BA3FB0213D908164B6D
:104F9000A3FB0123DA0813469B0013445B00CA1AE3
:104FA000D3B23033DBB23B7200233B6207F108021D
:104FB0003B6A13441B78FB613023FB61192004F02A
:104FC000E7FD08E03B6A01333B6207F108023B6AF8
:104FD00013441B78FB61FB69302BF3D0192004F0DC
:104FE000D7FD3B6A7B620FE0CDCCCCCC7A6A3B6AC2
:104FF000D31A3A68134407F108017A6A0A4412780E
:105000001A707B6A01337B627B6A102BEEDD3B6892
:1050100018462837BD4680BD80B485B000AF7860A3
:105020007B68FA2202FB03F3FB6000BFFB685A1E99
:10503000FA60002BFAD11437BD465DF8047B704747
:1050400080B485B000AF0346FB710023FB730023DF
:10505000BB600023FB7307E00B4B9B6CBA681344E7
:10506000BB60FB7B0133FB73FA7BFB799A42F3D382
:10507000FB79BA68B2FBF3F39BB218461437BD460E
:105080005DF8047B704700BF0024014080B584B008
:1050900000AF03F01FFF0020002103F09BFD9548A7
:1050A000012101F0C3FE42F21070FFF7B5FF64204A
:1050B000FFF7B2FF0A20FFF7C3FF0346BB800020C3
:1050C000002103F087FD8C48022101F0AFFE42F27F
:1050D0001070FFF7A1FF6420FFF79EFF0A20FFF783
:1050E000AFFF0346FB800020002103F073FD8348DF
:1050F000062101F09BFE42F21070FFF78DFF642045
:10510000FFF78AFF0A20FFF79BFF03463B8103F06E
:10511000E1FE7B48012101F089FE42F21070FFF7A9
:105120007BFF6420FFF778FF0A20FFF789FF034623
:105130007B817B89DB089AB2BB88DB089BB29A42F1
:1051400003D2704B01221A700EE07B89DB089AB201
:10515000BB88DB089BB29A4203D96A4B00221A70C3
:1051600002E0684B02221A70664B1B78002B54D168
:10517000FB881A46BB88D31ADA0F13445B109BB224
:10518000053BFB81BA88FB895B089BB2D31A9AB2B4
:105190005D4B1A80BA88FB8913449AB25A4B5A80E5
:1051A000FA88FB89D31A9AB2574B9A803B891A46E0
:1051B000FB88D31ADA0F13445B109BB2053BFB81CB
:1051C000FA88FB8913449AB24F4BDA803A89FB89FB
:1051D000D31A9AB24C4B1A817B891A463B89D31A4F
:1051E000DA0F13445B109BB2053BFB813A89FB89C4
:1051F00013449AB2444B5A817A89FB89D31A9AB2E2
:10520000414B9A817A89FB895B089BB213449AB21D
:105210003D4BDA8100F020F959E03A4B1B78012B25
:1052200050D1BB881A46FB88D31ADA0F13445B109F
:105230009BB2053BFB81BA88FB89D31A9AB2324BE9
:105240001A80BA88FB8913449AB22F4B5A80FA8885
:10525000FB89D31A9AB22C4B9A80FB881A463B8959
:10526000D31ADA0F13445B109BB2053BFB81FA881B
:10527000FB8913449AB2244BDA803A89FB89D31A0A
:105280009AB2214B1A813B891A467B89D31ADA0FCD
:1052900013445B109BB2053BFB813A89FB891344A5
:1052A0009AB2194B5A817A89FB89D31A9AB2164B52
:1052B0009A817A89FB8913449AB2134BDA8100F000
:1052C000CBF804E0114803F04FFC00F0E3F80E4B7C
:1052D0001A880D4B1B8A9A4202D90A4B01221A7076
:1052E0000020002103F076FC094803F03DFC103754
:1052F000BD4680BD08F2000870F000084CF80008B8
:105300000CF2000896000020E41A002054F800086F
:1053100064F8000880B582B000AF0023FB7103F091
:10532000D9FD4FF4FA7004F033FC5AE002F046FA6B
:105330000346FB710020002103F04CFC2D4803F0D4
:1053400013FC2D4BDA6B2D4BA3FB02135B09DBB275
:10535000184602F00BFB284BDB6BDBB2184602F061
:1053600005FB274803F000FC234B1A6C234BA3FBDF
:1053700002135B09DBB2184602F0F8FA1E4B1B6CF5
:10538000DBB2184602F0F2FA0120002103F022FC01
:105390001C4803F0E9FB184B5A6C184BA3FB021393
:1053A0005B09DBB2184602F0E1FA134B5B6CDBB22F
:1053B000184602F0DBFA144803F0D6FB0E4B9A6C49
:1053C0000E4BA3FB02135B09DBB2184602F0CEFAC8
:1053D000094B9B6CDBB2184602F0C8FA142004F0AB
:1053E000D7FBFB79022BA1D103F074FD0837BD4632
:1053F00080BD00BFC0EF0008002401401F85EB51B5
:1054000070F80008C8EF000874F8000880B582B092
:1054100000AF0023FB7103F05DFD4FF4FA7004F060
:10542000B7FB0EE002F0CAF90346FB710020002131
:1054300003F0D0FB07480A2101F0F8FC142004F027
:10544000A7FBFB79022BEDD103F044FD0837BD46E5
:1054500080BD00BF041B002080B582B000AF0023D8
:10546000FB710FE0FB799BB203F20A639AB2F97900
:10547000074B33F811301046194609F003FAFB794F
:105480000133FB71FB79072BECD90837BD4680BD92
:10549000E41A002080B582B000AF0023FB710FE05A
:1054A000FB799BB203F20A639AB2FB795900074B6E
:1054B0000B441046194609F089F9FB790133FB7159
:1054C000FB79072BECD90837BD4680BDE41A0020D4
:1054D00080B58AB000AF7860962004F059FB01F0E7
:1054E0008FFF3862022004F053FBA54B1B683A6A19
:1054F0009A4240F2AE8101F083FF0246A04B1A604F
:1055000007F10C03386A194602F012FB022004F07E
:105510003FFB00237B620BE007F10C027B6A134424
:105520001A7898497B6A0B441A707B6A01337B6254
:105530007B6A092BF0DD022004F02AFB914B2C2220
:105540009A72022004F024FB04F098FB00237B6293
:1055500012E07B6A0B338C497A6A0A441178894AD3
:10556000D1547B6A103389497A6A0A441178854A92
:10557000D1547B6A01337B627B6A032BE9DD04F043
:105580008FFB022004F004FB7E4B2C22DA737D4B50
:105590002C221A750023FB8300237B6219E0012271
:1055A0007B6A02FA03F39AB2794B1B689BB21340F1
:1055B000FB83FA8B7B6A42FA03F3FB837B6A153326
:1055C000FA8BD2B23032D1B26E4AD1547B6A0133F7
:1055D0007B627B6A022BE2DD6A4B2C221A766D48D5
:1055E00068490422192301F0E7FF664B2C225A7701
:1055F0006948644904221E2301F0DEFF614B2C221E
:1056000083F8222000237B621AE0644B1B781A4641
:1056100001217B6A01FA03F39BB213409BB2FB8327
:10562000FA8B7B6A42FA03F3FB837B6A2333FA8BA0
:10563000D2B23032D1B2534AD1547B6A01337B6249
:105640007B6A022BE1DD4F4B2C2283F826200023BE
:105650007B621BE0524B9B689AB27B6A0533012147
:1056600001FA03F39BB21340FB83FA8B7B6A053389
:1056700042FA03F3FB837B6A2733FA8BD2B23032D0
:10568000D1B2404AD1547B6A01337B627B6A022BE0
:10569000E0DD3C4B2C2283F82A2000237B621AE0B9
:1056A000404B1B781A4601217B6A01FA03F39BB237
:1056B00013409BB2FB83FA8B7B6A42FA03F3FB83B2
:1056C0007B6A2B33FA8BD2B23032D1B22D4AD1540D
:1056D0007B6A01337B627B6A022BE1DD294B2C2242
:1056E00083F82E2000237B621BE02D4BDB689AB2EF
:1056F0007B6A0B33012101FA03F39BB21340FB8356
:10570000FA8B7B6A0B3342FA03F3FB837B6A2F33FA
:10571000FA8BD2B23032D1B21A4AD1547B6A0133F9
:105720007B627B6A022BE0DD164B2C2283F8322051
:1057300000237B621AE01B4B1B781A4601217B6A0F
:1057400001FA03F39BB213409BB2FB83FA8B7B6A93
:1057500042FA03F3FB837B6A3333FA8BD2B23032E3
:10576000D1B2084AD1547B6A01337B627B6A022B37
:10577000E1DD044B2C2283F8362000237B622EE0EF
:10578000B4000020C01B00209C1B0020B01B002088
:105790001C1B0020AC1B0020101B0020E11A002065
:1057A00000080140FC1A00202F4B1B781A460121EB
:1057B0007B6A01FA03F39BB213409BB2FB83FA8B23
:1057C0007B6A42FA03F3FB837B6A3733FA8BD2B2EC
:1057D0003032D1B2254AD1547B6A01337B627B6A75
:1057E000022BE1DD214B2C2283F83A2000237B623F
:1057F0001AE01F4B1B781A4601217B6A01FA03F35A
:105800009BB213409BB2FB83FA8B7B6A42FA03F391
:10581000FB837B6A3B33FA8BD2B23032D1B2134A6C
:10582000D1547B6A01337B627B6A022BE1DD0F4B33
:105830000D2283F83E200D4B0A2283F83F200D4BAA
:1058400000221A700948402100F016F8022004F0E6
:105850009FF9022004F09CF9FEF72EFEFDF7AEFB47
:1058600009F09AFA3BE600BF60180020C01B002038
:10587000611800205C00002080B588B000AF78601F
:1058800039602E4B1B68002B51D12D4A07F10C03B8
:1058900007CA03C31A800233120C1A7004F0EEF91F
:1058A00007F10C0327481946032207F0C9FC0346F9
:1058B000FB77FB7F002B0DD007F10C032148194625
:1058C0000A2207F0BDFC0346FB77FB7F002B01D0CB
:1058D000FB7F2FE01B4BDB681A48194608F092F853
:1058E0000346FB77FB7F002B01D0FB7F22E03A6869
:1058F00007F118031348796807F008FE0346FB77A1
:10590000FB7F002B01D0FB7F14E00E4807F0A4FFC3
:105910000346FB77FB7F002B01D0FB7F0AE00948A1
:1059200008F05AF80346FB7704F0BAF901E00023C7
:10593000FB77FB7F18462037BD4680BDCC1A002080
:1059400078F80008B800002080B584B000AF0023CC
:10595000FB6045E001F032FF0346FB60052004F0E8
:1059600017F90020002103F035F9554803F0FCF841
:10597000052004F00DF940F20160524908F026FFBD
:10598000504B1B881A463B1D1046194602F0B6F9CB
:105990003B1D18464C490422082301F00DFE01204E
:1059A000052103F017F9494B1A6C3B1D10461946A7
:1059B00002F0A4F93B1D184603F0D6F80A2004F0C3
:1059C000E7F80120002103F005F900F08BF80A2028
:1059D00004F0DEF83E4803F0C7F8642004F0D8F87D
:1059E000FB68022BB6D1394B1B6C7B817B8940F263
:1059F0000160194608F046FF0023FB6000200021EB
:105A000003F0E8F8334803F0AFF84FF4FA6004F01D
:105A1000BFF842E001F0D2FE0346FB6003F05AFA01
:105A2000192004F0B5F80020002103F0D3F82A482B
:105A300003F09AF80020082103F0CCF800F052F8A7
:105A4000264B1B881A463B1D10461946FFF76AF97C
:105A50003B1D184603F088F80120052103F0BAF831
:105A60001F4B1B881A463B1D10461946FFF75AF973
:105A70003B1D184603F078F8192004F089F801203E
:105A8000002103F0A7F8192004F082F8104803F071
:105A90006BF84FF4FA7004F07BF8FB68022BB9D175
:105AA0000A4B1B6C7B810E4B1B884FF4C060194660
:105AB00008F0E8FE02F0C0FA1037BD4680BD00BF16
:105AC00084F800089E00002074000020002401409B
:105AD0009C1B00208CF800089CF80008A400002003
