:020000040800F2
:10000000FC1F0020CD0B00083D0C00083D0C000833
:100010003D0C00083D0C00083D0C000800000000ED
:10002000000000000000000000000000DDD7000814
:100030003D0C000800000000E1D800081DD90008B0
:100040003D0C00083D0C00083D0C00083D0C00086C
:100050003D0C00083D0C0008C1360008E9360008D8
:10006000113700083D0C00083D0C00083D0C00084D
:100070003D0C00083D0C00083D2D0008512D0008E6
:100080003D0C00083D0C00083D0C0008000000007D
:1000900000000000000000000000000041370008E0
:1000A000494C0008114D0008294D00083D0C00087E
:1000B0003D0C0008554B00083D0C00083D0C0008A5
:1000C0003D0C00083D0C00083D0C00083D0C0008EC
:1000D0003D0C0008592A00083D0C00083D0C0008A2
:1000E000213700083D0C00083D0C0008000000000E
:1000F0000000000000000000000000000000000000
:1001000000000000000000000000000000000000EF
:1001100000000000000000003D0C00083D0C00083D
:100120005FF808F180B485B000AF786039604FF0B7
:100130000003FB817B681B88FB817A684FF4305396
:10014000C4F201039A421FD07A684FF45053C4F2AC
:1001500001039A4218D07B68B3F1804F14D07A68BB
:100160004FF48063C4F200039A420DD07A684FF4D2
:100170000063C4F200039A4206D07A684FF44063E9
:10018000C4F200039A4208D1FB8923F07003FB817B
:100190003B685A88FB891343FB817A684FF480538C
:1001A000C4F200039A420FD07A684FF4A053C4F20D
:1001B00000039A4208D0FB8923F44073FB813B681B
:1001C000DA88FB891343FB817B68FA891A803B68D4
:1001D0009A887B689A853B681A887B681A857A6852
:1001E0004FF43053C4F201039A421BD07A684FF4A3
:1001F0005053C4F201039A4214D07A684FF48043FA
:10020000C4F201039A420DD07A684FF48843C4F2D5
:1002100001039A4206D07A684FF49043C4F2010376
:100220009A4204D13B681B7A1A467B681A867B681F
:100230004FF001029A8207F11407BD4680BC704757
:1002400080B485B000AF786039604FF000037B81E7
:100250004FF00003FB814FF00003BB817B681B8CD8
:100260009BB223F001039AB27B681A847B681B8CD3
:10027000FB817B689B88BB817B681B8B7B817B8937
:1002800023F070037B817B8923F003037B813B6830
:100290001A887B8913437B81FB8923F00203FB814E
:1002A0003B681A89FB891343FB813B685A88FB89A9
:1002B0001343FB817A684FF43053C4F201039A422E
:1002C0001BD07A684FF45053C4F201039A4214D001
:1002D0007A684FF48043C4F201039A420DD07A68E1
:1002E0004FF48843C4F201039A4206D07A684FF46F
:1002F0009043C4F201039A4223D1FB8923F00803FF
:10030000FB813B685A89FB891343FB81FB8923F0FE
:100310000403FB813B689A88FB891343FB81BB89FB
:1003200023F48073BB81BB8923F40073BB813B68DA
:100330009A89BB891343BB813B68DA89BB89134324
:10034000BB817B68BA899A807B687A891A833B680B
:10035000DA887B689A867B68FA891A8407F1140721
:10036000BD4680BC704700BF80B485B000AF7860E8
:1003700039604FF000037B814FF00003FB814FF0A9
:100380000003BB817B681B8C9BB223F010039AB2E5
:100390007B681A847B681B8CFB817B689B88BB8194
:1003A0007B681B8B7B817B8923F4E0437B817B898A
:1003B00023F440737B813B681B884FEA03239AB286
:1003C0007B8913437B81FB8923F02003FB813B68FE
:1003D0001B894FEA03139AB2FB891343FB813B68E5
:1003E0005B884FEA03139AB2FB891343FB817A6857
:1003F0004FF43053C4F201039A4206D07A684FF4A6
:100400005053C4F201039A422FD1FB8923F0800399
:10041000FB813B685B894FEA03139AB2FB89134364
:10042000FB81FB8923F04003FB813B689B884FEAFB
:1004300003139AB2FB891343FB81BB8923F48063C6
:10044000BB81BB8923F40063BB813B689B894FEA76
:1004500083039AB2BB891343BB813B68DB894FEAB4
:1004600083039AB2BB891343BB817B68BA899A80A4
:100470007B687A891A833B68DA887B681A877B688D
:10048000FA891A8407F11407BD4680BC704700BF83
:1004900080B485B000AF786039604FF000037B8195
:1004A0004FF00003FB814FF00003BB817B681B8C86
:1004B0009BB223F480739AB27B681A847B681B8C8E
:1004C000FB817B689B88BB817B689B8B7B817B8965
:1004D00023F070037B817B8923F003037B813B68DE
:1004E0001A887B8913437B81FB8923F40073FB818A
:1004F0003B681B894FEA03239AB2FB891343FB81B4
:100500003B685B884FEA03239AB2FB891343FB8164
:100510007A684FF43053C4F201039A4206D07A68E5
:100520004FF45053C4F201039A422FD1FB8923F4B4
:100530000063FB813B685B894FEA03239AB2FB8926
:100540001343FB81FB8923F48063FB813B689B8819
:100550004FEA03239AB2FB891343FB81BB8923F43F
:100560008053BB81BB8923F40053BB813B689B89CB
:100570004FEA03139AB2BB891343BB813B68DB8903
:100580004FEA03139AB2BB891343BB817B68BA89D4
:100590009A807B687A899A833B68DA887B689A8735
:1005A0007B68FA891A8407F11407BD4680BC70473E
:1005B00080B485B000AF786039604FF00003BB8134
:1005C0004FF000037B814FF00003FB817B681B8CA5
:1005D0009BB223F480539AB27B681A847B681B8C8D
:1005E0007B817B689B88FB817B689B8BBB81BB8904
:1005F00023F4E043BB81BB8923F44073BB813B6898
:100600001B884FEA03239AB2BB891343BB817B89C2
:1006100023F400537B813B681B894FEA03339AB272
:100620007B8913437B813B685B884FEA03339AB233
:100630007B8913437B817A684FF43053C4F2010302
:100640009A4206D07A684FF45053C4F201039A429A
:100650000BD1FB8923F48043FB813B689B894FEAE4
:1006600083139AB2FB891343FB817B68FA899A80D2
:100670007B68BA899A833B68DA887B68A3F8402054
:100680007B687A891A8407F11407BD4680BC7047DD
:1006900080B584B000AF786039604FF00003FB8113
:1006A0004FF00103BB813B685B88002B03D14FF007
:1006B0000203FB8102E04FF00003FB813B689B8853
:1006C000012B03D14FF00203BB8102E04FF0010385
:1006D000BB813B681B88002B1CD13B6859883B6859
:1006E0009A883B681B89786800F07CF93B68DB8856
:1006F0007868194600F00EF93B681B89F989BA89B8
:10070000786800F0E1F93B68DB887868194600F00A
:100710001DF91BE03B6859883B689A883B681B8938
:10072000786800F0D1F93B68DB887868194600F0FA
:100730000DF93B681B89F989BA89786800F052F98C
:100740003B68DB887868194600F0E4F807F1100789
:10075000BD4680BD80B483B000AF78607B684FF643
:10076000FF729A807B684FF000021A807B684FF01E
:100770000002DA807B684FF000025A807B684FF0FD
:1007800000021A7207F10C07BD4680BC704700BF1B
:1007900080B483B000AF78607B684FF000021A80AD
:1007A0007B684FF000025A807B684FF000029A800D
:1007B0007B684FF00002DA807B684FF000021A81FC
:1007C0007B684FF000025A817B684FF000029A81EB
:1007D0007B684FF00002DA8107F10C07BD4680BC50
:1007E000704700BF80B483B000AF78600B46FB70E9
:1007F000FB78002B08D07B681B889BB243F0010379
:100800009AB27B681A8007E07B681B889BB223F052
:1008100001039AB27B681A8007F10C07BD4680BCC1
:10082000704700BF80B483B000AF786013460A46BB
:100830007A807B707B78002B08D07B689B899AB28A
:100840007B8813439AB27B689A810AE07B689B8914
:100850009AB27B886FEA03039BB213409AB27B681B
:100860009A8107F10C07BD4680BC704780B485B003
:1008700000AF78600B467B804FF00003FB817B6804
:100880001B89FB81FB8923F07003FB81FA897B883C
:100890001343FB817B68FA891A8107F11407BD466F
:1008A00080BC704780B483B000AF78600B467B801B
:1008B0007B681B899BB223F007039AB27B681A817D
:1008C0007B681B899AB27B8813439AB27B681A8132
:1008D00007F10C07BD4680BC704700BF80B483B0F1
:1008E00000AF78600B467B807B681B899BB223F04E
:1008F00080039AB27B681A817B681B899AB27B88D5
:1009000013439AB27B681A8107F10C07BD4680BC7D
:10091000704700BF80B483B000AF78600B467B8027
:100920007B681B8B9BB223F00C039AB27B681A8303
:100930007B681B8B9AB27B8813439AB27B681A83BD
:1009400007F10C07BD4680BC704700BF80B483B080
:1009500000AF78600B467B807B681B8B9BB223F4D7
:1009600040639AB27B681A837B681B8B9AB27B8840
:100970004FEA03239BB213439AB27B681A8307F1B1
:100980000C07BD4680BC704780B483B000AF786070
:100990007B689B8E9BB2184607F10C07BD4680BC56
:1009A000704700BF80B483B000AF78607B681B8F56
:1009B0009BB2184607F10C07BD4680BC704700BFCC
:1009C00080B483B000AF78600B467B807B886FEA91
:1009D00003039AB27B681A8207F10C07BD4680BCFC
:1009E000704700BF80B487B000AFF86079813A816A
:1009F000FB804FF00003BB824FF00003FB82FB68DB
:100A00001B8C9BB223F001039AB2FB681A84FB682B
:100A10001B8BBB82FB681B8CFB82BB8A23F0F3031E
:100A2000BB82FB884FEA03139AB23B8913439AB205
:100A3000BB8A1343BB82FA684FF43053C4F20103FC
:100A40009A421FD0FA684FF45053C4F201039A42FD
:100A500018D0FB68B3F1804F14D0FA684FF480636C
:100A6000C4F200039A420DD0FA684FF40063C4F256
:100A700000039A4206D0FA684FF44063C4F20003C0
:100A80009A420BD1FB8A23F00203FB827A89FB8A0C
:100A900013439BB243F00103FB820AE0FB8A23F07D
:100AA0000A03FB827A89FB8A13439BB243F001035A
:100AB000FB82FB68BA8A1A83FB68FA8A1A8407F1F8
:100AC0001C07BD4680BC704780B487B000AFF8609B
:100AD00079813A81FB804FF00003BB824FF0000325
:100AE000FB824FF000037B82FB681B8C9BB223F0E0
:100AF00010039AB2FB681A84FB681B8BBB82FB68ED
:100B00001B8CFB827B894FEA03137B82BB8A23F415
:100B100040734FEA03534FEA1353BB82FB884FEAFB
:100B200003339AB2BB8A1343BB823B894FEA032348
:100B30009AB2BB8A1343BB82FA684FF43053C4F2B3
:100B400001039A421FD0FA684FF45053C4F20103D4
:100B50009A4218D0FB68B3F1804F14D0FA684FF472
:100B60008063C4F200039A420DD0FA684FF4006328
:100B7000C4F200039A4206D0FA684FF44063C4F20C
:100B800000039A420BD1FB8A23F02003FB827A8A6E
:100B9000FB8A13439BB243F01003FB820AE0FB8AFB
:100BA00023F0A003FB827A89FB8A13439BB243F0B4
:100BB0001003FB82FB68BA8A1A83FB68FA8A1A84DC
:100BC00007F11C07BD4680BC704700BF80B582B0EE
:100BD00000AF41F6B853C0F601037B6040F200035A
:100BE000C2F200033B600BE07B681A683B681A6046
:100BF0003B6803F104033B607B6803F104037B6003
:100C00003A6840F24403C2F200039A42ECD3094826
:100C100009494FF000028842B8BF40F8042BFFF6A4
:100C2000FAAF00F00FF808F0FFFE07F10807BD4625
:100C300080BD000048000020FC1B002080B400AFF5
:100C4000FEE700BF80B500AF4FF48053C4F202034B
:100C50004FF48052C4F20202126842F001021A609C
:100C60004FF48052C4F202024FF48053C4F20203E4
:100C700059684FF00003CFF6FF030B4053604FF469
:100C80008053C4F202034FF48052C4F2020212688D
:100C900022F0847222F480321A604FF48053C4F23E
:100CA00002034FF48052C4F20202126822F480223E
:100CB0001A604FF48053C4F202034FF48052C4F21E
:100CC0000202526822F4FE025A604FF48053C4F2CA
:100CD00002034FF41F029A604FF48053C4F20203E0
:100CE0004FF00002DA6200F009F84FF46D43CEF2E3
:100CF00000034FF000629A6080BD00BF80B500AF76
:100D000000F002F880BD00BF80B483B000AF4FF0A8
:100D100000037B604FF000033B604FF48053C4F24C
:100D200002034FF48052C4F20202126842F480328D
:100D30001A604FF48053C4F202031B6803F40033BB
:100D40003B607B6803F101037B603B68002B03D1B0
:100D50007B68B3F5A06FECD14FF48053C4F202036B
:100D60001B6803F40033002B03D04FF001033B60FA
:100D700002E04FF000033B603B68012B6DD14FF464
:100D80008053C4F202034FF48052C4F2020252684C
:100D90005A604FF48053C4F202034FF48052C4F2FD
:100DA000020252685A604FF48053C4F202034FF4B7
:100DB0008052C4F2020252685A604FF48053C4F267
:100DC00002034FF48052C4F20202526822F47C12F1
:100DD0005A604FF48053C4F202034FF48052C4F2BD
:100DE0000202526842F498125A604FF48053C4F2DF
:100DF00002034FF48052C4F20202126842F0807281
:100E00001A6000BF4FF48053C4F202031B6803F062
:100E10000073002BF6D04FF48053C4F202034FF45A
:100E20008052C4F20202526822F003025A604FF468
:100E30008053C4F202034FF48052C4F2020252689B
:100E400042F002025A6000BF4FF48053C4F2020322
:100E50005B6803F00C03082BF6D107F10C07BD46C5
:100E600080BC704780B485B000AF0346FB714FF47F
:100E70004053C4F201031B889BB2FB60FB79002B3B
:100E800004D1FB6843F03803FB6005E0FB6823F006
:100E9000380343F00803FB604FF44053C4F20103EE
:100EA000FA6892B21A8007F11407BD4680BC7047F9
:100EB00080B483B000AF0346FB7107F10C07BD4659
:100EC00080BC704780B400AF4FF001031846BD46A8
:100ED00080BC704780B582B000AF0346FB71FB79E0
:100EE0009BB24FF44050C4F2010019460FF0A2F932
:100EF00000BF4FF44050C4F201004FF001010FF069
:100F0000B5F90346002BF4D04FF44050C4F2010071
:100F10000FF09EF90346DBB2184607F10807BD46FD
:100F200080BD00BF80B500AF4FF0FF00FFF7D2FFDC
:100F30000346184680BD00BF80B582B000AF40F2C6
:100F40004C03C2F200034FF032021A60FFF7EAFFCF
:100F5000FFF7E8FF0346FB71FB79FF2B06D040F259
:100F60004C03C2F200031B68002BF1D1FB79184639
:100F700007F10807BD4680BD80B500AF4FF40060A3
:100F8000C4F201004FF4004101F062F8FFF7CAFF1C
:100F900080BD00BF80B590B000AF0346B9607A60F5
:100FA000FB734FF6FF733B8243F20C03C4F2010361
:100FB0007B614FF00003FB624FF000033B634FF097
:100FC00000037B627B683B624FF000037B634FF45E
:100FD0004053BB634FF00003FB634FF01C00C4F2AF
:100FE00002000EF08FFE4FF03000C4F202000EF04F
:100FF00089FEFB7B002B23D0BB68BB614FF0000355
:10100000FB614FF08003BB6207F114034FF01C003B
:10101000C4F2020019460EF085FF07F11003BB6110
:101020004FF01003FB614FF00003BB6207F11403A4
:101030004FF03000C4F2020019460EF073FF22E0B8
:1010400007F11003BB614FF00003FB614FF0000399
:10105000BB6207F114034FF01C00C4F202001946F2
:101060000EF060FFBB68BB614FF01003FB614FF0F7
:101070008003BB6207F114034FF03000C4F202009A
:1010800019460EF04FFF4FF01C00C4F202004FF063
:1010900001010EF087FF4FF03000C4F202004FF064
:1010A00001010EF07FFF4FF44050C4F201004FF0F9
:1010B00003014FF001020FF099F800BF4FF020003C
:1010C0000EF08CFF0346002BF8D04FF01C00C4F24A
:1010D00002004FF000010EF065FF4FF03000C4F247
:1010E00002004FF000010EF05DFF4FF44050C4F2DB
:1010F00001004FF003014FF000020FF077F807F105
:101100004007BD4680BD00BF80B500AF4FF480539F
:10111000C4F202034FF48052C4F20202926942F018
:1011200001029A614FF48053C4F202034FF48052DB
:10113000C4F20202926942F004029A614FF48053B1
:10114000C4F202034FF48052C4F20202926942F0E8
:1011500008029A614FF40070C0F230004FF00101B4
:1011600000F092FF4FF001004FF0010100F08CFF02
:101170004FF40063C4F201034FF40062C4F20102B1
:10118000526842F040525A604FF40063C4F20103C7
:101190004FF40062C4F20102526822F040425A60E9
:1011A0004FF40063C4F201034FF400421A614FF49C
:1011B0004063C4F201034FF44062C4F201021268BA
:1011C00042F440521A604FF44063C4F201034FF4FA
:1011D0004062C4F20102126822F440421A604FF4E5
:1011E0004063C4F201034FF44062C4F2010212688A
:1011F00042F400421A604FF44063C4F201034FF41A
:101200004062C4F20102126822F440321A604FF4C4
:101210004063C4F201034FF44062C4F20102126859
:1012200022F440221A604FF44063C4F201034FF4E9
:101230004062C4F20102126842F400221A604FF4C4
:101240004063C4F201034FF010021A614FF440638F
:10125000C4F201034FF44062C4F20102126842F486
:1012600040121A604FF44063C4F201034FF440622D
:10127000C4F20102126822F440021A604FF4406383
:10128000C4F201034FF44062C4F20102126842F456
:1012900000021A604FF48053C4F202034FF48052EC
:1012A000C4F20202926942F480529A614FF44053B0
:1012B000C4F201034FF000029A804FF44053C4F28D
:1012C00001034FF004021A804FF44053C4F20103AB
:1012D0004FF44052C4F20102128892B242F0380236
:1012E00092B21A804FF44053C4F201034FF44052BB
:1012F000C4F20102128892B242F4807292B21A8051
:101300004FF44053C4F201034FF44052C4F20102BF
:10131000128892B242F4007292B21A804FF4405393
:10132000C4F201034FF44052C4F20102128892B297
:1013300042F0400292B21A804FF001004FF00101DA
:101340000AF0C2F980BD00BF80B582B000AF40F2A4
:101350001403C2F200031B78DBB203F00103002B7D
:101360000BD14FF40060C4F201004FF4004100F0D3
:101370007DFEFFF7E1FDFFF7FFFD4FF44050C4F2A3
:1013800001000EF0CFFE4FF44050C4F201004FF0C8
:1013900000010EF00BFF4FF480504FF000010AF0F7
:1013A000BDF94FF03803BB804FF02803FB7107F104
:1013B00004034FF44060C4F20100194600F05AFDE6
:1013C0004FF00000FFF774FD40F21403C2F2000377
:1013D0001B78DBB243F00103DAB240F21403C2F22D
:1013E00000031A7007F10807BD4680BD80B584B0C0
:1013F00000AF7860396040F24803C2F200034FF05A
:101400000A021A60FFF78EFD0346FB73FB7BFF2B7E
:1014100006D140F24803C2F200031B68002BF1D151
:10142000FB7BFE2B02D04FF000030BE04FF00100DE
:1014300079683A68FFF7AEFDFFF774FDFFF772FDBC
:101440004FF00103184607F11007BD4680BD00BFED
:1014500080B584B000AF78600B46FB70FFF76CFD81
:101460000346FF2B02D04FF0000323E0FB78184621
:10147000FFF730FDFB78FD2B1AD04FF000007968A4
:101480004FF40072FFF786FD4FF0FF00FFF722FDDB
:101490004FF0FF00FFF71EFDFFF744FD0346FB730F
:1014A000FB7B03F01F03052B02D04FF0000301E08C
:1014B0004FF00103184607F11007BD4680BD00BF7D
:1014C00080B584B000AF03463960FB71FB795BB235
:1014D000002B10DAFB7903F07F03FB714FF07700EC
:1014E0004FF00001FFF7ECFF0346BB73BB7B012B02
:1014F00001D9BB7B60E04FF40060C4F201004FF4FF
:10150000004100F0A5FD4FF40060C4F201004FF46B
:10151000004100F0ABFDFFF70FFD0346FF2B02D0AB
:101520004FF0FF0348E0FB791846FFF7D3FC3B6818
:101530004FEA1363DBB21846FFF7CCFC3B684FEA77
:101540001343DBB21846FFF7C5FC3B684FEA132391
:10155000DBB21846FFF7BEFC3B68DBB21846FFF76C
:10156000B9FC4FF00103FB73FB79402B02D14FF024
:101570009503FB73FB79482B02D14FF08703FB7374
:10158000FB7B1846FFF7A6FCFB794C2B01D1FFF73C
:10159000C9FC4FF00A03FB73FFF7C4FC0346BB739F
:1015A000BB7B5BB2002B06DAFB7B03F1FF33FB73E3
:1015B000FB7B002BF0D1BB7B184607F11007BD4623
:1015C00080BD00BF90B585B000AF0346FB71FB79CD
:1015D000002B02D04FF00103FDE040F21403C2F2F1
:1015E00000031B78DBB203F00203002B06D040F2AD
:1015F0001403C2F200031B78DBB2ECE0FFF784FDBA
:101600004FF00000FFF72EFC4FF00A03FB7305E0DC
:10161000FFF788FCFB7B03F1FF33FB73FB7B002BA5
:10162000F6D14FF000037B734FF040004FF0000104
:10163000FFF746FF0346012B40F0A78040F2480326
:10164000C2F200034FF064021A604FF048004FF4FA
:10165000D571FFF735FF0346012B5CD14FF0000336
:10166000FB730DE0FC7BFFF75DFC03461A4607F1B8
:1016700010010B1903F8082CFB7B03F10103FB732A
:10168000FB7B032BEED9BB7A012B7ED1FB7AAA2BF5
:101690007BD100BF40F24803C2F200031B68002B5D
:1016A00008D04FF0E9004FF08041FFF709FF0346F3
:1016B000002BEFD140F24803C2F200031B68002B5D
:1016C00063D04FF07A004FF00001FFF7F9FE0346B8
:1016D000002B5AD14FF00003FB730DE0FC7BFFF7AA
:1016E00021FC03461A4607F110010B1903F8082CD8
:1016F000FB7B03F10103FB73FB7B032BEED93B7AEE
:1017000003F04003002B02D04FF00C0301E04FF038
:1017100004037B7339E04FF0E9004FF00001FFF75D
:10172000CFFE0346012B06D84FF002037B734FF028
:10173000E903BB7305E04FF001037B734FF04103F6
:10174000BB7300BF40F24803C2F200031B68002BCA
:1017500008D0BB7B18464FF00001FFF7B1FE0346EF
:10176000002BEFD140F24803C2F200031B68002BAC
:1017700008D04FF050004FF40071FFF7A1FE034670
:10178000002B02D04FF000037B7340F25003C2F2F3
:1017900000037A7B1A70FFF7EFFB7B7B002B12D0E4
:1017A00040F21403C2F200031B78DBB223F0010302
:1017B000DAB240F21403C2F200031A704FF00100D3
:1017C000FFF750FB01E0FFF7BFFD40F21403C2F248
:1017D00000031B78DBB2184607F11407BD4690BD25
:1017E00080B483B000AF0346FB71FB79002B02D0BD
:1017F0004FF0010305E040F21403C2F200031B782E
:10180000DBB2184607F10C07BD4680BC704700BF2D
:1018100080B584B000AFB9607A600246FA73BB73DA
:10182000FB7B002B02D1BB7B002B02D14FF00403CA
:101830005EE040F21403C2F200031B78DBB203F057
:101840000103002B02D04FF0030351E040F250039C
:10185000C2F200031B7803F00803002B03D17B685E
:101860004FEA43237B60BB7B012B13D14FF0510028
:101870007968FFF725FE0346002B31D1B8684FF495
:101880000071FFF7B3FD0346002B29D04FF0000392
:10189000BB7325E04FF052007968FFF711FE034655
:1018A000002B1DD1B8684FF40071FFF79FFD034670
:1018B00083F00103DBB2002B0BD1BB6803F500738F
:1018C000BB60BB7B03F1FF33BB73BB7B002BE9D158
:1018D00000E000BF4FF04C004FF00001FFF7F0FDBB
:1018E000FFF74AFBBB7B002B0CBF00230123DBB2BD
:1018F000184607F11007BD4680BD00BF80B584B013
:1019000000AFB9607A600246FA73BB73FB7B002BB1
:1019100002D1BB7B002B02D14FF0040383E040F2E5
:101920001403C2F200031B78DBB203F00103002BA7
:1019300002D04FF0030376E040F21403C2F200033A
:101940001B78DBB203F00403002B02D04FF002033C
:1019500069E040F25003C2F200031B7803F0080371
:10196000002B03D17B684FEA43237B60BB7B012BB9
:1019700013D14FF058007968FFF7A2FD0346002B02
:1019800049D1B8684FF0FE01FFF762FD0346002B16
:1019900041D04FF00003BB733DE040F25003C2F270
:1019A00000031B7803F00603002B05D0BB7B4FF030
:1019B000D7001946FFF784FD4FF059007968FFF70B
:1019C0007FFD0346002B26D1B8684FF0FC01FFF7DE
:1019D0003FFD034683F00103DBB2002B0BD1BB6854
:1019E00003F50073BB60BB7B03F1FF33BB73BB7BB1
:1019F000002BE9D100E000BF4FF000004FF0FD01E7
:101A0000FFF726FD034683F00103DBB2002B02D073
:101A10004FF00103BB73FFF7AFFABB7B002B0CBF8A
:101A200000230123DBB2184607F11007BD4680BD35
:101A300090B58BB000AF0B463A600246FA71BB71AD
:101A40003B683B62FB79002B02D04FF004030CE2B1
:101A50004FF0010387F82730BB79052B2DD13B6A66
:101A60001B78012B0FD0022B14D0002B20D1FFF7B5
:101A700029FA0346002B01D0FFF766FC4FF0000364
:101A800087F82730EFE1FFF73FFB4FF0000387F8BF
:101A90002730E8E13B6A03F10104FFF713FA03463C
:101AA000DBB223704FF0000387F8273000BFDAE184
:101AB0004FF0040387F82730D5E140F21403C2F257
:101AC00000031B78DBB203F00103002B02D04FF0C0
:101AD0000303CAE1BB790E2B00F2B18101A252F8D7
:101AE00023F000BF211B0008471B0008171C00083B
:101AF000291C00083F1E00083F1E00083F1E00086A
:101B00003F1E00083F1E00083F1E0008511D000830
:101B1000691D0008951D0008C11D00080F1E000862
:101B20004FF40060C4F201004FF4004100F09EFA4F
:101B3000FFF702FA0346FF2B40F086814FF00003C7
:101B400087F8273080E14FF049004FF00001FFF7A0
:101B5000B7FC0346002B40F0798107F10C031846CF
:101B60004FF01001FFF742FC0346002B00F06E819E
:101B70003B7B4FEA9313DBB2012B10D17B7D1A46DE
:101B80003B7D4FEA03239BB2D3189BB203F10103C1
:101B9000FB83FB8B4FEA83223B681A6036E07B7C39
:101BA00003F00F03DAB2BB7D4FEAD313DBB2D318D5
:101BB000DAB27B7D03F00303DBB24FEA4303DBB20F
:101BC000D318DBB203F1020387F826303B7D4FEADE
:101BD0009313DBB21A46FB7C4FEA83039BB2D31804
:101BE0009AB2BB7C03F003039BB24FEA83239BB200
:101BF000D3189BB203F10103FB83FA8B97F82630CD
:101C0000A3F1090302FA03F23B681A604FF00003E4
:101C100087F827301AE13B684FF400721A804FF0C2
:101C2000000387F827301CE140F25003C2F20003A2
:101C30001B7803F00403002B36D04FF0CD004FF09B
:101C40000001FFF73DFC0346002B40F00181FFF748
:101C500069F907F10C0318464FF01001FFF7C6FBB6
:101C60000346002B00F0F4804FF0300387F8263055
:101C700007E0FFF757F997F8263003F1FF3387F8AD
:101C8000263097F82630002BF3D1BB7D4FEA131393
:101C9000DBB24FF0100202FA03F23B681A604FF019
:101CA000000387F82730D3E04FF049004FF00001E0
:101CB000FFF706FC0346002B40F0CA8007F10C0337
:101CC00018464FF01001FFF791FB0346002B00F080
:101CD000BF8040F25003C2F200031B7803F00203FE
:101CE000002B17D0BB7D03F03F034FEA4302FB7D7F
:101CF0004FEAD313DBB2D31803F101027B7E4FEA24
:101D00009313DBB203F1FF3302FA03F31A463B6885
:101D10001A6018E0BB7D03F07C034FEAA3039BB27B
:101D200003F10103FA7D02F003024FEAC201FA7DDA
:101D30004FEA5212D2B28A1802F1010202FB03F3F7
:101D40001A463B681A604FF0000387F827307FE09F
:101D500040F25003C2F200031A783B6A1A704FF047
:101D6000000387F827307CE04FF049004FF0000176
:101D7000FFF7A6FB0346002B6CD1386A4FF0100129
:101D8000FFF734FB0346002B64D04FF0000387F8C5
:101D900027305FE04FF04A004FF00001FFF790FB63
:101DA0000346002B58D1386A4FF01001FFF71EFB95
:101DB0000346002B50D04FF0000387F827304BE04C
:101DC0004FF07A004FF00001FFF77AFB0346002B3B
:101DD00044D14FF0040387F826300FE0FFF7A2F854
:101DE00003461A463B6A1A703B6A03F101033B62E1
:101DF00097F8263003F1FF3387F8263097F826301E
:101E0000002BEBD14FF0000387F8273026E04FF08E
:101E1000CD004FF00001FFF753FB0346002B1FD10D
:101E2000FFF780F8386A4FF04001FFF7DFFA03460A
:101E3000002B15D04FF0000387F8273010E04FF04B
:101E4000040387F827300CE000BF0AE000BF08E079
:101E500000BF06E000BF04E000BF02E000BF00E0FA
:101E600000BFFFF789F897F82730184607F12C07CD
:101E7000BD4690BD80B489B000AF786039604FF046
:101E80000003FB614FF000033B614FF00003BB61B7
:101E90004FF00003FB604FF000037B614FF0000345
:101EA000BB603B68DB7803F00F03FB613B68DB78CA
:101EB00003F01003002B04D03B689B78FA691343AE
:101EC000FB613B681B88DBB2002B4ED07B681B6834
:101ED0007B614FF00003BB6141E0BB694FF0010241
:101EE00002FA03F3FB603B681B881A46FB68134049
:101EF0003B613A69FB689A422DD1BB694FEA830383
:101F0000FB60FB684FF00F0202FA03F3BB60BB6893
:101F10006FEA03037A6913407B61FB68FA6902FA8E
:101F200003F37A6913437B613B68DB78282B07D185
:101F3000BB694FF0010202FA03F27B685A610AE0C2
:101F40003B68DB78482B06D1BB694FF0010202FAEF
:101F500003F27B681A61BB6903F10103BB61BB69D2
:101F6000072BBAD97B687A691A603B681B88FF2BFC
:101F700053D97B685B687B614FF00003BB6146E02F
:101F8000BB6903F108034FF0010202FA03F3FB609F
:101F90003B681B881A46FB6813403B613A69FB6843
:101FA0009A4230D1BB694FEA8303FB60FB684FF074
:101FB0000F0202FA03F3BB60BB686FEA03037A699E
:101FC00013407B61FB68FA6902FA03F37A691343F1
:101FD0007B613B68DB78282B08D1BB6903F10803E0
:101FE0004FF0010202FA03F27B685A613B68DB782A
:101FF000482B08D1BB6903F108034FF0010202FA34
:1020000003F27B681A61BB6903F10103BB61BB6921
:10201000072BB5D97B687A695A6007F12407BD465A
:1020200080BC704780B483B000AF78607B684FF6A7
:10203000FF721A807B684FF002029A707B684FF043
:102040000402DA7007F10C07BD4680BC704700BF80
:1020500080B483B000AF78600B467B807A887B6861
:102060001A6107F10C07BD4680BC704780B483B08D
:1020700000AF78600B467B807A887B685A6107F1F5
:102080000C07BD4680BC704780B487B000AF786055
:102090000B46FB704FF000033B614FF00003FB6009
:1020A0004FF000037B614FF00003BB607B68002BA7
:1020B00006DA4FF00003C4F20103DB697B6105E03F
:1020C0004FF00003C4F201035B687B617B6803F49B
:1020D00070234FEA1343BB607B684FEA03434FEA28
:1020E00013433B617B6803F44013B3F5401F10D1E9
:1020F0007B6923F070637B614FF00003C4F201033E
:102100004FF00002C4F20102526822F070625A607D
:1021100026E07B6803F48013002B10D0BB684FF0DF
:10212000030202FA03F3FB60FB686FEA03037A69B8
:1021300013407B617B6943F070637B6110E07B68D7
:102140004FEA53534FEA03133A6902FA03F36FEA73
:1021500003037A6913407B617B6943F070637B61A1
:10216000FB78002B0AD07B684FEA53534FEA0313E6
:102170003A6902FA03F37A6913437B617B68002BA7
:1021800006DA4FF00003C4F201037A69DA6105E070
:102190004FF00003C4F201037A695A6007F11C078B
:1021A000BD4680BC704700BF90B484B000AF02460B
:1021B0000B46FA71BB714FF00003FB60BB7903F073
:1021C00003034FEA83034FF00F0202FA03F3FB60AD
:1021D0004FF00003C4F20103BA794FEA9202D2B27F
:1021E00010464FF00002C4F20102B9794FEA9101A2
:1021F000C9B201F1020152F82110FA686FEA020235
:10220000114000F1020243F822104FF00003C4F223
:102210000103BA794FEA9202D2B210464FF000029F
:10222000C4F20102B9794FEA9101C9B201F1020188
:1022300052F82110FC79BA7902F003024FEA8202C7
:1022400004FA02F2114300F1020243F8221007F1EE
:102250001007BD4690BC704780B483B000AF034602
:10226000FB714FF46143CEF2000397F907204FEA68
:102270005212F97901F01F014FF0010000FA01F14B
:1022800043F8221007F10C07BD4680BC704700BF21
:1022900080B584B000AF4FF00003FB734FF0000334
:1022A000BB734FF000037B734FF000033B734FF0A1
:1022B0000003FB724FF000037B604FF000033B60B4
:1022C00008F018FE41F28C10C0F6010008F078FB0F
:1022D0004FF4FA7009F070FC4FE006F09BFE0346E5
:1022E000FB734FF000004FF0000108F0BDFB41F21E
:1022F0009810C0F6010008F063FB41F64C03C2F2EF
:1023000000031B689BB2184600F0B4F941F29C1020
:10231000C0F6010008F054FB41F64C03C2F2000382
:102320005B689BB2184600F0A5F94FF001004FF032
:10233000000108F099FB4FF00A0009F03DFC41F262
:10234000A010C0F6010008F03BFB41F64C03C2F2BE
:1023500000039B689BB2184600F08CF941F2A41070
:10236000C0F6010008F02CFB41F64C03C2F200035A
:10237000DB689BB2184600F07DF9FB7B002BACD0EC
:1023800008F0B8FDFB7B03F1FF337B7341F2A8102B
:10239000C0F6010008F014FBBB7B184605F0D4FA28
:1023A0000346BB73BB7B184601F0C8F808F0A2FDDA
:1023B00041F2B810C0F6010008F002FBFB7A1846A3
:1023C00005F0C2FA0346FB727A7B41F64C03C2F277
:1023D000000353F822307B6008F08CFD41F2C810F6
:1023E000C0F6010008F0ECFABB7B184601F000F8DB
:1023F0004FF00003FB7320E04FF00A0009F0DCFB14
:1024000006F008FE0346FB7308F074FD41F2D81095
:10241000C0F6010008F0D4FA4FF001004FF00001BF
:1024200008F022FB7A7B41F64C03C2F2000353F81A
:1024300022309BB2184600F01DF9FB7B022BDBD14A
:10244000BB7B184601F07AF87A7B41F64C03C2F266
:10245000000353F822207B68D31A3B60FB7A3A686A
:10246000B2FBF3F33B737A7B41F6D823C2F200034D
:10247000397B995408F03EFD41F2E810C0F60100A6
:1024800008F09EFA3B689BB2184600F0F3F84FF054
:1024900001004FF0000108F0E7FA41F2F010C0F639
:1024A000010008F08DFA3B7B9BB2184600F0E2F881
:1024B00007E04FF00A0009F07FFB06F0ABFD034692
:1024C000FB73FB7B022BF4D108F014FD4FF0C80026
:1024D00009F072FB07F11007BD4680BD80B588B0DA
:1024E00000AF13460246FA710A46BA71BB804FF03C
:1024F0000003BB614FF000037B614FF000033B61C1
:102500004FF00003FB814FF00003FB7708F0F2FC73
:1025100041F2F810C0F6010008F052FA07E04FF05F
:102520000A0009F049FB06F075FD0346FB77FB7FC7
:10253000002BF4D0FB7F022B01D1FFF7A9FE08F09E
:10254000D9FC41F2B810C0F6010008F039FAFB8955
:1025500018464FF0050105F0D9FA0346FB8141F614
:102560004C03C2F200031B687B6141F64C03C2F2CC
:1025700000031A68F98941F6D823C2F200031B78D8
:1025800003FB01F3D318BB6108F0B4FC41F208204F
:10259000C0F6010008F014FA41F6D823C2F2000395
:1025A0001B78FA8902FB03F39BB2184600F062F82D
:1025B0004FF001004FF0000108F056FA41F21020F0
:1025C000C0F6010008F0FCF941F64C03C2F200032A
:1025D0001B689BB2184600F04DF842F2107009F0EB
:1025E000EBFA36E04FF0000000F002FF4FF00A0077
:1025F00009F0E2FA08F07EFC41F21420C0F6010076
:1026000008F0DEF9BA7941F64C03C2F2000353F840
:1026100022309AB27B699BB2D31A9BB2184600F063
:1026200029F84FF001004FF0000108F01DFA41F2C7
:102630001C20C0F6010008F0C3F941F6D823C2F20D
:1026400000031B78FA8902FB03F39BB2184600F0E3
:1026500011F841F64C03C2F200031A68BB699A42B2
:10266000C0D34FF0000000F069FF07F12007BD461E
:1026700080BD00BF80B582B000AF0346FB80FA8802
:1026800041F25973CDF2B713A3FB02134FEA533350
:102690009BB2DBB2184606F033FEFA8848F21F53AD
:1026A000C5F2EB13A3FB02134FEA53139BB2DBB249
:1026B000184606F025FEFB88DBB2184606F020FE21
:1026C00007F10807BD4680BD80B582B000AF4FF06E
:1026D00000037B6040F21803C2F200031B78322B28
:1026E00064D141F69423C2F200034FF030021A7015
:1026F00050E041F6DC23C2F200031B78012B49D1E4
:102700007B6803F00103002B06D141F6D223C2F20D
:1027100000031B787B801DE07B884FEA03239BB27C
:102720007B8041F6D223C2F200031B781A467B88D5
:10273000D3189BB27B807B684FEAD372D3184FEAE1
:1027400063039BB203F5B8639AB27B8810461946BF
:102750000EF0ACF841F6D223C2F200031A7841F62B
:102760009423C2F200031A7041F6DC23C2F2000384
:102770004FF000021A7041F64003C2F200034FF01E
:1027800001021A704FF0010009F016FA7B6803F19C
:1027900001037B607A6840F28F139A42A9DD40F210
:1027A0001803C2F200034FF030021A7040F218030F
:1027B000C2F200031B78332B40F0C68041F6D223CF
:1027C000C2F200031B78A3F13103372B00F2BC8067
:1027D00001A252F823F000BFB9280008C72800085A
:1027E000D5280008E3280008F1280008FF28000881
:1027F00049290008492900084929000849290008F1
:1028000049290008492900084929000849290008E0
:1028100049290008492900084929000849290008D0
:1028200049290008492900084929000849290008C0
:1028300049290008492900084929000849290008B0
:1028400049290008492900084929000849290008A0
:102850004929000849290008492900084929000890
:102860004929000849290008492900084929000880
:102870004929000849290008492900084929000870
:102880004929000849290008492900084929000860
:1028900049290008492900080D29000817290008BE
:1028A000212900082B290008352900083F290008A4
:1028B00049290008492900084FF000004FF00001A5
:1028C00004F0AEFE40E04FF000004FF0010104F0D4
:1028D000A7FE39E04FF001004FF0000104F0A0FE28
:1028E00032E04FF001004FF0010104F099FE2BE0BF
:1028F0004FF002004FF0000104F092FE24E04FF090
:1029000002004FF0010104F08BFE1DE04FF00000CB
:1029100000F06EFD18E04FF0000000F00FFE13E035
:102920004FF0010000F064FD0EE04FF0010000F0F8
:1029300005FE09E04FF0020000F05AFD04E04FF000
:10294000020000F0FBFD00BF40F21803C2F20003DA
:102950001B78312B6ED14FF005037B6017E07B684D
:10296000DAB241F69423C2F200031A7041F6400332
:10297000C2F200034FF001021A704FF0010009F09B
:102980001BF900F069F87B6803F1FF337B607B681B
:10299000002BE4D14FF000037B603FE041F64003A1
:1029A000C2F200031B78002B34D17B6803F00103D3
:1029B000002B0FD17B684FEAD372D3184FEA630321
:1029C0009BB203F5B8639AB207F1020310461946A9
:1029D0000DF010FF4FF0010009F0EEF87B884FEA90
:1029E00013239BB2DAB241F69423C2F200031A70A9
:1029F0007B884FEA03239BB27B8041F64003C2F2FF
:102A000000034FF001021A7000F026F87B6803F112
:102A100001037B604FF0010009F0CEF87A6840F2C4
:102A20008F139A42BADD40F21803C2F200034FF04E
:102A300030021A704FF0010009F0BEF840F218039E
:102A4000C2F200031A7840F21803C2F200031A70AF
:102A500007F10807BD4680BDB0B500AF40F21803CE
:102A6000C2F200031B78302B40F09B804FF4605083
:102A7000C4F2010040F225510AF0A0F80346002BF1
:102A80003CD04FF46050C4F201000AF073F80346E2
:102A9000DBB203F07F03DAB241F6D223C2F20003C5
:102AA0001A7041F6DC23C2F200034FF001021A70E3
:102AB00041F6D223C2F200031B782F2B10D941F626
:102AC000D223C2F200031B78332B09D841F6D2235C
:102AD000C2F200031A7840F21803C2F200031A701F
:102AE0004FF46053C4F201034FF46052C4F2010288
:102AF000128892B222F0200292B21A8040F2580359
:102B0000C2F200031B781A4641F6BC33C2F200033E
:102B10009A5C40F25C03C2F200031B785340DAB2C5
:102B200040F25C03C2F200031A704FF46053C4F227
:102B3000010340F25802C2F200021178084641F641
:102B4000BC32C2F20002125C9A8001F10103DAB2D7
:102B500040F25803C2F200031A7040F25803C2F266
:102B600000031B78402B0DD140F25803C2F2000342
:102B70004FF000021A7040F25C03C2F200034FF003
:102B800000021A704FF46053C4F201034FF4605214
:102B9000C4F20102128892B222F0400292B21A806C
:102BA000CBE04FF46050C4F2010040F225510AF02E
:102BB00005F80346002B65D040F25A03C2F2000329
:102BC0001C8825464FF46050C4F2010009F0D2FF82
:102BD0000346DBB203F07F03DAB241F60033C2F200
:102BE00000035A5504F101039AB240F25A03C2F2AB
:102BF00000031A8040F25A03C2F200031B880A2B1A
:102C000006D940F25A03C2F200034FF000021A80C4
:102C10004FF46050C4F2010009F0ACFF0346DBB290
:102C200003F07F03DAB241F6D223C2F200031A7036
:102C300041F6DC23C2F200034FF001021A704FF498
:102C40006053C4F201034FF46052C4F201021288CF
:102C500092B222F0200292B21A8040F21803C2F21D
:102C600000031B78332B0DD141F6D223C2F20003AF
:102C70001B78302B06D140F21803C2F200034FF04C
:102C800030021A7041F64003C2F200031B78012B98
:102C900018D140F21803C2F200031B78332B11D075
:102CA0004FF46053C4F2010341F69422C2F20002D1
:102CB00012789A8041F64003C2F200034FF00002FE
:102CC0001A702CE04FF46053C4F2010340F2580232
:102CD000C2F200021178084641F6BC32C2F200028C
:102CE000125C9A8001F10103DAB240F25803C2F299
:102CF00000031A7040F25803C2F200031B78402B05
:102D00000DD140F25803C2F200034FF000021A70D6
:102D100040F25C03C2F200034FF000021A704FF45D
:102D20006053C4F201034FF46052C4F201021288EE
:102D300092B222F0400292B21A80B0BD80B400AFCD
:102D40004FF00003C4F202031B68BD4680BC70470D
:102D500080B400AF4FF00003C4F202031B68BD460D
:102D600080BC704780B586B000AF4FF001004FF0D7
:102D7000010108F0A9FC4FF005004FF0010108F037
:102D8000CDFC4FF025033B754FF000037B754FF0F2
:102D90000003BB754FF00103FB754FF400733B82DA
:102DA0004FF00303BB744FF01803FB7407F11003DB
:102DB0004FF40060C4F201001946FFF75BF84FF4CE
:102DC00080633B824FF00403FB7407F110034FF460
:102DD0000060C4F201001946FFF74CF84FF4605050
:102DE000C4F2010009F064FD4FF480404FF001018E
:102DF00008F094FC4FF416533B604FF00003BB8087
:102E00004FF00003FB804FF000033B814FF00003C5
:102E1000BB814FF00C037B813B464FF46050C4F202
:102E20000100194609F0B0FD4FF46050C4F20100F2
:102E30004FF4587109F0B0FE4FF46053C4F201032F
:102E40004FF46052C4F20102928992B242F0200221
:102E500092B29A814FF46053C4F201034FF460526E
:102E6000C4F20102928992B242F0400292B29A8177
:102E70004FF46050C4F201004FF0010109F05AFE16
:102E80004FF02500FFF7E8F907F11807BD4680BDB0
:102E900080B500AF4FF48060C0F230004FF0010108
:102EA000FFF7F2F84FF40063C4F201034FF400623D
:102EB000C4F20102526822F040625A604FF400638B
:102EC000C4F201034FF40062C4F20102526842F0FE
:102ED00080725A604FF40063C4F201034FF4006241
:102EE000C4F20102526822F440025A604FF40063B7
:102EF000C4F201034FF40062C4F20102526842F4CA
:102F000080125A604FF40063C4F201034FF4006270
:102F1000C4F20102526822F440225A604FF4006366
:102F2000C4F201034FF40062C4F20102526842F499
:102F300080325A604FF40063C4F201034FF4006220
:102F4000C4F20102526822F440425A604FF4006316
:102F5000C4F201034FF40062C4F20102526842F469
:102F600080525A6080BD00BF80B584B000AF4FF082
:102F700004004FF0010108F0D1FB4FF0E003BB81EA
:102F80004FF02803FB7307F10C034FF40060C4F209
:102F900001001946FEF76EFF07F11007BD4680BD20
:102FA00080B584B000AF4FF008004FF0010108F089
:102FB000B5FB4FF00303BB814FF02803FB7307F110
:102FC0000C034FF44060C4F201001946FEF752FFB3
:102FD0004FF001004FF00001FFF7E6F84FF001035A
:102FE0007B604FF000033B724FF010037B724FF099
:102FF0000103BB7207F10403184608F037FC4FF0D9
:1030000001004FF00101FFF7CFF84FF002037B60A2
:103010004FF000033B724FF010037B724FF001033F
:10302000BB7207F10403184608F020FC4FF00603BA
:103030003B704FF00F037B704FF00F03BB704FF0EE
:103040000103FB703B4618460CF0F8FF4FF00703F6
:103050003B704FF00F037B704FF00F03BB704FF0CE
:103060000103FB703B4618460CF0E8FF07F1100720
:10307000BD4680BD80B588B000AF4FF011004FF065
:10308000010108F04BFB4FF002004FF0010108F086
:103090006FFB07F11C031846FEF7C4FF4FF4707373
:1030A000BB834FF00303BB774FF01803FB7707F1A7
:1030B0001C034FF48050C4F201001946FEF7DAFEFB
:1030C0004FF44060C0F21A004FF00101FEF7DCFF40
:1030D00007F110031846FDF73DFB4FF40073FB8228
:1030E00040F2E733BB824FF0EF033B8207F110035E
:1030F0004FF48060C4F200001946FDF713F83B4618
:103100001846FDF745FB4FF001037B804FF060034D
:103110003B804FF00003FB803B464FF48060C4F2DD
:1031200000001946FDF78CF83B464FF48060C4F26E
:1031300000001946FDF718F93B464FF48060C4F2D1
:1031400000001946FDF7A4F93B464FF48060C4F235
:1031500000001946FDF72CFA4FF48060C4F200001D
:103160004FF00101FDF73EFB07F12007BD4680BD92
:1031700080B483B000AF4FF00003FB714FF0000349
:10318000FB7160E0FA79F97941F61433C2F2000379
:103190005B5C4FEA4303D9B241F61433C2F2000339
:1031A0009954FA79F97941F61433C2F20003595C63
:1031B0004FF44063C4F201039868FB7920FA03F3EB
:1031C000DBB203F00103DBB2CB18D9B241F6143302
:1031D000C2F200039954FA7941F61433C2F20003A3
:1031E0009B5C082B14D9FB794FF0010202FA03F320
:1031F000DAB241F6DD23C2F200031B78DBB21343DF
:10320000DBB2DAB241F6DD23C2F200031A7016E037
:10321000FB794FF0010202FA03F3DBB26FEA03031A
:10322000DAB241F6DD23C2F200031B78DBB21340B1
:10323000DBB2DAB241F6DD23C2F200031A70FB7989
:1032400003F10103FB71FB79012B9BD907F10C07FB
:10325000BD4680BC704700BF80B582B000AF07F0AC
:1032600049FE4FF00003FB804FF000037B7107F035
:1032700041FE41F22020C0F6010007F0A1FB26E04C
:1032800005F0C8FE03467B7141F62033C2F200030D
:103290001B88FB804FF0050008F08EFC4FF001000A
:1032A0004FF0000107F0E0FBFA8848F21F53C5F227
:1032B000EB13A3FB02134FEA53139BB2DBB2184686
:1032C00006F01EF8FB88DBB2184606F019F87B7989
:1032D000022BD5D14FF00A0008F06EFCFB8840F2BB
:1032E000226019460DF0E2FA07F004FE41F23420A4
:1032F000C0F6010007F064FB4FF4FA6008F05CFCD4
:1033000041F23820C0F6010007F05AFB26E005F034
:1033100081FE03467B7141F62033C2F200031B8815
:10332000FB804FF0050008F047FC4FF001004FF024
:10333000000107F099FBFA8848F21F53C5F2EB131E
:10334000A3FB02134FEA53139BB2DBB2184605F0FE
:10335000D7FFFB88DBB2184605F0D2FF7B79022B42
:10336000D5D14FF000037B714FF00A0008F024FC28
:10337000FB8840F2326019460DF098FA07F0BAFD6A
:1033800041F23420C0F6010007F01AFB4FF4FA6056
:1033900008F012FC07F0AEFD06F09AFC07F10807F2
:1033A000BD4680BD80B500AF41F62033C2F20003B8
:1033B0001B881A4641F6B433C2F200031B8803F19E
:1033C00002039A4203DD4FF0010000F011F841F6CC
:1033D0002033C2F200031A8841F6B433C2F200036C
:1033E0001B889A4203D24FF0010000F0A7F880BD7D
:1033F00080B584B000AF0346FB714FF0010008F0C8
:10340000DBFB4FF00003FB724FF00003BB724FF089
:103410000003FB734FF40063C4F201039B68DAB24C
:10342000FB7903F105034FF0010101FA03F3DBB26D
:103430001340FB72FA7AFB7903F1050342FA03F3B6
:10344000FB72FB794FF0010202FA03F3DAB241F6A4
:103450001033C2F200031B78DBB21340DBB2BB7245
:10346000BA7AFB7942FA03F3BB72FB7A002B49D19B
:10347000BB7A002B46D1FB79184600F0E9F84FF4EF
:103480001673BB811DE04FF40063C4F201039A6818
:10349000FB7903F1050322FA03F303F00103002B88
:1034A00004D0FB7B03F10103FB7302E04FF0000348
:1034B000FB734FF0010008F07FFBBB8903F1FF3382
:1034C000BB81FB7B022B02D8BB89002BDBD1BB89E4
:1034D000002B13D1FB794FF0010202FA03F3DAB2A9
:1034E00041F61033C2F200031B78DBB21343DBB2A8
:1034F000DAB241F61033C2F200031A70FB791846B3
:1035000000F0C2F8FB794FF0010202FA03F3DAB2DD
:1035100041F6F823C2F200031B78DBB21343DBB29F
:10352000DAB241F6F823C2F200031A704FF0050038
:1035300008F042FB07F11007BD4680BD80B584B09E
:1035400000AF0346FB71FB79184600F081F84FF09D
:103550000003FB734FF00003FB724FF00003BB72DC
:103560004FF41673BB814FF40063C4F201039B68F0
:10357000DAB2FB7903F105034FF0010101FA03F31D
:10358000DBB21340FB72FA7AFB7903F1050342FACE
:1035900003F3FB72FB794FF0010202FA03F3DAB294
:1035A00041F61033C2F200031B78DBB21340DBB2EA
:1035B000BB72BA7AFB7942FA03F3BB72FB7A012B36
:1035C00027D1BB7A002B24D11DE04FF40063C4F255
:1035D00001039A68FB7903F1050322FA03F303F070
:1035E0000103002B04D1FB7B03F10103FB7302E019
:1035F0004FF00003FB734FF0010008F0DDFABB89C8
:1036000003F1FF33BB81FB7B022B02D8BB89002B6C
:10361000DBD1FB79184600F037F8FB794FF0010257
:1036200002FA03F3DBB26FEA0303DAB241F6F823DE
:10363000C2F200031B78DBB21340DBB2DAB241F610
:10364000F823C2F200031A7007F11007BD4680BDCF
:1036500080B483B000AF0346FB714FF40063C4F243
:1036600001034FF40062C4F201025169FA7902F1D8
:103670000B024FF0010000FA02F20A435A6107F10F
:103680000C07BD4680BC704780B483B000AF0346D2
:10369000FB714FF40063C4F201034FF40062C4F203
:1036A00001021169FA7902F10B024FF0010000FAF0
:1036B00002F20A431A6107F10C07BD4680BC70474D
:1036C00080B500AF4FF0010008F06CF941F64C03F3
:1036D000C2F200031B6803F1010241F64C03C2F27F
:1036E00000031A6080BD00BF80B500AF4FF002003C
:1036F00008F058F941F64C03C2F200035B6803F18D
:10370000010241F64C03C2F200035A6080BD00BFC3
:1037100080B500AF4FF0040008F044F980BD00BF51
:1037200080B500AF4FF4806008F03CF94FF40060C2
:1037300008F038F94FF4805008F034F980BD00BF2C
:1037400080B500AF4FF0200008F02CF94FF040009A
:1037500008F028F94FF0800008F024F980BD00BF80
:1037600080B582B000AF4FF00003FB714FF0000353
:10377000BB714FF000037B7107F0BCFB7BE04FF0A7
:10378000140008F019FA05F045FC0346FB714FF0F0
:1037900000004FF0000107F067F941F24420C0F645
:1037A000010007F00DF9BB79184605F0A9FDFB797A
:1037B000042B03D1BB791846FFF71AFEFB79032BC4
:1037C00003D1BB791846FFF7B9FEFB79012B0AD16B
:1037D000BB79012B04D8BB7903F10103BB7102E073
:1037E0004FF00003BB714FF0010008F0E5F94FF016
:1037F00001004FF0000107F037F941F25020C0F608
:10380000010007F0DDF841F6F823C2F200031B784F
:10381000184605F075FD4FF0010008F0CDF941F2B2
:103820005420C0F6010007F0CBF84FF000037B7185
:103830001EE04FF40063C4F201039A68B9797B7902
:10384000CB1822FA03F303F00103002B06D041F258
:103850005C20C0F6010007F0B3F805E041F26020FB
:10386000C0F6010007F0ACF87B7903F101037B712E
:103870007B79022BDDD9FB79022B80D107F03AFB53
:1038800007F10807BD4680BD80B582B000AF4FF09C
:103890000003FB714FF00003BB714FF000037B711D
:1038A0004FF000033B714FF000037B8007F022FBD9
:1038B0001AE14FF0140008F07FF905F0ABFB034666
:1038C000FB714FF000004FF0000107F0CDF841F61A
:1038D0004C03C2F200031B687B807A8841F2597363
:1038E000CDF2B713A3FB02134FEA53339BB2DBB203
:1038F000184605F005FD7A8848F21F53C5F2EB1310
:10390000A3FB02134FEA53139BB2DBB2184605F038
:10391000F7FC7B88DBB2184605F0F2FC41F6203359
:10392000C2F200031B887B807B88DBB2184605F05F
:10393000E7FC41F26420C0F6010007F041F84FF4C3
:103940009043C4F201039B8C7B807A8841F25973C7
:10395000CDF2B713A3FB02134FEA53339BB2DBB292
:10396000184605F0CDFC7A8848F21F53C5F2EB13D8
:10397000A3FB02134FEA53139BB2DBB2184605F0C8
:10398000BFFC7B88DBB2184605F0BAFCFB79042B40
:1039900003D14FF00100FFF72BFDFB79012B07D17D
:1039A0004FF00100FFF770FE4FF00100FFF7C6FD7A
:1039B0004FF0010008F000F94FF001004FF0000156
:1039C00007F052F841F6F823C2F200031B781846BC
:1039D00005F096FC41F26820C0F6010006F0F0FF09
:1039E0004FF000033B804FF40063C4F201039B6877
:1039F0004FEA53133B803A8841F25973CDF2B71323
:103A0000A3FB02134FEA53339BB2DBB2184605F017
:103A100077FC3A8848F21F53C5F2EB13A3FB02135D
:103A20004FEA53139BB2DBB2184605F069FC3B88A2
:103A3000DBB2184605F064FC41F26C20C0F60100D0
:103A400006F0BEFF4FF0010008F0B6F84FF4006337
:103A5000C4F201039B684FEA531303F00103002BE8
:103A600006D041F25C20C0F6010006F0A9FF05E097
:103A700041F26020C0F6010006F0A2FF4FF400639F
:103A8000C4F201039B684FEA931303F00103002B78
:103A900006D041F25C20C0F6010006F091FF05E07F
:103AA00041F26020C0F6010006F08AFF4FF4006387
:103AB000C4F201039B684FEAD31303F00103002B08
:103AC00006D041F25C20C0F6010006F079FF05E067
:103AD00041F26020C0F6010006F072FF41F2702052
:103AE000C0F6010006F06CFFFB79022B7FF4E1AE1B
:103AF00007F000FAFFF734FE07F10807BD4680BD66
:103B000080B586B000AF78604FF00003BB824FF005
:103B100000037B817B689BB24FEA03139BB203F2E5
:103B20001463BB82BA8A07F10A03104619460CF0E7
:103B300061FE07F0DFF941F27420C0F6010006F0E3
:103B40003FFF7B89184603F061FF03467B817B8939
:103B5000BA8A104619460CF0A9FE7B689BB24FEA60
:103B600003139BB203F21563BB82BA8A07F10A03FF
:103B7000104619460CF03EFE07F0BCF941F28420D5
:103B8000C0F6010006F01CFF7B89184603F03EFFDB
:103B900003467B817B89BA8A104619460CF086FE63
:103BA0007B689BB24FEA03139BB203F21663BB829E
:103BB000BA8A07F10A03104619460CF01BFE07F0FB
:103BC00099F941F29820C0F6010006F0F9FE7B89D0
:103BD000184603F01BFF03467B817B89BA8A104697
:103BE00019460CF063FE07F10A0340F699001946E6
:103BF0000CF000FE07F07EF941F2AC20C0F60100A7
:103C000006F0DEFE7B89DBB2184603F09DFE03461C
:103C10007B817B8940F6990019460CF047FE7B8931
:103C2000DAB241F69C23C2F200031A707B8903F2D8
:103C3000FF53BB82BB8A18464FF046010CF036FE9C
:103C40007B891A4640F21C03C2F200034FF0460182
:103C500099547B689BB24FEA03139BB203F21E6335
:103C6000BB82BA8A07F10A03104619460CF0C2FD5E
:103C700007F040F941F2C020C0F6010006F0A0FEB6
:103C80007B89DBB2184603F05FFE03467B817B89AC
:103C9000BA8A104619460CF009FE7B8903F2FF53DD
:103CA000BB82BB8A18464FF047010CF0FFFD7B89B1
:103CB0001A4640F21C03C2F200034FF04701995428
:103CC0007B689BB24FEA03139BB203F21763BB827C
:103CD000BA8A07F10A03104619460CF08BFD07F06B
:103CE00009F941F2D020C0F6010006F069FE7B8997
:103CF000184603F08BFE03467B817B89BA8A104607
:103D000019460CF0D3FD7B689BB24FEA03139BB2BC
:103D100003F5C363BB82BB8A184605F039FE3861E0
:103D200007F0E8F841F2E020C0F6010006F048FE96
:103D30004FF4FA7007F040FF386903F069FF38610B
:103D4000BB8A1846396903F0B3FC7B689BB24FEA23
:103D500003139BB203F22263BB82BA8A07F10A0300
:103D6000104619460CF046FD07F0C4F841F2F42065
:103D7000C0F6010006F024FE4FF4FA7007F01CFFB5
:103D80007B89184603F042FE03467B817B89BA8A11
:103D9000104619460CF08AFD7B689BB24FEA03136C
:103DA0009BB203F21F63BB82BA8A07F10A03104673
:103DB00019460CF01FFD07F09DF841F20430C0F6E3
:103DC000010006F0FDFD7B89DBB2184603F0BCFD67
:103DD00003467B817B89BA8A104619460CF066FD42
:103DE00007F088F841F21030C0F6010006F0E8FD57
:103DF0004FF00003FB7507E005F00CF90346FB7577
:103E00004FF00A0007F0D8FEFB7D002BF4D0FB7DBD
:103E1000022B23D17B689BB24FEA03139BB203F2C0
:103E20001A63BB8204F048FEF860BB8A1846F96842
:103E300003F03EFC7B689BB24FEA03139BB203F294
:103E40001C63BB8204F038FE02463B69D31A03F1BF
:103E50000503BA8A1046194603F02AFCFB7D032BA2
:103E600023D107F047F841F22030C0F6010006F0F8
:103E7000A7FD4FF47A7007F09FFE7B689BB24FEA74
:103E800003139BB203F21A63BB82BB8A184605F088
:103E90007FFDF860F8684FF0010104F0DBF8F8608E
:103EA000BB8A1846F96803F003FC07F023F841F2D7
:103EB0002C30C0F6010006F083FD4FF47A7007F055
:103EC0007BFE7B6803F162039BB24FEA0313BB8264
:103ED000BB8A184605F05CFDF860F8684FF00101F8
:103EE00004F0B8F8F860BB8A1846F96803F0E0FB04
:103EF00007F000F84FF0C80007F05EFE07F0D2FEB2
:103F000005F0E6FE07F0E0FE07F11807BD4680BDAC
:103F100080B582B000AF4FF00003FB7106F0EAFFFE
:103F200041F23830C0F6010006F04AFD4FF0C800FB
:103F300007F042FEFB79184603F006FD0346FB71CD
:103F4000FB79184600F024F807F10807BD4680BD4C
:103F500080B582B000AF4FF00003FB7106F0CAFFDE
:103F600041F23830C0F6010006F02AFD4FF0C800DB
:103F700007F022FEFB79184603F0E6FC0346FB71CE
:103F8000FB791846FFF7BCFD07F10807BD4680BD69
:103F900080B584B000AF78604FF00003FB814FF034
:103FA0000003BB817B689BB21A464FEAC202D31A58
:103FB0009BB203F24563FB81FA8907F10C031046BB
:103FC00019460CF017FC06F095FF41F24430C0F69C
:103FD000010006F0F5FCBB89184603F017FD034607
:103FE000BB81BB89FA89104619460CF05FFC7B68DF
:103FF0009BB21A464FEAC202D31A9BB203F246633F
:10400000FB81FA8907F10C03104619460CF0F2FB0C
:1040100006F070FF41F25830C0F6010006F0D0FC07
:10402000BB89184603F0F2FC0346BB81BB89FA89C1
:10403000104619460CF03AFC7B689BB21A464FEAD0
:10404000C202D31A9BB203F24763FB81FA8907F1DC
:104050000C03104619460CF0CDFB06F04BFF41F265
:104060006830C0F6010006F0ABFCBB89184603F0CF
:10407000CDFC0346BB81BB89FA89104619460CF07A
:1040800015FC7B689BB21A464FEAC202D31A9BB258
:1040900003F5C963FB81FA8907F10C031046194641
:1040A0000CF0A8FB06F026FF41F27830C0F60100C4
:1040B00006F086FCBB89184603F0A8FC0346BB81CA
:1040C000BB89FA89104619460CF0F0FB7B689BB25D
:1040D0001A464FEAC202D31A9BB203F24963FB812C
:1040E000FA8907F10C03104619460CF083FB06F021
:1040F00001FF41F28430C0F6010006F061FCBB898B
:10410000184603F083FC0346BB81BB89FA8910463D
:1041100019460CF0CBFB7B689BB21A464FEAC202F1
:10412000D31A9BB203F24A63FB81FA8907F10C03AD
:10413000104619460CF05EFB06F0DCFE41F29430AE
:10414000C0F6010006F03CFCBB89184603F05EFC9B
:104150000346BB814FF00A0007F02EFDBB89FA89A8
:10416000104619460CF0A2FB06F0C4FE4FF00A0000
:1041700007F022FD05F0ACFD07F11007BD4680BD3C
:1041800090B585B000AF4FF00003BB734FF0000354
:10419000FB7306F0AFFE41F23830C0F6010006F0C6
:1041A0000FFC4FF0C80007F007FDBB7B184603F07B
:1041B000CBFB0346BB7306F09DFE41F2A030C0F678
:1041C000010006F0FDFBBB7B184605F099F841F2B3
:1041D000AC30C0F6010006F0F3FB07E04FF01E0024
:1041E00007F0EAFC04F016FF0346FB73FB7B022B8F
:1041F00002D0FB7B032BF1D14FF0C80007F0DCFCB1
:10420000FB7B022B2DD1BB7B4FEA031303F5C3636A
:10421000BB60BB689BB2184605F0BAFB7860BB7BFD
:104220004FEA031303F21A63BB6004F045FC3860E5
:10423000BB689BB21846396803F03AFABB7B4FEA79
:10424000031303F21C63BB60BB689CB204F034FC34
:1042500002467B68D31A03F105032046194603F092
:1042600027FA06F047FE4FF0C80007F0A5FC07F15B
:104270001407BD4690BD00BF80B58EB000AF78601A
:104280004FF001027B6802FA03F3DAB241F66103F0
:10429000C2F200031B78DBB21343DBB2DAB241F6A1
:1042A0006103C2F200031A704FF00100FFF746F9F4
:1042B0004FF000033B824FF0000387F836304FF099
:1042C00000033B634FF00003BB624FF00003FB6051
:1042D0004FF00003FB624FF0010007F06DFC7B68BC
:1042E0009BB24FEA03139BB203F21463FB84FA8C74
:1042F00007F11403104619460CF07CFA7B689BB258
:104300004FEA03139BB203F21663FB84FA8C07F1A6
:104310000C03104619460CF06DFA04F0CDFB38631F
:10432000FB683A6BD318BB624FF0050007F044FC02
:104330004FF00000FFF75CF81DE004F0BDFB3863B0
:10434000BB8A4FF0010202FA03F3DAB241F6DD2331
:10435000C2F200031B78DBB21340DBB287F83630C1
:1043600097F83620BB8A42FA03F387F836304FF0CD
:10437000190007F021FC97F83630002B03D13A6B77
:10438000BB6A9A42D9D34FF00000FFF7D7F84FF439
:104390007A7007F011FC4FF0000387F8373086E0A1
:1043A0004FF000037B814FF000033B624FF00003AE
:1043B000FB614FF00003BB617B689BB24FEA0313C4
:1043C0009BB203F5C363FB84FB8C184605F0E0FA4F
:1043D000F8617B689BB24FEA03139BB203F21A6346
:1043E000FB84FB8C184605F0D3FAB86197F8373098
:1043F0009BB21A464FEAC202D31A9BB203F2496338
:10440000FB84FA8C07F10A03104619460CF0F2F906
:1044100004F052FB0246BB69D21AFB69B2FBF3F30C
:104420003B627B893A6AB2FBF3F3FB754FF0000302
:104430003B8197F837309BB21A464FEAC202D31A33
:104440009BB203F5C963FB84FA8C07F11203104693
:1044500019460CF0CFF997F837309BB21A464FEA5D
:10446000C202D31A9BB203F24A63FB84FA8C07F1AF
:104470000803104619460CF0BDF97B8A1A467B6882
:104480009A420AD13B89012B07D1FB7D002B04D135
:1044900097F83730184600F0E5F84FF00A0007F0BB
:1044A0008BFB97F8373003F1010387F8373097F823
:1044B0003730082B7FF674AF7B689BB24FEA03134B
:1044C0009BB203F21763FB84FA8C07F10C031046CE
:1044D00019460CF08FF97B689BB24FEA03139BB22D
:1044E00003F21E63FB84FA8C07F110031046194691
:1044F0000CF080F94FF00A0007F05EFB04F0DCFAE4
:10450000386304F0D9FA0246FB68D318BB624FF057
:104510000A0007F051FB7B689BB24FEA03139BB282
:1045200003F21563FB84FA8C07F114031046194655
:104530000CF060F94FF0000387F837304FF00103BB
:1045400087F836304CE04FF00A0007F035FBBB8AA5
:104550004FF0010202FA03F3DAB241F6DD23C2F2B0
:1045600000031B78DBB21340DBB287F8363097F8D4
:104570003620BB8A42FA03F387F8363041F65C03F3
:10458000C2F200031B68DBB203F0010387F8373087
:1045900004F092FA0246FB6A9A420ED997F8373035
:1045A000012B0AD197F83630012B06D13B6B03F172
:1045B00001033B6304F080FAF8624FF0050007F056
:1045C000FBFA3B8ADAB297F8371097F836300B408F
:1045D000DBB203F00103DBB21046194603F020F80A
:1045E0003A6BBB6A9A42AED33B8ADBB218464FF0B5
:1045F000000103F015F84FF00A0007F0DDFA4FF064
:104600000100FEF7F5FE7B689BB24FEA03139BB2F5
:1046100003F21C63FB8404F04FFA0346FA8C104645
:10462000194603F045F84FF001027B6802FA03F3E4
:10463000DBB26FEA0303DAB241F66103C2F20003B0
:104640001B78DBB21340DBB2DAB241F66103C2F28F
:1046500000031A704FF0C80007F0AEFA07F13807F0
:10466000BD4680BD80B586B000AF78604FF00003D6
:104670007B617B689BB21A464FEAC202D31A9BB297
:1046800003F246637B827A8A07F1100310461946CB
:104690000CF0B0F87B689BB21A464FEAC202D31AFC
:1046A0009BB203F245637B827A8A07F10E031046C0
:1046B00019460CF09FF87B689BB21A464FEAC2027B
:1046C000D31A9BB203F247637B827A8A07F10C0309
:1046D000104619460CF08EF804F0EEF902463B8ABB
:1046E000D3187B61FB89DBB218464FF0010100F063
:1046F0004DF803E04FF00A0007F05EFA04F0DCF931
:1047000002467B699A42F5D3FB89DBB218464FF02B
:10471000000100F03BF8BB89184600F005F807F1EE
:104720001807BD4680BD00BF80B584B000AF03460A
:10473000FB804FF00003FB6004F0BEF90246FB88EB
:10474000D318FB6041F69C23C2F200031B78184685
:104750004FF0010102F064FF03E04FF00A0007F0A0
:104760002BFA04F0A9F90246FB689A42F5D341F608
:104770009C23C2F200031B7818464FF0000102F0A0
:104780004FFF07F11007BD4680BD00BF80B483B066
:1047900000AF02460B46FA71BB71BB79012B14D1F5
:1047A000FB794FF0010202FA03F3DAB241F660033B
:1047B000C2F200031B78DBB21343DBB2DAB241F67C
:1047C0006003C2F200031A7016E0FB794FF0010299
:1047D00002FA03F3DBB26FEA0303DAB241F66003D5
:1047E000C2F200031B78DBB21340DBB2DAB241F64F
:1047F0006003C2F200031A70BB79C3F10103BB71FD
:10480000FB79002B10D14FF48063C4F20003BA7916
:1048100092B211464FEA4111891A4FEA81018A1872
:104820004FEAC20292B29A86FB79012B10D14FF463
:104830008063C4F20003BA7992B211464FEA411183
:10484000891A4FEA81018A184FEAC20292B21A8786
:10485000FB79022B10D14FF48063C4F20003BA79C4
:1048600092B211464FEA4111891A4FEA81018A1822
:104870004FEAC20292B29A87FB79032B11D14FF40F
:104880008063C4F20003BA7992B211464FEA411133
:10489000891A4FEA81018A184FEAC20292B2A3F83C
:1048A000402007F10C07BD4680BC704780B58AB038
:1048B00000AF78604FF0000387F826304FF001001A
:1048C000FEF796FD4FF00000FEF738FE4FF00003B4
:1048D00087F827308CE04FF00A0007F06DF997F861
:1048E00027309BB24FEA03139BB203F21C63BB84D5
:1048F000BB8C184605F04CF8386204F0DDF8F8611E
:1049000097F827309BB24FEA03139BB203F5C363BA
:10491000BB84BB8C184605F03BF8B861FA693B6A6A
:10492000D31A7B6197F827309BB24FEA03139BB2EF
:1049300003F21A63BB84BB8C184605F029F8386172
:1049400097F8273003F162039BB24FEA0313BB844D
:10495000BB8C184605F01CF8F86097F827309BB21E
:104960004FEA03139BB203F21F63BB84BA8C07F1B7
:104970000B03104619460BF03DFF4FF00A0007F0FD
:104980001BF997F827304FF0010202FA03F3DAB26D
:1049900041F66103C2F200031B78DBB21340DBB2C5
:1049A00087F8263097F8262097F8273042FA03F345
:1049B00087F826307A69BB699A420FD9FA693B6950
:1049C0009A420BD9FA69FB689A4207D2FB7A012B0B
:1049D00004D197F827301846FFF74EFC4FF00A0035
:1049E00007F0EAF897F8273003F1010387F827303A
:1049F00097F82730022B7FF66EAF67E780B582B05D
:104A000000AF4FF480304FF0010106F087FE4FF405
:104A10000043BB804FF04803FB714FF00303BB71B1
:104A200007F104034FF44060C4F201001946FDF79A
:104A300021FA4FF00100C8F200004FF00101FDF72C
:104A400023FB4FF018033B704FF000037B704FF0D7
:104A50000103BB704FF00103FB703B4618460BF09F
:104A6000EDFA41F62433C2F200034FF004021A803B
:104A700041F62433C2F200034FF000025A8041F69F
:104A80002433C2F200034FF001029A8041F624332E
:104A9000C2F200034FF00002DA8041F62433C2F282
:104AA00000034FF000021A814FF48040C4F201006D
:104AB00041F62431C2F20001FBF7EAFD4FF48040D9
:104AC000C4F201004FF06001FBF7D0FE4FF48040CC
:104AD000C4F201004FF00401FBF7E4FE4FF4804004
:104AE000C4F201004FF08001FBF7F8FE4FF4804064
:104AF000C4F201004FF00101FBF774FE4FF4804057
:104B0000C4F201004FF004014FF00102FBF78AFEEE
:104B100007F10807BD4680BD80B400AF4FF4406385
:104B2000C4F201034FF44062C4F20102526822F061
:104B300040425A604FF44063C4F201034FF44062B4
:104B4000C4F20102526842F080525A60BD4680BCF5
:104B5000704700BF80B500AF4FF48060C4F2000022
:104B60004FF00401FBF72CFF4FF48060C4F200000B
:104B7000FBF718FF03461A4640F25E03C2F2000339
:104B80001A8040F25E03C2F200031B889BB2002B26
:104B90002BD04FF48060C4F20000FBF7F5FE034613
:104BA0004FF0640202FB03F240F25E03C2F2000324
:104BB0001B889BB292FBF3F39AB240F26003C2F2FD
:104BC00000031A8040F20003C2F200031A6840F2A8
:104BD0005E03C2F200031B889BB2B2FBF3F240F209
:104BE0006403C2F200031A600DE040F26003C2F2F7
:104BF00000034FF000021A8040F26403C2F2000387
:104C00004FF000021A6040F26803C2F200031B7802
:104C10001A4640F26003C2F200031B8899B241F6C3
:104C20003033C2F2000323F8121040F26803C2F2DC
:104C300000031B7803F10103DAB240F26803C2F209
:104C400000031A7080BD00BF80B500AF4FF48040F4
:104C5000C4F201004FF00401FBF7B2FE4FF48043B1
:104C6000C4F201031B8F9AB240F25E03C2F200034A
:104C70001A8040F25E03C2F200031B889BB2002B35
:104C800018D04FF48043C4F201039B8E9BB24FF0C7
:104C9000640202FB03F240F25E03C2F200031B88CF
:104CA0009BB292FBF3F39AB240F26003C2F20003AC
:104CB0001A800DE040F26003C2F200034FF00002E0
:104CC0001A8040F26403C2F200034FF000021A603F
:104CD00040F26803C2F200031B781A4640F26003F8
:104CE000C2F200031B8899B241F63033C2F20003CE
:104CF00023F8121040F26803C2F200031B7803F19C
:104D00000103DAB240F26803C2F200031A7080BDF8
:104D100080B500AF4FF48840C4F201004FF00201AB
:104D2000FBF74EFE80BD00BF80B500AF4FF4904052
:104D3000C4F201004FF00201FBF742FE4FF4406362
:104D4000C4F201039B6803F40073002B0AD14FF4F3
:104D50009043C4F201039B8C9AB241F62033C2F215
:104D600000031A804FF49043C4F201034FF0000295
:104D70009A8480BD80B582B000AF4FF0190006F074
:104D80001BFF4FF00003FB710CE0FA7941F6303362
:104D9000C2F200034FF0000123F81210FB7903F177
:104DA0000103FB71FB79312BEFD940F26903C2F2A9
:104DB00000034FF000021A7040F26803C2F20003D1
:104DC0004FF000021A70FFF7A7FE4FF44063C4F2E1
:104DD00001034FF400425A614FF0050006F0ECFE6B
:104DE0004FF44063C4F201034FF400421A61FFF72D
:104DF00005FE4FF0C80006F0DFFE40F26903C2F284
:104E000000034FF001021A7040F26803C2F200037F
:104E10004FF000021A704FF0050006F0CDFE00F0D2
:104E200005F807F10807BD4680BD00BF80B59AB000
:104E300000AF4FF00A0006F0BFFE40F26903C2F275
:104E400000031B78012B40F0F0814FF004033B6618
:104E50004FF0000387F8673016E097F8671097F86F
:104E6000672041F63033C2F2000333F812204FEAD4
:104E7000410307F16801CB1823F8642C97F86730D9
:104E800003F1010387F8673097F867302C2BE4D9DA
:104E900040F26A03C2F200034FF000021A704FF0B2
:104EA000000387F8673054E097F8672041F6A03395
:104EB000C2F200034FF0000199544FF00A0006F0CF
:104EC0007BFE4FF0080387F8663038E03B6E4FEA10
:104ED000430307F16802D31833F8643C192B09D94E
:104EE0003B6E4FEA430307F16801CB1833F8643C8B
:104EF000222B1AD997F8672097F8671041F6A0334C
:104F0000C2F200035B5CD9B297F8663003F1FF335D
:104F10004FF0010000FA03F3DBB20B43DBB2D9B26E
:104F200041F6A033C2F2000399543B6E03F1010332
:104F30003B6697F8663003F1FF3387F8663097F8E1
:104F40006630002BC2D197F8673003F1010387F870
:104F5000673097F86730042BA6D94FF00A0006F0A7
:104F60002BFE41F6A033C2F200031B784FEA032365
:104F70009AB241F6A033C2F200035B78D3189AB21A
:104F800041F6F023C2F200035A8041F6A033C2F288
:104F900000039B784FEA03239AB241F6A033C2F292
:104FA0000003DB78D3189AB241F6F023C2F2000373
:104FB0001A8041F6A033C2F200035A7941F6F02379
:104FC000C2F200031A7141F6F023C2F200035A88BC
:104FD00041F6BA33C2F200031B889A4212D941F655
:104FE000F023C2F200035A8841F6D023C2F2000334
:104FF0001B889A4206D240F27103C2F200034FF0BE
:1050000000021A7041F6F023C2F200035A8841F6FA
:10501000BA33C2F200031B889A4206D240F27103EF
:10502000C2F200034FF001021A7041F6F023C2F2FF
:1050300000035A8841F6D023C2F200031B889A422B
:1050400006D940F27103C2F200034FF002021A7057
:105050004FF00A0006F0B0FD41F6F023C2F2000363
:105060001A8844F6D353C1F26203A3FB02134FEA3A
:1050700093134FF47A7101FB03F3D31A9AB248F2F7
:105080001F53C5F2EB13A3FB02134FEA53139BB25A
:10509000DBB203F13003DAB241F6A833C2F2000307
:1050A0001A7041F6F023C2F200031A8848F21F5327
:1050B000C5F2EB13A3FB02134FEA53134FF0640145
:1050C00001FB03F3D31A9AB24CF6CD43CCF6CC4392
:1050D000A3FB02134FEAD3039BB2DBB203F130030D
:1050E000DAB241F6A833C2F200035A7041F6A8338F
:1050F000C2F200034FF02E029A7041F6F023C2F282
:1051000000031A884CF6CD43CCF6CC43A3FB021324
:105110004FEAD3010B464FEA83035B184FEA430380
:10512000D31A9BB2DBB203F13003DAB241F6A833F3
:10513000C2F20003DA704FF00A0006F03DFD41F6BE
:10514000F023C2F200035A8844F6D353C1F262033B
:10515000A3FB02134FEA93134FF47A7101FB03F39D
:10516000D31A9AB248F21F53C5F2EB13A3FB0213F2
:105170004FEA53139BB2DBB203F13003DAB241F6CC
:105180000C33C2F200031A7041F6F023C2F200039E
:105190005A8848F21F53C5F2EB13A3FB02134FEAE0
:1051A00053134FF0640101FB03F3D31A9AB24CF688
:1051B000CD43CCF6CC43A3FB02134FEAD3039BB2FF
:1051C000DBB203F13003DAB241F60C33C2F2000372
:1051D0005A7041F60C33C2F200034FF02E029A705F
:1051E00041F6F023C2F200035A884CF6CD43CCF6C8
:1051F000CC43A3FB02134FEAD3010B464FEA8303D0
:105200005B184FEA4303D31A9BB2DBB203F13003BE
:10521000DAB241F60C33C2F20003DA7040F26A03EC
:10522000C2F200034FF001021A7007F16807BD4691
:1052300080BD00BF80B582B000AF4FF00003FB71AE
:105240004FF00003BB717EE04FF01E0006F0B4FC8F
:1052500003F0E0FE0346FB714FF000004FF0000149
:1052600005F002FCBB79184604F04AF841F2B03070
:10527000C0F6010005F0A4FBBA7941F63033C2F262
:10528000000333F8122048F21F53C5F2EB13A3FBBF
:1052900002134FEA53139BB2DBB2184604F030F806
:1052A000BA7941F63033C2F2000333F81230DBB280
:1052B000184604F025F8FB79042B06D1BB79FF2BA7
:1052C00003D0BB7903F10103BB71FB79012B06D13C
:1052D000BB79002B03D0BB7903F1FF33BB714FF0D7
:1052E00001004FF0000105F0BFFB41F2B430C0F601
:1052F000010005F065FB41F6A830C2F2000040F263
:105300008401C2F200014FF004024FF0020303F0E7
:105310001DFD4FF001004FF0070105F0A5FB41F224
:10532000B830C0F6010005F04BFB41F60C30C2F27C
:10533000000040F28401C2F200014FF004024FF07D
:105340000A0303F003FDFB79022B7FF47DAF05F028
:10535000D1FD07F10807BD4680BD00BF80B483B012
:1053600000AF0346FB80FA8840F2A003C2F20003BC
:105370001B68D21A13464FEA83039B184FEA430374
:105380001A4640F2AC03C2F200031B68B2FBF3F30F
:10539000DBB2184607F10C07BD4680BC704700BF62
:1053A00080B483B000AF0346FB71FA7940F2AC03DE
:1053B000C2F200031B6803FB02F246F26763C6F207
:1053C000666383FB02134FEAA3014FEAE273CB1A31
:1053D0009AB240F2A003C2F200031B689BB2D3183A
:1053E0009BB2184607F10C07BD4680BC704700BF52
:1053F00080B582B000AF4FF00003BB804FF00003D8
:10540000FB7105F077FD41F2BC30C0F6010005F0FC
:10541000D7FA4FF00A0006F0CFFB07F1040340F281
:10542000046019460BF0E6F9BB881846FFF796FFB3
:105430000346FB71FB79184600F0D2F90346FB7175
:105440004FF00A0006F0B8FBFB791846FFF7A8FFFB
:10545000034640F2046019460BF028FA05F04AFDB5
:1054600041F23820C0F6010005F0AAFA4FF00A0018
:1054700006F0A2FB07F1040340F2056019460BF0A9
:10548000B9F9BB881846FFF769FF0346FB71FB7942
:10549000184600F0A5F90346FB714FF00A0006F02C
:1054A0008BFBFB791846FFF77BFF034640F2056054
:1054B00019460BF0FBF905F01DFD07F10807BD4685
:1054C00080BD00BF80B584B000AF0346FB714FF0D4
:1054D0000003FB7395E003F09DFD0346FB734FF063
:1054E00001004FF0030105F0BFFAFA7944F6D353F7
:1054F000C1F2620383FB02134FEAA3114FEAE27386
:10550000CB1A4FF47A7101FB03F3D31A48F21F52FE
:10551000C5F2EB1282FB03124FEA62124FEAE37309
:10552000D31ADBB23B72FA7948F21F53C5F2EB1380
:10553000A3FB02134FEA53134FF0640101FB03F383
:10554000D31ADAB24CF6CD43CCF6CC43A3FB02130C
:105550004FEAD303DBB27B72FA794CF6CD43CCF63B
:10556000CC43A3FB02134FEAD3010B464FEA83035C
:105570005B184FEA4303D31ADBB2BB7241F2CC3063
:10558000C0F6010005F01CFA07F10803184640F2C6
:105590008401C2F200014FF003024FF0060303F052
:1055A000D5FB4FF001004FF00C0105F05DFA41F220
:1055B000D030C0F6010005F003FA4FF00A0006F003
:1055C000FBFAFB7B042B0AD1FB79622B04D8FB7915
:1055D00003F10103FB7102E04FF00003FB71FB7B61
:1055E000012B0AD1FB79002B03D14FF00003FB7193
:1055F00003E0FB7903F1FF33FB714FF00A0006F083
:10560000DBFAFB7B022B7FF466AFFB79184607F1D0
:105610001007BD4680BD00BF80B582B000AF4FF01F
:105620000003BB804FF00003FB7105F063FC41F207
:10563000D430C0F6010005F0C3F94FF00A0006F0BF
:10564000BBFA07F1040340F2076019460BF0D2F8E9
:10565000BB88DBB21846FFF735FF0346FB714FF0FE
:105660000A0006F0A9FAFB799BB240F207601946DE
:105670000BF01CF905F03EFC41F2E430C0F60100ED
:1056800005F09EF94FF00A0006F096FA07F10403C0
:105690004FF4C16019460BF0ADF8BB88DBB2184679
:1056A000FFF710FF0346FB714FF00A0006F084FA83
:1056B000FB799BB24FF4C16019460BF0F7F805F087
:1056C00019FC07F10807BD4680BD00BF80B582B058
:1056D00000AF03463960FB713B6803F10302F979BF
:1056E0004CF6CD43CCF6CC43A3FB01034FEAD303E6
:1056F000DBB219464FEA4111C91A4FEA8101CB1AB0
:105700004FEA4303D9B2FB79CB18DBB203F1300384
:10571000DBB213704FF0050006F04EFAFA794CF642
:10572000CD43CCF6CC43A3FB02134FEAD303FB716A
:105730003B6803F102034FF02E021A703B6803F13D
:105740000102F9794CF6CD43CCF6CC43A3FB01031F
:105750004FEAD303DBB219464FEA4111C91A4FEAA7
:105760008101CB1A4FEA4303D9B2FB79CB18DBB2E4
:1057700003F13003DBB213704FF0050006F01CFAA2
:10578000FA794CF6CD43CCF6CC43A3FB02134FEA97
:10579000D303FB71FA794CF6CD43CCF6CC43A3FB93
:1057A00002034FEAD303DBB21A464FEA4212D21A7F
:1057B0004FEA8202D31A4FEA4303DAB2FB79D318D5
:1057C000DBB203F13003DAB23B681A703B6803F1D5
:1057D00004034FF000021A7007F10807BD4680BDB0
:1057E00080B584B000AF0346FB714FF00003FB733C
:1057F00053E003F00FFC0346FB734FF001004FF042
:10580000030105F031F9FA7907F10803104619464A
:10581000FFF75CFF41F2CC30C0F6010005F0D0F894
:1058200007F10803184640F28401C2F200014FF06C
:1058300004024FF0060303F089FA4FF001004FF025
:105840000C0105F011F941F2D030C0F6010005F06D
:10585000B7F84FF00A0006F0AFF9FB7B042B0AD132
:10586000FB79FD2B04D8FB7903F10103FB7102E006
:105870004FF00003FB71FB7B012B0AD1FB79002B5E
:1058800003D14FF00003FB7103E0FB7903F1FF3319
:10589000FB714FF00A0006F08FF9FB7B022BA8D1B9
:1058A000FB79184607F11007BD4680BD80B58AB068
:1058B00000AF786039604FF000033B7679684CF6B2
:1058C000CD43CCF6CC43A3FB01234FEAD3021346CE
:1058D0004FEA83039B184FEA4303CA1AD3B203F17A
:1058E0003003DBB2FB757A684CF6CD43CCF6CC4383
:1058F000A3FB02134FEAD3037B6079684CF6CD43D8
:10590000CCF6CC43A3FB01234FEAD30213464FEA64
:1059100083039B184FEA4303CA1AD3B203F130033F
:10592000DBB2BB757A684CF6CD43CCF6CC43A3FB17
:1059300002134FEAD3037B6079684CF6CD43CCF673
:10594000CC43A3FB01234FEAD30213464FEA830360
:105950009B184FEA4303CA1AD3B203F13003DBB2F8
:105960007B757A684CF6CD43CCF6CC43A3FB02138F
:105970004FEAD3037B6079684CF6CD43CCF6CC4339
:10598000A3FB01234FEAD30213464FEA83039B187C
:105990004FEA4303CA1AD3B203F13003DBB23B75BB
:1059A0007A684CF6CD43CCF6CC43A3FB02134FEA06
:1059B000D3037B6079684CF6CD43CCF6CC43A3FB94
:1059C00001234FEAD30213464FEA83039B184FEAA1
:1059D0004303CA1AD3B203F13003DBB2FB747A6813
:1059E0004CF6CD43CCF6CC43A3FB02134FEAD303D2
:1059F0007B6079684CF6CD43CCF6CC43A3FB012306
:105A00004FEAD30213464FEA83039B184FEA43033E
:105A1000CA1AD3B203F13003DBB2BB744FF01900E2
:105A200006F0CAF87A684CF6CD43CCF6CC43A3FB1B
:105A300002134FEAD3037B6079684CF6CD43CCF672
:105A4000CC43A3FB01234FEAD30213464FEA83035F
:105A50009B184FEA4303CA1AD3B203F13003DBB2F7
:105A60007B747A684CF6CD43CCF6CC43A3FB02138F
:105A70004FEAD3037B6079684CF6CD43CCF6CC4338
:105A8000A3FB01234FEAD30213464FEA83039B187B
:105A90004FEA4303CA1AD3B203F13003DBB23B74BB
:105AA0007A684CF6CD43CCF6CC43A3FB02134FEA05
:105AB000D3037B6079684CF6CD43CCF6CC43A3FB93
:105AC00001234FEAD30213464FEA83039B184FEAA0
:105AD0004303CA1AD3B203F13003DBB2FB737A6813
