:020000040800F2
:10000000F41F0020090B0008690B0008690B0008A9
:10001000690B0008690B0008690B0008000000006C
:1000200000000000000000000000000061B90008AE
:10003000690B00080000000035BA000871BA00081A
:10004000690B0008690B0008690B0008690B0008C0
:10005000690B0008690B00089D340008B9340008DA
:10006000D5340008690B0008690B0008690B00080B
:10007000690B0008690B0008512D0008652D000868
:10008000690B0008690B0008690B000800000000FC
:100090000000000000000000000000000135000822
:1000A000C9480008014A0008294A0008690B0008ED
:1000B000690B000875470008690B0008690B000808
:1000C000690B0008690B0008690B0008690B000840
:1000D000690B00088D210008690B0008690B0008F6
:1000E000E1340008690B0008690B000800000000FB
:1000F0000000000000000000000000000000000000
:1001000000000000000000000000000000000000EF
:100110000000000000000000690B0008690B0008E7
:100120005FF808F180B485B000AF786039600023D3
:10013000FB817B681B88FB817A682E4B9A4213D027
:100140007A682D4B9A420FD07B68B3F1804F0BD069
:100150007A682A4B9A4207D07A68294B9A4203D090
:100160007A68284B9A4208D1FB8923F07003FB81FF
:100170003B685A88FB891343FB817A68224B9A4279
:100180000CD07A68214B9A4208D0FB8923F4407343
:10019000FB813B68DA88FB891343FB817B68FA8922
:1001A0001A803B689A887B689A853B681A887B68C6
:1001B0001A857A680F4B9A420FD07A680E4B9A4292
:1001C0000BD07A68124B9A4207D07A68114B9A4248
:1001D00003D07A68104B9A4204D13B681B7A1A46C6
:1001E0007B681A867B6801229A821437BD465DF8C7
:1001F000047B7047002C01400034014000040040A3
:1002000000080040000C00400010004000140040B6
:1002100000400140004401400048014080B485B0E6
:1002200000AF7860396000237B810023FB810023CD
:10023000BB817B681B8C9BB223F001039AB27B6865
:100240001A847B681B8CFB817B689B88BB817B68E5
:100250001B8B7B817B8923F070037B817B8923F05F
:1002600003037B813B681A887B8913437B81FB896D
:1002700023F00203FB813B681A89FB891343FB814E
:100280003B685A88FB891343FB817A68244B9A4266
:100290000FD07A68234B9A420BD07A68224B9A424D
:1002A00007D07A68214B9A4203D07A68204B9A4251
:1002B00023D1FB8923F00803FB813B685A89FB8922
:1002C0001343FB81FB8923F00403FB813B689A887D
:1002D000FB891343FB81BB8923F48073BB81BB89FA
:1002E00023F40073BB813B689A89BB891343BB81AC
:1002F0003B68DA89BB891343BB817B68BA899A80E2
:100300007B687A891A833B68DA887B689A867B687F
:10031000FA891A841437BD465DF8047B704700BF24
:10032000002C0140003401400040014000440140E5
:100330000048014080B485B000AF78603960002388
:100340007B810023FB810023BB817B681B8C9BB2DC
:1003500023F010039AB27B681A847B681B8CFB81A4
:100360007B689B88BB817B681B8B7B817B8923F4AB
:10037000E0437B817B8923F440737B813B681B884E
:100380001B029AB27B8913437B81FB8923F02003F4
:10039000FB813B681B891B019AB2FB891343FB81DC
:1003A0003B685B881B019AB2FB891343FB817A6827
:1003B000224B9A4203D07A68214B9A422BD1FB8977
:1003C00023F08003FB813B685B891B019AB2FB89A8
:1003D0001343FB81FB8923F04003FB813B689B882F
:1003E0001B019AB2FB891343FB81BB8923F4806311
:1003F000BB81BB8923F40063BB813B689B899B0065
:100400009AB2BB891343BB813B68DB899B009AB2DC
:10041000BB891343BB817B68BA899A807B687A89E0
:100420001A833B68DA887B681A877B68FA891A84A2
:100430001437BD465DF8047B704700BF002C0140B7
:100440000034014080B485B000AF7860396000238B
:100450007B810023FB810023BB817B681B8C9BB2CB
:1004600023F480739AB27B681A847B681B8CFB81AF
:100470007B689B88BB817B689B8B7B817B8923F01E
:1004800070037B817B8923F003037B813B681A889F
:100490007B8913437B81FB8923F40073FB813B68D9
:1004A0001B891B029AB2FB891343FB813B685B8863
:1004B0001B029AB2FB891343FB817A68224B9A4252
:1004C00003D07A68214B9A422BD1FB8923F4006335
:1004D000FB813B685B891B029AB2FB891343FB815A
:1004E000FB8923F48063FB813B689B881B029AB2E3
:1004F000FB891343FB81BB8923F48053BB81BB89F8
:1005000023F40053BB813B689B891B019AB2BB89D2
:100510001343BB813B68DB891B019AB2BB89134340
:10052000BB817B68BA899A807B687A899A833B68A9
:10053000DA887B689A877B68FA891A841437BD4603
:100540005DF8047B704700BF002C0140003401407F
:1005500080B485B000AF786039600023BB81002390
:100560007B810023FB817B681B8C9BB223F480532F
:100570009AB27B681A847B681B8C7B817B689B8822
:10058000FB817B689B8BBB81BB8923F4E043BB81F0
:10059000BB8923F44073BB813B681B881B029AB262
:1005A000BB891343BB817B8923F400537B813B6868
:1005B0001B891B039AB27B8913437B813B685B8851
:1005C0001B039AB27B8913437B817A68124B9A4250
:1005D00003D07A68114B9A420AD1FB8923F48043F5
:1005E000FB813B689B899B019AB2FB891343FB818A
:1005F0007B68FA899A807B68BA899A833B68DA8833
:100600007B68A3F840207B687A891A841437BD463A
:100610005DF8047B704700BF002C014000340140AE
:1006200080B584B000AF786039600023FB8101237E
:10063000BB813B685B88002B02D10223FB8101E078
:100640000023FB813B689B88012B02D10223BB81E5
:1006500001E00123BB813B681B88002B1CD13B6858
:1006600059883B689A883B681B89786800F06EF966
:100670003B68DB887868194600F002F93B681B8903
:10068000F989BA89786800F0CBF93B68DB8878682B
:10069000194600F011F91BE03B6859883B689A88BD
:1006A0003B681B89786800F0BBF93B68DB88786899
:1006B000194600F001F93B681B89F989BA89786805
:1006C00000F044F93B68DB887868194600F0D8F8F8
:1006D0001037BD4680BD00BF80B483B000AF7860E6
:1006E0007B684FF6FF729A807B6800221A807B68D5
:1006F0000022DA807B6800225A807B6800221A720E
:100700000C37BD465DF8047B704700BF80B483B0F2
:1007100000AF78607B6800221A807B6800225A80D4
:100720007B6800229A807B680022DA807B68002246
:100730001A817B6800225A817B6800229A817B683B
:100740000022DA810C37BD465DF8047B704700BF9C
:1007500080B483B000AF78600B46FB70FB78002B51
:1007600008D07B681B889BB243F001039AB27B6878
:100770001A8007E07B681B889BB223F001039AB2C2
:100780007B681A800C37BD465DF8047B704700BF5C
:1007900080B483B000AF786013460A467A807B70DD
:1007A0007B78002B08D07B689B899AB27B881343A7
:1007B0009AB27B689A8109E07B689B899AB27B88B0
:1007C000DB439BB213409AB27B689A810C37BD46DB
:1007D0005DF8047B704700BF80B485B000AF7860DF
:1007E0000B467B800023FB817B681B89FB81FB8997
:1007F00023F07003FB81FA897B881343FB817B68BC
:10080000FA891A811437BD465DF8047B704700BF32
:1008100080B483B000AF78600B467B807B681B8917
:100820009BB223F007039AB27B681A817B681B890D
:100830009AB27B8813439AB27B681A810C37BD4603
:100840005DF8047B704700BF80B483B000AF786070
:100850000B467B807B681B899BB223F080039AB296
:100860007B681A817B681B899AB27B8813439AB292
:100870007B681A810C37BD465DF8047B704700BF6A
:1008800080B483B000AF78600B467B807B681B8BA5
:100890009BB223F00C039AB27B681A837B681B8B94
:1008A0009AB27B8813439AB27B681A830C37BD4691
:1008B0005DF8047B704700BF80B483B000AF786000
:1008C0000B467B807B681B8B9BB223F440639AB200
:1008D0007B681A837B681B8B9AB27B881B029BB256
:1008E00013439AB27B681A830C37BD465DF8047BCC
:1008F000704700BF80B483B000AF78607B689B8E88
:100900009BB218460C37BD465DF8047B704700BFAC
:1009100080B483B000AF78607B681B8F9BB21846B1
:100920000C37BD465DF8047B704700BF80B483B0D0
:1009300000AF78600B467B807B88DB439AB27B6894
:100940001A820C37BD465DF8047B704780B487B0CF
:1009500000AFF86079813A81FB800023BB820023DD
:10096000FB82FB681B8C9BB223F001039AB2FB68ED
:100970001A84FB681B8BBB82FB681B8CFB82BB8AC7
:1009800023F0F303BB82FB881B019AB23B8913431C
:100990009AB2BB8A1343BB82FA681C4B9A4213D0AB
:1009A000FA681B4B9A420FD0FB68B3F1804F0BD013
:1009B000FA68184B9A4207D0FA68174B9A4203D04C
:1009C000FA68164B9A420BD1FB8A23F00203FB8292
:1009D0007A89FB8A13439BB243F00103FB820AE04E
:1009E000FB8A23F00A03FB827A89FB8A13439BB2BA
:1009F00043F00103FB82FB68BA8A1A83FB68FA8A18
:100A00001A841C37BD465DF8047B7047002C0140FA
:100A1000003401400004004000080040000C004089
:100A200080B487B000AFF86079813A81FB80002301
:100A3000BB820023FB8200237B82FB681B8C9BB262
:100A400023F010039AB2FB681A84FB681B8BBB82ED
:100A5000FB681B8CFB827B891B017B82BB8A23F496
:100A600040731B051B0DBB82FB881B039AB2BB8A1C
:100A70001343BB823B891B029AB2BB8A1343BB82DE
:100A8000FA681C4B9A4213D0FA681B4B9A420FD05B
:100A9000FB68B3F1804F0BD0FA68184B9A4207D02D
:100AA000FA68174B9A4203D0FA68164B9A420BD158
:100AB000FB8A23F02003FB827A8AFB8A13439BB2D2
:100AC00043F01003FB820AE0FB8A23F0A003FB82C1
:100AD0007A89FB8A13439BB243F01003FB82FB68C5
:100AE000BA8A1A83FB68FA8A1A841C37BD465DF8F5
:100AF000047B7047002C014000340140000400409A
:100B000000080040000C004080B582B000AF114BDF
:100B10007B60114B3B6007E03B681A1D3A607A68C6
:100B2000111D796012681A603A680C4B9A42F3D32F
:100B30000B480C494FF000028842B8BF40F8042B24
:100B4000FFF6FAAF00F014F807F0A2FD0837BD4633
:100B500080BD00BF34F700080000002044000020E2
:100B600048000020F81B002080B400AFFEE700BF63
:100B700080B500AF164B164A126842F001021A60A7
:100B8000134A134B5968134B0B405360104A104BD8
:100B90001B6823F0847323F4803313600C4B0C4ADE
:100BA000126822F480221A60094B094A526822F422
:100BB000FE025A60064B4FF41F029A60044B00225B
:100BC000DA6200F00BF8044B4FF000629A6080BDCF
:100BD000001002400000FFF800ED00E080B500AF1B
:100BE00000F002F880BD00BF80B483B000AF0023E6
:100BF0007B6000233B60304B2F4A126842F4803206
:100C00001A602D4B1B6803F400333B607B68013393
:100C10007B603B68002B03D17B68B3F5A06FF0D1FC
:100C2000254B1B6803F00203002B02D001233B601D
:100C300001E000233B603B68012B37D11E4B1E4A6D
:100C400052685A601C4B1C4A52685A601A4B1A4A26
:100C500052685A60184B184A526822F47C125A6043
:100C6000154B154A526842F498125A60124B124AB8
:100C7000126842F080721A6000BF0F4B1B6803F0CD
:100C80000073002BF9D00C4B0B4A526822F0030280
:100C90005A60094B084A526842F002025A6000BF8B
:100CA000054B5B6803F00C03082BF9D10C37BD46EC
:100CB0005DF8047B704700BF0010024080B485B02F
:100CC00000AF0346FB710D4B1B889BB2FB60FB79A9
:100CD000002B04D1FB6843F03803FB6005E0FB68A0
:100CE00023F0380343F00803FB60044BFA6892B228
:100CF0001A801437BD465DF8047B70470030014010
:100D000080B483B000AF0346FB710C37BD465DF87D
:100D1000047B704780B400AF01231846BD465DF8E0
:100D2000047B704780B582B000AF0346FB71FB794E
:100D30009BB20A4819460DF091F800BF07480121FF
:100D40000DF0A8F80346002BF8D004480DF094F8F5
:100D50000346DBB218460837BD4680BD003001406F
:100D600080B500AFFF20FFF7DDFF0346184680BDCA
:100D700080B582B000AF0A4B32221A60FFF7F0FF55
:100D8000FFF7EEFF0346FB71FB79FF2B03D0044B0B
:100D90001B68002BF4D1FB7918460837BD4680BD8F
:100DA0004C00002080B500AF03484FF4004100F034
:100DB00099FEFFF7D5FF80BD0008014080B590B0D7
:100DC00000AF0346B9607A60FB734FF6FF733B8256
:100DD000384B7B610023FB6200233B6300237B6273
:100DE0007B683B6200237B634FF44053BB6300236B
:100DF000FB6331480CF014FE30480CF011FEFB7B15
:100E0000002B19D0BB68BB610023FB618023BB6250
:100E100007F11403284819460CF0BEFE07F1100331
:100E2000BB611023FB610023BB6207F1140323485D
:100E300019460CF0B1FE18E007F11003BB61002366
:100E4000FB610023BB6207F114031B4819460CF039
:100E5000A3FEBB68BB611023FB618023BB6207F16B
:100E60001403164819460CF097FE134801210CF0A4
:100E7000D1FE124801210CF0CDFE114803210122C0
:100E80000CF0C8FF00BF20200CF0E0FE0346002B52
:100E9000F9D0094800210CF0BDFE084800210CF0F3
:100EA000B9FE0748032100220CF0B4FF4037BD46CD
:100EB00080BD00BF0C3001401C00024030000240E9
:100EC0000030014080B500AF494B494A926942F079
:100ED00001029A61464B464A926942F004029A61C5
:100EE000434B434A926942F008029A61414801210A
:100EF00000F014FE0120012100F010FE3E4B3E4A9E
:100F0000526842F040525A603B4B3B4A526822F0D2
:100F100040425A60384B4FF400421A61374B374A0F
:100F2000126842F440521A60344B344A126822F478
:100F300040421A60314B314A126842F400421A6052
:100F40002E4B2E4A126822F440321A602B4B2B4A49
:100F5000126822F440221A60284B284A126842F490
:100F600000221A60254B10221A61244B234A126872
:100F700042F440121A60214B204A126822F44002C7
:100F80001A601E4B1D4A126842F400021A60184B88
:100F9000174A926942F480529A61194B00229A8052
:100FA000174B04221A80164B154A128892B242F04F
:100FB000380292B21A80124B114A128892B242F44D
:100FC000807292B21A800E4B0D4A128892B242F48D
:100FD000007292B21A800A4B094A128892B242F009
:100FE000400292B21A800120012108F041FF80BD29
:100FF000001002400002300000080140000C0140D7
:101000000030014080B582B000AF194B1B78DBB2D5
:1010100003F00103002B08D116484FF4004100F003
:101020006FFDFFF7A5FEFFF7BDFE13480CF098FE1D
:10103000114800210CF0CEFE4FF48050002108F042
:1010400035FF3823BB802823FB713B1D0B48194615
:1010500000F078FC0020FFF753FE054B1B78DBB255
:1010600043F00103DAB2024B1A700837BD4680BD67
:10107000140000200008014000300140000C014035
:1010800080B584B000AF78603960104B0A221A60D6
:10109000FFF766FE0346FB73FB7BFF2B03D10B4B75
:1010A0001B68002BF4D1FB7BFE2B01D0002309E051
:1010B000012079683A68FFF781FEFFF751FEFFF7DC
:1010C0004FFE012318461037BD4680BD4800002062
:1010D00080B584B000AF78600B46FB70FFF748FE28
:1010E0000346FF2B01D000231EE0FB781846FFF7D4
:1010F00019FEFB78FD2B16D0002079684FF40072A2
:10110000FFF75CFEFF20FFF70DFEFF20FFF70AFE52
:10111000FFF726FE0346FB73FB7B03F01F03052B43
:1011200001D0002300E0012318461037BD4680BDE2
:1011300080B584B000AF03463960FB71FB795BB2C8
:10114000002B0EDAFB7903F07F03FB71772000217F
:10115000FFF7EEFF0346BB73BB7B012B01D9BB7BC3
:1011600051E02B484FF4004100F0BCFC28484FF4FC
:10117000004100F0C5FCFFF7FBFD0346FF2B01D04B
:10118000FF2340E0FB791846FFF7CCFD3B681B0EC0
:10119000DBB21846FFF7C6FD3B681B0CDBB21846F6
:1011A000FFF7C0FD3B681B0ADBB21846FFF7BAFD2C
:1011B0003B68DBB21846FFF7B5FD0123FB73FB79F3
:1011C000402B01D19523FB73FB79482B01D1872359
:1011D000FB73FB7B1846FFF7A5FDFB794C2B01D178
:1011E000FFF7BEFD0A23FB73FFF7BAFD0346BB738F
:1011F000BB7B5BB2002B05DAFB7B013BFB73FB7B0C
:10120000002BF1D1BB7B18461037BD4680BD00BF17
:101210000008014090B585B000AF0346FB71FB7933
:10122000002B01D00123C1E0624B1B78DBB203F03D
:101230000203002B03D05F4B1B78DBB2B6E0FFF755
:1012400041FE0020FFF73AFD0A23FB7304E0FFF79D
:1012500087FDFB7B013BFB73FB7B002BF7D100235E
:101260007B7340200021FFF763FF0346012B40F012
:101270008480514B64221A6048204FF4D571FFF7E7
:1012800057FF0346012B4DD10023FB730CE0FC7B81
:10129000FFF766FD03461A4607F11003234403F8DF
:1012A000082CFB7B0133FB73FB7B032BEFD9BB7A51
:1012B000012B62D1FB7AAA2B5FD100BF3E4B1B688A
:1012C000002B07D0E9204FF08041FFF731FF0346A4
:1012D000002BF3D1384B1B68002B4ED07A20002115
:1012E000FFF726FF0346002B47D10023FB730CE0DA
:1012F000FC7BFFF735FD03461A4607F11003234434
:1013000003F8082CFB7B0133FB73FB7B032BEFD92A
:101310003B7A03F04003002B01D00C2300E00423B0
:101320007B732AE0E9200021FFF702FF0346012B2F
:1013300004D802237B73E923BB7303E001237B738F
:101340004123BB7300BF1C4B1B68002B07D0BB7B2A
:1013500018460021FFF7ECFE0346002BF3D1164B95
:101360001B68002B07D050204FF40071FFF7E0FE00
:101370000346002B01D000237B73104B7A7B1A703D
:10138000FFF710FD7B7B002B0BD00A4B1B78DBB2E9
:1013900023F00103DAB2074B1A700120FFF78EFC2D
:1013A00001E0FFF72FFE034B1B78DBB21846143722
:1013B000BD4690BD140000204800002050000020D1
:1013C00080B483B000AF0346FB71FB79002B01D0E2
:1013D000012302E0044B1B78DBB218460C37BD46F4
:1013E0005DF8047B704700BF1400002080B584B016
:1013F00000AFB9607A600246FA73BB73FB7B002BC7
:1014000002D1BB7B002B01D104234FE0294B1B7879
:10141000DBB203F00103002B01D0032346E0264B8F
:101420001B7803F00803002B02D17B685B027B6012
:10143000BB7B012B11D151207968FFF779FE034660
:10144000002B2BD1B8684FF40071FFF719FE03464B
:10145000002B23D00023BB7320E052207968FFF7D4
:1014600067FE0346002B19D1B8684FF40071FFF7EF
:1014700007FE034683F00103DBB2002B00D009E036
:10148000BB6803F50073BB60BB7B013BBB73BB7BDD
:10149000002BE9D14C200021FFF74AFEFFF782FC28
:1014A000BB7B002B0CBF00230123DBB21846103797
:1014B000BD4680BD140000205000002080B584B0DF
:1014C00000AFB9607A600246FA73BB73FB7B002BF6
:1014D00002D1BB7B002B01D1042369E0364B1B7882
:1014E000DBB203F00103002B01D0032360E0324B99
:1014F0001B78DBB203F00403002B01D0022357E07A
:101500002E4B1B7803F00803002B02D17B685B0293
:101510007B60BB7B012B10D158207968FFF708FE58
:101520000346002B3CD1B868FE21FFF7D1FD0346EE
:10153000002B35D00023BB7332E0204B1B7803F027
:101540000603002B04D0BB7BD7201946FFF7F0FD24
:1015500059207968FFF7ECFD0346002B20D1B868CD
:10156000FC21FFF7B5FD034683F00103DBB2002B3E
:1015700000D009E0BB6803F50073BB60BB7B013B97
:10158000BB73BB7B002BEAD10020FD21FFF7A0FD40
:10159000034683F00103DBB2002B01D00123BB73B0
:1015A000FFF700FCBB7B002B0CBF00230123DBB249
:1015B00018461037BD4680BD1400002050000020A2
:1015C00090B58BB000AF0B463A600246FA71BB7122
:1015D0003B683B62FB79002B01D00423ADE1012382
:1015E00087F82730BB79052B28D13B6A1B78012B64
:1015F0000ED0022B12D0002B1BD1FFF78BFB034622
:10160000002B01D0FFF7FEFC002387F8273014E001
:10161000FFF758FC002387F827300EE03B6A5C1C7C
:10162000FFF778FB0346DBB22370002387F82730EF
:1016300003E0042387F827307DE17CE1B84B1B7879
:10164000DBB203F00103002B01D0032375E1BB796A
:101650000E2B00F26B8101A252F823F099160008BC
:10166000B716000863170008731700082D19000843
:101670002D1900082D1900082D1900082D19000832
:101680002D1900085B1800086B1800089118000855
:10169000B7180008F7180008A2484FF4004100F0FE
:1016A0002FFAFFF765FB0346FF2B03D1002387F8D2
:1016B00027303EE13DE149200021FFF739FD034697
:1016C000002B4DD107F10C0318461021FFF7D8FC71
:1016D0000346002B44D03B7B9B09DBB2012B0DD191
:1016E0007B7D1A463B7D1B029BB213449BB20133A8
:1016F000FB83FB8B9A023B681A602DE07B7C03F036
:101700000F03DAB2BB7DDB09DBB21344DAB27B7DB7
:1017100003F00303DBB25B00DBB21344DBB2023342
:1017200087F826303B7D9B09DBB21A46FB7C9B0089
:101730009BB213449AB2BB7C03F003039BB29B029F
:101740009BB213449BB20133FB83FA8B97F826308C
:10175000093B9A403B681A60002387F82730E8E08D
:10176000E7E03B684FF400721A80002387F82730C7
:10177000DFE06D4B1B7803F00403002B2BD0CD2052
:101780000021FFF7D5FC0346002B65D1FFF7E8FAEF
:1017900007F10C0318461021FFF772FC0346002BDB
:1017A0005AD0302387F8263006E0FFF7D9FA97F8A9
:1017B0002630013B87F8263097F82630002BF4D1ED
:1017C000BB7D1B09DBB210229A403B681A600023E4
:1017D00087F82730ADE049200021FFF7A9FC034638
:1017E000002B39D107F10C0318461021FFF748FCF4
:1017F0000346002B30D04C4B1B7803F00203002B28
:1018000012D0BB7D03F03F035A00FB7DDB09DBB246
:1018100013445A1C7B7E9B09DBB2013B02FA03F3A3
:101820001A463B681A6013E0BB7D03F07C039B10F3
:101830009BB20133FA7D02F00302D100FA7D520916
:10184000D2B20A44013202FB03F31A463B681A6023
:10185000002387F827306CE06BE0334B1A783B6A43
:101860001A70002387F8273063E049200021FFF732
:101870005FFC0346002B0AD1386A1021FFF700FCF9
:101880000346002B03D0002387F8273051E050E0B7
:101890004A200021FFF74CFC0346002B0AD1386A8E
:1018A0001021FFF7EDFB0346002B03D0002387F840
:1018B00027303EE03DE07A200021FFF739FC034667
:1018C000002B17D1042387F826300BE03C6A631CF9
:1018D0003B62FFF745FA0346237097F82630013B39
:1018E00087F8263097F82630002BEFD1002387F8B1
:1018F00027301EE01DE0CD200021FFF719FC034634
:10190000002B0CD1FFF72CFA386A4021FFF7B8FB07
:101910000346002B03D0002387F8273009E008E0B6
:10192000140000200008014050000020042387F824
:101930002730FFF737FA97F8273018462C37BD467F
:1019400090BD00BF80B489B000AF786039600023DB
:10195000FB6100233B610023BB610023FB6000238C
:101960007B610023BB603B68DB7803F00F03FB6106
:101970003B68DB7803F01003002B04D03B689B78B6
:10198000FA691343FB613B681B88DBB2002B44D030
:101990007B681B687B610023BB6138E0BB69012267
:1019A00002FA03F3FB603B681B881A46FB6813408E
:1019B0003B613A69FB689A4226D1BB699B00FB6098
:1019C000FB680F2202FA03F3BB60BB68DB437A6952
:1019D00013407B61FB68FA6902FA03F37A691343E7
:1019E0007B613B68DB78282B05D1BB6901229A40DB
:1019F0007B685A6108E03B68DB78482B04D1BB69FF
:101A000001229A407B681A61BB690133BB61BB69E3
:101A1000072BC3D97B687A691A603B681B88FF2B48
:101A200046D97B685B687B610023BB613AE0BB6998
:101A30000833012202FA03F3FB603B681B881A4655
:101A4000FB6813403B613A69FB689A4227D1BB6946
:101A50009B00FB60FB680F2202FA03F3BB60BB68CC
:101A6000DB437A6913407B61FB68FA6902FA03F38E
:101A70007A6913437B613B68DB78282B05D1BB690E
:101A8000083301229A407B685A613B68DB78482B17
:101A900005D1BB69083301229A407B681A61BB6992
:101AA0000133BB61BB69072BC1D97B687A695A6076
:101AB0002437BD465DF8047B704700BF80B483B017
:101AC00000AF78607B684FF6FF721A807B68022255
:101AD0009A707B680422DA700C37BD465DF8047B8F
:101AE000704700BF80B483B000AF78600B467B8046
:101AF0007A887B681A610C37BD465DF8047B7047B5
:101B000080B483B000AF78600B467B807A887B68B6
:101B10005A610C37BD465DF8047B704780B487B0CE
:101B200000AF78600B46FB7000233B610023FB6035
:101B300000237B610023BB607B68002B03DA2E4B04
:101B4000DB697B6102E02C4B5B687B617B6803F4A3
:101B500070231B0CBB607B689BB23B617B6803F40A
:101B60004013B3F5401F0AD17B6923F070637B619A
:101B7000214B214A526822F070625A6021E07B6852
:101B800003F48013002B0ED0BB68032202FA03F388
:101B9000FB60FB68DB437A6913407B617B6943F040
:101BA00070637B610DE07B685B0D1B013A6902FA93
:101BB00003F3DB437A6913407B617B6943F0706315
:101BC0007B61FB78002B08D07B685B0D1B013A69B9
:101BD00002FA03F37A6913437B617B68002B03DA13
:101BE000054B7A69DA6102E0034B7A695A601C3767
:101BF000BD465DF8047B70470000014080B400AF33
:101C0000BFF34F8FBD465DF8047B704780B483B04F
:101C100000AF0346FB71084B97F907205209F97989
:101C200001F01F01012000FA01F143F822100C37E6
:101C3000BD465DF8047B704700E100E080B500AF71
:101C4000054A054BDB6803F4E061044B0B43D360AA
:101C5000FFF7D4FFFEE700BF00ED00E00400FA0547
:101C600080B582B000AF0346FB711A4B1B78002B86
:101C700010D1194B1B785A1CD1B2174A1170F9793F
:101C8000164AA2FB01025209D2B23032D1B2144A32
:101C9000D1540FE0104B1B785A1CD1B20E4A117070
:101CA000F9790E4AA2FB01025209D2B23032D1B206
:101CB0000C4AD154FB79094AA2FB03125209642150
:101CC00001FB02F29B1ADBB2184606F077FA0837DE
:101CD000BD4680BD8D0000208C0000201F85EB518B
:101CE0006C0000207C00002080B584B000AF002391
:101CF000FB730023BB7300237B7300233B73002320
:101D00007B8100237B6000233B6007F073FD6A4802
:101D100007F03EFB4FF4FA7008F01CFA32E006F0D0
:101D200057F90346FB730020002107F067FB634867
:101D300007F02EFB624B1B689BB2184600F0CCF9F3
:101D4000604807F025FB5E4B5B689BB2184600F0CD
:101D5000C3F90120002107F051FB0A2008F0FAF92D
:101D6000594807F015FB564B9B689BB2184600F08C
:101D7000B3F9564807F00CFB514BDB689BB2184691
:101D800000F0AAF9FB7B002BC9D007F033FDFB7BE9
:101D9000013B7B730023FB734D4807F0F9FABB7BD3
:101DA000184605F049F80346BB73BB7B184601F0A3
:101DB0006FFA07F01FFD474807F0EAFA3B7B184629
:101DC00005F03AF803463B737A7B3D4B53F82230DB
:101DD0007B6007F00FFD404807F0DAFABB7B18463E
:101DE00001F062F90023FB7317E00A2008F0B2F952
:101DF00006F0EEF80346FB7307F0FCFC374807F0EB
:101E0000C7FA0120002107F0F9FA7A7B2C4B53F82E
:101E100022309BB2184600F05FF9FB7B022BE4D125
:101E20007A7B274B53F822303B60BB7B184601F08E
:101E30002FFAC82008F08EF93B689AB27B689BB2F3
:101E4000D31A9BB21A463B7B92FBF3F37B817A7BDE
:101E5000234B798923F8121007F0CCFC214807F0B6
:101E600097FA3B689BB2184600F036F90120002132
:101E700007F0C4FA1C4807F08BFA7B89184600F07B
:101E80002BF97B8940F2426019460CF089FA002355
:101E9000FB7306E00A2008F05DF906F099F80346A6
:101EA000FB73FB7B022BF5D107F0A4FCC82008F0E4
:101EB00051F91037BD4680BD5CEA000868EA0008A9
:101EC000701800206CEA000870EA000874EA000844
:101ED00078EA000888EA000898EA0008A8EA0008FA
:101EE000F81A0020B8EA0008C0EA000880B584B0FB
:101EF00000AF13460246FA710A46BA71BB8000234E
:101F0000FB60BB880F4A128802FB03F20E4BA3FB57
:101F10000213DB08FB60002001F0C6F8BA790B4B16
:101F2000002143F8221002E00A2008F013F9074BC1
:101F30001A68FB689A42F7D3002001F0A9F910371C
:101F4000BD4680BDF81A0020CDCCCCCC7018002046
:101F500080B584B000AF13460246FA710A46BA71E2
:101F6000BB800023BB600023FB8100237B7307F051
:101F700041FC4F4807F00CFA06E00A2008F0EAF8A6
:101F800006F026F803467B737B7B002BF5D07B7B2A
:101F9000022B01D1FFF7A8FE01233B7380E007F07D
:101FA00029FC444807F0F4F9434B1B88184600F01D
:101FB00093F8FB891846052104F0D8FF0346FB81FE
:101FC000FB893D4A128802FB03F23C4BA3FB021340
:101FD000DB08BB6007F00EFC394807F0D9F9BB6895
:101FE0009BB2184600F078F80120002107F006FAAD
:101FF000344807F0CDF9BA79334B53F82220324BED
:1020000053F822309BB2184600F066F800237B7329
:10201000002001F049F8BA792B4B002143F8221037
:102020001BE00A2008F096F807F0E4FB274807F0C9
:10203000AFF9BA79244B53F822309BB2184600F01E
:102040004BF80120002107F0D9F9214807F0A0F949
:10205000BB689BB2184600F03FF81B4B1A68BB6880
:102060009A42DED3002001F013F907F0C3FB1948B0
:1020700007F08EF906E00A2008F06CF805F0A8FFDA
:1020800003467B737B7B002BF5D07B7B022B05D13A
:1020900001233B730C4B00221A6001E000233B73C9
:1020A0003B7B012B3FF47BAF1037BD4680BD00BFAB
:1020B000C8EA0008D8EA0008F81A0020CDCCCCCC39
:1020C000E4EA0008ECEA000870180020F0EA0008D2
:1020D000F8EA0008FCEA000880B582B000AF0346C9
:1020E000FB80FA88164BA3FB02135B0B9BB2DBB29F
:1020F000184606F063F8FB88114AA2FB0312520B44
:1021000042F2107101FB02F29B1A9AB20D4BA3FB33
:1021100002135B099BB2DBB2184606F04FF8FB884E
:10212000084AA2FB03125209642101FB02F29B1A26
:102130009BB2DBB2184606F041F80837BD4680BDB9
:102140005917B7D11F85EB5180B485B000AF396006
:1021500013460246FA71BB710023FB730023FB7325
:1021600009E0FB7B3A6813441A78FB795340FB7112
:10217000FB7B0133FB73FA7BBB799A42F1D3FB798A
:1021800018461437BD465DF8047B704780B500AF34
:10219000574B1B78062B02D9554B00221A70554815
:1021A00040F2255108F058FE0346002B0ED051484E
:1021B00008F032FE0346DAB24F4B1A704D4B4D4ACF
:1021C000128892B222F0200292B21A80494B494AF8
:1021D000128892B222F0400292B21A80474B1B78CA
:1021E000002B17D0464B1A78464B1B789A4211D2D7
:1021F000404A434B1B78591CC8B2414908704249B8
:10220000CB5C93803B4B3B4A128892B222F0400257
:1022100092B21A803D4B1B78002B67D13C4B1B7848
:10222000042B32D13B4B1B78002B03D1324B1A7855
:10223000394B1A70374B1B785A1CD1B2354A117082
:102240002D4A1178354AD154324B1A78324B1B78CB
:102250009A421AD1304B1B78302030491A46FFF78A
:1022600073FF03461A462E4B1A702D4B1B78002B1A
:1022700003D1264B01221A7001E000F093F8244BA1
:1022800000221A70234B00221A701B4B1B785A2B0A
:1022900003D1244B01221A7028E0174B1B78582BCE
:1022A00007D1204B1B78012B03D11E4B02221A7041
:1022B0001CE01C4B1B78022B18D10F4B1B78302BCA
:1022C00011D00D4B1B78312B03D1114B03221A7007
:1022D00009E0094B1B78322B05D10D4B04221A70F3
:1022E0000C4B00221A700F4B00221A7080BD00BFE9
:1022F0005B00002000380140F21A00205900002045
:102300005A000020190000203C1B0020B9000020CA
:10231000B8000020B6000020B7000020841800207C
:10232000BA000020B500002080B582B000AF786010
:102330000A4B1B78012B04D100F04EF8074B00220A
:102340001A700A2007F006FF054B1B78012B01D1FC
:1023500000F008F80A2007F0FDFEE9E7B9000020C8
:102360005900002080B500AF0A4BDA780A4B1A708A
:102370000A4B00221A7002E0052007F0EBFE074B23
:102380001A78054B1B789A42F6D3054B00221A7037
:1023900080BD00BF3C1B0020190000205A00002017
:1023A0005900002080B483B000AF0023FB710023EC
:1023B000FB7106E0FB79074A0021D154FB79013318
:1023C000FB71FB790F2BF5D90C37BD465DF8047B0B
:1023D000704700BF8418002080B500AF894B5B7840
:1023E000142B00F20B8101A252F823F041240008C3
:1023F00065240008772400088B2400089324000833
:102400009F240008AB240008B7240008C324000858
:10241000D7240008E9240008F32400083F25000819
:1024200063250008692500087B2500089925000818
:10243000B7250008D3250008EF250008F52500087A
:10244000704B99786F4BDA786E4B1B791B0298B200
:102450006C4B5B7903449BB2084611461A46FFF762
:1024600045FDCBE0674B9A78664BDB781046194602
:1024700004F060FBC2E0644B33221A70634B1B789C
:102480001846002104F056FBB8E05F4B30221A706A
:10249000B4E05C4B9B78184600F006FEAEE0594B6A
:1024A0009B78184600F0F4FEA8E0564B9B7818463F
:1024B00000F0F8FBA2E0534B9B78184600F082F93D
:1024C0009CE0514B1B78332B04D14E4B9A78504BE8
:1024D0001A7093E092E04B4B9A784A4BDB781046A7
:1024E000194601F095FF89E0464B9A78494B1A70DE
:1024F00084E0474B00221A70434B33221A70444B3E
:1025000000221A700020002104F014FB0120002199
:1025100004F010FB0220002104F00CFB032000213A
:1025200004F008FB022000F0B3FE032000F0B0FE30
:10253000002000F0ADFE012000F0AAFE5EE0314B6D
:102540009B781A022F4BDB7813441A022D4B1B7910
:1025500013441A022B4B5B791344184605F0A2FB77
:102560004CE0FFF76BFB49E0264B9A78254BDB7874
:102570001046194601F0B8FF40E0224B9B781A46FE
:10258000204BDB781B029BB213409BB29BB21846D8
:10259000012100F043F831E01A4B9B781A46194BA1
:1025A000DB781B029BB213409BB29BB21846022100
:1025B00000F034F822E0134B9B781A46114BDB787D
:1025C0001B029BB213449BB21846012100F062F833
:1025D00014E00C4B9B781A460A4BDB781B029BB22B
:1025E00013449BB21846022100F054F806E006F0AE
:1025F00075F903E0084B00221A7000BFFFF7D2FE06
:1026000080BD00BF84180020180000209200002028
:102610001B000020281B00205800002080B584B03B
:1026200000AF02460B46FA807B710023FB6000235B
:102630007B817B79012B0FD1154B1B791A46144BEB
:102640005B791B029BB213409BB27B81FA887B892A
:10265000104619460BF0A4FE7B79022B14D10C4BCB
:102660001B791A460A4B5B791B021A40084B9B796F
:102670001B041A40064BDB791B061340FB60FB88EA
:102680001846F96804F08CFA1037BD4680BD00BFCB
:102690008418002080B586B000AF02460B46FA8051
:1026A0007B717B79012B2ED1414B9B781A46404B95
:1026B000DB781B029BB213409BB2FB82FA8A07F1C4
:1026C0000E03104619460BF01FFE3A4B5A221A70A1
:1026D000384B58225A70374B31229A70354B0922A9
:1026E000DA70334B9A78334B1A71314BDA78314BBD
:1026F0005A71FB89DAB22F4B9A71FB891B0A9BB284
:10270000DAB22C4BDA717B79022B35D1284B9B78CE
:102710001A46274BDB781B029BB213409BB2FB820D
:10272000FB8A184605F072FF3861224B5A221A7054
:10273000204B58225A701F4B31229A701D4B0B228E
:10274000DA701B4B9A781B4B1A71194BDA78194BBC
:102750005A713B69DAB2174B9A713B691B0ADAB2BC
:10276000144BDA713B691B0CDAB2124B1A723B69DB
:102770001B0EDAB20F4B5A720E4BDB78013BDBB209
:1027800000200C491A46FFF7DFFC03461A46094BA6
:1027900083F82720074BDA78074B1A70074B002283
:1027A0001A70074B01221A701837BD4680BD00BF52
:1027B000841800203C1B0020190000205A00002033
:1027C0005900002080B582B000AF0346FB71964BE4
:1027D0005A221A70944B58225A70934B33229A7093
:1027E000914B2822DA70FB79012B40F0C4808F4B8B
:1027F0001A788D4B1A718E4B1B68DAB28A4B5A715C
:102800008C4B1B68DAB2884B9A718B4B1A78864BCB
:10281000DA718A4B1B68DAB2834B1A72884B1A78CA
:10282000814B5A72874B1A787F4B9A72854B5A7834
:102830007D4BDA72834B9A787B4B1A73814BDA7833
:10284000794B5A73804B1B8B9BB2DAB2764B9A73DF
:102850007D4B1B8B9BB21B0A9BB2DAB2724BDA73B5
:10286000794B9B8B9BB2DAB26F4B1A74764B9B8B76
:102870009BB21B0A9BB2DAB26B4B5A74734B1B8828
:10288000DAB2694B9A74714B1B881B0A9BB2DAB29D
:10289000654BDA746D4B5B88DAB2634B1A756B4B20
:1028A0005B881B0A9BB2DAB25F4B5A75684B1B8878
:1028B000DAB25D4B9A75664B1B881B0A9BB2DAB283
:1028C000594BDA75624B5B88DAB2574B1A76604B1C
:1028D0005B881B0A9BB2DAB2534B5A765C4B9B88DF
:1028E000DAB2514B9A765A4B9B881B0A9BB2DAB2EA
:1028F0004D4BDA76564BDB88DAB24B4B1A77544B9A
:10290000DB881B0A9BB2DAB2474B5A77514B1B68E4
:10291000DAB2454B9A774F4B1B681B0ADAB2424B2F
:10292000DA774C4B1B681B0CDAB23F4B83F8202044
:10293000484B1B681B0EDAB23B4B83F82120464BF9
:102940001A78394B83F82220444B1A78364B83F897
:1029500023203E4B5B88DAB2334B83F824203B4B79
:102960005B881B0A9BB2DAB22F4B83F825202E4BD3
:10297000FA7983F82620FB79022B3DD1384B1B884E
:10298000DAB2294B1A71364B1B881B0A9BB2DAB29A
:10299000254B5A71334B1B88DAB2234B9A71314B5A
:1029A0001B881B0A9BB2DAB21F4BDA711E4B002246
:1029B0001A72274B1B881B0A9BB2DAB21A4B5A7247
:1029C000234B5B88DAB2184B9A72214B5B881B0A47
:1029D0009BB2DAB2144BDA721D4B9B88DAB2124BFF
:1029E0001A731B4B9B881B0A9BB2DAB20E4B5A73AD
:1029F0000D4BFA7983F82620FB79032B5CD11A4B17
:102A00009B68DAB2084B1A71174B9B681B0ADAB243
:102A1000054B5A71144B9B681B0CDAB2024B9A712E
:102A2000114B9B681B0E21E03C1B0020180000206E
:102A3000F41A0020801800201C1B0020341B0020EA
:102A4000951800209C1B002000280040641B0020DB
:102A50007C1B002070180020C81A00201B000020DA
:102A6000940000209600002000080140DAB27B4B61
:102A7000DA717B4B9B68DAB2784B1A72784B9B68A1
:102A80001B0ADAB2754B5A72754B9B681B0CDAB293
:102A9000724B9A72724B9B681B0EDAB26F4BDA72F2
:102AA000704B9A786D4B1A736E4BDA786B4B5A7386
:102AB0006A4BFA7983F82620FB79042B38D16A4BCC
:102AC0001A78664B1A71694B1A78644B5A71684BC5
:102AD0001B789B00DAB2674B1B781344DAB25F4B6A
:102AE0009A71654B1B88DAB25C4BDA71634B1B88B9
:102AF0001B0A9BB2DAB2594B1A72584B00225A7217
:102B00005F4B1A78554B9A725E4B1B88DAB2534B67
:102B1000DA725C4B1B881B0A9BB2DAB24F4B1A73FA
:102B2000594B1A784D4B5A734C4BFA7983F826203F
:102B3000FB79052B3AD1554B1B88DAB2474B1A71FA
:102B4000524B1B881B0A9BB2DAB2444B5A714F4B53
:102B50005B88DAB2414B9A714C4B5B881B0A9BB283
:102B6000DAB23E4BDA714A4B1B68DAB23B4B1A724F
:102B7000474B1B681B0ADAB2384B5A72444B1B682E
:102B80001B0CDAB2354B9A72414B1B681B0EDAB242
:102B9000324BDA723F4B1A78304B1A733A4B1A7831
:102BA0002E4B5A732D4BFA7983F82620FB79062B8E
:102BB0003DD1364B1B88DAB2284B1A71334B1B8838
:102BC0001B0A9BB2DAB2254B5A71304B5B88DAB2E2
:102BD000224B9A712D4B5B881B0A9BB2DAB21F4BBA
:102BE0005A712B4B5B68DAB21C4B1A72284B5B682C
:102BF0001B0ADAB2194B5A72254B5B681B0CDAB20E
:102C0000164B9A72224B5B681B0EDAB2134BDA72C8
:102C10001C4B5B88DAB2114B1A731A4B5B881B0A88
:102C20009BB2DAB20D4B5A730C4BFA799A750020AD
:102C30000A492722FFF788FA03461A46074B83F80A
:102C40002720064BDA78144B1A70144B00221A70A6
:102C5000134B01221A700837BD4680BD3C1B002073
:102C6000000C01409C1B0020AC000020AD000020A7
:102C7000AF000020AE0000208E1B00201A1B002099
:102C8000C81A0020F81A0020001B0020641B002036
:102C900070180020281B0020190000205A00002076
:102CA0005900002080B584B000AF0346FB710023BB
:102CB000FB730023BB8100237B81204BDAB2204BC6
:102CC0001A70204BDAB21E4B5A701F4BDAB21C4BF3
:102CD0009A701B4B0D22DA70194BFA791A71002386
:102CE000FB7321E0FB7903F5B8735A00FB7B1344B7
:102CF0009BB25B00BB81BA8907F10A0310461946F3
:102D00000BF002FBFB7B5B0005330D4A0021D15425
:102D1000FB7B03335B007A89D2B25242D1B2084ABC
:102D2000D154FB7B0133FB73FB7B032BDAD9074BBD
:102D300001221A701037BD4680BD00BF04EB0008A9
:102D40003C1B002008EB00080CEB00085900002099
:102D500080B400AF024B1B68BD465DF8047B704732
:102D60000000024080B400AF024B1B68BD465DF816
:102D7000047B70470000024080B586B000AF0120A0
:102D8000012107F075F84FF40073BB820323BB7574
:102D90001823FB7507F1140323481946FEF7D2FDEB
:102DA0004FF48063BB820423FB7507F114031E48B4
:102DB0001946FEF7C7FD1D4807F0F8FE4FF48040A6
:102DC000012107F073F84FF416537B6000233B8119
:102DD00000237B810023BB8100233B820C23FB81EA
:102DE0003B1D1248194607F03DFF10484FF458713B
:102DF00008F022F80D4B0D4A928992B242F020025F
:102E000092B29A81094B094A928992B242F04002E9
:102E100092B29A810548012107F0DEFF2520FEF7D6
:102E2000F5FE1837BD4680BD00080140003801405E
:102E300080B582B000AF4FF4B873BB802823FB711C
:102E40003B1D03481946FEF77DFD0837BD4680BD92
:102E50000008014080B588B000AF1020012107F0C4
:102E600025F80220012107F03FF807F11C0318465E
:102E7000FEF724FE4FF47073BB830323BB77182344
:102E8000FB7707F11C0320481946FEF75BFD1F483E
:102E90000121FEF743FE07F110031846FDF71CFC65
:102EA0004FF40073FB8240F2E733BB82EF233B8297
:102EB00007F1100316481946FDF734F93B4618464A
:102EC000FDF724FC01237B8060233B800023FB80F3
:102ED0003B460F481946FDF7A1F93B460C481946F9
:102EE000FDF728FA3B460A481946FDF7ABFA3B4680
:102EF00007481946FDF72CFB05480121FDF728FC82
:102F00002037BD4680BD00BF00100140000C1A00F4
:102F10000004004080B582B000AF06F06BFC0023D7
:102F2000FB8000237B7100233B7106F063FC2D487E
:102F300006F02EFA3B1D40F2446019460BF0E4F90E
:102F40003B79184603F078FF03463B713B7940F22A
:102F5000446019460BF024FA03F06CFA0A2007F0DB
:102F6000F9F806F047FC204806F012FA1CE005F0DC
:102F70002FF803467B711D4B1B88FB80052007F053
:102F8000E9F80120002106F039FAFA88184BA3FB72
:102F900002135B099BB2DBB2184605F00FF9FB8800
:102FA000DBB2184605F00AF97B79022BDFD10A2043
:102FB00007F0D0F8FB8840F2226019460BF0F0F9D8
:102FC00003F038FA4FF4FA6007F0C4F8094806F045
:102FD000DFF900237B7106F00DFC05F07FFC08375C
:102FE000BD4680BD10EB000820EB0008641B0020EC
:102FF0001F85EB5134EB000880B582B000AF012093
:1030000007F0A8F80023BB800023FB713B1D40F2B2
:10301000446019460BF078F9012007F09BF8BB8853
:10302000FB711A4B1B7803F002035B10012B2AD1B2
:10303000FB79032B27D80023BB71154B1B781A464D
:10304000FB7942FA03F3DBB203F00103BB71BB79F6
:10305000002B18D10F4B1B881A460F4B1B880233CD
:103060009A4203DDFB79184600F01EF8012007F0B4
:1030700071F8084B1A88084B1B889A4203D2FB79D7
:10308000184600F005F90837BD4680BD1B0000203A
:1030900058000020641B0020B01B002080B400AF4B
:1030A000BD465DF8047B704780B584B000AF034631
:1030B000FB71012007F04EF80023FB72704B1B7868
:1030C0001A46FB7942FA03F3DBB203F00103FB7209
:1030D000FB7A002B40F0B080FB79012202FA03F367
:1030E000DAB2674B1B78DBB21343DBB2DAB2644B64
:1030F0001A70FB79002B03D0FB79012B40F08A80FA
:103100000023FB730023BB720023BB73FB79002BEE
:1031100007D15C4B9B681B09DBB203F00103FB7317
:1031200006E0584B9B681B0ADBB203F00103FB73FC
:10313000012007F00FF8544B1B781A46FB7942FA2E
:1031400003F3DBB203F00103BB72FB7B002B41D125
:10315000BB7A002B3ED1FB79184600F073F94FF48F
:103160001673BB8120E0FB79002B07D1454B9B6890
:103170001B09DBB203F00103FB7306E0414B9B68C4
:103180001B0ADBB203F00103FB73FB7B012B03D1B2
:10319000BB7B0133BB7301E00023BB73012006F04E
:1031A000D9FFBB89013BBB81BB7B022B02D8BB890A
:1031B000002BD8D1BB89002B0CD1FB79012202FA5C
:1031C00003F3DAB2304B1B78DBB21343DBB2DAB273
:1031D0002D4B1A70FB79184600F04AF9FB79012251
:1031E00002FA03F3DBB2DB43DAB2284B1B78DBB223
:1031F0001340DBB2DAB2254B1A70FA7BFB7902FA84
:1032000003F3DAB2214B1B78DBB21343DBB2DAB241
:103210001E4B1A70052006F09DFFFB79012202FA71
:1032200003F3DBB2DB43DAB2154B1B78DBB213409E
:10323000DBB2DAB2124B1A70FB79022B02D0FB79A7
:10324000032B16D10F4B0F4A5169FA790B3201202B
:1032500000FA02F20A435A61FB79012202FA03F3EF
:10326000DAB20A4B1B78DBB21343DBB2DAB2074B9C
:103270001A70012006F06EFF1037BD4680BD00BFFA
:103280005800002000080140281B00201C1B0020C3
:1032900080B584B000AF0346FB71012006F05AFFF1
:1032A0000023FB72634B1B781A46FB7942FA03F347
:1032B000DBB203F00103FB72FB7A002B40F0958038
:1032C000FB79012202FA03F3DAB25A4B1B78DBB224
:1032D0001343DBB2DAB2574B1A700023FB7300239F
:1032E000BB730023BB724FF41673BB81FB79002BB9
:1032F00007D1514B9B681B09DBB203F00103BB7381
:1033000006E04D4B9B681B0ADBB203F00103BB7365
:10331000FB79012202FA03F3DAB2484B1B78DBB2E5
:103320001340DBB2BB72012006F014FFBA7AFB79BE
:1033300042FA03F3BB72BB7B012B34D1BB7A002B67
:1033400031D1FB79002B02D0FB79012B2BD1FB79FA
:10335000184600F077F820E0FB79002B07D1364BB8
:103360009B681B09DBB203F00103BB7306E0324B21
:103370009B681B0ADBB203F00103BB73BB7B002B12
:1033800003D1FB7B0133FB7301E00023FB730120BE
:1033900006F0E0FEBB89013BBB81FB7B022B02D820
:1033A000BB89002BD8D1FB79184600F061F8FB7976
:1033B000012202FA03F3DBB2DB43DAB2204B1B78C3
:1033C000DBB21340DBB2DAB21D4B1A70FB7901227B
:1033D00002FA03F3DBB2DB43DAB2164B1B78DBB243
:1033E0001340DBB2DAB2134B1A70FB79022B02D016
:1033F000FB79032B18D1104B0F4A1169FA790B3264
:10340000012000FA02F20A431A61FB79012202FA52
:1034100003F3DBB2DB43DAB2094B1B78DBB21340B8
:10342000DBB2DAB2064B1A70012006F093FE1037B9
:10343000BD4680BD5800002000080140281B002028
:103440001C1B002080B483B000AF0346FB71074B08
:10345000064A5169FA790B32012000FA02F20A4356
:103460005A610C37BD465DF8047B70470008014087
:1034700080B483B000AF0346FB71074B064A116965
:10348000FA790B32012000FA02F20A431A610C3772
:10349000BD465DF8047B70470008014080B500AF71
:1034A000012006F07BFD034B1B685A1C014B1A6080
:1034B00080BD00BF7018002080B500AF022006F06C
:1034C0006DFD034B5B685A1C014B5A6080BD00BF09
:1034D0007018002080B500AF042006F05FFD80BDAD
:1034E00080B500AF4FF4806006F058FD4FF40060E7
:1034F00006F054FD4FF4805006F050FD80BD00BF33
:1035000080B500AF202006F049FD402006F046FDC2
:10351000802006F043FD80BD80B582B000AF00235F
:10352000FB710023BB7106F065F974E0142006F00E
:1035300011FE04F04DFD0346FB710020002105F053
:103540005DFF394805F024FFBB79184604F036FECC
:10355000FB79042B03D1BB791846FFF7A5FDFB7956
:10356000032B03D1BB791846FFF792FEFB79012BA1
:1035700008D1BB79012B03D8BB790133BB7101E0C2
:103580000023BB71012006F0E5FD0120002105F0BC
:1035900035FF264805F0FCFE254B1B78184604F045
:1035A0000DFE012006F0D6FD224805F0F1FE224B6B
:1035B0009B6803F01003002B03D0204805F0E8FEC1
:1035C00002E01F4805F0E4FE1B4B9B6803F020035C
:1035D000002B03D0194805F0DBFE1CE0184805F06D
:1035E000D7FE154B9B6803F04003002B03D0134814
:1035F00005F0CEFE02E0124805F0CAFE0E4B9B68B5
:1036000003F48073002B03D00C4805F0C1FE02E0E8
:103610000B4805F0BDFEFB79022B87D106F0EAF8D6
:103620000837BD4680BD00BF40EB00084CEB0008EA
:103630001C1B002050EB00080008014058EB00085C
:103640000CEB000880B582B000AF0023FB710223B1
:10365000BB7106F0CFF86EE0142006F07BFD04F09D
:10366000B7FC0346FB710020002105F0C7FE364879
:1036700005F08EFEBB79184604F0A0FDFB79042B03
:103680000DD1324B314A1169BA790B32012000FA5F
:1036900002F20A431A61BB791846FFF7D3FEFB79A1
:1036A000032B0DD1294B294A5169BA790B320120DC
:1036B00000FA02F20A435A61BB791846FFF7D8FEB6
:1036C000FB79012B08D1BB79032B03D8BB790133DC
:1036D000BB7101E00223BB71012006F03BFD01201C
:1036E000002105F08BFE1A4805F052FE194B1B789D
:1036F000184604F063FD012006F02CFD164805F085
:1037000047FE124BDB6803F40053002B03D0134831
:1037100005F03EFE02E0124805F03AFE0B4BDB6876
:1037200003F48043002B03D00C4805F031FE02E087
:103730000B4805F02DFEFB79022B8DD106F05AF8CF
:103740000837BD4680BD00BF40EB000800080140BF
:103750004CEB00081C1B002050EB000858EB000845
:103760000CEB000880B582B000AF0023FB71002392
:10377000BB8006F03FF87FE0142006F0EBFC04F07D
:1037800027FC0346FB710020002105F037FE414B6A
:103790001B88BB80BB88DBB2184604F00FFD3D4B95
:1037A0005B88BB80BB88DBB2184604F007FD3A4853
:1037B00005F0EEFD394B9B8CBB80BB881846FEF7AD
:1037C0008BFCFB79042B02D10120FFF76DFCFB7908
:1037D000012B05D10120FFF74BFE0120FFF758FD1B
:1037E000012006F0B7FC0120002105F007FE2C4B5C
:1037F0001B78184604F0E2FC2A4805F0C9FD0023B6
:103800007B80294B9B685B097B807B881846FEF791
:1038100063FC264805F0BCFD012006F09BFC224B12
:103820009B685B0903F00103002B03D0204805F0DF
:10383000AFFD02E01F4805F0ABFD1B4B9B689B09E9
:1038400003F00103002B03D0194805F0A1FD02E0AD
:10385000184805F09DFD144B9B68DB0903F001033C
:10386000002B03D0124805F093FD02E0114805F04B
:103870008FFD114805F08CFDFB79022B7FF47CAFA6
:1038800005F0B8FFFFF748FEFFF7DCFE0837BD463E
:1038900080BD00BF641B00205CEB000800480140B5
:1038A0001C1B002060EB00080008014064EB0008CE
:1038B00058EB00080CEB000868EB000880B586B0F8
:1038C00000AF0346FB710023BB8200237B81FB79A1
:1038D0009BB21B019BB203F21463BB82BA8A07F14D
:1038E0000A03104619460AF00FFD05F083FF9648BB
:1038F00005F04EFD7B89184603F0E8FA03467B810C
:103900007B89BA8A104619460AF04AFDFB799BB2B8
:103910001B019BB203F21563BB82BA8A07F10A034B
:10392000104619460AF0F0FC05F064FF874805F0E0
:103930002FFD7B89184603F0C9FA03467B817B89FA
:10394000BA8A104619460AF02BFDFB799BB21B017F
:103950009BB203F21663BB82BA8A07F10A031046D0
:1039600019460AF0D1FC05F045FF794805F010FD35
:103970007B89184603F0AAFA03467B817B89BA8AC1
:10398000104619460AF00CFD07F10A0340F69900AB
:1039900019460AF0B9FC05F02DFF6E4805F0F8FC59
:1039A0007B89DBB2184603F047FA03467B817B89AB
:1039B00040F6990019460AF0F3FC7B89DAB2664BAF
:1039C0001A707B8903F2FF53BB82BB8A18464621DB
:1039D0000AF0E6FC7B89614A4621D154FB799BB20F
:1039E0001B019BB203F21E63BB82BA8A07F10A0372
:1039F000104619460AF088FC05F0FCFE584805F010
:103A0000C7FC7B89DBB2184603F016FA03467B81BC
:103A10007B89BA8A104619460AF0C2FC7B8903F2F8
:103A2000FF53BB82BB8A184647210AF0B9FC7B8949
:103A30004A4A4721D154FB799BB21B019BB203F246
:103A40001763BB82BA8A07F10A03104619460AF0C7
:103A50005BFC05F0CFFE434805F09AFC7B891846D5
:103A600003F034FA03467B817B89BA8A10461946F3
:103A70000AF096FCFB799BB21B019BB203F5C36372
:103A8000BB82BB8A184604F0C1FD386105F0B2FE66
:103A9000354805F07DFC4FF4FA7006F05BFB3869A1
:103AA00003F0BCFA3861BB8A1846396903F078F82C
:103AB000FB799BB21B019BB203F22263BB82BA8AE1
:103AC00007F10A03104619460AF01EFC05F092FEA3
:103AD000264805F05DFC4FF4FA7006F03BFB7B894D
:103AE000184603F0F3F903467B817B89BA8A1046B6
:103AF00019460AF055FCFB799BB21B019BB203F2FD
:103B00001F63BB82BA8A07F10A03104619460AF0FE
:103B1000FBFB05F06FFE164805F03AFC7B89DBB233
:103B2000184603F089F903467B817B89BA8A1046DF
:103B300019460AF035FC05F05DFE0E4805F028FC3C
:103B40000023FB751FE000BF6CEB00087CEB000856
:103B500090EB0008A4EB0008D01A00201C00002005
:103B6000B8EB0008C8EB0008D8EB0008ECEB000845
:103B7000FCEB000808EC000804F02AFA0346FB7589
:103B80000A2006F0E7FAFB7D002BF5D0FB7D022B27
:103B900020D1FB799BB21B019BB203F21A63BB825B
:103BA00004F06EF8F860BB8A1846F96802F0F8FF76
:103BB000FB799BB21B019BB203F21C63BB8204F036
:103BC0005FF802463B69D31A0533BA8A1046194694
:103BD00002F0E6FFFB7D032B1ED105F00BFE24480F
:103BE00005F0D6FB4FF47A7006F0B4FAFB799BB27D
:103BF0001B019BB203F21A63BB82BB8A184604F016
:103C000005FDF860F868012103F0F6FBF860BB8A57
:103C10001846F96802F0C4FF05F0ECFD154805F000
:103C2000B7FB4FF47A7006F095FAFB7962339BB2DA
:103C30001B01BB82BB8A184604F0E8FCF860F868F8
:103C4000012103F0D9FBF860BB8A1846F96802F03D
:103C5000A7FF05F0CFFDC82006F07CFA06F0DCFADD
:103C600004F03CFE06F0E6FA1837BD4680BD00BF02
:103C700018EC000824EC000880B582B000AF0023E7
:103C8000FB7105F0B7FD094805F082FBC82006F07E
:103C900061FAFB79184603F0CFF80346FB71FB7914
:103CA000184600F021F80837BD4680BD30EC00080A
:103CB00080B582B000AF0023FB7105F09BFD094881
:103CC00005F066FBC82006F045FAFB79184603F0BC
:103CD000B3F80346FB71FB791846FFF7EFFD083791
:103CE000BD4680BD30EC000880B584B000AF03460F
:103CF000FB710023FB810023BB81FB799BB21A4639
:103D0000D200D31A9BB203F24563FB81FA8907F113
:103D10000C03104619460AF0F7FA05F06BFD6048EF
:103D200005F036FBBB89184603F0D0F80346BB818B
:103D3000BB89FA89104619460AF032FBFB799BB21F
:103D40001A46D200D31A9BB203F24663FB81FA896A
:103D500007F10C03104619460AF0D6FA05F04AFDA1
:103D6000504805F015FBBB89184603F0AFF8034631
:103D7000BB81BB89FA89104619460AF011FBFB7911
:103D80009BB21A46D200D31A9BB203F24763FB815F
:103D9000FA8907F10C03104619460AF0B5FA05F046
:103DA00029FD414805F0F4FABB89184603F08EF866
:103DB0000346BB81BB89FA89104619460AF0F0FA1E
:103DC000FB799BB21A46D200D31A9BB203F5C963A2
:103DD000FB81FA8907F10C03104619460AF094FAA0
:103DE00005F008FD314805F0D3FABB89184603F009
:103DF0006DF80346BB81BB89FA89104619460AF063
:103E0000CFFAFB799BB21A46D200D31A9BB203F2C7
:103E10004963FB81FA8907F10C03104619460AF041
:103E200073FA05F0E7FC224805F0B2FABB891846A0
:103E300003F04CF80346BB81BB89FA89104619464A
:103E40000AF0AEFAFB799BB21A46D200D31A9BB2A3
:103E500003F24A63FB81FA8907F10C031046194605
:103E60000AF052FA05F0C6FC124805F091FABB8937
:103E7000184603F02BF80346BB810A2006F06AF9C6
:103E8000BB89FA89104619460AF08AFA05F0B2FC95
:103E90000A2006F05FF904F021FD1037BD4680BD11
:103EA0003CEC000850EC000860EC000870EC0008E6
:103EB0007CEC00088CEC000890B585B000AF0023C6
:103EC000BB730023FB7305F095FC2F4805F060FAE7
:103ED000C82006F03FF9BB7B184602F0ADFF034651
:103EE000BB7305F087FC294805F052FABB7B1846E6
:103EF00004F064F9264805F04BFA06E01E2006F0AF
:103F000029F904F065F80346FB73FB7B022B02D012
:103F1000FB7B032BF2D1C82006F01CF9FB7B022BA4
:103F200029D1BB7B1B0103F5C363BB60BB689BB29C
:103F3000184604F06BFB7860BB7B1B0103F21A632D
:103F4000BB6003F09DFE3860BB689BB218463968C1
:103F500002F026FEBB7B1B0103F21C63BB60BB6847
:103F60009CB203F08DFE02467B68D31A05332046CF
:103F7000194602F015FE05F03DFCC82006F0EAF8EF
:103F80001437BD4690BD00BF30EC000898EC000827
:103F9000A4EC000880B58EB000AF0346FB71FB793E
:103FA000012202FA03F3DAB2974B1B78DBB2134318
:103FB000DBB2DAB2944B1A700120FFF769F90023E3
:103FC0003B82002387F8363000233B630023BB622B
:103FD0000023FB600023FB62012006F0BBF8FB79A5
:103FE0009BB21B019BB203F21463FB84FA8C07F1B2
:103FF0001403104619460AF087F9FB799BB21B019E
:104000009BB203F21663FB84FA8C07F10C03104693
:1040100019460AF079F903F033FE3863FB683A6B0E
:104020001344BB62052006F095F80020FFF73CF82A
:1040300018E003F025FE3863BB8A012202FA03F37D
:10404000DAB2724B1B78DBB21340DBB287F8363042
:1040500097F83620BB8A42FA03F387F836301920E6
:1040600006F078F897F83630002B03D13A6BBB6A2C
:104070009A42DED30020FFF70BF94FF47A7006F076
:1040800069F8002387F837307AE000237B8100232A
:104090003B620023FB610023BB61FB799BB21B01E8
:1040A0009BB203F5C363FB84FB8C184604F0AEFAA5
:1040B000F861FB799BB21B019BB203F21A63FB848C
:1040C000FB8C184604F0A2FAB86197F837309BB21F
:1040D0001A46D200D31A9BB203F24963FB84FA8CCE
:1040E00007F10A03104619460AF00EF903F0C8FD5D
:1040F0000246BB69D21AFB69B2FBF3F33B627B89D0
:104100003A6AB2FBF3F3FB7500233B8197F8373033
:104110009BB21A46D200D31A9BB203F5C963FB8443
:10412000FA8C07F11203104619460AF0EDF897F8D9
:1041300037309BB21A46D200D31A9BB203F24A63BD
:10414000FB84FA8C07F10803104619460AF0DCF8E4
:10415000FB799AB27B8A9A420AD13B89012B07D11B
:10416000FB7D002B04D197F83730184600F0CEF8CD
:104170000A2005F0EFFF97F83730013387F8373022
:1041800097F83730082B80D9FB799BB21B019BB283
:1041900003F21763FB84FA8C07F10C0310461946EF
:1041A0000AF0B2F8FB799BB21B019BB203F21E63CB
:1041B000FB84FA8C07F11003104619460AF0A4F8A4
:1041C0000A2005F0C7FF03F05BFD386303F058FDDC
:1041D0000246FB681344BB620A2005F0BBFFFB7973
:1041E0009BB21B019BB203F21563FB84FA8C07F1AF
:1041F0001403104619460AF087F8002387F8373071
:10420000012387F8363046E095180020001B002077
:104210000A2005F09FFFBB8A012202FA03F3DAB2FB
:10422000374B1B78DBB21340DBB287F8363097F898
:104230003620BB8A42FA03F387F83630314B1B68CD
:10424000DBB203F0010387F8373003F019FD0246B3
:10425000FB6A9A420DD997F83730012B09D197F8AC
:104260003630012B05D13B6B01333B6303F008FD76
:10427000F862052005F06EFF3B8ADAB297F8371036
:1042800097F836300B40DBB203F00103DBB2104687
:10429000194602F04FFC3A6BBB6A9A42B8D33B8A8C
:1042A000DBB21846002102F045FC0A2005F052FF5F
:1042B0000120FEF7F9FEFB799BB21B019BB203F2D2
:1042C0001C63FB8403F0DCFC0346FA8C10461946A1
:1042D00002F066FCFB79012202FA03F3DBB2DB4356
:1042E000DAB2094B1B78DBB21340DBB2DAB2064B11
:1042F0001A70C82005F02EFF3837BD4680BD00BFBC
:10430000001B0020801800209518002080B586B082
:1043100000AF0346FB7100237B61FB799BB21A4619
:10432000D200D31A9BB203F246637B827A8A07F1EA
:1043300010031046194609F0E7FFFB799BB21A46B5
:10434000D200D31A9BB203F245637B827A8A07F1CB
:104350000E031046194609F0D7FFFB799BB21A46A7
:10436000D200D31A9BB203F247637B827A8A07F1A9
:104370000C031046194609F0C7FF03F081FC024602
:104380003B8A13447B61FB89DBB21846012100F0B4
:104390003FF802E00A2005F0DDFE03F071FC024662
:1043A0007B699A42F6D3FB89DBB21846002100F004
:1043B0002FF8BB89184600F003F81837BD4680BDBA
:1043C00080B584B000AF0346FB800023FB6003F0A0
:1043D00057FC0246FB881344FB600C4B1B781846C5
:1043E000012102F0A7FB02E00A2005F0B3FE03F072
:1043F00047FC0246FB689A42F6D3044B1B781846EA
:10440000002102F097FB1037BD4680BDD01A002076
:1044100080B483B000AF02460B46FA71BB71BB7922
:10442000002B0DD0FB79012202FA03F3DAB22C4BF8
:104430001B78DBB21343DBB2DAB2294B1A700EE001
:10444000FB79012202FA03F3DBB2DB43DAB2244B3D
:104450001B78DBB21340DBB2DAB2214B1A70BB79A6
:10446000012B02D10023BB7103E0BB79C3F16403CC
:10447000BB71FB79002B08D11A4ABB799BB2194654
:1044800089000B445B009BB29386FB79012B08D11A
:10449000144ABB799BB2194689000B445B009BB25E
:1044A0001387FB79022B08D10E4ABB799BB21946C0
:1044B00089000B445B009BB29387FB79032B09D1E6
:1044C000084ABB799BB2194689000B445B009BB23A
:1044D000A2F840300C37BD465DF8047B704700BF42
:1044E000C81A00200004004080B584B000AF024626
:1044F0000B46FA71BB710023FB6003F0C1FB03465E
:104500000133FB6002E0022005F024FE03F0B8FB5B
:104510000246FB689A42F6D303F0B2FB0246BB792F
:104520001344FB60FB7918460121FFF771FF02E09D
:10453000022005F00FFE03F0A3FB0246FB689A423F
:10454000F6D3FB7918460021FFF762FF1037BD460E
:1045500080BD00BF80B500AF0320FEF799FE0420A8
:10456000FEF796FE0020FEF793FE0120FEF790FE78
:1045700080BD00BF80B58AB000AF7860002387F8A7
:104580002630FFF7E7FF002387F827307EE00A2078
:1045900005F0E0FD97F827309BB21B019BB203F2B8
:1045A0001C63BB84BB8C184604F030F8386203F0FF
:1045B00067FBF86197F827309BB21B019BB203F5AC
:1045C000C363BB84BB8C184604F020F8B861FA6959
:1045D0003B6AD31A7B6197F827309BB21B019BB2D1
:1045E00003F21A63BB84BB8C184604F00FF83861E1
:1045F00097F8273062339BB21B01BB84BB8C1846F3
:1046000004F004F8F86097F827309BB21B019BB2C6
:1046100003F21F63BB84BA8C07F10B0310461946E3
:1046200009F072FE0A2005F095FD97F82730012267
:1046300002FA03F3DAB2184B1B78DBB21340DBB299
:1046400087F8263097F8262097F8273042FA03F3A8
:1046500087F826307A69BB699A420FD9FA693B69B3
:104660009A420BD9FA69FB689A4207D2FB7A012B6E
:1046700004D197F827301846FFF78CFC0A2005F084
:1046800069FD97F82730013387F8273097F82730EE
:10469000022B7FF67CAF76E79518002080B582B0BC
:1046A00000AF4FF48030012105F000FC4FF40043CF
:1046B000BB804823FB710323BB713B1D1F48194678
:1046C000FDF740F91E480121FDF728FA18233B7039
:1046D00000237B700123BB700123FB703B4618460F
:1046E00009F0DEFA174B04221A80164B00225A807A
:1046F000144B01229A80134B0022DA80114B0022C6
:104700001A8111480F49FBF78BFF0F486021FCF716
:1047100063F80D480421FCF77BF80B488021FCF777
:1047200093F809480121FCF713F8074804210122F6
:10473000FCF72EF80837BD4680BD00BF000C0140D5
:1047400001000080841B00200040014080B400AFC5
:10475000074B074A526822F040425A60044B044A11
:10476000526842F080525A60BD465DF8047B704743
:10477000000C014080B500AF48480421FCF7D6F892
:104780004648FCF7C5F803461A46454B1A80444B89
:104790001B889BB2002B18D04048FCF7ABF80346AF
:1047A000642202FB03F23E4B1B889BB292FBF3F3A5
:1047B0009AB23C4B1A803C4B1A68394B1B889BB20F
:1047C000B2FBF3F2394B1A6005E0364B00221A8037
:1047D000364B00221A60364B1B780133DAB2344B69
:1047E0001A70334B1A78334B1B789A4255D9324B97
:1047F0001B78002B51D12B4B1B889BB2192B19D93D
:10480000284B1B889BB2222B14D82C4B1B782B4A8D
:1048100012782B498A5CD1B22A4A1278012000FA18
:1048200002F2D2B2D243D2B20A40D2B2D1B2244AB8
:10483000D15411E0214B1B78204A127820498A5C20
:10484000D1B2204A1278012000FA02F2D2B20A4311
:10485000D2B2D1B21A4AD1541A4B1B78002B16D1BE
:10486000184B07221A70154B1B780133DAB2134B21
:104870001A70124B1B78042B0FD10F4B01221A70A8
:104880000E4B00221A700F4B07221A7005E00D4BD9
:104890001B78013BDAB20B4B1A7080BD000400405C
:1048A0005E00002060000020000000206400002066
:1048B000680000201A0000206A000020B21B0020BF
:1048C0009C1B0020901B002080B500AF42480421B3
:1048D000FCF72CF8404B1B8F9AB2404B1A803F4B91
:1048E0001B889BB2002B0ED03B4B9B8E9BB264224D
:1048F00002FB03F2394B1B889BB292FBF3F39AB293
:10490000374B1A8005E0364B00221A80354B0022C7
:104910001A60354B1B780133DAB2334B1A70324BC5
:104920001A78324B1B789A4255D9314B1B78002BA1
:1049300051D12B4B1B889BB2192B19D9284B1B88A3
:104940009BB2222B14D82B4B1B782A4A12782A4967
:104950008A5CD1B2294A1278012000FA02F2D2B25E
:10496000D243D2B20A40D2B2D1B2234AD15411E0DA
:10497000204B1B781F4A12781F498A5CD1B21F4A0C
:104980001278012000FA02F2D2B20A43D2B2D1B2B6
:10499000194AD154194B1B78002B16D1174B0722FB
:1049A0001A70144B1B780133DAB2124B1A70114B88
:1049B0001B78042B0FD10E4B01221A700D4B0022D5
:1049C0001A700E4B07221A7005E00C4B1B78013B46
:1049D000DAB20A4B1A7080BD004001405E00002030
:1049E0006000002064000020680000201A00002001
:1049F0006A000020B21B00209C1B0020901B00209E
:104A000080B500AF06480221FBF790FF044B9B8C5A
:104A10009AB2044B5A80024B00229A8480BD00BF98
:104A200000440140641B002080B500AF094802210A
:104A3000FBF77CFF084B9B6803F40073002B04D149
:104A4000044B9B8C9AB2054B1A80024B00229A842D
:104A500080BD00BF00480140000C0140641B0020E5
:104A600080B582B000AF192005F074FB0023FB7104
:104A700006E0FB79144A0021D154FB790133FB7124
:104A8000FB79042BF5D9114B00221A70104B002230
:104A90001A70FFF75BFE0F4B4FF400425A6105207E
:104AA00005F058FB0B4B4FF400421A61FFF7F6FD7F
:104AB000C82005F04FFB052005F04CFB00F00CF87A
:104AC0000837BD4680BD00BF9C1B00206800002049
:104AD0006A000020000C014080B500AF0A2005F0FC
:104AE00039FB644B1B78012B40F0C3800A2005F092
:104AF00031FB614B1B781B029AB25F4B5B7813440E
:104B00009AB25E4B5A805C4B9B781B029AB25A4B0E
:104B1000DB7813449AB2594B1A80574B5A79574B4A
:104B20001A71564B5A88564B1B889A4208D9534BD8
:104B30005A88544B1B889A4202D2534B00221A7057
:104B40004E4B5A884E4B1B889A4202D24E4B012242
:104B50001A704A4B5A884B4B1B889A4202D94A4BCF
:104B600002221A700A2005F0F5FA444B1B88474AC6
:104B7000A2FB031292094FF47A7101FB02F29B1A15
:104B80009AB2434BA3FB02135B099BB2DBB23033F7
:104B9000DAB2404B1A70394B1B883D4AA2FB031214
:104BA0005209642101FB02F29B1A9AB23A4BA3FB11
:104BB0000213DB089BB2DBB23033DAB2354B5A70EA
:104BC000344B2E229A702D4B1A88334BA3FB0213C1
:104BD000D9080B469B000B445B00D31A9BB2DBB297
:104BE0003033DAB22B4BDA700A2005F0B3FA234BDC
:104BF0005B88264AA2FB031292094FF47A7101FBEB
:104C000002F29B1A9AB2224BA3FB02135B099BB2DE
:104C1000DBB23033DAB2214B1A70184B5B881C4A76
:104C2000A2FB03125209642101FB02F29B1A9AB201
:104C3000194BA3FB0213DB089BB2DBB23033DAB2B1
:104C4000164B5A70154B2E229A700C4B5A88124BE9
:104C5000A3FB0213D9080B469B000B445B00D31A3D
:104C60009BB2DBB23033DAB20C4BDA70014B00226C
:104C70001A7080BD6A0000209C1B0020141B0020BD
:104C8000B41B0020F01A00206B000020D34D6210EE
:104C90001F85EB51A41B0020CDCCCCCC241B0020C5
:104CA00080B582B000AF0023FB713EE01E2005F00E
:104CB00051FA03F08DF90346FB710020002104F046
:104CC0009DFB1E4B1B78184603F078FA1C4804F035
:104CD0005FFBFB79042B05D1184B1B780133DAB24B
:104CE000164B1A70FB79012B05D1144B1B78013B35
:104CF000DAB2124B1A700120002104F07FFB114838
:104D000004F046FB104811490422022303F05EF828
:104D10000120072104F072FB0D4804F039FB0D4817
:104D20000A4904220A2303F051F8FB79022BBDD172
:104D300004F060FD0837BD4680BD00BF1A000020AA
:104D4000A8EC0008ACEC0008A41B00207C000020AC
:104D5000B0EC0008241B002080B483B000AF0346F1
:104D6000FB80FA88094B1B68D21A13469B00134438
:104D70005B001A46064B1B68B2FBF3F3DBB2184626
:104D80000C37BD465DF8047B704700BF9C000020D7
:104D9000A800002080B483B000AF0346FB71FB790C
:104DA0000A4A126802FB03F3094A82FB03129210BB
:104DB000DB17D31A9AB2074B1B689BB213449BB202
:104DC00018460C37BD465DF8047B7047A8000020EC
:104DD000676666669C00002080B582B000AF002345
:104DE000BB800023FB7104F005FD284804F0D0FAD5
:104DF0000A2005F0AFF93B1D40F20460194609F0A6
:104E000083FABB881846FFF7A7FF0346FB71FB79BF
:104E1000184600F085F90346FB710A2005F09AF95F
:104E2000FB791846FFF7B6FF034640F204601946C7
:104E300009F0B6FA04F0DEFC154804F0A9FA0A20DD
:104E400005F088F93B1D40F20560194609F05CFA4F
:104E5000BB881846FFF780FF0346FB71FB791846B5
:104E600000F05EF90346FB710A2005F073F9FB7947
:104E70001846FFF78FFF034640F20560194609F018
:104E80008FFA04F0B7FC0837BD4680BDB4EC0008CB
:104E900034EB000880B584B000AF0346FB710023FB
:104EA000FB73FB793E4AA3FB02015A1A52080A44DB
:104EB0009209652101FB02F29B1AFB7167E003F086
:104EC00087F80346FB730120032104F097FAFA796F
:104ED000344B83FB02139911D317CB1A4FF47A7119
:104EE00001FB03F3D31A304A82FB03125211DB1782
:104EF000D31ADBB23B72FB792B4AA2FB0312520995
:104F0000642101FB02F29B1ADAB2284BA3FB0213C5
:104F1000DB08DBB27B72FA79244BA3FB0213D908BE
:104F20000B469B000B445B00D31ADBB2BB722048DC
:104F300004F02EFA07F1080318461E49032206233F
:104F400002F044FF01200C2104F058FA1A4804F042
:104F50001FFA0A2005F0FEF8FB7B042B08D1FB7931
:104F6000632B03D8FB790133FB7101E00023FB7154
:104F7000FB7B012B08D1FB79002B02D10023FB71B5
:104F800002E0FB79013BFB710A2005F0E3F8FB7BB3
:104F9000022B94D1FB7918461037BD4680BD00BF67
:104FA00057866F44D34D62101F85EB51CDCCCCCCCE
:104FB000C4EC00087C000020C8EC000880B582B07A
:104FC00000AF0023BB800023FB7104F013FC2048DA
:104FD00004F0DEF90A2005F0BDF83B1D40F2076041
:104FE000194609F091F9BB88DBB21846FFF752FF6A
:104FF0000346FB710A2005F0ADF8FB799BB240F245
:105000000760194609F0CCF904F0F4FB114804F0EC
:10501000BFF90A2005F09EF83B1D4FF4C160194608
:1050200009F072F9BB88DBB21846FFF733FF03467D
:10503000FB710A2005F08EF8FB799BB24FF4C1603A
:10504000194609F0ADF904F0D5FB0837BD4680BD1F
:10505000CCEC0008DCEC000880B582B000AF034661
:105060003960FB713B68DA1CF9792C4BA3FB010317
:10507000DB08DBB219464901C91A8900CB1A5B006B
:10508000D9B2FB790B44DBB23033DBB213700520AD
:1050900005F060F8FA79214BA3FB0213DB08FB71E2
:1050A0003B6802332E221A703B685A1CF9791B4B5D
:1050B000A3FB0103DB08DBB219464901C91A8900C9
:1050C000CB1A5B00D9B2FB790B44DBB23033DBB2D5
:1050D0001370052005F03EF8FA79104BA3FB02137C
:1050E000DB08FB71FA790D4BA3FB0203DB08DBB293
:1050F0001A465201D21A9200D31A5B00DAB2FB7937
:105100001344DBB23033DAB23B681A703B680433C5
:1051100000221A700837BD4680BD00BFCDCCCCCC74
:1051200080B584B000AF0346FB710023FB733EE003
:1051300002F04EFF0346FB730120032104F05EF9E9
:10514000FA7907F1080310461946FFF785FF1C4856
:1051500004F01EF907F1080318461A490422062331
:1051600002F034FE01200C2104F048F9164804F046
:105170000FF90A2004F0EEFFFB7B042B08D1FB792A
:10518000FD2B03D8FB790133FB7101E00023FB7198
:10519000FB7B012B08D1FB79002B02D10023FB7193
:1051A00002E0FB79013BFB710A2004F0D3FFFB7B9B
:1051B000022BBDD1FB7918461037BD4680BD00BF1C
:1051C000C4EC00087C000020C8EC000880B58AB060
:1051D00000AF7860396000233B767968AC4BA3FB65
:1051E0000123DA0813469B0013445B00CA1AD3B2AA
:1051F0003033DBB2FB757A68A54BA3FB0213DB08E7
:105200007B607968A24BA3FB0123DA0813469B005D
:1052100013445B00CA1AD3B23033DBB2BB757A6871
:105220009B4BA3FB0213DB087B607968984BA3FBC5
:105230000123DA0813469B0013445B00CA1AD3B259
:105240003033DBB27B757A68914BA3FB0213DB082A
:105250007B6079688E4BA3FB0123DA0813469B0021
:1052600013445B00CA1AD3B23033DBB23B757A68A1
:10527000874BA3FB0213DB087B607968844BA3FB9D
:105280000123DA0813469B0013445B00CA1AD3B209
:105290003033DBB2FB747A687D4BA3FB0213DB086F
:1052A0007B6079687A4BA3FB0123DA0813469B00E5
:1052B00013445B00CA1AD3B23033DBB2BB7419207B
:1052C00004F048FF7A68724BA3FB0213DB087B6093
:1052D00079686F4BA3FB0123DA0813469B00134444
:1052E0005B00CA1AD3B23033DBB27B747A68684B86
:1052F000A3FB0213DB087B607968654BA3FB0123EA
:10530000DA0813469B0013445B00CA1AD3B2303349
:10531000DBB23B747A685E4BA3FB0213DB087B6055
:1053200079685B4BA3FB0123DA0813469B00134407
:105330005B00CA1AD3B23033DBB2FB737A68544BCA
:10534000A3FB0213DB087B607968514BA3FB0123AD
:10535000DA0813469B0013445B00CA1AD3B23033F9
:10536000DBB2BB737A684A4BA3FB0213DB087B609A
:105370007968474BA3FB0123DA0813469B001344CB
:105380005B00CA1AD3B23033DBB27B737A68404B0E
:10539000A3FB0213DB087B6079683D4BA3FB012371
:1053A000DA0813469B0013445B00CA1AD3B23033A9
:1053B000DBB23B737A68364BA3FB0213DB087B60DE
:1053C0007968334BA3FB0123DA0813469B0013448F
:1053D0005B00CA1AD3B23033DBB2FB727A682C4B53
:1053E000A3FB0213DB087B607968294BA3FB012335
:1053F000DA0813469B0013445B00CA1AD3B2303359
:10540000DBB2BB727A68224BA3FB0213DB087B6022
:1054100079681F4BA3FB0123DA0813469B00134452
:105420005B00CA1AD3B23033DBB27B727A68184B96
:10543000A3FB0213D908164BA3FB0123DA0813467A
:105440009B0013445B00CA1AD3B23033DBB23B7209
:1054500000233B6207F108023B6A13441B78FB619F
:105460003023FB61192004F075FE08E03B6A01332C
:105470003B6207F108023B6A13441B78FB61FB693E
:10548000302BF3D0192004F065FE3B6A7B620FE0FD
:10549000CDCCCCCC7A6A3B6AD31A3A68134407F174
:1054A00008017A6A0A4412781A707B6A01337B62B7
:1054B0007B6A102BEEDD3B6818462837BD4680BD61
:1054C00080B485B000AF78607B68FA2202FB03F3FA
:1054D000FB6000BFFB685A1EFA60002BFAD114373C
:1054E000BD465DF8047B704780B584B000AF04F022
:1054F00081F90020002103F081FF9548012102F08D
:10550000D5F847F23050FFF7DBFF00F053FD642081
:10551000FFF7D6FF8F4B1B88BB800020002103F0D4
:105520006DFF8D48022102F0C1F847F23050FFF7BD
:10553000C7FF00F03FFD6420FFF7C2FF854B1B88CB
:10554000FB800020002103F059FF8448062102F06F
:10555000ADF847F23050FFF7B3FF00F02BFD6420A9
:10556000FFF7AEFF7B4B1B883B8104F043F97C487F
:10557000012102F09BF847F23050FFF7A1FF00F045
:1055800019FD6420FFF79CFF724B1B887B817B8990
:10559000DB089AB2BB88DB089BB29A4203D2714BFC
:1055A00001221A700EE07B89DB089AB2BB88DB0807
:1055B0009BB29A4203D96B4B00221A7002E0694BEE
:1055C00002221A70674B1B78002B54D1FB881A46B5
:1055D000BB88D31ADA0F13445B109BB2053BFB81E7
:1055E000BA88FB895B089BB2D31A9AB25E4B1A80C9
:1055F000BA88FB8913449AB25B4B5A80FA88FB89BC
:10560000D31A9AB2584B9A803B891A46FB88D31A10
:10561000DA0F13445B109BB2053BFB81FA88FB89D0
:1056200013449AB2504BDA803A89FB89D31A9AB262
:105630004D4B1A817B891A463B89D31ADA0F1344E2
:105640005B109BB2053BFB813A89FB8913449AB2FC
:10565000454B5A817A89FB89D31A9AB2424B9A8177
:105660007A89FB895B089BB213449AB23E4BDA817C
:1056700000F08AF959E03B4B1B78012B50D1BB88D5
:105680001A46FB88D31ADA0F13445B109BB2053B12
:10569000FB81BA88FB89D31A9AB2334B1A80BA8835
:1056A000FB8913449AB2304B5A80FA88FB89D31A8B
:1056B0009AB22D4B9A80FB881A463B89D31ADA0F8F
:1056C00013445B109BB2053BFB81FA88FB891344B2
:1056D0009AB2254BDA803A89FB89D31A9AB2224BC7
:1056E0001A813B891A467B89D31ADA0F13445B105F
:1056F0009BB2053BFB813A89FB8913449AB21A4B52
:105700005A817A89FB89D31A9AB2174B9A817A897E
:10571000FB8913449AB2144BDA8100F035F904E0A6
:10572000124803F035FE00F04DF90F4B1A880E4B6E
:105730001B8A9A4202D90B4B01221A7000200021C9
:1057400003F05CFE0A4803F023FE1037BD4680BD1F
:10575000C4EC00087C1B002008F300080CF30008D0
:10576000C8EC00088E000020041B002014F3000881
:1057700024F3000880B582B000AF0023FB7104F071
:1057800039F84FF4FA7004F0E5FC5EE002F020FC1A
:105790000346FB710020002103F030FE2F4803F088
:1057A000F7FD2F4B1A882F4BA3FB02135B099BB20B
:1057B000DBB2184602F002FD294B1B88DBB218460B
:1057C00002F0FCFC284803F0E3FD254B5A88254BEA
:1057D000A3FB02135B099BB2DBB2184602F0EEFC9E
:1057E0001F4B5B88DBB2184602F0E8FC0120002169
:1057F00003F004FE1D4803F0CBFD194B9A88194BAA
:10580000A3FB02135B099BB2DBB2184602F0D6FC85
:10581000134B9B88DBB2184602F0D0FC144803F00F
:10582000B7FD0F4BDA880F4BA3FB02135B099BB24A
:10583000DBB2184602F0C2FC094BDB88DBB218462B
:1058400002F0BCFC142004F085FCFB79022B9DD1F6
:1058500003F0D0FF0837BD4680BD00BF68EA0008EE
:105860007C1B00201F85EB5130F3000870EA000814
:1058700034F3000880B582B000AF0023FB7103F061
:10588000B9FF4FF4FA7004F065FC19E002F0A0FBD8
:105890000346FB710020002103F0B0FD022004F05C
:1058A00059FC012004F056FC0120002103F0A6FD64
:1058B000074B1B78184602F081FC142004F04AFCC8
:1058C000FB79022BE2D103F095FF0837BD4680BD7E
:1058D000BA00002080B582B000AF0023FB71002326
:1058E000BB7103F087FF4FF4FA7004F033FC3BE028
:1058F00002F06EFB0346FB710020002103F07EFDE9
:10590000022004F027FC0023BB7108E0BB791A4A8F
:10591000D35C1846FCF7A4F9BB790133BB71BB79A2
:10592000042BF3D9012004F015FC0120002103F021
:1059300065FD114B5B791846FCF792F90E4B9B798C
:105940001846FCF78DF90D4803F022FD0C4B1B782F
:10595000184602F033FC08480A490722092302F0DE
:1059600035FA142004F0F6FBFB79022BC0D103F0CA
:1059700041FF0837BD4680BD3C1B002064EB00089A
:105980005A0000207C00002080B582B000AF0023C8
:10599000FB710FE0FB799BB203F20A639AB2F979CB
:1059A000074B33F811301046194608F0F9FCFB7923
:1059B0000133FB71FB79072BECD90837BD4680BD5D
:1059C000041B002080B582B000AF0023FB710FE004
:1059D000FB799BB203F20A639AB2FB795900074B39
:1059E0000B441046194608F08FFCFB790133FB711C
:1059F000FB79072BECD90837BD4680BD041B00207E
:105A000080B58AB000AF7860962004F0A3FB02F066
:105A100037F93862022004F09DFB934B1B683A6A09
:105A20009A4240F27C8102F02BF902468E4B1A60BA
:105A300007F10C03386A194602F0A2FC022004F0B8
:105A400089FB00237B620BE007F10C027B6A1344A5
:105A50001A7886497B6A0B441A707B6A01337B6231
:105A60007B6A092BF0DD022004F074FB7F4B2C22B3
:105A70009A72022004F06EFB04F0CEFB00237B62DE
:105A800012E07B6A0B337A497A6A0A441178774AC2
:105A9000D1547B6A103377497A6A0A441178734A81
:105AA000D1547B6A01337B627B6A032BE9DD04F00E
:105AB000C1FB022004F04EFB6C4B2C22DA736B4BC3
:105AC0002C221A750023FB8300237B6219E001223C
:105AD0007B6A02FA03F39AB2674B1B689BB21340CE
