:020000040800F2
:10000000F41F0020090B0008690B0008690B0008A9
:10001000690B0008690B0008690B0008000000006C
:10002000000000000000000000000000F1B6000821
:10003000690B000800000000C5B7000801B80008FF
:10004000690B0008690B0008690B0008690B0008C0
:10005000690B0008690B000855320008713200086E
:100060008D320008690B0008690B0008690B000855
:10007000690B0008690B0008112B0008252B0008EC
:10008000690B0008690B0008690B000800000000FC
:10009000000000000000000000000000B93200086D
:1000A000114600084947000871470008690B00081D
:1000B000690B0008BD440008690B0008690B0008C3
:1000C000690B0008690B0008690B0008690B000840
:1000D000690B000899210008690B0008690B0008EA
:1000E00099320008690B0008690B00080000000045
:1000F0000000000000000000000000000000000000
:1001000000000000000000000000000000000000EF
:100110000000000000000000690B0008690B0008E7
:100120005FF808F180B485B000AF786039600023D3
:10013000FB817B681B88FB817A682E4B9A4213D027
:100140007A682D4B9A420FD07B68B3F1804F0BD069
:100150007A682A4B9A4207D07A68294B9A4203D090
:100160007A68284B9A4208D1FB8923F07003FB81FF
:100170003B685A88FB891343FB817A68224B9A4279
:100180000CD07A68214B9A4208D0FB8923F4407343
:10019000FB813B68DA88FB891343FB817B68FA8922
:1001A0001A803B689A887B689A853B681A887B68C6
:1001B0001A857A680F4B9A420FD07A680E4B9A4292
:1001C0000BD07A68124B9A4207D07A68114B9A4248
:1001D00003D07A68104B9A4204D13B681B7A1A46C6
:1001E0007B681A867B6801229A821437BD465DF8C7
:1001F000047B7047002C01400034014000040040A3
:1002000000080040000C00400010004000140040B6
:1002100000400140004401400048014080B485B0E6
:1002200000AF7860396000237B810023FB810023CD
:10023000BB817B681B8C9BB223F001039AB27B6865
:100240001A847B681B8CFB817B689B88BB817B68E5
:100250001B8B7B817B8923F070037B817B8923F05F
:1002600003037B813B681A887B8913437B81FB896D
:1002700023F00203FB813B681A89FB891343FB814E
:100280003B685A88FB891343FB817A68244B9A4266
:100290000FD07A68234B9A420BD07A68224B9A424D
:1002A00007D07A68214B9A4203D07A68204B9A4251
:1002B00023D1FB8923F00803FB813B685A89FB8922
:1002C0001343FB81FB8923F00403FB813B689A887D
:1002D000FB891343FB81BB8923F48073BB81BB89FA
:1002E00023F40073BB813B689A89BB891343BB81AC
:1002F0003B68DA89BB891343BB817B68BA899A80E2
:100300007B687A891A833B68DA887B689A867B687F
:10031000FA891A841437BD465DF8047B704700BF24
:10032000002C0140003401400040014000440140E5
:100330000048014080B485B000AF78603960002388
:100340007B810023FB810023BB817B681B8C9BB2DC
:1003500023F010039AB27B681A847B681B8CFB81A4
:100360007B689B88BB817B681B8B7B817B8923F4AB
:10037000E0437B817B8923F440737B813B681B884E
:100380001B029AB27B8913437B81FB8923F02003F4
:10039000FB813B681B891B019AB2FB891343FB81DC
:1003A0003B685B881B019AB2FB891343FB817A6827
:1003B000224B9A4203D07A68214B9A422BD1FB8977
:1003C00023F08003FB813B685B891B019AB2FB89A8
:1003D0001343FB81FB8923F04003FB813B689B882F
:1003E0001B019AB2FB891343FB81BB8923F4806311
:1003F000BB81BB8923F40063BB813B689B899B0065
:100400009AB2BB891343BB813B68DB899B009AB2DC
:10041000BB891343BB817B68BA899A807B687A89E0
:100420001A833B68DA887B681A877B68FA891A84A2
:100430001437BD465DF8047B704700BF002C0140B7
:100440000034014080B485B000AF7860396000238B
:100450007B810023FB810023BB817B681B8C9BB2CB
:1004600023F480739AB27B681A847B681B8CFB81AF
:100470007B689B88BB817B689B8B7B817B8923F01E
:1004800070037B817B8923F003037B813B681A889F
:100490007B8913437B81FB8923F40073FB813B68D9
:1004A0001B891B029AB2FB891343FB813B685B8863
:1004B0001B029AB2FB891343FB817A68224B9A4252
:1004C00003D07A68214B9A422BD1FB8923F4006335
:1004D000FB813B685B891B029AB2FB891343FB815A
:1004E000FB8923F48063FB813B689B881B029AB2E3
:1004F000FB891343FB81BB8923F48053BB81BB89F8
:1005000023F40053BB813B689B891B019AB2BB89D2
:100510001343BB813B68DB891B019AB2BB89134340
:10052000BB817B68BA899A807B687A899A833B68A9
:10053000DA887B689A877B68FA891A841437BD4603
:100540005DF8047B704700BF002C0140003401407F
:1005500080B485B000AF786039600023BB81002390
:100560007B810023FB817B681B8C9BB223F480532F
:100570009AB27B681A847B681B8C7B817B689B8822
:10058000FB817B689B8BBB81BB8923F4E043BB81F0
:10059000BB8923F44073BB813B681B881B029AB262
:1005A000BB891343BB817B8923F400537B813B6868
:1005B0001B891B039AB27B8913437B813B685B8851
:1005C0001B039AB27B8913437B817A68124B9A4250
:1005D00003D07A68114B9A420AD1FB8923F48043F5
:1005E000FB813B689B899B019AB2FB891343FB818A
:1005F0007B68FA899A807B68BA899A833B68DA8833
:100600007B68A3F840207B687A891A841437BD463A
:100610005DF8047B704700BF002C014000340140AE
:1006200080B584B000AF786039600023FB8101237E
:10063000BB813B685B88002B02D10223FB8101E078
:100640000023FB813B689B88012B02D10223BB81E5
:1006500001E00123BB813B681B88002B1CD13B6858
:1006600059883B689A883B681B89786800F06EF966
:100670003B68DB887868194600F002F93B681B8903
:10068000F989BA89786800F0CBF93B68DB8878682B
:10069000194600F011F91BE03B6859883B689A88BD
:1006A0003B681B89786800F0BBF93B68DB88786899
:1006B000194600F001F93B681B89F989BA89786805
:1006C00000F044F93B68DB887868194600F0D8F8F8
:1006D0001037BD4680BD00BF80B483B000AF7860E6
:1006E0007B684FF6FF729A807B6800221A807B68D5
:1006F0000022DA807B6800225A807B6800221A720E
:100700000C37BD465DF8047B704700BF80B483B0F2
:1007100000AF78607B6800221A807B6800225A80D4
:100720007B6800229A807B680022DA807B68002246
:100730001A817B6800225A817B6800229A817B683B
:100740000022DA810C37BD465DF8047B704700BF9C
:1007500080B483B000AF78600B46FB70FB78002B51
:1007600008D07B681B889BB243F001039AB27B6878
:100770001A8007E07B681B889BB223F001039AB2C2
:100780007B681A800C37BD465DF8047B704700BF5C
:1007900080B483B000AF786013460A467A807B70DD
:1007A0007B78002B08D07B689B899AB27B881343A7
:1007B0009AB27B689A8109E07B689B899AB27B88B0
:1007C000DB439BB213409AB27B689A810C37BD46DB
:1007D0005DF8047B704700BF80B485B000AF7860DF
:1007E0000B467B800023FB817B681B89FB81FB8997
:1007F00023F07003FB81FA897B881343FB817B68BC
:10080000FA891A811437BD465DF8047B704700BF32
:1008100080B483B000AF78600B467B807B681B8917
:100820009BB223F007039AB27B681A817B681B890D
:100830009AB27B8813439AB27B681A810C37BD4603
:100840005DF8047B704700BF80B483B000AF786070
:100850000B467B807B681B899BB223F080039AB296
:100860007B681A817B681B899AB27B8813439AB292
:100870007B681A810C37BD465DF8047B704700BF6A
:1008800080B483B000AF78600B467B807B681B8BA5
:100890009BB223F00C039AB27B681A837B681B8B94
:1008A0009AB27B8813439AB27B681A830C37BD4691
:1008B0005DF8047B704700BF80B483B000AF786000
:1008C0000B467B807B681B8B9BB223F440639AB200
:1008D0007B681A837B681B8B9AB27B881B029BB256
:1008E00013439AB27B681A830C37BD465DF8047BCC
:1008F000704700BF80B483B000AF78607B689B8E88
:100900009BB218460C37BD465DF8047B704700BFAC
:1009100080B483B000AF78607B681B8F9BB21846B1
:100920000C37BD465DF8047B704700BF80B483B0D0
:1009300000AF78600B467B807B88DB439AB27B6894
:100940001A820C37BD465DF8047B704780B487B0CF
:1009500000AFF86079813A81FB800023BB820023DD
:10096000FB82FB681B8C9BB223F001039AB2FB68ED
:100970001A84FB681B8BBB82FB681B8CFB82BB8AC7
:1009800023F0F303BB82FB881B019AB23B8913431C
:100990009AB2BB8A1343BB82FA681C4B9A4213D0AB
:1009A000FA681B4B9A420FD0FB68B3F1804F0BD013
:1009B000FA68184B9A4207D0FA68174B9A4203D04C
:1009C000FA68164B9A420BD1FB8A23F00203FB8292
:1009D0007A89FB8A13439BB243F00103FB820AE04E
:1009E000FB8A23F00A03FB827A89FB8A13439BB2BA
:1009F00043F00103FB82FB68BA8A1A83FB68FA8A18
:100A00001A841C37BD465DF8047B7047002C0140FA
:100A1000003401400004004000080040000C004089
:100A200080B487B000AFF86079813A81FB80002301
:100A3000BB820023FB8200237B82FB681B8C9BB262
:100A400023F010039AB2FB681A84FB681B8BBB82ED
:100A5000FB681B8CFB827B891B017B82BB8A23F496
:100A600040731B051B0DBB82FB881B039AB2BB8A1C
:100A70001343BB823B891B029AB2BB8A1343BB82DE
:100A8000FA681C4B9A4213D0FA681B4B9A420FD05B
:100A9000FB68B3F1804F0BD0FA68184B9A4207D02D
:100AA000FA68174B9A4203D0FA68164B9A420BD158
:100AB000FB8A23F02003FB827A8AFB8A13439BB2D2
:100AC00043F01003FB820AE0FB8A23F0A003FB82C1
:100AD0007A89FB8A13439BB243F01003FB82FB68C5
:100AE000BA8A1A83FB68FA8A1A841C37BD465DF8F5
:100AF000047B7047002C014000340140000400409A
:100B000000080040000C004080B582B000AF114BDF
:100B10007B60114B3B6007E03B681A1D3A607A68C6
:100B2000111D796012681A603A680C4B9A42F3D32F
:100B30000B480C494FF000028842B8BF40F8042B24
:100B4000FFF6FAAF00F014F807F06AFC0837BD466C
:100B500080BD00BFC4F40008000000204400002055
:100B600048000020F81B002080B400AFFEE700BF63
:100B700080B500AF164B164A126842F001021A60A7
:100B8000134A134B5968134B0B405360104A104BD8
:100B90001B6823F0847323F4803313600C4B0C4ADE
:100BA000126822F480221A60094B094A526822F422
:100BB000FE025A60064B4FF41F029A60044B00225B
:100BC000DA6200F00BF8044B4FF000629A6080BDCF
:100BD000001002400000FFF800ED00E080B500AF1B
:100BE00000F002F880BD00BF80B483B000AF0023E6
:100BF0007B6000233B60304B2F4A126842F4803206
:100C00001A602D4B1B6803F400333B607B68013393
:100C10007B603B68002B03D17B68B3F5A06FF0D1FC
:100C2000254B1B6803F00203002B02D001233B601D
:100C300001E000233B603B68012B37D11E4B1E4A6D
:100C400052685A601C4B1C4A52685A601A4B1A4A26
:100C500052685A60184B184A526822F47C125A6043
:100C6000154B154A526842F498125A60124B124AB8
:100C7000126842F080721A6000BF0F4B1B6803F0CD
:100C80000073002BF9D00C4B0B4A526822F0030280
:100C90005A60094B084A526842F002025A6000BF8B
:100CA000054B5B6803F00C03082BF9D10C37BD46EC
:100CB0005DF8047B704700BF0010024080B485B02F
:100CC00000AF0346FB710D4B1B889BB2FB60FB79A9
:100CD000002B04D1FB6843F03803FB6005E0FB68A0
:100CE00023F0380343F00803FB60044BFA6892B228
:100CF0001A801437BD465DF8047B70470030014010
:100D000080B483B000AF0346FB710C37BD465DF87D
:100D1000047B704780B400AF01231846BD465DF8E0
:100D2000047B704780B582B000AF0346FB71FB794E
:100D30009BB20A4819460CF059FF00BF0748012131
:100D40000CF070FF0346002BF8D004480CF05CFF59
:100D50000346DBB218460837BD4680BD003001406F
:100D600080B500AFFF20FFF7DDFF0346184680BDCA
:100D700080B582B000AF0A4B32221A60FFF7F0FF55
:100D8000FFF7EEFF0346FB71FB79FF2B03D0044B0B
:100D90001B68002BF4D1FB7918460837BD4680BD8F
:100DA0004C00002080B500AF03484FF4004100F034
:100DB00099FEFFF7D5FF80BD0008014080B590B0D7
:100DC00000AF0346B9607A60FB734FF6FF733B8256
:100DD000384B7B610023FB6200233B6300237B6273
:100DE0007B683B6200237B634FF44053BB6300236B
:100DF000FB6331480CF0DCFC30480CF0D9FCFB7B89
:100E0000002B19D0BB68BB610023FB618023BB6250
:100E100007F11403284819460CF086FD07F110036A
:100E2000BB611023FB610023BB6207F1140323485D
:100E300019460CF079FD18E007F11003BB6100239F
:100E4000FB610023BB6207F114031B4819460CF039
:100E50006BFDBB68BB611023FB618023BB6207F1A4
:100E60001403164819460CF05FFD134801210CF0DD
:100E700099FD124801210CF095FD11480321012232
:100E80000CF090FE00BF20200CF0A8FD0346002BC4
:100E9000F9D0094800210CF085FD084800210CF02C
:100EA00081FD0748032100220CF07CFE4037BD463F
:100EB00080BD00BF0C3001401C00024030000240E9
:100EC0000030014080B500AF494B494A926942F079
:100ED00001029A61464B464A926942F004029A61C5
:100EE000434B434A926942F008029A61414801210A
:100EF00000F014FE0120012100F010FE3E4B3E4A9E
:100F0000526842F040525A603B4B3B4A526822F0D2
:100F100040425A60384B4FF400421A61374B374A0F
:100F2000126842F440521A60344B344A126822F478
:100F300040421A60314B314A126842F400421A6052
:100F40002E4B2E4A126822F440321A602B4B2B4A49
:100F5000126822F440221A60284B284A126842F490
:100F600000221A60254B10221A61244B234A126872
:100F700042F440121A60214B204A126822F44002C7
:100F80001A601E4B1D4A126842F400021A60184B88
:100F9000174A926942F480529A61194B00229A8052
:100FA000174B04221A80164B154A128892B242F04F
:100FB000380292B21A80124B114A128892B242F44D
:100FC000807292B21A800E4B0D4A128892B242F48D
:100FD000007292B21A800A4B094A128892B242F009
:100FE000400292B21A800120012108F009FE80BD62
:100FF000001002400002300000080140000C0140D7
:101000000030014080B582B000AF194B1B78DBB2D5
:1010100003F00103002B08D116484FF4004100F003
:101020006FFDFFF7A5FEFFF7BDFE13480CF060FD56
:10103000114800210CF096FD4FF48050002108F07B
:10104000FDFD3823BB802823FB713B1D0B4819464F
:1010500000F078FC0020FFF753FE054B1B78DBB255
:1010600043F00103DAB2024B1A700837BD4680BD67
:10107000140000200008014000300140000C014035
:1010800080B584B000AF78603960104B0A221A60D6
:10109000FFF766FE0346FB73FB7BFF2B03D10B4B75
:1010A0001B68002BF4D1FB7BFE2B01D0002309E051
:1010B000012079683A68FFF781FEFFF751FEFFF7DC
:1010C0004FFE012318461037BD4680BD4800002062
:1010D00080B584B000AF78600B46FB70FFF748FE28
:1010E0000346FF2B01D000231EE0FB781846FFF7D4
:1010F00019FEFB78FD2B16D0002079684FF40072A2
:10110000FFF75CFEFF20FFF70DFEFF20FFF70AFE52
:10111000FFF726FE0346FB73FB7B03F01F03052B43
:1011200001D0002300E0012318461037BD4680BDE2
:1011300080B584B000AF03463960FB71FB795BB2C8
:10114000002B0EDAFB7903F07F03FB71772000217F
:10115000FFF7EEFF0346BB73BB7B012B01D9BB7BC3
:1011600051E02B484FF4004100F0BCFC28484FF4FC
:10117000004100F0C5FCFFF7FBFD0346FF2B01D04B
:10118000FF2340E0FB791846FFF7CCFD3B681B0EC0
:10119000DBB21846FFF7C6FD3B681B0CDBB21846F6
:1011A000FFF7C0FD3B681B0ADBB21846FFF7BAFD2C
:1011B0003B68DBB21846FFF7B5FD0123FB73FB79F3
:1011C000402B01D19523FB73FB79482B01D1872359
:1011D000FB73FB7B1846FFF7A5FDFB794C2B01D178
:1011E000FFF7BEFD0A23FB73FFF7BAFD0346BB738F
:1011F000BB7B5BB2002B05DAFB7B013BFB73FB7B0C
:10120000002BF1D1BB7B18461037BD4680BD00BF17
:101210000008014090B585B000AF0346FB71FB7933
:10122000002B01D00123C1E0624B1B78DBB203F03D
:101230000203002B03D05F4B1B78DBB2B6E0FFF755
:1012400041FE0020FFF73AFD0A23FB7304E0FFF79D
:1012500087FDFB7B013BFB73FB7B002BF7D100235E
:101260007B7340200021FFF763FF0346012B40F012
:101270008480514B64221A6048204FF4D571FFF7E7
:1012800057FF0346012B4DD10023FB730CE0FC7B81
:10129000FFF766FD03461A4607F11003234403F8DF
:1012A000082CFB7B0133FB73FB7B032BEFD9BB7A51
:1012B000012B62D1FB7AAA2B5FD100BF3E4B1B688A
:1012C000002B07D0E9204FF08041FFF731FF0346A4
:1012D000002BF3D1384B1B68002B4ED07A20002115
:1012E000FFF726FF0346002B47D10023FB730CE0DA
:1012F000FC7BFFF735FD03461A4607F11003234434
:1013000003F8082CFB7B0133FB73FB7B032BEFD92A
:101310003B7A03F04003002B01D00C2300E00423B0
:101320007B732AE0E9200021FFF702FF0346012B2F
:1013300004D802237B73E923BB7303E001237B738F
:101340004123BB7300BF1C4B1B68002B07D0BB7B2A
:1013500018460021FFF7ECFE0346002BF3D1164B95
:101360001B68002B07D050204FF40071FFF7E0FE00
:101370000346002B01D000237B73104B7A7B1A703D
:10138000FFF710FD7B7B002B0BD00A4B1B78DBB2E9
:1013900023F00103DAB2074B1A700120FFF78EFC2D
:1013A00001E0FFF72FFE034B1B78DBB21846143722
:1013B000BD4690BD140000204800002050000020D1
:1013C00080B483B000AF0346FB71FB79002B01D0E2
:1013D000012302E0044B1B78DBB218460C37BD46F4
:1013E0005DF8047B704700BF1400002080B584B016
:1013F00000AFB9607A600246FA73BB73FB7B002BC7
:1014000002D1BB7B002B01D104234FE0294B1B7879
:10141000DBB203F00103002B01D0032346E0264B8F
:101420001B7803F00803002B02D17B685B027B6012
:10143000BB7B012B11D151207968FFF779FE034660
:10144000002B2BD1B8684FF40071FFF719FE03464B
:10145000002B23D00023BB7320E052207968FFF7D4
:1014600067FE0346002B19D1B8684FF40071FFF7EF
:1014700007FE034683F00103DBB2002B00D009E036
:10148000BB6803F50073BB60BB7B013BBB73BB7BDD
:10149000002BE9D14C200021FFF74AFEFFF782FC28
:1014A000BB7B002B0CBF00230123DBB21846103797
:1014B000BD4680BD140000205000002080B584B0DF
:1014C00000AFB9607A600246FA73BB73FB7B002BF6
:1014D00002D1BB7B002B01D1042369E0364B1B7882
:1014E000DBB203F00103002B01D0032360E0324B99
:1014F0001B78DBB203F00403002B01D0022357E07A
:101500002E4B1B7803F00803002B02D17B685B0293
:101510007B60BB7B012B10D158207968FFF708FE58
:101520000346002B3CD1B868FE21FFF7D1FD0346EE
:10153000002B35D00023BB7332E0204B1B7803F027
:101540000603002B04D0BB7BD7201946FFF7F0FD24
:1015500059207968FFF7ECFD0346002B20D1B868CD
:10156000FC21FFF7B5FD034683F00103DBB2002B3E
:1015700000D009E0BB6803F50073BB60BB7B013B97
:10158000BB73BB7B002BEAD10020FD21FFF7A0FD40
:10159000034683F00103DBB2002B01D00123BB73B0
:1015A000FFF700FCBB7B002B0CBF00230123DBB249
:1015B00018461037BD4680BD1400002050000020A2
:1015C00090B58BB000AF0B463A600246FA71BB7122
:1015D0003B683B62FB79002B01D00423ADE1012382
:1015E00087F82730BB79052B28D13B6A1B78012B64
:1015F0000ED0022B12D0002B1BD1FFF78BFB034622
:10160000002B01D0FFF7FEFC002387F8273014E001
:10161000FFF758FC002387F827300EE03B6A5C1C7C
:10162000FFF778FB0346DBB22370002387F82730EF
:1016300003E0042387F827307DE17CE1B84B1B7879
:10164000DBB203F00103002B01D0032375E1BB796A
:101650000E2B00F26B8101A252F823F099160008BC
:10166000B716000863170008731700082D19000843
:101670002D1900082D1900082D1900082D19000832
:101680002D1900085B1800086B1800089118000855
:10169000B7180008F7180008A2484FF4004100F0FE
:1016A0002FFAFFF765FB0346FF2B03D1002387F8D2
:1016B00027303EE13DE149200021FFF739FD034697
:1016C000002B4DD107F10C0318461021FFF7D8FC71
:1016D0000346002B44D03B7B9B09DBB2012B0DD191
:1016E0007B7D1A463B7D1B029BB213449BB20133A8
:1016F000FB83FB8B9A023B681A602DE07B7C03F036
:101700000F03DAB2BB7DDB09DBB21344DAB27B7DB7
:1017100003F00303DBB25B00DBB21344DBB2023342
:1017200087F826303B7D9B09DBB21A46FB7C9B0089
:101730009BB213449AB2BB7C03F003039BB29B029F
:101740009BB213449BB20133FB83FA8B97F826308C
:10175000093B9A403B681A60002387F82730E8E08D
:10176000E7E03B684FF400721A80002387F82730C7
:10177000DFE06D4B1B7803F00403002B2BD0CD2052
:101780000021FFF7D5FC0346002B65D1FFF7E8FAEF
:1017900007F10C0318461021FFF772FC0346002BDB
:1017A0005AD0302387F8263006E0FFF7D9FA97F8A9
:1017B0002630013B87F8263097F82630002BF4D1ED
:1017C000BB7D1B09DBB210229A403B681A600023E4
:1017D00087F82730ADE049200021FFF7A9FC034638
:1017E000002B39D107F10C0318461021FFF748FCF4
:1017F0000346002B30D04C4B1B7803F00203002B28
:1018000012D0BB7D03F03F035A00FB7DDB09DBB246
:1018100013445A1C7B7E9B09DBB2013B02FA03F3A3
:101820001A463B681A6013E0BB7D03F07C039B10F3
:101830009BB20133FA7D02F00302D100FA7D520916
:10184000D2B20A44013202FB03F31A463B681A6023
:10185000002387F827306CE06BE0334B1A783B6A43
:101860001A70002387F8273063E049200021FFF732
:101870005FFC0346002B0AD1386A1021FFF700FCF9
:101880000346002B03D0002387F8273051E050E0B7
:101890004A200021FFF74CFC0346002B0AD1386A8E
:1018A0001021FFF7EDFB0346002B03D0002387F840
:1018B00027303EE03DE07A200021FFF739FC034667
:1018C000002B17D1042387F826300BE03C6A631CF9
:1018D0003B62FFF745FA0346237097F82630013B39
:1018E00087F8263097F82630002BEFD1002387F8B1
:1018F00027301EE01DE0CD200021FFF719FC034634
:10190000002B0CD1FFF72CFA386A4021FFF7B8FB07
:101910000346002B03D0002387F8273009E008E0B6
:10192000140000200008014050000020042387F824
:101930002730FFF737FA97F8273018462C37BD467F
:1019400090BD00BF80B489B000AF786039600023DB
:10195000FB6100233B610023BB610023FB6000238C
:101960007B610023BB603B68DB7803F00F03FB6106
:101970003B68DB7803F01003002B04D03B689B78B6
:10198000FA691343FB613B681B88DBB2002B44D030
:101990007B681B687B610023BB6138E0BB69012267
:1019A00002FA03F3FB603B681B881A46FB6813408E
:1019B0003B613A69FB689A4226D1BB699B00FB6098
:1019C000FB680F2202FA03F3BB60BB68DB437A6952
:1019D00013407B61FB68FA6902FA03F37A691343E7
:1019E0007B613B68DB78282B05D1BB6901229A40DB
:1019F0007B685A6108E03B68DB78482B04D1BB69FF
:101A000001229A407B681A61BB690133BB61BB69E3
:101A1000072BC3D97B687A691A603B681B88FF2B48
:101A200046D97B685B687B610023BB613AE0BB6998
:101A30000833012202FA03F3FB603B681B881A4655
:101A4000FB6813403B613A69FB689A4227D1BB6946
:101A50009B00FB60FB680F2202FA03F3BB60BB68CC
:101A6000DB437A6913407B61FB68FA6902FA03F38E
:101A70007A6913437B613B68DB78282B05D1BB690E
:101A8000083301229A407B685A613B68DB78482B17
:101A900005D1BB69083301229A407B681A61BB6992
:101AA0000133BB61BB69072BC1D97B687A695A6076
:101AB0002437BD465DF8047B704700BF80B483B017
:101AC00000AF78607B684FF6FF721A807B68022255
:101AD0009A707B680422DA700C37BD465DF8047B8F
:101AE000704700BF80B483B000AF78600B467B8046
:101AF0007A887B681A610C37BD465DF8047B7047B5
:101B000080B483B000AF78600B467B807A887B68B6
:101B10005A610C37BD465DF8047B704780B487B0CE
:101B200000AF78600B46FB7000233B610023FB6035
:101B300000237B610023BB607B68002B03DA2E4B04
:101B4000DB697B6102E02C4B5B687B617B6803F4A3
:101B500070231B0CBB607B689BB23B617B6803F40A
:101B60004013B3F5401F0AD17B6923F070637B619A
:101B7000214B214A526822F070625A6021E07B6852
:101B800003F48013002B0ED0BB68032202FA03F388
:101B9000FB60FB68DB437A6913407B617B6943F040
:101BA00070637B610DE07B685B0D1B013A6902FA93
:101BB00003F3DB437A6913407B617B6943F0706315
:101BC0007B61FB78002B08D07B685B0D1B013A69B9
:101BD00002FA03F37A6913437B617B68002B03DA13
:101BE000054B7A69DA6102E0034B7A695A601C3767
:101BF000BD465DF8047B70470000014080B400AF33
:101C0000BFF34F8FBD465DF8047B704780B483B04F
:101C100000AF0346FB71084B97F907205209F97989
:101C200001F01F01012000FA01F143F822100C37E6
:101C3000BD465DF8047B704700E100E080B500AF71
:101C4000054A054BDB6803F4E061044B0B43D360AA
:101C5000FFF7D4FFFEE700BF00ED00E00400FA0547
:101C600080B582B000AF0346FB711A4B1B78002B86
:101C700010D1194B1B785A1CD1B2174A1170F9793F
:101C8000164AA2FB01025209D2B23032D1B2144A32
:101C9000D1540FE0104B1B785A1CD1B20E4A117070
:101CA000F9790E4AA2FB01025209D2B23032D1B206
:101CB0000C4AD154FB79094AA2FB03125209642150
:101CC00001FB02F29B1ADBB2184606F03FF9083717
:101CD000BD4680BD8D0000208C0000201F85EB518B
:101CE0006C0000207C00002080B584B000AF002391
:101CF000FB730023BB7300237B7300233B73002320
:101D00007B8100237B6000233B6007F03BFC6A483B
:101D100007F006FA4FF4FA7008F0E4F832E006F043
:101D20001FF80346FB730020002107F02FFA6348D9
:101D300007F0F6F9624B1B689BB2184600F0D2F927
:101D4000604807F0EDF95E4B5B689BB2184600F007
:101D5000C9F90120002107F019FA0A2008F0C2F899
:101D6000594807F0DDF9564B9B689BB2184600F0C6
:101D7000B9F9564807F0D4F9514BDB689BB21846C5
:101D800000F0B0F9FB7B002BC9D007F0FBFBFB7B1D
:101D9000013B7B730023FB734D4807F0C1F9BB7B0C
:101DA000184604F011FF0346BB73BB7B184601F0D5
:101DB00051F907F0E7FB474807F0B2F93B7B1846BB
:101DC00004F002FF03463B737A7B3D4B53F822300D
:101DD0007B6007F0D7FB404807F0A2F9BB7B1846B1
:101DE00001F044F80023FB7317E00A2008F07AF8AA
:101DF00005F0B6FF0346FB7307F0C4FB374807F056
:101E00008FF90120002107F0C1F97A7B2C4B53F8A0
:101E100022309BB2184600F065F9FB7B022BE4D11F
:101E20007A7B274B53F822303B60BB7B184601F08E
:101E300011F9C82008F056F83B689AB27B689BB24B
:101E4000D31A9BB21A463B7B92FBF3F37B817A7BDE
:101E5000234B798923F8121007F094FB214807F0EF
:101E60005FF93B689BB2184600F03CF90120002165
:101E700007F08CF91C4807F053F97B89184600F0ED
:101E800031F97B8940F2426019460CF051F9002388
:101E9000FB7306E00A2008F025F805F061FF034611
:101EA000FB73FB7B022BF5D107F06CFBC82008F01D
:101EB00019F81037BD4680BDECE70008F8E70008C8
:101EC00070180020FCE7000800E8000804E800089B
:101ED00008E8000818E8000828E8000838E80008C2
:101EE000F81A002048E8000850E8000880B584B0DF
:101EF00000AF13460246FA710A46BA71BB8000234E
:101F0000FB60BB88104A128802FB03F20F4BA3FB55
:101F10000213DB08FB600023FB72002000F0A6FF29
:101F2000BA790B4B002143F8221002E00A2007F097
:101F3000D9FF074B1A68FB689A42F7D3002001F0DB
:101F400089F81037BD4680BDF81A0020CDCCCCCC26
:101F50007018002080B586B000AF13460246FA71B3
:101F60000A46BA71BB8000233B610023FB6000235B
:101F7000BB600023FB8200237B7507F003FB4F4807
:101F800007F0CEF806E00A2007F0ACFF05F0E8FE07
:101F900003467B757B7D002BF5D07B7D022B01D129
:101FA000FFF7A2FE01233B7580E007F0EBFA4448FF
:101FB00007F0B6F8434B1B88184600F093F8FB8AED
:101FC0001846052104F09AFE0346FB82FB8A3D4A2F
:101FD000128802FB03F23C4BA3FB0213DB083B61BC
:101FE00007F0D0FA394807F09BF83B699BB21846D6
:101FF00000F078F80120002107F0C8F8344807F015
:102000008FF8BA79334B53F82220324B53F82230F1
:102010009BB2184600F066F800237B75002000F0A4
:1020200025FFBA792B4B002143F822101BE00A2030
:1020300007F058FF07F0A6FA274807F071F8BA79B9
:10204000244B53F822309BB2184600F04BF8012085
:10205000002107F09BF8214807F062F83B699BB22A
:10206000184600F03FF81B4B1A683B699A42DED3D2
:10207000002000F0EFFF07F085FA194807F050F84C
:1020800006E00A2007F02EFF05F06AFE03467B7586
:102090007B7D002BF5D07B7D022B05D101233B7589
:1020A0000C4B00221A6001E000233B753B7D012BA5
:1020B0003FF47BAF1837BD4680BD00BF58E800082D
:1020C00068E80008F81A0020CDCCCCCC74E80008F1
:1020D0007CE800087018002080E8000888E8000804
:1020E0008CE8000880B582B000AF0346FB80FA8818
:1020F000164BA3FB02135B0B9BB2DBB2184605F039
:1021000025FFFB88114AA2FB0312520B42F2107109
:1021100001FB02F29B1A9AB20D4BA3FB02135B095F
:102120009BB2DBB2184605F011FFFB88084AA2FB00
:1021300003125209642101FB02F29B1A9BB2DBB22B
:10214000184605F003FF0837BD4680BD5917B7D1C3
:102150001F85EB5180B485B000AF3960134602464D
:10216000FA71BB710023FB730023FB7309E0FB7B57
:102170003A6813441A78FB795340FB71FB7B0133B7
:10218000FB73FA7BBB799A42F1D3FB79184614377B
:10219000BD465DF8047B704780B500AF574B1B8888
:1021A000062B02D9554B00221A80554840F2255182
:1021B00008F01AFD0346002B0ED0514808F0F4FC3D
:1021C0000346DAB24F4B1A704D4B4D4A128892B209
:1021D00022F0200292B21A80494B494A128892B2E8
:1021E00022F0400292B21A80474B1B78002B17D086
:1021F000464B1A78464B1B789A4211D2404A434BC1
:102200001B78591CC8B2414908704249CB5C938085
:102210003B4B3B4A128892B222F0400292B21A80A3
:102220003D4B1B78002B67D13C4B1B78042B32D1E4
:102230003B4B1B78002B03D1324B1A78394B1A7069
:10224000374B1B785A1CD1B2354A11702D4A117880
:10225000354AD154324B1A78324B1B789A421AD1F4
:10226000304B1B78302030491A46FFF773FF034686
:102270001A462E4B1A702D4B1B78002B03D1264B80
:1022800001221A7001E000F093F8244B00221A702A
:10229000234B00221A701B4B1B785A2B03D1244B63
:1022A00001221A7028E0174B1B78582B07D1204BBE
:1022B0001B78012B03D11E4B02221A701CE01C4B11
:1022C0001B78022B18D10F4B1B78302B11D00D4BE4
:1022D0001B78312B03D1114B03221A7009E0094BF3
:1022E0001B78322B05D10D4B04221A700C4B0022A7
:1022F0001A700F4B00221A7080BD00BF5C000020D6
:1023000000380140F21A0020590000205A00002035
:10231000190000203C1B0020B9000020B80000205C
:10232000B6000020B700002084180020BA0000206A
:10233000B500002080B582B000AF78600A4B1B78F2
:10234000012B04D100F04EF8074B00221A700A202E
:1023500007F0C8FD054B1B78012B01D100F008F8F0
:102360000A2007F0BFFDE9E7B9000020590000206E
:1023700080B500AF0A4BDA780A4B1A700A4B00227C
:102380001A7002E0052007F0ADFD074B1A78054BE7
:102390001B789A42F6D3054B00221A7080BD00BF0D
:1023A0003C1B0020190000205A000020590000208A
:1023B00080B483B000AF0023FB710023FB7106E003
:1023C000FB79074A0021D154FB790133FB71FB797A
:1023D0000F2BF5D90C37BD465DF8047B704700BF65
:1023E0008418002080B500AF5D4B5B780D2B00F2A8
:1023F000B38001A252F823F03124000855240008CC
:10240000672400087B240008832400088F24000828
:102410009B240008A7240008B3240008C724000850
:10242000D9240008E32400082F25000853250008BC
:102430004B4B99784A4BDA78494B1B791B0298B27F
:10244000474B5B7903449BB2084611461A46FFF797
:102450004DFD81E0424B9A78414BDB78104619469E
:1024600004F030FA78E03F4B33221A703E4B1B7871
:102470001846002104F026FA6EE03A4B30221A701A
:102480006AE0374B9B78184600F0F0FC64E0344B70
:102490009B78184600F0DEFD5EE0314B9B781846D5
:1024A00000F0E0FA58E02E4B9B78184600F062F8F6
:1024B00052E02C4B1B78332B04D1294B9A782B4BB1
:1024C0001A7049E048E0264B9A78254BDB78104695
:1024D000194601F083FE3FE0214B9A78244B1A7095
:1024E0003AE0224B00221A701E4B33221A701F4B07
:1024F00000221A700020002104F0E4F901200021DC
:1025000004F0E0F90220002104F0DCF903200021AE
:1025100004F0D8F9022000F09DFD032000F09AFDA0
:10252000002000F097FD012000F094FD14E00C4B1A
:102530009B781A020A4BDB7813441A02084B1B796A
:1025400013441A02064B5B791344184605F072FADD
:1025500002E0FFF773FB00BFFFF72AFF80BD00BF5B
:102560008418002018000020920000201B0000208A
:10257000281B002080B584B000AF0346FB71974B49
:102580005A221A70954B58225A70944B33229A70E3
:10259000924B2822DA70FB79012B40F0C780904BD8
:1025A0001A788E4B1A718F4B1B68DAB28B4B5A71AB
:1025B0008D4B1B68DAB2894B9A718C4B1A78874B1A
:1025C000DA718B4B1B68DAB2844B1A72894B1A781A
:1025D000824B5A72884B1A78804B9A72864B5A7883
:1025E0007E4BDA72844B9A787C4B1A73824BDA7882
:1025F0007A4B5A73814B1B8B9BB2DAB2774B9A732F
:102600007E4B1B8B9BB21B0A9BB2DAB2734BDA7305
:102610007A4B9B8B9BB2DAB2704B1A74774B9B8BC5
:102620009BB21B0A9BB2DAB26C4B5A74744B1B8878
:10263000DAB26A4B9A74724B1B881B0A9BB2DAB2ED
:10264000664BDA746E4B5B88DAB2644B1A756C4B6E
:102650005B881B0A9BB2DAB2604B5A75694B1B88C8
:10266000DAB25E4B9A75674B1B881B0A9BB2DAB2D3
:102670005A4BDA75634B5B88DAB2584B1A76614B6A
:102680005B881B0A9BB2DAB2544B5A765D4B9B882F
:10269000DAB2524B9A765B4B9B881B0A9BB2DAB23A
:1026A0004E4BDA76574BDB88DAB24C4B1A77554BE8
:1026B000DB881B0A9BB2DAB2484B5A77524B1B6835
:1026C000DAB2464B9A77504B1B681B0ADAB2434B7F
:1026D000DA774D4B1B681B0CDAB2404B83F8202095
:1026E000494B1B681B0EDAB23C4B83F82120474B49
:1026F0001A783A4B83F82220414B1B881B0A9BB265
:10270000DAB2364B83F823203D4B5B88DAB2334B89
:1027100083F824203A4B5B881B0A9BB2DAB22F4B1A
:1027200083F825202D4BFA7983F82620FB79022B9C
:1027300040D105F06DF9F860354B1B88DAB2274BB4
:102740001A71334B1B881B0A9BB2DAB2234B5A71A6
:10275000304B1B88DAB2214B9A712E4B1B881B0A17
:102760009BB2DAB21D4BDA711C4B00221A72254B58
:102770001B881B0A9BB2DAB2184B5A72214B5B883A
:10278000DAB2164B9A721F4B5B881B0A9BB2DAB205
:10279000124BDA721B4B9B88DAB2104B1A73194B2F
:1027A0009B881B0A9BB2DAB20C4B5A730B4BFA791B
:1027B00083F82620FB79032B5BD1174B9B68DAB299
:1027C000064B1A71144B9B681B0ADAB2034B5A7101
:1027D000114B9B681B0CDAB220E000BF3C1B0020B1
:1027E00018000020F41A0020801800201C1B002074
:1027F000341B0020951800209C1B0020002800405E
:10280000641B00207C1B002070180020C81A0020C8
:102810009400002096000020000801407E4B9A7131
:102820007E4B9B681B0EDAB27B4BDA717C4B9B684C
:10283000DAB2794B1A727A4B9B681B0ADAB2764B82
:102840005A72774B9B681B0CDAB2734B9A72744BBB
:102850009B681B0EDAB2704BDA72724B9A786E4B31
:102860001A73704BDA786C4B5A736B4BFA7983F8A6
:102870002620FB79042B38D16B4B1A78664B1A71E2
:102880006A4B1A78644B5A71694B1B789B00DAB219
:10289000684B1B781344DAB25F4B9A71664B1B8806
:1028A000DAB25D4BDA71654B1B881B0A9BB2DAB258
:1028B000594B1A72584B00225A72614B1A78564B78
:1028C0009A72604B1B88DAB2534BDA725D4B1B88ED
:1028D0001B0A9BB2DAB2504B1A735B4B1A784E4B01
:1028E0005A734D4BFA7983F82620FB79052B3AD1A0
:1028F000564B1B88DAB2484B1A71544B1B881B0A83
:102900009BB2DAB2444B5A71504B5B88DAB2424BFD
:102910009A714E4B5B881B0A9BB2DAB23E4BDA715E
:102920004B4B1B68DAB23C4B1A72494B1B681B0AB3
:10293000DAB2394B5A72464B1B681B0CDAB2364B73
:102940009A72434B1B681B0EDAB2334BDA72414B5F
:102950001A78314B1A733C4B1A782F4B5A732E4B03
:10296000FA7983F82620FB79062B3DD1374B1B885B
:10297000DAB2294B1A71354B1B881B0A9BB2DAB2AB
:10298000254B5A71314B5B88DAB2234B9A712F4B2E
:102990005B881B0A9BB2DAB21F4B5A712C4B5B68E7
:1029A000DAB21D4B1A722A4B5B681B0ADAB21A4B59
:1029B0005A72274B5B681B0CDAB2174B9A72244B86
:1029C0005B681B0EDAB2144BDA721E4B5B88DAB20C
:1029D000114B1A731B4B5B881B0A9BB2DAB20E4B6E
:1029E0005A730D4BFA799A7500200B492722FFF78D
:1029F000B1FB03461A46084B83F82720064BDA78CA
:102A0000154B1A70154B00221A70154B01221A70C3
:102A10001037BD4680BD00BF3C1B002000080140B0
:102A2000000C01409C1B0020AC000020AD000020E9
:102A3000AF000020AE0000208E1B00201A1B0020DB
:102A4000C81A0020F81A0020001B0020641B002078
:102A500070180020281B0020190000205A000020B8
:102A60005900002080B584B000AF78600023FB736C
:102A70000023BB8100237B81204BDAB2204B1A70EC
:102A8000204BDAB21E4B5A701F4BDAB21C4B9A70B5
:102A90001B4B0D22DA707B68DAB2194B1A710023D6
:102AA000FB7321E07B6803F5B8735A00FB7B13448A
:102AB0009BB25B00BB81BA8907F10A031046194635
:102AC0000BF0EAFAFB7B5B0005330D4A0021D15481
:102AD000FB7B03335B007A89D2B25242D1B2084AFF
:102AE000D154FB7B0133FB73FB7B032BDAD9074B00
:102AF00001221A701037BD4680BD00BF94E800085F
:102B00003C1B002098E800089CE8000859000020C1
:102B100080B400AF024B1B68BD465DF8047B704774
:102B20000000024080B400AF024B1B68BD465DF858
:102B3000047B70470000024080B586B000AF0120E2
:102B4000012107F05DF825233B7500237B750023E9
:102B5000BB750123FB754FF400733B820323BB74E9
:102B60001823FB7407F1100323481946FEF7EAFE09
:102B70004FF480633B820423FB7407F110031E486B
:102B80001946FEF7DFFE1D4807F0D8FE4FF48040DF
:102B9000012107F053F84FF416533B600023BB802C
:102BA0000023FB8000233B810023BB810C237B811E
:102BB0003B461248194607F01DFF10484FF4587164
:102BC00008F002F80D4B0D4A928992B242F02002B1
:102BD00092B29A81094B094A928992B242F040021C
:102BE00092B29A810548012107F0BEFF2520FFF728
:102BF0000DF81837BD4680BD00080140003801407F
:102C000080B584B000AF4FF4B873BB812823FB7349
:102C100007F10C0303481946FEF794FE1037BD4632
:102C200080BD00BF0008014080B588B000AF102013
:102C3000012107F003F80220012107F01DF807F138
:102C40001C031846FEF73AFF4FF47073BB8303234F
:102C5000BB771823FB7707F11C0320481946FEF7C2
:102C600071FE1F480121FEF759FF07F110031846B6
:102C7000FDF732FD4FF40073FB8240F2E733BB8275
:102C8000EF233B8207F1100316481946FDF74AFA75
:102C90003B461846FDF73AFD01237B8060233B80CD
:102CA0000023FB803B460F481946FDF7B7FA3B4629
:102CB0000C481946FDF73EFB3B460A481946FDF70E
:102CC000C1FB3B4607481946FDF742FC0548012178
:102CD000FDF73EFD2037BD4680BD00BF001001401E
:102CE000000C1A000004004080B582B000AF06F06E
:102CF00049FC0023FB8000237B7100233B7106F01D
:102D000041FC2D4806F00CFA3B1D40F24460194688
:102D10000BF0C2F93B79184603F056FF03463B71AE
:102D20003B7940F2446019460BF002FA03F02EFAA8
:102D30000A2007F0D7F806F025FC204806F0F0F945
:102D40001CE005F00DF803467B711D4B1B88FB80D2
:102D5000052007F0C7F80120002106F017FAFA88CD
:102D6000184BA3FB02135B099BB2DBB2184605F0BC
:102D7000EDF8FB88DBB2184605F0E8F87B79022B0A
:102D8000DFD10A2007F0AEF8FB8840F22260194636
:102D90000BF0CEF903F0FAF94FF4FA6007F0A2F85D
:102DA000094806F0BDF900237B7106F0EBFB05F046
:102DB0005DFC0837BD4680BDA0E80008B0E800080B
:102DC000641B00201F85EB51C4E8000880B582B069
:102DD00000AF0023BB800023FB713B1D40F2446029
:102DE00019460BF059F9BB88FB71194B1B7803F09E
:102DF00002035B10012B27D1FB79032B24D800237E
:102E0000BB71144B1B781A46FB7942FA03F3DBB211
:102E100003F00103BB71BB79002B15D10E4B1B884E
:102E20001A460E4B1B8802339A4203DDFB79184683
:102E300000F01CF8084B1A88084B1B889A4203D2F2
:102E4000FB79184600F006F90837BD4680BD00BF83
:102E50001B00002058000020641B0020B01B002035
:102E600080B400AFBD465DF8047B704780B584B088
:102E700000AF0346FB71012007F034F80023FB721A
:102E8000704B1B781A46FB7942FA03F3DBB203F06E
:102E90000103FB72FB7A002B40F0B080FB7901222A
:102EA00002FA03F3DAB2674B1B78DBB21343DBB2EF
:102EB000DAB2644B1A70FB79002B03D0FB79012B3B
:102EC00040F08A800023FB730023BB720023BB7396
:102ED000FB79002B07D15C4B9B681B09DBB203F02D
:102EE0000103FB7306E0584B9B681B0ADBB203F03F
:102EF0000103FB73012006F0F5FF544B1B781A46C3
:102F0000FB7942FA03F3DBB203F00103BB72FB7BF4
:102F1000002B41D1BB7A002B3ED1FB79184600F043
:102F20006DF94FF41673BB8120E0FB79002B07D1BC
:102F3000454B9B681B09DBB203F00103FB7306E002
:102F4000414B9B681B0ADBB203F00103FB73FB7B65
:102F5000012B03D1BB7B0133BB7301E00023BB73A7
:102F6000012006F0BFFFBB89013BBB81BB7B022B6D
:102F700002D8BB89002BD8D1BB89002B0CD1FB799F
:102F8000012202FA03F3DAB2304B1B78DBB21343AF
:102F9000DBB2DAB22D4B1A70FB79184600F044F917
:102FA000FB79012202FA03F3DBB2DB43DAB2284BEE
:102FB0001B78DBB21340DBB2DAB2254B1A70FA7B16
:102FC000FB7902FA03F3DAB2214B1B78DBB213432D
:102FD000DBB2DAB21E4B1A70052006F083FFFB79D4
:102FE000012202FA03F3DBB2DB43DAB2154B1B78A2
:102FF000DBB21340DBB2DAB2124B1A70FB79022B50
:1030000002D0FB79032B16D10F4B0F4A5169FA7985
:103010000B32012000FA02F20A435A61FB790122C5
:1030200002FA03F3DAB20A4B1B78DBB21343DBB2CA
:10303000DAB2074B1A70012006F054FF1037BD4674
:1030400080BD00BF5800002000080140281B002060
:103050001C1B002080B584B000AF0346FB71002329
:10306000FB72624B1B781A46FB7942FA03F3DBB220
:1030700003F00103FB72FB7A002B40F09580FB7993
:10308000012202FA03F3DAB2584B1B78DBB2134386
:10309000DBB2DAB2554B1A700023FB730023BB730B
:1030A0000023BB724FF41673BB81FB79002B07D151
:1030B0004F4B9B681B09DBB203F00103BB7306E0B7
:1030C0004B4B9B681B0ADBB203F00103BB73FB791C
:1030D000012202FA03F3DAB2464B1B78DBB213404B
:1030E000DBB2BB72012006F0FDFEBA7AFB7942FA30
:1030F00003F3BB72BB7B012B34D1BB7A002B31D1E4
:10310000FB79002B02D0FB79012B2BD1FB791846E0
:1031100000F074F820E0FB79002B07D1344B9B685A
:103120001B09DBB203F00103BB7306E0304B9B6865
:103130001B0ADBB203F00103BB73BB7B002B03D183
:10314000FB7B0133FB7301E00023FB73012006F0DE
:10315000C9FEBB89013BBB81FB7B022B02D8BB892B
:10316000002BD8D1FB79184600F05EF8FB790122DC
:1031700002FA03F3DBB2DB43DAB21F4B1B78DBB29C
:103180001340DBB2DAB21C4B1A70FB79012202FA4F
:1031900003F3DBB2DB43DAB2144B1B78DBB2134030
:1031A000DBB2DAB2114B1A70FB79022B02D0FB7939
:1031B000032B18D10E4B0E4A1169FA790B320120FC
:1031C00000FA02F20A431A61FB79012202FA03F3C0
:1031D000DBB2DB43DAB2084B1B78DBB21340DBB265
:1031E000DAB2054B1A701037BD4680BD580000207A
:1031F00000080140281B00201C1B002080B483B065
:1032000000AF0346FB71074B064A5169FA790B324E
:10321000012000FA02F20A435A610C37BD465DF8FC
:10322000047B70470008014080B483B000AF0346C0
:10323000FB71074B064A1169FA790B32012000FA3B
:1032400002F20A431A610C37BD465DF8047B7047F1
:103250000008014080B500AF012006F067FD034B78
:103260001B685A1C014B1A6080BD00BF70180020FB
:1032700080B500AF022006F059FD034B5B685A1C75
:10328000014B5A6080BD00BF7018002080B500AFB0
:10329000042006F04BFD80BD80B500AF4FF4806088
:1032A00006F044FD4FF4006006F040FD4FF48050FE
:1032B00006F03CFD80BD00BF80B500AF202006F0C9
:1032C00035FD402006F032FD802006F02FFD80BD48
:1032D00080B582B000AF0023FB710023BB710023D7
:1032E0007B7106F04FF974E0142006F0FBFD04F04A
:1032F00037FD0346FB710020002105F047FF3948E8
:1033000005F00EFFBB79184604F020FEFB79042B74
:1033100003D1BB791846FFF7A9FDFB79032B03D135
:10332000BB791846FFF796FEFB79012B08D1BB79D4
:10333000012B03D8BB790133BB7101E00023BB71C2
:10334000012006F0CFFD0120002105F01FFF2648D7
:1033500005F0E6FE254B1B78184604F0F7FD01202A
:1033600006F0C0FD224805F0DBFE224B9B6803F00F
:103370001003002B03D0204805F0D2FE02E01F48C6
:1033800005F0CEFE1B4B9B6803F02003002B03D0FF
:10339000194805F0C5FE1CE0184805F0C1FE154BA4
:1033A0009B6803F04003002B03D0134805F0B8FEE0
:1033B00002E0124805F0B4FE0E4B9B6803F48073E4
:1033C000002B03D00C4805F0ABFE02E00B4805F0E3
:1033D000A7FEFB79022B87D106F0D4F80837BD464B
:1033E00080BD00BFD0E80008DCE800081C1B0020FE
:1033F000E0E8000800080140E8E800089CE8000850
:1034000080B582B000AF0023FB710223BB710023A3
:103410007B7106F0B7F86EE0142006F063FD04F04F
:103420009FFC0346FB710020002105F0AFFE3648EB
:1034300005F076FEBB79184604F088FDFB79042B75
:103440000DD1324B314A1169BA790B32012000FAA1
:1034500002F20A431A61BB791846FFF7CFFEFB79E7
:10346000032B0DD1294B294A5169BA790B3201201E
:1034700000FA02F20A435A61BB791846FFF7D4FEFC
:10348000FB79012B08D1BB79032B03D8BB7901331E
:10349000BB7101E00223BB71012006F023FD012076
:1034A000002105F073FE1A4805F03AFE194B1B780F
:1034B000184604F04BFD012006F014FD164805F0F7
:1034C0002FFE124BDB6803F40053002B03D013488C
:1034D00005F026FE02E0124805F022FE0B4BDB68E9
:1034E00003F48043002B03D00C4805F019FE02E0E2
:1034F0000B4805F015FEFB79022B8DD106F042F842
:103500000837BD4680BD00BFD0E800080008014074
:10351000DCE800081C1B0020E0E80008E8E80008E0
:103520009CE8000880B582B000AF0023FB71002347
:10353000BB7100237B7100233B7100237B8006F06D
:1035400021F87FE0142006F0CDFC04F009FC0346CE
:10355000FB710020002105F019FE414B1B887B8088
:103560007B88DBB2184604F0F1FC3D4B5B887B8026
:103570007B88DBB2184604F0E9FC3A4805F0D0FD40
:10358000394B9B8C7B807B881846FEF7ABFDFB7923
:10359000042B02D10120FFF769FCFB79012B05D137
:1035A0000120FFF741FE0120FFF754FD012006F046
:1035B00099FC0120002105F0E9FD2C4B1B781846F1
:1035C00004F0C4FC2A4805F0ABFD00233B80294BE6
:1035D0009B685B093B803B881846FEF783FD2648C5
:1035E00005F09EFD012006F07DFC224B9B685B09E7
:1035F00003F00103002B03D0204805F091FD02E009
:103600001F4805F08DFD1B4B9B689B0903F00103D0
:10361000002B03D0194805F083FD02E0184805F09F
:103620007FFD144B9B68DB0903F00103002B03D0E3
:10363000124805F075FD02E0114805F071FD1148D2
:1036400005F06EFDFB79022B7FF47CAF05F09AFF4D
:10365000FFF73EFEFFF7D4FE0837BD4680BD00BF32
:10366000641B0020ECE80008004801401C1B0020FF
:10367000F0E8000800080140F4E80008E8E8000865
:103680009CE80008F8E8000880B586B000AF034663
:10369000FB710023BB8200237B81FB799BB21B0162
:1036A0009BB203F21463BB82BA8A07F10A03104685
:1036B00019460AF0F1FC05F065FF964805F030FD6B
:1036C0007B89184603F0CAFA03467B817B89BA8A54
:1036D000104619460AF02CFDFB799BB21B019BB2E8
:1036E00003F21563BB82BA8A07F10A031046194632
:1036F0000AF0D2FC05F046FF874805F011FD7B89F2
:10370000184603F0ABFA03467B817B89BA8A1046E0
:1037100019460AF00DFDFB799BB21B019BB203F227
:103720001663BB82BA8A07F10A03104619460AF0EB
:10373000B3FC05F027FF794805F0F2FC7B891846B9
:1037400003F08CFA03467B817B89BA8A10461946BE
:103750000AF0EEFC07F10A0340F6990019460AF058
:103760009BFC05F00FFF6E4805F0DAFC7B89DBB2AD
:10377000184603F029FA03467B817B8940F69900BD
:1037800019460AF0D5FC7B89DAB2664B1A707B8940
:1037900003F2FF53BB82BB8A184646210AF0C8FCDD
:1037A0007B89614A4621D154FB799BB21B019BB2B4
:1037B00003F21E63BB82BA8A07F10A031046194658
:1037C0000AF06AFC05F0DEFE584805F0A9FC7B898A
:1037D000DBB2184603F0F8F903467B817B89BA8A8D
:1037E000104619460AF0A4FC7B8903F2FF53BB8202
:1037F000BB8A184647210AF09BFC7B894A4A47212D
:10380000D154FB799BB21B019BB203F21763BB82BD
:10381000BA8A07F10A03104619460AF03DFC05F082
:10382000B1FE434805F07CFC7B89184603F016FA8C
:1038300003467B817B89BA8A104619460AF078FCD8
:10384000FB799BB21B019BB203F5C363BB82BB8AAE
:10385000184604F0A3FD386105F094FE354805F0E4
:103860005FFC4FF4FA7006F03DFB386903F09EFAF6
:103870003861BB8A1846396903F05AF8FB799BB264
:103880001B019BB203F22263BB82BA8A07F10A03CF
:10389000104619460AF000FC05F074FE264805F0B3
:1038A0003FFC4FF4FA7006F01DFB7B89184603F0CD
:1038B000D5F903467B817B89BA8A104619460AF0FE
:1038C00037FCFB799BB21B019BB203F21F63BB82E7
:1038D000BA8A07F10A03104619460AF0DDFB05F023
:1038E00051FE164805F01CFC7B89DBB2184603F03C
:1038F0006BF903467B817B89BA8A104619460AF028
:1039000017FC05F03FFE0E4805F00AFC0023FB758E
:103910001FE000BFFCE800080CE9000820E90008EF
:1039200034E90008D01A00201C00002048E90008F3
:1039300058E9000868E900087CE900088CE90008FB
:1039400098E9000804F00CFA0346FB750A2006F01B
:10395000C9FAFB7D002BF5D0FB7D022B20D1FB7932
:103960009BB21B019BB203F21A63BB8204F050F8B6
:10397000F860BB8A1846F96802F0DAFFFB799BB25F
:103980001B019BB203F21C63BB8204F041F80246A8
:103990003B69D31A0533BA8A1046194602F0C8FFAC
:1039A000FB7D032B1ED105F0EDFD244805F0B8FB8F
:1039B0004FF47A7006F096FAFB799BB21B019BB22A
:1039C00003F21A63BB82BB8A184604F0E7FCF86076
:1039D000F868012103F0D8FBF860BB8A1846F96843
:1039E00002F0A6FF05F0CEFD154805F099FB4FF457
:1039F0007A7006F077FAFB7962339BB21B01BB82C7
:103A0000BB8A184604F0CAFCF860F868012103F08C
:103A1000BBFBF860BB8A1846F96802F089FF05F025
:103A2000B1FDC82006F05EFA06F0BEFA04F01EFEF4
:103A300006F0C8FA1837BD4680BD00BFA8E90008E7
:103A4000B4E9000880B582B000AF0023FB7105F037
:103A500099FD094805F064FBC82006F043FAFB799C
:103A6000184603F0B1F80346FB71FB79184600F0E5
:103A700021F80837BD4680BDC0E9000880B582B096
:103A800000AF0023FB7105F07DFD094805F048FB00
:103A9000C82006F027FAFB79184603F095F803468C
:103AA000FB71FB791846FFF7EFFD0837BD4680BD77
:103AB000C0E9000880B584B000AF0346FB71002365
:103AC000FB810023BB81FB799BB21A46D200D31A3B
:103AD0009BB203F24563FB81FA8907F10C031046A0
:103AE00019460AF0D9FA05F04DFD604805F018FBBB
:103AF000BB89184603F0B2F80346BB81BB89FA893B
:103B0000104619460AF014FBFB799BB21A46D20004
:103B1000D31A9BB203F24663FB81FA8907F10C03C7
:103B2000104619460AF0B8FA05F02CFD504805F089
:103B3000F7FABB89184603F091F80346BB81BB89AD
:103B4000FA89104619460AF0F3FAFB799BB21A4635
:103B5000D200D31A9BB203F24763FB81FA8907F1C3
:103B60000C03104619460AF097FA05F00BFD414880
:103B700005F0D6FABB89184603F070F80346BB81FE
:103B8000BB89FA89104619460AF0D2FAFB799BB232
:103B90001A46D200D31A9BB203F5C963FB81FA8996
:103BA00007F10C03104619460AF076FA05F0EAFC14
:103BB000314805F0B5FABB89184603F04FF80346C3
:103BC000BB81BB89FA89104619460AF0B1FAFB7924
:103BD0009BB21A46D200D31A9BB203F24963FB810F
:103BE000FA8907F10C03104619460AF055FA05F058
:103BF000C9FC224805F094FABB89184603F02EF858
:103C00000346BB81BB89FA89104619460AF090FA2F
:103C1000FB799BB21A46D200D31A9BB203F24A63D5
:103C2000FB81FA8907F10C03104619460AF034FAB1
:103C300005F0A8FC124805F073FABB89184603F09A
:103C40000DF80346BB810A2006F04CF9BB89FA89BE
:103C5000104619460AF06CFA05F094FC0A2006F0AA
:103C600041F904F003FD1037BD4680BDCCE90008E2
:103C7000E0E90008F0E9000800EA00080CEA0008A2
:103C80001CEA000890B585B000AF0023BB73002389
:103C9000FB7305F077FC2F4805F042FAC82006F0C8
:103CA00021F9BB7B184602F08FFF0346BB7305F07A
:103CB00069FC294805F034FABB7B184604F046F944
:103CC000264805F02DFA06E01E2006F00BF904F058
:103CD00047F80346FB73FB7B022B02D0FB7B032BD5
:103CE000F2D1C82006F0FEF8FB7B022B29D1BB7B6A
:103CF0001B0103F5C363BB60BB689BB2184604F0AD
:103D00004DFB7860BB7B1B0103F21A63BB6003F0C1
:103D10007FFE3860BB689BB21846396802F008FE27
:103D2000BB7B1B0103F21C63BB60BB689CB203F04E
:103D30006FFE02467B68D31A05332046194602F00F
:103D4000F7FD05F01FFCC82006F0CCF81437BD467F
:103D500090BD00BFC0E9000828EA000834EA000866
:103D600080B58EB000AF0346FB71FB79012202FAE9
:103D700003F3DAB2974B1B78DBB21343DBB2DAB250
:103D8000944B1A700120FFF765F900233B82002352
:103D900087F8363000233B630023BB620023FB60BF
:103DA0000023FB62012006F09DF8FB799BB21B010A
:103DB0009BB203F21463FB84FA8C07F114031046E0
:103DC00019460AF069F9FB799BB21B019BB203F219
:103DD0001663FB84FA8C07F10C03104619460AF0AF
:103DE0005BF903F015FE3863FB683A6B1344BB6262
:103DF000052006F077F80020FFF738F818E003F008
:103E000007FE3863BB8A012202FA03F3DAB2724B6F
:103E10001B78DBB21340DBB287F8363097F83620D8
:103E2000BB8A42FA03F387F83630192006F05AF8B5
:103E300097F83630002B03D13A6BBB6A9A42DED337
:103E40000020FFF707F94FF47A7006F04BF80023D3
:103E500087F837307AE000237B8100233B62002320
:103E6000FB610023BB61FB799BB21B019BB203F595
:103E7000C363FB84FB8C184604F090FAF861FB796D
:103E80009BB21B019BB203F21A63FB84FB8C1846A6
:103E900004F084FAB86197F837309BB21A46D20022
:103EA000D31A9BB203F24963FB84FA8C07F10A032D
:103EB000104619460AF0F0F803F0AAFD0246BB6965
:103EC000D21AFB69B2FBF3F33B627B893A6AB2FB1D
:103ED000F3F3FB7500233B8197F837309BB21A460A
:103EE000D200D31A9BB203F5C963FB84FA8C07F1A5
:103EF0001203104619460AF0CFF897F837309BB2F4
:103F00001A46D200D31A9BB203F24A63FB84FA8C9E
:103F100007F10803104619460AF0BEF8FB799AB279
:103F20007B8A9A420AD13B89012B07D1FB7D002B6A
:103F300004D197F83730184600F0CEF80A2005F083
:103F4000D1FF97F83730013387F8373097F837309B
:103F5000082B80D9FB799BB21B019BB203F217633C
:103F6000FB84FA8C07F10C03104619460AF094F80A
:103F7000FB799BB21B019BB203F21E63FB84FA8C9C
:103F800007F11003104619460AF086F80A2005F0DA
:103F9000A9FF03F03DFD386303F03AFD0246FB68DC
:103FA0001344BB620A2005F09DFFFB799BB21B0105
:103FB0009BB203F21563FB84FA8C07F114031046DD
:103FC00019460AF069F8002387F83730012387F88B
:103FD000363046E095180020001B00200A2005F02E
:103FE00081FFBB8A012202FA03F3DAB2374B1B7856
:103FF000DBB21340DBB287F8363097F83620BB8A45
:1040000042FA03F387F83630314B1B68DBB203F01A
:10401000010387F8373003F0FBFC0246FB6A9A4243
:104020000DD997F83730012B09D197F83630012B8D
:1040300005D13B6B01333B6303F0EAFCF8620520DA
:1040400005F050FF3B8ADAB297F8371097F8363010
:104050000B40DBB203F00103DBB21046194602F05D
:1040600031FC3A6BBB6A9A42B8D33B8ADBB2184642
:10407000002102F027FC0A2005F034FF0120FEF7A2
:10408000F5FEFB799BB21B019BB203F21C63FB8420
:1040900003F0BEFC0346FA8C1046194602F048FCB9
:1040A000FB79012202FA03F3DBB2DB43DAB2094BFC
:1040B0001B78DBB21340DBB2DAB2064B1A70C820B1
:1040C00005F010FF3837BD4680BD00BF001B002043
:1040D000801800209518002080B586B000AF0346F8
:1040E000FB7100237B61FB799BB21A46D200D31A85
:1040F0009BB203F246637B827A8A07F11003104673
:10410000194609F0C9FFFB799BB21A46D200D31AAF
:104110009BB203F245637B827A8A07F10E03104655
:10412000194609F0B9FFFB799BB21A46D200D31A9F
:104130009BB203F247637B827A8A07F10C03104635
:10414000194609F0A9FF03F063FC02463B8A1344B9
:104150007B61FB89DBB21846012100F03FF802E0E9
:104160000A2005F0BFFE03F053FC02467B699A4229
:10417000F6D3FB89DBB21846002100F02FF8BB898B
:10418000184600F003F81837BD4680BD80B584B0EE
:1041900000AF0346FB800023FB6003F039FC0246BE
:1041A000FB881344FB600C4B1B781846012102F07E
:1041B00089FB02E00A2005F095FE03F029FC024687
:1041C000FB689A42F6D3044B1B781846002102F094
:1041D00079FB1037BD4680BDD01A002080B483B073
:1041E00000AF02460B46FA71BB71BB79002B0DD0B4
:1041F000FB79012202FA03F3DAB22C4B1B78DBB213
:104200001343DBB2DAB2294B1A700EE0FB790122BC
:1042100002FA03F3DBB2DB43DAB2244B1B78DBB2E6
:104220001340DBB2DAB2214B1A70BB79012B02D1F9
:104230000023BB7103E0BB79C3F16403BB71FB795D
:10424000002B08D11A4ABB799BB2194689000B444E
:104250005B009BB29386FB79012B08D1144ABB7992
:104260009BB2194689000B445B009BB21387FB7914
:10427000022B08D10E4ABB799BB2194689000B4428
:104280005B009BB29387FB79032B09D1084ABB796A
:104290009BB2194689000B445B009BB2A2F84030E8
:1042A0000C37BD465DF8047B704700BF94180020B2
:1042B0000004004080B58AB000AF7860002387F822
:1042C00026300120FEF7D2FD0020FEF7C3FE0023BA
:1042D00087F827307EE00A2005F004FE97F82730A3
:1042E0009BB21B019BB203F21C63BB84BB8C1846C0
:1042F00004F054F8386203F08BFBF86197F827302C
:104300009BB21B019BB203F5C363BB84BB8C1846F5
:1043100004F044F8B861FA693B6AD31A7B6197F8F4
:1043200027309BB21B019BB203F21A63BB84BB8C88
:10433000184604F033F8386197F8273062339BB29F
:104340001B01BB84BB8C184604F028F8F86097F872
:1043500027309BB21B019BB203F21F63BB84BA8C54
:1043600007F10B031046194609F096FE0A2005F0E6
:10437000B9FD97F82730012202FA03F3DAB2184B9D
:104380001B78DBB21340DBB287F8263097F8262083
:1043900097F8273042FA03F387F826307A69BB6929
:1043A0009A420FD9FA693B699A420BD9FA69FB68BC
:1043B0009A4207D2FB7A012B04D197F8273018468E
:1043C000FFF7CEFC0A2005F08DFD97F8273001336A
:1043D00087F8273097F82730022B7FF67CAF76E7F7
:1043E0009518002080B582B000AF4FF480300121D5
:1043F00005F024FC4FF40043BB804823FB710323EA
:10440000BB713B1D1F481946FDF79CFA1E48012150
:10441000FDF784FB18233B7000237B700123BB70E6
:104420000123FB703B46184609F002FB174B0422A0
:104430001A80164B00225A80144B01229A80134B8B
:104440000022DA80114B00221A8111480F49FCF733
:10445000E7F80F486021FCF7BFF90D480421FCF78D
:10446000D7F90B488021FCF7EFF909480121FCF747
:104470006FF9074804210122FCF78AF90837BD4685
:1044800080BD00BF000C014001000080841B0020A3
:104490000040014080B400AF074B074A526822F049
:1044A00040425A60044B044A526842F080525A60BB
:1044B000BD465DF8047B7047000C014080B500AF3D
:1044C00048480421FCF732FA4648FCF721FA034633
:1044D0001A46454B1A80444B1B889BB2002B18D0C0
:1044E0004048FCF707FA0346642202FB03F23E4B06
:1044F0001B889BB292FBF3F39AB23C4B1A803C4B65
:104500001A68394B1B889BB2B2FBF3F2394B1A6025
:1045100005E0364B00221A80364B00221A60364BDB
:104520001B780133DAB2344B1A70334B1A78334BA1
:104530001B789A4255D9324B1B78002B51D12B4B0B
:104540001B889BB2192B19D9284B1B889BB2222B95
:1045500014D82C4B1B782B4A12782B498A5CD1B289
:104560002A4A1278012000FA02F2D2B2D243D2B221
:104570000A40D2B2D1B2244AD15411E0214B1B7867
:10458000204A127820498A5CD1B2204A1278012050
:1045900000FA02F2D2B20A43D2B2D1B21A4AD154CC
:1045A0001A4B1B78002B16D1184B07221A70154B8B
:1045B0001B780133DAB2134B1A70124B1B78042BA1
:1045C0000FD10F4B01221A700E4B00221A700F4BA5
:1045D00007221A7005E00D4B1B78013BDAB20B4B3A
:1045E0001A7080BD000400406000002062000020BE
:1045F0000000002064000020680000201A00002055
:104600006A000020B21B00209C1B0020901B002091
:1046100080B500AF42480421FCF788F9404B1B8F5E
:104620009AB2404B1A803F4B1B889BB2002B0ED096
:104630003B4B9B8E9BB2642202FB03F2394B1B88DF
:104640009BB292FBF3F39AB2374B1A8005E0364BDC
:1046500000221A80354B00221A60354B1B7801333B
:10466000DAB2334B1A70324B1A78324B1B789A42BB
:1046700055D9314B1B78002B51D12B4B1B889BB24A
:10468000192B19D9284B1B889BB2222B14D82B4BE2
:104690001B782A4A12782A498A5CD1B2294A1278B0
:1046A000012000FA02F2D2B2D243D2B20A40D2B210
:1046B000D1B2234AD15411E0204B1B781F4A127803
:1046C0001F498A5CD1B21F4A1278012000FA02F217
:1046D000D2B20A43D2B2D1B2194AD154194B1B7883
:1046E000002B16D1174B07221A70144B1B7801337D
:1046F000DAB2124B1A70114B1B78042B0FD10E4BF0
:1047000001221A700D4B00221A700E4B07221A70EC
:1047100005E00C4B1B78013BDAB20A4B1A7080BDE6
:104720000040014060000020620000206400002082
:10473000680000201A0000206A000020B21B002040
:104740009C1B0020901B002080B500AF0648022172
:10475000FCF7ECF8044B9B8C9AB2044B5A80024B4A
:1047600000229A8480BD00BF00440140641B0020E9
:1047700080B500AF09480221FCF7D8F8084B9B68C8
:1047800003F40073002B04D1044B9B8C9AB2054BAD
:104790001A80024B00229A8480BD00BF004801406D
:1047A000000C0140641B002080B582B000AF1920CE
:1047B00005F098FB0023FB7106E0FB79144A002109
:1047C000D154FB790133FB71FB79042BF5D9114BE3
:1047D00000221A70104B00221A70FFF75BFE0F4B7D
:1047E0004FF400425A61052005F07CFB0B4B4FF45F
:1047F00000421A61FFF7F6FDC82005F073FB0520A3
:1048000005F070FB00F00CF80837BD4680BD00BF16
:104810009C1B0020680000206A000020000C014062
:1048200080B500AF0A2005F05DFB644B1B78012BBF
:1048300040F0C3800A2005F055FB614B1B781B023A
:104840009AB25F4B5B7813449AB25E4B5A805C4BD2
:104850009B781B029AB25A4BDB7813449AB2594B9D
:104860001A80574B5A79574B1A71564B5A88564BE8
:104870001B889A4208D9534B5A88544B1B889A423A
:1048800002D2534B00221A704E4B5A884E4B1B8853
:104890009A4202D24E4B01221A704A4B5A884B4B15
:1048A0001B889A4202D94A4B02221A700A2005F04C
:1048B00019FB444B1B88474AA2FB031292094FF491
:1048C0007A7101FB02F29B1A9AB2434BA3FB0213CB
:1048D0005B099BB2DBB23033DAB2404B1A70394B12
:1048E0001B883D4AA2FB03125209642101FB02F21C
:1048F0009B1A9AB23A4BA3FB0213DB089BB2DBB2C2
:104900003033DAB2354B5A70344B2E229A702D4B1D
:104910001A88334BA3FB0213D9080B469B000B44A8
:104920005B00D31A9BB2DBB23033DAB22B4BDA70B6
:104930000A2005F0D7FA234B5B88264AA2FB031214
:1049400092094FF47A7101FB02F29B1A9AB2224B40
:10495000A3FB02135B099BB2DBB23033DAB2214B0B
:104960001A70184B5B881C4AA2FB0312520964217F
:1049700001FB02F29B1A9AB2194BA3FB0213DB084C
:104980009BB2DBB23033DAB2164B5A70154B2E2283
:104990009A700C4B5A88124BA3FB0213D9080B4692
:1049A0009B000B445B00D31A9BB2DBB23033DAB20C
:1049B0000C4BDA70014B00221A7080BD6A00002097
:1049C0009C1B0020141B0020B41B0020F01A0020A8
:1049D0006B000020D34D62101F85EB51A41B0020FB
:1049E000CDCCCCCC241B002080B582B000AF0023FE
:1049F000FB710023BB713EE01E2005F073FA03F04B
:104A0000AFF90346FB710020002104F0BFFB1E4BF1
:104A10001B78184603F09AFA1C4804F081FBFB79D6
:104A2000042B05D1184B1B780133DAB2164B1A70E0
:104A3000FB79012B05D1144B1B78013BDAB2124BE9
:104A40001A700120002104F0A1FB114804F068FB5A
:104A5000104811490422022303F080F801200721A5
:104A600004F094FB0D4804F05BFB0D480A49042256
:104A70000A2303F073F8FB79022BBDD104F082FD09
:104A80000837BD4680BD00BF1A00002038EA000884
:104A90003CEA0008A41B00207C00002040EA00083B
:104AA000241B002080B483B000AF0346FB80FA884B
:104AB000094B1B68D21A13469B0013445B001A462D
:104AC000064B1B68B2FBF3F3DBB218460C37BD464E
:104AD0005DF8047B704700BF9C000020A800002008
:104AE00080B483B000AF0346FB71FB790A4A1268B9
:104AF00002FB03F3094A82FB03129210DB17D31A5D
:104B00009AB2074B1B689BB213449BB218460C37F2
:104B1000BD465DF8047B7047A800002067666666A6
:104B20009C00002080B582B000AF0023BB80002332
:104B3000FB7104F027FD284804F0F2FA0A2005F082
:104B4000D1F93B1D40F20460194609F0A5FABB8873
:104B50001846FFF7A7FF0346FB71FB79184600F0E4
:104B600085F90346FB710A2005F0BCF9FB7918466C
:104B7000FFF7B6FF034640F20460194609F0D8FA81
:104B800004F000FD154804F0CBFA0A2005F0AAF95C
:104B90003B1D40F20560194609F07EFABB881846B5
:104BA000FFF780FF0346FB71FB79184600F05EF9C2
:104BB0000346FB710A2005F095F9FB791846FFF7CB
:104BC0008FFF034640F20560194609F0B1FA04F080
:104BD000D9FC0837BD4680BD44EA0008C4E8000897
:104BE00080B584B000AF0346FB710023FB73FB79F3
:104BF0003E4AA3FB02015A1A52080A44920965214F
:104C000001FB02F29B1AFB7167E003F0A9F803466F
:104C1000FB730120032104F0B9FAFA79344B83FBCA
:104C200002139911D317CB1A4FF47A7101FB03F3D6
:104C3000D31A304A82FB03125211DB17D31ADBB2AC
:104C40003B72FB792B4AA2FB03125209642101FB40
:104C500002F29B1ADAB2284BA3FB0213DB08DBB289
:104C60007B72FA79244BA3FB0213D9080B469B00F5
:104C70000B445B00D31ADBB2BB72204804F050FA3D
:104C800007F1080318461E490322062302F066FFB7
:104C900001200C2104F07AFA1A4804F041FA0A20A3
:104CA00005F020F9FB7B042B08D1FB79632B03D89B
:104CB000FB790133FB7101E00023FB71FB7B012BCE
:104CC00008D1FB79002B02D10023FB7102E0FB79B4
:104CD000013BFB710A2005F005F9FB7B022B94D107
:104CE000FB7918461037BD4680BD00BF57866F441C
:104CF000D34D62101F85EB51CDCCCCCC54EA0008CB
:104D00007C00002058EA000880B582B000AF002384
:104D1000BB800023FB7104F035FC204804F000FA4E
:104D20000A2005F0DFF83B1D40F20760194609F044
:104D3000B3F9BB88DBB21846FFF752FF0346FB719D
:104D40000A2005F0CFF8FB799BB240F207601946C4
:104D500009F0EEF904F016FC114804F0E1F90A201C
:104D600005F0C0F83B1D4FF4C160194609F094F9F5
:104D7000BB88DBB21846FFF733FF0346FB710A20FE
:104D800005F0B0F8FB799BB24FF4C160194609F009
:104D9000CFF904F0F7FB0837BD4680BD5CEA000898
:104DA0006CEA000880B582B000AF03463960FB7141
:104DB0003B68DA1CF9792C4BA3FB0103DB08DBB25F
:104DC00019464901C91A8900CB1A5B00D9B2FB798F
:104DD0000B44DBB23033DBB21370052005F082F8F0
:104DE000FA79214BA3FB0213DB08FB713B6802330A
:104DF0002E221A703B685A1CF9791B4BA3FB010346
:104E0000DB08DBB219464901C91A8900CB1A5B00DD
:104E1000D9B2FB790B44DBB23033DBB2137005201F
:104E200005F060F8FA79104BA3FB0213DB08FB7165
:104E3000FA790D4BA3FB0203DB08DBB21A465201E1
:104E4000D21A9200D31A5B00DAB2FB791344DBB2B8
:104E50003033DAB23B681A703B68043300221A70B0
:104E60000837BD4680BD00BFCDCCCCCC80B584B06A
:104E700000AF0346FB710023FB733EE002F070FFBE
:104E80000346FB730120032104F080F9FA7907F14E
:104E9000080310461946FFF785FF1C4804F040F947
:104EA00007F1080318461A490422062302F056FEA9
:104EB00001200C2104F06AF9164804F031F90A20A7
:104EC00005F010F8FB7B042B08D1FB79FD2B03D8F0
:104ED000FB790133FB7101E00023FB71FB7B012BAC
:104EE00008D1FB79002B02D10023FB7102E0FB7992
:104EF000013BFB710A2004F0F5FFFB7B022BBDD1C7
:104F0000FB7918461037BD4680BD00BF54EA000843
:104F10007C00002058EA000880B58AB000AF7860B5
:104F2000396000233B767968AC4BA3FB0123DA0898
:104F300013469B0013445B00CA1AD3B23033DBB272
:104F4000FB757A68A54BA3FB0213DB087B607968CD
:104F5000A24BA3FB0123DA0813469B0013445B001A
:104F6000CA1AD3B23033DBB2BB757A689B4BA3FB52
:104F70000213DB087B607968984BA3FB0123DA08F6
:104F800013469B0013445B00CA1AD3B23033DBB222
:104F90007B757A68914BA3FB0213DB087B60796811
:104FA0008E4BA3FB0123DA0813469B0013445B00DE
:104FB000CA1AD3B23033DBB23B757A68874BA3FB96
:104FC0000213DB087B607968844BA3FB0123DA08BA
:104FD00013469B0013445B00CA1AD3B23033DBB2D2
:104FE000FB747A687D4BA3FB0213DB087B60796856
:104FF0007A4BA3FB0123DA0813469B0013445B00A2
:10500000CA1AD3B23033DBB2BB74192004F06AFF82
:105010007A68724BA3FB0213DB087B6079686F4BE5
:10502000A3FB0123DA0813469B0013445B00CA1A52
:10503000D3B23033DBB27B747A68684BA3FB0213C4
:10504000DB087B607968654BA3FB0123DA08134614
:105050009B0013445B00CA1AD3B23033DBB23B74FB
:105060007A685E4BA3FB0213DB087B6079685B4BBD
:10507000A3FB0123DA0813469B0013445B00CA1A02
:10508000D3B23033DBB2FB737A68544BA3FB021309
:10509000DB087B607968514BA3FB0123DA081346D8
:1050A0009B0013445B00CA1AD3B23033DBB2BB732C
:1050B0007A684A4BA3FB0213DB087B607968474B95
:1050C000A3FB0123DA0813469B0013445B00CA1AB2
:1050D000D3B23033DBB27B737A68404BA3FB02134D
:1050E000DB087B6079683D4BA3FB0123DA0813469C
:1050F0009B0013445B00CA1AD3B23033DBB23B735C
:105100007A68364BA3FB0213DB087B607968334B6C
:10511000A3FB0123DA0813469B0013445B00CA1A61
:10512000D3B23033DBB2FB727A682C4BA3FB021391
:10513000DB087B607968294BA3FB0123DA0813465F
:105140009B0013445B00CA1AD3B23033DBB2BB728C
:105150007A68224BA3FB0213DB087B6079681F4B44
:10516000A3FB0123DA0813469B0013445B00CA1A11
:10517000D3B23033DBB27B727A68184BA3FB0213D5
:10518000D908164BA3FB0123DA0813469B001344EE
:105190005B00CA1AD3B23033DBB23B7200233B62EE
:1051A00007F108023B6A13441B78FB613023FB6163
:1051B000192004F097FE08E03B6A01333B6207F1D7
:1051C00008023B6A13441B78FB61FB69302BF3D068
:1051D000192004F087FE3B6A7B620FE0CDCCCCCC7B
:1051E0007A6A3B6AD31A3A68134407F108017A6A6B
:1051F0000A4412781A707B6A01337B627B6A102B37
:10520000EEDD3B6818462837BD4680BD80B485B0CA
:1052100000AF78607B68FA2202FB03F3FB6000BFFB
:10522000FB685A1EFA60002BFAD11437BD465DF8B0
:10523000047B704780B584B000AF04F0A3F9002070
:10524000002103F0A3FF9548012102F0F7F847F28F
:105250003050FFF7DBFF00F055FD6420FFF7D6FF6D
:105260008F4B1B88BB800020002103F08FFF8D48EF
:10527000022102F0E3F847F23050FFF7C7FF00F0D9
:1052800041FD6420FFF7C2FF854B1B88FB80002097
:10529000002103F07BFF8448062102F0CFF847F29B
:1052A0003050FFF7B3FF00F02DFD6420FFF7AEFF95
:1052B0007B4B1B883B8104F065F97C48012102F09F
:1052C000BDF847F23050FFF7A1FF00F01BFD64204E
:1052D000FFF79CFF724B1B887B817B89DB089AB2AE
:1052E000BB88DB089BB29A4203D2714B01221A7031
:1052F0000EE07B89DB089AB2BB88DB089BB29A423E
:1053000003D96B4B00221A7002E0694B02221A701B
:10531000674B1B78002B54D1FB881A46BB88D31AE5
:10532000DA0F13445B109BB2053BFB81BA88FB8903
:105330005B089BB2D31A9AB25E4B1A80BA88FB897B
:1053400013449AB25B4B5A80FA88FB89D31A9AB2FB
:10535000584B9A803B891A46FB88D31ADA0F1344BC
:105360005B109BB2053BFB81FA88FB8913449AB220
:10537000504BDA803A89FB89D31A9AB24D4B1A8185
:105380007B891A463B89D31ADA0F13445B109BB210
:10539000053BFB813A89FB8913449AB2454B5A81FC
:1053A0007A89FB89D31A9AB2424B9A817A89FB890E
:1053B0005B089BB213449AB23E4BDA8100F08CF941
:1053C00059E03B4B1B78012B50D1BB881A46FB8818
:1053D000D31ADA0F13445B109BB2053BFB81BA88EA
:1053E000FB89D31A9AB2334B1A80BA88FB891344CB
:1053F0009AB2304B5A80FA88FB89D31A9AB22D4B55
:105400009A80FB881A463B89D31ADA0F13445B1043
:105410009BB2053BFB81FA88FB8913449AB2254B6A
:10542000DA803A89FB89D31A9AB2224B1A813B89D6
:105430001A467B89D31ADA0F13445B109BB2053BE3
:10544000FB813A89FB8913449AB21A4B5A817A89B3
:10545000FB89D31A9AB2174B9A817A89FB89134434
:105460009AB2144BDA8100F037F904E0124803F0E5
:1054700057FE00F04FF90F4B1A880E4B1B8A9A42C9
:1054800002D90B4B01221A700020002103F07EFE8E
:105490000A4803F045FE1037BD4680BD54EA0008B7
:1054A0007C1B002098F000089CF0000858EA0008D7
:1054B0008E000020041B0020A4F00008B4F00008B7
:1054C00080B582B000AF0023FB7104F05BF84FF4AD
:1054D000FA7004F007FD5EE002F042FC0346FB7147
:1054E0000020002103F052FE2F4803F019FE2F4B3D
:1054F0001A882F4BA3FB02135B099BB2DBB2184641
:1055000002F024FD294B1B88DBB2184602F01EFD79
:10551000284803F005FE254B5A88254BA3FB0213B0
:105520005B099BB2DBB2184602F010FD1F4B5B8893
:10553000DBB2184602F00AFD0120002103F026FE2E
:105540001D4803F0EDFD194B9A88194BA3FB02137C
:105550005B099BB2DBB2184602F0F8FC134B9B8848
:10556000DBB2184602F0F2FC144803F0D9FD0F4BF1
:10557000DA880F4BA3FB02135B099BB2DBB2184620
:1055800002F0E4FC094BDB88DBB2184602F0DEFCDB
:10559000142004F0A7FCFB79022B9DD103F0F2FF4D
:1055A0000837BD4680BD00BFF8E700087C1B00201F
:1055B0001F85EB51C0F0000800E80008C4F00008A7
:1055C00080B582B000AF0023FB710023BB7103F0F4
:1055D000D9FF4FF4FA7004F085FC19E002F0C0FB2B
:1055E0000346FB710020002103F0D0FD022004F0EF
:1055F00079FC012004F076FC0120002103F0C6FDB7
:10560000074B1B78184602F0A1FC142004F06AFC3A
:10561000FB79022BE2D103F0B5FF0837BD4680BD10
:10562000BA00002080B582B000AF0023FB710023D8
:10563000BB7103F0A7FF4FF4FA7004F053FC3BE09A
:1056400002F08EFB0346FB710020002103F09EFD5B
:10565000022004F047FC0023BB7108E0BB791A4A22
:10566000D35C1846FCF7FCFABB790133BB71BB79FC
:10567000042BF3D9012004F035FC0120002103F0B4
:1056800085FD114B5B791846FCF7EAFA0E4B9B79C6
:105690001846FCF7E5FA0D4803F042FD0C4B1B7869
:1056A000184602F053FC08480A490722092302F071
:1056B00055FA142004F016FCFB79022BC0D103F03C
:1056C00061FF0837BD4680BD3C1B0020F4E80008A0
:1056D0005A0000207C00002080B582B000AF00237B
:1056E000FB710FE0FB799BB203F20A639AB2F9797E
:1056F000074B33F811301046194608F019FDFB79B5
:105700000133FB71FB79072BECD90837BD4680BD0F
:10571000041B002080B582B000AF0023FB710FE0B6
:10572000FB799BB203F20A639AB2FB795900074BEB
:105730000B441046194608F0AFFCFB790133FB71AE
:10574000FB79072BECD90837BD4680BD041B002030
:1057500080B58AB000AF7860962004F0C3FB02F0F9
:1057600057F93862022004F0BDFB934B1B683A6A7C
:105770009A4240F27C8102F04BF902468E4B1A604D
:1057800007F10C03386A194602F0C2FC022004F04B
:10579000A9FB00237B620BE007F10C027B6A134438
:1057A0001A7886497B6A0B441A707B6A01337B62E4
:1057B0007B6A092BF0DD022004F094FB7F4B2C2246
:1057C0009A72022004F08EFB04F0EEFB00237B6251
:1057D00012E07B6A0B337A497A6A0A441178774A75
:1057E000D1547B6A103377497A6A0A441178734A34
:1057F000D1547B6A01337B627B6A032BE9DD04F0C1
:10580000E1FB022004F06EFB6C4B2C22DA736B4B35
:105810002C221A750023FB8300237B6219E00122EE
:105820007B6A02FA03F39AB2674B1B689BB2134080
:10583000FB83FA8B7B6A42FA03F3FB837B6A1533A3
:10584000FA8BD2B23032D1B25C4AD1547B6A013386
:105850007B627B6A022BE2DD584B2C221A765B4876
:1058600056490422192302F079F9544B2C225A7715
:105870005748524904221E2302F070F94F4B2C2244
:1058800083F8222000237B621AE0524B1B781A46D1
:1058900001217B6A01FA03F39BB213409BB2FB83A5
:1058A000FA8B7B6A42FA03F3FB837B6A2333FA8B1E
:1058B000D2B23032D1B2414AD1547B6A01337B62D9
:1058C0007B6A022BE1DD3D4B2C2283F8262000234E
:1058D0007B621BE0404B9B689AB27B6A04330121D8
:1058E00001FA03F39BB21340FB83FA8B7B6A043308
:1058F00042FA03F3FB837B6A2733FA8BD2B230324E
:10590000D1B22E4AD1547B6A01337B627B6A022B6F
:10591000E0DD2A4B2C2283F82A2000237B621AE048
:105920002E4B1B781A4601217B6A01FA03F39BB2C6
:1059300013409BB2FB83FA8B7B6A42FA03F3FB832F
:105940007B6A2B33FA8BD2B23032D1B21B4AD1549C
:105950007B6A01337B627B6A022BE1DD174B2C22D1
:1059600083F82E2000237B621BE01B4BDB689AB27E
:105970007B6A0B33012101FA03F39BB21340FB83D3
:10598000FA8B7B6A0B3342FA03F3FB837B6A2F3378
:10599000FA8BD2B23032D1B2084AD1547B6A013389
:1059A0007B627B6A022BE0DD044B2C2283F83220E1
:1059B00000237B622FE000BFB0000020B81B002056
:1059C000941B0020A81B0020341B0020A41B0020D7
:1059D000241B0020001B0020000801401C1B00208D
:1059E000294B1B781A4601217B6A01FA03F39BB20B
:1059F00013409BB2FB83FA8B7B6A42FA03F3FB836F
:105A00007B6A3333FA8BD2B23032D1B21F4AD154CF
:105A10007B6A01337B627B6A022BE1DD1B4B2C220C
:105A200083F836201A4B1B783033DAB2174B83F8E1
:105A30003720164B2C2283F83A207B6A3B33154AD9
:105A400012783032D1B2114AD154104B0D2283F862
:105A50003E200E4B0A2283F83F200F4B00221A7083
:105A60000A48402100F01AF8022004F03BFA022014
:105A700004F038FAFEF798FEFDF7A8F9FDF7F0F903
:105A800008F0AAFD6BE600BF1C1B0020B81B00201D
:105A9000C81A0020951800205E00002080B588B04C
:105AA00000AF786039602E4B1B68002B51D12D4A16
:105AB00007F10C0307CA03C31A800233120C1A70D1
:105AC00004F072FA07F10C0327481946032207F085
:105AD0009DF90346FB77FB7F002B0DD007F10C03EC
