:020000040800F2
:10000000FC1F0020090B0008690B0008690B0008A1
:10001000690B0008690B0008690B0008000000006C
:100020000000000000000000000000004DB10008CA
:10003000690B00080000000021B200085DB2000852
:10004000690B0008690B0008690B0008690B0008C0
:10005000690B0008690B0008092E0008252E00080E
:10006000412E0008690B0008690B0008690B0008A5
:10007000690B0008690B0008A1270008B5270008D4
:10008000690B0008690B0008690B000800000000FC
:100090000000000000000000000000006D2E0008BD
:1000A0009D400008D5410008E9410008690B00089F
:1000B000690B0008493F0008690B0008690B00083C
:1000C000690B0008690B0008690B0008690B000840
:1000D000690B000865210008690B0008690B00081E
:1000E0004D2E0008690B0008690B00080000000095
:1000F0000000000000000000000000000000000000
:1001000000000000000000000000000000000000EF
:100110000000000000000000690B0008690B0008E7
:100120005FF808F180B485B000AF786039600023D3
:10013000FB817B681B88FB817A682E4B9A4213D027
:100140007A682D4B9A420FD07B68B3F1804F0BD069
:100150007A682A4B9A4207D07A68294B9A4203D090
:100160007A68284B9A4208D1FB8923F07003FB81FF
:100170003B685A88FB891343FB817A68224B9A4279
:100180000CD07A68214B9A4208D0FB8923F4407343
:10019000FB813B68DA88FB891343FB817B68FA8922
:1001A0001A803B689A887B689A853B681A887B68C6
:1001B0001A857A680F4B9A420FD07A680E4B9A4292
:1001C0000BD07A68124B9A4207D07A68114B9A4248
:1001D00003D07A68104B9A4204D13B681B7A1A46C6
:1001E0007B681A867B6801229A821437BD465DF8C7
:1001F000047B7047002C01400034014000040040A3
:1002000000080040000C00400010004000140040B6
:1002100000400140004401400048014080B485B0E6
:1002200000AF7860396000237B810023FB810023CD
:10023000BB817B681B8C9BB223F001039AB27B6865
:100240001A847B681B8CFB817B689B88BB817B68E5
:100250001B8B7B817B8923F070037B817B8923F05F
:1002600003037B813B681A887B8913437B81FB896D
:1002700023F00203FB813B681A89FB891343FB814E
:100280003B685A88FB891343FB817A68244B9A4266
:100290000FD07A68234B9A420BD07A68224B9A424D
:1002A00007D07A68214B9A4203D07A68204B9A4251
:1002B00023D1FB8923F00803FB813B685A89FB8922
:1002C0001343FB81FB8923F00403FB813B689A887D
:1002D000FB891343FB81BB8923F48073BB81BB89FA
:1002E00023F40073BB813B689A89BB891343BB81AC
:1002F0003B68DA89BB891343BB817B68BA899A80E2
:100300007B687A891A833B68DA887B689A867B687F
:10031000FA891A841437BD465DF8047B704700BF24
:10032000002C0140003401400040014000440140E5
:100330000048014080B485B000AF78603960002388
:100340007B810023FB810023BB817B681B8C9BB2DC
:1003500023F010039AB27B681A847B681B8CFB81A4
:100360007B689B88BB817B681B8B7B817B8923F4AB
:10037000E0437B817B8923F440737B813B681B884E
:100380001B029AB27B8913437B81FB8923F02003F4
:10039000FB813B681B891B019AB2FB891343FB81DC
:1003A0003B685B881B019AB2FB891343FB817A6827
:1003B000224B9A4203D07A68214B9A422BD1FB8977
:1003C00023F08003FB813B685B891B019AB2FB89A8
:1003D0001343FB81FB8923F04003FB813B689B882F
:1003E0001B019AB2FB891343FB81BB8923F4806311
:1003F000BB81BB8923F40063BB813B689B899B0065
:100400009AB2BB891343BB813B68DB899B009AB2DC
:10041000BB891343BB817B68BA899A807B687A89E0
:100420001A833B68DA887B681A877B68FA891A84A2
:100430001437BD465DF8047B704700BF002C0140B7
:100440000034014080B485B000AF7860396000238B
:100450007B810023FB810023BB817B681B8C9BB2CB
:1004600023F480739AB27B681A847B681B8CFB81AF
:100470007B689B88BB817B689B8B7B817B8923F01E
:1004800070037B817B8923F003037B813B681A889F
:100490007B8913437B81FB8923F40073FB813B68D9
:1004A0001B891B029AB2FB891343FB813B685B8863
:1004B0001B029AB2FB891343FB817A68224B9A4252
:1004C00003D07A68214B9A422BD1FB8923F4006335
:1004D000FB813B685B891B029AB2FB891343FB815A
:1004E000FB8923F48063FB813B689B881B029AB2E3
:1004F000FB891343FB81BB8923F48053BB81BB89F8
:1005000023F40053BB813B689B891B019AB2BB89D2
:100510001343BB813B68DB891B019AB2BB89134340
:10052000BB817B68BA899A807B687A899A833B68A9
:10053000DA887B689A877B68FA891A841437BD4603
:100540005DF8047B704700BF002C0140003401407F
:1005500080B485B000AF786039600023BB81002390
:100560007B810023FB817B681B8C9BB223F480532F
:100570009AB27B681A847B681B8C7B817B689B8822
:10058000FB817B689B8BBB81BB8923F4E043BB81F0
:10059000BB8923F44073BB813B681B881B029AB262
:1005A000BB891343BB817B8923F400537B813B6868
:1005B0001B891B039AB27B8913437B813B685B8851
:1005C0001B039AB27B8913437B817A68124B9A4250
:1005D00003D07A68114B9A420AD1FB8923F48043F5
:1005E000FB813B689B899B019AB2FB891343FB818A
:1005F0007B68FA899A807B68BA899A833B68DA8833
:100600007B68A3F840207B687A891A841437BD463A
:100610005DF8047B704700BF002C014000340140AE
:1006200080B584B000AF786039600023FB8101237E
:10063000BB813B685B88002B02D10223FB8101E078
:100640000023FB813B689B88012B02D10223BB81E5
:1006500001E00123BB813B681B88002B1CD13B6858
:1006600059883B689A883B681B89786800F06EF966
:100670003B68DB887868194600F002F93B681B8903
:10068000F989BA89786800F0CBF93B68DB8878682B
:10069000194600F011F91BE03B6859883B689A88BD
:1006A0003B681B89786800F0BBF93B68DB88786899
:1006B000194600F001F93B681B89F989BA89786805
:1006C00000F044F93B68DB887868194600F0D8F8F8
:1006D0001037BD4680BD00BF80B483B000AF7860E6
:1006E0007B684FF6FF729A807B6800221A807B68D5
:1006F0000022DA807B6800225A807B6800221A720E
:100700000C37BD465DF8047B704700BF80B483B0F2
:1007100000AF78607B6800221A807B6800225A80D4
:100720007B6800229A807B680022DA807B68002246
:100730001A817B6800225A817B6800229A817B683B
:100740000022DA810C37BD465DF8047B704700BF9C
:1007500080B483B000AF78600B46FB70FB78002B51
:1007600008D07B681B889BB243F001039AB27B6878
:100770001A8007E07B681B889BB223F001039AB2C2
:100780007B681A800C37BD465DF8047B704700BF5C
:1007900080B483B000AF786013460A467A807B70DD
:1007A0007B78002B08D07B689B899AB27B881343A7
:1007B0009AB27B689A8109E07B689B899AB27B88B0
:1007C000DB439BB213409AB27B689A810C37BD46DB
:1007D0005DF8047B704700BF80B485B000AF7860DF
:1007E0000B467B800023FB817B681B89FB81FB8997
:1007F00023F07003FB81FA897B881343FB817B68BC
:10080000FA891A811437BD465DF8047B704700BF32
:1008100080B483B000AF78600B467B807B681B8917
:100820009BB223F007039AB27B681A817B681B890D
:100830009AB27B8813439AB27B681A810C37BD4603
:100840005DF8047B704700BF80B483B000AF786070
:100850000B467B807B681B899BB223F080039AB296
:100860007B681A817B681B899AB27B8813439AB292
:100870007B681A810C37BD465DF8047B704700BF6A
:1008800080B483B000AF78600B467B807B681B8BA5
:100890009BB223F00C039AB27B681A837B681B8B94
:1008A0009AB27B8813439AB27B681A830C37BD4691
:1008B0005DF8047B704700BF80B483B000AF786000
:1008C0000B467B807B681B8B9BB223F440639AB200
:1008D0007B681A837B681B8B9AB27B881B029BB256
:1008E00013439AB27B681A830C37BD465DF8047BCC
:1008F000704700BF80B483B000AF78607B689B8E88
:100900009BB218460C37BD465DF8047B704700BFAC
:1009100080B483B000AF78607B681B8F9BB21846B1
:100920000C37BD465DF8047B704700BF80B483B0D0
:1009300000AF78600B467B807B88DB439AB27B6894
:100940001A820C37BD465DF8047B704780B487B0CF
:1009500000AFF86079813A81FB800023BB820023DD
:10096000FB82FB681B8C9BB223F001039AB2FB68ED
:100970001A84FB681B8BBB82FB681B8CFB82BB8AC7
:1009800023F0F303BB82FB881B019AB23B8913431C
:100990009AB2BB8A1343BB82FA681C4B9A4213D0AB
:1009A000FA681B4B9A420FD0FB68B3F1804F0BD013
:1009B000FA68184B9A4207D0FA68174B9A4203D04C
:1009C000FA68164B9A420BD1FB8A23F00203FB8292
:1009D0007A89FB8A13439BB243F00103FB820AE04E
:1009E000FB8A23F00A03FB827A89FB8A13439BB2BA
:1009F00043F00103FB82FB68BA8A1A83FB68FA8A18
:100A00001A841C37BD465DF8047B7047002C0140FA
:100A1000003401400004004000080040000C004089
:100A200080B487B000AFF86079813A81FB80002301
:100A3000BB820023FB8200237B82FB681B8C9BB262
:100A400023F010039AB2FB681A84FB681B8BBB82ED
:100A5000FB681B8CFB827B891B017B82BB8A23F496
:100A600040731B051B0DBB82FB881B039AB2BB8A1C
:100A70001343BB823B891B029AB2BB8A1343BB82DE
:100A8000FA681C4B9A4213D0FA681B4B9A420FD05B
:100A9000FB68B3F1804F0BD0FA68184B9A4207D02D
:100AA000FA68174B9A4203D0FA68164B9A420BD158
:100AB000FB8A23F02003FB827A8AFB8A13439BB2D2
:100AC00043F01003FB820AE0FB8A23F0A003FB82C1
:100AD0007A89FB8A13439BB243F01003FB82FB68C5
:100AE000BA8A1A83FB68FA8A1A841C37BD465DF8F5
:100AF000047B7047002C014000340140000400409A
:100B000000080040000C004080B582B000AF114BDF
:100B10007B60114B3B6007E03B681A1D3A607A68C6
:100B2000111D796012681A603A680C4B9A42F3D32F
:100B30000B480C494FF000028842B8BF40F8042B24
:100B4000FFF6FAAF00F014F807F0B6F90837BD4623
:100B500080BD00BF60EE00080000002044000020BF
:100B600048000020001C002080B400AFFEE700BF5A
:100B700080B500AF164B164A126842F001021A60A7
:100B8000134A134B5968134B0B405360104A104BD8
:100B90001B6823F0847323F4803313600C4B0C4ADE
:100BA000126822F480221A60094B094A526822F422
:100BB000FE025A60064B4FF41F029A60044B00225B
:100BC000DA6200F00BF8044B4FF000629A6080BDCF
:100BD000001002400000FFF800ED00E080B500AF1B
:100BE00000F002F880BD00BF80B483B000AF0023E6
:100BF0007B6000233B60304B2F4A126842F4803206
:100C00001A602D4B1B6803F400333B607B68013393
:100C10007B603B68002B03D17B68B3F5A06FF0D1FC
:100C2000254B1B6803F00203002B02D001233B601D
:100C300001E000233B603B68012B37D11E4B1E4A6D
:100C400052685A601C4B1C4A52685A601A4B1A4A26
:100C500052685A60184B184A526822F47C125A6043
:100C6000154B154A526842F498125A60124B124AB8
:100C7000126842F080721A6000BF0F4B1B6803F0CD
:100C80000073002BF9D00C4B0B4A526822F0030280
:100C90005A60094B084A526842F002025A6000BF8B
:100CA000054B5B6803F00C03082BF9D10C37BD46EC
:100CB0005DF8047B704700BF0010024080B485B02F
:100CC00000AF0346FB710D4B1B889BB2FB60FB79A9
:100CD000002B04D1FB6843F03803FB6005E0FB68A0
:100CE00023F0380343F00803FB60044BFA6892B228
:100CF0001A801437BD465DF8047B70470030014010
:100D000080B483B000AF0346FB710C37BD465DF87D
:100D1000047B704780B400AF01231846BD465DF8E0
:100D2000047B704780B582B000AF0346FB71FB794E
:100D30009BB20A4819460CF087FC00BF0748012106
:100D40000CF09EFC0346002BF8D004480CF08AFC03
:100D50000346DBB218460837BD4680BD003001406F
:100D600080B500AFFF20FFF7DDFF0346184680BDCA
:100D700080B582B000AF0A4B32221A60FFF7F0FF55
:100D8000FFF7EEFF0346FB71FB79FF2B03D0044B0B
:100D90001B68002BF4D1FB7918460837BD4680BD8F
:100DA0004C00002080B500AF03484FF4004100F034
:100DB00099FEFFF7D5FF80BD0008014080B590B0D7
:100DC00000AF0346B9607A60FB734FF6FF733B8256
:100DD000384B7B610023FB6200233B6300237B6273
:100DE0007B683B6200237B634FF44053BB6300236B
:100DF000FB6331480CF00AFA30480CF007FAFB7B31
:100E0000002B19D0BB68BB610023FB618023BB6250
:100E100007F11403284819460CF0B4FA07F110033F
:100E2000BB611023FB610023BB6207F1140323485D
:100E300019460CF0A7FA18E007F11003BB61002374
:100E4000FB610023BB6207F114031B4819460CF039
:100E500099FABB68BB611023FB618023BB6207F179
:100E60001403164819460CF08DFA134801210CF0B2
:100E7000C7FA124801210CF0C3FA114803210122DC
:100E80000CF0BEFB00BF20200CF0D6FA0346002B6E
:100E9000F9D0094800210CF0B3FA084800210CF001
:100EA000AFFA0748032100220CF0AAFB4037BD46E9
:100EB00080BD00BF0C3001401C00024030000240E9
:100EC0000030014080B500AF494B494A926942F079
:100ED00001029A61464B464A926942F004029A61C5
:100EE000434B434A926942F008029A61414801210A
:100EF00000F014FE0120012100F010FE3E4B3E4A9E
:100F0000526842F040525A603B4B3B4A526822F0D2
:100F100040425A60384B4FF400421A61374B374A0F
:100F2000126842F440521A60344B344A126822F478
:100F300040421A60314B314A126842F400421A6052
:100F40002E4B2E4A126822F440321A602B4B2B4A49
:100F5000126822F440221A60284B284A126842F490
:100F600000221A60254B10221A61244B234A126872
:100F700042F440121A60214B204A126822F44002C7
:100F80001A601E4B1D4A126842F400021A60184B88
:100F9000174A926942F480529A61194B00229A8052
:100FA000174B04221A80164B154A128892B242F04F
:100FB000380292B21A80124B114A128892B242F44D
:100FC000807292B21A800E4B0D4A128892B242F48D
:100FD000007292B21A800A4B094A128892B242F009
:100FE000400292B21A800120012108F037FB80BD37
:100FF000001002400002300000080140000C0140D7
:101000000030014080B582B000AF194B1B78DBB2D5
:1010100003F00103002B08D116484FF4004100F003
:101020006FFDFFF7A5FEFFF7BDFE13480CF08EFA2B
:10103000114800210CF0C4FA4FF48050002108F050
:101040002BFB3823BB802823FB713B1D0B48194623
:1010500000F078FC0020FFF753FE054B1B78DBB255
:1010600043F00103DAB2024B1A700837BD4680BD67
:10107000140000200008014000300140000C014035
:1010800080B584B000AF78603960104B0A221A60D6
:10109000FFF766FE0346FB73FB7BFF2B03D10B4B75
:1010A0001B68002BF4D1FB7BFE2B01D0002309E051
:1010B000012079683A68FFF781FEFFF751FEFFF7DC
:1010C0004FFE012318461037BD4680BD4800002062
:1010D00080B584B000AF78600B46FB70FFF748FE28
:1010E0000346FF2B01D000231EE0FB781846FFF7D4
:1010F00019FEFB78FD2B16D0002079684FF40072A2
:10110000FFF75CFEFF20FFF70DFEFF20FFF70AFE52
:10111000FFF726FE0346FB73FB7B03F01F03052B43
:1011200001D0002300E0012318461037BD4680BDE2
:1011300080B584B000AF03463960FB71FB795BB2C8
:10114000002B0EDAFB7903F07F03FB71772000217F
:10115000FFF7EEFF0346BB73BB7B012B01D9BB7BC3
:1011600051E02B484FF4004100F0BCFC28484FF4FC
:10117000004100F0C5FCFFF7FBFD0346FF2B01D04B
:10118000FF2340E0FB791846FFF7CCFD3B681B0EC0
:10119000DBB21846FFF7C6FD3B681B0CDBB21846F6
:1011A000FFF7C0FD3B681B0ADBB21846FFF7BAFD2C
:1011B0003B68DBB21846FFF7B5FD0123FB73FB79F3
:1011C000402B01D19523FB73FB79482B01D1872359
:1011D000FB73FB7B1846FFF7A5FDFB794C2B01D178
:1011E000FFF7BEFD0A23FB73FFF7BAFD0346BB738F
:1011F000BB7B5BB2002B05DAFB7B013BFB73FB7B0C
:10120000002BF1D1BB7B18461037BD4680BD00BF17
:101210000008014090B585B000AF0346FB71FB7933
:10122000002B01D00123C1E0624B1B78DBB203F03D
:101230000203002B03D05F4B1B78DBB2B6E0FFF755
:1012400041FE0020FFF73AFD0A23FB7304E0FFF79D
:1012500087FDFB7B013BFB73FB7B002BF7D100235E
:101260007B7340200021FFF763FF0346012B40F012
:101270008480514B64221A6048204FF4D571FFF7E7
:1012800057FF0346012B4DD10023FB730CE0FC7B81
:10129000FFF766FD03461A4607F11003234403F8DF
:1012A000082CFB7B0133FB73FB7B032BEFD9BB7A51
:1012B000012B62D1FB7AAA2B5FD100BF3E4B1B688A
:1012C000002B07D0E9204FF08041FFF731FF0346A4
:1012D000002BF3D1384B1B68002B4ED07A20002115
:1012E000FFF726FF0346002B47D10023FB730CE0DA
:1012F000FC7BFFF735FD03461A4607F11003234434
:1013000003F8082CFB7B0133FB73FB7B032BEFD92A
:101310003B7A03F04003002B01D00C2300E00423B0
:101320007B732AE0E9200021FFF702FF0346012B2F
:1013300004D802237B73E923BB7303E001237B738F
:101340004123BB7300BF1C4B1B68002B07D0BB7B2A
:1013500018460021FFF7ECFE0346002BF3D1164B95
:101360001B68002B07D050204FF40071FFF7E0FE00
:101370000346002B01D000237B73104B7A7B1A703D
:10138000FFF710FD7B7B002B0BD00A4B1B78DBB2E9
:1013900023F00103DAB2074B1A700120FFF78EFC2D
:1013A00001E0FFF72FFE034B1B78DBB21846143722
:1013B000BD4690BD140000204800002050000020D1
:1013C00080B483B000AF0346FB71FB79002B01D0E2
:1013D000012302E0044B1B78DBB218460C37BD46F4
:1013E0005DF8047B704700BF1400002080B584B016
:1013F00000AFB9607A600246FA73BB73FB7B002BC7
:1014000002D1BB7B002B01D104234FE0294B1B7879
:10141000DBB203F00103002B01D0032346E0264B8F
:101420001B7803F00803002B02D17B685B027B6012
:10143000BB7B012B11D151207968FFF779FE034660
:10144000002B2BD1B8684FF40071FFF719FE03464B
:10145000002B23D00023BB7320E052207968FFF7D4
:1014600067FE0346002B19D1B8684FF40071FFF7EF
:1014700007FE034683F00103DBB2002B00D009E036
:10148000BB6803F50073BB60BB7B013BBB73BB7BDD
:10149000002BE9D14C200021FFF74AFEFFF782FC28
:1014A000BB7B002B0CBF00230123DBB21846103797
:1014B000BD4680BD140000205000002080B584B0DF
:1014C00000AFB9607A600246FA73BB73FB7B002BF6
:1014D00002D1BB7B002B01D1042369E0364B1B7882
:1014E000DBB203F00103002B01D0032360E0324B99
:1014F0001B78DBB203F00403002B01D0022357E07A
:101500002E4B1B7803F00803002B02D17B685B0293
:101510007B60BB7B012B10D158207968FFF708FE58
:101520000346002B3CD1B868FE21FFF7D1FD0346EE
:10153000002B35D00023BB7332E0204B1B7803F027
:101540000603002B04D0BB7BD7201946FFF7F0FD24
:1015500059207968FFF7ECFD0346002B20D1B868CD
:10156000FC21FFF7B5FD034683F00103DBB2002B3E
:1015700000D009E0BB6803F50073BB60BB7B013B97
:10158000BB73BB7B002BEAD10020FD21FFF7A0FD40
:10159000034683F00103DBB2002B01D00123BB73B0
:1015A000FFF700FCBB7B002B0CBF00230123DBB249
:1015B00018461037BD4680BD1400002050000020A2
:1015C00090B58BB000AF0B463A600246FA71BB7122
:1015D0003B683B62FB79002B01D00423ADE1012382
:1015E00087F82730BB79052B28D13B6A1B78012B64
:1015F0000ED0022B12D0002B1BD1FFF78BFB034622
:10160000002B01D0FFF7FEFC002387F8273014E001
:10161000FFF758FC002387F827300EE03B6A5C1C7C
:10162000FFF778FB0346DBB22370002387F82730EF
:1016300003E0042387F827307DE17CE1B84B1B7879
:10164000DBB203F00103002B01D0032375E1BB796A
:101650000E2B00F26B8101A252F823F099160008BC
:10166000B716000863170008731700082D19000843
:101670002D1900082D1900082D1900082D19000832
:101680002D1900085B1800086B1800089118000855
:10169000B7180008F7180008A2484FF4004100F0FE
:1016A0002FFAFFF765FB0346FF2B03D1002387F8D2
:1016B00027303EE13DE149200021FFF739FD034697
:1016C000002B4DD107F10C0318461021FFF7D8FC71
:1016D0000346002B44D03B7B9B09DBB2012B0DD191
:1016E0007B7D1A463B7D1B029BB213449BB20133A8
:1016F000FB83FB8B9A023B681A602DE07B7C03F036
:101700000F03DAB2BB7DDB09DBB21344DAB27B7DB7
:1017100003F00303DBB25B00DBB21344DBB2023342
:1017200087F826303B7D9B09DBB21A46FB7C9B0089
:101730009BB213449AB2BB7C03F003039BB29B029F
:101740009BB213449BB20133FB83FA8B97F826308C
:10175000093B9A403B681A60002387F82730E8E08D
:10176000E7E03B684FF400721A80002387F82730C7
:10177000DFE06D4B1B7803F00403002B2BD0CD2052
:101780000021FFF7D5FC0346002B65D1FFF7E8FAEF
:1017900007F10C0318461021FFF772FC0346002BDB
:1017A0005AD0302387F8263006E0FFF7D9FA97F8A9
:1017B0002630013B87F8263097F82630002BF4D1ED
:1017C000BB7D1B09DBB210229A403B681A600023E4
:1017D00087F82730ADE049200021FFF7A9FC034638
:1017E000002B39D107F10C0318461021FFF748FCF4
:1017F0000346002B30D04C4B1B7803F00203002B28
:1018000012D0BB7D03F03F035A00FB7DDB09DBB246
:1018100013445A1C7B7E9B09DBB2013B02FA03F3A3
:101820001A463B681A6013E0BB7D03F07C039B10F3
:101830009BB20133FA7D02F00302D100FA7D520916
:10184000D2B20A44013202FB03F31A463B681A6023
:10185000002387F827306CE06BE0334B1A783B6A43
:101860001A70002387F8273063E049200021FFF732
:101870005FFC0346002B0AD1386A1021FFF700FCF9
:101880000346002B03D0002387F8273051E050E0B7
:101890004A200021FFF74CFC0346002B0AD1386A8E
:1018A0001021FFF7EDFB0346002B03D0002387F840
:1018B00027303EE03DE07A200021FFF739FC034667
:1018C000002B17D1042387F826300BE03C6A631CF9
:1018D0003B62FFF745FA0346237097F82630013B39
:1018E00087F8263097F82630002BEFD1002387F8B1
:1018F00027301EE01DE0CD200021FFF719FC034634
:10190000002B0CD1FFF72CFA386A4021FFF7B8FB07
:101910000346002B03D0002387F8273009E008E0B6
:10192000140000200008014050000020042387F824
:101930002730FFF737FA97F8273018462C37BD467F
:1019400090BD00BF80B489B000AF786039600023DB
:10195000FB6100233B610023BB610023FB6000238C
:101960007B610023BB603B68DB7803F00F03FB6106
:101970003B68DB7803F01003002B04D03B689B78B6
:10198000FA691343FB613B681B88DBB2002B44D030
:101990007B681B687B610023BB6138E0BB69012267
:1019A00002FA03F3FB603B681B881A46FB6813408E
:1019B0003B613A69FB689A4226D1BB699B00FB6098
:1019C000FB680F2202FA03F3BB60BB68DB437A6952
:1019D00013407B61FB68FA6902FA03F37A691343E7
:1019E0007B613B68DB78282B05D1BB6901229A40DB
:1019F0007B685A6108E03B68DB78482B04D1BB69FF
:101A000001229A407B681A61BB690133BB61BB69E3
:101A1000072BC3D97B687A691A603B681B88FF2B48
:101A200046D97B685B687B610023BB613AE0BB6998
:101A30000833012202FA03F3FB603B681B881A4655
:101A4000FB6813403B613A69FB689A4227D1BB6946
:101A50009B00FB60FB680F2202FA03F3BB60BB68CC
:101A6000DB437A6913407B61FB68FA6902FA03F38E
:101A70007A6913437B613B68DB78282B05D1BB690E
:101A8000083301229A407B685A613B68DB78482B17
:101A900005D1BB69083301229A407B681A61BB6992
:101AA0000133BB61BB69072BC1D97B687A695A6076
:101AB0002437BD465DF8047B704700BF80B483B017
:101AC00000AF78607B684FF6FF721A807B68022255
:101AD0009A707B680422DA700C37BD465DF8047B8F
:101AE000704700BF80B483B000AF78600B467B8046
:101AF0007A887B681A610C37BD465DF8047B7047B5
:101B000080B483B000AF78600B467B807A887B68B6
:101B10005A610C37BD465DF8047B704780B487B0CE
:101B200000AF78600B46FB7000233B610023FB6035
:101B300000237B610023BB607B68002B03DA2E4B04
:101B4000DB697B6102E02C4B5B687B617B6803F4A3
:101B500070231B0CBB607B689BB23B617B6803F40A
:101B60004013B3F5401F0AD17B6923F070637B619A
:101B7000214B214A526822F070625A6021E07B6852
:101B800003F48013002B0ED0BB68032202FA03F388
:101B9000FB60FB68DB437A6913407B617B6943F040
:101BA00070637B610DE07B685B0D1B013A6902FA93
:101BB00003F3DB437A6913407B617B6943F0706315
:101BC0007B61FB78002B08D07B685B0D1B013A69B9
:101BD00002FA03F37A6913437B617B68002B03DA13
:101BE000054B7A69DA6102E0034B7A695A601C3767
:101BF000BD465DF8047B70470000014080B483B0AF
:101C000000AF0346FB71084B97F907205209F97999
:101C100001F01F01012000FA01F143F822100C37F6
:101C2000BD465DF8047B704700E100E080B582B0FE
:101C300000AF0346FB711A4B1B78002B10D1194BD8
:101C40001B785A1CD1B2174A1170F979164AA2FBB7
:101C500001025209D2B23032D1B2144AD1540FE04B
:101C6000104B1B785A1CD1B20E4A1170F9790E4AEA
:101C7000A2FB01025209D2B23032D1B20C4AD15485
:101C8000FB79094AA2FB03125209642101FB02F20B
:101C90009B1ADBB2184605F0A5FE0837BD4680BD8D
:101CA00095000020940000201F85EB517400002057
:101CB0008400002080B584B000AF0023FB730023B4
:101CC000BB7300237B7300233B7300237B810023C2
:101CD0007B6000233B6007F083F96A4806F03EFF13
:101CE0004FF4FA7007F02CFE32E005F09FFD03463A
:101CF000FB730020002106F067FF634806F02EFF0B
:101D0000624B1B689BB2184600F0D2F9604806F09F
:101D100025FF5E4B5B689BB2184600F0C9F90120B5
:101D2000002106F051FF0A2007F00AFE594806F08C
:101D300015FF564B9B689BB2184600F0B9F9564800
:101D400006F00CFF514BDB689BB2184600F0B0F96F
:101D5000FB7B002BC9D007F043F9FB7B013B7B7376
:101D60000023FB734D4806F0F9FEBB7B184604F0D8
:101D700091FC0346BB73BB7B184600F0A5FF07F040
:101D80002FF9474806F0EAFE3B7B184604F082FC38
:101D900003463B737A7B3D4B53F822307B6007F060
:101DA0001FF9404806F0DAFEBB7B184600F0F8FE4B
:101DB0000023FB7317E00A2007F0C2FD05F036FD93
:101DC0000346FB7307F00CF9374806F0C7FE012005
:101DD000002106F0F9FE7A7B2C4B53F822309BB29F
:101DE000184600F065F9FB7B022BE4D17A7B274B88
:101DF00053F822303B60BB7B184600F065FFC820DB
:101E000007F09EFD3B689AB27B689BB2D31A9BB2E7
:101E10001A463B7B92FBF3F37B817A7B234B7989D8
:101E200023F8121007F0DCF8214806F097FE3B6813
:101E30009BB2184600F03CF90120002106F0C4FED8
:101E40001C4806F08BFE7B89184600F031F97B892F
:101E500040F2426019460BF099FE0023FB7306E046
:101E60000A2007F06DFD05F0E1FC0346FB73FB7BE8
:101E7000022BF5D107F0B4F8C82007F061FD103748
:101E8000BD4680BD98E10008A4E100088418002048
:101E9000A8E10008ACE10008B0E10008B4E10008E6
:101EA000C4E10008D4E10008E4E100080C1B0020B4
:101EB000F4E10008FCE1000880B584B000AF1346EF
:101EC0000246FA710A46BA71BB800023FB60BB88E8
:101ED000104A128802FB03F20F4BA3FB0213DB082C
:101EE000FB600023FB72002000F05AFEBA790B4B16
:101EF000002143F8221002E00A2007F021FD074BE1
:101F00001A68FB689A42F7D3002000F0DDFE103714
:101F1000BD4680BD0C1B0020CDCCCCCC841800204D
:101F200080B586B000AF13460246FA710A46BA7110
:101F3000BB8000233B610023FB600023BB600023C8
:101F4000FB8200237B7507F04BF84F4806F006FE36
:101F500006E00A2007F0F4FC05F068FC03467B75F8
:101F60007B7D002BF5D07B7D022B01D1FFF7A2FEFC
:101F700001233B7580E007F033F8444806F0EEFD9E
:101F8000434B1B88184600F093F8FB8A184605213E
:101F900004F01AFC0346FB82FB8A3D4A128802FBCE
:101FA00003F23C4BA3FB0213DB083B6107F018F87C
:101FB000394806F0D3FD3B699BB2184600F078F82B
:101FC0000120002106F000FE344806F0C7FDBA7972
:101FD000334B53F82220324B53F822309BB2184631
:101FE00000F066F800237B75002000F0D9FDBA7977
:101FF0002B4B002143F822101BE00A2007F0A0FC25
:1020000006F0EEFF274806F0A9FDBA79244B53F8F5
:1020100022309BB2184600F04BF80120002106F058
:10202000D3FD214806F09AFD3B699BB2184600F0AB
:102030003FF81B4B1A683B699A42DED3002000F040
:1020400043FE06F0CDFF194806F088FD06E00A20A1
:1020500007F076FC05F0EAFB03467B757B7D002BE1
:10206000F5D07B7D022B05D101233B750C4B002263
:102070001A6001E000233B753B7D012B3FF47BAFF1
:102080001837BD4680BD00BF04E2000814E2000816
:102090000C1B0020CDCCCCCC20E2000828E20008AC
:1020A000841800202CE2000834E2000838E200081E
:1020B00080B582B000AF0346FB80FA88164BA3FBC5
:1020C00002135B0B9BB2DBB2184605F08BFCFB885E
:1020D000114AA2FB0312520B42F2107101FB02F2F1
:1020E0009B1A9AB20D4BA3FB02135B099BB2DBB2A6
:1020F000184605F077FCFB88084AA2FB0312520938
:10210000642101FB02F29B1A9BB2DBB2184605F078
:1021100069FC0837BD4680BD5917B7D11F85EB5103
:1021200080B485B000AF396013460246FA71BB71C6
:102130000023FB730023FB7309E0FB7B3A68134425
:102140001A78FB795340FB71FB7B0133FB73FA7BFD
:10215000BB799A42F1D3FB7918461437BD465DF836
:10216000047B704780B500AF5C4B1B88062B02D9FF
:102170005A4B00221A805A4840F2255108F062FA60
:102180000346002B18D0564808F03CFA0346DAB252
:10219000544B1A70514B1B885A1C91B24F4A1180F4
:1021A000504A1178504AD1544D4B4D4A128892B240
:1021B00022F0200292B21A80494B494A128892B208
:1021C00022F0400292B21A80484B1B78002B17D0A5
:1021D000474B1A78474B1B789A4211D2404A444BDE
:1021E0001B78591CC8B2424908704349CB5C9380A4
:1021F0003B4B3B4A128892B222F0400292B21A80C4
:102200003E4B1B78002B67D13D4B1B78042B32D102
:102210003C4B1B78002B03D1324B1A783A4B1A7087
:10222000384B1B785A1CD1B2364A11702D4A11789E
:10223000364AD154334B1A78334B1B789A421AD111
:10224000314B1B78302031491A46FFF769FF0346AE
:102250001A462F4B1A702E4B1B78002B03D1274B9D
:1022600001221A7001E000F095F8254B00221A7047
:10227000244B00221A701B4B1B785A2B03D1254B81
:1022800001221A7028E0174B1B78582B07D1214BDD
:102290001B78012B03D11F4B02221A701CE01D4B2F
:1022A0001B78022B18D10F4B1B78302B11D00D4B04
:1022B0001B78312B03D1124B03221A7009E0094B12
:1022C0001B78322B05D10E4B04221A700D4B0022C5
:1022D0001A70104B00221A7080BD00BF5A000020F7
:1022E00000380140061B0020381B00205800002049
:1022F00059000020190000205C1B0020C5000020B0
:10230000C4000020C2000020C30000209818002054
:10231000C6000020C100002080B582B000AF786008
:102320000A4B1B78012B04D100F04EF8074B00221A
:102330001A700A2007F004FB054B1B78012B01D112
:1023400000F008F80A2007F0FBFAE9E7C5000020D2
:102350005800002080B500AF0A4BDA780A4B1A709B
:102360000A4B00221A7002E0052007F0E9FA074B39
:102370001A78054B1B789A42F6D3054B00221A7047
:1023800080BD00BF5C1B0020190000205900002008
:102390005800002080B483B000AF0023FB710023FD
:1023A000FB7106E0FB79074A0021D154FB79013328
:1023B000FB71FB790F2BF5D90C37BD465DF8047B1B
:1023C000704700BF9818002080B500AF2A4B5B789B
:1023D000072B4ED801A252F823F000BFFD230008BE
:1023E00021240008332400083B240008432400086B
:1023F0004F2400085B240008672400081E4B9978CE
:102400001D4BDA781C4B1B791B0298B21A4B5B7977
:1024100003449BB2084611461A46FFF74DFD28E0DB
:10242000154B9A78144BDB781046194603F0B0FF31
:102430001FE0124B33221A701BE0104B30221A702F
:1024400017E00D4B9B78184600F0AAFB11E00A4BF1
:102450009B78184600F038FC0BE0074B9B78184639
:1024600000F056F905E0044B9B78184600F008F898
:1024700000BFFFF78FFF80BD9818002018000020D4
:1024800080B584B000AF0346FB71894B5A221A70A5
:10249000874B58225A70864B33229A70844B1022F5
:1024A000DA70FB79012B2CD1824B1A78804B1A7190
:1024B000814B1B68DAB27E4B5A71804B1B68DAB2D3
:1024C0007B4B9A717E4B1A78794BDA717D4B1B6886
:1024D000DAB2774B1A72764B63225A727A4B1A78B9
:1024E000734B9A72784B5A78714BDA72764B9A78B2
:1024F0006F4B1A73744BDA786D4B5A736C4BFA79D5
:102500009A73FB79022B45D104F0E8FFF8606F4B1A
:102510001B8B9BB2DAB2664B1A716C4B1B8B9BB256
:102520001B0A9BB2DAB2624B5A71684B9B8B9BB20F
:10253000DAB25F4B9A71654B9B8B9BB21B0A9BB2C5
:10254000DAB25B4BDA71624B1B88DAB2584B1A7203
:102550005F4B1B881B0A9BB2DAB2554B5A725C4B1D
:102560005B88DAB2524B9A72594B5B881B0A9BB25A
:10257000DAB24F4BDA72564B9B88DAB24C4B1A7375
:10258000534B9B881B0A9BB2DAB2494B5A73484B98
:10259000FA799A73FB79032B38D14E4B9B68DAB2E8
:1025A000434B1A714B4B9B681B0ADAB2404B5A7172
:1025B000484B9B681B0CDAB23D4B9A71454B9B68AC
:1025C0001B0EDAB23A4BDA71434B9B68DAB2384BE6
:1025D0001A72414B9B681B0ADAB2354B5A723E4B5A
:1025E0009B681B0CDAB2324B9A723B4B9B681B0EFA
:1025F000DAB22F4BDA72344B9A782D4B1A73324B76
:10260000DA782B4B5A732A4BFA799A73FB79042B9D
:1026100038D1324B1A78264B1A71314B1A78244B29
:102620005A71304B1B789B00DAB22F4B1B78134446
:10263000DAB21F4B9A712D4B1B88DAB21C4BDA7140
:102640002B4B1B881B0A9BB2DAB2194B1A72294B0F
:102650001A78174B5A72284B1A78154B9A72274BD7
:102660001B88DAB2124BDA72244B1B881B0A9BB20E
:10267000DAB20F4B1A73224B1A780D4B5A730C4B6C
:10268000FA799A7300200A490F22FFF749FD0346A1
:102690001A46074BDA73064BDA781A4B1A701A4B44
:1026A00000221A70194B01221A701037BD4680BDE6
:1026B0005C1B002018000020081B0020941800203C
:1026C000301B0020541B0020A41B002000280040C9
:1026D000841B002000080140000C0140B8000020CD
:1026E000B9000020BB000020BA000020961B00208B
:1026F0002E1B0020A9180020A81800200C1B002069
:10270000151B00201900002059000020580000204F
:1027100080B584B000AF78600023FB730023BB81D9
:102720001A4BDAB21A4B1A701A4BDAB2184B5A70AB
:10273000194BDAB2164B9A70154B0D22DA707B6882
:10274000DAB2134B1A710023FB7315E07B6803F5B3
:10275000B8735A00FB7B13449BB25B00BB81FB7BCD
:102760005B005A1D0A4B1344BA89104619460BF0F8
:10277000C1F9FB7B0133FB73FB7B032BE6D9074BD2
:1027800001221A701037BD4680BD00BF40E200082C
:102790005C1B002044E2000848E2000858000020CA
:1027A00080B400AF024B1B68BD465DF8047B7047E8
:1027B0000000024080B400AF024B1B68BD465DF8CC
:1027C000047B70470000024080B586B000AF012056
:1027D000012106F043FF0520012106F05DFF2523BE
:1027E0003B7500237B750023BB750123FB754FF4FC
:1027F00000733B820323BB741823FB7407F110039F
:1028000023481946FFF79EF84FF480633B82042368
:10281000FB7407F110031E481946FFF793F81D4893
:1028200007F0BAFD4FF48040012106F035FF4FF468
:1028300016533B600023BB800023FB8000233B81B9
:102840000023BB810C237B813B461248194607F0CD
:10285000FFFD10484FF4587107F0E4FE0D4B0D4A90
:10286000928992B242F0200292B29A81094B094AAF
:10287000928992B242F0400292B29A8105480121B7
:1028800007F0A0FE2520FFF7B9F91837BD4680BD37
:10289000000801400038014080B500AF042001214C
:1028A00006F0FAFE1E4B1E4A926942F001029A613E
:1028B0001C4B1C4A526842F000725A601A4B1A4A6A
:1028C000526822F040625A60174B174A526842F031
:1028D00080725A60144B144A526822F440025A60C3
:1028E000114B114A526842F480125A600E4B0E4A44
:1028F000526822F440225A600B4B0B4A526842F451
:1029000080325A60084B084A526822F440425A60AA
:10291000054B054A526842F480525A6080BD00BFA0
:1029200000100240000001400008014080B584B062
:1029300000AF0420012106F0AFFE4FF4B873BB8155
:102940002823FB7307F10C0303481946FEF7FAFF2F
:102950001037BD4680BD00BF0008014080B588B07B
:1029600000AF1120012106F097FE0220012106F0A0
:10297000B1FE07F11C031846FFF7A0F84FF470737F
:10298000BB830323BB771823FB7707F11C03204885
:102990001946FEF7D7FF1F480121FFF7BFF807F1DF
:1029A00010031846FDF798FE4FF40073FB8240F2C7
:1029B000E733BB82EF233B8207F110031648194629
:1029C000FDF7B0FB3B461846FDF7A0FE01237B80D8
:1029D00060233B800023FB803B460F481946FDF7F0
:1029E0001DFC3B460C481946FDF7A4FC3B460A4833
:1029F0001946FDF727FD3B4607481946FDF7A8FD98
:102A000005480121FDF7A4FE2037BD4680BD00BF6B
:102A100000100140000C1A000004004080B582B094
:102A200000AF06F0DDFA0023FB8000237B7106F087
:102A3000D7FA374806F092F81CE004F0F7FE034698
:102A40007B71344B1B88FB80052006F079FF012049
:102A5000002106F0B9F8FA882F4BA3FB02135B099B
:102A60009BB2DBB2184604F0BDFFFB88DBB2184610
:102A700004F0B8FF7B79022BDFD10A2006F060FF5B
:102A8000FB8840F2226019460BF080F803F012F93F
:102A90004FF4FA6006F054FF204806F05FF81CE09F
:102AA00004F0C4FE03467B711A4B1B88FB80052093
:102AB00006F046FF0120002106F086F8FA88164B42
:102AC000A3FB02135B099BB2DBB2184604F08AFF3A
:102AD000FB88DBB2184604F085FF7B79022BDFD13F
:102AE00000237B710A2006F02BFFFB8840F2326046
:102AF00019460BF04BF803F0DDF84FF4FA6006F0DE
:102B00001FFF06F06DFA05F0CFFA0837BD4680BD0D
:102B10004CE200086C1B00201F85EB5160E20008AE
:102B200080B500AF0A4B1B881A460A4B1B8802333C
:102B30009A4202DD012000F033F8054B1A88054B5C
:102B40001B889A4202D2012000F0BEF880BD00BF6F
:102B50006C1B0020B81B002080B500AF0C4B9A887E
:102B60000C4B1B889A4205D90B4B1B781846002149
:102B700003F00EFC064B9A88084B1B889A4205D23C
:102B8000054B1B781846012103F002FC80BD00BFF5
:102B9000841B00209C0000209A0000209E00002042
:102BA00080B584B000AF0346FB71012006F0C8FE7B
:102BB0000023FB720023BB720023FB733F4B9B6817
:102BC000DAB2FB790433012101FA03F3DBB21340DB
:102BD000FB72FA7AFB79043342FA03F3FB72FB7956
:102BE000012202FA03F3DAB2354B1B78DBB2134051
:102BF000DBB2BB72BA7AFB7942FA03F3BB72FB7A9F
:102C0000002B48D1BB7A002B45D1FB79184600F048
:102C1000CFF84FF41673BB8123E0FB79012B09D168
:102C2000264B9A68FB79043322FA03F3DBB203F0F4
:102C30000103FB72214B9A68FB7901339B0022FA56
:102C400003F303F00103002B03D0FB7B0133FB7381
:102C500001E00023FB73012006F072FEBB89013BFB
:102C6000BB81FB7B022B02D8BB89002BD5D1BB8952
:102C7000002B0CD1FB79012202FA03F3DAB2104BDC
:102C80001B78DBB21343DBB2DAB20D4B1A70FB795F
:102C9000184600F0A3F8FB79012202FA03F3DAB236
:102CA000084B1B78DBB21343DBB2DAB2054B1A7068
:102CB000052006F045FE1037BD4680BD00080140E6
:102CC000481B0020301B002080B584B000AF0346B5
:102CD000FB71FB79184600F06BF80023FB730023AF
:102CE000FB720023BB724FF41673BB812D4B9B68A4
:102CF000DAB2FB790433012101FA03F3DBB21340AA
:102D0000FB72FA7AFB79043342FA03F3FB72FB7924
:102D1000012202FA03F3DAB2234B1B78DBB2134031
:102D2000DBB2BB72BA7AFB7942FA03F3BB72FB7A6D
:102D3000012B20D1BB7A002B1DD116E0194B9A68CC
:102D4000FB7901339B0022FA03F303F00103002B0C
:102D500003D1FB7B0133FB7301E00023FB730120F4
:102D600006F0EEFDBB89013BBB81FB7B022B02D849
:102D7000BB89002BE2D1FB79184600F02FF8FB79D4
:102D8000012202FA03F3DBB2DB43DAB2074B1B7812
:102D9000DBB21340DBB2DAB2044B1A701037BD4617
:102DA00080BD00BF00080140481B0020301B0020F0
:102DB00080B483B000AF0346FB71074B064A5169EC
:102DC000FA790B32012000FA02F20A435A610C37F9
:102DD000BD465DF8047B70470008014080B483B0B5
:102DE00000AF0346FB71074B064A1169FA790B32B3
:102DF000012000FA02F20A431A610C37BD465DF861
:102E0000047B70470008014080B500AF012006F048
:102E1000BBFC034B1B685A1C014B1A6080BD00BFF2
:102E20008418002080B500AF022006F0ADFC034BF3
:102E30005B685A1C014B5A6080BD00BF841800209B
:102E400080B500AF042006F09FFC80BD80B500AFC8
:102E50004FF4806006F098FC4FF4006006F094FC9C
:102E60004FF4805006F090FC80BD00BF80B500AFED
:102E7000202006F089FC402006F086FC802006F029
:102E800083FC80BD80B582B000AF0023FB710023BE
:102E9000BB7100237B7106F0A3F874E0142006F0E8
:102EA0004FFD04F0C3FC0346FB710020002105F038
:102EB0008BFE394805F052FEBB79184604F092FDAE
:102EC000FB79042B03D1BB791846FFF771FFFB791F
:102ED000032B03D1BB791846FFF780FFFB79012B49
:102EE00008D1BB79012B03D8BB790133BB7101E059
:102EF0000023BB71012006F023FD0120002105F015
:102F000063FE264805F02AFE254B1B78184604F080
:102F100069FD012006F014FD224805F01FFE224B3A
:102F20009B6803F01003002B03D0204805F016FE29
:102F300002E01F4805F012FE1B4B9B6803F02003C4
:102F4000002B03D0194805F009FE1CE0184805F0D5
:102F500005FE154B9B6803F04003002B03D013487C
:102F600005F0FCFD02E0124805F0F8FD0E4B9B68F1
:102F700003F48073002B03D00C4805F0EFFD02E052
:102F80000B4805F0EBFDFB79022B87D106F028F802
:102F90000837BD4680BD00BF6CE2000878E200083B
:102FA000301B00207CE200080008014084E2000899
:102FB00048E2000880B582B000AF0023FB71002317
:102FC000BB7100237B7100233B7100237B8006F0E3
:102FD00007F87EE0142006F0B3FC04F027FC03465B
:102FE000FB710020002105F0EFFD3F4B1B687B804B
:102FF0007B881846FFF75CF83C4B1B887B807B88FE
:10300000DBB2184604F0EEFC394805F0A7FD394B59
:103010009B8C7B807B881846FFF74AF8FB79042B52
:1030200002D10120FFF7BCFDFB79012B05D1012066
:10303000FFF7D4FE0120FFF747FE012006F080FCD9
:103040000120002105F0C0FD2B4B1B78184604F031
:10305000C9FC2A4805F082FD00233B80284B9B6871
:103060005B093B803B881846FFF722F8254805F0AE
:1030700075FD012006F064FC214B9B685B0903F0A1
:103080000103002B03D0204805F068FD02E01F4833
:1030900005F064FD1A4B9B689B0903F00103002BAC
:1030A00003D0194805F05AFD02E0184805F056FD16
:1030B000134B9B68DB0903F00103002B03D012487C
:1030C00005F04CFD02E0114805F048FD104805F000
:1030D00045FDFB79022B7FF47DAF05F081FFFFF703
:1030E000D1FE0837BD4680BD841800206C1B00202F
:1030F00088E2000800480140301B00208CE20008F4
:103100000008014090E2000884E2000848E200085C
:1031100094E2000880B586B000AF78600023BB82DF
:1031200000237B817B689BB21B019BB203F214637B
:10313000BB82BA8A07F10A03104619460AF0DAFC84
:1031400005F04EFF954805F009FD7B89184603F010
:10315000EBFA03467B817B89BA8A104619460AF04E
:1031600015FD7B689BB21B019BB203F21563BB820A
:10317000BA8A07F10A03104619460AF0BBFC05F0AB
:103180002FFF874805F0EAFC7B89184603F0CCFA4C
:1031900003467B817B89BA8A104619460AF0F6FC01
:1031A0007B689BB21B019BB203F21663BB82BA8A97
:1031B00007F10A03104619460AF09CFC05F010FFBF
:1031C000784805F0CBFC7B89184603F0ADFA03463E
:1031D0007B817B89BA8A104619460AF0D7FC07F131
:1031E0000A0340F6990019460AF084FC05F0F8FE3F
:1031F0006D4805F0B3FC7B89DBB2184603F04AFA50
:1032000003467B817B8940F6990019460AF0BEFC93
:103210007B89DAB2654B1A707B8903F2FF53BB825C
:10322000BB8A184646210AF0B1FC7B89604A4621D8
:10323000D1547B689BB21B019BB203F21E63BB821D
:10324000BA8A07F10A03104619460AF053FC05F042
:10325000C7FE584805F082FC7B89DBB2184603F0B4
:1032600019FA03467B817B89BA8A104619460AF00F
:103270008DFC7B8903F2FF53BB82BB8A1846472132
:103280000AF084FC7B894A4A4721D1547B689BB26F
:103290001B019BB203F21763BB82BA8A07F10A03D0
:1032A000104619460AF026FC05F09AFE424805F041
:1032B00055FC7B89184603F037FA03467B817B89EE
:1032C000BA8A104619460AF061FC7B689BB21B0162
:1032D0009BB203F5C363BB82BB8A184604F0AAFD08
:1032E000386105F07DFE354805F038FC4FF4FA7082
:1032F00006F026FB386903F0BFFA3861BB8A18462E
:10330000396903F07BF87B689BB21B019BB203F227
:103310002263BB82BA8A07F10A03104619460AF0F3
:10332000E9FB05F05DFE264805F018FC4FF4FA7045
:1033300006F006FB7B89184603F0F6F903467B810D
:103340007B89BA8A104619460AF020FC7B689BB23A
:103350001B019BB203F21F63BB82BA8A07F10A0307
:10336000104619460AF0C6FB05F03AFE154805F06E
:10337000F5FB7B89DBB2184603F08CF903467B81B1
:103380007B89BA8A104619460AF000FC05F028FE2F
:103390000D4805F0E3FB0023FB751EE098E20008F2
:1033A000A8E20008BCE20008D0E20008E41A00200D
:1033B0001C000020E4E20008F4E2000804E3000836
:1033C00018E3000828E3000834E3000804F02EFAAC
:1033D0000346FB750A2006F0B3FAFB7D002BF5D0FF
:1033E000FB7D022B20D17B689BB21B019BB203F2B9
:1033F0001A63BB8204F072F8F860BB8A1846F96859
:1034000002F0FCFF7B689BB21B019BB203F21C63C2
:10341000BB8204F063F802463B69D31A0533BA8ACB
:103420001046194602F0EAFFFB7D032B1ED105F082
:10343000D7FD244805F092FB4FF47A7006F080FA2D
:103440007B689BB21B019BB203F21A63BB82BB8AEF
:10345000184604F0EFFCF860F868012103F0FAFB6D
:10346000F860BB8A1846F96802F0C8FF05F0B8FD9D
:10347000154805F073FB4FF47A7006F061FA7B682B
:1034800062339BB21B01BB82BB8A184604F0D2FC9C
:10349000F860F868012103F0DDFBF860BB8A18468C
:1034A000F96802F0ABFF05F09BFDC82006F048FA72
:1034B00006F0A8FA04F0F8FD06F0B2FA1837BD4697
:1034C00080BD00BF44E3000850E3000880B582B02F
:1034D00000AF0023FB7105F083FD094805F03EFBBA
:1034E000C82006F02DFAFB79184603F0D3F80346FE
:1034F000FB71FB79184600F021F80837BD4680BD06
:103500005CE3000880B582B000AF0023FB7105F0DA
:1035100067FD094805F022FBC82006F011FAFB7987
:10352000184603F0B7F80346FB71FB791846FFF71E
:10353000F1FD0837BD4680BD5CE3000880B584B06E
:1035400000AF78600023FB810023BB817B689BB2C6
:103550001A46D200D31A9BB203F24563FB81FA8963
:1035600007F10C03104619460AF0C4FA05F038FDBD
:10357000604805F0F3FABB89184603F0D5F8034616
:10358000BB81BB89FA89104619460AF0FFFA7B68AD
:103590009BB21A46D200D31A9BB203F24663FB8158
:1035A000FA8907F10C03104619460AF0A3FA05F050
:1035B00017FD514805F0D2FABB89184603F0B4F85C
:1035C0000346BB81BB89FA89104619460AF0DEFA28
:1035D0007B689BB21A46D200D31A9BB203F24763B0
:1035E000FB81FA8907F10C03104619460AF082FAAA
:1035F00005F0F6FC414805F0B1FABB89184603F026
:1036000093F80346BB81BB89FA89104619460AF034
:10361000BDFA7B689BB21A46D200D31A9BB203F55F
:10362000C963FB81FA8907F10C03104619460AF0B9
:1036300061FA05F0D5FC324805F090FABB891846CE
:1036400003F072F80346BB81BB89FA89104619461C
:103650000AF09CFA7B689BB21A46D200D31A9BB23E
:1036600003F24963FB81FA8907F10C0310461946FE
:103670000AF040FA05F0B4FC224805F06FFABB8965
:10368000184603F051F80346BB81BB89FA891046FE
:1036900019460AF07BFA7B689BB21A46D200D31A0D
:1036A0009BB203F24A63FB81FA8907F10C031046CF
:1036B00019460AF01FFA05F093FC134805F04EFA7C
:1036C000BB89184603F030F80346BB810A2006F098
:1036D00037F9BB89FA89104619460AF057FA05F0FE
:1036E0007FFC0A2006F02CF904F0DEFC1037BD4602
:1036F00080BD00BF68E300087CE300088CE300089D
:103700009CE30008A8E30008B8E3000890B585B082
:1037100000AF0023BB730023FB7305F061FC2F484F
:1037200005F01CFAC82006F00BF9BB7B184602F026
:10373000B1FF0346BB7305F053FC294805F00EFAB0
:10374000BB7B184604F04EF9264805F007FA06E060
:103750001E2006F0F5F804F069F80346FB73FB7BC6
:10376000022B02D0FB7B032BF2D1C82006F0E8F835
:10377000FB7B022B29D1BB7B1B0103F5C363BB6021
:10378000BB689BB2184604F055FB7860BB7B1B01FD
:1037900003F21A63BB6003F0A1FE3860BB689BB202
:1037A0001846396802F02AFEBB7B1B0103F21C633A
:1037B000BB60BB689CB203F091FE02467B68D31AE3
:1037C00005332046194602F019FE05F009FCC82011
:1037D00006F0B6F81437BD4690BD00BF5CE30008A4
:1037E000C4E30008D0E3000880B58EB000AF786075
:1037F00001227B6802FA03F3DAB2984B1B78DBB242
:103800001343DBB2DAB2954B1A700120FFF75CFA72
:1038100000233B82002387F8363000233B630023DC
:10382000BB620023FB600023FB62012006F088F8E6
:103830007B689BB21B019BB203F21463FB84FA8C7E
:1038400007F11403104619460AF054F97B689BB23D
:103850001B019BB203F21663FB84FA8C07F10C0385
:10386000104619460AF046F903F038FE3863FB6843
:103870003A6B1344BB62052006F062F80020FFF7A4
:103880008FF918E003F02AFE3863BB8A012202FA9E
:1038900003F3DAB2724B1B78DBB21340DBB287F86A
:1038A000363097F83620BB8A42FA03F387F8363071
:1038B000192006F045F897F83630002B03D13A6B03
:1038C000BB6A9A42DED30020FFF7FEF94FF47A700C
:1038D00006F036F8002387F837307AE000237B8142
:1038E00000233B620023FB610023BB617B689BB22A
:1038F0001B019BB203F5C363FB84FB8C184604F0E9
:1039000099FAF8617B689BB21B019BB203F21A63C0
:10391000FB84FB8C184604F08DFAB86197F83730B9
:103920009BB21A46D200D31A9BB203F24963FB84BE
:10393000FA8C07F10A03104619460AF0DBF803F087
:10394000CDFD0246BB69D21AFB69B2FBF3F33B62C1
:103950007B893A6AB2FBF3F3FB7500233B8197F84E
:1039600037309BB21A46D200D31A9BB203F5C96313
:10397000FB84FA8C07F11203104619460AF0BAF8D4
:1039800097F837309BB21A46D200D31A9BB203F293
:103990004A63FB84FA8C07F10803104619460AF0C3
:1039A000A9F87B8A1A467B689A420AD13B89012B87
:1039B00007D1FB7D002B04D197F83730184600F073
:1039C000CFF80A2005F0BCFF97F83730013387F8AD
:1039D000373097F83730082B80D97B689BB21B01B2
:1039E0009BB203F21763FB84FA8C07F10C031046B9
:1039F00019460AF07FF87B689BB21B019BB203F269
:103A00001E63FB84FA8C07F11003104619460AF076
:103A100071F80A2005F094FF03F060FD386303F0AD
:103A20005DFD0246FB681344BB620A2005F088FF77
:103A30007B689BB21B019BB203F21563FB84FA8C7B
:103A400007F11403104619460AF054F8002387F8CA
:103A50003730012387F8363047E000BFA91800202F
:103A6000151B00200A2005F06BFFBB8A012202FA19
:103A700003F3DAB2374B1B78DBB21340DBB287F8C3
:103A8000363097F83620BB8A42FA03F387F836308F
:103A9000314B1B68DBB203F0010387F8373003F0CA
:103AA0001DFD0246FB6A9A420DD997F83730012B6B
:103AB00009D197F83630012B05D13B6B01333B63BD
:103AC00003F00CFDF862052005F03AFF3B8ADAB2FC
:103AD00097F8371097F836300B40DBB203F001034C
:103AE000DBB21046194602F053FC3A6BBB6A9A42AD
:103AF000B8D33B8ADBB21846002102F049FC0A2009
:103B000005F01EFF0120FFF74BF87B689BB21B01FD
:103B10009BB203F21C63FB8403F0E0FC0346FA8CC7
:103B20001046194602F06AFC01227B6802FA03F390
:103B3000DBB2DB43DAB2094B1B78DBB21340DBB2FA
:103B4000DAB2064B1A70C82005F0FAFE3837BD46C7
:103B500080BD00BF151B002094180020A91800206C
:103B600080B586B000AF786000237B617B689BB234
:103B70001A46D200D31A9BB203F246637B827A8A3A
:103B800007F110031046194609F0B4FF7B689BB299
:103B90001A46D200D31A9BB203F245637B827A8A1B
:103BA00007F10E031046194609F0A4FF7B689BB28B
:103BB0001A46D200D31A9BB203F247637B827A8AF9
:103BC00007F10C031046194609F094FF03F086FC38
:103BD00002463B8A13447B61FB89DBB21846012114
:103BE00000F040F802E00A2005F0AAFE03F076FC9F
:103BF00002467B699A42F6D3FB89DBB21846002164
:103C000000F030F8BB89184600F004F81837BD46BC
:103C100080BD00BF80B584B000AF0346FB800023A9
:103C2000FB6003F05BFC0246FB881344FB600C4B1B
:103C30001B781846012102F0ABFB02E00A2005F0D8
:103C40007FFE03F04BFC0246FB689A42F6D3044B1E
:103C50001B781846002102F09BFB1037BD4680BD43
:103C6000E41A002080B483B000AF02460B46FA711C
:103C7000BB71BB79012B0DD1FB79012202FA03F351
:103C8000DAB22D4B1B78DBB21343DBB2DAB22A4B2C
:103C90001A700EE0FB79012202FA03F3DBB2DB4378
:103CA000DAB2254B1B78DBB21340DBB2DAB2224B1F
:103CB0001A70BB79C3F10103BB71FB79002B0AD1E8
:103CC0001E4ABB799BB219464901C91A89000B44A7
:103CD000DB009BB29386FB79012B0AD1174ABB7993
:103CE0009BB219464901C91A89000B44DB009BB2FB
:103CF0001387FB79022B0AD1104ABB799BB2194674
:103D00004901C91A89000B44DB009BB29387FB79F8
:103D1000032B0BD1094ABB799BB219464901C91A39
:103D200089000B44DB009BB2A2F840300C37BD4643
:103D30005DF8047B704700BFA81800200004004015
:103D400080B58AB000AF7860002387F82630012064
:103D5000FEF726FF0020FEF7B7FF002387F8273085
:103D60007EE00A2005F0ECFD97F827309BB21B019E
:103D70009BB203F21C63BB84BB8C184604F05AF858
:103D8000386203F0ABFBF86197F827309BB21B0158
:103D90009BB203F5C363BB84BB8C184604F04AF89E
:103DA000B861FA693B6AD31A7B6197F827309BB2F6
:103DB0001B019BB203F21A63BB84BB8C184604F050
:103DC00039F8386197F8273062339BB21B01BB8406
:103DD000BB8C184604F02EF8F86097F827309BB299
:103DE0001B019BB203F21F63BB84BA8C07F10B0368
:103DF0001046194609F07EFE0A2005F0A1FD97F84D
:103E00002730012202FA03F3DAB2184B1B78DBB237
:103E10001340DBB287F8263097F8262097F8273032
:103E200042FA03F387F826307A69BB699A420FD9C0
:103E3000FA693B699A420BD9FA69FB689A4207D240
:103E4000FB7A012B04D197F827301846FFF7CCFCFA
:103E50000A2005F075FD97F82730013387F82730E1
:103E600097F82730022B7FF67CAF76E7A918002061
:103E700080B582B000AF4FF48030012105F00CFC1A
:103E80004FF40043BB804823FB710323BB713B1DF0
:103E90001F481946FDF756FD1E480121FDF73EFE5D
:103EA00018233B7000237B700123BB700123FB7040
:103EB0003B46184609F0EAFA174B04221A80164BC3
:103EC00000225A80144B01229A80134B0022DA8080
:103ED000114B00221A8111480F49FCF7A1FB0F4832
:103EE0006021FCF779FC0D480421FCF791FC0B489C
:103EF0008021FCF7A9FC09480121FCF729FC0748AF
:103F000004210122FCF744FC0837BD4680BD00BFF8
:103F1000000C0140010000808C1B0020004001408B
:103F200080B400AF074B074A526822F040425A6003
:103F3000044B044A526842F080525A60BD465DF814
:103F4000047B7047000C014080B500AF4848042155
:103F5000FCF7ECFC4648FCF7DBFC03461A46454BF5
:103F60001A80444B1B889BB2002B18D04048FCF7AA
:103F7000C1FC0346642202FB03F23E4B1B889BB24A
:103F800092FBF3F39AB23C4B1A803C4B1A68394BC4
:103F90001B889BB2B2FBF3F2394B1A6005E0364B3B
:103FA00000221A80364B00221A60364B1B780133F0
:103FB000DAB2344B1A70334B1A78334B1B789A426F
:103FC00055D9324B1B78002B51D12B4B1B889BB200
:103FD000192B19D9284B1B889BB2222B14D82C4B98
:103FE0001B782B4A12782B498A5CD1B22A4A127864
:103FF000012000FA02F2D2B2D243D2B20A40D2B2C7
:10400000D1B2244AD15411E0214B1B78204A1278B6
:1040100020498A5CD1B2204A1278012000FA02F2CB
:10402000D2B20A43D2B2D1B21A4AD1541A4B1B7837
:10403000002B16D1184B07221A70154B1B78013331
:10404000DAB2134B1A70124B1B78042B0FD10F4BA3
:1040500001221A700E4B00221A700F4B07221A70A1
:1040600005E00D4B1B78013BDAB20B4B1A7080BD9B
:10407000000400405E0000206000002000000020DE
:1040800064000020680000201A0000206A00002060
:10409000BA1B0020A41B0020981B002080B500AF95
:1040A00042480421FCF742FC404B1B8F9AB2404B24
:1040B0001A803F4B1B889BB2002B0ED03B4B9B8E34
:1040C0009BB2642202FB03F2394B1B889BB292FB2A
:1040D000F3F39AB2374B1A8005E0364B00221A8070
:1040E000354B00221A60354B1B780133DAB2334B63
:1040F0001A70324B1A78324B1B789A4255D9314B91
:104100001B78002B51D12B4B1B889BB2192B19D933
:10411000284B1B889BB2222B14D82B4B1B782A4A86
:1041200012782A498A5CD1B2294A1278012000FA11
:1041300002F2D2B2D243D2B20A40D2B2D1B2234AB0
:10414000D15411E0204B1B781F4A12781F498A5C1A
:10415000D1B21F4A1278012000FA02F2D2B20A4309
:10416000D2B2D1B2194AD154194B1B78002B16D1B7
:10417000174B07221A70144B1B780133DAB2124B1B
:104180001A70114B1B78042B0FD10E4B01221A70A1
:104190000D4B00221A700E4B07221A7005E00C4BD3
:1041A0001B78013BDAB20A4B1A7080BD0040014017
:1041B0005E000020600000206400002068000020F5
:1041C0001A0000206A000020BA1B0020A41B002057
:1041D000981B002080B500AF02480221FCF7A6FB27
:1041E00080BD00BF0044014080B500AF09480221F6
:1041F000FCF79CFB084B9B6803F40073002B04D175
:10420000044B9B8C9AB2054B1A80024B00229A8475
:1042100080BD00BF00480140000C01406C1B002025
:1042200080B582B000AF192005F08AFB0023FB7136
:1042300006E0FB79144A0021D154FB790133FB716C
:10424000FB79042BF5D9114B00221A70104B002278
:104250001A70FFF765FE0F4B4FF400425A610520BC
:1042600005F06EFB0B4B4FF400421A61FFF700FEA6
:10427000C82005F065FB052005F062FB00F00CF896
:104280000837BD4680BD00BFA41B00206800002089
:104290006A000020000C014080B500AF0A2005F044
:1042A0004FFB644B1B78012B40F0C3800A2005F0C4
:1042B00047FB614B1B781B029AB25F4B5B78134440
:1042C0009AB25E4B5A805C4B9B781B029AB25A4B57
:1042D000DB7813449AB2594B1A80574B5A79574B93
:1042E0001A71564B5A88564B1B889A4208D9534B21
:1042F0005A88544B1B889A4202D2534B00221A70A0
:104300004E4B5A884E4B1B889A4202D24E4B01228A
:104310001A704A4B5A884B4B1B889A4202D94A4B17
:1043200002221A700A2005F00BFB444B1B88474AF7
:10433000A2FB031292094FF47A7101FB02F29B1A5D
:104340009AB2434BA3FB02135B099BB2DBB230333F
:10435000DAB2404B1A70394B1B883D4AA2FB03125C
:104360005209642101FB02F29B1A9AB23A4BA3FB59
:104370000213DB089BB2DBB23033DAB2354B5A7032
:10438000344B2E229A702D4B1A88334BA3FB021309
:10439000D9080B469B000B445B00D31A9BB2DBB2DF
:1043A0003033DAB22B4BDA700A2005F0C9FA234B0E
:1043B0005B88264AA2FB031292094FF47A7101FB33
:1043C00002F29B1A9AB2224BA3FB02135B099BB227
:1043D000DBB23033DAB2214B1A70184B5B881C4ABF
:1043E000A2FB03125209642101FB02F29B1A9AB24A
:1043F000194BA3FB0213DB089BB2DBB23033DAB2FA
:10440000164B5A70154B2E229A700C4B5A88124B31
:10441000A3FB0213D9080B469B000B445B00D31A85
:104420009BB2DBB23033DAB20C4BDA70014B0022B4
:104430001A7080BD6A000020A41B0020281B0020E9
:10444000BC1B0020041B002071000020D34D621013
:104450001F85EB51AC1B0020CDCCCCCC441B0020E5
:1044600080B582B000AF0023FB710023BB713EE03A
:104470001E2005F065FA03F0D9F90346FB71002010
:10448000002104F0A1FB1E4B1B78184603F0AAFA8A
:104490001C4804F063FBFB79042B05D1184B1B78F7
:1044A0000133DAB2164B1A70FB79012B05D1144B8C
:1044B0001B78013BDAB2124B1A700120002104F084
:1044C00083FB114804F04AFB1048114904220223DF
:1044D00003F0AAF80120072104F076FB0D4804F050
:1044E0003DFB0D480A4904220A2303F09DF8FB799D
:1044F000022BBDD104F074FD0837BD4680BD00BF5E
:104500001A000020D4E30008D8E30008AC1B002008
:1045100084000020DCE30008441B002080B483B04A
:1045200000AF0346FB80FA88094B1B68D21A13467A
:104530009B0013445B001A46064B1B68B2FBF3F367
:10454000DBB218460C37BD465DF8047B704700BFF0
:10455000A8000020B400002080B483B000AF034660
:10456000FB71FB790A4A126802FB03F3094A82FBDA
:1045700003129210DB17D31A9AB2074B1B689BB237
:1045800013449BB218460C37BD465DF8047B704758
:10459000B400002067666666A800002080B582B07F
:1045A00000AF0023BB800023FB7104F019FD2848F5
:1045B00004F0D4FA0A2005F0C3F93B1D40F2046070
:1045C000194609F097FABB881846FFF7A7FF03467C
:1045D000FB71FB79184600F085F90346FB710A2050
:1045E00005F0AEF9FB791846FFF7B6FF034640F237
:1045F0000460194609F0CAFA04F0F2FC154804F008
:10460000ADFA0A2005F09CF93B1D40F20560194601
:1046100009F070FABB881846FFF780FF0346FB716C
:10462000FB79184600F05EF90346FB710A2005F09D
:1046300087F9FB791846FFF78FFF034640F20560C4
:10464000194609F0A3FA04F0CBFC0837BD4680BD3B
:10465000E0E3000860E2000880B584B000AF0346E4
:10466000FB710023FB73FB793E4AA3FB02015A1A3C
:1046700052080A449209652101FB02F29B1AFB7160
:1046800067E003F0D3F80346FB730120032104F035
:104690009BFAFA79344B83FB02139911D317CB1A87
:1046A0004FF47A7101FB03F3D31A304A82FB0312F1
:1046B0005211DB17D31ADBB23B72FB792B4AA2FBF8
:1046C00003125209642101FB02F29B1ADAB2284B51
:1046D000A3FB0213DB08DBB27B72FA79244BA3FB4A
:1046E0000213D9080B469B000B445B00D31ADBB2C4
:1046F000BB72204804F032FA07F1080318461E493D
:104700000322062302F090FF01200C2104F05CFA42
:104710001A4804F023FA0A2005F012F9FB7B042B57
:1047200008D1FB79632B03D8FB790133FB7101E0DE
:104730000023FB71FB7B012B08D1FB79002B02D1FD
:104740000023FB7102E0FB79013BFB710A2005F0BD
:10475000F7F8FB7B022B94D1FB7918461037BD4646
:1047600080BD00BF57866F44D34D62101F85EB514B
:10477000CDCCCCCCF0E3000884000020F4E30008AA
:1047800080B582B000AF0023BB800023FB7104F032
:1047900027FC204804F0E2F90A2005F0D1F83B1D7F
:1047A00040F20760194609F0A5F9BB88DBB218464C
:1047B000FFF752FF0346FB710A2005F0C1F8FB79B1
:1047C0009BB240F20760194609F0E0F904F008FCDA
:1047D000114804F0C3F90A2005F0B2F83B1D4FF46C
:1047E000C160194609F086F9BB88DBB21846FFF7AD
:1047F00033FF0346FB710A2005F0A2F8FB799BB258
:104800004FF4C160194609F0C1F904F0E9FB08371B
:10481000BD4680BDF8E3000808E4000880B582B01A
:1048200000AF03463960FB713B68DA1CF9792C4B09
:10483000A3FB0103DB08DBB219464901C91A890051
:10484000CB1A5B00D9B2FB790B44DBB23033DBB25D
:104850001370052005F074F8FA79214BA3FB0213BD
:10486000DB08FB713B6802332E221A703B685A1C2E
:10487000F9791B4BA3FB0103DB08DBB219464901A5
:10488000C91A8900CB1A5B00D9B2FB790B44DBB2A1
:104890003033DBB21370052005F052F8FA79104B73
:1048A000A3FB0213DB08FB71FA790D4BA3FB020398
:1048B000DB08DBB21A465201D21A9200D31A5B000F
:1048C000DAB2FB791344DBB23033DAB23B681A70E8
:1048D0003B68043300221A700837BD4680BD00BF14
:1048E000CDCCCCCC80B584B000AF0346FB710023A7
:1048F000FB733EE002F09AFF0346FB7301200321A5
:1049000004F062F9FA7907F1080310461946FFF737
:1049100085FF1C4804F022F907F1080318461A49DC
:104920000422062302F080FE01200C2104F04CF941
:10493000164804F013F90A2005F002F8FB7B042B5B
:1049400008D1FB79FD2B03D8FB790133FB7101E022
:104950000023FB71FB7B012B08D1FB79002B02D1DB
:104960000023FB7102E0FB79013BFB710A2004F09C
:10497000E7FFFB7B022BBDD1FB7918461037BD4604
:1049800080BD00BFF0E3000884000020F4E30008CD
:1049900080B58AB000AF7860396000233B767968D3
:1049A000AC4BA3FB0123DA0813469B0013445B00C6
:1049B000CA1AD3B23033DBB2FB757A68A54BA3FBBE
:1049C0000213DB087B607968A24BA3FB0123DA08A2
:1049D00013469B0013445B00CA1AD3B23033DBB2D8
:1049E000BB757A689B4BA3FB0213DB087B6079687D
:1049F000984BA3FB0123DA0813469B0013445B008A
:104A0000CA1AD3B23033DBB27B757A68914BA3FB01
:104A10000213DB087B6079688E4BA3FB0123DA0865
:104A200013469B0013445B00CA1AD3B23033DBB287
:104A30003B757A68874BA3FB0213DB087B607968C0
:104A4000844BA3FB0123DA0813469B0013445B004D
:104A5000CA1AD3B23033DBB2FB747A687D4BA3FB46
:104A60000213DB087B6079687A4BA3FB0123DA0829
:104A700013469B0013445B00CA1AD3B23033DBB237
:104A8000BB74192004F05CFF7A68724BA3FB02131D
:104A9000DB087B6079686F4BA3FB0123DA081346C0
:104AA0009B0013445B00CA1AD3B23033DBB27B7471
:104AB0007A68684BA3FB0213DB087B607968654B5F
:104AC000A3FB0123DA0813469B0013445B00CA1AB8
:104AD000D3B23033DBB23B747A685E4BA3FB021374
:104AE000DB087B6079685B4BA3FB0123DA08134684
:104AF0009B0013445B00CA1AD3B23033DBB2FB73A2
:104B00007A68544BA3FB0213DB087B607968514B36
:104B1000A3FB0123DA0813469B0013445B00CA1A67
:104B2000D3B23033DBB2BB737A684A4BA3FB0213B8
:104B3000DB087B607968474BA3FB0123DA08134647
:104B40009B0013445B00CA1AD3B23033DBB27B73D1
:104B50007A68404BA3FB0213DB087B6079683D4B0E
:104B6000A3FB0123DA0813469B0013445B00CA1A17
:104B7000D3B23033DBB23B737A68364BA3FB0213FC
:104B8000DB087B607968334BA3FB0123DA0813460B
:104B90009B0013445B00CA1AD3B23033DBB2FB7202
:104BA0007A682C4BA3FB0213DB087B607968294BE6
:104BB000A3FB0123DA0813469B0013445B00CA1AC7
:104BC000D3B23033DBB2BB727A68224BA3FB021341
:104BD000DB087B6079681F4BA3FB0123DA081346CF
:104BE0009B0013445B00CA1AD3B23033DBB27B7232
:104BF0007A68184BA3FB0213D908164BA3FB0123B9
:104C0000DA0813469B0013445B00CA1AD3B2303350
:104C1000DBB23B7200233B6207F108023B6A13449C
:104C20001B78FB613023FB61192004F089FE08E04A
:104C30003B6A01333B6207F108023B6A13441B786D
:104C4000FB61FB69302BF3D0192004F079FE3B6A3D
:104C50007B620FE0CDCCCCCC7A6A3B6AD31A3A683F
:104C6000134407F108017A6A0A4412781A707B6AC1
:104C700001337B627B6A102BEEDD3B6818462837D8
:104C8000BD4680BD80B485B000AF78607B68FA22F5
:104C900002FB03F3FB6000BFFB685A1EFA60002BA7
:104CA000FAD11437BD465DF8047B704780B584B0F7
:104CB00000AF04F095F90020002103F085FF95482E
:104CC000012102F021F947F23050FFF7DBFF00F03D
:104CD000ADFD6420FFF7D6FF8F4B1B88BB80002003
:104CE000002103F071FF8D48022102F00DF947F217
:104CF0003050FFF7C7FF00F099FD6420FFF7C2FFB7
:104D0000854B1B88FB800020002103F05DFF844859
:104D1000062102F0F9F847F23050FFF7B3FF00F038
:104D200085FD6420FFF7AEFF7B4B1B883B8104F0C1
:104D300057F97C48012102F0E7F847F23050FFF7BD
:104D4000A1FF00F073FD6420FFF79CFF724B1B88EE
:104D50007B817B89DB089AB2BB88DB089BB29A42D5
:104D600003D2714B01221A700EE07B89DB089AB2E4
:104D7000BB88DB089BB29A4203D96B4B00221A70A6
:104D800002E0694B02221A70674B1B78002B54D14A
:104D9000FB881A46BB88D31ADA0F13445B109BB208
:104DA000053BFB81BA88FB895B089BB2D31A9AB298
:104DB0005E4B1A80BA88FB8913449AB25B4B5A80C7
:104DC000FA88FB89D31A9AB2584B9A803B891A46C3
:104DD000FB88D31ADA0F13445B109BB2053BFB81AF
:104DE000FA88FB8913449AB2504BDA803A89FB89DE
:104DF000D31A9AB24D4B1A817B891A463B89D31A32
:104E0000DA0F13445B109BB2053BFB813A89FB89A7
:104E100013449AB2454B5A817A89FB89D31A9AB2C4
:104E2000424B9A817A89FB895B089BB213449AB200
:104E30003E4BDA8100F0B4F959E03B4B1B78012B73
:104E400050D1BB881A46FB88D31ADA0F13445B1083
:104E50009BB2053BFB81BA88FB89D31A9AB2334BCC
:104E60001A80BA88FB8913449AB2304B5A80FA8868
:104E7000FB89D31A9AB22D4B9A80FB881A463B893C
:104E8000D31ADA0F13445B109BB2053BFB81FA88FF
:104E9000FB8913449AB2254BDA803A89FB89D31AED
:104EA0009AB2224B1A813B891A467B89D31ADA0FB0
:104EB00013445B109BB2053BFB813A89FB89134489
:104EC0009AB21A4B5A817A89FB89D31A9AB2174B34
:104ED0009A817A89FB8913449AB2144BDA8100F0E3
:104EE0005FF904E0124803F039FE00F077F90F4B48
:104EF0001A880E4B1B8A9A4202D90B4B01221A7058
:104F00000020002103F060FE0A4803F027FE10375E
:104F1000BD4680BDF0E30008841B002034EA000891
:104F200038EA0008F4E3000896000020181B00206F
:104F300040EA000850EA000880B582B000AF0023C4
:104F4000FB7104F04DF84FF4FA7004F0F9FC5EE0E8
:104F500002F06CFC0346FB710020002103F034FEDC
:104F60002F4803F0FBFD2F4B1A882F4BA3FB021396
:104F70005B099BB2DBB2184602F034FD294B1B885B
:104F8000DBB2184602F02EFD284803F0E7FD254B62
:104F90005A88254BA3FB02135B099BB2DBB2184670
:104FA00002F020FD1F4B5B88DBB2184602F01AFDB1
:104FB0000120002103F008FE1D4803F0CFFD194B2E
:104FC0009A88194BA3FB02135B099BB2DBB218460C
:104FD00002F008FD134B9B88DBB2184602F002FD7D
:104FE000144803F0BBFD0F4BDA880F4BA3FB0213F1
:104FF0005B099BB2DBB2184602F0F4FC094BDB887C
:10500000DBB2184602F0EEFC142004F099FCFB79A8
:10501000022B9DD103F0E4FF0837BD4680BD00BFE1
:10502000A4E10008841B00201F85EB515CEA000806
:10503000ACE1000860EA000880B582B000AF002350
:10504000FB710023BB7103F0CBFF4FF4FA7004F047
:1050500077FC3BE002F0EAFB0346FB7100200021F5
:1050600003F0B2FD022004F06BFC0023BB7108E0EA
:10507000BB791A4AD35C1846FCF7D8FDBB790133DB
:10508000BB71BB79042BF3D9012004F059FC01203A
:10509000002103F099FD114B5B791846FCF7C6FD22
:1050A0000E4B9B791846FCF7C1FD0D4803F056FDE9
:1050B0000C4B1B78184602F095FC08480A49072259
:1050C000092302F0B1FA142004F03AFCFB79022B18
:1050D000C0D103F085FF0837BD4680BD381B0020D6
:1050E00090E20008C60000208400002080B582B055
:1050F00000AF0023FB710023BB7103F071FF4FF47D
:10510000FA7004F01DFC3BE002F090FB0346FB71DB
:105110000020002103F058FD022004F011FC0023C0
:10512000BB7108E0BB791A4AD35C1846FCF77EFDD8
:10513000BB790133BB71BB79042BF3D9012004F097
:10514000FFFB0120002103F03FFD114B5B79184666
:10515000FCF76CFD0E4B9B791846FCF767FD0D487C
:1051600003F0FCFC0C4B1B78184602F03BFC084893
:105170000A490722092302F057FA142004F0E0FB41
:10518000FB79022BC0D103F02BFF0837BD4680BD51
:105190005C1B002090E200085900002084000020E1
:1051A00080B582B000AF0023FB710FE0FB799BB2AA
:1051B00003F20A639AB2F979074B33F811301046BB
:1051C000194608F0E3FCFB790133FB71FB79072BEF
:1051D000ECD90837BD4680BD181B002080B582B0D1
:1051E00000AF0023FB710FE0FB799BB203F20A636F
:1051F0009AB2FB795900074B0B441046194608F048
:1052000079FCFB790133FB71FB79072BECD908376B
:10521000BD4680BD181B002080B58AB000AF786005
:10522000962004F08DFB02F059F93862022004F058
:1052300087FBA54B1B683A6A9A4240F2AE8102F0A6
:105240004DF90246A04B1A6007F10C03386A194663
:1052500002F0AAFC022004F073FB00237B620BE047
:1052600007F10C027B6A13441A7898497B6A0B4455
:105270001A707B6A01337B627B6A092BF0DD0220A6
:1052800004F05EFB914B2C229A72022004F058FB32
:1052900004F0B8FB00237B6212E07B6A0B338C497D
:1052A0007A6A0A441178894AD1547B6A1033894951
:1052B0007A6A0A441178854AD1547B6A01337B6249
:1052C0007B6A032BE9DD04F0ABFB022004F038FB22
:1052D0007E4B2C22DA737D4B2C221A750023FB8324
:1052E00000237B6219E001227B6A02FA03F39AB27F
:1052F000794B1B689BB21340FB83FA8B7B6A42FAA3
:1053000003F3FB837B6A1533FA8BD2B23032D1B20E
:105310006E4AD1547B6A01337B627B6A022BE2DDE9
:105320006A4B2C221A766D4868490422192302F030
:105330007BF9664B2C225A776948644904221E2364
:1053400002F072F9614B2C2283F8222000237B6249
:105350001AE0644B1B781A4601217B6A01FA03F3B9
:105360009BB213409BB2FB83FA8B7B6A42FA03F336
:10537000FB837B6A2333FA8BD2B23032D1B2534AE9
:10538000D1547B6A01337B627B6A022BE1DD4F4B98
:105390002C2283F8262000237B621BE0524B9B6863
:1053A0009AB27B6A0433012101FA03F39BB21340E2
:1053B000FB83FA8B7B6A043342FA03F3FB837B6A39
:1053C0002733FA8BD2B23032D1B2404AD1547B6A01
:1053D00001337B627B6A022BE0DD3C4B2C2283F89D
:1053E0002A2000237B621AE0404B1B781A460121D9
:1053F0007B6A01FA03F39BB213409BB2FB83FA8BE7
:105400007B6A42FA03F3FB837B6A2B33FA8BD2B2BB
:105410003032D1B22D4AD1547B6A01337B627B6A30
:10542000022BE1DD294B2C2283F82E2000237B6206
:105430001BE02D4BDB689AB27B6A0B33012101FA2A
:1054400003F39BB21340FB83FA8B7B6A0B3342FA64
:1054500003F3FB837B6A2F33FA8BD2B23032D1B2A3
:105460001A4AD1547B6A01337B627B6A022BE0DDEE
:10547000164B2C2283F8322000237B621AE01B4B50
:105480001B781A4601217B6A01FA03F39BB2134091
:105490009BB2FB83FA8B7B6A42FA03F3FB837B6A42
:1054A0003333FA8BD2B23032D1B2084AD1547B6A4C
:1054B00001337B627B6A022BE1DD044B2C2283F8F3
:1054C000362000237B622EE0BC000020C01B0020A1
:1054D0009C1B0020B01B0020541B0020AC1B002094
:1054E000441B0020151B002000080140301B002039
:1054F000304B1B781A4601217B6A01FA03F39BB2F9
:1055000013409BB2FB83FA8B7B6A42FA03F3FB8363
:105510007B6A3733FA8BD2B23032D1B2264AD154B9
:105520007B6A01337B627B6A022BE1DD224B2C22FA
:1055300083F83A2000237B621AE0204B1B781A463E
:1055400001217B6A01FA03F39BB213409BB2FB83F8
:10555000FA8B7B6A42FA03F3FB837B6A3B33FA8B59
:10556000D2B23032D1B2144AD1547B6A01337B6259
:105570007B6A022BE1DD104B0D2283F83E200E4B9F
:105580000A2283F83F200E4B00221A700A4840215D
:1055900000F018F8022004F0D3F9022004F0D0F94A
:1055A000FEF73EFEFDF7BCFAFDF7D6FA08F0EEFC7A
:1055B00039E600BFA8180020C01B0020A918002051
:1055C0005C00002080B588B000AF786039602E4B59
:1055D0001B68002B51D12D4A07F10C0307CA03C3E6
:1055E0001A800233120C1A7004F00CFA07F10C0343
:1055F00027481946032207F037F90346FB77FB7F5C
:10560000002B0DD007F10C03214819460A2207F0A0
:105610002BF90346FB77FB7F002B01D0FB7F2FE0AC
:105620001B4BDB681A48194607F09CFC0346FB77C6
:10563000FB7F002B01D0FB7F22E03A6807F11803C3
:105640001348796807F04CFA0346FB77FB7F002B81
:1056500001D0FB7F14E00E4807F0C8FB0346FB7740
:10566000FB7F002B01D0FB7F0AE0094807F066FCB6
:105670000346FB7704F0D4F901E00023FB77FB7FBE
:1056800018462037BD4680BD001B002064EA000894
:10569000C800002080B584B000AF0023FB6046E066
:1056A00002F0C4F80346FB60052004F049F900202D
:1056B000002103F089FA554803F050FA052004F060
:1056C0003FF940F20160524908F014FA504B1B8830
:1056D0001A463B1D1046194602F04CFB3B1D18466E
:1056E0004C490422082301F09FFF0120052103F00B
:1056F0006BFA494B9B881A463B1D1046194602F02F
:1057000039FB3B1D184603F029FA0A2004F018F96A
:105710000120002103F058FA00F028F90A2004F0D3
:105720000FF93E4803F01AFA642004F009F9FB6807
:10573000022BB5D1384B9B887B817B8940F201607D
:10574000194608F023FA0023FB600020002103F033
:105750003BFA334803F002FA4FF4FA6004F0F0F831
:1057600042E002F063F80346FB6003F039FC1920C5
:1057700004F0E6F80020002103F026FA294803F09F
:10578000EDF90020082103F01FFA00F0EFF8264B96
:105790001B881A463B1D10461946FFF7F9F83B1DBA
:1057A000184603F0DBF90120052103F00DFA1A4B2E
:1057B000DB881A463B1D10461946FFF7E9F83B1DEA
:1057C000184603F0CBF9192004F0BAF801200021A3
:1057D00003F0FAF9192004F0B3F8104803F0BEF909
:1057E0004FF4FA7004F0ACF8FB68022BB9D10A4B05
:1057F0009B887B81084BDB884FF4C060194608F01A
:10580000C5F902F051FC1037BD4680BD70EA0008B2
:10581000A400002074000020841B00209C1B00209A
:1058200078EA000888EA0008AC00002080B487B05D
:1058300000AF00237B6100233B610023FB6000235A
:10584000BB6000237B6000233B6000233B6157E08B
:1058500000237B6126E07B695A1C3D4B33F8121014
:105860003B4B7A6923F812107B695A1C394B33F889
:105870001210384B7A6923F812107B695A1C364B88
:1058800033F81210344B7A6923F812107B695A1CD2
:10589000324B33F81210314B7A6923F812107B69BE
:1058A00001337B617B69082BD5DD2D4BDB6B9AB215
:1058B000274B5A822A4B1B6C9AB2264B5A82284B92
:1058C0005B6C9AB2244B5A82254B9B6C9AB2234B49
:1058D0005A821F4B5B8AFA681344FB601D4B5B8A3C
:1058E000BA681344BB601C4B5B8A7A6813447B60C4
:1058F0001A4B5B8A3A6813443B603B6901333B6156
:105900003B69082BA4DDFA68164BA3FB0213DB08E6
:105910009AB2154B1A80BA68124BA3FB0213DB082C
:105920009AB2114B5A807A680E4BA3FB0213DB0824
:105930009AB20D4B9A803A680A4BA3FB0213DB081C
:105940009AB2094BDA801C37BD465DF8047B70477C
:10595000701B0020E81A00204C1800206C18002052
:1059600000240140CDCCCCCC841B002080B584B079
:1059700000AF0023FB600023BB60052003F0E0FFC5
:10598000464B9A88464B1B889A4203D9454B0222C4
:105990001A700CE0414B9A88434B1B889A4203D201
:1059A000404B01221A7002E03E4B00221A703B4B22
:1059B000DA883E4B1B889A4203D93D4B02221A706B
:1059C0000CE0364BDA883B4B1B889A4203D2384BAB
:1059D00001221A7002E0364B00221A70052003F0F3
:1059E000AFFF2E4BDB881A46334B1B68D21A134687
:1059F0009B0013445B001A46304B1B68B2FBF3F369
:105A00007B607B68DAB22E4B1A7079682D4BA3FB52
:105A10000123DA0813469B0013445B00CA1AD3B271
:105A20003033DAB2284BDA70052003F089FF7A6848
:105A3000244BA3FB0213DB087B60234B2E229A70BE
:105A40007968204BA3FB0123DA0813469B0013441B
:105A50005B00CA1AD3B23033DAB21B4B5A7005203E
:105A600003F06EFF7A68174BA3FB0213DB087B6021
:105A70007968144BA3FB0123DA0813469B001344F7
:105A80005B00CA1AD3B23033DAB20F4B1A700E4B26
:105A900000221A711037BD4680BD00BF841B002054
:105AA000961B0020BA0000202E1B00206618002044
:105AB000BB00002080180020A8000020B4000020B7
:105AC000B9000020CDCCCCCC9C1B002080B584B08C
:105AD00000AF0023BB60052003F032FF434BDA88A0
