:020000040800F2
:10000000C41A002031070008910700089107000872
:100010009107000891070008910700080000000000
:10002000000000000000000000000000D99200085D
:100030009107000800000000AD930008E993000854
:100040009107000891070008910700089107000830
:100050009107000891070008D9260008F526000836
:100060001127000891070008910700089107000870
:100070009107000891070008212300083523000894
:100080009107000891070008910700080000000090
:100090000000000000000000000000003D270008F4
:1000A000C53B0008093D00083D3D000891070008D8
:1000B00091070008653A00089107000891070008B9
:1000C00091070008910700089107000891070008B0
:1000D00091070008611200089107000891070008C5
:1000E0001D27000891070008910700080000000084
:1000F0000000000000000000000000000000000000
:1001000000000000000000000000000000000000EF
:10011000000000000000000091070008910700089F
:100120005FF808F180B485B000AF786039600023D3
:10013000FB817B681B88FB817A682E4B9A4213D027
:100140007A682D4B9A420FD07B68B3F1804F0BD069
:100150007A682A4B9A4207D07A68294B9A4203D090
:100160007A68284B9A4208D1FB8923F07003FB81FF
:100170003B685A88FB891343FB817A68224B9A4279
:100180000CD07A68214B9A4208D0FB8923F4407343
:10019000FB813B68DA88FB891343FB817B68FA8922
:1001A0001A803B689A887B689A853B681A887B68C6
:1001B0001A857A680F4B9A420FD07A680E4B9A4292
:1001C0000BD07A68124B9A4207D07A68114B9A4248
:1001D00003D07A68104B9A4204D13B681B7A1A46C6
:1001E0007B681A867B6801229A821437BD465DF8C7
:1001F000047B7047002C01400034014000040040A3
:1002000000080040000C00400010004000140040B6
:1002100000400140004401400048014080B485B0E6
:1002200000AF7860396000237B810023FB810023CD
:10023000BB817B681B8C9BB223F001039AB27B6865
:100240001A847B681B8CFB817B689B88BB817B68E5
:100250001B8B7B817B8923F070037B817B8923F05F
:1002600003037B813B681A887B8913437B81FB896D
:1002700023F00203FB813B681A89FB891343FB814E
:100280003B685A88FB891343FB817A68244B9A4266
:100290000FD07A68234B9A420BD07A68224B9A424D
:1002A00007D07A68214B9A4203D07A68204B9A4251
:1002B00023D1FB8923F00803FB813B685A89FB8922
:1002C0001343FB81FB8923F00403FB813B689A887D
:1002D000FB891343FB81BB8923F48073BB81BB89FA
:1002E00023F40073BB813B689A89BB891343BB81AC
:1002F0003B68DA89BB891343BB817B68BA899A80E2
:100300007B687A891A833B68DA887B689A867B687F
:10031000FA891A841437BD465DF8047B704700BF24
:10032000002C0140003401400040014000440140E5
:100330000048014080B485B000AF78603960002388
:100340007B810023FB810023BB817B681B8C9BB2DC
:1003500023F010039AB27B681A847B681B8CFB81A4
:100360007B689B88BB817B681B8B7B817B8923F4AB
:10037000E0437B817B8923F440737B813B681B884E
:100380001B029AB27B8913437B81FB8923F02003F4
:10039000FB813B681B891B019AB2FB891343FB81DC
:1003A0003B685B881B019AB2FB891343FB817A6827
:1003B000224B9A4203D07A68214B9A422BD1FB8977
:1003C00023F08003FB813B685B891B019AB2FB89A8
:1003D0001343FB81FB8923F04003FB813B689B882F
:1003E0001B019AB2FB891343FB81BB8923F4806311
:1003F000BB81BB8923F40063BB813B689B899B0065
:100400009AB2BB891343BB813B68DB899B009AB2DC
:10041000BB891343BB817B68BA899A807B687A89E0
:100420001A833B68DA887B681A877B68FA891A84A2
:100430001437BD465DF8047B704700BF002C0140B7
:100440000034014080B485B000AF7860396000238B
:100450007B810023FB810023BB817B681B8C9BB2CB
:1004600023F480739AB27B681A847B681B8CFB81AF
:100470007B689B88BB817B689B8B7B817B8923F01E
:1004800070037B817B8923F003037B813B681A889F
:100490007B8913437B81FB8923F40073FB813B68D9
:1004A0001B891B029AB2FB891343FB813B685B8863
:1004B0001B029AB2FB891343FB817A68224B9A4252
:1004C00003D07A68214B9A422BD1FB8923F4006335
:1004D000FB813B685B891B029AB2FB891343FB815A
:1004E000FB8923F48063FB813B689B881B029AB2E3
:1004F000FB891343FB81BB8923F48053BB81BB89F8
:1005000023F40053BB813B689B891B019AB2BB89D2
:100510001343BB813B68DB891B019AB2BB89134340
:10052000BB817B68BA899A807B687A899A833B68A9
:10053000DA887B689A877B68FA891A841437BD4603
:100540005DF8047B704700BF002C0140003401407F
:1005500080B485B000AF786039600023BB81002390
:100560007B810023FB817B681B8C9BB223F480532F
:100570009AB27B681A847B681B8C7B817B689B8822
:10058000FB817B689B8BBB81BB8923F4E043BB81F0
:10059000BB8923F44073BB813B681B881B029AB262
:1005A000BB891343BB817B8923F400537B813B6868
:1005B0001B891B039AB27B8913437B813B685B8851
:1005C0001B039AB27B8913437B817A68124B9A4250
:1005D00003D07A68114B9A420AD1FB8923F48043F5
:1005E000FB813B689B899B019AB2FB891343FB818A
:1005F0007B68FA899A807B68BA899A833B68DA8833
:100600007B68A3F840207B687A891A841437BD463A
:100610005DF8047B704700BF002C014000340140AE
:1006200080B483B000AF78607B684FF6FF729A8029
:100630007B6800221A807B680022DA807B680022B7
:100640005A807B6800221A720C37BD465DF8047B25
:10065000704700BF80B483B000AF78607B68002231
:100660001A807B6800225A807B6800229A807B680F
:100670000022DA807B6800221A817B6800225A817E
:100680007B6800229A817B680022DA810C37BD46A4
:100690005DF8047B704700BF80B483B000AF786022
:1006A0000B46FB70FB78002B08D07B681B889BB245
:1006B00043F001039AB27B681A8007E07B681B88CD
:1006C0009BB223F001039AB27B681A800C37BD46B7
:1006D0005DF8047B704700BF80B483B000AF7860E2
:1006E0007B689B8E9BB218460C37BD465DF8047B39
:1006F000704700BF80B483B000AF78607B681B8F09
:100700009BB218460C37BD465DF8047B704700BFAE
:1007100080B483B000AF78600B467B807B88DB437E
:100720009AB27B681A820C37BD465DF8047B70472D
:1007300080B582B000AF114B7B60114B3B6007E08E
:100740003B681A1D3A607A68111D796012681A6058
:100750003A680C4B9A42F3D30B480C494FF0000215
:100760008842B8BF40F8042BFFF6FAAF00F014F847
:1007700006F0FAF80837BD4680BD00BF1CA8000887
:10078000000000204000002040000020C81600208B
:1007900080B400AFFEE700BF80B500AF164B164A2D
:1007A000126842F001021A60134A134B5968134B46
:1007B0000B405360104A104B1B6823F0847323F4E2
:1007C000803313600C4B0C4A126822F480221A60AA
:1007D000094B094A526822F4FE025A60064B4FF454
:1007E0001F029A60044B0022DA6200F00BF8044BFF
:1007F0004FF000629A6080BD001002400000FFF8D8
:1008000000ED00E080B500AF00F002F880BD00BF51
:1008100080B483B000AF00237B6000233B60304B8B
:100820002F4A126842F480321A602D4B1B6803F481
:1008300000333B607B6801337B603B68002B03D156
:100840007B68B3F5A06FF0D1254B1B6803F0020362
:10085000002B02D001233B6001E000233B603B689A
:10086000012B37D11E4B1E4A52685A601C4B1C4A42
:1008700052685A601A4B1A4A52685A60184B184A02
:10088000526822F47C125A60154B154A526842F4A1
:1008900098125A60124B124A126842F080721A6023
:1008A00000BF0F4B1B6803F00073002BF9D00C4BFB
:1008B0000B4A526822F003025A60094B084A5268F8
:1008C00042F002025A6000BF054B5B6803F00C0364
:1008D000082BF9D10C37BD465DF8047B704700BF8B
:1008E0000010024080B489B000AF78603960002306
:1008F000FB6100233B610023BB610023FB600023FD
:100900007B610023BB603B68DB7803F00F03FB6176
:100910003B68DB7803F01003002B04D03B689B7826
:10092000FA691343FB613B681B88DBB2002B44D0A0
:100930007B681B687B610023BB6138E0BB690122D7
:1009400002FA03F3FB603B681B881A46FB681340FE
:100950003B613A69FB689A4226D1BB699B00FB6008
:10096000FB680F2202FA03F3BB60BB68DB437A69C2
:1009700013407B61FB68FA6902FA03F37A69134357
:100980007B613B68DB78282B05D1BB6901229A404B
:100990007B685A6108E03B68DB78482B04D1BB696F
:1009A00001229A407B681A61BB690133BB61BB6954
:1009B000072BC3D97B687A691A603B681B88FF2BB9
:1009C00046D97B685B687B610023BB613AE0BB6909
:1009D0000833012202FA03F3FB603B681B881A46C6
:1009E000FB6813403B613A69FB689A4227D1BB69B7
:1009F0009B00FB60FB680F2202FA03F3BB60BB683D
:100A0000DB437A6913407B61FB68FA6902FA03F3FE
:100A10007A6913437B613B68DB78282B05D1BB697E
:100A2000083301229A407B685A613B68DB78482B87
:100A300005D1BB69083301229A407B681A61BB6902
:100A40000133BB61BB69072BC1D97B687A695A60E6
:100A50002437BD465DF8047B704700BF80B483B087
:100A600000AF78607B684FF6FF721A807B680222C5
:100A70009A707B680422DA700C37BD465DF8047BFF
:100A8000704700BF80B487B000AF78600B46FB7042
:100A900000233B610023FB6000237B610023BB60DC
:100AA0007B68002B03DA2E4BDB697B6102E02C4B69
:100AB0005B687B617B6803F470231B0CBB607B6805
:100AC0009BB23B617B6803F44013B3F5401F0AD12E
:100AD0007B6923F070637B61214B214A526822F0CD
:100AE00070625A6021E07B6803F48013002B0ED003
:100AF000BB68032202FA03F3FB60FB68DB437A69FD
:100B000013407B617B6943F070637B610DE07B6820
:100B10005B0D1B013A6902FA03F3DB437A69134068
:100B20007B617B6943F070637B61FB78002B08D0AD
:100B30007B685B0D1B013A6902FA03F37A69134380
:100B40007B617B68002B03DA054B7A69DA6102E08E
:100B5000034B7A695A601C37BD465DF8047B7047C9
:100B60000000014080B400AFBFF34F8FBD465DF879
:100B7000047B704780B483B000AF0346FB71084B21
:100B800097F907205209F97901F01F01012000FAB5
:100B900001F143F822100C37BD465DF8047B704725
:100BA00000E100E080B500AF054A054BDB6803F4C7
:100BB000E061044B0B43D360FFF7D4FFFEE700BFB7
:100BC00000ED00E00400FA0580B582B000AF3D4BB7
:100BD0001B78DBB203F004039B10012B6BD13A4B63
:100BE0009B889AB240F68C239A4203D900200021B8
:100BF00004F056F9012006F069FF05F0CBF97860A2
:100C0000304B1B78DBB203F00103002B1AD02E4BC4
:100C10009B889AB22D4B1B889BB29A4212D22C4BC6
:100C20001B687A689A420CD90020002104F038F938
:100C3000284B1B78DBB243F00103DAB2254B1A7064
:100C400009E008E005F0A6F90246234B1B889BB299
:100C50001A441F4B1A60012006F038FF1F4B1A88F8
:100C60001F4B1B889BB29A4206D21C4B1B88002B41
:100C700002D0002001F0FEFC012006F027FF174BF8
:100C80005A88174B5B889BB29A4206D2134B5B88FB
:100C9000002B02D0042001F0EDFC012006F016FF2D
:100CA0000E4B5A880F4B5B889BB29A4203D90020A7
:100CB000002102F093FD012006F008FF0837BD4631
:100CC00080BD00BF17000020CC000020BC00002029
:100CD000B8000020AF000020BE000020400000202F
:100CE000C41600208816002080B582B000AF0346ED
:100CF000FB711C4B1B78DBB2002B11D11A4B1B78FC
:100D0000DBB25A1CD1B2184A1170F979174AA2FB0A
:100D100001025209D2B23032D1B2154AD15410E098
:100D2000114B1B78DBB25A1CD1B20F4A1170F97902
:100D30000E4AA2FB01025209D2B23032D1B20D4AA0
:100D4000D154FB79094AA2FB03125209642101FB29
:100D500002F29B1ADBB2184605F0CEFB0837BD46FF
:100D600080BD00BF99000020980000201F85EB5136
:100D7000780000208800002080B584B000AF0023F8
:100D8000FB730023BB7300237B7300237B81002351
:100D90007B6000233B6006F0A1F9744805F066FF14
:100DA0004FF4FA7006F092FE714B00221A7034E094
:100DB00005F0AAFA03461A466D4B1A70002000216E
:100DC00005F090FF6B4805F051FF6B4B1B689BB221
:100DD000184600F0E9F9694805F048FF664B5B6882
:100DE0009BB2184600F0E0F90120002105F07AFFDF
:100DF0000A2006F06BFE624805F038FF5E4B9B68E8
:100E00009BB2184600F0D0F95E4805F02FFF5A4B10
:100E1000DB689BB2184600F0C7F9554B1B78DBB274
:100E2000002BC5D006F05AF9514B1B78DBB2013BC1
:100E3000BB734F4B00221A70534805F017FFFB7B22
:100E4000184604F04FF90346FB73FB7B184601F08C
:100E500011FC06F043F94D4805F008FF7B7B18466E
:100E600004F040F903467B73BA7B434B53F82230BE
:100E70007B6006F033F9464805F0F8FEFB7B184628
:100E800001F0C8FB3A4B00221A7019E00A2006F064
:100E90001DFE05F039FA03461A46354B1A7006F066
:100EA0001DF93C4805F0E2FE0120002105F01AFF83
:100EB000BA7B314B53F822309BB2184600F074F9DC
:100EC0002B4B1B78DBB2022BE0D1BA7B2A4B53F8B9
:100ED00022303B60FB7B184601F0CCFBC82006F0BB
:100EE000F5FD3B689AB27B689BB2D31A9BB21A4657
:100EF0007B7B92FBF3F37B81BA7B274B798923F8C9
:100F0000121006F0EBF8254805F0B0FE3B689BB2E6
:100F1000184600F049F90120002105F0E3FE2048C1
:100F200005F0A4FE7B89184600F03EF97B8940F26B
:100F30004260194608F04CFD0D4B00221A7008E083
:100F40000A2006F0C3FD05F0DFF903461A46084BF8
:100F50001A70074B1B78DBB2022BF1D106F0BEF8FA
:100F6000C82006F0B3FD1037BD4680BD28A100089B
:100F7000AD00002034A100083816002038A1000878
:100F80003CA1000840A1000844A1000854A10008A9
:100F900064A1000874A100084C16002084A1000878
:100FA0008CA1000880B584B000AF13460246FA71E8
:100FB0000A46BA71BB800023FB60BB880F4A1288C7
:100FC00002FB03F20E4BA3FB0213DB08FB600020C5
:100FD00001F020FBBA790B4B002143F8221002E00C
:100FE0000A2006F073FD074B1A68FB689A42F7D394
:100FF000002001F03FFB1037BD4680BD4C1600209D
:10100000CDCCCCCC3816002080B584B000AF1346D0
:101010000246FA710A46BA71BB800023BB60002306
:10102000FB8106F05BF8554805F020FE08E00A2039
:1010300006F04CFD05F068F903461A46504B1A704D
:101040004F4B1B78DBB2002BF1D04D4B1B78DBB242
:10105000022B01D1FFF790FE01237B7387E006F09E
:101060003DF8484805F002FE474B1B88184600F043
:101070009BF8FB891846052104F0E6F80346FB813E
:10108000FB89414A128802FB03F2404BA3FB021387
:10109000DB08BB6006F022F83D4805F0E7FDBB68C1
:1010A0009BB2184600F080F80120002105F01AFEDE
:1010B000384805F0DBFDBA79374B53F82220364B20
:1010C00053F822309BB2184600F06EF82C4B0022E9
:1010D0001A70002001F09EFABA792F4B002143F8D4
:1010E00022101BE00A2006F0F1FC05F0F7FF2B4868
:1010F00005F0BCFDBA79284B53F822309BB2184654
:1011000000F052F80120002105F0ECFD244805F024
:10111000ADFDBB689BB2184600F046F81E4B1A683E
:10112000BB689A42DED3002001F0A4FA05F0D6FF96
:101130001C4805F09BFD08E00A2006F0C7FC05F0FE
:10114000E3F803461A460E4B1A700D4B1B78DBB2C0
:10115000002BF1D00A4B1B78DBB2022B05D1012307
:101160007B730D4B00221A6001E000237B737B7BB5
:10117000012B3FF474AF1037BD4680BD94A1000829
:10118000AD000020A4A100084C160020CDCCCCCC92
:10119000B0A10008B8A1000838160020BCA10008C2
:1011A000C4A10008C8A1000880B582B000AF034602
:1011B000FB80FA88164BA3FB02135B0B9BB2DBB2DE
:1011C000184605F099F9FB88114AA2FB0312520B4D
:1011D00042F2107101FB02F29B1A9AB20D4BA3FB73
:1011E00002135B099BB2DBB2184605F085F9FB8858
:1011F000084AA2FB03125209642101FB02F29B1A66
:101200009BB2DBB2184605F077F90837BD4680BDC2
:101210005917B7D11F85EB5180B485B000AF396045
:1012200013460246FA71BB710023FB730023FB7364
:101230000AE0FB7B3A6813441B78DAB2FB7953402F
:10124000FB71FB7B0133FB73FA7BBB799A42F0D3D2
:10125000FB7918461437BD465DF8047B704700BF24
:1012600080B582B000AF0023FB71674840F2255182
:1012700007F0AEFA0346002B1AD0634807F088FA4D
:101280000346DAB2614B1A70614B1B78DBB25A1C11
:10129000D1B25F4A11705D4A1278D1B25D4AD15421
:1012A000594B594A128892B222F0200292B21A8007
:1012B000554B554A128892B222F0400292B21A80DF
:1012C000554B1B78DBB2012B1BD1544B1B78DAB288
:1012D000534B1B78DBB29A4213D24B4A4F4B1B78CD
:1012E000DBB2591CC8B24D4908704E49CB5CDBB229
:1012F0009380454B444A128892B222F0400292B247
:101300001A80494B1B78DBB2002B7AD1474B1B78F4
:10131000DBB2042B3BD1464B1B78DBB2002B04D154
:101320003A4B1B78DAB2434B1A70414B1B78DBB255
:101330005A1CD1B23E4A1170344A1278D1B2354AA1
:10134000D1543B4B1B78DBB21A463A4B1B78DBB2CD
:1013500001339A421BD1374B1B78DBB230202D4929
:101360001A46FFF759FF0346FB71FB79002B03D1A7
:101370002D4B01221A7001E000F09CF82B4B00224B
:101380001A702B4B00221A702B4B00221A701F4B25
:101390001B78DBB25A2B03D1274B01221A7030E0A5
:1013A0001A4B1B78DBB2582B08D1234B1B78DBB2CE
:1013B000012B03D1204B02221A7022E01E4B1B7816
:1013C000DBB2022B1DD1114B1B78DBB2302B15D0B9
:1013D0000E4B1B78DBB2312B03D1144B03221A7056
:1013E0000CE00A4B1B78DBB2322B07D10F4B0422E7
:1013F0001A7000F05FF80E4B00221A700E4B00229C
:101400001A700837BD4680BD0038014048000020F2
:101410004B00002060160020490000204A000020F8
:10142000150000208C160020DB000020DA000020D0
:10143000D8000020D9000020D700002080B582B05D
:1014400000AF786001F0B0F8FFF7BEFB08F014FDC4
:101450000A2006F03BFBF5E780B582B000AF78606C
:1014600008F058FD104B1B78DBB2012B17D100F0B0
:10147000A7F80E4B5B78DBB2312B0DD80B4B1B78EA
:10148000DBB20A4AD35CDBB2184600F04DF800F03C
:1014900011F8074B00221A70034B00221A700A2021
:1014A00006F014FBDCE700BFDB0000206016002024
:1014B000D800002080B483B000AF0023FB7100236C
:1014C000FB7106E0FB79074A0021D154FB79013317
:1014D000FB71FB79292BF5D90C37BD465DF8047BF0
:1014E000704700BF6016002080B582B000AF0023B7
:1014F000FB710B4B00221A700023FB7109E0FB7992
:10150000084A0021D154012006F0E0FAFB790133AA
:10151000FB71FB79292BF2D90837BD4680BD00BF8E
:10152000150000208C16002080B582B000AF034665
:10153000FB711F4B5A221A701D4B58225A701C4BBC
:1015400037229A701A4B0522DA70194BFA791A7100
:10155000174BDB78DBB2002015491A46FFF75CFE1B
:1015600003461A46124B5A71012006F0AFFA104B8F
:10157000DB78DBB20133DAB20E4B1A700E4B00226D
:101580001A700E4B01221A7002E0032006F09EFA38
:10159000094B1B78DAB2074B1B78DBB29A42F4D3C3
:1015A000FFF7A2FF054B00221A700837BD4680BD29
:1015B0008C160020150000204A0000204900002061
:1015C00080B582B000AF0023FB80B64B5B78DBB206
:1015D0003B2B00F2CE8101A252F823F0CD16000879
:1015E000F91600080F1700081F1700082717000832
:1015F0003517000843170008731900085117000831
:10160000691700088717000899170008F5170008E0
:1016100021180008271800083D1800085F18000866
:1016200081180008B9180008DB18000873190008B1
:10163000731900087319000873190008731900085A
:10164000731900087319000873190008731900084A
:10165000731900087319000873190008731900083A
:10166000731900087319000873190008731900082A
:10167000731900087319000873190008731900081A
:10168000731900087319000873190008731900080A
:1016900073190008731900087319000873190008FA
:1016A0007319000873190008E1180008731900087D
:1016B000731900087319000873190008EF1800085F
:1016C000111900083119000853190008754B9B784F
:1016D000D9B2744BDB78DAB2724B1B79DBB21B02E6
:1016E00098B2704B5B79DBB203449BB2084611465B
:1016F0001A46FFF757FC3CE16A4B9B78DAB2694B1C
:10170000DB78DBB21046194603F0CAFB31E1664BC9
:1017100033221A700020002103F0C2FB29E1624B42
:1017200030221A7025E15F4B9B78DBB2184600F03F
:1017300071FF1EE15B4B9B78DBB2184600F09AFF0D
:1017400017E1584B9B78DBB2184600F01BFB10E109
:10175000554B1B78DBB2332B05D1524B9B78DAB259
:10176000524B1A7005E104E14E4B9B78D9B24D4BB8
:10177000DB78DAB24B4B1B79DBB2084611461A46CE
:1017800000F0FCF8F5E004F005FC0246484B1A6056
:10179000484B00221A70ECE0444B00221A70424B76
:1017A00033221A70434B1B78DBB203F00103DAB229
:1017B000404B1A700020002103F072FB0120002131
:1017C00003F06EFB0220002103F06AFB03200021DE
:1017D00003F066FB022000F04DFF032000F04AFFFB
:1017E000002000F047FF012000F044FF042000F03B
:1017F00041FFBEE02B4B9B78DBB21A02294BDB7812
:10180000DBB213441A02274B1B79DBB213441A02D2
:10181000244B5B79DBB21344184604F0CDFBA8E0FF
:10182000FFF7C0F9A5E01F4B9B78DAB21D4BDB78C0
:10183000DBB21046194602F03FF89AE0194B9B784C
:10184000DBB21A46174BDB78DBB21B029BB21344A8
:10185000FB80FB881846012100F0C4F889E0114B99
:101860009B78DBB21A460F4BDB78DBB21B029BB2D4
:101870001344FB80FB881846102100F0B3F878E091
:10188000084B9B78DBB21A46064BDB78DBB21B02B7
:101890009BB21344FB80FB8818460A2100F0A2F893
:1018A00067E000BF60160020140000201700002031
:1018B000B8000020AF0000202F4B9B78DBB21A4607
:1018C0002D4BDB78DBB21B029BB21344FB80FB8801
:1018D00018460B2100F086F84BE005F045F948E08A
:1018E000254B9B78DBB2184600F0A2FA41E0224B70
:1018F0009B78DBB21A46204BDB78DBB21B029BB233
:1019000013409BB29BB21846022100F06BF830E006
:10191000194B9B78DBB21A46174BDB78DBB21B0204
:101920009BB213449BB21846012100F00DF920E050
:10193000114B9B78DBB21A460F4BDB78DBB21B02F4
:101940009BB21344FB80FB881846022100F0FCF890
:101950000FE0094B9B78DBB21A46074BDB78DBB212
:101960001B029BB21344FB80FB88184600F07EF9F3
:1019700000BF0837BD4680BD6016002080B584B02A
:1019800000AF13460246FA710A46BA717B71002312
:10199000BB600023FB6004F0FDFAF860BA79FB68D5
:1019A0001344BB60FA797B791046194601F016FFA3
:1019B0000BE004F0EFFAF860022006F087F801204F
:1019C00000F036FA022006F081F8FA68BB689A4205
:1019D000EFD3FB791846002101F000FF1037BD4618
:1019E00080BD00BF80B586B000AF02460B46FA80CE
:1019F0007B7100233B610023FB757B79012B13D1A5
:101A00004F4B1B79DBB21A464D4B5B79DBB21B02A5
:101A10009BB213449AB24B4B1A804A4B1B88FA88EC
:101A20001046194607F0D4FF7B79022B18D1444B9E
:101A30001B79DBB21A46424B5B79DBB21B021A44BC
:101A40003F4B9B79DBB21B041A443D4BDB79DBB285
:101A50001B0613443B61FB881846396903F064FA9E
:101A60007B79102B29D10023FB7523E0354B002215
:101A70001A80FB7D02335B00314AD35CDBB21A462D
:101A8000FB7D5B0203F5A0632D49CB5CDBB2134405
:101A90009AB22C4B1A80FB885A1CFA80294A128869
:101AA0001846114607F094FF012006F00FF8FB7D61
:101AB0000133FB75FB7D1F2BD8D97B790A2B1DD1F8
:101AC0000023FB81FA8807F10E031046194607F040
:101AD00033FFFB89DBB29BB2FB81194B1B79DBB275
:101AE0001B029AB2FB899BB213409BB29BB2FB8153
:101AF000FB89FA881046194607F06AFF7B790B2BA1
:101B00001BD10023BB81FA8807F10C03104619464C
:101B100007F012FFBB8923F0FF039BB2BB81084B88
:101B20001B79DBB21A46BB8913409BB2BB81BB89D0
:101B3000FA881046194607F04BFF1837BD4680BD9E
:101B400060160020DC00002090B585B000AF024692
:101B50000B46FA807B71404B5A221A703E4B58223A
:101B60005A703D4B31229A707B79012B1DD1FA8836
:101B700007F10A031046194607F0DEFE364B09222C
:101B8000DA70364B9B78DAB2334B1A71334BDB7811
:101B9000DAB2314B5A717B89DAB22F4B9A717B8959
:101BA0001B0A9BB2DAB22C4BDA717B79022B24D15F
:101BB000FB88184604F070FEF860274B0B22DA70A1
:101BC000264B9B78DAB2244B1A71244BDB78DAB2BD
:101BD000214B5A71FB68DAB21F4B9A71FB681B0AE2
:101BE000DAB21D4BDA71FB681B0CDAB21A4B1A72AF
:101BF000FB681B0EDAB2184B5A72174BDB78DBB25C
:101C00005C1E154BDB78DBB2013BDBB200201249D6
:101C10001A46FFF701FB03461A460F4B1A550E4BA7
:101C2000DB78DAB20E4B1A700E4B00221A700E4B94
:101C300001221A7002E0012005F048FF094B1B78D1
:101C4000DAB2074B1B78DBB29A42F4D3064B002280
:101C50001A701437BD4690BD8C1600206016002007
:101C6000150000204A0000204900002090B585B0F2
:101C700000AF0346FB800023FB730623BB733C4B82
:101C80005A221A703A4B58225A70394B31229A70A4
:101C9000374B2722DA70374B9B78DAB2344B1A7104
:101CA000344BDB78DAB2324B5A710023FB732EE0EF
:101CB0000023BB60FB7B9BB25B009AB2FB881344A2
:101CC0009BB2184604F0E8FDB860BB7B5A1CBA739F
:101CD000BA68120ED1B2264AD154BB7B5A1CBA73D1
:101CE000BA68120CD1B2224AD154BB7B5A1CBA73C7
:101CF000BA68120AD1B21E4AD154BB7B5A1CBA73BD
:101D0000BA68D1B21A4AD154FB7B0133FB73FB7B17
:101D1000072BCDD9BC7B164BDB78DBB2013BDBB2AA
:101D2000002013491A46FFF777FA03461A46104B6C
:101D30001A550F4BDB78DAB20F4B1A700F4B00229B
:101D40001A700F4B01221A7002E0012005F0BEFE4E
:101D50000A4B1B78DAB2084B1B78DBB29A42F4D3F9
:101D6000074B00221A70FFF7BFFB1437BD4690BD2A
:101D70008C16002060160020150000204A0000206C
:101D80004900002080B584B000AF0346FB710023FA
:101D9000FB730023BB8100237B81234B5A221A70E3
:101DA000214B58225A70204B31229A701E4B2A2206
:101DB000DA701D4BFA791A710023FB732AE0FB7964
:101DC0009BB21A46D20013449AB2FB7B9BB21344D7
:101DD0009BB203F538739BB25B00BB81BA8907F1F4
:101DE0000A031046194607F0A7FDFB7B5B0005338D
:101DF0000D4A0021D154FB7B03335B007A89D2B2B8
:101E00005242D1B2084AD154012005F05FFEFB7B5B
:101E10000133FB73FB7B112BD1D9044B01221A70C8
:101E20001037BD4680BD00BF8C1600204900002041
:101E300090B583B000AF0346FB71974B1B78DBB2C4
:101E4000002B40F05482954B5A221A70934B582223
:101E50005A70924B33229A70904B2822DA70FB7999
:101E6000012B40F0D5808E4B1B78DAB28B4B1A7168
:101E70008C4B1B68DAB2894B5A718B4B1B68DAB2F8
:101E8000864B9A71894B1B78DAB2844BDA71884B96
:101E90001B88DAB2814B1A72864B1B78DAB27F4B01
:101EA0005A72854B1B78DAB27C4B9A72824B5B7804
:101EB000DAB27A4BDA72804B9B78DAB2774B1A73CC
:101EC0007D4BDB78DAB2754B5A737C4B1B8B9BB224
:101ED000DAB2724B9A73794B1B8B9BB21B0A9BB283
:101EE000DAB26E4BDA73754B9B8B9BB2DAB26B4BEB
:101EF0001A74724B9B8B9BB21B0A9BB2DAB2674B74
:101F00005A746F4B1B88DAB2644B9A746C4B1B8803
:101F10001B0A9BB2DAB2614BDA74694B5B88DAB2A6
:101F20005E4B1A75664B5B881B0A9BB2DAB25B4B41
:101F30005A75644B1B889BB2DAB2584B9A75614B49
:101F40001B889BB21B0A9BB2DAB2544BDA755D4B0D
:101F50005B889BB2DAB2514B1A765A4B5B889BB2C4
:101F60001B0A9BB2DAB24D4B5A76564B9B889BB2FA
:101F7000DAB24A4B9A76534B9B889BB21B0A9BB2B0
:101F8000DAB2464BDA764F4BDB889BB2DAB2434B80
:101F90001A774C4BDB889BB21B0A9BB2DAB23F4BE1
:101FA0005A77494B1B68DAB23C4B9A77464B1B6811
:101FB0001B0ADAB2394BDA77434B1B681B0CDAB2D7
:101FC000364B83F82020404B1B681B0EDAB2334B94
:101FD00083F821203D4B1B78DAB2304B83F8222066
:101FE0003B4B1B78DAB22D4B83F82320344B5B88B4
:101FF000DAB22A4B83F82420314B5B881B0A9BB250
:10200000DAB2264B83F82520244BFA7983F8262070
:10201000FB79022B66D12F4B1B88DAB21F4B1A714A
:102020002C4B1B881B0A9BB2DAB21C4B5A712A4BF1
:102030001B88DAB2194B9A71274B1B881B0A9BB27B
:10204000DAB2164BDA71154B00221A721D4B1B883F
:102050009BB21B0A9BB2DAB2104B5A72194B5B88C7
:102060009BB2DAB20D4B9A72164B5B889BB21B0A7D
:102070009BB2DAB2094BDA72124B9B889BB2DAB28E
:10208000064B1A730F4B9B889BB21B0A9BB2DAB2AA
:10209000024B5A7322E000BF490000208C1600203A
:1020A00014000020B0000020B40000205A160020C8
:1020B000C0000020D4000020540000200028004070
:1020C00040000020CC00002038160020D600002060
:1020D00017000020C6000020C8000020854BFA79B8
:1020E00083F82620FB79032B3BD1834B9B68DAB224
:1020F000804B1A71804B9B681B0ADAB27D4B5A7178
:102100007D4B9B681B0CDAB27A4B9A717A4B9B68B9
:102110001B0EDAB2774BDA71784B9B68DAB2754BEB
:102120001A72764B9B681B0ADAB2724B5A72734B67
:102130009B681B0CDAB26F4B9A72704B9B681B0E3C
:10214000DAB26C4BDA726E4B9B78DAB2694B1A7367
:102150006B4BDB78DAB2674B5A73664BFA7983F8CC
:102160002620FB79042B1AD1624B00225A72654B50
:102170001B78DAB25F4B9A72634B1B88DAB25D4B05
:10218000DA72614B1B881B0A9BB2DAB2594B1A7385
:10219000584B4D225A73574BFA7983F82620FB7916
:1021A000052B35D1594B1B88DAB2524B1A71574B5C
:1021B0001B881B0A9BB2DAB24E4B5A71534B5B8899
:1021C000DAB24C4B9A71514B5B881B0A9BB2DAB264
:1021D000484BDA714E4B1B68DAB2464B1A724C4BC5
:1021E0001B681B0ADAB2434B5A72494B1B681B0C23
:1021F000DAB2404B9A72464B1B681B0EDAB23D4B6B
:10220000DA723C4B4D225A733A4BFA7983F8262006
:10221000FB79062B3DD13D4B1B88DAB2354B1A7149
:102220003A4B1B881B0A9BB2DAB2324B5A71374BBE
:102230005B88DAB22F4B9A71344B5B881B0A9BB2D6
:10224000DAB22C4B5A71324B5B68DAB2294B1A72F4
:102250002F4B5B681B0ADAB2264B5A722C4B5B6819
:102260001B0CDAB2234B9A72294B5B681B0EDAB255
:10227000204BDA72244B5B88DAB21E4B1A73224B66
:102280005B881B0A9BB2DAB21A4B5A73194BFA7964
:102290009A75184BDB78DBB25C1E164BDB78DBB231
:1022A000013BDBB2002013491A46FEF7B5FF034697
:1022B0001A46104B1A550F4BDB78DAB2154B1A70D1
:1022C000154B00221A70154B01221A7002E00220F1
:1022D00005F0FCFB104B1B78DAB20E4B1B78DBB21F
:1022E0009A42F4D3FFF700F90C4B00221A700C3716
:1022F000BD4690BD8C16002000080140000C014036
:102300005C000020D60000204C1600204000002079
:1023100038160020150000204A0000204900002047
:1023200080B400AF024B1B68BD465DF8047B70476C
:102330000000024080B400AF024B1B68BD465DF850
:10234000047B70470000024080B586B000AF0120DA
:10235000012105F001FA0520012105F01BFA2523D2
:102360003B7500237B750023BB750123FB7507F1CB
:102370001403184607F062F84FF400733B820323FE
:10238000BB741823FB7407F1100324481946FEF7A9
:10239000A9FA4FF480633B820423FB7407F1100316
:1023A0001E481946FEF79EFA1D4806F0BBF84FF48A
:1023B0008040012105F0EEF94FF416533B600023F5
:1023C000BB800023FB8000233B810023BB810C23C7
:1023D0007B813B461248194606F000F910484FF43D
:1023E000587106F0E5F90E4B0D4A928992B242F00F
:1023F000200292B29A810A4B094A928992B242F023
:10240000400292B29A810648012106F0A1F92520E6
:10241000FEF7B0FB1837BD4680BD00BF0008014085
:102420000038014080B588B000AF1020012105F0D0
:10243000B1F90220012105F0CBF907F11C03184680
:10244000FEF70CFB4FF47073BB830323BB77182399
:10245000FB7707F11C0320481946FEF743FA1F4893
:102460000121FEF70FFB07F110031846FEF7D8F81D
:102470004FF40073FB8240F2E733BB82EF233B82D1
:1024800007F1100316481946FDF74CFE3B46184667
:10249000FEF7E0F801237B8060233B800023FB8074
:1024A0003B460F481946FDF7B9FE3B460C48194616
:1024B000FDF740FF3B460A481946FDF7C3FF3B4680
:1024C00007481946FEF744F805480121FEF7E4F8ED
:1024D0002037BD4680BD00BF00100140000C1A002F
:1024E0000004004080B582B000AF04F0F7FD002387
:1024F000FB8000237B7104F0F1FD0A2005F0E6FA71
:1025000004F0ECFD234804F0B1FB234B00221A70C9
:102510001EE003F0F9FE03461A461F4B1A701F4BCC
:102520001B88FB80052005F0D1FA0120002104F072
:10253000D9FBFA881A4BA3FB02135B099BB2DBB2EF
:10254000184603F0D9FFFB88DBB2184603F0D4FF2E
:10255000114B1B78DBB2022BDBD10A2005F0B6FA57
:10256000FB8840F2D650194607F032FA02F05AF9C9
:102570004FF4FA6005F0AAFA0A4804F077FB064B1C
:1025800000221A7004F0AAFD04F0EEFA0837BD46E6
:1025900080BD00BFD0A10008AD0000204000002099
:1025A0001F85EB51E4A1000880B582B000AF012087
:1025B00005F08CFA0023FB71012005F087FA124B1D
:1025C0001B78DBB203F002035B10012B18D10F4B19
:1025D0001B881A460E4B1B889BB202339A4202DDBF
:1025E000002000F017F8012005F070FA074B1A8858
:1025F000074B1B889BB29A4202D2002000F03AF8A7
:102600000837BD4680BD00BF1700002040000020F5
:10261000C416002080B483B000AF0346FB71FB7981
:10262000002B06D1114B114A526942F480725A6153
:1026300009E00E4B0D4A5169FA790A32012000FA7D
:1026400002F20A435A61FB79012202FA03F3DAB279
:10265000074B1B78DBB2DBB21343DBB2DAB2044BBD
:102660001A700C37BD465DF8047B704700080140C6
:102670005A16002080B483B000AF0346FB71FB798B
:10268000002B06D1124B124A126942F480721A6171
:1026900009E00F4B0E4A1169FA790A32012000FA5B
:1026A00002F20A431A61FB79012202FA03F3DBB258
:1026B000DB43DAB2074B1B78DBB2DBB21340DBB291
:1026C000DAB2044B1A700C37BD465DF8047B7047D4
:1026D000000801405A16002080B500AF012005F027
:1026E00019F9034B1B685A1C014B1A6080BD00BFCF
:1026F0003816002080B500AF022005F00BF9034B1F
:102700005B685A1C014B5A6080BD00BF3816002020
:1027100080B500AF042005F0FDF880BD80B500AFA6
:102720004FF4806005F0F6F84FF4006005F0F2F821
:102730004FF4805005F0EEF880BD00BF80B500AFCB
:10274000202005F0E7F8402005F0E4F8802005F0AF
:10275000E1F880BD80B582B000AF40F2DC53FB8071
:102760000023BB80294B00221A7047E003F0CCFD08
:1027700003461A46254B1A700023BB80FA883B1D7E
:102780001046194607F0D8F80F2005F09FF904F01D
:10279000A5FC1F4804F06AFAFB881846FEF704FD02
:1027A0000120002104F09EFA1A4804F05FFABB8869
:1027B0001846FEF7F9FC154B1B78DBB2022B0AD149
:1027C000FB88B3F5FA6F03D2FB880133FB8002E08C
:1027D0004FF4AF63FB800D4B1B78DBB2012B0AD1AA
:1027E000FB88B3F5AF6F03D9FB88013BFB8002E0A8
:1027F0004FF4FA63FB800F2005F068F9034B1B7858
:10280000DBB2042BB2D10837BD4680BDAD0000203D
:10281000F0A10008F8A1000880B582B000AF002345
:10282000FB7104F05BFC464B00221A707DE0142023
:1028300005F04CF903F068FD03461A46404B1A7048
:102840000020002104F04EFA3E4804F00FFAFB7914
:10285000184603F051FE3A4B1B78DBB2042B03D130
:10286000FB791846FFF7D6FE354B1B78DBB2032BFE
:1028700003D1FB791846FFF7FDFE314B1B78DBB225
:10288000012B08D1FB79012B03D8FB790133FB71B4
:1028900001E00023FB71012005F018F9012000215F
:1028A00004F020FA284804F0E1F9284B1B78DBB249
:1028B000184603F021FE012005F008F9244804F031
:1028C000D5F9244B9B6803F01003002B03D022485A
:1028D00004F0CCF902E0214804F0C8F91D4B9B68D4
:1028E00003F02003002B03D01B4804F0BFF91CE0C9
:1028F0001A4804F0BBF9174B9B6803F04003002B08
:1029000003D0154804F0B2F902E0144804F0AEF91F
:10291000104B9B6803F48073002B03D00E4804F027
:10292000A5F902E00D4804F0A1F9054B1B78DBB2D4
:10293000022B7FF47CAF04F0D1FB0837BD4680BD8D
:10294000AD00002000A200080CA200085A160020CA
:1029500010A200080008014018A200081CA20008EC
:1029600080B582B000AF0223FB7104F0B7FB6FE0CB
:10297000142005F0ABF803F0C7FC03461A46394BA8
:102980001A700020002104F0ADF9374804F06EF908
:10299000FB79184603F0B0FD324B1B78DBB2042BF9
:1029A00009D1324B314A1169FA790B32012000FA10
:1029B00002F20A431A612B4B1B78DBB2032B09D1BD
:1029C0002A4B2A4A5169FA790B32012000FA02F2A5
:1029D0000A435A61234B1B78DBB2012B08D1FB79E8
:1029E000032B03D8FB790133FB7101E00223FB7158
:1029F000012005F06BF80120002104F073F91C4858
:102A000004F034F91B4B1B78DBB2184603F074FD5D
:102A1000012005F05BF8184804F028F9134BDB6837
:102A200003F40053002B03D0144804F01FF902E014
:102A3000134804F01BF90D4BDB6803F48043002BB3
:102A400003D00E4804F012F902E00D4804F00EF92C
:102A5000044B1B78DBB2022B8AD104F03FFB083712
:102A6000BD4680BDAD00002000A200080008014066
:102A70000CA200085A16002010A2000818A2000894
:102A80001CA2000880B582B000AF0023FB8004F0D8
:102A900025FB4C4B00221A7083E0142005F016F839
:102AA00003F032FC03461A46464B1A700020002100
:102AB00004F018F9444B1B88FB80FB88DBB21846F6
:102AC00003F01AFD404B5B88FB80FB88DBB21846A5
:102AD00003F012FD3D4804F0C9F83D4B9B8CFB8090
:102AE000FB881846FEF760FB364B1B78DBB2042BE5
:102AF00002D10120FFF78EFD324B1B78DBB2012B98
:102B000002D10120FFF7B6FD012004F0DFFF012014
:102B1000002104F0E7F82F4B1B78DBB2184603F0D6
:102B2000EBFC2D4804F0A2F80023BB802B4B9B68E4
:102B30005B09BB80BB881846FEF736FB284804F0CB
:102B400095F8012004F0C2FF244B9B685B0903F059
:102B50000103002B03D0234804F088F802E0224848
:102B600004F084F81D4B9B689B0903F00103002BC4
:102B700003D01C4804F07AF802E01B4804F076F811
:102B8000164B9B68DB0903F00103002B03D01548AB
:102B900004F06CF802E0144804F068F8134804F0FC
:102BA00065F8084B1B78DBB2022B7FF476AFFFF79A
:102BB000D1FD04F093FAFFF72FFEFFF7D1FE08379F
:102BC000BD4680BDAD0000204000002020A20008CE
:102BD000004801405A16002024A2000800080140C5
:102BE00028A2000818A200081CA200082CA20008B5
:102BF00080B584B000AF13460246FA800A467A7167
:102C00003B710023FB730023BB7300237B73FA88A3
:102C10007B7942FA03F37B730020002104F062F811
:102C2000514804F023F8514B00221A7060E003F081
:102C30006BFB03461A464D4B1A700120002104F02D
:102C400051F80023FB7305E0494804F00FF8FB7BC3
:102C50000133FB73FA7B39797B79CB1A9A42F3DB28
:102C6000012004F033FF0023FB7309E00020002162
:102C700004F038F83F4803F0F9FFFB7B0133FB73A6
:102C8000FA7B39797B79CB1A9A42EFDBBB7B002048
:102C9000194604F027F8344803F0E8FF052004F053
:102CA00015FF324B1B78DBB2042B08D1BA7B397984
:102CB0007B79CB1A9A4202DABB7B0133BB732B4B75
:102CC0001B78DBB2012B05D1BB7B002B02D0BB7B79
:102CD000013BBB73254B1B78DBB2032B08D1BB7BBD
:102CE000012202FA03F3DAB27B7B5340DBB27B733F
:102CF0001E4B1B78DBB2022B99D10023FB7325E01E
:102D00007A7BFB7B42FA03F303F00103002B0DD027
:102D1000FA7B7B791344012BD4BF00230123DBB260
:102D20001A46FB8813439BB2FB800CE0FA7B7B794D
:102D30001344012202FA03F39BB2DB439AB2FB88ED
:102D400013409BB2FB80FB7B0133FB73FA7B397929
:102D50007B79CB1A9A42D3DB01F064FDFB881846DD
:102D60001037BD4680BD00BF30A20008AD00002076
:102D700018A2000828A2000880B586B000AF03465C
:102D8000FB710023BB8200237B8100233B81002356
:102D90003B6104F0A3F9674803F068FFC82004F022
:102DA00095FEFB799BB21A46520013449B009BB2DE
:102DB00003F21463BB82BA8A07F10A03104619466C
:102DC00006F0BAFD7B89DBB2184602F08BF90346A8
:102DD0007B817B89BA8A1046194606F0F9FD04F01A
:102DE0007DF90020052103F07DFF534803F03EFFED
:102DF000C82004F06BFEFB799BB21A4652001344C4
:102E00009B009BB203F21D63BB82BA8A07F10803E1
:102E10001046194606F090FD3B8918460021032212
:102E2000FFF7E6FE03463B810023FB7511E003F04C
:102E30006BFA03461A46414B1A70404B1B78DBB2C3
:102E4000042B03D1FB7DC3F10103FB75192004F0B2
:102E50003DFE3A4B1B78DBB2002BE8D0FB7D012B0B
:102E600005D13B8943F001039BB23B8104E03B89E0
:102E700023F001039BB23B813B89BA8A1046194675
:102E800006F0A6FD052004F021FE01F0CBFC002396
:102E9000FB60FB799BB21A46520013449B009BB225
:102EA00003F21763BB82BB8A184603F0F5FCF86097
:102EB000F868012102F026FCF860FB689BB2BA8A30
:102EC0001046194606F084FDFB799BB21A46520063
:102ED00013449B009BB203F21963BB82BB8A184662
:102EE00003F0DAFCF860F868012102F00BFCF860EE
:102EF000FB689BB2BA8A1046194606F069FDFB7959
:102F00009BB21A46520013449B009BB203F2156316
:102F1000BB82BB8A184603F0BFFCF860F86802F079
:102F2000F5F9F860BB8A1846F96801F0FDFF18371B
:102F3000BD4680BD34A200083CA20008AD000020C0
:102F400080B582B000AF0023FB7104F0C7F80948D8
:102F500003F08CFEC82004F0B9FDFB79184602F09E
:102F6000C1F80346FB71FB79184600F021F80837D9
:102F7000BD4680BD48A2000880B582B000AF0023E6
:102F8000FB7104F0ABF8094803F070FEC82004F0B0
:102F90009DFDFB79184602F0A5F80346FB71FB790D
:102FA0001846FFF7E9FE0837BD4680BD48A2000875
:102FB00080B584B000AF0346FB710023FB81002382
:102FC000BB81FB799BB21A46920013449BB203F279
:102FD0004563FB81FA8907F10C031046194606F098
:102FE000ABFC04F07BF8574803F040FEBB89184661
:102FF00002F0CEF80346BB81BB89FA891046194618
:1030000006F0E6FCFB799BB21A46920013449BB291
:1030100003F24663FB81FA8907F10C031046194657
:1030200006F08AFC04F05AF8474803F01FFEBB89FB
:10303000184602F0ADF80346BB81BB89FA891046F9
:10304000194606F0C5FCFA8907F10C03104619462B
:1030500006F072FC04F042F83C4803F007FEBB891E
:10306000184602F095F80346BB81BB89FA891046E1
:10307000194606F0ADFCFB799BB21A469200134448
:103080009BB203F24763FB81FA8907F10C031046F8
:10309000194606F051FC04F021F82D4803F0E6FD36
:1030A000BB89184602F074F80346BB81BB89FA89D4
:1030B0001046194606F08CFCFB799BB21A4692002A
:1030C00013449BB203F24763FB81FA8907F10C03B7
:1030D0001046194606F030FC04F000F81D4803F0D5
:1030E000C5FDBB89184602F053F80346BB81BB8976
:1030F000FA891046194606F06BFCFA8907F10C03B1
:103100001046194606F018FC03F0E8FF124803F0D9
:10311000ADFDBB89184602F03BF80346BB810A208F
:1031200004F0D4FCBB89FA891046194606F050FC1D
:1031300003F0D4FF0A2004F0C9FC03F015FD10379A
:10314000BD4680BD54A2000868A2000878A200080D
:1031500088A2000894A20008A4A2000890B585B037
:1031600000AF0023BB730023FB7303F0B7FF3448A9
:1031700003F07CFDC82004F0A9FCBB7B184601F0DD
:10318000B1FF0346BB7303F0A9FF2E4803F06EFDA9
:10319000BB7B184603F0B0F92B4803F067FD002312
:1031A000FB7306E01E2004F091FC03F0ADF803462B
:1031B000FB73FB7B022B02D0FB7B032BF2D1C820DD
:1031C00004F084FCFB7B022B32D1BA7B13465B00FC
:1031D00013449B0003F21563BB60BB689BB21846A7
:1031E00003F05AFB7860BA7B13465B0013449B00E4
:1031F00003F21763BB6002F0CDFE3860BB689BB280
:103200001846396801F090FEBA7B13465B00134400
:103210009B0003F21B63BB60BB689CB202F0BAFE6A
:1032200002467B68D31A05332046194601F07CFE1E
:1032300003F054FFC82004F049FC1437BD4690BD8C
:1032400048A20008B0A20008BCA2000880B58EB059
:1032500000AF0346FB71A74B02221A70FB790122D3
:1032600002FA03F3DAB2A44B1B78DBB2DBB21343EE
:10327000DBB2DAB2A04B1A700023BB6202F08AFE06
:10328000B8620420FFF7C6F99A4B03221A70002394
:10329000FB81002387F8373000237B6200233B62E9
:1032A0000023FB6100233B630023FB6200237B833D
:1032B0000023BB8100233B830023FB8200237B810F
:1032C0000023BB82FB799BB21A46520013449B0039
:1032D0009BB203F214633B833A8B07F10C03104655
:1032E000194606F029FB854B5A88BB89DBB29BB295
:1032F000D31A9BB2BB8102F04DFE38637D4B042292
:103300001A70642004F0E2FB19E07D4B5B889AB2EE
:103310007A4B5B88D31ABB82BB89BA8A9A4205D89A
:103320003B6B0533FB620420FFF774F9FA2004F0CD
:10333000CDFB02F02FFE38636E4B05221A70FA6A3D
:103340003B6B9A42E1D80420FFF794F94FF47A706E
:1033500004F0BCFB674B06221A70002387F8373055
:103360009AE097F837305733DAB2624B1A7000237D
:103370003B83FB799BB21A46520013449B009BB2DD
:1033800003F215633B833B8B184603F085FA3862E2
:10339000FB799BB21A46520013449B009BB203F286
:1033A00017633B833B8B184603F076FAF861642081
:1033B00004F08CFB97F837309BB21A469200134406
:1033C0009BB203F247633B833A8B07F10E0310462F
:1033D000194606F0B1FA02F0DDFD0246FB69D21A89
:1033E0003B6AB2FBF3F37B62642004F06FFB414B5A
:1033F000C8221A70C82004F069FBFB899BB2DAB2BC
:103400007B6AB3FBF2F102FB01F29B1AFB7400230F
:103410003B81FB899BB21B0AFB8200233B8397F80D
:1034200037309BB21A46920013449BB203F24563B5
:103430003B833A8B07F108031046194606F07CFAE5
:10344000FB799BB2FA8A9A421BD13B89002B18D098
:10345000FB7C002B15D1274B63221A704FF4C870E8
:1034600004F034FB97F83730184600F003F997F86A
:1034700037306433DAB21F4B1A704FF4FA6004F03D
:1034800025FB642004F022FB1A4B08221A7097F8DF
:103490003730013387F8373097F83730082B7FF60D
:1034A00060AF144B09221A70FB799BB21A46520086
:1034B00013449B009BB203F21D633B833A8B07F1DD
:1034C0000A031046194606F037FA012387F8373009
:1034D00025E07B891A4697F8373042FA03F303F068
:1034E0000103002B0ED097F837301846FFF792F8FB
:1034F0000DE000BFAE000020D400002040000020FE
:103500008816002097F837301846FFF7B3F8642084
:1035100004F0DCFA97F83730013387F8373097F842
:103520003730042BD5D94E4B0A221A704D4B1B78DD
:10353000DBB243F00103DAB24A4B1A700023BB74CA
:1035400000233B82484B1B78BB74474B30221A70D8
:10355000FB799BB21A46520013449B009BB203F2C4
:1035600013633B830023BB813A8B07F10C031046A6
:10357000194606F0E1F902F00DFD0246BB8913443D
:10358000FB623A4B1B78DBB223F00103DAB2374B14
:103590001A700EE04FF4FA7004F098FAFB6ADAB28F
:1035A0003B6BDBB2D31ADAB22D4B1A7002F0F2FC8D
:1035B00038632E4B1B78DBB203F00103002B03D1E1
:1035C0003A6BFB6A9A42E5D3254B0C221A7044F6FB
:1035D000206004F07BFA234B1B78DBB223F001035D
:1035E000DAB2204B1A700020002101F059FC1E4B6A
:1035F000BA7C1A701D4B1B78DBB223F00103DAB2E0
:103600001A4B1A70164B0D221A704FF47A7004F090
:103610005DFA00F087F9FB799BB21A465200134419
:103620009B009BB203F21B633B833B8B1846B96A3A
:1036300001F07AFCFB79012202FA03F3DBB2DB43EF
:10364000DAB20B4B1B78DBB2DBB21340DBB2DAB27F
:10365000074B1A70C82004F039FA3837BD4680BDD0
:10366000AE0000201700002014000020AF00002052
:10367000D400002080B586B000AF0346FB71002364
:103680007B61FB799BB21A46920013449BB203F212
:1036900046637B827A8A07F110031046194606F0CA
:1036A0004BF9FB799BB21A46920013449BB203F28A
:1036B00045637B827A8A07F10E031046194606F0AD
:1036C0003BF9344B5F221A704FF4C87004F0FEF9D6
:1036D00000237B82FB799BB21A46920013449BB273
:1036E00003F5C9637B822B4B5E221A704FF4C870BE
:1036F00004F0ECF97A8A07F10C031046194606F03B
:103700001BF9244B5D221A704FF4C87004F0DEF9E7
:1037100002F040FC02463B8A13447B611D4B5C2255
:103720001A704FF4C87004F0D1F9FB89DBB2184667
:10373000012100F053F8174B5B221A704FF4C87048
:1037400004F0C4F905E0134B5B221A70642004F006
:10375000BDF902F01FFC02467B699A42F3D30D4B80
:103760005A221A704FF4C87004F0B0F9FB89DBB22A
:103770001846002100F032F8064B59221A704FF417
:10378000C87004F0A3F9BB89184600F005F8183793
:10379000BD4680BDAE00002080B584B000AF0346BA
:1037A000FB800023FB6002F0F5FB0246FB8813441C
:1037B000FB600020012100F011F802E00A2004F073
:1037C00085F902F0E7FB0246FB689A42F6D3002037
:1037D000002100F003F81037BD4680BD80B483B0EF
:1037E00000AF02460B46FA71BB71BB79002B0ED0BD
:1037F000FB79012202FA03F3DAB22D4B1B78DBB21C
:10380000DBB21343DBB2DAB2294B1A700FE0FB795B
:10381000012202FA03F3DBB2DB43DAB2244B1B785A
:10382000DBB2DBB21340DBB2DAB2214B1A70BB79E8
:10383000012B02D10023BB7103E0BB79C3F1640308
:10384000BB71FB79002B08D11A4ABB799BB2194690
:1038500089000B445B009BB29386FB79012B08D156
:10386000144ABB799BB2194689000B445B009BB29A
:103870001387FB79022B08D10E4ABB799BB21946FC
:1038800089000B445B009BB29387FB79032B09D122
:10389000084ABB799BB2194689000B445B009BB276
:1038A000A2F840300C37BD465DF8047B704700BF7E
:1038B000D60000200004004080B584B000AF02466E
:1038C0000B46FA71BB710023FB6002F063FB0346F9
:1038D0000133FB6002E0022004F0F8F802F05AFB2A
:1038E0000246FB689A42F6D302F054FB0246BB79CB
:1038F0001344FB60FB7918460121FFF76FFF02E0DC
:10390000022004F0E3F802F045FB0246FB689A420D
:10391000F6D3FB7918460021FFF760FF1037BD464C
:1039200080BD00BF80B500AF0320FEF7A3FE0420DA
:10393000FEF7A0FE0020FEF79DFE0120FEF79AFE96
:103940000220FEF797FE80BD80B58AB000AF786098
:10395000002387F82630FFF7E5FF002387F827309C
:103960007AE00A2004F0B2F897F827309BB21A46A2
:10397000520013449B009BB203F21B63BB84BB8CBD
:10398000184602F089FF386202F004FBF86197F8EC
:1039900027309BB21A46520013449B009BB203F29D
:1039A0001563BB84BB8C184602F076FFB861FA69D8
:1039B0003B6AD31A7B6197F827309BB21A465200B4
:1039C00013449B009BB203F21763BB84BB8C184665
:1039D00002F062FF386197F827309BB21A46520016
:1039E00013449B009BB203F21963BB84BB8C184643
:1039F00002F052FFF86097F827309BB21A46520047
:103A000013449B009BB203F21D63BB84BA8C07F185
:103A10000B031046194605F08FFF0A2004F056F8F4
:103A20007A69BB699A420FD9FA693B699A420BD904
:103A3000FA69FB689A4207D2FB7A002B04D097F808
:103A400027301846FFF702FC0A2004F03FF897F8E9
:103A50002730013387F8273097F82730022B80D999
:103A60007BE700BF80B500AF4B480421FCF750FE58
:103A70004948FCF73FFE03461A46484B1A80474B1D
:103A80001B889BB2002B18D04348FCF725FE034649
:103A9000642202FB03F2414B1B889BB292FBF3F3BF
:103AA0009AB23F4B1A803F4B1A683C4B1B889BB223
:103AB000B2FBF3F23C4B1A6005E0394B00221A804E
:103AC000394B00221A60394B1B78DBB20133DAB272
:103AD000364B1A70354B1B78DAB2354B1B789A424D
:103AE00058D9344B1B78DBB2002B53D12C4B1B889D
:103AF0009BB2192B1AD92A4B1B889BB2222B15D8A3
:103B00002D4B1B782C4A12782C498A5CD2B2D1B248
:103B10002B4A1278012000FA02F2D2B2D243D2B27A
:103B20000A40D2B2D1B2254AD15412E0224B1B78BE
:103B3000214A127821498A5CD2B2D1B2204A127845
:103B4000012000FA02F2D2B20A43D2B2D1B21B4A29
:103B5000D1541B4B1B78002B16D1194B07221A701E
:103B6000154B1B780133DAB2134B1A70124B1B78CA
:103B7000042B0FD10F4B01221A700F4B00221A7029
:103B80000F4B07221A7005E00D4B1B78013BDAB290
:103B90000B4B1A7080BD00BF000400404C00002099
:103BA0004E00002000000020500000206100002096
:103BB0001600002062000020630000205400002056
:103BC0006400002080B500AF45480421FCF7A0FD4B
:103BD000434B1B8F9AB2434B1A80424B1B889BB2BC
:103BE000002B0ED03E4B9B8E9BB2642202FB03F255
:103BF0003C4B1B889BB292FBF3F39AB23A4B1A8070
:103C000005E0394B00221A80384B00221A60384BED
:103C10001B78DBB20133DAB2354B1A70344B1B78A8
:103C2000DAB2344B1B789A4258D9334B1B78DBB24B
:103C3000002B53D12C4B1B889BB2192B1AD92A4B22
:103C40001B889BB2222B15D82C4B1B782B4A127841
:103C50002B498A5CD2B2D1B22A4A1278012000FAEA
:103C600002F2D2B2D243D2B20A40D2B2D1B2244A84
:103C7000D15412E0214B1B78204A127820498A5CEB
:103C8000D2B2D1B21F4A1278012000FA02F2D2B2A7
:103C90000A43D2B2D1B21A4AD1541A4B1B78002B24
:103CA00016D1184B07221A70144B1B780133DAB265
:103CB000124B1A70114B1B78042B0FD10E4B0122A3
:103CC0001A700E4B00221A700E4B07221A7005E074
:103CD0000C4B1B78013BDAB20A4B1A7080BD00BF57
:103CE000004001404C0000204E0000205000002009
:103CF0006100002016000020620000206300002008
:103D0000540000206400002080B500AF0948022163
:103D1000FCF7FEFC074B9B8C9BB2B3F5C87F04D22B
:103D2000044B9B8C9AB2044B5A80024B00229A841B
:103D300080BD00BF004401404000002080B500AFBE
:103D40000C480221FCF7E4FC0B4B9B6803F4007366
:103D5000002B0AD1074B9B8C9BB2B3F5C87F04D2D2
:103D6000044B9B8C9AB2054B1A80024B00229A841A
:103D700080BD00BF00480140000C01404000002011
:103D800080B500AF284B00221A7044E01E2003F0DB
:103D90009DFE02F0B9FA03461A46234B1A70002022
:103DA000002102F09FFF214B1B78184602F0A4FB74
:103DB0001F4802F05BFF1C4B1B78DBB2042B05D1C4
:103DC0001A4B1B780133DAB2184B1A70164B1B785A
:103DD000DBB2012B05D1154B1B78013BDAB2134B3B
:103DE0001A700120002102F07DFF124802F03EFF10
:103DF000114812490422022302F068F90120072128
:103E000002F070FF0E4802F031FF0E480B49042209
:103E10000A2302F05BF9044B1B78DBB2022BB5D10D
:103E200003F05CF980BD00BFAD000020160000204B
:103E3000C0A20008C4A200086C0000208800002076
:103E4000C8A200086800002080B584B000AF034617
:103E5000FB71FB79434AA3FB02015A1A52080A4438
:103E60009209652101FB02F29B1AFB713E4B002275
:103E70001A706DE002F048FA03461A463A4B1A707F
:103E80000120032102F02EFFFA79384B83FB021345
:103E90009911D317CB1A4FF47A7101FB03F3D31A9C
:103EA000334A82FB03125211DB17D31ADBB23B7287
:103EB000FB792F4AA2FB03125209642101FB02F293
:103EC0009B1ADAB22B4BA3FB0213DB08DBB27B722B
:103ED000FA79284BA3FB0213D9080B469B000B442D
:103EE0005B00D31ADBB2BB72234802F0BFFE07F1BE
:103EF0000803184621490322062302F0E7F80120AF
:103F00000C2102F0EFFE1E4802F0B0FE0A2003F082
:103F1000DDFD154B1B78DBB2042B08D1FB79632B3D
:103F200003D8FB790133FB7101E00023FB710E4BD9
:103F30001B78DBB2012B08D1FB79002B02D10023C7
:103F4000FB7102E0FB79013BFB710A2003F0BEFD2F
:103F5000054B1B78DBB2022B8CD1FB79184610374E
:103F6000BD4680BD57866F44AD000020D34D621022
:103F70001F85EB51CDCCCCCCCCA200088800002012
:103F8000D0A2000880B582B000AF0023BB80002320
:103F9000FB7103F0A3F8204802F068FE0A2003F04A
:103FA00095FD3B1D40F20760194605F0C5FCBB8836
:103FB000DBB21846FFF748FF0346FB710A2003F007
:103FC00085FDFB799BB240F20760194605F000FDC4
:103FD00003F084F8114802F049FE0A2003F076FD50
:103FE0003B1D4FF4C160194605F0A6FCBB88DBB24F
:103FF0001846FFF729FF0346FB710A2003F066FD10
:10400000FB799BB24FF4C160194605F0E1FC03F067
:1040100065F80837BD4680BDD4A20008E4A20008B8
:1040200080B485B000AF78600023FB607B68FA2223
:1040300002FB03F3FB6000BFFB685A1EFA60002B13
:10404000FAD11437BD465DF8047B704780B584B063
:1040500000AF03F043F8964802F008FE4FF4FA6010
:1040600003F034FD00F0D0FA282003F02FFD914B2F
:104070001B889BB2BB8003F031F88F4802F0F6FD3D
:104080004FF4FA6003F022FD00F0BEFA282003F09E
:104090001DFD884B1B889BB2FB8003F01FF88748EF
:1040A00002F0E4FD4FF4FA6003F010FD00F0ACFA0A
:1040B000282003F00BFD7F4B1B889BB23B8103F054
:1040C0000DF87F4802F0D2FD4FF4FA6003F0FEFCD9
:1040D00000F09AFA282003F0F9FC764B1B889BB27B
:1040E0007B817B89DB089AB2BB88DB089BB29A4252
:1040F00003D2744B01221A700EE07B89DB089AB25E
:10410000BB88DB089BB29A4203D96E4B00221A701F
:1041100002E06C4B02221A706A4B1B78DBB2002B58
:1041200054D1FB881A46BB88D31ADA0F13445B10AC
:104130009BB2053BFB81BA88FB895B089BB2D31A13
:104140009AB2614B1A80BA88FB8913449AB25E4BCB
:104150005A80FA88FB89D31A9AB25B4B9A803B89C2
:104160001A46FB88D31ADA0F13445B109BB2053B47
:10417000FB81FA88FB8913449AB2534BDA803A895F
:10418000FB89D31A9AB2504B1A817B891A463B8914
:10419000D31ADA0F13445B109BB2053BFB813A89BB
:1041A000FB8913449AB2484B5A817A89FB89D31A06
:1041B0009AB2454B9A817A89FB895B089BB213447A
:1041C0009AB2414BDA8100F0DDF95AE03D4B1B78A1
:1041D000DBB2012B50D1BB881A46FB88D31ADA0F09
:1041E00013445B109BB2053BFB81BA88FB89D31A51
:1041F0009AB2354B1A80BA88FB8913449AB2324B73
:104200005A80FA88FB89D31A9AB22F4B9A80FB887E
:104210001A463B89D31ADA0F13445B109BB2053B55
:10422000FB81FA88FB8913449AB2274BDA803A89DA
:10423000FB89D31A9AB2244B1A813B891A467B898F
:10424000D31ADA0F13445B109BB2053BFB813A890A
:10425000FB8913449AB21C4B5A817A89FB89D31A81
:104260009AB2194B9A817A89FB8913449AB2164BF8
:10427000DA8100F087F904E0144802F0F7FC00F05E
:10428000A3F9114B1B889AB20F4B1B8A9BB29A421F
:1042900002D90C4B01221A700020002102F022FDED
:1042A0000B4802F0E3FC02F019FF1037BD4680BD59
:1042B000CCA20008CC00002048A600084CA60008AC
:1042C000D0A20008AC0000209C00002054A60008EA
:1042D00064A6000880B500AF02F000FF4FF4FA704A
:1042E00003F0F4FB3A4B00221A7068E002F00CF87D
:1042F00003461A46364B1A700020002102F0F2FCE9
:10430000344802F0B3FC344B1B889AB2334BA3FB06
:1043100002135B099BB2DBB2184602F0EDF82E4B9C
:104320001B889BB2DBB2184602F0E6F82C4802F07C
:104330009DFC294B5B889AB2284BA3FB02135B09B7
:104340009BB2DBB2184602F0D7F8234B5B889BB2D6
:10435000DBB2184602F0D0F80120002102F0C2FCC6
:10436000204802F083FC1C4B9B889AB21B4BA3FB9A
:1043700002135B099BB2DBB2184602F0BDF8164B84
:104380009B889BB2DBB2184602F0B6F8164802F0E2
:104390006DFC114BDB889AB2104BA3FB02135B0937
:1043A0009BB2DBB2184602F0A7F80B4BDB889BB23E
:1043B000DBB2184602F0A0F8142003F087FB044B90
:1043C0001B78DBB2022B91D102F088FE80BD00BFCA
:1043D000AD00002034A10008CC0000201F85EB5167
:1043E00070A600083CA1000874A6000880B582B041
:1043F00000AF0023FB7102F071FE4FF4FA7003F07E
:1044000065FB284B00221A7041E001F07DFF034656
:104410001A46244B1A700020002102F063FC02208F
:1044200003F054FB0023FB7109E0FB791E4AD35CC7
:10443000DBB21846FCF758FCFB790133FB71FB79C2
:10444000042BF2D9012003F041FB0120002102F0EE
:1044500049FC154B5B79DBB21846FCF745FC124B67
:104460009B79DBB21846FCF73FFC104802F0FEFBDC
:104470000F4B1B78DBB2184602F03EF80A480D4994
:104480000722092301F022FE142003F01FFB054B35
:104490001B78DBB2022BB8D102F020FE0837BD46F4
:1044A00080BD00BFAD0000206016002028A20008DB
:1044B000DA0000208800002080B582B000AF002321
:1044C000FB7102F00BFE4FF4FA7003F0FFFA284B79
:1044D00000221A7041E001F017FF03461A46244BF0
:1044E0001A700020002102F0FDFB022003F0EEFA1A
:1044F0000023FB7109E0FB791E4AD35CDBB218464E
:10450000FCF7F2FBFB790133FB71FB79042BF2D949
:10451000012003F0DBFA0120002102F0E3FB154B40
:104520005B79DBB21846FCF7DFFB124B9B79DBB201
:104530001846FCF7D9FB104802F098FB0F4B1B788C
:10454000DBB2184601F0D8FF0A480D4907220923BB
:1045500001F0BCFD142003F0B9FA054B1B78DBB267
:10456000022BB8D102F0BAFD0837BD4680BD00BFAE
:10457000AD0000208C16002028A200084A00002070
:104580008800002080B582B000AF0023FB710023BB
:10459000FB7110E0FB799BB203F20A639AB2F979DE
:1045A000084B33F811309BB21046194605F010FA4B
:1045B000FB790133FB71FB79072BEBD90837BD463B
:1045C00080BD00BF9C00002080B582B000AF0023FA
:1045D000FB710023FB710FE0FB799BB203F20A63CE
:1045E0009AB2FB795900074B0B441046194605F067
:1045F000A3F9FB790133FB71FB79072BECD9083761
:10460000BD4680BD9C00002080B49BB000AF00235D
:1046100087F86730002387F8663000233B66002365
:10462000FB650023BB6500237B65002387F86630AC
:1046300077E0002387F8673048E097F8671097F82D
:10464000673001335B0007F16802134433F8282C0C
:104650004B0007F168010B4423F8282C97F86710EA
:1046600097F8673001335B0007F16802134433F8B1
:104670003C2C4B0007F168010B4423F83C2C97F8C5
:10468000671097F8673001335B0007F16802134445
:1046900033F8502C4B0007F168010B4423F8502CE1
:1046A00097F8671097F8673001335B0007F16802ED
:1046B000134433F8642C4B0007F168010B4423F8D2
:1046C000642C97F86730013387F8673097F86730C4
:1046D000082BB2D9274BDB6B9BB2A7F85230254B86
:1046E0001B6C9BB2FB87234B5B6C9BB27B85214B86
:1046F0009B6C9BB2FB82B7F852303A6E13443B6618
:10470000FB8FFA6D1344FB657B8DBA6D1344BB655B
:10471000FB8A7A6D13447B6597F86630013387F81E
:10472000663097F86630082B83D93A6E124BA3FB9C
:104730000213DB089AB2114B1A80FA6D0E4BA3FBE1
:104740000213DB089AB20D4B5A80BA6D0A4BA3FBD9
:104750000213DB089AB2094B9A807A6D064BA3FBD1
:104760000213DB089AB2054BDA806C37BD465DF860
:10477000047B704700240140CDCCCCCCCC00002081
:1047800080B584B000AF0346FB7100237B73002328
:10479000FB8102F0A3FC0020002102F0A3FA1F48D5
:1047A00002F064FAFB790133FB71FB79184601F0E2
:1047B000A3FE1B4802F05AFAFB79013BFB71FB791F
:1047C0009BB203F2FF53FB81FA8907F10D031046F8
:1047D000194605F0B1F8322003F078F97B7B1846D2
:1047E00000F080FC03467B73322003F06FF9FB7905
:1047F0009BB203F2FF53FB817B7BFA89104619467B
:1048000005F0E6F8052003F061F902F0ADF90520A6
:1048100003F05CF91037BD4680BD00BF78A60008E4
:1048200080A6000880B500AF012003F04FF902F028
:1048300055FC064802F01AFA4FF4FA7003F046F9F4
:1048400002F04CFC012003F041F980BD48A60008AD
:1048500080B588B000AF78600023FB770023BB777A
:104860000023BB6100237B6100233B61FFF7CCFE8B
:1048700001F090FBB8610023FB7772E0FB7F9BB2F5
:104880001A46920013449BB203F2DA53FB81FB8970
:10489000184602F001F87861FB8902339BB2184692
:1048A00001F0FAFF38617B69584AA2FB0312120C2F
:1048B000574901FB02F29B1A7B613B69534AA2FBF9
:1048C0000312120C524901FB02F29B1A3B61BB69B5
:1048D0004E4AA2FB0312120C4D4901FB02F29B1A35
:1048E000BB61012003F0F2F8012003F0EFF8BA6990
:1048F0003B699A4206D2BA697B699A4202D901237E
:10490000BB7701E00023BB777A693B699A420CD9F7
:10491000BA697B699A4206D2BA693B699A4202D95E
:104920000023BB7701E00123BB77BB7F012B0AD1BA
:10493000FB7F012202FA03F31A46364B1B681A4327
:10494000344B1A600AE0FB7F012202FA03F3DB43D7
:104950001A46304B1B681A402E4B1A60FB7F0133FE
:10496000FB77FB7F032B89D9012003F0AFF80023ED
:10497000FB7747E0FB7F9BB21A46920013449BB241
:1049800003F5B863FB81FB89184601F085FF786168
:10499000FB8902339BB2184601F07EFF386101208B
:1049A00003F094F801F0F6FAB861BB693A69B3FB19
:1049B000F2F2396901FB02F29B1ABB61BA697B69A9
:1049C0009A420CD20123BB77FB7F012202FA03F348
:1049D0001A46114B1B681A430F4B1A600CE0002358
:1049E000BB77FB7F012202FA03F3DB431A460A4B33
:1049F0001B681A40084B1A60012003F067F8FB7F20
:104A00000133FB77FB7F022BB4D92FE707452EC27A
:104A100080510100B0000020B400002080B400AF3D
:104A2000BD465DF8047B704780B584B000AF786008
:104A30000023FB730023BB7300237B7300233B73B2
:104A4000874B1B78DBB2332B00F0008100233B73D4
:104A5000F8E000237B733B7B824AD35CBB73BB7B58
:104A60001F2B0ED8BB7B012202FA03F3DAB27E4B76
:104A70001B68DBB21340FB73FA7BBB7B42FA03F388
:104A8000FB73BB7B3F2B07D9BB7B422B04D8022394
:104A90007B73BB7B203BBB73BB7B422B07D9BB7BB0
:104AA000442B04D803237B73BB7B233BBB73BB7BAF
:104AB000452B04D9BB7B472B01D804237B73BB7BDD
:104AC000502B01D105237B73BB7B632B06D1FF23C6
:104AD0007B733B7B1846012100F0E2F9BB7B622B24
:104AE00006D1FE237B733B7B1846002100F0D8F9EA
:104AF000BB7B1F2B14D9BB7B3F2B11D8BB7B203B2F
:104B0000BB73BB7B012202FA03F3DAB2574B1B687B
:104B1000DBB21340FB73FA7BBB7B42FA03F3FB73FC
:104B20007B7B022B13D1FB7B002B40F08580504B0D
:104B30001B881A463B7B42FA03F303F00103002B68
:104B40007AD03B7B1846002100F0AAF974E07B7B09
:104B5000032B44D1FB7B012B15D1454B1B881A46F7
:104B60003B7B42FA03F303F00103002B0BD1BB7B29
:104B7000002B08D13F4B1B78012B04D13B7B1846FF
:104B8000012100F08DF9FB7B012B15D1384B1B88DF
:104B90001A463B7B42FA03F303F00103002B0BD1CF
:104BA000BB7B002B08D1334B1B78002B04D13B7B04
:104BB0001846012100F074F9FB7B002B3CD12C4BF3
:104BC0001B881A463B7B42FA03F303F00103002BD8
:104BD00032D03B7B1846002100F062F92CE07B7B51
:104BE000042B29D07B7B052B26D1234B1B78DBB2F2
:104BF00003F00103002B1FD0204B1B78DBB203F026
:104C00000103002B18D11E4B9B889AB21D4B1B88A9
:104C10009A4203D90020002100F042F9012002F05D
:104C200055FF174B9B889AB2174B1B889A4203D2A9
:104C30000020012100F034F9012002F047FF3B7B06
:104C400001333B733B7B032B7FF603AF012002F064
:104C50003DFF012002F03AFFFFF7E0FEF0E600BF63
:104C60001400002018000020B0000020B400002034
:104C7000C00000207400002017000020AF000020BA
:104C8000CC000020C6000020C800002080B582B003
:104C900000AF0023FB710023BB8000237B80002337
:104CA0003B80524B33221A7002F018FA40F2FF5345
:104CB0007B807B881846502104F08AFE3B884C4A52
:104CC0005021D1544B4801F0D1FF31E001200021A7
:104CD00002F008F8484801F0C9FFFB79012B03D125
:104CE0000020012100F0DCF8FB79022B03D1002029
:104CF000002100F0D5F8FB79032B04D13F4B9B88B2
:104D00009AB23F4B1A80192002F0E0FE3B4B9B8881
:104D10009BB21846FCF748FA3A4801F0A7FF384B17
:104D20001B881846FCF740FA01F0EEFA0346FB71C7
:104D3000FB79042BCAD1344B1B781846002100F0B4
:104D4000AFF8FFF76FFD0023FB7131E00120002178
:104D500001F0C8FF2D4801F089FFFB79012B03D139
:104D60000020012100F09CF8FB79022B03D10020E8
:104D7000002100F095F8FB79032B04D11F4B9B8891
:104D80009AB2234B1A800A2002F0A0FE1B4B9B888C
:104D90009BB21846FCF708FA1A4801F067FF1C4B53
:104DA0001B881846FCF700FA01F0AEFA0346FB71C7
:104DB000FB79042BCAD10020002100F071F80B4BC5
:104DC00030221A700E4B1B8840F24760194604F0DF
:104DD000FFFD0F4B1B884FF4C960194604F0F8FD26
:104DE000FFF720FD0837BD4680BD00BF140000203E
:104DF0001800002088A6000898A60008CC00002013
:104E0000C6000020A0A60008C4000020A4A6000838
:104E1000C800002080B582B000AF0023FB710023E2
:104E2000BB711D4B33221A702CE00020002101F0D1
:104E300059FF1A4801F01AFFFB79184601F05CFB94
:104E4000BB79012B07D1FB790133FB71FB79042B73
:104E500001D10023FB71BB79022B04D1FB791846E9
:104E6000012100F01DF8BB79032B04D1FB79184612
:104E7000002100F015F80A2002F028FE01F044FAA3
:104E80000346BB71BB79042BCFD1034B30221A7080
:104E90000837BD4680BD00BF14000020ACA6000846
:104EA00080B483B000AF02460B46FA71BB71FB7948
:104EB000002B03D1BB79C3F10103BB71BB79012B7B
:104EC00013D1174BFA79012101FA02F21A61FB7929
:104ED000012202FA03F39AB2124B1B889BB21343CE
:104EE0009BB29AB20F4B1A8014E00D4BFA79012154
:104EF00001FA02F25A61FB79012202FA03F39BB232
:104F0000DB439AB2074B1B889BB213409BB29AB209
:104F1000044B1A800C37BD465DF8047B704700BF18
:104F200000100140C000002080B584B000AF0346EF
:104F30003960FB803B68FB813B681B0CBB81FB88B5
:104F400001339AB2FB891046194604F041FDFA88F4
:104F5000BB891046194604F03BFD1037BD4680BDA5
:104F600080B586B000AF0346FB7100237B61002350
:104F7000FB7402F0B3F8FB79013B1B2B00F2A98014
:104F800001A252F823F000BFD3500008F94F0008E7
:104F90001D50000823500008295000084550000803
:104FA000D3500008D350000869500008D3500008BF
:104FB000D3500008D3500008D3500008D350000845
:104FC000D3500008D35000088D5000089F500008AF
:104FD000D3500008A5500008AF500008B550000895
:104FE000BB500008D3500008D3500008D35000082D
:104FF000C7500008CD500008374801F037FE0120A7
:105000000421012200F0BCFA0346FB74FB7C013B47
:10501000FB74FB7C184600F0FBFA5AE0FFF7FAFE3F
:1050200057E0FFF733FE54E000F0B4FF7861786991
:10503000012100F067FBF860F86800F0BDFF02F0A6
:105040004DF846E0254801F011FE0120042101221F
:1050500000F096FA0346FB74FB7C013BFB74FB7C7F
:10506000184600F015FA34E01D4801F0FFFD01205C
:105070000421012200F084FA0346FB74FB7C013B0F
:10508000FB74FB7C1846FFF77BFB22E0FEF778FE03
:10509000FFF720F9FFF7AAF9FFF70EFA19E0FEF77C
:1050A00071FF16E0FDF7EEFCFDF7ECFC11E0FDF7FB
:1050B00063FF0EE0FDF744FF0BE0002000216422B7
:1050C000FBF7A2FF05E0FEF749F802E0FDF70AFA58
:1050D00000BF1837BD4680BDB4A60008C8A60008AA
:1050E000DCA6000880B582B000AF0346FB71FB79F7
:1050F000632B01D96323FB71224B00221A7035E028
:1051000001F002F903461A461E4B1A70192002F0EC
:10511000DDFC1C4B1B78DBB2012B08D1FB79012B8A
:1051200002D8FF23FB7102E0FB79013BFB71154BB9
:105130001B78DBB2042B08D1FB79FF2B02D10123B2
:10514000FB7102E0FB790133FB710120002101F0CA
:10515000C9FD0D4801F08AFDFB791846FBF7C4FD37
:105160000A4801F083FD192002F0B0FC054B1B78C2
:10517000DBB2022BC4D1FFF755FBFB791846083789
:10518000BD4680BDAD00002024A7000828A7000868
:1051900080B582B000AF0346FB80FA884FF6FF73FC
:1051A0009A4201D10023FB80244B00221A7038E080
:1051B00001F0AAF803461A46204B1A70192002F093
:1051C00085FC1E4B1B78DBB2012B09D1FB88002B21
:1051D00003D14FF6FF73FB8002E0FB88013BFB80AD
:1051E000164B1B78DBB2042B0AD1FA884FF6FF73FB
:1051F0009A4202D10023FB8002E0FB880133FB804E
:105200000120042101F06EFD0D4801F02FFDFB8807
:105210001846FBF7C9FF0B4801F028FD192002F0E2
:1052200055FC064B1B78DBB2022BC1D1FFF7FAFA13
:10523000FB8818460837BD4680BD00BFAD00002082
:1052400024A7000828A7000880B586B000AF024652
:105250000B46FA807B71FA884FF6FF739A4201D1B0
:105260000023FB80C82002F031FC254B00221A707D
:105270003AE001F049F803461A46214B1A707B794F
:10528000184602F023FC1E4B1B78DBB2012B09D120
:10529000FB88002B03D14FF6FF73FB8002E0FB88F5
:1052A000013BFB80164B1B78DBB2042B0AD1FA883A
:1052B0004FF6FF739A4202D10023FB8002E0FB8885
:1052C0000133FB800120042101F00CFD0D4801F0A9
:1052D000CDFCFB881846FBF767FF0B4801F0C6FCC6
:1052E0007B79184602F0F2FB054B1B78DBB2022BF0
:1052F000BFD1FFF797FAFB8818461837BD4680BD27
:10530000AD00002024A7000828A7000880B586B0BB
:1053100000AF786079685A4BA3FB01235A09134602
:105320001B019B1A9B00CA1A13467B757A68544B63
:10533000A3FB02135B097B607968514BA3FB01233C
:105340005A0913461B019B1A9B00CA1A1346BB75C8
:105350007A684B4BA3FB02135B097B607968494B6E
:10536000A3FB01239A0913465B0013445A0113441B
:10537000CA1A1346FB7501F0B1FE142002F0A6FB19
:1053800073E000F0C1FF03463B753B7D012B08D164
:10539000FB7D622B02D90023FB7502E0FB7D01330C
:1053A000FB753B7D022B08D1BB7D3A2B02D9002334
:1053B000BB7502E0BB7D0133BB753B7D032B08D180
:1053C0007B7D3A2B02D900237B7502E07B7D013384
:1053D0007B75052002F07AFB0020042101F082FC9D
:1053E000FB7D184601F088F8274801F03FFCBB7DA3
:1053F000184601F081F8244801F038FC7B7D1846FE
:1054000001F07AF8052002F061FBFB7DFB74BB7DA7
:10541000BB747B7D7B74FB7C4FF4616202FB03F306
:105420007B60BA7C13461B019B1A9B007A6813446D
:105430007B607B7C7A6813447B60052002F046FB2E
:105440000120032101F04EFC07F10803786819469A
:1054500001F03CF907F1080318460C490A2202231F
:1054600000F034FE0A2002F031FB3B7D042B88D192
:10547000FFF7D8F97B6818461837BD4680BD00BFD6
:105480008988888803B57EA52CA70008880000209D
:1054900080B584B000AF0346FB710A2002F016FB12
:1054A00001F01CFEFB799BB21A46920013449BB29A
:1054B00003F5B8637B817B89184601F0EDF9F8604C
:1054C000FA682C4B9A4201D92A4BFB60002002213A
:1054D00001F008FC284801F0C9FB40F6B83002F0A2
:1054E000F5FAF868FFF712FFF860FB799BB21A46ED
:1054F000920013449BB203F5B8637B817B89184605
:10550000F968FFF711FD322002F0E0FAFFF78AF99F
:10551000FB799BB21A46920013449BB203F2C2532A
:105520007B817B89184601F0B7F9F86001F0D6FD60
:105530000020022101F0D6FB104801F097FB4FF448
:10554000FA7002F0C3FAF868FFF7E0FEF860FB7942
:105550009BB21A46920013449BB203F2C2537B8162
:105560007B891846F968FFF7DFFCFFF75BF9103716
:10557000BD4680BD3070050030A7000840A7000878
:1055800080B582B000AF13460246FA710A46BA717E
:105590007B711E4B00221A702BE0192002F096FA44
:1055A0000120002101F09EFB7B79184600F0A4FF4A
:1055B000164B1B78DBB2042B06D17A79BB799A4261
:1055C00002D27B7901337B71104B1B78DBB2012B4C
:1055D00006D17A79FB799A4202D97B79013B7B71BA
:1055E00000F092FE03461A46084B1A70192002F08A
:1055F0006DFA064B1B78DBB2022BCED1FFF712F906
:105600007B7918460837BD4680BD00BFAD0000203D
:1056100080B586B000AF0346FB71FB799BB21A469A
:10562000920013449BB203F2DA53FB8201F056FD61
:105630000020022101F056FB304801F017FB40F238
:10564000DC5002F043FA01F049FD322002F03EFA4C
:10565000FB8A184601F020F93861322002F036FA50
:105660003869012100F04EF8F860FB8A1846F968A5
:10567000FFF75AFC0020022101F034FB204801F022
:10568000F5FA322002F022FA02F082FAFB799BB29C
:105690001A46920013449BB203F2DC53FB82FB8A4E
:1056A000184601F0F9F8386102F080FA40F2DC5057
:1056B00002F00CFA01F012FD3869012100F022F825
:1056C000F860FB8A1846F968FFF72EFC02F060FAD2
:1056D000FB799BB21A46920013449BB203F2DE534D
:1056E000FB82FB8A184601F0D7F8386102F05EFAB7
:1056F000322002F0EBF91837BD4680BD50A70008F4
:105700005CA7000890B593B000AF78610B46FB74BE
:1057100001F0E4FC07F134031846796900F074F9EC
:1057200085E000F0F1FD03461A46A34B1A70A24B28
:105730001B78DBB2012B09D1BB8E162B02D90023BB
:10574000BB8603E0BB8E01339BB2BB869A4B1B78B2
:10575000DBB2022B09D1FB8E3A2B02D90023FB8648
:1057600003E0FB8E01339BB2FB86934B1B78DBB2CD
:10577000032B09D13B8F3A2B02D900233B8703E04F
:105780003B8F01339BB23B87052002F09FF900203D
:10579000002101F0A7FABB8EDBB2184600F0ACFE88
:1057A000864801F063FAFB8EDBB2184600F0A4FED7
:1057B000824801F05BFA3B8FDBB2184600F09CFE9A
:1057C00007F134030FCB00F09DFA786407F124034E
:1057D0001846796C00F018F907F11803786C19462F
:1057E00000F074FF00200A2101F07CFABB8CDBB2D0
:1057F000184600F081FEFB8CDBB2184600F07CFE00
:105800003B8DDBB2184600F077FE0120022101F04B
:1058100069FA052002F05AF907F118031846684999
:105820000A22022300F052FC142002F04FF9624BCE
:105830001B78DBB2042B7FF474AF5F4B00221A702D
:10584000FEF7F0FFFB7C012B40F098808FE000F02A
:105850005BFD03461A46584B1A70574B1B78DBB258
:10586000032B09D1FB8F322B02D90C23FB8703E0DA
:10587000FB8F01339BB2FB874F4B1B78DBB2022BB4
:1058800009D1BB8F0B2B02D90123BB8703E0BB8F50
:1058900001339BB2BB87484B1B78DBB2012B09D18C
:1058A0007B8F1E2B02D901237B8703E07B8F013383
:1058B0009BB27B87052002F009F907F134030FCB77
:1058C00000F020FA78643B461846796C00F09CF8AA
:1058D00007F124033C4620686168A26807C3A289D7
:1058E0001A8007F11803786C194600F0EFFE0520C6
:1058F00002F0ECF80020002101F0F4F97B8FDBB21C
:10590000184600F0F9FD2F4801F0B0F9BB8FDBB26B
:10591000184600F0F1FD2B4801F0A8F9FB8FDBB22F
:10592000184600F0E9FD052002F0D0F800200A2119
:1059300001F0D8F97B8DDBB2184600F0DDFDBB8DA0
:10594000DBB2184600F0D8FDFB8DDBB2184600F044
:10595000D3FD052002F0BAF807F1180318461849DC
:105960000A22022300F0B2FB322002F0AFF8124B01
:105970001B78DBB2042B7FF46AAF16E000237B6454
:10598000BB8E4FF4616202FB03F37A6C13447B64B9
:10599000FB8E1A4613461B019B1A9B007A6C13441C
:1059A0007B643B8F7A6C13447B64FEF73BFF7B6C1C
:1059B00018464C37BD4690BDAD0000202CA700080E
:1059C000880000206CA7000880B584B000AF786024
:1059D0000B46FB700023BB730023FB730023FB7398
:1059E0000BE0FB7B7A6813441B78BB73BB7B1846C8
:1059F00001F022FAFB7B0133FB73FA7BFB789A42BE
:105A0000EFD31037BD4680BD90B48AB000AF786048
:105A100039603A68AD4B13443B623968AC4BA3FB29
:105A200001035A0913461B019B1A9B00CA1A93B221
:105A30003B823A68A64BA3FB02135B093B603968C3
:105A4000A34BA3FB01235A0913461B019B1A9B007E
:105A5000CA1A93B2FB813A689D4BA3FB02035B0910
:105A60003B6039689B4BA3FB01231A0913465B007B
:105A70001344DB00CA1A93B2BB813A6A964BA3FB6C
:105A800002031B0C3B623A6A944BA3FB0213DB0933
:105A900040F2B55101FB03F3D31AFB833A6A8F4BF3
:105AA000A3FB0203DB097B77FB8B0133FB83FB8BBF
:105AB0003A2B08D87B7F03339BB29B009BB2FB82BF
:105AC000FB8B0133BB84FB8B3A2B18D9FB8BB3F5D3
:105AD000B77F14D87B7F9BB29B009AB2FB8B013BB4
