:020000040800F2
:10000000CC1F002031070008910700089107000865
:100010009107000891070008910700080000000000
:100020000000000000000000000000001DAB000800
:100030009107000800000000F1AB00082DAC00089B
:100040009107000891070008910700089107000830
:100050009107000891070008013100081D310008D0
:10006000393100089107000891070008910700083E
:100070009107000891070008612D0008752D000800
:100080009107000891070008910700080000000090
:1000900000000000000000000000000065310008C2
:1000A00029440008614500089545000891070008AB
:1000B00091070008D5420008910700089107000841
:1000C00091070008910700089107000891070008B0
:1000D00091070008FD1D000891070008910700081E
:1000E0004531000891070008910700080000000052
:1000F0000000000000000000000000000000000000
:1001000000000000000000000000000000000000EF
:10011000000000000000000091070008910700089F
:100120005FF808F180B485B000AF786039600023D3
:10013000FB817B681B88FB817A682E4B9A4213D027
:100140007A682D4B9A420FD07B68B3F1804F0BD069
:100150007A682A4B9A4207D07A68294B9A4203D090
:100160007A68284B9A4208D1FB8923F07003FB81FF
:100170003B685A88FB891343FB817A68224B9A4279
:100180000CD07A68214B9A4208D0FB8923F4407343
:10019000FB813B68DA88FB891343FB817B68FA8922
:1001A0001A803B689A887B689A853B681A887B68C6
:1001B0001A857A680F4B9A420FD07A680E4B9A4292
:1001C0000BD07A68124B9A4207D07A68114B9A4248
:1001D00003D07A68104B9A4204D13B681B7A1A46C6
:1001E0007B681A867B6801229A821437BD465DF8C7
:1001F000047B7047002C01400034014000040040A3
:1002000000080040000C00400010004000140040B6
:1002100000400140004401400048014080B485B0E6
:1002200000AF7860396000237B810023FB810023CD
:10023000BB817B681B8C9BB223F001039AB27B6865
:100240001A847B681B8CFB817B689B88BB817B68E5
:100250001B8B7B817B8923F070037B817B8923F05F
:1002600003037B813B681A887B8913437B81FB896D
:1002700023F00203FB813B681A89FB891343FB814E
:100280003B685A88FB891343FB817A68244B9A4266
:100290000FD07A68234B9A420BD07A68224B9A424D
:1002A00007D07A68214B9A4203D07A68204B9A4251
:1002B00023D1FB8923F00803FB813B685A89FB8922
:1002C0001343FB81FB8923F00403FB813B689A887D
:1002D000FB891343FB81BB8923F48073BB81BB89FA
:1002E00023F40073BB813B689A89BB891343BB81AC
:1002F0003B68DA89BB891343BB817B68BA899A80E2
:100300007B687A891A833B68DA887B689A867B687F
:10031000FA891A841437BD465DF8047B704700BF24
:10032000002C0140003401400040014000440140E5
:100330000048014080B485B000AF78603960002388
:100340007B810023FB810023BB817B681B8C9BB2DC
:1003500023F010039AB27B681A847B681B8CFB81A4
:100360007B689B88BB817B681B8B7B817B8923F4AB
:10037000E0437B817B8923F440737B813B681B884E
:100380001B029AB27B8913437B81FB8923F02003F4
:10039000FB813B681B891B019AB2FB891343FB81DC
:1003A0003B685B881B019AB2FB891343FB817A6827
:1003B000224B9A4203D07A68214B9A422BD1FB8977
:1003C00023F08003FB813B685B891B019AB2FB89A8
:1003D0001343FB81FB8923F04003FB813B689B882F
:1003E0001B019AB2FB891343FB81BB8923F4806311
:1003F000BB81BB8923F40063BB813B689B899B0065
:100400009AB2BB891343BB813B68DB899B009AB2DC
:10041000BB891343BB817B68BA899A807B687A89E0
:100420001A833B68DA887B681A877B68FA891A84A2
:100430001437BD465DF8047B704700BF002C0140B7
:100440000034014080B485B000AF7860396000238B
:100450007B810023FB810023BB817B681B8C9BB2CB
:1004600023F480739AB27B681A847B681B8CFB81AF
:100470007B689B88BB817B689B8B7B817B8923F01E
:1004800070037B817B8923F003037B813B681A889F
:100490007B8913437B81FB8923F40073FB813B68D9
:1004A0001B891B029AB2FB891343FB813B685B8863
:1004B0001B029AB2FB891343FB817A68224B9A4252
:1004C00003D07A68214B9A422BD1FB8923F4006335
:1004D000FB813B685B891B029AB2FB891343FB815A
:1004E000FB8923F48063FB813B689B881B029AB2E3
:1004F000FB891343FB81BB8923F48053BB81BB89F8
:1005000023F40053BB813B689B891B019AB2BB89D2
:100510001343BB813B68DB891B019AB2BB89134340
:10052000BB817B68BA899A807B687A899A833B68A9
:10053000DA887B689A877B68FA891A841437BD4603
:100540005DF8047B704700BF002C0140003401407F
:1005500080B485B000AF786039600023BB81002390
:100560007B810023FB817B681B8C9BB223F480532F
:100570009AB27B681A847B681B8C7B817B689B8822
:10058000FB817B689B8BBB81BB8923F4E043BB81F0
:10059000BB8923F44073BB813B681B881B029AB262
:1005A000BB891343BB817B8923F400537B813B6868
:1005B0001B891B039AB27B8913437B813B685B8851
:1005C0001B039AB27B8913437B817A68124B9A4250
:1005D00003D07A68114B9A420AD1FB8923F48043F5
:1005E000FB813B689B899B019AB2FB891343FB818A
:1005F0007B68FA899A807B68BA899A833B68DA8833
:100600007B68A3F840207B687A891A841437BD463A
:100610005DF8047B704700BF002C014000340140AE
:1006200080B483B000AF78607B684FF6FF729A8029
:100630007B6800221A807B680022DA807B680022B7
:100640005A807B6800221A720C37BD465DF8047B25
:10065000704700BF80B483B000AF78607B68002231
:100660001A807B6800225A807B6800229A807B680F
:100670000022DA807B6800221A817B6800225A817E
:100680007B6800229A817B680022DA810C37BD46A4
:100690005DF8047B704700BF80B483B000AF786022
:1006A0000B46FB70FB78002B08D07B681B889BB245
:1006B00043F001039AB27B681A8007E07B681B88CD
:1006C0009BB223F001039AB27B681A800C37BD46B7
:1006D0005DF8047B704700BF80B483B000AF7860E2
:1006E0007B689B8E9BB218460C37BD465DF8047B39
:1006F000704700BF80B483B000AF78607B681B8F09
:100700009BB218460C37BD465DF8047B704700BFAE
:1007100080B483B000AF78600B467B807B88DB437E
:100720009AB27B681A820C37BD465DF8047B70472D
:1007300080B582B000AF114B7B60114B3B6007E08E
:100740003B681A1D3A607A68111D796012681A6058
:100750003A680C4B9A42F3D30B480C494FF0000215
:100760008842B8BF40F8042BFFF6FAAF00F014F847
:1007700007F0ECF90837BD4680BD00BF8CE40008E7
:10078000000000204800002048000020D01B00206E
:1007900080B400AFFEE700BF80B500AF164B164A2D
:1007A000126842F001021A60134A134B5968134B46
:1007B0000B405360104A104B1B6823F0847323F4E2
:1007C000803313600C4B0C4A126822F480221A60AA
:1007D000094B094A526822F4FE025A60064B4FF454
:1007E0001F029A60044B0022DA6200F00BF8044BFF
:1007F0004FF000629A6080BD001002400000FFF8D8
:1008000000ED00E080B500AF00F002F880BD00BF51
:1008100080B483B000AF00237B6000233B60304B8B
:100820002F4A126842F480321A602D4B1B6803F481
:1008300000333B607B6801337B603B68002B03D156
:100840007B68B3F5A06FF0D1254B1B6803F0020362
:10085000002B02D001233B6001E000233B603B689A
:10086000012B37D11E4B1E4A52685A601C4B1C4A42
:1008700052685A601A4B1A4A52685A60184B184A02
:10088000526822F47C125A60154B154A526842F4A1
:1008900098125A60124B124A126842F080721A6023
:1008A00000BF0F4B1B6803F00073002BF9D00C4BFB
:1008B0000B4A526822F003025A60094B084A5268F8
:1008C00042F002025A6000BF054B5B6803F00C0364
:1008D000082BF9D10C37BD465DF8047B704700BF8B
:1008E0000010024080B485B000AF0346FB710D4B91
:1008F0001B889BB2FB60FB79002B04D1FB6843F0A3
:100900003803FB6005E0FB6823F0380343F008037D
:10091000FB60044BFA6892B21A801437BD465DF84A
:10092000047B70470038004080B483B000AF0346BA
:10093000FB710C37BD465DF8047B704780B400AF97
:1009400001231846BD465DF8047B704780B582B030
:1009500000AF0346FB71FB799BB20A4819460CF0C5
:10096000CDF900BF074801210CF0E4F90346002B44
:10097000F8D004480CF0D0F90346DBB2184608372B
:10098000BD4680BD0038004080B500AFFF20FFF7B6
:10099000DDFF0346184680BD80B582B000AF0A4B2C
:1009A00032221A60FFF7F0FFFFF7EEFF0346FB71FC
:1009B000FB79FF2B03D0044B1B68002BF4D1FB7990
:1009C00018460837BD4680BD4C00002080B500AFFA
:1009D00003484FF4805100F03BFEFFF7D5FF80BD88
:1009E000000C014080B400AF454B454A926942F08B
:1009F00001029A61424B424AD26942F48042DA6172
:100A00003F4B3F4A926942F008029A613D4B3D4A92
:100A1000526842F040525A603A4B3A4A526822F0C9
:100A200040425A60374B4FF400421A61354B354A09
:100A3000526842F040725A60324B324A526822F099
:100A400040625A602F4B2F4A526842F000625A604F
:100A50002C4B4FF480421A612A4B2A4A526822F4E6
:100A600040125A60274B274A526822F440025A60CB
:100A7000244B244A526842F400025A60214B214A16
:100A8000526842F440325A601E4B1E4A526822F4A9
:100A900040225A601B4B1B4A526842F400225A60A3
:100AA000174B174AD26942F48042DA61164B002292
:100AB0009A80154B04221A80134B134A128892B263
:100AC00042F0380292B21A800F4B0F4A128892B24B
:100AD00042F4807292B21A800B4B0B4A128892B287
:100AE00042F4007292B21A80074B074A128892B2FF
:100AF00042F0400292B21A80BD465DF8047B704716
:100B000000100240000C01400038004080B582B067
:100B100000AF1A4B1B78DBB203F00103002B08D1A6
:100B200017484FF4805100F0A1FDFFF735FFFFF7A4
:100B30004DFF14480CF088F8124800210CF0BEF864
:100B40004FF48040002108F0ADFA4FF46043BB80C1
:100B50002823FB713B1D0A48194600F0A9FC002020
:100B6000FFF7E2FE054B1B78DBB243F00103DAB27C
:100B7000024B1A700837BD4680BD00BF140000202C
:100B8000000C01400038004090B585B000AF78609F
:100B90003960214B0A221A60FFF7F6FE0346FB7309
:100BA000FB7BFF2B03D11C4B1B68002BF4D1FB7B81
:100BB000FE2B01D000232AE07C68631C7B60FF20B1
:100BC000FFF7C4FE034623707C68631C7B60FF2034
:100BD000FFF7BCFE034623707C68631C7B60FF202C
:100BE000FFF7B4FE034623707C68631C7B60FF2024
:100BF000FFF7ACFE034623703B68043B3B603B6859
:100C0000002BD9D1FFF7C0FEFFF7BEFE0123184627
:100C10001437BD4690BD00BF4800002080B584B0A9
:100C200000AF78600B46FB70FFF7B6FE0346FF2B64
:100C300001D000232EE0FB781846FFF787FEFB78F3
:100C4000FD2B26D00023FB737B685A1C7A601B782F
:100C50001846FFF77BFE7B685A1C7A601B781846A3
:100C6000FFF774FEFB7B013BFB73FB7B002BEBD19F
:100C7000FF20FFF76BFEFF20FFF768FEFFF784FE03
:100C80000346BB73BB7B03F01F03052B01D000237E
:100C900000E0012318461037BD4680BD80B584B002
:100CA00000AF03463960FB71FB795BB2002B0EDAB3
:100CB000FB7903F07F03FB7177200021FFF7EEFF44
:100CC0000346BB73BB7B012B01D9BB7B51E02B4897
:100CD0004FF4805100F0BCFC28484FF4805100F0E4
:100CE000C5FCFFF759FE0346FF2B01D0FF2340E070
:100CF000FB791846FFF72AFE3B681B0EDBB218464D
:100D0000FFF724FE3B681B0CDBB21846FFF71EFE04
:100D10003B681B0ADBB21846FFF718FE3B68DBB2E4
:100D20001846FFF713FE0123FB73FB79402B01D11B
:100D30009523FB73FB79482B01D18723FB73FB7B46
:100D40001846FFF703FEFB794C2B01D1FFF71CFE81
:100D50000A23FB73FFF718FE0346BB73BB7B5BB232
:100D6000002B05DAFB7B013BFB73FB7B002BF1D1F6
:100D7000BB7B18461037BD4680BD00BF000C01404C
:100D800090B585B000AF0346FB71FB79002B01D015
:100D90000123C1E0624B1B78DBB203F00203002B9E
:100DA00003D05F4B1B78DBB2B6E0FFF71BFE0020E1
:100DB000FFF798FD0A23FB7304E0FFF7E5FDFB7BDB
:100DC000013BFB73FB7B002BF7D100237B7340209F
:100DD0000021FFF763FF0346012B40F08480514B55
:100DE00064221A6048204FF4D571FFF757FF03467D
:100DF000012B4DD10023FB730CE0FC7BFFF7C4FDFE
:100E000003461A4607F11003234403F8082CFB7B22
:100E10000133FB73FB7B032BEFD9BB7A012B62D130
:100E2000FB7AAA2B5FD100BF3E4B1B68002B07D07B
:100E3000E9204FF08041FFF731FF0346002BF3D14B
:100E4000384B1B68002B4ED07A200021FFF726FF7D
:100E50000346002B47D10023FB730CE0FC7BFFF71C
:100E600093FD03461A4607F11003234403F8082CA8
:100E7000FB7B0133FB73FB7B032BEFD93B7A03F046
:100E80004003002B01D00C2300E004237B732AE0F5
:100E9000E9200021FFF702FF0346012B04D80223BB
:100EA0007B73E923BB7303E001237B734123BB7393
:100EB00000BF1C4B1B68002B07D0BB7B18460021D2
:100EC000FFF7ECFE0346002BF3D1164B1B68002BFB
:100ED00007D050204FF40071FFF7E0FE0346002BCF
:100EE00001D000237B73104B7A7B1A70FFF76EFDE5
:100EF0007B7B002B0BD00A4B1B78DBB223F001036A
:100F0000DAB2074B1A700120FFF7ECFC01E0FFF7A3
:100F1000FDFD034B1B78DBB218461437BD4690BD70
:100F200014000020480000205000002080B483B04E
:100F300000AF0346FB71FB79002B01D0012302E0D7
:100F4000044B1B78DBB218460C37BD465DF8047BBA
:100F5000704700BF1400002080B584B000AFB960B6
:100F60007A600246FA73BB73FB7B002B02D1BB7B1A
:100F7000002B01D104234FE0294B1B78DBB203F097
:100F80000103002B01D0032346E0264B1B7803F01E
:100F90000803002B02D17B685B027B60BB7B012BCB
:100FA00011D151207968FFF779FE0346002B2BD130
:100FB000B8684FF40071FFF7E7FD0346002B23D01C
:100FC0000023BB7320E052207968FFF767FE0346D9
:100FD000002B19D1B8684FF40071FFF7D5FD034617
:100FE00083F00103DBB2002B00D009E0BB6803F5FE
:100FF0000073BB60BB7B013BBB73BB7B002BE9D1A8
:101000004C200021FFF74AFEFFF7E0FCBB7B002BE2
:101010000CBF00230123DBB218461037BD4680BD4C
:10102000140000205000002080B584B000AFB960EB
:101030007A600246FA73BB73FB7B002B02D1BB7B49
:10104000002B01D1042369E0364B1B78DBB203F09F
:101050000103002B01D0032360E0324B1B78DBB28D
:1010600003F00403002B01D0022357E02E4B1B7822
:1010700003F00803002B02D17B685B027B60BB7B23
:10108000012B10D158207968FFF708FE0346002B8A
:101090003CD1B868FE21FFF7C1FD0346002B35D0D7
:1010A0000023BB7332E0204B1B7803F00603002BB8
:1010B00004D0BB7BD7201946FFF7F0FD5920796893
:1010C000FFF7ECFD0346002B20D1B868FC21FFF7A9
:1010D000A5FD034683F00103DBB2002B00D009E03D
:1010E000BB6803F50073BB60BB7B013BBB73BB7B81
:1010F000002BEAD10020FD21FFF790FD034683F08D
:101100000103DBB2002B01D00123BB73FFF75EFCB0
:10111000BB7B002B0CBF00230123DBB2184610372A
:10112000BD4680BD140000205000002090B58BB05B
:1011300000AF0B463A600246FA71BB713B683B62F6
:10114000FB79002B01D00423ADE1012387F8273080
:10115000BB79052B28D13B6A1B78012B0ED0022BC3
:1011600012D0002B1BD1FFF7E9FB0346002B01D067
:10117000FFF7CCFC002387F8273014E0FFF732FCA0
:10118000002387F827300EE03B6A5C1CFFF7D6FB94
:101190000346DBB22370002387F8273003E00423E3
:1011A00087F827307DE17CE1B84B1B78DBB203F098
:1011B0000103002B01D0032375E1BB790E2B00F254
:1011C0006B8101A252F823F00512000823120008D7
:1011D000CF120008DF1200089914000899140008C3
:1011E000991400089914000899140008991400082B
:1011F000C7130008D7130008FD13000823140008C4
:1012000063140008A2484FF4805100F02FFAFFF752
:10121000C3FB0346FF2B03D1002387F827303EE1B1
:101220003DE149200021FFF739FD0346002B4DD158
:1012300007F10C0318461021FFF7A6FC0346002B0C
:1012400044D03B7B9B09DBB2012B0DD17B7D1A4641
:101250003B7D1B029BB213449BB20133FB83FB8B90
:101260009A023B681A602DE07B7C03F00F03DAB230
:10127000BB7DDB09DBB21344DAB27B7D03F00303F1
:10128000DBB25B00DBB21344DBB2023387F82630FB
:101290003B7D9B09DBB21A46FB7C9B009BB213444F
:1012A0009AB2BB7C03F003039BB29B029BB2134434
:1012B0009BB20133FB83FA8B97F82630093B9A40A7
:1012C0003B681A60002387F82730E8E0E7E03B68D6
:1012D0004FF400721A80002387F82730DFE06D4B4F
:1012E0001B7803F00403002B2BD0CD200021FFF747
:1012F000D5FC0346002B65D1FFF746FB07F10C0335
:1013000018461021FFF740FC0346002B5AD030232B
:1013100087F8263006E0FFF737FB97F82630013BC9
:1013200087F8263097F82630002BF4D1BB7D1B09B7
:10133000DBB210229A403B681A60002387F82730FE
:10134000ADE049200021FFF7A9FC0346002B39D16D
:1013500007F10C0318461021FFF716FC0346002B7B
:1013600030D04C4B1B7803F00203002B12D0BB7D16
:1013700003F03F035A00FB7DDB09DBB213445A1C28
:101380007B7E9B09DBB2013B02FA03F31A463B6802
:101390001A6013E0BB7D03F07C039B109BB201330A
:1013A000FA7D02F00302D100FA7D5209D2B20A445A
:1013B000013202FB03F31A463B681A60002387F8E8
:1013C00027306CE06BE0334B1A783B6A1A700023CD
:1013D00087F8273063E049200021FFF75FFC0346D0
:1013E000002B0AD1386A1021FFF7CEFB0346002BF1
:1013F00003D0002387F8273051E050E04A20002135
:10140000FFF74CFC0346002B0AD1386A1021FFF786
:10141000BBFB0346002B03D0002387F827303EE0B8
:101420003DE07A200021FFF739FC0346002B17D15D
:10143000042387F826300BE03C6A631C3B62FFF70D
:10144000A3FA0346237097F82630013B87F826302D
:1014500097F82630002BEFD1002387F827301EE0C5
:101460001DE0CD200021FFF719FC0346002B0CD115
:10147000FFF78AFA386A4021FFF786FB0346002B04
:1014800003D0002387F8273009E008E0140000208B
:10149000000C014050000020042387F82730FFF79C
:1014A00095FA97F8273018462C37BD4690BD00BFF7
:1014B00080B489B000AF786039600023FB610023FD
:1014C0003B610023BB610023FB6000237B610023A1
:1014D000BB603B68DB7803F00F03FB613B68DB78A4
:1014E00003F01003002B04D03B689B78FA69134388
:1014F000FB613B681B88DBB2002B44D07B681B6818
:101500007B610023BB6138E0BB69012202FA03F36F
:10151000FB603B681B881A46FB6813403B613A69D5
:10152000FB689A4226D1BB699B00FB60FB680F22D7
:1015300002FA03F3BB60BB68DB437A6913407B614B
:10154000FB68FA6902FA03F37A6913437B613B682B
:10155000DB78282B05D1BB6901229A407B685A6150
:1015600008E03B68DB78482B04D1BB6901229A4034
:101570007B681A61BB690133BB61BB69072BC3D9A7
:101580007B687A691A603B681B88FF2B46D97B68A9
:101590005B687B610023BB613AE0BB6908330122D1
:1015A00002FA03F3FB603B681B881A46FB68134092
:1015B0003B613A69FB689A4227D1BB699B00FB609B
:1015C000FB680F2202FA03F3BB60BB68DB437A6956
:1015D00013407B61FB68FA6902FA03F37A691343EB
:1015E0007B613B68DB78282B05D1BB69083301227E
:1015F0009A407B685A613B68DB78482B05D1BB6910
:10160000083301229A407B681A61BB690133BB61D0
:10161000BB69072BC1D97B687A695A602437BD46FC
:101620005DF8047B704700BF80B483B000AF786082
:101630007B684FF6FF721A807B6802229A707B6883
:101640000422DA700C37BD465DF8047B704700BF9A
:1016500080B483B000AF78600B467B807A887B686B
:101660001A610C37BD465DF8047B704780B483B0C7
:1016700000AF78600B467B807A887B685A610C37B4
:10168000BD465DF8047B704780B487B000AF7860DA
:101690000B46FB7000233B610023FB6000237B6152
:1016A0000023BB607B68002B03DA2E4BDB697B6178
:1016B00002E02C4B5B687B617B6803F470231B0C9E
:1016C000BB607B689BB23B617B6803F44013B3F55E
:1016D000401F0AD17B6923F070637B61214B214A53
:1016E000526822F070625A6021E07B6803F4801334
:1016F000002B0ED0BB68032202FA03F3FB60FB68E9
:10170000DB437A6913407B617B6943F070637B61E3
:101710000DE07B685B0D1B013A6902FA03F3DB43C2
:101720007A6913407B617B6943F070637B61FB786E
:10173000002B08D07B685B0D1B013A6902FA03F3AA
:101740007A6913437B617B68002B03DA054B7A6966
:10175000DA6102E0034B7A695A601C37BD465DF8D6
:10176000047B70470000014080B400AFBFF34F8F8F
:10177000BD465DF8047B704780B483B000AF03467C
:10178000FB71084B97F907205209F97901F01F0105
:10179000012000FA01F143F822100C37BD465DF834
:1017A000047B704700E100E080B500AF054A054BBF
:1017B000DB6803F4E061044B0B43D360FFF7D4FF15
:1017C000FEE700BF00ED00E00400FA0580B582B03E
:1017D00000AF3A4B1B7803F004039B10012B66D13A
:1017E000374B9A8840F68C239A4203D90020002177
:1017F00004F01CFC012007F08BFD05F0CDFC024637
:10180000304B1B68D31A7B602C4B1B7803F0010311
:10181000002B20D02A4B9A8840F289239A4214D870
:101820007B68282B0BD90020002104F0FFFB264BFE
:101830001B7843F00103DAB2234B1A7010E005F075
:10184000ABFC02461F4B1A600AE005F0A5FC0246FD
:101850001C4B1A6004E005F09FFC0246194B1A600D
:10186000012007F055FD194B1B880E2B06D8174B8E
:101870001B88002B02D0002001F010FC012007F093
:1018800047FD124B5B88082B06D8104B5B88002B5A
:1018900002D0042001F002FC012007F039FD0B4BBF
:1018A0005B882B2B03D90020002102F0C7FB01200D
:1018B00007F02EFD0837BD4680BD00BFB7000020F1
:1018C000AC1B0020C4000020B800002058000020FD
:1018D00080B582B000AF0346FB711A4B1B78002B1A
:1018E00010D1194B1B785A1CD1B2174A1170F979D3
:1018F000164AA2FB01025209D2B23032D1B2144AC6
:10190000D1540FE0104B1B785A1CD1B20E4A117003
:10191000F9790E4AA2FB01025209D2B23032D1B299
:101920000C4AD154FB79094AA2FB031252096421E3
:1019300001FB02F29B1ADBB2184605F099FE08374C
:10194000BD4680BDB5000020B40000201F85EB51CE
:1019500094000020A400002080B584B000AF0023D4
:10196000FB730023BB7300237B7300233B730023B3
:101970007B8100237B6000233B6007F019F86A48F5
:1019800006F0E4FD4FF4FA7007F0C2FC32E005F017
:1019900079FD0346FB730020002106F00DFE63482D
:1019A00006F0D4FD624B1B689BB2184600F0CCF9E0
:1019B000604806F0CBFD5E4B5B689BB2184600F0BA
:1019C000C3F90120002106F0F7FD0A2007F0A0FC72
:1019D000594806F0BBFD564B9B689BB2184600F079
:1019E000B3F9564806F0B2FD514BDB689BB218467E
:1019F00000F0AAF9FB7B002BC9D006F0D9FFFB7BD6
:101A0000013B7B730023FB734D4806F09FFDBB7BBE
:101A1000184604F09BFC0346BB73BB7B184601F0E1
:101A20003DFB06F0C5FF474806F090FD3B7B18469E
:101A300004F08CFC03463B737A7B3D4B53F8223019
:101A40007B6006F0B5FF404806F080FDBB7B184682
:101A500001F0F4FA0023FB7317E00A2007F058FCAA
:101A600005F010FD0346FB7306F0A2FF374806F0B1
:101A70006DFD0120002106F09FFD7A7B2C4B53F871
:101A800022309BB2184600F05FF9FB7B022BE4D1B9
:101A90007A7B274B53F822303B60BB7B184601F022
:101AA000FDFAC82007F034FC3B689AB27B689BB211
:101AB000D31A9BB21A463B7B92FBF3F37B817A7B72
:101AC000234B798923F8121006F072FF214806F0A3
:101AD0003DFD3B689BB2184600F036F9012000211D
:101AE00006F06AFD1C4806F031FD7B89184600F0BF
:101AF0002BF97B8940F2426019460BF0A1FB0023D1
:101B0000FB7306E00A2007F003FC05F0BBFC03466C
:101B1000FB73FB7B022BF5D106F04AFFC82007F0D0
:101B2000F7FB1037BD4680BD08D9000814D900085E
:101B3000B818002018D900081CD9000820D90008BE
:101B400024D9000834D9000844D9000854D9000821
:101B5000181B002064D900086CD9000880B584B037
:101B600000AF13460246FA710A46BA71BB800023E1
:101B7000FB60BB880F4A128802FB03F20E4BA3FBEB
:101B80000213DB08FB60002001F058FABA790B4B16
:101B9000002143F8221002E00A2007F0B9FB074BAE
:101BA0001A68FB689A42F7D3002001F077FA1037E1
:101BB000BD4680BD181B0020CDCCCCCCB818002071
:101BC00080B584B000AF13460246FA710A46BA7176
:101BD000BB800023BB600023FB8100237B7306F0E6
:101BE000E7FE4F4806F0B2FC06E00A2007F090FB43
:101BF00005F048FC03467B737B7B002BF5D07B7B99
:101C0000022B01D1FFF7A8FE01233B7380E006F011
:101C1000CFFE444806F09AFC434B1B88184600F060
:101C200093F8FB891846052104F02AFC0346FB8142
:101C3000FB893D4A128802FB03F23C4BA3FB0213D3
:101C4000DB08BB6006F0B4FE394806F07FFCBB68D9
:101C50009BB2184600F078F80120002106F0ACFC99
:101C6000344806F073FCBA79334B53F82220324BD8
:101C700053F822309BB2184600F066F800237B73BD
:101C8000002001F0DBF9BA792B4B002143F8221038
:101C90001BE00A2007F03CFB06F08AFE274806F00E
:101CA00055FCBA79244B53F822309BB2184600F009
:101CB0004BF80120002106F07FFC214806F046FC8D
:101CC000BB689BB2184600F03FF81B4B1A68BB6814
:101CD0009A42DED3002001F0E1F906F069FE1948CE
:101CE00006F034FC06E00A2007F012FB05F0CAFB00
:101CF00003467B737B7B002BF5D07B7B022B05D1CE
:101D000001233B730C4B00221A6001E000233B735C
:101D10003B7B012B3FF47BAF1037BD4680BD00BF3E
:101D200074D9000884D90008181B0020CDCCCCCC75
:101D300090D9000898D90008B81800209CD900084C
:101D4000A4D90008A8D9000880B582B000AF034626
:101D5000FB80FA88164BA3FB02135B0B9BB2DBB232
:101D6000184605F085FCFB88114AA2FB0312520BB2
:101D700042F2107101FB02F29B1A9AB20D4BA3FBC7
:101D800002135B099BB2DBB2184605F071FCFB88BD
:101D9000084AA2FB03125209642101FB02F29B1ABA
:101DA0009BB2DBB2184605F063FC0837BD4680BD28
:101DB0005917B7D11F85EB5180B485B000AF39609A
:101DC00013460246FA71BB710023FB730023FB73B9
:101DD00009E0FB7B3A6813441A78FB795340FB71A6
:101DE000FB7B0133FB73FA7BBB799A42F1D3FB791E
:101DF00018461437BD465DF8047B704780B500AFC8
:101E00005C4840F2255108F005F90346002B18D034
:101E1000584808F0DFF80346DAB2574B1A70574BB0
:101E20001B785A1CD1B2554A1170534A1178544A42
:101E3000D154504B4F4A128892B222F0200292B2F3
:101E40001A804C4B4B4A128892B222F0400292B256
:101E50001A804C4B1B78012B17D14B4B1A784B4BEC
:101E60001B789A4211D2434A474B1B78591CC8B27F
:101E7000454908704649CB5C93803E4B3D4A1288E9
:101E800092B222F0400292B21A80424B1B78002B91
:101E90006ED1414B1B78042B37D1404B1B78002B64
:101EA00003D1354B1A783E4B1A703C4B1B785A1CA9
:101EB000D1B23A4A1170304A1178314AD154374B75
:101EC0001B781A46364B1B7801339A421DD1344B8E
:101ED0001B7830202A491A46FFF76EFF03461A4640
:101EE000304B1A702F4B1B78002B03D1294B01224A
:101EF0001A7001E000F082F8274B00221A70274B7D
:101F000000221A70284B00221A701B4B1B785A2B88
:101F100003D1254B01221A702AE0174B1B78582B4E
:101F200007D1214B1B78012B03D11F4B02221A70C2
:101F30001EE01D4B1B78022B1AD10F4B1B78302B48
:101F400013D00D4B1B78312B03D1134B03221A7086
:101F50000BE0094B1B78322B07D10F4B04221A7070
:101F600000F04CF80D4B00221A700F4B00221A7033
:101F700080BD00BF00380140151B00206400002018
:101F8000401B002062000020630000201900002098
:101F90006C1B0020F9000020F8000020F600002053
:101FA000F7000020FA000020F500002080B582B084
:101FB00000AF78600E4B1B78012B14D100F0A0F815
:101FC0000C4B5B78312B0BD80A4B1B78094AD35C3E
:101FD000184600F04DF800F011F8074B00221A7077
:101FE000034B00221A700A2007F092F9E2E700BFC3
:101FF000F9000020401B0020F600002080B483B0D0
:1020000000AF0023FB710023FB7106E0FB79074A58
:102010000021D154FB790133FB71FB79292BF5D9D0
:102020000C37BD465DF8047B704700BF401B0020A5
:1020300080B582B000AF0023FB710B4B00221A70F9
:102040000023FB7109E0FB79084A0021D1540120EB
:1020500007F05EF9FB790133FB71FB79292BF2D98B
:102060000837BD4680BD00BF190000206C1B002052
:1020700080B582B000AF0346FB711D4B5A221A7027
:102080001B4B58225A701A4B37229A70184B052254
:10209000DA70174BFA791A71154BDB780020144966
:1020A0001A46FFF789FE03461A46114B5A71012062
:1020B00007F02EF90E4BDB780133DAB20D4B1A70B4
:1020C0000D4B00221A700D4B01221A7002E0032002
:1020D00007F01EF9084B1A78064B1B789A42F6D384
:1020E000FFF7A6FF054B00221A700837BD4680BDDA
:1020F0006C1B0020190000206300002062000020FB
:1021000080B582B000AF0023FB80B44B5B783B2BE3
:1021100000F28F8101A252F823F000BF0D220008C7
:102120003122000843220008532200085B220008E5
:102130006722000873220008332400087F22000869
:1021400093220008AB220008C522000811230008D2
:10215000352300083B2300084D2300086B230008AB
:102160003324000833240008892300088F23000843
:1021700033240008332400083324000833240008E3
:1021800033240008332400083324000833240008D3
:1021900033240008332400083324000833240008C3
:1021A00033240008332400083324000833240008B3
:1021B00033240008332400083324000833240008A3
:1021C0003324000833240008332400083324000893
:1021D0003324000833240008332400083324000883
:1021E0003324000833240008972300083324000810
:1021F000332400083324000833240008A3230008F4
:10220000C1230008F923000817240008734B9978AC
:10221000724BDA78714B1B791B0298B26F4B5B796A
:1022200003449BB2084611461A46FFF797FC00E1AB
:102230006A4B9A78694BDB781046194603F0F6FE34
:10224000F7E0674B33221A700020002103F0EEFE06
:10225000EFE0634B30221A70EBE0604B9B7818463E
:1022600000F0ECFEE5E05D4B9B78184600F016FFB1
:10227000DFE05A4B9B78184600F08EFAD9E0584BB5
:102280001B78332B04D1554B9A78564B1A70D0E0FB
:10229000CFE0524B9978514BDA78504B1B79084676
:1022A00011461A4600F0CAF8C3E04C4B9A784E4BE0
:1022B0001A7004F071FF02464C4B1A604C4B00221E
:1022C0001A70B6E0474B00221A70454B33221A7041
:1022D000444B00221A700020002103F0A7FE0120C9
:1022E000002103F0A3FE0220002103F09FFE032043
:1022F000002103F09BFE022000F0D0FE032000F03E
:10230000CDFE002000F0CAFE012000F0C7FE90E0E4
:10231000324B9B781A02314BDB7813441A022F4B55
:102320001B7913441A022D4B5B791344184604F0B1
:1023300045FF7EE0FFF738FA7BE0284B9A78274B81
:10234000DB781046194601F0E5FE72E0234B9B78DE
:102350001A46224BDB781B029BB21344FB80FB889E
:102360001846012100F09EF863E01C4B9B781A464A
:102370001A4BDB781B029BB21344FB80FB88184688
:10238000102100F08FF854E005F0E0FC51E0194B0B
:1023900000221A704DE0114B9B78184600F052FA5B
:1023A00047E00E4B9B781A460C4BDB781B029BB226
:1023B00013409BB29BB21846022100F073F838E03C
:1023C000064B9B781A46054BDB781B029BB21344E5
:1023D0009BB21846012100F0CFF82AE0401B0020F4
:1023E00018000020B70000206A1B0020C400002055
:1023F000B8000020610000200F4B9B781A460E4B5E
:10240000DB781B029BB21344FB80FB881846022139
:1024100000F0B2F80DE0084B9B781A46064BDB78CB
:102420001B029BB21344FB80FB88184600F02EF978
:1024300000BF0837BD4680BD401B002080B584B07A
:1024400000AF13460246FA710A46BA717B71002347
:10245000BB600023FB6004F09FFEF860BA79FB6864
:102460001344BB60FA797B791046194601F0E6FD0A
:102470000BE004F091FEF860022006F049FF012015
:1024800000F0E0F9022006F043FFFA68BB689A42C8
:10249000EFD3FB791846002101F0D0FD1037BD467F
:1024A00080BD00BF80B584B000AF02460B46FA8005
:1024B0007B710023BB600023FB737B79012B11D15F
:1024C0002B4B1B791A462A4B5B791B029BB2134498
:1024D0009AB2284B1A80274B1B88FA881046194657
:1024E0000AF0AEFE7B79022B14D1214B1B791A46E0
:1024F0001F4B5B791B021A441D4B9B791B041A442A
:102500001B4BDB791B061344BB60FB881846B9687C
:1025100003F0D0FD7B79102B27D10023FB7321E042
:10252000144B00221A80FB7B02335B00104AD35C01
:102530001A46FB7B5B0203F5A0630D49CB5C134499
:102540009AB20C4B1A80FB885A1CFA80094A1288EE
:10255000184611460AF074FE012006F0D9FEFB7BF6
:102560000133FB73FB7B1F2BDAD91037BD4680BDCF
:10257000401B0020FC00002090B585B000AF024653
:102580000B46FA807B713C4B5A221A703A4B582208
:102590005A70394B31229A707B79012B1BD1FA8802
:1025A00007F10A03104619460AF0FEFD324B0922D4
:1025B000DA70324B9A78304B1A71304BDA782E4BF6
:1025C0005A717B89DAB22C4B9A717B891B0A9BB2B8
:1025D000DAB2294BDA717B79022B22D1FB881846BB
:1025E00005F06EFAF860244B0B22DA70234B9A78D0
:1025F000214B1A71214BDA781F4B5A71FB68DAB202
:102600001D4B9A71FB681B0ADAB21B4BDA71FB682F
:102610001B0CDAB2184B1A72FB681B0EDAB2164B9F
:102620005A72154BDB785C1E134BDB78013BDBB237
:10263000002011491A46FFF7BFFB03461A460E4B0E
:102640001A550D4BDA780E4B1A700E4B00221A7089
:102650000D4B01221A7002E0012006F059FE094BD1
:102660001A78074B1B789A42F6D3074B00221A7050
:102670001437BD4690BD00BF6C1B0020401B0020DE
:1026800019000020630000206200002090B585B092
:1026900000AF0346FB800023FB730623BB73394B5B
:1026A0005A221A70374B58225A70364B31229A7080
:1026B000344B2722DA70344B9A78324B1A71324BF2
:1026C000DA78304B5A710023FB732EE00023BB6095
:1026D000FB7B9BB25B009AB2FB8813449BB218460B
:1026E00005F0EEF9B860BB7B5A1CBA73BA68120EDB
:1026F000D1B2244AD154BB7B5A1CBA73BA68120CAB
:10270000D1B2204AD154BB7B5A1CBA73BA68120AA0
:10271000D1B21C4AD154BB7B5A1CBA73BA68D1B22D
:10272000184AD154FB7B0133FB73FB7B072BCDD9BC
:10273000BC7B144BDB78013BDBB2002011491A460D
:10274000FFF73AFB03461A460E4B1A550D4BDA7843
:102750000E4B1A700E4B00221A700E4B01221A708B
:1027600002E0012006F0D4FD094B1A78074B1B78D4
:102770009A42F6D3074B00221A70FFF759FC143720
:10278000BD4690BD6C1B0020401B0020190000209E
:10279000630000206200002080B584B000AF0346D3
:1027A000FB710023FB730023BB8100237B81234B40
:1027B0005A221A70214B58225A70204B31229A709B
:1027C0001E4B2A22DA701D4BFA791A710023FB7313
:1027D0002AE0FB799BB21A46D20013449AB2FB7BE3
:1027E0009BB213449BB203F538739BB25B00BB8171
:1027F000BA8907F10A03104619460AF0D5FCFB7B9B
:102800005B0005330D4A0021D154FB7B03335B0091
:102810007A89D2B25242D1B2084AD154012006F08C
:1028200077FDFB7B0133FB73FB7B112BD1D9044B71
:1028300001221A701037BD4680BD00BF6C1B0020FE
:102840006200002090B583B000AF0346FB71964B49
:102850005A221A70944B58225A70934B33229A7012
:10286000914B2822DA70914B1B78002B40F04F825D
:10287000FB79012B40F0C4808D4B1A788A4B1A717A
:102880008C4B1B68DAB2884B5A718B4B1B68DAB2DF
:10289000854B9A71894B1A78834BDA71884B1B8868
:1028A000DAB2814B1A72874B1A787F4B5A72864B79
:1028B0001A787D4B9A72844B5A787B4BDA72824B32
:1028C0009A78794B1A73804BDA78774B5A737F4B2F
:1028D0001B8B9BB2DAB2744B9A737C4B1B8B9BB2F3
:1028E0001B0A9BB2DAB2704BDA73784B9B8B9BB2AC
:1028F000DAB26D4B1A74754B9B8B9BB21B0A9BB261
:10290000DAB2694B5A74724B1B88DAB2664B9A740E
:102910006F4B1B881B0A9BB2DAB2634BDA746C4BA9
:102920005B88DAB2604B1A75694B5B881B0A9BB2F5
:10293000DAB25D4B5A75674B1B88DAB25A4B9A75FF
:10294000644B1B881B0A9BB2DAB2574BDA75614B9A
:102950005B88DAB2544B1A765E4B5B881B0A9BB2DB
:10296000DAB2514B5A765B4B9B88DAB24E4B9A7671
:10297000584B9B881B0A9BB2DAB24B4BDA76554B0D
:10298000DB88DAB2484B1A77524BDB881B0A9BB2C2
:10299000DAB2454B5A77504B1B68DAB2424B9A7702
:1029A0004D4B1B681B0ADAB23F4BDA774A4B1B6868
:1029B0001B0CDAB23C4B83F82020474B1B681B0EE4
:1029C000DAB2394B83F82120444B1A78364B83F81E
:1029D0002220434B1A78344B83F823203C4B5B88EE
:1029E000DAB2314B83F82420394B5B881B0A9BB247
:1029F000DAB22D4B83F825202B4BFA7983F8262069
:102A0000FB79022B3DD1374B1B88DAB2264B1A716A
:102A1000344B1B881B0A9BB2DAB2234B5A71324BE0
:102A20001B88DAB2204B9A712F4B1B881B0A9BB272
:102A3000DAB21D4BDA711C4B00221A72254B1B882F
:102A40001B0A9BB2DAB2184B5A72224B5B88DAB27D
:102A5000154B9A721F4B5B881B0A9BB2DAB2124B62
:102A6000DA721C4B9B88DAB20F4B1A73194B9B8896
:102A70001B0A9BB2DAB20C4B5A730B4BFA7983F8F0
:102A80002620FB79032B5ED1184B9B68DAB2064BEC
:102A90001A71164B9B681B0ADAB2034B5A71134B1F
:102AA0009B681B0CDAB223E06C1B00206200002044
:102AB00018000020BC000020C000002060000020A2
:102AC000C8000020C9180020700000200028004025
:102AD00058000020AC1B0020B8180020FC1A002071
:102AE000B7000020CE000020D000002000080140E8
:102AF000884B9A71884B9B681B0EDAB2854BDA7152
:102B0000864B9B68DAB2834B1A72844B9B681B0A14
:102B1000DAB2804B5A72814B9B681B0CDAB27D4B48
:102B20009A727E4B9B681B0EDAB27A4BDA727C4B40
:102B30009A78784B1A737A4BDA78764B5A73754BCE
:102B4000FA7983F82620FB79042B38D1754B1A7853
:102B5000704B1A71744B1A786E4B5A71734B1B7809
:102B60009B00DAB2724B1B781344DAB2694B9A714C
:102B7000704B1B88DAB2674BDA716F4B1B881B0AEC
:102B80009BB2DAB2634B1A72624B00225A726B4BE1
:102B90001A78604B9A726A4B1B88DAB25D4BDA7214
:102BA000674B1B881B0A9BB2DAB25A4B1A73654BF0
:102BB0001A78584B5A73574BFA7983F82620FB79C9
:102BC000052B3AD1604B1B88DAB2524B1A715E4B1F
:102BD0001B881B0A9BB2DAB24E4B5A715A4B5B8868
:102BE000DAB24C4B9A71584B5B881B0A9BB2DAB233
:102BF000484BDA71554B1B68DAB2464B1A72534B8D
:102C00001B681B0ADAB2434B5A72504B1B681B0CF1
:102C1000DAB2404B9A724D4B1B681B0EDAB23D4B39
:102C2000DA724B4B1A783B4B1A73464B1A78394B76
:102C30005A73384BFA7983F82620FB79062B3DD15D
:102C4000414B1B88DAB2334B1A713F4B1B881B0A6E
:102C50009BB2DAB22F4B5A713B4B5B88DAB22D4BE9
:102C60009A71394B5B881B0A9BB2DAB2294B5A71B5
:102C7000364B5B68DAB2274B1A72344B5B681B0A1F
:102C8000DAB2244B5A72314B5B681B0CDAB2214B1F
:102C90009A722E4B5B681B0EDAB21E4BDA72284B0F
:102CA0005B88DAB21B4B1A73254B5B881B0A9BB2FD
:102CB000DAB2184B5A73174BFA799A75154BDB78C1
:102CC0005C1E144BDB78013BDBB2002011491A4635
:102CD000FFF772F803461A460E4B1A550D4BDA7879
:102CE0001C4B1A701C4B00221A701C4B01221A70CC
:102CF00002E0022006F00CFB174B1A78154B1B78EC
:102D00009A42F6D3FFF794F9144B00221A700C374D
:102D1000BD4690BD6C1B002000080140000C014026
:102D200078000020EC000020ED000020EF000020E3
:102D3000EE000020BE1B00203A1B0020FC1A0020E1
:102D4000181B0020201B002058000020B81800206D
:102D50006A1B002019000020630000206200002090
:102D600080B400AF024B1B68BD465DF8047B704722
:102D70000000024080B400AF024B1B68BD465DF806
:102D8000047B70470000024080B586B000AF012090
:102D9000012106F04BF90520012106F065F92523F4
:102DA0003B7500237B750023BB750123FB7507F181
:102DB0001403184609F0E8FE4FF400733B82032326
:102DC000BB741823FB7407F1100324481946FEF75F
:102DD0006FFB4FF480633B820423FB7407F1100305
:102DE0001E481946FEF764FB1D4806F0BDFF4FF470
:102DF0008040012106F038F94FF416533B60002360
:102E0000BB800023FB8000233B810023BB810C237C
:102E10007B813B461248194607F002F810484FF4F0
:102E2000587107F0E7F80E4B0D4A928992B242F0C2
:102E3000200292B29A810A4B094A928992B242F0D8
:102E4000400292B29A810648012107F0A3F825209A
:102E5000FEF792FC1837BD4680BD00BF0008014058
:102E60000038014080B588B000AF1020012106F085
:102E7000FBF80220012106F015F907F11C031846A2
:102E8000FEF7D2FB4FF47073BB830323BB77182389
:102E9000FB7707F11C0320481946FEF709FB1F4882
:102EA0000121FEF7F1FB07F110031846FDF7B8FB0F
:102EB0004FF40073FB8240F2E733BB82EF233B8287
:102EC00007F1100316481946FDF72CF93B46184642
:102ED000FDF7C0FB01237B8060233B800023FB8048
:102EE0003B460F481946FDF799F93B460C481946F1
:102EF000FDF720FA3B460A481946FDF7A3FA3B4680
:102F000007481946FDF724FB05480121FDF7C4FBDE
:102F10002037BD4680BD00BF00100140000C1A00E4
:102F20000004004080B582B000AF05F041FD0023F1
:102F3000FB8000237B7100233B7105F039FD0A20E3
:102F400006F0E6F905F034FD1F4805F0FFFA1CE035
:102F500004F098FA03467B711C4B1B88FB8005200C
:102F600006F0D6F90120002105F026FBFA88184B5F
:102F7000A3FB02135B099BB2DBB2184604F078FB9B
:102F8000FB88DBB2184604F073FB7B79022BDFD1A0
:102F90000A2006F0BDF9FB8840F2226019460AF0CB
:102FA0004FF902F0D5FC4FF4FA6006F0B1F9094888
:102FB00005F0CCFA00237B7105F0FAFC04F0C6FEA4
:102FC0000837BD4680BD00BFB0D9000858000020BA
:102FD0001F85EB51C4D9000880B582B000AF012035
:102FE00006F096F90023FB71012006F091F9104BD1
:102FF0001B7803F002035B10012B16D10D4B1B88CD
:103000001A460D4B1B8802339A4202DD002000F065
:1030100015F8012006F07CF9064B1A88064B1B8830
:103020009A4202D2002000F039F80837BD4680BD30
:10303000B700002058000020D400002080B483B0E6
:1030400000AF0346FB71FB79002B06D1114B114AEF
:10305000526942F480725A6109E00E4B0D4A51697F
:10306000FA790A32012000FA02F20A435A61FB7926
:10307000012202FA03F3DAB2074B1B78DBB21343E7
:10308000DBB2DAB2044B1A700C37BD465DF8047B34
:10309000704700BF000801406000002080B483B08A
:1030A00000AF0346FB71FB79002B06D1124B124A8D
:1030B000126942F480721A6109E00F4B0E4A1169DD
:1030C000FA790A32012000FA02F20A431A61FB7906
:1030D000012202FA03F3DBB2DB43DAB2074B1B78BF
:1030E000DBB21340DBB2DAB2044B1A700C37BD46C8
:1030F0005DF8047B704700BF0008014060000020BD
:1031000080B500AF012006F027F8034B1B685A1C5E
:10311000014B1A6080BD00BFB818002080B500AF19
:10312000022006F019F8034B5B685A1C014B5A60E9
:1031300080BD00BFB818002080B500AF042006F0A5
:103140000BF880BD80B500AF4FF4806006F004F846
:103150004FF4006006F000F84FF4805005F0FCFFDB
:1031600080BD00BF80B500AF202005F0F5FF4020F6
:1031700005F0F2FF802005F0EFFF80BD80B582B042
:1031800000AF0023FB714FF4AF63BB8000237B8053
:1031900041E004F077F90346FB7100237B80BA8895
:1031A000BB1C1046194609F0FFFF05F001FC1D4845
:1031B00005F0CCF9BB881846FEF7C6FD01200021BA
:1031C00005F0FAF9184805F0C1F97B881846FEF7B2
:1031D000BBFD012006F09CF8FB79022B0AD1BB88CD
:1031E000B3F5FA6F03D2BB880133BB8002E04FF422
:1031F000AF63BB80FB79012B0AD1BB88B3F5AF6FFE
:1032000003D9BB88013BBB8002E04FF4FA63BB806B
:10321000062006F07DF8FB79042BBAD10837BD46AD
:1032200080BD00BFD0D90008D8D9000880B582B0D1
:1032300000AF0023FB710023BB7105F0B9FB74E004
:10324000142006F065F804F01DF90346FB71002018
:10325000002105F0B1F9394805F078F9BB79184635
:1032600004F006FAFB79042B03D1BB791846FFF76B
:10327000E5FEFB79032B03D1BB791846FFF70EFF60
:10328000FB79012B08D1BB79012B03D8BB79013322
:10329000BB7101E00023BB71012006F039F8012069
:1032A000002105F089F9264805F050F9254B1B78D7
:1032B000184604F0DDF9012006F02AF8224805F04E
:1032C00045F9224B9B6803F01003002B03D02048E4
:1032D00005F03CF902E01F4805F038F91B4B9B68EC
:1032E00003F02003002B03D0194805F02FF91CE050
:1032F000184805F02BF9154B9B6803F04003002B91
:1033000003D0134805F022F902E0124805F01EF937
:103310000E4B9B6803F48073002B03D00C4805F020
:1033200015F902E00B4805F011F9FB79022B87D162
:1033300005F03EFB0837BD4680BD00BFE0D9000860
:10334000ECD9000860000020F0D900080008014016
:10335000F8D90008FCD9000880B582B000AF00237E
:10336000FB710223BB7105F023FB66E0142005F01E
:10337000CFFF04F087F80346FB710020002105F021
:103380001BF9324805F0E2F8BB79184604F070F9F1
:10339000FB79042B09D12E4B2D4A1169BA790B32D6
:1033A000012000FA02F20A431A61FB79032B09D1CA
:1033B000274B274A5169BA790B32012000FA02F2F1
:1033C0000A435A61FB79012B08D1BB79032B03D83F
:1033D000BB790133BB7101E00223BB71012005F011
:1033E00097FF0120002105F0E7F81A4805F0AEF834
:1033F000194B1B78184604F03BF9012005F088FFB3
:10340000164805F0A3F8124BDB6803F40053002BB9
:1034100003D0134805F09AF802E0124805F096F838
:103420000B4BDB6803F48043002B03D00C4805F002
:103430008DF802E00B4805F089F8FB79022B95D155
:1034400005F0B6FA0837BD4680BD00BFE0D90008D8
:1034500000080140ECD9000860000020F0D9000805
:10346000F8D90008FCD9000880B582B000AF00236D
:10347000FB710023BB8005F09BFA7CE0142005F073
:1034800047FF03F0FFFF0346FB710020002105F01A
:1034900093F8404B1B88BB80BB88DBB2184604F016
:1034A000E7F83C4B5B88BB80BB88DBB2184604F076
:1034B000DFF8394805F04AF8384B9B8CBB80BB8855
:1034C0001846FEF741FCFB79042B02D10120FFF7DF
:1034D000B5FDFB79012B02D10120FFF7DFFD0120B3
:1034E00005F016FF0120002105F066F82C4B1B7833
:1034F000184604F0BDF82B4805F028F800237B801F
:10350000294B9B685B097B807B881846FEF71CFC77
:10351000264805F01BF8012005F0FAFE224B9B68B7
:103520005B0903F00103002B03D0214805F00EF8DE
:1035300002E0204805F00AF81B4B9B689B0903F04A
:103540000103002B03D01A4805F000F802E01948E7
:1035500004F0FCFF144B9B68DB0903F00103002B14
:1035600003D0134804F0F2FF02E0124804F0EEFF2B
:10357000114804F0EBFFFB79022B7FF47FAFFFF7DC
:10358000FDFD05F015FAFFF751FEFFF7E5FE0837E0
:10359000BD4680BD5800002000DA00080048014008
:1035A0006000002004DA00080008014008DA000882
:1035B000F8D90008FCD900080CDA000880B584B0FE
:1035C00000AF13460246FA800A467A713B71002327
:1035D000FB730023BB7300237B7300233B73FA88C8
:1035E0007B7942FA03F33B730020002104F0E4FFEF
:1035F0004A4804F0ABFF58E003F044FF0346BB73B6
:103600000120002104F0D8FF0023FB7305E04448AB
:1036100004F09CFFFB7B0133FB73FA7B39797B79E8
:10362000CB1A9A42F3DB012005F072FE0023FB73F4
:1036300009E00020002104F0BFFF3A4804F086FFB3
:10364000FB7B0133FB73FA7B39797B79CB1A9A4286
:10365000EFDB7B7B0020194604F0AEFF2F4804F01F
:1036600075FF052005F054FEBB7B042B08D17A7B47
:1036700039797B79CB1A9A4202DA7B7B01337B73EF
:10368000BB7B012B05D17B7B002B02D07B7B013BDD
:103690007B73BB7B032B08D17B7B012202FA03F3F4
:1036A000DAB23B7B5340DBB23B73BB7B022BA3D133
:1036B0000023FB7325E03A7BFB7B42FA03F303F024
:1036C0000103002B0DD0FA7B7B791344012BD4BF6F
:1036D00000230123DBB21A46FB8813439BB2FB8015
:1036E0000CE0FA7B7B791344012202FA03F39BB2CC
:1036F000DB439AB2FB8813409BB2FB80FB7B013318
:10370000FB73FA7B39797B79CB1A9A42D3DB02F0CF
:103710001FF9FB8818461037BD4680BD10DA000837
:10372000F8D9000808DA000880B586B000AF034673
:10373000FB710023BB8200237B8100233B8100239C
:103740003B6105F035F9684804F000FFC82005F03A
:10375000DFFDFB799BB21A4692001A4452001344D3
:103760009BB203F21463BB82BA8A07F10A031046C4
:10377000194609F019FD7B89DBB2184602F0E6FD17
:1037800003467B817B89BA8A1046194609F058FDA9
:1037900005F00EF90020052104F00EFF534804F057
:1037A000D5FEC82005F0B4FDFB799BB21A46920005
:1037B0001A44520013449BB203F21D63BB82BA8ABF
:1037C00007F108031046194609F0EEFC3B8918463C
:1037D00000210322FFF7F2FE03463B810023FB7525
:1037E0000023BB750DE003F04DFE0346FB75FB7D2A
:1037F000042B03D1BB7DC3F10103BB75192005F078
:1038000087FDFB7D002BEED0BB7D012B05D13B89D5
:1038100043F001039BB23B8104E03B8923F00103A9
:103820009BB23B813B89BA8A1046194609F008FDD4
:10383000052005F06DFD02F08BF80023FB60FB799D
:103840009BB21A4692001A44520013449BB203F2F0
:103850001763BB82BB8A184604F032F9F860F86837
:10386000012103F055F8F860FB689BB2BA8A104654
:10387000194609F0E5FCFB799BB21A4692001A44FE
:10388000520013449BB203F21963BB82BB8A1846F1
:1038900004F016F9F860F868012103F039F8F860CF
:1038A000FB689BB2BA8A1046194609F0C9FCFB793D
:1038B0009BB21A4692001A44520013449BB203F280
:1038C0001563BB82BB8A184604F0FAF8F860F86802
:1038D00002F02EFEF860BB8A1846F96802F0EAFB97
:1038E0001837BD4680BD00BF14DA00081CDA000896
:1038F00080B582B000AF0023FB7105F059F809488C
:1039000004F024FEC82005F003FDFB79184602F000
:103910001DFD0346FB71FB79184600F021F80837BE
:10392000BD4680BD28DA000880B582B000AF002314
:10393000FB7105F03DF8094804F008FEC82005F0C9
:10394000E7FCFB79184602F001FD0346FB71FB79A9
:103950001846FFF7E9FE0837BD4680BD28DA0008A3
:1039600080B584B000AF0346FB710023FB810023C8
:10397000BB81FB799BB21A46D200D31A9BB203F2E9
:103980004563FB81FA8907F10C031046194609F0DB
:103990000BFC05F00DF8604804F0D8FDBB89184613
:1039A00002F01EFD0346BB81BB89FA891046194609
:1039B00009F046FCFB799BB21A46D200D31A9BB29F
:1039C00003F24663FB81FA8907F10C03104619469E
:1039D00009F0EAFB04F0ECFF504804F0B7FDBB89A6
:1039E000184602F0FDFC0346BB81BB89FA891046EC
:1039F000194609F025FCFB799BB21A46D200D31A6E
:103A00009BB203F24763FB81FA8907F10C0310466E
:103A1000194609F0C9FB04F0CBFF414804F096FDBC
:103A2000BB89184602F0DCFC0346BB81BB89FA89DE
:103A30001046194609F004FCFB799BB21A46D200E5
:103A4000D31A9BB203F5C963FB81FA8907F10C0312
:103A50001046194609F0A8FB04F0AAFF314804F00B
:103A600075FDBB89184602F0BBFC0346BB81BB89D0
:103A7000FA891046194609F0E3FBFB799BB21A4616
:103A8000D200D31A9BB203F24963FB81FA8907F192
:103A90000C031046194609F087FB04F089FF224801
:103AA00004F054FDBB89184602F09AFC0346BB8122
:103AB000BB89FA891046194609F0C2FBFB799BB213
:103AC0001A46D200D31A9BB203F24A63FB81FA89E9
:103AD00007F10C031046194609F066FB04F068FF75
:103AE000124804F033FDBB89184602F079FC034606
:103AF000BB810A2005F00CFCBB89FA8910461946E7
:103B000009F09EFB04F054FF0A2005F001FC04F0CC
:103B10001DF91037BD4680BD34DA000848DA0008C8
:103B200058DA000868DA000874DA000884DA000855
:103B300090B585B000AF0023BB730023FB7304F086
:103B400037FF354804F002FDC82005F0E1FBBB7BE0
:103B5000184602F0FBFB0346BB7304F029FF2F4815
:103B600004F0F4FCBB7B184603F082FD2C4804F003
:103B7000EDFC06E01E2005F0CBFB03F083FC0346C2
:103B8000FB73FB7B022B02D0FB7B032BF2D1C82003
:103B900005F0BEFBFB7B022B35D1BA7B13469B00A5
:103BA00013445B00134403F21563BB60BB689BB214
:103BB000184603F085FF7860BA7B13469B001344D8
:103BC0005B00134403F21763BB6003F0E5FA38604F
:103BD000BB689BB21846396802F06CFABA7B134690
:103BE0009B0013445B00134403F21B63BB60BB6880
:103BF0009CB203F0D1FA02467B68D31A0533204603
:103C0000194602F057FA04F0D3FEC82005F080FBF5
:103C10001437BD4690BD00BF28DA000890DA0008CE
:103C20009CDA000880B58EB000AF0346FB71FB79CB
:103C3000012202FA03F3DAB2944B1B78DBB213438E
:103C4000DBB2DAB2914B1A700023FB6203F0A4FAE4
:103C5000F8620420FFF7F2F90023FB82002387F8C3
:103C600037300023BB6200237B6200233B620023CA
:103C70003B630023FB610023BB8200237B83002383
:103C80007B8200233B82FB799BB21A4692001A4446
:103C9000520013449BB203F214637B837A8B07F1C7
:103CA00014031046194609F07FFA794B5A88BB8AEB
:103CB000DBB29BB2D31A9BB2BB8203F06DFA3863BE
:103CC0003B6B03F51673FB6105E003F065FA38639F
:103CD000192005F01DFB6E4B5A88BB8A9A4203D906
:103CE0003A6BFB699A42F0D30420FFF7D7F94FF4FF
:103CF0007A7005F00DFB002387F837307AE0FB7906
:103D00009BB21A4692001A44520013449BB203F22B
:103D100015637B837B8B184603F0D2FE7862FB79B8
:103D20009BB21A4692001A44520013449BB203F20B
:103D300017637B837B8B184603F0C2FE386297F8CB
:103D400037309BB21A46D200D31A9BB203F24963B2
:103D50007B837A8B07F116031046194609F024FA83
:103D600003F01AFA02463B6AD21A7B6AB2FBF3F3FB
:103D7000BB62FB8ABA6AB2FBF3F37B760023FB815A
:103D800097F837309BB21A46D200D31A9BB203F58C
:103D9000C9637B837A8B07F112031046194609F039
:103DA00003FA97F837309BB21A46D200D31A9BB267
:103DB00003F24A637B837A8B07F10E0310461946A0
:103DC00009F0F2F9FB799AB27B8A9A420AD1FB890F
:103DD000012B07D17B7E002B04D197F83730184692
:103DE00000F0B0F80A2005F093FA97F83730013365
:103DF00087F8373097F83730082B80D9FB799BB29A
:103E00001A4692001A44520013449BB203F21D63F7
:103E10007B837A8B07F110031046194609F0C4F929
:103E2000012387F837301CE03B8A1A4697F8373071
:103E300042FA03F303F00103002B05D097F8373063
:103E40001846FFF7FBF804E097F837301846FFF7FD
:103E500025F9012005F05CFA97F83730013387F82F
:103E6000373097F83730042BDED90A4B1B7843F0F4
:103E70000103DAB2074B1A7000233B76064B1B781E
:103E80003B76054B30221A700BE000BFC9180020AA
:103E900058000020B700002018000020052005F081
:103EA00037FA3A6BFB699A4205D2224B1B7803F032
:103EB0000103002BF2D0204B1B7823F00103DAB270
:103EC0001D4B1A701D4B3A7E1A701A4B1B7823F04B
:103ED0000103DAB2174B1A700020002102F0A6F895
:103EE0000A2005F015FA00F04BF9FB799BB21A464F
:103EF00092001A44520013449BB203F21B637B836B
:103F00007B8B1846F96A02F0D5F8FB79012202FA98
:103F100003F3DBB2DB43DAB2094B1B78DBB21340AD
:103F2000DBB2DAB2064B1A70C82005F0F1F9383767
:103F3000BD4680BDB8000020B7000020180000205A
:103F4000C918002080B586B000AF0346FB7100237E
:103F50007B61FB799BB21A46D200D31A9BB203F263
:103F600046637B827A8A07F110031046194609F0EE
:103F70001BF9FB799BB21A46D200D31A9BB203F20B
:103F800045637B827A8A07F10E031046194609F0D1
:103F90000BF9FB799BB21A46D200D31A9BB203F2FB
:103FA00047637B827A8A07F10C031046194609F0B1
:103FB000FBF803F0F1F802463B8A13447B61FB896E
:103FC000DBB21846012100F039F802E00A2005F0C2
:103FD0009FF903F0E1F802467B699A42F6D3FB8928
:103FE000DBB21846002100F029F8BB89184600F022
:103FF00003F81837BD4680BD80B584B000AF0346D6
:10400000FB800023FB6003F0C7F80246FB881344E3
:10401000FB600020012100F011F802E00A2005F009
:1040200077F903F0B9F80246FB689A42F6D300200C
:10403000002100F003F81037BD4680BD80B483B086
:1040400000AF02460B46FA71BB71BB79002B0DD055
:10405000FB79012202FA03F3DAB22C4B1B78DBB2B4
:104060001343DBB2DAB2294B1A700EE0FB7901225E
:1040700002FA03F3DBB2DB43DAB2244B1B78DBB288
:104080001340DBB2DAB2214B1A70BB79012B02D19B
:104090000023BB7103E0BB79C3F16403BB71FB79FF
:1040A000002B08D11A4ABB799BB2194689000B44F0
:1040B0005B009BB29386FB79012B08D1144ABB7934
:1040C0009BB2194689000B445B009BB21387FB79B6
:1040D000022B08D10E4ABB799BB2194689000B44CA
:1040E0005B009BB29387FB79032B09D1084ABB790C
:1040F0009BB2194689000B445B009BB2A2F840308A
:104100000C37BD465DF8047B704700BFFC1A0020E9
:104110000004004080B584B000AF02460B46FA713F
:10412000BB710023FB6003F037F803460133FB60EB
:1041300002E0022005F0ECF803F02EF80246FB68DE
:104140009A42F6D303F028F80246BB791344FB6089
:10415000FB7918460121FFF771FF02E0022005F00C
:10416000D7F803F019F80246FB689A42F6D3FB79B8
:1041700018460021FFF762FF1037BD4680BD00BF23
:1041800080B500AF0320FEF789FF0420FEF786FF0D
:104190000020FEF783FF0120FEF780FF80BD00BFF7
:1041A00080B58AB000AF7860002387F82630FFF72B
:1041B000E7FFFEF711FFFDF709FB09F095FA002371
:1041C00087F827307FE00A2005F0A2F897F827301B
:1041D0009BB21A4692001A44520013449BB203F257
:1041E0001B63BB84BB8C184603F06AFC386202F088
:1041F000D3FFF86197F827309BB21A4692001A4411
:10420000520013449BB203F21563BB84BB8C184667
:1042100003F056FCB861FA693B6AD31A7B6197F8E0
:1042200027309BB21A4692001A44520013449BB2A4
:1042300003F21763BB84BB8C184603F041FC386162
:1042400097F827309BB21A4692001A445200134442
:104250009BB203F21963BB84BB8C184603F030FC9D
:10426000F86097F827309BB21A4692001A44520021
:1042700013449BB203F21D63BB84BA8C07F10B039A
:104280001046194608F090FF0A2005F041F87A69B7
:10429000BB699A420FD9FA693B699A420BD9FA690C
:1042A000FB689A4207D2FB7A002B04D097F827309C
:1042B0001846FFF7B7FC0A2005F02AF897F82730D0
:1042C000013387F8273097F82730022B7FF67BAF32
:1042D0006FE700BF80B500AF48480421FCF718FA2B
:1042E0004648FCF707FA03461A46454B1A80444BEA
:1042F0001B889BB2002B18D04048FCF7EDF9034611
:10430000642202FB03F23E4B1B889BB292FBF3F349
:104310009AB23C4B1A803C4B1A68394B1B889BB2B3
:10432000B2FBF3F2394B1A6005E0364B00221A80DB
:10433000364B00221A60364B1B780133DAB2344B0D
:104340001A70334B1A78334B1B789A4255D9324B3B
:104350001B78002B51D12B4B1B889BB2192B19D9E1
:10436000284B1B889BB2222B14D82C4B1B782B4A32
:1043700012782B498A5CD1B22A4A1278012000FABD
:1043800002F2D2B2D243D2B20A40D2B2D1B2244A5D
:10439000D15411E0214B1B78204A127820498A5CC5
:1043A000D1B2204A1278012000FA02F2D2B20A43B6
:1043B000D2B2D1B21A4AD1541A4B1B78002B16D163
:1043C000184B07221A70154B1B780133DAB2134BC6
:1043D0001A70124B1B78042B0FD10F4B01221A704D
:1043E0000E4B00221A700F4B07221A7005E00D4B7E
:1043F0001B78013BDAB20B4B1A7080BD0004004001
:104400006600002068000020000000206C000020F2
:104410007D0000201A0000207F0000208000002086
:10442000700000208100002080B500AF42480421C8
:10443000FCF76EF9404B1B8F9AB2404B1A803F4BF2
:104440001B889BB2002B0ED03B4B9B8E9BB26422F1
:1044500002FB03F2394B1B889BB292FBF3F39AB237
:10446000374B1A8005E0364B00221A80354B00226C
:104470001A60354B1B780133DAB2334B1A70324B6A
:104480001A78324B1B789A4255D9314B1B78002B46
:1044900051D12B4B1B889BB2192B19D9284B1B8848
:1044A0009BB2222B14D82B4B1B782A4A12782A490C
:1044B0008A5CD1B2294A1278012000FA02F2D2B203
:1044C000D243D2B20A40D2B2D1B2234AD15411E07F
:1044D000204B1B781F4A12781F498A5CD1B21F4AB1
:1044E0001278012000FA02F2D2B20A43D2B2D1B25B
:1044F000194AD154194B1B78002B16D1174B0722A0
:104500001A70144B1B780133DAB2124B1A70114B2C
:104510001B78042B0FD10E4B01221A700D4B002279
:104520001A700E4B07221A7005E00C4B1B78013BEA
:10453000DAB20A4B1A7080BD0040014066000020CC
:10454000680000206C0000207D0000201A00002080
:104550007F000020800000207000002081000020EB
:1045600080B500AF09480221FCF7D2F8074B9B8CBD
:104570009BB2B3F5C87F04D2044B9B8C9AB2044B18
:104580005A80024B00229A8480BD00BF0044014043
:104590005800002080B500AF0C480221FCF7B8F8A5
:1045A0000B4B9B6803F40073002B0AD1074B9B8CC9
:1045B0009BB2B3F5C87F04D2044B9B8C9AB2054BD7
:1045C0001A80024B00229A8480BD00BF004801403F
:1045D000000C01405800002080B582B000AF0023DD
:1045E000FB713EE01E2004F093FE02F04BFF0346F9
:1045F000FB710020002103F0DFFF1E4B1B781846E3
:1046000003F036F81C4803F0A1FFFB79042B05D119
:10461000184B1B780133DAB2164B1A70FB79012B59
:1046200005D1144B1B78013BDAB2124B1A700120F2
:10463000002103F0C1FF114803F088FF1048114921
:104640000422022302F04EFE0120072103F0B4FFF2
:104650000D4803F07BFF0D480A4904220A2302F0AB
:1046600041FEFB79022BBDD104F0A2F90837BD460B
:1046700080BD00BF1A000020A0DA0008A4DA0008FC
:1046800088000020A4000020A8DA00088400002090
:1046900080B483B000AF0346FB80FA88094B1B68E7
:1046A000D21A13469B0013445B001A46064B1B6844
:1046B000B2FBF3F3DBB218460C37BD465DF8047B62
:1046C000704700BFDC000020E800002080B483B009
:1046D00000AF0346FB71FB790A4A126802FB03F341
:1046E000094A82FB03129210DB17D31A9AB2074BC6
:1046F0001B689BB213449BB218460C37BD465DF84D
:10470000047B7047E800002067666666DC000020D6
:1047100080B582B000AF0023BB800023FB7104F0A2
:1047200047F9284803F012FF0A2004F0F1FD3B1D71
:1047300040F20460194608F037FDBB881846FFF7C1
:10474000A7FF0346FB71FB79184600F085F9034685
:10475000FB710A2004F0DCFDFB791846FFF7B6FF79
:10476000034640F20460194608F06AFD04F020F99F
:10477000154803F0EBFE0A2004F0CAFD3B1D40F291
:104780000560194608F010FDBB881846FFF780FF4A
:104790000346FB71FB79184600F05EF90346FB7196
:1047A0000A2004F0B5FDFB791846FFF78FFF03469A
:1047B00040F20560194608F043FD04F0F9F80837A7
:1047C000BD4680BDACDA0008C4D9000880B584B00D
:1047D00000AF0346FB710023FB73FB793E4AA3FB4A
:1047E00002015A1A52080A449209652101FB02F299
:1047F0009B1AFB7167E002F045FE0346FB73012044
:10480000032103F0D9FEFA79344B83FB021399118B
:10481000D317CB1A4FF47A7101FB03F3D31A304A42
:1048200082FB03125211DB17D31ADBB23B72FB7906
:104830002B4AA2FB03125209642101FB02F29B1ACC
:10484000DAB2284BA3FB0213DB08DBB27B72FA79E6
:10485000244BA3FB0213D9080B469B000B445B00BF
:10486000D31ADBB2BB72204803F070FE07F10803D5
:1048700018461E490322062302F034FD01200C21B4
:1048800003F09AFE1A4803F061FE0A2004F040FD8E
:10489000FB7B042B08D1FB79632B03D8FB79013315
:1048A000FB7101E00023FB71FB7B012B08D1FB793D
:1048B000002B02D10023FB7102E0FB79013BFB716D
:1048C0000A2004F025FDFB7B022B94D1FB791846CE
:1048D0001037BD4680BD00BF57866F44D34D621070
:1048E0001F85EB51CDCCCCCCBCDA0008A400002055
:1048F000C0DA000880B582B000AF0023BB8000237F
:10490000FB7104F055F8204803F020FE0A2004F063
:10491000FFFC3B1D40F20760194608F045FCBB88D0
:10492000DBB21846FFF752FF0346FB710A2004F082
:10493000EFFCFB799BB240F20760194608F080FC5F
:1049400004F036F8114803F001FE0A2004F0E0FC00
:104950003B1D4FF4C160194608F026FCBB88DBB252
:104960001846FFF733FF0346FB710A2004F0D0FC22
:10497000FB799BB24FF4C160194608F061FC04F06A
:1049800017F80837BD4680BDC4DA0008D4DA00083D
:1049900080B582B000AF03463960FB713B68DA1C1A
:1049A000F9792C4BA3FB0103DB08DBB21946490163
:1049B000C91A8900CB1A5B00D9B2FB790B44DBB270
:1049C0003033DBB21370052004F0A2FCFA79214BDE
:1049D000A3FB0213DB08FB713B6802332E221A7023
:1049E0003B685A1CF9791B4BA3FB0103DB08DBB2C4
:1049F00019464901C91A8900CB1A5B00D9B2FB7963
:104A00000B44DBB23033DBB21370052004F080FCC2
:104A1000FA79104BA3FB0213DB08FB71FA790D4BFB
:104A2000A3FB0203DB08DBB21A465201D21A920042
:104A3000D31A5B00DAB2FB791344DBB23033DAB25B
:104A40003B681A703B68043300221A700837BD4671
:104A500080BD00BFCDCCCCCC80B584B000AF0346C8
:104A6000FB710023FB733EE002F00CFD0346FB7379
:104A70000120032103F0A0FDFA7907F10803104695
:104A80001946FFF785FF1C4803F060FD07F1080396
:104A900018461A490422062302F024FC01200C21A6
:104AA00003F08AFD164803F051FD0A2004F030FCA3
:104AB000FB7B042B08D1FB79FD2B03D8FB79013359
:104AC000FB7101E00023FB71FB7B012B08D1FB791B
:104AD000002B02D10023FB7102E0FB79013BFB714B
:104AE0000A2004F015FCFB7B022BBDD1FB79184694
:104AF0001037BD4680BD00BFBCDA0008A40000200E
:104B0000C0DA000880B58AB000AF78603960002351
:104B10003B767968AC4BA3FB0123DA0813469B0074
:104B200013445B00CA1AD3B23033DBB2FB757A6828
:104B3000A54BA3FB0213DB087B607968A24BA3FBA8
:104B40000123DA0813469B0013445B00CA1AD3B250
:104B50003033DBB2BB757A689B4BA3FB0213DB08D7
:104B60007B607968984BA3FB0123DA0813469B000E
:104B700013445B00CA1AD3B23033DBB27B757A6858
:104B8000914BA3FB0213DB087B6079688E4BA3FB80
:104B90000123DA0813469B0013445B00CA1AD3B200
:104BA0003033DBB23B757A68874BA3FB0213DB081B
:104BB0007B607968844BA3FB0123DA0813469B00D2
:104BC00013445B00CA1AD3B23033DBB2FB747A6889
:104BD0007D4BA3FB0213DB087B6079687A4BA3FB58
:104BE0000123DA0813469B0013445B00CA1AD3B2B0
:104BF0003033DBB2BB74192004F08AFB7A68724B45
:104C0000A3FB0213DB087B6079686F4BA3FB0123D6
:104C1000DA0813469B0013445B00CA1AD3B2303340
:104C2000DBB27B747A68684BA3FB0213DB087B6002
:104C30007968654BA3FB0123DA0813469B001344F4
:104C40005B00CA1AD3B23033DBB23B747A685E4B76
:104C5000A3FB0213DB087B6079685B4BA3FB01239A
:104C6000DA0813469B0013445B00CA1AD3B23033F0
:104C7000DBB2FB737A68544BA3FB0213DB087B6047
:104C80007968514BA3FB0123DA0813469B001344B8
:104C90005B00CA1AD3B23033DBB2BB737A684A4BBB
:104CA000A3FB0213DB087B607968474BA3FB01235E
:104CB000DA0813469B0013445B00CA1AD3B23033A0
:104CC000DBB27B737A68404BA3FB0213DB087B608B
:104CD00079683D4BA3FB0123DA0813469B0013447C
:104CE0005B00CA1AD3B23033DBB23B737A68364BFF
:104CF000A3FB0213DB087B607968334BA3FB012322
:104D0000DA0813469B0013445B00CA1AD3B230334F
:104D1000DBB2FB727A682C4BA3FB0213DB087B60CF
:104D20007968294BA3FB0123DA0813469B0013443F
:104D30005B00CA1AD3B23033DBB2BB727A68224B43
:104D4000A3FB0213DB087B6079681F4BA3FB0123E5
:104D5000DA0813469B0013445B00CA1AD3B23033FF
:104D6000DBB27B727A68184BA3FB0213D908164B8F
:104D7000A3FB0123DA0813469B0013445B00CA1A05
:104D8000D3B23033DBB23B7200233B6207F108023F
:104D90003B6A13441B78FB613023FB61192004F04C
:104DA000B7FA08E03B6A01333B6207F108023B6A4D
:104DB00013441B78FB61FB69302BF3D0192004F0FE
:104DC000A7FA3B6A7B620FE0CDCCCCCC7A6A3B6A17
:104DD000D31A3A68134407F108017A6A0A44127830
:104DE0001A707B6A01337B627B6A102BEEDD3B68B5
:104DF00018462837BD4680BD80B485B000AF7860C6
:104E00007B68FA2202FB03F3FB6000BFFB685A1EBB
:104E1000FA60002BFAD11437BD465DF8047B704769
:104E200080B584B000AF03F0C3FD0020002103F083
:104E3000C3FB9E4B1B6803F130029C4B1A609B4BDB
:104E40001B681846012101F0BDFE03F0B1FD0020F2
:104E5000002103F0B1FB9648012101F0B3FE47F2B7
:104E60003050FFF7C9FF00F0D7FB6420FFF7C4FF05
:104E7000904B1B88BB800020002103F09DFB8E48D7
:104E8000022101F09FFE47F23050FFF7B5FF00F01E
:104E9000C3FB6420FFF7B0FF864B1B88FB8000201C
:104EA000002103F089FB8548062101F08BFE47F2C3
:104EB0003050FFF7A1FF00F0AFFB6420FFF79CFF2D
:104EC0007C4B1B883B8103F073FD7D48012101F081
:104ED00079FE47F23050FFF78FFF00F09DFB642012
:104EE000FFF78AFF734B1B887B817B89DB089AB2B3
:104EF000BB88DB089BB29A4203D2724B01221A7024
:104F00000EE07B89DB089AB2BB88DB089BB29A4231
:104F100003D96C4B00221A7002E06A4B02221A700D
:104F2000684B1B78002B54D1FB881A46BB88D31AD8
:104F3000DA0F13445B109BB2053BFB81BA88FB89F7
:104F40005B089BB2D31A9AB25F4B1A80BA88FB896E
:104F500013449AB25C4B5A80FA88FB89D31A9AB2EE
:104F6000594B9A803B891A46FB88D31ADA0F1344AF
:104F70005B109BB2053BFB81FA88FB8913449AB214
:104F8000514BDA803A89FB89D31A9AB24E4B1A8177
:104F90007B891A463B89D31ADA0F13445B109BB204
:104FA000053BFB813A89FB8913449AB2464B5A81EF
:104FB0007A89FB89D31A9AB2434B9A817A89FB8901
:104FC0005B089BB213449AB23F4BDA8100F0B6F90A
:104FD00059E03C4B1B78012B50D1BB881A46FB880B
:104FE000D31ADA0F13445B109BB2053BFB81BA88DE
:104FF000FB89D31A9AB2344B1A80BA88FB891344BE
:105000009AB2314B5A80FA88FB89D31A9AB22E4B46
:105010009A80FB881A463B89D31ADA0F13445B1037
:105020009BB2053BFB81FA88FB8913449AB2264B5D
:10503000DA803A89FB89D31A9AB2234B1A813B89C9
:105040001A467B89D31ADA0F13445B109BB2053BD7
:10505000FB813A89FB8913449AB21B4B5A817A89A6
:10506000FB89D31A9AB2184B9A817A89FB89134427
:105070009AB2154BDA8100F061F904E0134803F0AD
:1050800065FA00F079F9104B1A880F4B1B8A9A4287
:1050900002D90C4B01221A700020002103F08CFA77
:1050A0000B4803F053FA1037BD4680BD20000020A6
:1050B000BCDA0008AC1B002000E1000804E1000895
:1050C000C0DA0008B6000020241B00200CE1000814
:1050D0001CE1000880B582B000AF0023FB7103F033
:1050E00067FC4FF4FA7004F013F95EE002F0CAF9BD
:1050F0000346FB710020002103F05EFA2F4803F005
:1051000025FA2F4B1A882F4BA3FB02135B099BB286
:10511000DBB2184602F0ACFA294B1B88DBB218460A
:1051200002F0A6FA284803F011FA254B5A88254BBD
:10513000A3FB02135B099BB2DBB2184602F098FA9C
:105140001F4B5B88DBB2184602F092FA0120002167
:1051500003F032FA1D4803F0F9F9194B9A88194BFC
:10516000A3FB02135B099BB2DBB2184602F080FA84
:10517000134B9B88DBB2184602F07AFA144803F00E
:10518000E5F90F4BDA880F4BA3FB02135B099BB2C7
:10519000DBB2184602F06CFA094BDB88DBB218462A
:1051A00002F066FA142004F0B3F8FB79022B9DD1CB
:1051B00003F0FEFB0837BD4680BD00BF14D90008D0
:1051C000AC1B00201F85EB5128E100081CD900080A
:1051D0002CE1000880B582B000AF0023FB710023F2
:1051E000BB7103F0E5FB4FF4FA7004F091F83BE07B
:1051F00002F048F90346FB710020002103F0DCF9BE
:10520000022004F085F80023BB7108E0BB791A4A3C
:10521000D35C1846FCF75CFBBB790133BB71BB79EF
:10522000042BF3D9012004F073F80120002103F0CE
:10523000C3F9114B5B791846FCF74AFB0E4B9B797F
:105240001846FCF745FB0D4803F080F90C4B1B7822
:10525000184602F00DFA08480A490722092302F00D
:1052600041F8142004F054F8FB79022BC0D103F06C
:105270009FFB0837BD4680BD401B002008DA0008B0
:10528000F8000020A400002080B582B000AF002309
:10529000FB710023BB7103F08BFB4FF4FA7004F039
:1052A00037F83BE002F0EEF80346FB7100200021E6
:1052B00003F082F9022004F02BF80023BB7108E010
:1052C000BB791A4AD35C1846FCF702FBBB79013361
:1052D000BB71BB79042BF3D9012004F019F801202C
:1052E000002103F069F9114B5B791846FCF7F0FADD
:1052F0000E4B9B791846FCF7EBFA0D4803F026F9A4
:105300000C4B1B78184602F0B3F908480A490722EB
:10531000092301F0E7FF142003F0FAFFFB79022BC9
:10532000C0D103F045FB0837BD4680BD6C1B002093
:1053300008DA000863000020A400002080B582B0D5
:1053400000AF0023FB710FE0FB799BB203F20A630D
:105350009AB2F979074B33F811301046194607F025
:105360006FFFFB790133FB71FB79072BECD9083711
:10537000BD4680BD241B002080B582B000AF002355
:10538000FB710FE0FB799BB203F20A639AB2FB79DF
:105390005900074B0B441046194607F005FFFB79EF
:1053A0000133FB71FB79072BECD90837BD4680BD73
:1053B000241B002080B588B000AF786039602D4B89
:1053C0001B68002B4ED12C4A07F10C0307CA03C3FC
:1053D0001A8003F0FFFF07F10C0328481946032247
:1053E00006F000FF0346FB77FB7F002B0DD007F193
:1053F0000C03224819460A2206F0F4FE0346FB7706
:10540000FB7F002B01D0FB7F2FE01C4BDB681B4890
:10541000194607F065FA0346FB77FB7F002B01D0A6
:10542000FB7F22E03A6807F118031448796807F017
:1054300015F80346FB77FB7F002B01D0FB7F14E0C0
:105440000E4807F091F90346FB77FB7F002B01D054
:10545000FB7F0AE0094807F02FFA0346FB7703F0C9
:10546000C7FF01E00023FB77FB7F18462037BD46CE
:1054700080BD00BF2000002030E1000800010020B6
:1054800080B584B000AF0023FB6046E001F0FAFF76
:105490000346FB60052003F03BFF0020002103F0E2
:1054A0008BF8554803F052F8052003F031FF40F225
:1054B0000160524907F078FE504B1B881A463B1D8D
:1054C0001046194602F09CFA3B1D18464C4904222E
:1054D000082301F007FF0120052103F06DF8494B77
:1054E0009B881A463B1D1046194602F089FA3B1D5F
:1054F000184603F02BF80A2003F00AFF01200021D0
:1055000003F05AF800F028F90A2003F001FF3E48A2
:1055100003F01CF8642003F0FBFEFB68022BB5D1FE
:10552000384B9B887B817B8940F20160194607F0EC
:1055300087FE0023FB600020002103F03DF8334884
:1055400003F004F84FF4FA6003F0E2FE42E001F0E9
:1055500099FF0346FB6003F02BFA192003F0D8FEF5
:105560000020002103F028F8294802F0EFFF002076
:10557000082103F021F800F0EFF8264B1B881A46AB
:105580003B1D10461946FFF7BDFA3B1D184602F0B9
:10559000DDFF0120052103F00FF81A4BDB881A46C6
:1055A0003B1D10461946FFF7ADFA3B1D184602F0A9
:1055B000CDFF192003F0ACFE0120002102F0FCFF1A
:1055C000192003F0A5FE104802F0C0FF4FF4FA7056
:1055D00003F09EFEFB68022BB9D10A4B9B887B81AE
:1055E000084BDB884FF4C060194607F029FE02F033
:1055F000ADFB1037BD4680BD3CE10008DA0000205D
:1056000094000020AC1B0020C01B002044E10008D7
:1056100054E10008E000002080B487B000AF002310
:105620007B6100233B610023FB600023BB60002300
:105630007B6000233B6000233B6157E000237B61DC
:1056400026E07B695A1C3D4B33F812103B4B7A69BC
:1056500023F812107B695A1C394B33F81210384B5F
:105660007A6923F812107B695A1C364B33F81210F2
:10567000344B7A6923F812107B695A1C324B33F889
:105680001210314B7A6923F812107B6901337B6168
:105690007B69082BD5DD2D4BDB6B9AB2274B5A82E9
:1056A0002A4B1B6C9AB2264B5A82284B5B6C9AB2DF
:1056B000244B5A82254B9B6C9AB2234B5A821F4B28
:1056C0005B8AFA681344FB601D4B5B8ABA6813441B
:1056D000BB601C4B5B8A7A6813447B601A4B5B8A05
:1056E0003A6813443B603B6901333B613B69082BDB
:1056F000A4DDFA68164BA3FB0213DB089AB2154B24
:105700001A80BA68124BA3FB0213DB089AB2114B42
:105710005A807A680E4BA3FB0213DB089AB20D4B3A
:105720009A803A680A4BA3FB0213DB089AB2094B32
:10573000DA801C37BD465DF8047B7047981B00205B
:10574000001B002084180020A01800200024014025
:10575000CDCCCCCCAC1B002080B582B000AF0520F6
:1057600003F0D6FD464B9A88464B1B889A4203D9D4
:10577000454B02221A700CE0414B9A88434B1B8820
:105780009A4203D2404B01221A7002E03E4B0022A3
:105790001A703B4BDA883E4B1B889A4203D93D4B2B
:1057A00002221A700CE0364BDA883B4B1B889A4277
:1057B00003D2384B01221A7002E0364B00221A70D5
:1057C000052003F0A5FD2E4BDB881A46334B1B68E2
:1057D000D21A13469B0013445B001A46304B1B68D9
:1057E000B2FBF3F37B607B68DAB22E4B1A707968F8
:1057F0002D4BA3FB0123DA0813469B0013445B00E7
:10580000CA1AD3B23033DAB2284BDA70052003F06B
:105810007FFD7A68244BA3FB0213DB087B60234BDC
:105820002E229A707968204BA3FB0123DA081346D5
:105830009B0013445B00CA1AD3B23033DAB21B4B5D
:105840005A70052003F064FD7A68174BA3FB02131E
:10585000DB087B607968144BA3FB0123DA0813464D
:105860009B0013445B00CA1AD3B23033DAB20F4B39
:105870001A700E4B00221A710837BD4680BD00BF5A
:10588000AC1B0020BE1B0020EE0000203A1B0020B5
:105890009C180020EF000020B4180020DC0000203D
:1058A000E8000020ED000020CDCCCCCCC01B0020B7
:1058B00080B584B000AF0346FB710023FB7303F097
:1058C00077F80020002102F077FE1F4802F03EFE2C
:1058D000FB790133FB71FB79184601F0C9FE1B48C7
:1058E00002F034FEFB79013BFB71FB799BB203F2C2
:1058F000FF53BB81BA8907F10A031046194607F026
:1059000053FC322003F004FD7B89DBB2184600F023
:105910001DFD03467B81322003F0FAFCFB799BB22C
:1059200003F2FF53BB817B89BA891046194607F001
:1059300087FC052003F0ECFC02F008FA052003F0D8
:10594000E7FC1037BD4680BDB4E10008BCE10008AB
:1059500080B500AF012003F0DBFC03F029F8064816
:1059600002F0F4FD4FF4FA7003F0D2FC03F020F8DB
:10597000012003F0CDFC80BD00E1000880B588B0B7
:1059800000AF786001F008FCB8610023FB7772E09B
:10599000FB7F9BB21A46D20013449BB203F2DA5348
:1059A000FB82FB8A184602F08BF83861FB8A0233CF
:1059B0009BB2184602F084F8F8603B69584AA2FB93
:1059C0000312120C574901FB02F29B1A3B61FB6860
:1059D000534AA2FB0312120C524901FB02F29B1A1A
:1059E000FB60BB694E4AA2FB0312120C4D4901FB3E
:1059F00002F29B1ABB61012003F08AFC012003F034
:105A000087FCBA69FB689A4206D2BA693B699A4236
:105A100002D90123BB7701E00023BB773A69FB6819
:105A20009A420CD9BA693B699A4206D2BA69FB68B4
:105A30009A4202D90023BB7701E00123BB77BB7FE9
:105A4000012B0AD1FB7F012202FA03F31A46364BDF
:105A50001B681A43344B1A600AE0FB7F012202FAEA
:105A600003F3DB431A46304B1B681A402E4B1A6077
:105A7000FB7F0133FB77FB7F022B89D9012003F0E9
:105A800047FC0023FB7747E0FB7F9BB21A4692005E
:105A900013449BB203F5B863FB82FB8A184602F0FD
:105AA0000FF83861FB8A02339BB2184602F008F8FF
:105AB000F860012003F02CFC01F06EFBB861BB69BB
:105AC000FA68B3FBF2F2F96801FB02F29B1ABB61C0
:105AD000BA693B699A420CD20123BB77FB7F012252
