:020000040800F2
:10000000CC1A00203107000891070008910700086A
:100010009107000891070008910700080000000000
:100020000000000000000000000000007D880008C3
:100030009107000800000000518900088D89000820
:100040009107000891070008910700089107000830
:10005000910700089107000839240008552400087A
:100060007124000891070008910700089107000813
:100070009107000891070008ED2000080121000801
:100080009107000891070008910700080000000090
:100090000000000000000000000000009D24000897
:1000A0005932000891330008C53300089107000851
:1000B0009107000805310008910700089107000822
:1000C00091070008910700089107000891070008B0
:1000D00091070008411100089107000891070008E6
:1000E0007D24000891070008910700080000000027
:1000F0000000000000000000000000000000000000
:1001000000000000000000000000000000000000EF
:10011000000000000000000091070008910700089F
:100120005FF808F180B485B000AF786039600023D3
:10013000FB817B681B88FB817A682E4B9A4213D027
:100140007A682D4B9A420FD07B68B3F1804F0BD069
:100150007A682A4B9A4207D07A68294B9A4203D090
:100160007A68284B9A4208D1FB8923F07003FB81FF
:100170003B685A88FB891343FB817A68224B9A4279
:100180000CD07A68214B9A4208D0FB8923F4407343
:10019000FB813B68DA88FB891343FB817B68FA8922
:1001A0001A803B689A887B689A853B681A887B68C6
:1001B0001A857A680F4B9A420FD07A680E4B9A4292
:1001C0000BD07A68124B9A4207D07A68114B9A4248
:1001D00003D07A68104B9A4204D13B681B7A1A46C6
:1001E0007B681A867B6801229A821437BD465DF8C7
:1001F000047B7047002C01400034014000040040A3
:1002000000080040000C00400010004000140040B6
:1002100000400140004401400048014080B485B0E6
:1002200000AF7860396000237B810023FB810023CD
:10023000BB817B681B8C9BB223F001039AB27B6865
:100240001A847B681B8CFB817B689B88BB817B68E5
:100250001B8B7B817B8923F070037B817B8923F05F
:1002600003037B813B681A887B8913437B81FB896D
:1002700023F00203FB813B681A89FB891343FB814E
:100280003B685A88FB891343FB817A68244B9A4266
:100290000FD07A68234B9A420BD07A68224B9A424D
:1002A00007D07A68214B9A4203D07A68204B9A4251
:1002B00023D1FB8923F00803FB813B685A89FB8922
:1002C0001343FB81FB8923F00403FB813B689A887D
:1002D000FB891343FB81BB8923F48073BB81BB89FA
:1002E00023F40073BB813B689A89BB891343BB81AC
:1002F0003B68DA89BB891343BB817B68BA899A80E2
:100300007B687A891A833B68DA887B689A867B687F
:10031000FA891A841437BD465DF8047B704700BF24
:10032000002C0140003401400040014000440140E5
:100330000048014080B485B000AF78603960002388
:100340007B810023FB810023BB817B681B8C9BB2DC
:1003500023F010039AB27B681A847B681B8CFB81A4
:100360007B689B88BB817B681B8B7B817B8923F4AB
:10037000E0437B817B8923F440737B813B681B884E
:100380001B029AB27B8913437B81FB8923F02003F4
:10039000FB813B681B891B019AB2FB891343FB81DC
:1003A0003B685B881B019AB2FB891343FB817A6827
:1003B000224B9A4203D07A68214B9A422BD1FB8977
:1003C00023F08003FB813B685B891B019AB2FB89A8
:1003D0001343FB81FB8923F04003FB813B689B882F
:1003E0001B019AB2FB891343FB81BB8923F4806311
:1003F000BB81BB8923F40063BB813B689B899B0065
:100400009AB2BB891343BB813B68DB899B009AB2DC
:10041000BB891343BB817B68BA899A807B687A89E0
:100420001A833B68DA887B681A877B68FA891A84A2
:100430001437BD465DF8047B704700BF002C0140B7
:100440000034014080B485B000AF7860396000238B
:100450007B810023FB810023BB817B681B8C9BB2CB
:1004600023F480739AB27B681A847B681B8CFB81AF
:100470007B689B88BB817B689B8B7B817B8923F01E
:1004800070037B817B8923F003037B813B681A889F
:100490007B8913437B81FB8923F40073FB813B68D9
:1004A0001B891B029AB2FB891343FB813B685B8863
:1004B0001B029AB2FB891343FB817A68224B9A4252
:1004C00003D07A68214B9A422BD1FB8923F4006335
:1004D000FB813B685B891B029AB2FB891343FB815A
:1004E000FB8923F48063FB813B689B881B029AB2E3
:1004F000FB891343FB81BB8923F48053BB81BB89F8
:1005000023F40053BB813B689B891B019AB2BB89D2
:100510001343BB813B68DB891B019AB2BB89134340
:10052000BB817B68BA899A807B687A899A833B68A9
:10053000DA887B689A877B68FA891A841437BD4603
:100540005DF8047B704700BF002C0140003401407F
:1005500080B485B000AF786039600023BB81002390
:100560007B810023FB817B681B8C9BB223F480532F
:100570009AB27B681A847B681B8C7B817B689B8822
:10058000FB817B689B8BBB81BB8923F4E043BB81F0
:10059000BB8923F44073BB813B681B881B029AB262
:1005A000BB891343BB817B8923F400537B813B6868
:1005B0001B891B039AB27B8913437B813B685B8851
:1005C0001B039AB27B8913437B817A68124B9A4250
:1005D00003D07A68114B9A420AD1FB8923F48043F5
:1005E000FB813B689B899B019AB2FB891343FB818A
:1005F0007B68FA899A807B68BA899A833B68DA8833
:100600007B68A3F840207B687A891A841437BD463A
:100610005DF8047B704700BF002C014000340140AE
:1006200080B483B000AF78607B684FF6FF729A8029
:100630007B6800221A807B680022DA807B680022B7
:100640005A807B6800221A720C37BD465DF8047B25
:10065000704700BF80B483B000AF78607B68002231
:100660001A807B6800225A807B6800229A807B680F
:100670000022DA807B6800221A817B6800225A817E
:100680007B6800229A817B680022DA810C37BD46A4
:100690005DF8047B704700BF80B483B000AF786022
:1006A0000B46FB70FB78002B08D07B681B889BB245
:1006B00043F001039AB27B681A8007E07B681B88CD
:1006C0009BB223F001039AB27B681A800C37BD46B7
:1006D0005DF8047B704700BF80B483B000AF7860E2
:1006E0007B689B8E9BB218460C37BD465DF8047B39
:1006F000704700BF80B483B000AF78607B681B8F09
:100700009BB218460C37BD465DF8047B704700BFAE
:1007100080B483B000AF78600B467B807B88DB437E
:100720009AB27B681A820C37BD465DF8047B70472D
:1007300080B582B000AF114B7B60114B3B6007E08E
:100740003B681A1D3A607A68111D796012681A6058
:100750003A680C4B9A42F3D30B480C494FF0000215
:100760008842B8BF40F8042BFFF6FAAF00F014F847
:1007700005F00AFC0837BD4680BD00BF3C9D00085F
:10078000000000204400002048000020D016002077
:1007900080B400AFFEE700BF80B500AF164B164A2D
:1007A000126842F001021A60134A134B5968134B46
:1007B0000B405360104A104B1B6823F0847323F4E2
:1007C000803313600C4B0C4A126822F480221A60AA
:1007D000094B094A526822F4FE025A60064B4FF454
:1007E0001F029A60044B0022DA6200F00BF8044BFF
:1007F0004FF000629A6080BD001002400000FFF8D8
:1008000000ED00E080B500AF00F002F880BD00BF51
:1008100080B483B000AF00237B6000233B60304B8B
:100820002F4A126842F480321A602D4B1B6803F481
:1008300000333B607B6801337B603B68002B03D156
:100840007B68B3F5A06FF0D1254B1B6803F0020362
:10085000002B02D001233B6001E000233B603B689A
:10086000012B37D11E4B1E4A52685A601C4B1C4A42
:1008700052685A601A4B1A4A52685A60184B184A02
:10088000526822F47C125A60154B154A526842F4A1
:1008900098125A60124B124A126842F080721A6023
:1008A00000BF0F4B1B6803F00073002BF9D00C4BFB
:1008B0000B4A526822F003025A60094B084A5268F8
:1008C00042F002025A6000BF054B5B6803F00C0364
:1008D000082BF9D10C37BD465DF8047B704700BF8B
:1008E0000010024080B489B000AF78603960002306
:1008F000FB6100233B610023BB610023FB600023FD
:100900007B610023BB603B68DB7803F00F03FB6176
:100910003B68DB7803F01003002B04D03B689B7826
:10092000FA691343FB613B681B88DBB2002B44D0A0
:100930007B681B687B610023BB6138E0BB690122D7
:1009400002FA03F3FB603B681B881A46FB681340FE
:100950003B613A69FB689A4226D1BB699B00FB6008
:10096000FB680F2202FA03F3BB60BB68DB437A69C2
:1009700013407B61FB68FA6902FA03F37A69134357
:100980007B613B68DB78282B05D1BB6901229A404B
:100990007B685A6108E03B68DB78482B04D1BB696F
:1009A00001229A407B681A61BB690133BB61BB6954
:1009B000072BC3D97B687A691A603B681B88FF2BB9
:1009C00046D97B685B687B610023BB613AE0BB6909
:1009D0000833012202FA03F3FB603B681B881A46C6
:1009E000FB6813403B613A69FB689A4227D1BB69B7
:1009F0009B00FB60FB680F2202FA03F3BB60BB683D
:100A0000DB437A6913407B61FB68FA6902FA03F3FE
:100A10007A6913437B613B68DB78282B05D1BB697E
:100A2000083301229A407B685A613B68DB78482B87
:100A300005D1BB69083301229A407B681A61BB6902
:100A40000133BB61BB69072BC1D97B687A695A60E6
:100A50002437BD465DF8047B704700BF80B483B087
:100A600000AF78607B684FF6FF721A807B680222C5
:100A70009A707B680422DA700C37BD465DF8047BFF
:100A8000704700BF80B487B000AF78600B46FB7042
:100A900000233B610023FB6000237B610023BB60DC
:100AA0007B68002B03DA2E4BDB697B6102E02C4B69
:100AB0005B687B617B6803F470231B0CBB607B6805
:100AC0009BB23B617B6803F44013B3F5401F0AD12E
:100AD0007B6923F070637B61214B214A526822F0CD
:100AE00070625A6021E07B6803F48013002B0ED003
:100AF000BB68032202FA03F3FB60FB68DB437A69FD
:100B000013407B617B6943F070637B610DE07B6820
:100B10005B0D1B013A6902FA03F3DB437A69134068
:100B20007B617B6943F070637B61FB78002B08D0AD
:100B30007B685B0D1B013A6902FA03F37A69134380
:100B40007B617B68002B03DA054B7A69DA6102E08E
:100B5000034B7A695A601C37BD465DF8047B7047C9
:100B60000000014080B400AFBFF34F8FBD465DF879
:100B7000047B704780B483B000AF0346FB71084B21
:100B800097F907205209F97901F01F01012000FAB5
:100B900001F143F822100C37BD465DF8047B704725
:100BA00000E100E080B500AF054A054BDB6803F4C7
:100BB000E061044B0B43D360FFF7D4FFFEE700BFB7
:100BC00000ED00E00400FA0580B582B000AF0346F6
:100BD000FB711C4B1B78DBB2002B11D11A4B1B781D
:100BE000DBB25A1CD1B2184A1170F979174AA2FB2C
:100BF00001025209D2B23032D1B2154AD15410E0BA
:100C0000114B1B78DBB25A1CD1B20F4A1170F97923
:100C10000E4AA2FB01025209D2B23032D1B20D4AC1
:100C2000D154FB79094AA2FB03125209642101FB4A
:100C300002F29B1ADBB2184604F06EFF0837BD467D
:100C400080BD00BFA1000020A00000201F85EB5147
:100C5000800000209000002080B584B000AF002309
:100C6000FB730023BB7300237B7300237B81002372
:100C70007B6000233B6005F003FD744805F0C8FA73
:100C80004FF4FA7006F0F4F9714B00221A7034E058
:100C900004F04AFE03461A466D4B1A7000200021EC
:100CA00005F0F2FA6B4805F0B3FA6B4B1B689BB288
:100CB000184600F0E9F9694805F0AAFA664B5B6846
:100CC0009BB2184600F0E0F90120002105F0DCFAA3
:100CD0000A2006F0CDF9624805F09AFA5E4B9B684F
:100CE0009BB2184600F0D0F95E4805F091FA5A4BD5
:100CF000DB689BB2184600F0C7F9554B1B78DBB296
:100D0000002BC5D005F0BCFC514B1B78DBB2013B7E
:100D1000BB734F4B00221A70534805F079FAFB7BE6
:100D2000184603F031FD0346FB73FB7B184601F0C8
:100D300051FB05F0A5FC4D4805F06AFA7B7B18468F
:100D400003F022FD03467B73BA7B434B53F82230FA
:100D50007B6005F095FC464805F05AFAFB7B184687
:100D600001F008FB3A4B00221A7019E00A2006F045
:100D70007FF904F0D9FD03461A46354B1A7005F089
:100D80007FFC3C4805F044FA0120002105F07CFA84
:100D9000BA7B314B53F822309BB2184600F074F9FD
:100DA0002B4B1B78DBB2022BE0D1BA7B2A4B53F8DA
:100DB00022303B60FB7B184601F00CFBC82006F09C
:100DC00057F93B689AB27B689BB2D31A9BB21A461A
:100DD0007B7B92FBF3F37B81BA7B274B798923F8EA
:100DE000121005F04DFC254805F012FA3B689BB245
:100DF000184600F049F90120002105F045FA204885
:100E000005F006FA7B89184600F03EF97B8940F22E
:100E10004260194608F0AEF80D4B00221A7008E047
:100E20000A2006F025F904F07FFD03461A46084B18
:100E30001A70074B1B78DBB2022BF1D105F020FCB6
:100E4000C82006F015F91037BD4680BD9096000801
:100E5000B50000209C96000840160020A0960008CF
:100E6000A4960008A8960008AC960008BC96000856
:100E7000CC960008DC96000854160020EC9600087A
:100E8000F496000880B584B000AF13460246FA71AC
:100E90000A46BA71BB800023FB60BB880F4A1288E8
:100EA00002FB03F20E4BA3FB0213DB08FB600020E6
:100EB00001F060FABA790B4B002143F8221002E0EE
:100EC0000A2006F0D5F8074B1A68FB689A42F7D358
:100ED000002001F07FFA1037BD4680BD5416002077
:100EE000CDCCCCCC4016002080B584B000AF1346EA
:100EF0000246FA710A46BA71BB800023BB60002328
:100F0000FB8105F0BDFB554805F082F908E00A2099
:100F100006F0AEF804F008FD03461A46504B1A706E
:100F20004F4B1B78DBB2002BF1D04D4B1B78DBB263
:100F3000022B01D1FFF790FE01237B7387E005F0C0
:100F40009FFB484805F064F9474B1B88184600F0A2
:100F50009BF8FB891846052103F0C8FC0346FB817A
:100F6000FB89414A128802FB03F2404BA3FB0213A8
:100F7000DB08BB6005F084FB3D4805F049F9BB6820
:100F80009BB2184600F080F80120002105F07CF9A2
:100F9000384805F03DF9BA79374B53F82220364BE3
:100FA00053F822309BB2184600F06EF82C4B00220A
:100FB0001A70002001F0DEF9BA792F4B002143F8B6
:100FC00022101BE00A2006F053F805F059FB2B48CD
:100FD00005F01EF9BA79284B53F822309BB2184617
:100FE00000F052F80120002105F04EF9244805F0E8
:100FF0000FF9BB689BB2184600F046F81E4B1A6802
:10100000BB689A42DED3002001F0E4F905F038FB1A
:101010001C4805F0FDF808E00A2006F029F804F065
:1010200083FC03461A460E4B1A700D4B1B78DBB23D
:10103000002BF1D00A4B1B78DBB2022B05D1012328
:101040007B730D4B00221A6001E000237B737B7BD6
:10105000012B3FF474AF1037BD4680BDFC960008ED
:10106000B50000200C97000854160020CDCCCCCC45
:1010700018970008209700084016002024970008C1
:101080002C9700083097000880B582B000AF034667
:10109000FB80FA88164BA3FB02135B0B9BB2DBB2FF
:1010A000184604F039FDFB88114AA2FB0312520BCB
:1010B00042F2107101FB02F29B1A9AB20D4BA3FB94
:1010C00002135B099BB2DBB2184604F025FDFB88D6
:1010D000084AA2FB03125209642101FB02F29B1A87
:1010E0009BB2DBB2184604F017FD0837BD4680BD41
:1010F0005917B7D11F85EB5180B485B000AF396067
:1011000013460246FA71BB710023FB730023FB7385
:101110000AE0FB7B3A6813441B78DAB2FB79534050
:10112000FB71FB7B0133FB73FA7BBB799A42F0D3F3
:10113000FB7918461437BD465DF8047B704700BF45
:1011400080B582B000AF0023FB71664840F22551A4
:1011500006F010FE0346002B1AD0624806F0EAFDA6
:101160000346DAB2604B1A70604B1B78DBB25A1C34
:10117000D1B25E4A11705C4A1278D1B25C4AD15445
:10118000584B584A128892B222F0200292B21A802A
:10119000544B544A128892B222F0400292B21A8002
:1011A000544B1B78012B1AD1534B1B78DAB2534B9B
:1011B0001B789A4213D24B4A4F4B1B78DBB2591C17
:1011C000C8B24D4908704E49CB5CDBB29380454BA9
:1011D000444A128892B222F0400292B21A80494BDD
:1011E0001B78DBB2002B7AD1474B1B78DBB2042B88
:1011F0003BD1464B1B78DBB2002B04D13A4B1B781A
:10120000DAB2434B1A70414B1B78DBB25A1CD1B295
:101210003E4A1170344A1278D1B2354AD1543B4B10
:101220001B78DBB21A463A4B1B78DBB201339A4289
:101230001BD1374B1B78DBB230202D491A46FFF704
:101240005BFF0346FB71FB79002B03D12D4B012281
:101250001A7001E000F08CF82B4B00221A702B4B17
:1012600000221A702B4B00221A701F4B1B78DBB226
:101270005A2B03D1274B01221A7030E01A4B1B78EE
:10128000DBB2582B08D1234B1B78DBB2012B03D1E7
:10129000204B02221A7022E01E4B1B78DBB2022B7D
:1012A0001DD1114B1B78DBB2302B15D00E4B1B78A8
:1012B000DBB2312B03D1144B03221A700CE00A4B22
:1012C0001B78DBB2322B07D10F4B04221A7000F0CF
:1012D0004FF80E4B00221A700E4B00221A7008377E
:1012E000BD4680BD00380140500000205300002062
:1012F0006816002051000020520000201500002038
:1013000094160020DF000020DE000020DC0000201A
:10131000DD000020DB00002080B582B000AF7860E7
:10132000104B1B78DBB2012B17D100F0A7F80E4B46
:101330005B78DBB2312B0DD80B4B1B78DBB20A4A42
:10134000D35CDBB2184600F04DF800F011F8074B03
:1013500000221A70034B00221A700A2005F088FE42
:10136000DEE700BFDF00002068160020DC00002060
:1013700080B483B000AF0023FB710023FB7106E053
:10138000FB79074A0021D154FB790133FB71FB79CA
:10139000292BF5D90C37BD465DF8047B704700BF9B
:1013A0006816002080B582B000AF0023FB710B4BA4
:1013B00000221A700023FB7109E0FB79084A002122
:1013C000D154012005F054FEFB790133FB71FB7908
:1013D000292BF2D90837BD4680BD00BF150000207B
:1013E0009416002080B582B000AF0346FB711F4BFE
:1013F0005A221A701D4B58225A701C4B37229A7071
:101400001A4B0522DA70194BFA791A71174BDB78EF
:10141000DBB2002015491A46FFF76EFE03461A4656
:10142000124B5A71012005F023FE104BDB78DBB222
:101430000133DAB20E4B1A700E4B00221A700E4BAB
:1014400001221A7002E0032005F012FE094B1B78FE
:10145000DAB2074B1B789A42F5D3FFF7A3FF064B8E
:1014600000221A700837BD4680BD00BF94160020C8
:1014700015000020520000205100002080B582B0ED
:1014800000AF0023FB80B74B5B78DBB23B2B00F255
:10149000A48101A252F823F089150008B5150008AF
:1014A000CB150008DB150008E3150008F11500084E
:1014B000FF150008DB1700080D16000825160008A8
:1014C0004316000855160008A1160008CD1600089E
:1014D000D3160008E91600080B170008DB170008F0
:1014E000DB1700082D170008DB170008DB170008C2
:1014F000DB170008DB170008DB170008DB17000804
:10150000DB170008DB170008DB170008DB170008F3
:10151000DB170008DB170008DB170008DB170008E3
:10152000DB170008DB170008DB170008DB170008D3
:10153000DB170008DB170008DB170008DB170008C3
:10154000DB170008DB170008DB170008DB170008B3
:10155000DB170008DB170008DB170008DB170008A3
:10156000DB17000833170008DB170008DB1700083B
:10157000DB170008DB17000841170008791700087F
:1015800099170008BB170008764B9B78D9B2754BAA
:10159000DB78DAB2734B1B79DBB21B0298B2714B6A
:1015A0005B79DBB203449BB2084611461A46FFF74B
:1015B00069FC12E16B4B9B78DAB26A4BDB78DBB2E9
:1015C0001046194602F0BEFF07E1674B33221A703E
:1015D0000020002102F0B6FFFFE0634B30221A70BA
:1015E000FBE0604B9B78DBB2184600F0C3FEF4E0F2
:1015F0005C4B9B78DBB2184600F0ECFEEDE0594BFB
:101600009B78DBB2184600F0B1FAE6E0564B1B7847
:10161000DBB2332B05D1534B9B78DAB2534B1A70A4
:10162000DBE0DAE04F4B9B78D9B24E4BDB78DAB295
:101630004C4B1B79DBB2084611461A4600F0D2F833
:10164000CBE003F0F9FF0246494B1A60494B0022F8
:101650001A70C2E0454B00221A70434B33221A70B5
:10166000424B00221A700020002102F06BFF012083
:10167000002102F067FF0220002102F063FF032037
:10168000002102F05FFF022000F0A4FE032000F022
:10169000A1FE002000F09EFE012000F09BFE9CE0D9
:1016A000304B9B78DBB21A022E4BDB78DBB2134453
:1016B0001A022C4B1B79DBB213441A02294B5B79BB
:1016C000DBB21344184603F0C9FF86E0FFF76AFA5D
:1016D00083E0244B9B78DAB2224BDB78DBB21046F6
:1016E000194601F0D9FC78E01E4B9B78DBB21A4614
:1016F0001C4BDB78DBB21B029BB21344FB80FB88E4
:101700001846012100F0A2F867E0164B9B78DBB287
:101710001A46144BDB78DBB21B029BB21344FB80EE
:10172000FB881846102100F091F856E004F00AFDFD
:1017300053E00C4B9B78DBB2184600F06DFA4CE09E
:10174000084B9B78DBB21A46064BDB78DBB21B02F8
:101750009BB213409BB29BB21846022100F076F870
:101760003BE000BF68160020140000201700002096
:10177000C0000020B6000020194B9B78DBB21A464F
:10178000174BDB78DBB21B029BB213449BB21846AB
:10179000012100F0CDF820E0114B9B78DBB21A4616
:1017A0000F4BDB78DBB21B029BB21344FB80FB8840
:1017B0001846022100F0BCF80FE0094B9B78DBB221
:1017C0001A46074BDB78DBB21B029BB21344FB804B
:1017D000FB88184600F03EF900BF0837BD4680BDC3
:1017E0006816002080B584B000AF13460246FA7137
:1017F0000A46BA717B710023BB600023FB6003F0D3
:101800001BFFF860BA79FB681344BB60FA797B79F7
:101810001046194601F0D4FB0BE003F00DFFF86011
:10182000022005F025FC012000F0F6F9022005F069
:101830001FFCFA68BB689A42EFD3FB791846002177
:1018400001F0BEFB1037BD4680BD00BF80B584B03F
:1018500000AF02460B46FA807B710023BB60002379
:10186000FB737B79012B13D12F4B1B79DBB21A460B
:101870002D4B5B79DBB21B029BB213449AB22B4B0C
:101880001A802A4B1B88FA881046194607F072FB0B
:101890007B79022B18D1244B1B79DBB21A46224BE1
:1018A0005B79DBB21B021A441F4B9B79DBB21B0432
:1018B0001A441D4BDB79DBB21B061344BB60FB886B
:1018C0001846B96802F082FE7B79102B29D10023DB
:1018D000FB7323E0154B00221A80FB7B02335B0075
:1018E000114AD35CDBB21A46FB7B5B0203F5A063B3
:1018F0000D49CB5CDBB213449AB20C4B1A80FB88C7
:101900005A1CFA80094A12881846114607F032FB21
:10191000012005F0ADFBFB7B0133FB73FB7B1F2B31
:10192000D8D91037BD4680BD68160020E0000020E1
:1019300090B585B000AF02460B46FA807B71404BF4
:101940005A221A703E4B58225A703D4B31229A70DF
:101950007B79012B1DD1FA8807F10A03104619463D
:1019600007F0BCFA364B0922DA70364B9B78DAB2B4
:10197000334B1A71334BDB78DAB2314B5A717B89B6
:10198000DAB22F4B9A717B891B0A9BB2DAB22C4BCD
:10199000DA717B79022B24D1FB88184604F08CFA8B
:1019A000F860274B0B22DA70264B9B78DAB2244B77
:1019B0001A71244BDB78DAB2214B5A71FB68DAB228
:1019C0001F4B9A71FB681B0ADAB21D4BDA71FB6878
:1019D0001B0CDAB21A4B1A72FB681B0EDAB2184BE8
:1019E0005A72174BDB78DBB25C1E154BDB78DBB22F
:1019F000013BDBB2002012491A46FFF77DFB03468C
:101A00001A460F4B1A550E4BDB78DAB20E4B1A7092
:101A10000E4B00221A700E4B01221A7002E00120B8
:101A200005F026FB094B1B78DAB2074B1B789A426C
:101A3000F5D3074B00221A701437BD4690BD00BF86
:101A40009416002068160020150000205200002087
:101A50005100002090B585B000AF0346FB80002305
:101A6000FB730623BB733C4B5A221A703A4B582225
:101A70005A70394B31229A70374B2722DA70374B24
:101A80009B78DAB2344B1A71344BDB78DAB2324BD2
:101A90005A710023FB732EE00023BB60FB7B9BB2DB
:101AA0005B009AB2FB8813449BB2184604F004FA18
:101AB000B860BB7B5A1CBA73BA68120ED1B2264A00
:101AC000D154BB7B5A1CBA73BA68120CD1B2224AE9
:101AD000D154BB7B5A1CBA73BA68120AD1B21E4ADF
:101AE000D154BB7B5A1CBA73BA68D1B21A4AD154CA
:101AF000FB7B0133FB73FB7B072BCDD9BC7B164BE8
:101B0000DB78DBB2013BDBB2002013491A46FFF75A
:101B1000F3FA03461A46104B1A550F4BDB78DAB22C
:101B20000F4B1A700F4B00221A700F4B01221A70C4
:101B300002E0012005F09CFA0A4B1B78DAB2084B50
:101B40001B789A42F5D3084B00221A70FFF72AFC43
:101B50001437BD4690BD00BF9416002068160020C3
:101B600015000020520000205100002080B584B0F4
:101B700000AF0346FB710023FB730023BB810023EE
:101B80007B81234B5A221A70214B58225A70204BCA
:101B900031229A701E4B2A22DA701D4BFA791A7183
:101BA0000023FB732AE0FB799BB21A46D200134450
:101BB0009AB2FB7B9BB213449BB203F538739BB282
:101BC0005B00BB81BA8907F10A031046194607F08A
:101BD00085F9FB7B5B0005330D4A0021D154FB7B6B
:101BE00003335B007A89D2B25242D1B2084AD1544F
:101BF000012005F03DFAFB7B0133FB73FB7B112BCE
:101C0000D1D9044B01221A701037BD4680BD00BFE8
:101C1000941600205100002090B583B000AF034619
:101C2000FB71944B1B78002B40F04782924B5A2259
:101C30001A70914B58225A708F4B33229A708E4BE8
:101C40002822DA70FB79012B40F0CD808B4B1B787A
:101C5000DAB2894B1A718A4B1B68DAB2864B5A7119
:101C6000884B1B68DAB2844B9A71874B1A78824B87
:101C7000DA71864B1B88DAB27F4B1A72844B1A7862
:101C80007D4B5A72834B1A787B4B9A72814B5A78F0
:101C9000794BDA727F4B9A78774B1A737D4BDA78EF
:101CA000754B5A737C4B1B8B9BB2DAB2724B9A7397
:101CB000794B1B8B9BB21B0A9BB2DAB26E4BDA7369
:101CC000754B9B8B9BB2DAB26B4B1A74724B9B8B2E
:101CD0009BB21B0A9BB2DAB2674B5A746F4B1B88DC
:101CE000DAB2654B9A746D4B1B881B0A9BB2DAB251
:101CF000614BDA74694B5B88DAB25F4B1A75674BDC
:101D00005B881B0A9BB2DAB25B4B5A75644B1B882B
:101D10009BB2DAB2584B9A75614B1B889BB21B0A77
:101D20009BB2DAB2544BDA755D4B5B889BB2DAB288
:101D3000514B1A765A4B5B889BB21B0A9BB2DAB2A4
:101D40004D4B5A76564B9B889BB2DAB24A4B9A76E9
:101D5000534B9B889BB21B0A9BB2DAB2464BDA7696
:101D60004F4BDB889BB2DAB2434B1A774C4BDB8884
:101D70009BB21B0A9BB2DAB23F4B5A77494B1B68A6
:101D8000DAB23D4B9A77474B1B681B0ADAB23A4BE3
:101D9000DA77444B1B681B0CDAB2374B83F82020F0
:101DA000404B1B681B0EDAB2334B83F821203E4BAD
:101DB0001A78314B83F822203C4B1A782E4B83F84B
:101DC0002320364B5B88DAB22B4B83F82420334B2D
:101DD0005B881B0A9BB2DAB2274B83F82520264B7F
:101DE000FA7983F82620FB79022B65D1304B1B88CA
:101DF000DAB2214B1A712E4B1B881B0A9BB2DAB246
:101E00001D4B5A712B4B1B88DAB21B4B9A71294B15
:101E10001B881B0A9BB2DAB2174BDA71164B0022F1
:101E20001A721F4B1B889BB21B0A9BB2DAB2124B71
:101E30005A721B4B5B889BB2DAB20F4B9A72184BEB
:101E40005B889BB21B0A9BB2DAB20B4BDA72144B63
:101E50009B889BB2DAB2084B1A73114B9B889BB2DA
:101E60001B0A9BB2DAB2044B5A73034BFA7983F81C
:101E7000262021E0510000209416002014000020AC
:101E8000B8000020BC00002062160020C400002022
:101E9000D80000205C0000200028004048000020FE
:101EA000D000002040160020DA000020170000209B
:101EB000CA000020CC000020FB79032B39D1804BD5
:101EC0009B68DAB27F4B1A717D4B9B681B0ADAB2B2
:101ED0007C4B5A717A4B9B681B0CDAB2794B9A7126
:101EE000774B9B681B0EDAB2764BDA71764B9B68A8
:101EF000DAB2744B1A72744B9B681B0ADAB2714BDC
:101F00005A72714B9B681B0CDAB26E4B9A726E4B15
:101F10009B681B0EDAB26B4BDA726C4B9A78694B8A
:101F20001A736A4BDA78674B5A73664BFA7983F8FF
:101F30002620FB79042B19D1624B00225A72644B84
:101F40001A78604B9A72634B1B88DAB25D4BDA7277
:101F5000604B1B881B0A9BB2DAB25A4B1A73594B5F
:101F60004D225A73574BFA7983F82620FB79052BBB
:101F700035D1594B1B88DAB2524B1A71564B1B881C
:101F80001B0A9BB2DAB24F4B5A71534B5B88DAB2E1
:101F90004C4B9A71504B5B881B0A9BB2DAB2494B8F
:101FA000DA714E4B1B68DAB2464B1A724B4B1B6808
:101FB0001B0ADAB2434B5A72484B1B681B0CDAB24D
:101FC000404B9A72454B1B681B0EDAB23D4BDA72DE
:101FD0003C4B4D225A733B4BFA7983F82620FB7910
:101FE000062B3DD13C4B1B88DAB2364B1A713A4B6B
:101FF0001B881B0A9BB2DAB2324B5A71364B5B8894
:10200000DAB2304B9A71344B5B881B0A9BB2DAB25E
:102010002C4B5A71314B5B68DAB22A4B1A722F4B38
:102020005B681B0ADAB2274B5A722C4B5B681B0C9D
:10203000DAB2244B9A72294B5B681B0EDAB2214B41
:10204000DA72244B5B88DAB21E4B1A73214B5B8821
:102050001B0A9BB2DAB21B4B5A731A4BFA799A7568
:10206000184BDB78DBB25C1E164BDB78DBB2013B36
:10207000DBB2002013491A46FFF73EF803461A4622
:10208000104B1A550F4BDB78DAB2154B1A70154B03
:1020900000221A70144B01221A7002E0022004F090
:1020A000E7FF104B1B78DAB20D4B1B789A42F5D341
:1020B000FFF778F90C4B00221A700C37BD4690BD23
:1020C0000008014094160020000C0140640000202C
:1020D000DA0000205416002048000020401600209E
:1020E00015000020520000205100002080B400AFF5
:1020F000024B1B68BD465DF8047B70470000024040
:1021000080B400AF024B1B68BD465DF8047B70478E
:102110000000024080B586B000AF0120012104F02C
:10212000EDFD0520012104F007FE25233B7500236A
:102130007B750023BB750123FB7507F1140318465B
:1021400006F04EFC4FF400733B820323BB7418234C
:10215000FB7407F1100324481946FEF7C3FB4FF444
:1021600080633B820423FB7407F110031E48194669
:10217000FEF7B8FB1D4805F0A7FC4FF48040012195
:1021800004F0DAFD4FF416533B600023BB800023BC
:10219000FB8000233B810023BB810C237B813B46DA
:1021A0001248194605F0ECFC10484FF4587105F040
:1021B000D1FD0E4B0D4A928992B242F0200292B2AA
:1021C0009A810A4B094A928992B242F0400292B235
:1021D0009A810648012105F08DFD2520FEF7CAFCF5
:1021E0001837BD4680BD00BF0008014000380140DF
:1021F00080B588B000AF1020012104F09DFD0220C1
:10220000012104F0B7FD07F11C031846FEF726FC78
:102210004FF47073BB830323BB771823FB7707F15D
:102220001C0320481946FEF75DFB1F480121FEF7FD
:1022300029FC07F110031846FEF7F2F94FF400737A
:10224000FB8240F2E733BB82EF233B8207F11003AE
:1022500016481946FDF766FF3B461846FEF7FAF9A1
:1022600001237B8060233B800023FB803B460F489B
:102270001946FDF7D3FF3B460C481946FEF75AF8BE
:102280003B460A481946FEF7DDF83B460748194623
:10229000FEF75EF905480121FEF7FEF92037BD463D
:1022A00080BD00BF00100140000C1A000004004077
:1022B00080B582B000AF04F0E3F90023FB80002377
:1022C0007B7104F0DDF90A2004F0D2FE04F0D8F9A5
:1022D000234803F09DFF234B00221A701EE003F0F9
:1022E00023FB03461A461F4B1A701F4B1B88FB80AB
:1022F000052004F0BDFE0120002103F0C5FFFA888F
:102300001A4BA3FB02135B099BB2DBB2184603F026
:1023100003FCFB88DBB2184603F0FEFB114B1B7875
:10232000DBB2022BDBD10A2004F0A2FEFB8840F2D4
:102330002260194606F01EFE01F0C8FD4FF4FA6057
:1023400004F096FE0A4803F063FF064B00221A7061
:1023500004F096F903F0F6FE0837BD4680BD00BFD5
:1023600038970008B5000020480000201F85EB5179
:102370004C97000880B483B000AF0346FB71FB7933
:10238000002B06D1114B114A526942F480725A61F6
:1023900009E00E4B0D4A5169FA790A32012000FA20
:1023A00002F20A435A61FB79012202FA03F3DAB21C
:1023B000074B1B78DBB21343DBB2DAB2044B1A7063
:1023C0000C37BD465DF8047B704700BF0008014034
:1023D0006216002080B483B000AF0346FB71FB7926
:1023E000002B06D1124B124A126942F480721A6114
:1023F00009E00F4B0E4A1169FA790A32012000FAFE
:1024000002F20A431A61FB79012202FA03F3DBB2FA
:10241000DB43DAB2074B1B78DBB21340DBB2DAB234
:10242000044B1A700C37BD465DF8047B704700BF43
:10243000000801406216002080B500AF012004F0C2
:102440003BFD034B1B685A1C014B1A6080BD00BF4B
:102450004016002080B500AF022004F02DFD034B94
:102460005B685A1C014B5A6080BD00BF40160020BB
:1024700080B500AF042004F01FFD80BD80B500AF23
:102480004FF4806004F018FD4FF4006004F014FD78
:102490004FF4805004F010FD80BD00BF80B500AF48
:1024A000202004F009FD402004F006FD802004F007
:1024B00003FD80BD80B582B000AF4FF4AF63FB80F9
:1024C0000023BB80294B00221A7047E003F02CFA4E
:1024D00003461A46254B1A700023BB80FA883B1D21
:1024E0001046194606F0FAFC04F0CAF8204803F03A
:1024F0008FFEFB881846FEF7C7FD0120002103F080
:10250000C3FE1C4803F084FEBB881846FEF7BCFDE2
:10251000012004F0ADFD154B1B78DBB2022B0AD174
:10252000FB88B3F5FA6F03D2FB880133FB8002E02E
:102530004FF4AF63FB800D4B1B78DBB2012B0AD14C
:10254000FB88B3F5AF6F03D9FB88013BFB8002E04A
:102550004FF4FA63FB80062004F08AFD034B1B78DE
:10256000DBB2042BB2D10837BD4680BDB5000020D8
:10257000589700086097000880B582B000AF00232C
:10258000FB7104F07DF8464B00221A707CE01420A9
:1025900004F06EFD03F0C8F903461A46404B1A706A
:1025A0000020002103F070FE3E4803F031FEFB796D
:1025B000184603F0B1FA3A4B1B78DBB2042B03D177
:1025C000FB791846FFF7D6FE354B1B78DBB2032BA1
:1025D00003D1FB791846FFF7FDFE314B1B78DBB2C8
:1025E000012B08D1FB79012B03D8FB790133FB7157
:1025F00001E00023FB71012004F03AFD01200021DD
:1026000003F042FE284803F003FE284B1B781846CF
:1026100003F082FA012004F02BFD254803F0F8FDB9
:10262000244B9B6803F01003002B03D0224803F0D7
:10263000EFFD02E0214803F0EBFD1E4B9B6803F029
:102640002003002B03D01C4803F0E2FD1CE01B48D4
:1026500003F0DEFD174B9B6803F04003002B03D013
:10266000154803F0D5FD02E0144803F0D1FD114BED
:102670009B6803F48073002B03D00F4803F0C8FD60
:1026800002E00E4803F0C4FD054B1B78DBB2022BC1
:102690007FF47DAF03F0F4FF0837BD4680BD00BF77
:1026A000B5000020689700087497000862160020A3
:1026B0007897000800080140809700088497000878
:1026C00080B582B000AF0223FB7103F0D9FF6EE04A
:1026D000142004F0CDFC03F027F903461A46394BC9
:1026E0001A700020002103F0CFFD374803F090FD61
:1026F000FB79184603F010FA324B1B78DBB2042B3F
:1027000009D1324B314A1169FA790B32012000FAB2
:1027100002F20A431A612B4B1B78DBB2032B09D15F
:102720002A4B2A4A5169FA790B32012000FA02F247
:102730000A435A61234B1B78DBB2012B08D1FB798A
:10274000032B03D8FB790133FB7101E00223FB71FA
:10275000012004F08DFC0120002103F095FD1C48B0
:1027600003F056FD1B4B1B78184603F0D5F90120EA
:1027700004F07EFC184803F04BFD144BDB6803F4B7
:102780000053002B03D0154803F042FD02E014482B
:1027900003F03EFD0D4BDB6803F48043002B03D0B8
:1027A0000E4803F035FD02E00D4803F031FD054B06
:1027B0001B78DBB2022B8BD103F062FF0837BD46DA
:1027C00080BD00BFB50000206897000800080140E8
:1027D0007497000862160020789700088097000818
:1027E0008497000880B582B000AF0023FB8003F01F
:1027F00047FF4C4B00221A7082E0142004F038FC92
:1028000003F092F803461A46464B1A700020002146
:1028100003F03AFD444B1B88FB80FB88DBB2184673
:1028200003F07AF9404B5B88FB80FB88DBB21846EB
:1028300003F072F93D4803F0EBFC3D4B9B8CFB80B1
:10284000FB881846FEF720FC364B1B78DBB2042BC6
:1028500002D10120FFF78EFD324B1B78DBB2012B3A
:1028600002D10120FFF7B6FD012004F001FC012098
:10287000002103F009FD2F4B1B78184603F04CF99B
:102880002D4803F0C5FC0023BB802C4B9B685B09E3
:10289000BB80BB881846FEF7F7FB294803F0B8FC5D
:1028A000012004F0E5FB254B9B685B0903F0010365
:1028B000002B03D0234803F0ABFC02E0224803F0D6
:1028C000A7FC1E4B9B689B0903F00103002B03D060
:1028D0001C4803F09DFC02E01B4803F099FC174BD9
:1028E0009B68DB0903F00103002B03D0154803F0BC
:1028F0008FFC02E0144803F08BFC144803F088FCC2
:10290000084B1B78DBB2022B7FF477AFFFF7D2FDC9
:1029100003F0B6FEFFF730FEFFF7D2FE0837BD46E4
:1029200080BD00BFB5000020480000208897000847
:1029300000480140621600208C9700080008014002
:1029400090970008809700088497000894970008E3
:1029500080B584B000AF13460246FA800A467A7109
:102960003B710023FB730023BB7300237B73FA8846
:102970007B7942FA03F37B730020002103F084FC8F
:10298000514803F045FC514B00221A7060E002F000
:10299000CBFF03461A464D4B1A700120002103F06D
:1029A00073FC0023FB7305E0494803F031FCFB7B1B
:1029B0000133FB73FA7B39797B79CB1A9A42F3DBCB
:1029C000012004F055FB0023FB7309E000200021E7
:1029D00003F05AFC3F4803F01BFCFB7B0133FB7305
:1029E000FA7B39797B79CB1A9A42EFDBBB7B0020EB
:1029F000194603F049FC344803F00AFC052004F0B2
:102A000037FB324B1B78DBB2042B08D1BA7B397908
:102A10007B79CB1A9A4202DABB7B0133BB732B4B17
:102A20001B78DBB2012B05D1BB7B002B02D0BB7B1B
:102A3000013BBB73254B1B78DBB2032B08D1BB7B5F
:102A4000012202FA03F3DAB27B7B5340DBB27B73E1
:102A50001E4B1B78DBB2022B99D10023FB7325E0C0
:102A60007A7BFB7B42FA03F303F00103002B0DD0CA
:102A7000FA7B7B791344012BD4BF00230123DBB203
:102A80001A46FB8813439BB2FB800CE0FA7B7B79F0
:102A90001344012202FA03F39BB2DB439AB2FB8890
:102AA00013409BB2FB80FB7B0133FB73FA7B3979CC
:102AB0007B79CB1A9A42D3DB01F008FAFB881846DF
:102AC0001037BD4680BD00BF98970008B5000020B4
:102AD000809700089097000880B586B000AF034645
:102AE000FB710023BB8200237B8100233B810023F9
:102AF0003B6103F0C5FD6A4803F08AFBC82004F07F
:102B0000B7FAFB799BB21A4692001A44520013445A
:102B10009BB203F21463BB82BA8A07F10A03104620
:102B2000194606F0DBF97B89DBB2184601F02CFE72
:102B300003467B817B89BA8A1046194606F01AFA49
:102B400003F09EFD0020052103F09EFB554803F095
:102B50005FFBC82004F08CFAFB799BB21A46920006
:102B60001A44520013449BB203F21D63BB82BA8A1B
:102B700007F108031046194606F0B0F93B891846DC
:102B800000210322FFF7E4FE03463B810023FB758F
:102B900011E002F0C9FE03461A46434B1A70424B3D
:102BA0001B78DBB2042B03D1FB7DC3F10103FB7562
:102BB000192004F05DFA3C4B1B78DBB2002BE8D007
:102BC000FB7D012B05D13B8943F001039BB23B8187
:102BD00004E03B8923F001039BB23B813B89BA8A25
:102BE0001046194606F0C6F9052004F041FA01F036
:102BF0006DF90023FB60FB799BB21A4692001A44E0
:102C0000520013449BB203F21763BB82BB8A18467F
:102C100003F052F9F860F868012102F0C5F8F86095
:102C2000FB689BB2BA8A1046194606F0A3F9FB79F5
:102C30009BB21A4692001A44520013449BB203F20C
:102C40001963BB82BB8A184603F036F9F860F8684E
:102C5000012102F0A9F8F860FB689BB2BA8A10461D
:102C6000194606F087F9FB799BB21A4692001A447E
:102C7000520013449BB203F21563BB82BB8A184611
:102C800003F01AF9F860F86801F092FEF860BB8A68
:102C90001846F96801F09AFC1837BD4680BD00BFA0
:102CA0009C970008A4970008B500002080B582B06A
:102CB00000AF0023FB7103F0E3FC094803F0A8FA1E
:102CC000C82004F0D5F9FB79184601F05DFD0346F4
:102CD000FB71FB79184600F021F80837BD4680BD2E
:102CE000B097000880B582B000AF0023FB7103F0FD
:102CF000C7FC094803F08CFAC82004F0B9F9FB7945
:102D0000184601F041FD0346FB71FB791846FFF7B9
:102D1000E3FE0837BD4680BDB097000880B584B09B
:102D200000AF0346FB710023FB810023BB81FB79CD
:102D30009BB21A46D200D31A9BB203F24563FB81C1
:102D4000FA8907F10C031046194606F0C7F803F09C
:102D500097FC574803F05CFABB89184601F06AFDFE
:102D60000346BB81BB89FA891046194606F002F971
:102D7000FB799BB21A46D200D31A9BB203F2466388
:102D8000FB81FA8907F10C031046194606F0A6F8F4
:102D900003F076FC474803F03BFABB89184601F084
:102DA00049FD0346BB81BB89FA891046194606F0E6
:102DB000E1F8FA8907F10C031046194606F08EF87F
:102DC00003F05EFC3C4803F023FABB89184601F08F
:102DD00031FD0346BB81BB89FA891046194606F0CE
:102DE000C9F8FB799BB21A46D200D31A9BB203F200
:102DF0004763FB81FA8907F10C031046194606F078
:102E00006DF803F03DFC2D4803F002FABB8918462B
:102E100001F010FD0346BB81BB89FA8910461946B3
:102E200006F0A8F8FB799BB21A46D200D31A9BB2DF
:102E300003F5C963FB81FA8907F10C0310461946B3
:102E400006F04CF803F01CFC1D4803F0E1F9BB89C7
:102E5000184601F0EFFC0346BB81BB89FA89104696
:102E6000194606F087F8FA8907F10C03104619464F
:102E700006F034F803F004FC124803F0C9F9BB89EA
:102E8000184601F0D7FC0346BB810A2004F0F0F895
:102E9000BB89FA891046194606F06CF803F0F0FB7E
:102EA0000A2004F0E5F803F04DF91037BD4680BD67
:102EB000BC970008D0970008E0970008F09700083A
:102EC000FC9700080C98000890B585B000AF00236F
:102ED000BB730023FB7303F0D3FB364803F098F970
:102EE000C82004F0C5F8BB7B184601F04DFC034632
:102EF000BB7303F0C5FB304803F08AF9BB7B18466F
:102F000002F00AFE2D4803F083F90023FB7306E06C
:102F10001E2004F0ADF802F007FD0346FB73FB7BB7
:102F2000022B02D0FB7B032BF2D1C82004F0A0F8C7
:102F3000FB7B022B35D1BA7B13469B0013445B000D
:102F4000134403F21563BB60BB689BB2184602F0E2
:102F5000B3FF7860BA7B13469B0013445B001344B5
:102F600003F21763BB6002F067FB3860BB689BB27B
:102F70001846396801F02AFBBA7B13469B001344BC
:102F80005B00134403F21B63BB60BB689CB202F09E
:102F900053FB02467B68D31A05332046194601F0DD
:102FA00015FB03F06DFBC82004F062F81437BD4632
:102FB00090BD00BFB097000818980008249800083A
:102FC00080B483B000AF02460B46FA71BB71BB7987
:102FD000002B0DD0FB79012202FA03F3DAB22C4B5D
:102FE0001B78DBB21343DBB2DAB2294B1A700EE066
:102FF000FB79012202FA03F3DBB2DB43DAB2244BA2
:103000001B78DBB21340DBB2DAB2214B1A70BB790A
:10301000012B02D10023BB7103E0BB79C3F1640330
:10302000BB71FB79002B08D11A4ABB799BB21946B8
:1030300089000B445B009BB29386FB79012B08D17E
:10304000144ABB799BB2194689000B445B009BB2C2
:103050001387FB79022B08D10E4ABB799BB2194624
:1030600089000B445B009BB29387FB79032B09D14A
:10307000084ABB799BB2194689000B445B009BB29E
:10308000A2F840300C37BD465DF8047B704700BFA6
:10309000DA0000200004004080B584B000AF024692
:1030A0000B46FA71BB710023FB6002F0C5FA0346C0
:1030B0000133FB6002E0022003F0DAFF02F0BCFA09
:1030C0000246FB689A42F6D302F0B6FA0246BB7992
:1030D0001344FB60FB7918460121FFF771FF02E002
:1030E000022003F0C5FF02F0A7FA0246FB689A42ED
:1030F000F6D3FB7918460021FFF762FF1037BD4673
:1031000080BD00BF80B500AF48480421FDF700FB3B
:103110004648FDF7EFFA03461A46454B1A80444BE2
:103120001B889BB2002B18D04048FDF7D5FA034608
:10313000642202FB03F23E4B1B889BB292FBF3F32B
:103140009AB23C4B1A803C4B1A68394B1B889BB295
:10315000B2FBF3F2394B1A6005E0364B00221A80BD
:10316000364B00221A60364B1B780133DAB2344BEF
:103170001A70334B1A78334B1B789A4255D9324B1D
:103180001B78002B51D12B4B1B889BB2192B19D9C3
:10319000284B1B889BB2222B14D82C4B1B782B4A14
:1031A00012782B498A5CD1B22A4A1278012000FA9F
:1031B00002F2D2B2D243D2B20A40D2B2D1B2244A3F
:1031C000D15411E0214B1B78204A127820498A5CA7
:1031D000D1B2204A1278012000FA02F2D2B20A4398
:1031E000D2B2D1B21A4AD1541A4B1B78002B16D145
:1031F000184B07221A70154B1B780133DAB2134BA8
:103200001A70124B1B78042B0FD10F4B01221A702E
:103210000E4B00221A700F4B07221A7005E00D4B5F
:103220001B78013BDAB20B4B1A7080BD00040040E2
:10323000540000205600002000000020580000200C
:1032400069000020160000206B0000206C000020A8
:103250005C0000206D00002080B500AF42480421D2
:10326000FDF756FA404B1B8F9AB2404B1A803F4BEA
:103270001B889BB2002B0ED03B4B9B8E9BB26422D3
:1032800002FB03F2394B1B889BB292FBF3F39AB219
:10329000374B1A8005E0364B00221A80354B00224E
:1032A0001A60354B1B780133DAB2334B1A70324B4C
:1032B0001A78324B1B789A4255D9314B1B78002B28
:1032C00051D12B4B1B889BB2192B19D9284B1B882A
:1032D0009BB2222B14D82B4B1B782A4A12782A49EE
:1032E0008A5CD1B2294A1278012000FA02F2D2B2E5
:1032F000D243D2B20A40D2B2D1B2234AD15411E061
:10330000204B1B781F4A12781F498A5CD1B21F4A92
:103310001278012000FA02F2D2B20A43D2B2D1B23C
:10332000194AD154194B1B78002B16D1174B072281
:103330001A70144B1B780133DAB2124B1A70114B0E
:103340001B78042B0FD10E4B01221A700D4B00225B
:103350001A700E4B07221A7005E00C4B1B78013BCC
:10336000DAB20A4B1A7080BD0040014054000020C0
:1033700056000020580000206900002016000020A0
:103380006B0000206C0000205C0000206D0000201D
:1033900080B500AF09480221FDF7BAF9074B9B8CB5
:1033A0009BB2B3F5C87F04D2044B9B8C9AB2044BFA
:1033B0005A80024B00229A8480BD00BF0044014025
:1033C0004800002080B500AF0C480221FDF7A0F9AD
:1033D0000B4B9B6803F40073002B0AD1074B9B8CAB
:1033E0009BB2B3F5C87F04D2044B9B8C9AB2054BB9
:1033F0001A80024B00229A8480BD00BF0048014021
:10340000000C01404800002080B500AF284B00228E
:103410001A7044E01E2003F02BFE02F085FA0346EA
:103420001A46234B1A700020002102F02DFF214B79
:103430001B78184602F070FB1F4802F0E9FE1C4B97
:103440001B78DBB2042B05D11A4B1B780133DAB29F
:10345000184B1A70164B1B78DBB2012B05D1154B9C
:103460001B78013BDAB2134B1A700120002102F0E5
:103470000BFF124802F0CCFE11481249042202232D
:1034800002F076F90120072102F0FEFE0E4802F05C
:10349000BFFE0E480B4904220A2302F069F9044BCF
:1034A0001B78DBB2022BB5D103F0EAF880BD00BF78
:1034B000B500002016000020289800082C9800086D
:1034C0007400002090000020309800087000002058
:1034D00080B584B000AF0346FB71FB79434AA3FB80
:1034E00002015A1A52080A449209652101FB02F2AC
:1034F0009B1AFB713E4B00221A706DE002F014FA29
:1035000003461A463A4B1A700120032102F0BCFE12
:10351000FA79384B83FB02139911D317CB1A4FF466
:103520007A7101FB03F3D31A334A82FB031252115F
:10353000DB17D31ADBB23B72FB792F4AA2FB0312D3
:103540005209642101FB02F29B1ADAB22B4BA3FB56
:103550000213DB08DBB27B72FA79284BA3FB021360
:10356000D9080B469B000B445B00D31ADBB2BB723D
:10357000234802F04DFE07F10803184621490322B3
:10358000062302F0F5F801200C2102F07DFE1E4812
:1035900002F03EFE0A2003F06BFD154B1B78DBB2F8
:1035A000042B08D1FB79632B03D8FB790133FB7122
:1035B00001E00023FB710E4B1B78DBB2012B08D11D
:1035C000FB79002B02D10023FB7102E0FB79013B68
:1035D000FB710A2003F04CFD054B1B78DBB2022B7C
:1035E0008CD1FB7918461037BD4680BD57866F4495
:1035F000B5000020D34D62101F85EB51CDCCCCCC53
:1036000034980008900000203898000880B582B0F7
:1036100000AF0023BB800023FB7103F031F820488A
:1036200002F0F6FD0A2003F023FD3B1D40F2076087
:10363000194605F053FCBB88DBB21846FFF748FF7C
:103640000346FB710A2003F013FDFB799BB240F2A5
:103650000760194605F08EFC03F012F8114802F0DD
:10366000D7FD0A2003F004FD3B1D4FF4C16019464D
:1036700005F034FCBB88DBB21846FFF729FF034690
:10368000FB710A2003F0F4FCFB799BB24FF4C1609C
:10369000194605F06FFC02F0F3FF0837BD4680BD08
:1036A0003C9800084C98000880B485B000AF786062
:1036B0000023FB607B68FA2202FB03F3FB6000BF80
:1036C000FB685A1EFA60002BFAD11437BD465DF82C
:1036D000047B704780B584B000AF02F0D1FF0020BA
:1036E000002102F0D1FD02F0CBFF0020002102F00A
:1036F000CBFD9948012101F0B9FC47F23050FFF7AA
:10370000D3FF00F0D5FA6420FFF7CEFF934B1B8860
:103710009BB2BB800020002102F0B6FD9048022140
:1037200001F0A4FC47F23050FFF7BEFF00F0C0FAF2
:103730006420FFF7B9FF894B1B889BB2FB800020F8
:10374000002102F0A1FD8748062101F08FFC47F21D
:103750003050FFF7A9FF00F0ABFA6420FFF7A4FF99
:103760007E4B1B889BB23B8102F08AFF7E48012181
:1037700001F07CFC47F23050FFF796FF00F098FA1A
:103780006420FFF791FF754B1B889BB27B817B897F
:10379000DB089AB2BB88DB089BB29A4203D2734B18
:1037A00001221A700EE07B89DB089AB2BB88DB0825
:1037B0009BB29A4203D96D4B00221A7002E06B4B08
:1037C00002221A70694B1B78DBB2002B54D1FB88A4
:1037D0001A46BB88D31ADA0F13445B109BB2053B21
:1037E000FB81BA88FB895B089BB2D31A9AB2604B03
:1037F0001A80BA88FB8913449AB25D4B5A80FA88C2
:10380000FB89D31A9AB25A4B9A803B891A46FB8895
:10381000D31ADA0F13445B109BB2053BFB81FA8885
:10382000FB8913449AB2524BDA803A89FB89D31A46
:103830009AB24F4B1A817B891A463B89D31ADA0F09
:1038400013445B109BB2053BFB813A89FB8913440F
:103850009AB2474B5A817A89FB89D31A9AB2444B60
:103860009A817A89FB895B089BB213449AB2404BD8
:10387000DA8100F0DBF95AE03C4B1B78DBB2012B1C
:1038800050D1BB881A46FB88D31ADA0F13445B1059
:103890009BB2053BFB81BA88FB89D31A9AB2344BA1
:1038A0001A80BA88FB8913449AB2314B5A80FA883D
:1038B000FB89D31A9AB22E4B9A80FB881A463B8911
:1038C000D31ADA0F13445B109BB2053BFB81FA88D5
:1038D000FB8913449AB2264BDA803A89FB89D31AC2
:1038E0009AB2234B1A813B891A467B89D31ADA0F85
:1038F00013445B109BB2053BFB813A89FB8913445F
:103900009AB21B4B5A817A89FB89D31A9AB2184B07
:103910009A817A89FB8913449AB2154BDA8100F0B7
:1039200085F904E0134802F073FC00F0A1F9104B94
:103930001B889AB20E4B1B8A9BB29A4202D90B4B40
:1039400001221A700020002102F09EFC0A4802F0B9
:103950005FFC1037BD4680BD34980008D0000020C1
:10396000B09B0008B49B000838980008B400002001
:10397000A4000020BC9B0008CC9B000880B500AFD1
:1039800002F07EFE4FF4FA7003F072FB3A4B002215
:103990001A7068E001F0C8FF03461A46364B1A70E9
:1039A0000020002102F070FC344802F031FC344B5E
:1039B0001B889AB2334BA3FB02135B099BB2DBB2A9
:1039C000184602F0A9F82E4B1B889BB2DBB21846B2
:1039D00002F0A2F82C4802F01BFC294B5B889AB23B
:1039E000284BA3FB02135B099BB2DBB2184602F023
:1039F00093F8234B5B889BB2DBB2184602F08CF83D
:103A00000120002102F040FC204802F001FC1C4B88
:103A10009B889AB21B4BA3FB02135B099BB2DBB2E0
:103A2000184602F079F8164B9B889BB2DBB2184619
:103A300002F072F8164802F0EBFB114BDB889AB2E9
:103A4000104BA3FB02135B099BB2DBB2184602F0DA
:103A500063F80B4BDB889BB2DBB2184602F05CF8D4
:103A6000142003F005FB044B1B78DBB2022B91D131
:103A700002F006FE80BD00BFB50000209C96000845
:103A8000D00000201F85EB51D89B0008A4960008A9
:103A9000DC9B000880B582B000AF0023FB7102F010
:103AA000EFFD4FF4FA7003F0E3FA284B00221A708E
:103AB00041E001F039FF03461A46244B1A700020FA
:103AC000002102F0E1FB022003F0D2FA0023FB7197
:103AD00009E0FB791E4AD35CDBB21846FDF774F8A7
:103AE000FB790133FB71FB79042BF2D9012003F040
:103AF000BFFA0120002102F0C7FB154B5B79DBB256
:103B00001846FDF761F8124B9B79DBB21846FDF7BA
:103B10005BF8104802F07CFB0F4B1B78DBB21846B9
:103B200001F0FAFF0A480D490722092301F020FE9F
:103B3000142003F09DFA054B1B78DBB2022BB8D1A1
:103B400002F09EFD0837BD4680BD00BFB5000020D5
:103B50006816002090970008DE00002090000020EA
:103B600080B582B000AF0023FB7102F089FD4FF4F5
:103B7000FA7003F07DFA284B00221A7041E001F040
:103B8000D3FE03461A46244B1A700020002102F08F
:103B90007BFB022003F06CFA0023FB7109E0FB7948
:103BA0001E4AD35CDBB21846FDF70EF8FB790133F1
:103BB000FB71FB79042BF2D9012003F059FA0120A3
:103BC000002102F061FB154B5B79DBB21846FCF774
:103BD000FBFF124B9B79DBB21846FCF7F5FF104850
:103BE00002F016FB0F4B1B78DBB2184601F094FF76
:103BF0000A480D490722092301F0BAFD142003F0F9
:103C000037FA054B1B78DBB2022BB8D102F038FD36
:103C10000837BD4680BD00BFB500002094160020C7
:103C200090970008520000209000002080B582B0DC
:103C300000AF0023FB710023FB7110E0FB799BB206
:103C400003F20A639AB2F979084B33F811309BB248
:103C50001046194605F08EF9FB790133FB71FB79AB
:103C6000072BEBD90837BD4680BD00BFA40000205C
:103C700080B582B000AF0023FB710023FB710FE021
:103C8000FB799BB203F20A639AB2FB795900074BA6
:103C90000B441046194605F021F9FB790133FB71FD
:103CA000FB79072BECD90837BD4680BDA400002066
:103CB00080B49BB000AF002387F86730002387F8FB
:103CC000663000233B660023FB650023BB650023B1
:103CD0007B65002387F8663077E0002387F867303C
:103CE00048E097F8671097F8673001335B0007F1F9
:103CF0006802134433F8282C4B0007F168010B4489
:103D000023F8282C97F8671097F8673001335B0089
:103D100007F16802134433F83C2C4B0007F16801AB
:103D20000B4423F83C2C97F8671097F86730013361
:103D30005B0007F16802134433F8502C4B0007F185
:103D400068010B4423F8502C97F8671097F86730F8
:103D500001335B0007F16802134433F8642C4B0015
:103D600007F168010B4423F8642C97F8673001339E
:103D700087F8673097F86730082BB2D9274BDB6B91
:103D80009BB2A7F85230254B1B6C9BB2FB87234B91
:103D90005B6C9BB27B85214B9B6C9BB2FB82B7F823
:103DA00052303A6E13443B66FB8FFA6D1344FB6549
:103DB0007B8DBA6D1344BB65FB8A7A6D13447B65BA
:103DC00097F86630013387F8663097F86630082B2D
:103DD00083D93A6E124BA3FB0213DB089AB2114B44
:103DE0001A80FA6D0E4BA3FB0213DB089AB20D4B3F
:103DF0005A80BA6D0A4BA3FB0213DB089AB2094B37
:103E00009A807A6D064BA3FB0213DB089AB2054B2E
:103E1000DA806C37BD465DF8047B704700240140B2
:103E2000CDCCCCCCD000002080B584B000AF034610
:103E3000FB7100237B730023FB8102F021FC002037
:103E4000002102F021FA1F4802F0E2F9FB79013368
:103E5000FB71FB79184601F05FFE1B4802F0D8F9B0
:103E6000FB79013BFB71FB799BB203F2FF53FB81B2
:103E7000FA8907F10D031046194605F02FF8322094
:103E800003F0F6F87B7B184600F07EFC03467B735C
:103E9000322003F0EDF8FB799BB203F2FF53FB8174
:103EA0007B7BFA891046194605F064F8052003F07B
:103EB000DFF802F047F9052003F0DAF81037BD46C5
:103EC00080BD00BFE09B0008E89B000880B500AF04
:103ED000012003F0CDF802F0D3FB064802F098F978
:103EE0004FF4FA7003F0C4F802F0CAFB012003F0AB
:103EF000BFF880BDB09B000880B588B000AF786087
:103F00000023FB770023BB770023BB6100237B6189
:103F100000233B61FFF7CCFE01F08EFBB86100236C
:103F2000FB7772E0FB7F9BB21A46D20013449BB230
:103F300003F2DA53FB81FB89184601F0BDFF78617B
:103F4000FB8902339BB2184601F0B6FF38617B69EA
:103F5000584AA2FB0312120C574901FB02F29B1AAA
:103F60007B613B69534AA2FB0312120C524901FBCD
:103F700002F29B1A3B61BB694E4AA2FB0312120C70
:103F80004D4901FB02F29B1ABB61012003F070F85E
:103F9000012003F06DF8BA693B699A4206D2BA690A
:103FA0007B699A4202D90123BB7701E00023BB77EA
:103FB0007A693B699A420CD9BA697B699A4206D2FE
:103FC000BA693B699A4202D90023BB7701E0012319
:103FD000BB77BB7F012B0AD1FB7F012202FA03F3DF
:103FE0001A46364B1B681A43344B1A600AE0FB7FB3
:103FF000012202FA03F3DB431A46304B1B681A40D6
:104000002E4B1A60FB7F0133FB77FB7F022B89D994
:10401000012003F02DF80023FB7747E0FB7F9BB2E4
:104020001A46920013449BB203F5B863FB81FB89E7
:10403000184601F041FF7861FB8902339BB21846B4
:1040400001F03AFF3861012003F012F801F0F4FAB0
:10405000B861BB693A69B3FBF2F2396901FB02F25C
:104060009B1ABB61BA697B699A420CD20123BB7768
:10407000FB7F012202FA03F31A46114B1B681A4315
:104080000F4B1A600CE00023BB77FB7F012202FA82
:1040900003F3DB431A460A4B1B681A40084B1A60AD
:1040A000012002F0E5FFFB7F0133FB77FB7F022B52
:1040B000B4D92FE707452EC280510100B800002077
:1040C000BC00002080B400AFBD465DF8047B7047A3
:1040D00080B584B000AF78600023FB730023BB730E
:1040E00000237B7300233B73864B1B78DBB2332B9F
:1040F00000F0FE8000233B73F6E000237B733B7BE4
:10410000814AD35CBB73BB7B1F2B0ED8BB7B0122C8
:1041100002FA03F3DAB27D4B1B68DBB21340FB7388
:10412000FA7BBB7B42FA03F3FB73BB7B3F2B07D9C4
:10413000BB7B422B04D802237B73BB7B203BBB732E
:10414000BB7B422B07D9BB7B442B04D803237B7357
:10415000BB7B233BBB73BB7B452B04D9BB7B472B72
:1041600001D804237B73BB7B502B01D105237B73C8
:10417000BB7B632B06D1FF237B733B7B184601215E
:1041800000F0E0F9BB7B622B06D1FE237B733B7B07
:104190001846002100F0D6F9BB7B1F2B14D9BB7B3E
:1041A0003F2B11D8BB7B203BBB73BB7B012202FAA8
:1041B00003F3DAB2564B1B68DBB21340FB73FA7B96
:1041C000BB7B42FA03F3FB737B7B022B13D1FB7B9C
:1041D000002B40F083804F4B1B881A463B7B42FAF2
:1041E00003F303F00103002B78D03B7B184600213A
:1041F00000F0A8F972E07B7B032B44D1FB7B012B01
:1042000015D1444B1B881A463B7B42FA03F303F05B
:104210000103002B0BD1BB7B002B08D13E4B1B783D
:10422000012B04D13B7B1846012100F08BF9FB7B6D
:10423000012B15D1374B1B881A463B7B42FA03F3FF
:1042400003F00103002B0BD1BB7B002B08D1324BB9
:104250001B78002B04D13B7B1846012100F072F93A
:10426000FB7B002B3AD12B4B1B881A463B7B42FA37
:1042700003F303F00103002B30D03B7B18460021F1
:1042800000F060F92AE07B7B042B27D07B7B052B99
:1042900024D1224B1B7803F00103002B1ED0204BAE
:1042A0001B7803F00103002B18D11E4B9B889AB298
:1042B0001D4B1B889A4203D90020002100F042F9CF
:1042C000012002F0D5FE174B9B889AB2174B1B8832
:1042D0009A4203D20020012100F034F9012002F0BB
:1042E000C7FE3B7B01333B733B7B032B7FF605AF64
:1042F000012002F0BDFE012002F0BAFEFFF7E2FE4F
:10430000F2E600BF1400002018000020B8000020D2
:10431000BC000020C40000207C000020170000200A
:10432000B6000020D0000020CA000020CC000020F1
:1043300080B582B000AF0023FB710023BB80002357
:104340007B8000233B80524B33221A7002F098F995
:1043500040F2FF537B807B881846502104F00AFE10
:104360003B884C4A5021D1544B4801F051FF31E079
:104370000120002101F088FF484801F049FFFB7946
:10438000012B03D10020012100F0DCF8FB79022B86
:1043900003D10020002100F0D5F8FB79032B04D1D4
:1043A0003F4B9B889AB23F4B1A80192002F060FE67
:1043B0003B4B9B889BB21846FCF766FE3A4801F0DF
:1043C00027FF384B1B881846FCF75EFE01F0ACFA5D
:1043D0000346FB71FB79042BCAD1344B1B7818467A
:1043E000002100F0AFF8FFF771FD0023FB7131E011
:1043F0000120002101F048FF2D4801F009FFFB7961
:10440000012B03D10020012100F09CF8FB79022B45
:1044100003D10020002100F095F8FB79032B04D193
:104420001F4B9B889AB2234B1A800A2002F020FE71
:104430001B4B9B889BB21846FCF726FE1A4801F0DE
:10444000E7FE1C4B1B881846FCF71EFE01F06CFAB9
:104450000346FB71FB79042BCAD10020002100F038
:1044600071F80B4B30221A700E4B1B8840F24760DC
:10447000194604F07FFD0F4B1B884FF4C9601946A5
:1044800004F078FDFFF722FD0837BD4680BD00BF70
:104490001400002018000020F09B0008009C000879
:1044A000D0000020CA000020089C0008C80000209E
:1044B0000C9C0008CC00002080B582B000AF002327
:1044C000FB710023BB711D4B33221A702CE00020BE
:1044D000002101F0D9FE1A4801F09AFEFB79184636
:1044E00001F01AFBBB79012B07D1FB790133FB717A
:1044F000FB79042B01D10023FB71BB79022B04D182
:10450000FB791846012100F01DF8BB79032B04D17B
:10451000FB791846002100F015F80A2002F0A8FDEA
:1045200001F002FA0346BB71BB79042BCFD1034BD8
:1045300030221A700837BD4680BD00BF140000202D
:10454000149C000880B483B000AF02460B46FA7199
:10455000BB71FB79002B03D1BB79C3F10103BB71A4
:10456000BB79012B13D1174BFA79012101FA02F221
:104570001A61FB79012202FA03F39AB2124B1B88EB
:104580009BB213439BB29AB20F4B1A8014E00D4BAF
:10459000FA79012101FA02F25A61FB79012202FA49
:1045A00003F39BB2DB439AB2074B1B889BB21340C9
:1045B0009BB29AB2044B1A800C37BD465DF8047B5F
:1045C000704700BF00100140C400002080B584B0D7
:1045D00000AF03463960FB803B68FB813B681B0CE6
:1045E000BB81FB8801339AB2FB891046194604F05F
:1045F000C1FCFA88BB891046194604F0BBFC103791
:10460000BD4680BD80B586B000AF0346FB71002378
:104610007B610023FB7402F033F8FB79013B1B2B19
:1046200000F2A98001A252F823F000BF77470008EA
:104630009D460008C1460008C7460008CD46000850
:10464000E946000877470008774700080D4700084B
:104650007747000877470008774700087747000842
:104660007747000877470008774700083147000878
:1046700043470008774700084947000853470008A8
:10468000594700085F470008774700087747000848
:10469000774700086B47000871470008374801F06A
:1046A000B7FD01200421012200F0BCFA0346FB748F
:1046B000FB7C013BFB74FB7C184600F0FBFA5AE0E4
:1046C000FFF7FAFE57E0FFF733FE54E000F0B4FFC7
:1046D00078617869012100F067FBF860F86800F004
:1046E000BDFF01F0CDFF46E0254801F091FD01201E
:1046F0000421012200F096FA0346FB74FB7C013B87
:10470000FB74FB7C184600F015FA34E01D4801F0FC
:104710007FFD01200421012200F084FA0346FB748E
:10472000FB7C013BFB74FB7C1846FFF77DFB22E022
:10473000FEF76AFEFFF722F9FFF7ACF9FFF710FA70
:1047400019E0FEF763FF16E0FEF74CF8FEF74AF8B3
:1047500011E0FEF7C7FA0EE0FEF7A8FA0BE0002022
:1047600000216422FCF7C0FB05E0FEF7ADFB02E090
:10477000FDF79EFD00BF1837BD4680BD1C9C00089C
:10478000309C0008449C000880B582B000AF03460E
:10479000FB71FB79632B01D96323FB71224B002250
:1047A0001A7035E001F0C0F803461A461E4B1A7025
:1047B000192002F05DFC1C4B1B78DBB2012B08D1E9
:1047C000FB79012B02D8FF23FB7102E0FB79013B4F
:1047D000FB71154B1B78DBB2042B08D1FB79FF2B47
:1047E00002D10123FB7102E0FB790133FB7101204F
:1047F000002101F049FD0D4801F00AFDFB79184642
:10480000FCF7E2F90A4801F003FD192002F030FC40
:10481000054B1B78DBB2022BC4D1FFF757FBFB79AA
:1048200018460837BD4680BDB50000208C9C0008A6
:10483000909C000880B582B000AF0346FB80FA88E8
:104840004FF6FF739A4201D10023FB80244B0022D4
:104850001A7038E001F068F803461A46204B1A70C7
:10486000192002F005FC1E4B1B78DBB2012B09D18D
:10487000FB88002B03D14FF6FF73FB8002E0FB881F
:10488000013BFB80164B1B78DBB2042B0AD1FA8864
:104890004FF6FF739A4202D10023FB8002E0FB88AF
:1048A0000133FB800120042101F0EEFC0D4801F0F2
:1048B000AFFCFB881846FCF7E7FB0B4801F0A8FCAF
:1048C000192002F0D5FB064B1B78DBB2022BC1D1BD
:1048D000FFF7FCFAFB8818460837BD4680BD00BFCD
:1048E000B50000208C9C0008909C000880B586B024
:1048F00000AF02460B46FA807B71FA884FF6FF73D1
:104900009A4201D10023FB80C82002F0B1FB254B65
:1049100000221A703AE001F007F803461A46214BCC
:104920001A707B79184602F0A3FB1E4B1B78DBB292
:10493000012B09D1FB88002B03D14FF6FF73FB80BD
:1049400002E0FB88013BFB80164B1B78DBB2042B9B
:104950000AD1FA884FF6FF739A4202D10023FB80F6
:1049600002E0FB880133FB800120042101F08CFC74
:104970000D4801F04DFCFB881846FCF785FB0B4801
:1049800001F046FC7B79184602F072FB054B1B7860
:10499000DBB2022BBFD1FFF799FAFB881846183714
:1049A000BD4680BDB50000208C9C0008909C00088E
:1049B00080B586B000AF786079685A4BA3FB0123BD
:1049C0005A0913461B019B1A9B00CA1A13467B7592
:1049D0007A68544BA3FB02135B097B607968514BE7
:1049E000A3FB01235A0913461B019B1A9B00CA1AF9
:1049F0001346BB757A684B4BA3FB02135B097B60C4
:104A00007968494BA3FB01239A0913465B001344C1
:104A10005A011344CA1A1346FB7501F031FE1420E3
:104A200002F026FB73E000F07FFF03463B753B7D01
:104A3000012B08D1FB7D622B02D90023FB7502E01C
:104A4000FB7D0133FB753B7D022B08D1BB7D3A2BEF
:104A500002D90023BB7502E0BB7D0133BB753B7DF2
:104A6000032B08D17B7D3A2B02D900237B7502E012
:104A70007B7D01337B75052002F0FAFA00200421CA
:104A800001F002FCFB7D184601F046F8274801F0D2
:104A9000BFFBBB7D184601F03FF8244801F0B8FB8E
:104AA0007B7D184601F038F8052002F0E1FAFB7D25
:104AB000FB74BB7DBB747B7D7B74FB7C4FF46162BC
:104AC00002FB03F37B60BA7C13461B019B1A9B001D
:104AD0007A6813447B607B7C7A6813447B60052092
:104AE00002F0C6FA0120032101F0CEFB07F1080312
:104AF0007868194601F0FAF807F1080318460C49DE
:104B00000A22022300F034FE0A2002F0B1FA3B7DB3
:104B1000042B88D1FFF7DAF97B6818461837BD46B1
:104B200080BD00BF8988888803B57EA5949C000855
:104B30009000002080B584B000AF0346FB710A20CE
:104B400002F096FA01F09CFDFB799BB21A469200A6
:104B500013449BB203F5B8637B817B89184601F04F
:104B6000ABF9F860FA682C4B9A4201D92A4BFB60EA
:104B70000020022101F088FB284801F049FB40F6A3
:104B8000B83002F075FAF868FFF712FFF860FB79A9
:104B90009BB21A46920013449BB203F5B8637B8123
:104BA0007B891846F968FFF711FD322002F060FAA0
:104BB000FFF78CF9FB799BB21A46920013449BB223
:104BC00003F2C2537B817B89184601F075F9F860C6
:104BD00001F056FD0020022101F056FB104801F0C3
:104BE00017FB4FF4FA7002F043FAF868FFF7E0FEA3
:104BF000F860FB799BB21A46920013449BB203F211
:104C0000C2537B817B891846F968FFF7DFFCFFF709
:104C10005DF91037BD4680BD30700500989C0008D6
:104C2000A89C000880B582B000AF13460246FA7116
:104C30000A46BA717B711E4B00221A702BE01920B4
:104C400002F016FA0120002101F01EFB7B791846C4
:104C500000F062FF164B1B78DBB2042B06D17A7989
:104C6000BB799A4202D27B7901337B71104B1B785E
:104C7000DBB2012B06D17A79FB799A4202D97B7992
:104C8000013B7B7100F050FE03461A46084B1A7038
:104C9000192002F0EDF9064B1B78DBB2022BCED1C6
:104CA000FFF714F97B7918460837BD4680BD00BF71
:104CB000B500002080B586B000AF0346FB71FB79DC
:104CC0009BB21A46D20013449BB203F2DA53FB8222
:104CD00001F0D6FC0020022101F0D6FA304801F0A4
:104CE00097FA40F2DC5002F0C3F901F0C9FC32201F
:104CF00002F0BEF9FB8A184601F0DEF83861322076
:104D000002F0B6F93869012100F04EF8F860FB8A2C
:104D10001846F968FFF75AFC0020022101F0B4FAA6
:104D2000204801F075FA322002F0A2F902F002FAEE
:104D3000FB799BB21A46D20013449BB203F2DC53B8
:104D4000FB82FB8A184601F0B7F8386102F000FADE
:104D500040F2DC5002F08CF901F092FC386901213C
:104D600000F022F8F860FB8A1846F968FFF72EFC7D
:104D700002F0E0F9FB799BB21A46D20013449BB2D1
:104D800003F2DE53FB82FB8A184601F095F8386186
:104D900002F0DEF9322002F06BF91837BD4680BD13
:104DA000B89C0008C49C000890B593B000AF78612F
:104DB0000B46FB7401F064FC07F134031846796973
:104DC00000F074F985E000F0AFFD03461A46A34BEE
:104DD0001A70A24B1B78DBB2012B09D1BB8E162BAC
:104DE00002D90023BB8603E0BB8E01339BB2BB8696
:104DF0009A4B1B78DBB2022B09D1FB8E3A2B02D9DE
:104E00000023FB8603E0FB8E01339BB2FB86934BB2
:104E10001B78DBB2032B09D13B8F3A2B02D900233D
:104E20003B8703E03B8F01339BB23B87052002F0B9
:104E30001FF90020002101F027FABB8EDBB21846D3
:104E400000F06AFE864801F0E3F9FB8EDBB21846FB
:104E500000F062FE824801F0DBF93B8FDBB21846BE
:104E600000F05AFE07F134030FCB00F09DFA78648E
:104E700007F124031846796C00F018F907F11803BC
:104E8000786C194600F032FF00200A2101F0FCF98D
:104E9000BB8CDBB2184600F03FFEFB8CDBB2184641
:104EA00000F03AFE3B8DDBB2184600F035FE0120E3
:104EB000022101F0E9F9052002F0DAF807F1180300
:104EC000184668490A22022300F052FC142002F01E
:104ED000CFF8624B1B78DBB2042B7FF474AF5F4BCF
:104EE00000221A70FEF7F2FFFB7C012B40F0988045
:104EF0008FE000F019FD03461A46584B1A70574BC5
:104F00001B78DBB2032B09D1FB8F322B02D90C2388
:104F1000FB8703E0FB8F01339BB2FB874F4B1B7872
:104F2000DBB2022B09D1BB8F0B2B02D90123BB872C
:104F300003E0BB8F01339BB2BB87484B1B78DBB2CE
:104F4000012B09D17B8F1E2B02D901237B8703E024
:104F50007B8F01339BB27B87052002F089F807F134
:104F600034030FCB00F020FA78643B461846796C86
:104F700000F09CF807F124033C4620686168A268B1
:104F800007C3A2891A8007F11803786C194600F04C
:104F9000ADFE052002F06CF80020002101F074F94C
:104FA0007B8FDBB2184600F0B7FD2F4801F030F9D7
:104FB000BB8FDBB2184600F0AFFD2B4801F028F99B
:104FC000FB8FDBB2184600F0A7FD052002F050F879
:104FD00000200A2101F058F97B8DDBB2184600F061
:104FE0009BFDBB8DDBB2184600F096FDFB8DDBB25E
:104FF000184600F091FD052002F03AF807F1180379
:10500000184618490A22022300F0B2FB322002F0AF
:105010002FF8124B1B78DBB2042B7FF46AAF16E03B
:1050200000237B64BB8E4FF4616202FB03F37A6C56
:1050300013447B64FB8E1A4613461B019B1A9B008C
:105040007A6C13447B643B8F7A6C13447B64FEF769
:105050003DFF7B6C18464C37BD4690BDB500002027
:10506000949C000890000020D49C000880B584B077
:1050700000AF78600B46FB700023BB730023FB730B
:105080000023FB730BE0FB7B7A6813441B78BB7334
:10509000BB7B184601F0A2F9FB7B0133FB73FA7B63
:1050A000FB789A42EFD31037BD4680BD90B48AB0EA
:1050B00000AF786039603A68AD4B13443B623968A1
:1050C000AC4BA3FB01035A0913461B019B1A9B001F
:1050D000CA1A93B23B823A68A64BA3FB02135B0940
:1050E0003B603968A34BA3FB01235A0913461B01FC
:1050F0009B1A9B00CA1A93B2FB813A689D4BA3FB93
:1051000002035B093B6039689B4BA3FB01231A092F
:1051100013465B001344DB00CA1A93B2BB813A6AA0
:10512000964BA3FB02031B0C3B623A6A944BA3FB16
:105130000213DB0940F2B55101FB03F3D31AFB83E1
:105140003A6A8F4BA3FB0203DB097B77FB8B0133AE
:10515000FB83FB8B3A2B08D87B7F03339BB29B00EE
:105160009BB2FB82FB8B0133BB84FB8B3A2B18D9A0
:10517000FB8BB3F5B77F14D87B7F9BB29B009AB2B1
:10518000FB8B013B7F4981FB030119440912DB17AB
:10519000CB1A9BB213449BB20C339BB2FB82FB8BAA
:1051A000BB84FB8BB3F5B77F24D37B7F9BB29B0083
:1051B0009AB2FB8B013B734981FB0301194409122D
:1051C000DB17CB1A9BB213449BB20C339BB2FB820E
:1051D000FB8BA3F5B7736B4A82FB03121A441112BF
:1051E000DA178A1A40F26D1101FB02F29A1A93B291
:1051F0000133BB84BB8C002B08D0BB8C1F2B05D884
:10520000012387F82730BB8C87F82630BB8C1F2BF7
:105210000AD9BB8C3B2B07D8022387F82730BB8CDD
:10522000DBB21F3B87F82630BB8C3B2B0AD9BB8CEB
:105230005A2B07D8032387F82730BB8CDBB23B3BC4
:1052400087F82630BB8C5A2B0AD9BB8C782B07D811
:10525000042387F82730BB8CDBB25A3B87F8263013
:10526000BB8C782B0AD9BB8C972B07D8052387F8E2
:105270002730BB8CDBB2783B87F82630BB8C972B72
:105280000AD9BB8CB52B07D8062387F82730BB8CEF
:10529000DBB2693387F82630BB8CB52B0AD9BB8CBF
:1052A000D42B07D8072387F82730BB8CDBB24B33CE
:1052B00087F82630BB8CD42B0AD9BB8CF32B07D8AC
:1052C000082387F82730BB8CDBB22C3387F82630D5
:1052D000BB8CF32B0BD9BB8CB3F5897F07D2092389
:1052E00087F82730BB8CDBB20D3387F82630BB8CB8
:1052F000B3F5897F0BD3BB8CB3F5987F07D80A230E
:1053000087F82730BB8CDBB2113B87F82630BB8C8B
:10531000B3F5987F0BD9BB8CB3F5A77F07D80B23C8
:1053200087F82730BB8CDBB2303B87F82630BB8C4C
:10533000B3F5A77F0BD9BB8CB3F5B77F07D20C238E
:1053400087F82730BB8CDBB24E3B87F8263097F8C6
:1053500026309BB27B8297F827309BB2BB82FB8BB7
:105360003B2B11D11D237B820223BB820CE000BFAB
:10537000800CFFB089888888ABAAAAAA07452EC2EC
:1053800073B06D16B1F98CB37B681C4607F10C0342
:1053900007CB20606160A2601B88A38178682837F2
:1053A000BD4690BC704700BF90B486B000AF3C468D
:1053B00084E80F003B890C2B45D801A252F823F05A
:1053C000F5530008F9530008FF530008055400087E
:1053D0000B54000811540008175400081D5400080D
:1053E00023540008295400082F540008375400089B
:1053F0003F5400080023FB820023FB8223E01F238D
:10540000FB8220E03B23FB821DE05A23FB821AE053
:105410007823FB8217E09723FB8214E0B523FB82FD
:1054200011E0D423FB820EE0F323FB820BE040F279
:105430001113FB8207E04FF49873FB8203E04FF4F3
:10544000A773FB8200BFFA88FB8A1344BB82BB8A26
:105450003B2B08D87B8903F003039BB2002B02D1BE
:10546000BB8A013BBB823B89022B0BD1FB881C2BE7
:1054700008D97B8903F003039BB2002B02D1BB8ABE
:10548000013BBB82BB8A002B01D10123BB827B89FC
:105490000C3B1B4A02FB03F33B613B884FF4616208
:1054A00002FB03F33A6913443B617B881A461346B7
:1054B0001B019B1A9B003A6913443B61BB881A4647
:1054C0003B691A440F4B13443B61BB8A023B0E4AB3
:1054D00002FB03F33A6913443B617B89083B002BD1
:1054E00000DA03339B10084A02FB03F33A691344C2
:1054F0003B613B6918461837BD4690BC704700BFFA
:105500008033E10180F3004F8051010080B582B00B
:1055100000AF0023FB710023BB71FA7944491346A5
:10552000DB009B1A0B4401331B787B7174E0FA7922
:105530003F491346DB009B1A0B4401331B787B71F8
:105540000020002100F0A0FE7A791346DB0013440E
:105550005B00384A1344184600F05AFE00F0E4F9A4
:1055600003463B713B79002B04D0642001F080FDA1
:1055700001F086F80A2001F07BFD3B79022B1FD158
:10558000FA792B491346DB009B1A0B4406331B7830
:10559000012B09D1FA7926491346DB009B1A0B44EB
:1055A00004331B78BB7108E0FA7921491346DB000C
:1055B0009B1A0B4404331B78FB7101F061F82BE05C
:1055C0003B79032B0BD1FA7919491346DB009B1A5F
:1055D0000B4405331B78FB7101F052F81CE03B795A
:1055E000012B0BD1FA7912491346DB009B1A0B44AD
:1055F00002331B78FB7101F043F80DE03B79042B7B
:105600000AD1FA790A491346DB009B1A0B4403338B
:105610001B78FB7101F034F8BB79002B87D0012097
:1056200001F026FDBB7918460837BD4680BD00BF96
:10563000C09A00085C98000880B400AF064B1B8B32
:105640009BB21A04044B9B8B9BB213431846BD4676
:105650005DF8047B704700BF0028004080B483B031
:1056600000AF78600E4B0E4A928892B242F0100260
:1056700092B29A800A4B7A68120C92B21A83084B43
:105680007A6892B29A83064B054A928892B222F0C7
:10569000100292B29A800C37BD465DF8047B7047C9
:1056A0000028004080B400AF2E4B2E4AD26942F051
:1056B000C052DA612C4B2C4A126842F480721A6094
:1056C000284B1B6A03F40043002B44D1254B254A89
:1056D000126A42F480321A62224B224A126A22F47F
:1056E00080321A621F4B1F4A126A42F401421A6248
:1056F0001E4B1E4A928892B242F0100292B29A80D9
:105700001A4B47F6FF729A81184B184A928892B248
:1057100022F0100292B29A80124B124A126A42F0A0
:1057200001021A6200BF0F4B1B6A03F00103002B3A
:10573000F9D00E4B0D4A928892B222F0080292B232
:105740009A8000BF094B9B889BB203F00803002B93
:10575000F8D0012300E000231846BD465DF8047B25
:10576000704700BF00100240007000400028004059
:1057700080B487B000AFF860B960FA71BB710023E4
:10578000FB750023FB750DE0FA7DBB791344BA6805
:105790001344FA7DF9680A441278D2B21A70FB7D7C
:1057A0000133FB75FA7DFB799A42EDD31C37BD4678
:1057B0005DF8047B704700BF80B588B000AF7860AB
:1057C0000023FB6100F05CFF03F058FE0A2001F0AB
:1057D0004FFCFFF731FFF86107F10C031846F96938
:1057E000FFF764FC7A8A4C4BA3FB0213DB089BB2E5
:1057F000DBB23033DAB2494B1A707A8A464BA3FBDC
:105800000213D9080B469B000B445B00D31A9BB2D2
:10581000DBB23033DAB2414B5A70404B2D229A70D2
:10582000BA8A3D4BA3FB0213DB089BB2DBB23033D9
:10583000DAB23A4BDA70BA8A374BA3FB0213D908B3
:105840000B469B000B445B00D31A9BB2DBB2303398
:10585000DAB2324B1A71314B2D225A71FA8A2E4B21
:10586000A3FB0213DB089BB2DBB23033DAB22B4B63
:105870009A71FA8A284BA3FB0213D9080B469B00A6
:105880000B445B00D31A9BB2DBB23033DAB2234B4A
:10589000DA71234B20229A71214B2022DA710120E8
:1058A000002100F0F1FCBB89DBB2184600F034F9AE
:1058B000FB89DBB2184600F02FF93B8ADBB21846B1
:1058C00000F02AF9052001F0D3FB0E2001F0D0FBF7
:1058D00000F02AF803461A46124B1A70032001F012
:1058E000C7FB104B1B78DBB2022B10D1642001F0F8
:1058F000BFFB00F0C5FE4FF4FA7001F0B9FBFFF7F3
:1059000005FE0346FB76FB7E1846FEF77BFE0A206B
:1059100001F0AEFB58E700BFCDCCCCCC800000201E
:1059200090000020B500002080B582B000AF0023B9
:10593000BB80FEF7BDF9154B1B88BB800023FB71B4
:105940001BE0BA88FB795900114B33F811309BB238
:105950001E339A420EDDBA88FB795B00591C0C4B52
:1059600033F811309BB21E3B9A4203DAFB790133C4
:10597000DBB206E0FB790133FB71FB79032BE0D945
:10598000002318460837BD4680BD00BFD000002068
:10599000A400002080B400AF5B4B5B4A926942F0E8
:1059A00004029A61594B594A126822F00C021A609B
:1059B000564B564A126822F0C0021A60534B534AA3
:1059C000126822F440621A60504B504A126822F466
:1059D00040421A604E4B4E4A126822F003021A608F
:1059E0004B4B4B4A126822F00C021A60484B484A53
:1059F000126822F030021A60454B454A126822F0C4
:105A0000C0021A60424B424A126822F440721A6085
:105A10003F4B3F4A126822F440621A603C4B3C4ABA
:105A2000126822F440521A60394B394A126822F443
:105A300040421A60344B344A926942F400729A61CF
:105A4000314B314A526822F440425A60314B0022B5
:105A50005A60304B2F4A926842F004029A6000BFAD
:105A60002C4B9B6803F00403002BF9D0294B4FF417
:105A7000E0429A60274B274A926842F400429A60BB
:105A8000244B244A926842F002029A60214B214A38
:105A9000526842F480725A601E4B1E4A526842F4A9
:105AA00080625A601B4B4FF440129A63194B194A9B
:105AB000926B42F001029A63164B164A926B42F0C7
:105AC00040029A63134B134A926B42F440629A630A
:105AD000104B104A926B42F400329A630D4B0D4A00
