:020000040800F2
:10000000C41A002031070008910700089107000872
:100010009107000891070008910700080000000000
:100020000000000000000000000000003D910008FA
:100030009107000800000000119200084D9200088E
:100040009107000891070008910700089107000830
:100050009107000891070008C1250008DD25000868
:10006000F92500089107000891070008910700088A
:100070009107000891070008092200081D220008C6
:100080009107000891070008910700080000000090
:10009000000000000000000000000000252600080D
:1000A000B93A0008FD3B0008313C00089107000800
:1000B00091070008593900089107000891070008C6
:1000C00091070008910700089107000891070008B0
:1000D00091070008391200089107000891070008ED
:1000E000052600089107000891070008000000009D
:1000F0000000000000000000000000000000000000
:1001000000000000000000000000000000000000EF
:10011000000000000000000091070008910700089F
:100120005FF808F180B485B000AF786039600023D3
:10013000FB817B681B88FB817A682E4B9A4213D027
:100140007A682D4B9A420FD07B68B3F1804F0BD069
:100150007A682A4B9A4207D07A68294B9A4203D090
:100160007A68284B9A4208D1FB8923F07003FB81FF
:100170003B685A88FB891343FB817A68224B9A4279
:100180000CD07A68214B9A4208D0FB8923F4407343
:10019000FB813B68DA88FB891343FB817B68FA8922
:1001A0001A803B689A887B689A853B681A887B68C6
:1001B0001A857A680F4B9A420FD07A680E4B9A4292
:1001C0000BD07A68124B9A4207D07A68114B9A4248
:1001D00003D07A68104B9A4204D13B681B7A1A46C6
:1001E0007B681A867B6801229A821437BD465DF8C7
:1001F000047B7047002C01400034014000040040A3
:1002000000080040000C00400010004000140040B6
:1002100000400140004401400048014080B485B0E6
:1002200000AF7860396000237B810023FB810023CD
:10023000BB817B681B8C9BB223F001039AB27B6865
:100240001A847B681B8CFB817B689B88BB817B68E5
:100250001B8B7B817B8923F070037B817B8923F05F
:1002600003037B813B681A887B8913437B81FB896D
:1002700023F00203FB813B681A89FB891343FB814E
:100280003B685A88FB891343FB817A68244B9A4266
:100290000FD07A68234B9A420BD07A68224B9A424D
:1002A00007D07A68214B9A4203D07A68204B9A4251
:1002B00023D1FB8923F00803FB813B685A89FB8922
:1002C0001343FB81FB8923F00403FB813B689A887D
:1002D000FB891343FB81BB8923F48073BB81BB89FA
:1002E00023F40073BB813B689A89BB891343BB81AC
:1002F0003B68DA89BB891343BB817B68BA899A80E2
:100300007B687A891A833B68DA887B689A867B687F
:10031000FA891A841437BD465DF8047B704700BF24
:10032000002C0140003401400040014000440140E5
:100330000048014080B485B000AF78603960002388
:100340007B810023FB810023BB817B681B8C9BB2DC
:1003500023F010039AB27B681A847B681B8CFB81A4
:100360007B689B88BB817B681B8B7B817B8923F4AB
:10037000E0437B817B8923F440737B813B681B884E
:100380001B029AB27B8913437B81FB8923F02003F4
:10039000FB813B681B891B019AB2FB891343FB81DC
:1003A0003B685B881B019AB2FB891343FB817A6827
:1003B000224B9A4203D07A68214B9A422BD1FB8977
:1003C00023F08003FB813B685B891B019AB2FB89A8
:1003D0001343FB81FB8923F04003FB813B689B882F
:1003E0001B019AB2FB891343FB81BB8923F4806311
:1003F000BB81BB8923F40063BB813B689B899B0065
:100400009AB2BB891343BB813B68DB899B009AB2DC
:10041000BB891343BB817B68BA899A807B687A89E0
:100420001A833B68DA887B681A877B68FA891A84A2
:100430001437BD465DF8047B704700BF002C0140B7
:100440000034014080B485B000AF7860396000238B
:100450007B810023FB810023BB817B681B8C9BB2CB
:1004600023F480739AB27B681A847B681B8CFB81AF
:100470007B689B88BB817B689B8B7B817B8923F01E
:1004800070037B817B8923F003037B813B681A889F
:100490007B8913437B81FB8923F40073FB813B68D9
:1004A0001B891B029AB2FB891343FB813B685B8863
:1004B0001B029AB2FB891343FB817A68224B9A4252
:1004C00003D07A68214B9A422BD1FB8923F4006335
:1004D000FB813B685B891B029AB2FB891343FB815A
:1004E000FB8923F48063FB813B689B881B029AB2E3
:1004F000FB891343FB81BB8923F48053BB81BB89F8
:1005000023F40053BB813B689B891B019AB2BB89D2
:100510001343BB813B68DB891B019AB2BB89134340
:10052000BB817B68BA899A807B687A899A833B68A9
:10053000DA887B689A877B68FA891A841437BD4603
:100540005DF8047B704700BF002C0140003401407F
:1005500080B485B000AF786039600023BB81002390
:100560007B810023FB817B681B8C9BB223F480532F
:100570009AB27B681A847B681B8C7B817B689B8822
:10058000FB817B689B8BBB81BB8923F4E043BB81F0
:10059000BB8923F44073BB813B681B881B029AB262
:1005A000BB891343BB817B8923F400537B813B6868
:1005B0001B891B039AB27B8913437B813B685B8851
:1005C0001B039AB27B8913437B817A68124B9A4250
:1005D00003D07A68114B9A420AD1FB8923F48043F5
:1005E000FB813B689B899B019AB2FB891343FB818A
:1005F0007B68FA899A807B68BA899A833B68DA8833
:100600007B68A3F840207B687A891A841437BD463A
:100610005DF8047B704700BF002C014000340140AE
:1006200080B483B000AF78607B684FF6FF729A8029
:100630007B6800221A807B680022DA807B680022B7
:100640005A807B6800221A720C37BD465DF8047B25
:10065000704700BF80B483B000AF78607B68002231
:100660001A807B6800225A807B6800229A807B680F
:100670000022DA807B6800221A817B6800225A817E
:100680007B6800229A817B680022DA810C37BD46A4
:100690005DF8047B704700BF80B483B000AF786022
:1006A0000B46FB70FB78002B08D07B681B889BB245
:1006B00043F001039AB27B681A8007E07B681B88CD
:1006C0009BB223F001039AB27B681A800C37BD46B7
:1006D0005DF8047B704700BF80B483B000AF7860E2
:1006E0007B689B8E9BB218460C37BD465DF8047B39
:1006F000704700BF80B483B000AF78607B681B8F09
:100700009BB218460C37BD465DF8047B704700BFAE
:1007100080B483B000AF78600B467B807B88DB437E
:100720009AB27B681A820C37BD465DF8047B70472D
:1007300080B582B000AF114B7B60114B3B6007E08E
:100740003B681A1D3A607A68111D796012681A6058
:100750003A680C4B9A42F3D30B480C494FF0000215
:100760008842B8BF40F8042BFFF6FAAF00F014F847
:1007700006F04CF80837BD4680BD00BF38A600081B
:10078000000000204000002040000020C81600208B
:1007900080B400AFFEE700BF80B500AF164B164A2D
:1007A000126842F001021A60134A134B5968134B46
:1007B0000B405360104A104B1B6823F0847323F4E2
:1007C000803313600C4B0C4A126822F480221A60AA
:1007D000094B094A526822F4FE025A60064B4FF454
:1007E0001F029A60044B0022DA6200F00BF8044BFF
:1007F0004FF000629A6080BD001002400000FFF8D8
:1008000000ED00E080B500AF00F002F880BD00BF51
:1008100080B483B000AF00237B6000233B60304B8B
:100820002F4A126842F480321A602D4B1B6803F481
:1008300000333B607B6801337B603B68002B03D156
:100840007B68B3F5A06FF0D1254B1B6803F0020362
:10085000002B02D001233B6001E000233B603B689A
:10086000012B37D11E4B1E4A52685A601C4B1C4A42
:1008700052685A601A4B1A4A52685A60184B184A02
:10088000526822F47C125A60154B154A526842F4A1
:1008900098125A60124B124A126842F080721A6023
:1008A00000BF0F4B1B6803F00073002BF9D00C4BFB
:1008B0000B4A526822F003025A60094B084A5268F8
:1008C00042F002025A6000BF054B5B6803F00C0364
:1008D000082BF9D10C37BD465DF8047B704700BF8B
:1008E0000010024080B489B000AF78603960002306
:1008F000FB6100233B610023BB610023FB600023FD
:100900007B610023BB603B68DB7803F00F03FB6176
:100910003B68DB7803F01003002B04D03B689B7826
:10092000FA691343FB613B681B88DBB2002B44D0A0
:100930007B681B687B610023BB6138E0BB690122D7
:1009400002FA03F3FB603B681B881A46FB681340FE
:100950003B613A69FB689A4226D1BB699B00FB6008
:10096000FB680F2202FA03F3BB60BB68DB437A69C2
:1009700013407B61FB68FA6902FA03F37A69134357
:100980007B613B68DB78282B05D1BB6901229A404B
:100990007B685A6108E03B68DB78482B04D1BB696F
:1009A00001229A407B681A61BB690133BB61BB6954
:1009B000072BC3D97B687A691A603B681B88FF2BB9
:1009C00046D97B685B687B610023BB613AE0BB6909
:1009D0000833012202FA03F3FB603B681B881A46C6
:1009E000FB6813403B613A69FB689A4227D1BB69B7
:1009F0009B00FB60FB680F2202FA03F3BB60BB683D
:100A0000DB437A6913407B61FB68FA6902FA03F3FE
:100A10007A6913437B613B68DB78282B05D1BB697E
:100A2000083301229A407B685A613B68DB78482B87
:100A300005D1BB69083301229A407B681A61BB6902
:100A40000133BB61BB69072BC1D97B687A695A60E6
:100A50002437BD465DF8047B704700BF80B483B087
:100A600000AF78607B684FF6FF721A807B680222C5
:100A70009A707B680422DA700C37BD465DF8047BFF
:100A8000704700BF80B487B000AF78600B46FB7042
:100A900000233B610023FB6000237B610023BB60DC
:100AA0007B68002B03DA2E4BDB697B6102E02C4B69
:100AB0005B687B617B6803F470231B0CBB607B6805
:100AC0009BB23B617B6803F44013B3F5401F0AD12E
:100AD0007B6923F070637B61214B214A526822F0CD
:100AE00070625A6021E07B6803F48013002B0ED003
:100AF000BB68032202FA03F3FB60FB68DB437A69FD
:100B000013407B617B6943F070637B610DE07B6820
:100B10005B0D1B013A6902FA03F3DB437A69134068
:100B20007B617B6943F070637B61FB78002B08D0AD
:100B30007B685B0D1B013A6902FA03F37A69134380
:100B40007B617B68002B03DA054B7A69DA6102E08E
:100B5000034B7A695A601C37BD465DF8047B7047C9
:100B60000000014080B400AFBFF34F8FBD465DF879
:100B7000047B704780B483B000AF0346FB71084B21
:100B800097F907205209F97901F01F01012000FAB5
:100B900001F143F822100C37BD465DF8047B704725
:100BA00000E100E080B500AF054A054BDB6803F4C7
:100BB000E061044B0B43D360FFF7D4FFFEE700BFB7
:100BC00000ED00E00400FA0580B582B000AF374BBD
:100BD0001B78DBB203F004039B10012B5FD1344B75
:100BE0009B889AB240F68C239A4203D900200021B8
:100BF00004F0E0F8012006F09BFE05F055F978605E
:100C00002A4B1B78DBB203F00103002B19D0284BD1
:100C10009B889AB240F289239A4212D8254B1B68CE
:100C20007A689A420CD90020002104F0C3F8224BC4
:100C30001B78DBB243F00103DAB21F4B1A7007E0F6
:100C400006E005F031F9034603F12802194B1A605A
:100C5000012006F06DFE194B1B880E2B06D8174B92
:100C60001B88002B02D0002001F078FC012006F048
:100C70005FFE124B5B88082B06D8104B5B88002B5D
:100C800002D0042001F06AFC012006F051FE0B4B5B
:100C90005B882B2B03D90020002102F013FD0120DB
:100CA00006F046FE0837BD4680BD00BF1700002095
:100CB000C8000020B8000020AF0000204000002045
:100CC00080B582B000AF0346FB711C4B1B78DBB2D2
:100CD000002B11D11A4B1B78DBB25A1CD1B2184A27
:100CE0001170F979174AA2FB01025209D2B23032CF
:100CF000D1B2154AD15410E0114B1B78DBB25A1C0B
:100D0000D1B20F4A1170F9790E4AA2FB01025209C1
:100D1000D2B23032D1B20D4AD154FB79094AA2FB8A
:100D200003125209642101FB02F29B1ADBB218463E
:100D300005F034FB0837BD4680BD00BF9900002098
:100D4000980000201F85EB517800002088000020CB
:100D500080B584B000AF0023FB730023BB73002376
:100D60007B7300237B8100237B6000233B6006F0C4
:100D7000E7F8744805F0ACFE4FF4FA7006F0D8FDC1
:100D8000714B00221A7034E005F010FA03461A463F
:100D90006D4B1A700020002105F0D6FE6B4805F05F
:100DA00097FE6B4B1B689BB2184600F0E9F9694847
:100DB00005F08EFE664B5B689BB2184600F0E0F9CA
:100DC0000120002105F0C0FE0A2006F0B1FD6248B6
:100DD00005F07EFE5E4B9B689BB2184600F0D0F992
:100DE0005E4805F075FE5A4BDB689BB2184600F072
:100DF000C7F9554B1B78DBB2002BC5D006F0A0F825
:100E0000514B1B78DBB2013BBB734F4B00221A7076
:100E1000534805F05DFEFB7B184604F0EDF80346F1
:100E2000FB73FB7B184601F099FB06F089F84D48EF
:100E300005F04EFE7B7B184604F0DEF803467B731C
:100E4000BA7B434B53F822307B6006F079F8464872
:100E500005F03EFEFB7B184601F050FB3A4B0022AA
:100E60001A7019E00A2006F063FD05F09FF90346A9
:100E70001A46354B1A7006F063F83C4805F028FE18
:100E80000120002105F060FEBA7B314B53F822307F
:100E90009BB2184600F074F92B4B1B78DBB2022B87
:100EA000E0D1BA7B2A4B53F822303B60FB7B1846DB
:100EB00001F054FBC82006F03BFD3B689AB27B680A
:100EC0009BB2D31A9BB21A467B7B92FBF3F37B81D6
:100ED000BA7B274B798923F8121006F031F82548A0
:100EE00005F0F6FD3B689BB2184600F049F9012079
:100EF000002105F029FE204805F0EAFD7B8918460F
:100F000000F03EF97B8940F24260194608F092FCFD
:100F10000D4B00221A7008E00A2006F009FD05F0CA
:100F200045F903461A46084B1A70074B1B78DBB28B
:100F3000022BF1D106F004F8C82006F0F9FC1037B6
:100F4000BD4680BD8C9F0008AD000020989F000822
:100F5000381600209C9F0008A09F0008A49F00084E
:100F6000A89F0008B89F0008C89F0008D89F0008E5
:100F70004C160020E89F0008F09F000880B584B060
:100F800000AF13460246FA710A46BA71BB800023CD
:100F9000FB60BB880F4A128802FB03F20E4BA3FBD7
:100FA0000213DB08FB60002001F0A8FABA790B4BB2
:100FB000002143F8221002E00A2006F0B9FC074B9A
:100FC0001A68FB689A42F7D3002001F0C7FA10377D
:100FD000BD4680BD4C160020CDCCCCCC38160020B0
:100FE00080B584B000AF13460246FA710A46BA7162
:100FF000BB800023BB600023FB8105F0A1FF5548A7
:1010000005F066FD08E00A2006F092FC05F0CEF837
:1010100003461A46504B1A704F4B1B78DBB2002B1D
:10102000F1D04D4B1B78DBB2022B01D1FFF790FEC4
:1010300001237B7387E005F083FF484805F048FDF6
:10104000474B1B88184600F09BF8FB891846052182
:1010500004F084F80346FB81FB89414A128802FBB5
:1010600003F2404BA3FB0213DB08BB6005F068FFF3
:101070003D4805F02DFDBB689BB2184600F080F896
:101080000120002105F060FD384805F021FDBA7906
:10109000374B53F82220364B53F822309BB2184678
:1010A00000F06EF82C4B00221A70002001F026FA96
:1010B000BA792F4B002143F822101BE00A2006F0DA
:1010C00037FC05F03DFF2B4805F002FDBA79284BAF
:1010D00053F822309BB2184600F052F8012000214C
:1010E00005F032FD244805F0F3FCBB689BB21846BE
:1010F00000F046F81E4B1A68BB689A42DED3002007
:1011000001F02CFA05F01CFF1C4805F0E1FC08E09A
:101110000A2006F00DFC05F049F803461A460E4B6E
:101120001A700D4B1B78DBB2002BF1D00A4B1B78E9
:10113000DBB2022B05D101237B730D4B00221A6019
:1011400001E000237B737B7B012B3FF474AF1037EE
:10115000BD4680BDF89F0008AD00002008A0000833
:101160004C160020CDCCCCCC14A000081CA000084C
:101170003816002020A0000828A000082CA0000895
:1011800080B582B000AF0346FB80FA88164BA3FB04
:1011900002135B0B9BB2DBB2184605F0FFF8FB882D
:1011A000114AA2FB0312520B42F2107101FB02F230
:1011B0009B1A9AB20D4BA3FB02135B099BB2DBB2E5
:1011C000184605F0EBF8FB88084AA2FB0312520907
:1011D000642101FB02F29B1A9BB2DBB2184605F0B8
:1011E000DDF80837BD4680BD5917B7D11F85EB51D3
:1011F00080B485B000AF396013460246FA71BB7106
:101200000023FB730023FB730AE0FB7B3A68134463
:101210001B78DAB2FB795340FB71FB7B0133FB7324
:10122000FA7BBB799A42F0D3FB7918461437BD4656
:101230005DF8047B704700BF80B582B000AF00232B
:10124000FB71674840F2255107F0F4F90346002B83
:101250001AD0634807F0CEF90346DAB2614B1A7030
:10126000614B1B78DBB25A1CD1B25F4A11705D4AE8
:101270001278D1B25D4AD154594B594A128892B270
:1012800022F0200292B21A80554B554A128892B22F
:1012900022F0400292B21A80554B1B78DBB2012B30
:1012A0001BD1544B1B78DAB2534B1B78DBB29A42FA
:1012B00013D24B4A4F4B1B78DBB2591CC8B24D4975
:1012C00008704E49CB5CDBB29380454B444A128890
:1012D00092B222F0400292B21A80494B1B78DBB2E4
:1012E000002B7AD1474B1B78DBB2042B3BD1464B0A
:1012F0001B78DBB2002B04D13A4B1B78DAB2434B9C
:101300001A70414B1B78DBB25A1CD1B23E4A1170A5
:10131000344A1278D1B2354AD1543B4B1B78DBB2F8
:101320001A463A4B1B78DBB201339A421BD1374B3A
:101330001B78DBB230202D491A46FFF759FF0346D0
:10134000FB71FB79002B03D12D4B01221A7001E0B8
:1013500000F08EF82B4B00221A702B4B00221A70D3
:101360002B4B00221A701F4B1B78DBB25A2B03D178
:10137000274B01221A7030E01A4B1B78DBB2582B36
:1013800008D1234B1B78DBB2012B03D1204B022267
:101390001A7022E01E4B1B78DBB2022B1DD1114BC1
:1013A0001B78DBB2302B15D00E4B1B78DBB2312B08
:1013B00003D1144B03221A700CE00A4B1B78DBB2EA
:1013C000322B07D10F4B04221A7000F051F80E4B4C
:1013D00000221A700E4B00221A700837BD4680BDDD
:1013E00000380140480000204B000020601600201B
:1013F000490000204A000020150000208C16002023
:10140000D7000020D6000020D4000020D500002006
:10141000D300002080B582B000AF786008F0ACFC4B
:10142000104B1B78DBB2012B17D100F0A7F80E4B45
:101430005B78DBB2312B0DD80B4B1B78DBB20A4A41
:10144000D35CDBB2184600F04DF800F011F8074B02
:1014500000221A70034B00221A700A2006F068FA64
:10146000DCE700BFD700002060160020D400002079
:1014700080B483B000AF0023FB710023FB7106E052
:10148000FB79074A0021D154FB790133FB71FB79C9
:10149000292BF5D90C37BD465DF8047B704700BF9A
:1014A0006016002080B582B000AF0023FB710B4BAB
:1014B00000221A700023FB7109E0FB79084A002121
:1014C000D154012006F034FAFB790133FB71FB792A
:1014D000292BF2D90837BD4680BD00BF150000207A
:1014E0008C16002080B582B000AF0346FB711F4B05
:1014F0005A221A701D4B58225A701C4B37229A7070
:101500001A4B0522DA70194BFA791A71174BDB78EE
:10151000DBB2002015491A46FFF76AFE03461A4659
:10152000124B5A71012006F003FA104BDB78DBB244
:101530000133DAB20E4B1A700E4B00221A700E4BAA
:1015400001221A7002E0032006F0F2F9094B1B7821
:10155000DAB2074B1B78DBB29A42F4D3FFF7A2FF53
:10156000054B00221A700837BD4680BD8C1600203E
:10157000150000204A0000204900002080B582B0FC
:1015800000AF0023FB80B74B5B78DBB23B2B00F254
:10159000A48101A252F823F089160008B5160008AC
:1015A000CB160008DB160008E3160008F116000849
:1015B000FF160008DB1800080D17000825170008A3
:1015C0004317000855170008A1170008CD17000899
:1015D000D3170008E91700080B180008DB180008EB
:1015E000DB1800082D180008DB180008DB180008BD
:1015F000DB180008DB180008DB180008DB180008FF
:10160000DB180008DB180008DB180008DB180008EE
:10161000DB180008DB180008DB180008DB180008DE
:10162000DB180008DB180008DB180008DB180008CE
:10163000DB180008DB180008DB180008DB180008BE
:10164000DB180008DB180008DB180008DB180008AE
:10165000DB180008DB180008DB180008DB1800089E
:10166000DB18000833180008DB180008DB18000836
:10167000DB180008DB18000841180008791800087A
:1016800099180008BB180008764B9B78D9B2754BA7
:10169000DB78DAB2734B1B79DBB21B0298B2714B69
:1016A0005B79DBB203449BB2084611461A46FFF74A
:1016B00065FC12E16B4B9B78DAB26A4BDB78DBB2EC
:1016C0001046194603F076FB07E1674B33221A7088
:1016D0000020002103F06EFBFFE0634B30221A7004
:1016E000FBE0604B9B78DBB2184600F007FFF4E0AC
:1016F0005C4B9B78DBB2184600F030FFEDE0594BB5
:101700009B78DBB2184600F0B1FAE6E0564B1B7846
:10171000DBB2332B05D1534B9B78DAB2534B1A70A3
:10172000DBE0DAE04F4B9B78D9B24E4BDB78DAB294
:101730004C4B1B79DBB2084611461A4600F0D2F832
:10174000CBE004F0B1FB0246494B1A60494B002242
:101750001A70C2E0454B00221A70434B33221A70B4
:10176000424B00221A700020002103F023FB0120CD
:10177000002103F01FFB0220002103F01BFB0320CC
:10178000002103F017FB022000F0E8FE032000F028
:10179000E5FE002000F0E2FE012000F0DFFE9CE00C
:1017A000304B9B78DBB21A022E4BDB78DBB2134452
:1017B0001A022C4B1B79DBB213441A02294B5B79BA
:1017C000DBB21344184604F081FB86E0FFF7EAF928
:1017D00083E0244B9B78DAB2224BDB78DBB21046F5
:1017E000194601F0DDFF78E01E4B9B78DBB21A460C
:1017F0001C4BDB78DBB21B029BB21344FB80FB88E3
:101800001846012100F0A2F867E0164B9B78DBB286
:101810001A46144BDB78DBB21B029BB21344FB80ED
:10182000FB881846102100F091F856E005F0DCF82E
:1018300053E00C4B9B78DBB2184600F06DFA4CE09D
:10184000084B9B78DBB21A46064BDB78DBB21B02F7
:101850009BB213409BB29BB21846022100F076F86F
:101860003BE000BF6016002014000020170000209D
:10187000B8000020AF000020194B9B78DBB21A465D
:10188000174BDB78DBB21B029BB213449BB21846AA
:10189000012100F0CDF820E0114B9B78DBB21A4615
:1018A0000F4BDB78DBB21B029BB21344FB80FB883F
:1018B0001846022100F0BCF80FE0094B9B78DBB220
:1018C0001A46074BDB78DBB21B029BB21344FB804A
:1018D000FB88184600F03EF900BF0837BD4680BDC2
:1018E0006016002080B584B000AF13460246FA713E
:1018F0000A46BA717B710023BB600023FB6004F0D1
:10190000D3FAF860BA79FB681344BB60FA797B7943
:101910001046194601F0D6FE0BE004F0C5FAF86057
:10192000022006F005F8012000F0F6F9022005F08B
:10193000FFFFFA68BB689A42EFD3FB791846002193
:1019400001F0C0FE1037BD4680BD00BF80B584B039
:1019500000AF02460B46FA807B710023BB60002378
:10196000FB737B79012B13D12F4B1B79DBB21A460A
:101970002D4B5B79DBB21B029BB213449AB22B4B0B
:101980001A802A4B1B88FA881046194607F052FF26
:101990007B79022B18D1244B1B79DBB21A46224BE0
:1019A0005B79DBB21B021A441F4B9B79DBB21B0431
:1019B0001A441D4BDB79DBB21B061344BB60FB886A
:1019C0001846B96803F03AFA7B79102B29D1002325
:1019D000FB7323E0154B00221A80FB7B02335B0074
:1019E000114AD35CDBB21A46FB7B5B0203F5A063B2
:1019F0000D49CB5CDBB213449AB20C4B1A80FB88C6
:101A00005A1CFA80094A12881846114607F012FF3C
:101A1000012005F08DFFFB7B0133FB73FB7B1F2B4C
:101A2000D8D91037BD4680BD60160020D8000020F0
:101A300090B585B000AF02460B46FA807B71404BF3
:101A40005A221A703E4B58225A703D4B31229A70DE
:101A50007B79012B1DD1FA8807F10A03104619463C
:101A600007F09CFE364B0922DA70364B9B78DAB2CF
:101A7000334B1A71334BDB78DAB2314B5A717B89B5
:101A8000DAB22F4B9A717B891B0A9BB2DAB22C4BCC
:101A9000DA717B79022B24D1FB88184604F04EFEC4
:101AA000F860274B0B22DA70264B9B78DAB2244B76
:101AB0001A71244BDB78DAB2214B5A71FB68DAB227
:101AC0001F4B9A71FB681B0ADAB21D4BDA71FB6877
:101AD0001B0CDAB21A4B1A72FB681B0EDAB2184BE7
:101AE0005A72174BDB78DBB25C1E154BDB78DBB22E
:101AF000013BDBB2002012491A46FFF779FB03468F
:101B00001A460F4B1A550E4BDB78DAB20E4B1A7091
:101B10000E4B00221A700E4B01221A7002E00120B7
:101B200005F006FF094B1B78DAB2074B1B78DBB2D6
:101B30009A42F4D3064B00221A701437BD4690BD6A
:101B40008C16002060160020150000204A0000209E
:101B50004900002090B585B000AF0346FB8000230C
:101B6000FB730623BB733C4B5A221A703A4B582224
:101B70005A70394B31229A70374B2722DA70374B23
:101B80009B78DAB2344B1A71344BDB78DAB2324BD1
:101B90005A710023FB732EE00023BB60FB7B9BB2DA
:101BA0005B009AB2FB8813449BB2184604F0C6FD52
:101BB000B860BB7B5A1CBA73BA68120ED1B2264AFF
:101BC000D154BB7B5A1CBA73BA68120CD1B2224AE8
:101BD000D154BB7B5A1CBA73BA68120AD1B21E4ADE
:101BE000D154BB7B5A1CBA73BA68D1B21A4AD154C9
:101BF000FB7B0133FB73FB7B072BCDD9BC7B164BE7
:101C0000DB78DBB2013BDBB2002013491A46FFF759
:101C1000EFFA03461A46104B1A550F4BDB78DAB22F
:101C20000F4B1A700F4B00221A700F4B01221A70C3
:101C300002E0012005F07CFE0A4B1B78DAB2084B6B
:101C40001B78DBB29A42F4D3074B00221A70FFF7DD
:101C500029FC1437BD4690BD8C160020601600206C
:101C6000150000204A0000204900002080B584B003
:101C700000AF0346FB710023FB730023BB810023ED
:101C80007B81234B5A221A70214B58225A70204BC9
:101C900031229A701E4B2A22DA701D4BFA791A7182
:101CA0000023FB732AE0FB799BB21A46D20013444F
:101CB0009AB2FB7B9BB213449BB203F538739BB281
:101CC0005B00BB81BA8907F10A031046194607F089
:101CD00065FDFB7B5B0005330D4A0021D154FB7B86
:101CE00003335B007A89D2B25242D1B2084AD1544E
:101CF000012005F01DFEFB7B0133FB73FB7B112BE9
:101D0000D1D9044B01221A701037BD4680BD00BFE7
:101D10008C1600204900002090B583B000AF034628
:101D2000FB71974B1B78DBB2002B40F05482954B34
:101D30005A221A70934B58225A70924B33229A703F
:101D4000904B2822DA70FB79012B40F0D5808E4B26
:101D50001B78DAB28B4B1A718C4B1B68DAB2894B49
:101D60005A718B4B1B68DAB2864B9A71894B1B7880
:101D7000DAB2844BDA71884B1B88DAB2814B1A7263
:101D8000864B1B78DAB27F4B5A72854B1B78DAB2DE
:101D90007C4B9A72824B5B78DAB27A4BDA72804B68
:101DA0009B78DAB2774B1A737D4BDB78DAB2754BDE
:101DB0005A737C4B1B8B9BB2DAB2724B9A73794B82
:101DC0001B8B9BB21B0A9BB2DAB26E4BDA73754B5C
:101DD0009B8B9BB2DAB26B4B1A74724B9B8B9BB290
:101DE0001B0A9BB2DAB2674B5A746F4B1B88DAB28C
:101DF000644B9A746C4B1B881B0A9BB2DAB2614B22
:101E0000DA74694B5B88DAB25E4B1A75664B5B8895
:101E10001B0A9BB2DAB25B4B5A75644B1B889BB2B0
:101E2000DAB2584B9A75614B1B889BB21B0A9BB266
:101E3000DAB2544BDA755D4B5B889BB2DAB2514B28
:101E40001A765A4B5B889BB21B0A9BB2DAB24D4B97
:101E50005A76564B9B889BB2DAB24A4B9A76534BD2
:101E60009B889BB21B0A9BB2DAB2464BDA764F4B89
:101E7000DB889BB2DAB2434B1A774C4BDB889BB2C0
:101E80001B0A9BB2DAB23F4B5A77494B1B68DAB256
:101E90003C4B9A77464B1B681B0ADAB2394BDA7710
:101EA000434B1B681B0CDAB2364B83F82020404BA7
:101EB0001B681B0EDAB2334B83F821203D4B1B7895
:101EC000DAB2304B83F822203B4B1B78DAB22D4B31
:101ED00083F82320344B5B88DAB22A4B83F8242022
:101EE000314B5B881B0A9BB2DAB2264B83F8252064
:101EF000244BFA7983F82620FB79022B66D12F4BED
:101F00001B88DAB21F4B1A712C4B1B881B0A9BB221
:101F1000DAB21C4B5A712A4B1B88DAB2194B9A71F0
:101F2000274B1B881B0A9BB2DAB2164BDA71154B92
:101F300000221A721D4B1B889BB21B0A9BB2DAB29D
:101F4000104B5A72194B5B889BB2DAB20D4B9A72E6
:101F5000164B5B889BB21B0A9BB2DAB2094BDA7252
:101F6000124B9B889BB2DAB2064B1A730F4B9B88BD
:101F70009BB21B0A9BB2DAB2024B5A7322E000BF3B
:101F8000490000208C16002014000020B000002022
:101F9000B40000205A160020BC000020D000002011
:101FA000540000200028004040000020C80000200D
:101FB00038160020D200002017000020C2000020A8
:101FC000C4000020854BFA7983F82620FB79032B87
:101FD0003BD1834B9B68DAB2804B1A71804B9B6874
:101FE0001B0ADAB27D4B5A717D4B9B681B0CDAB22F
:101FF0007A4B9A717A4B9B681B0EDAB2774BDA7187
:10200000784B9B68DAB2754B1A72764B9B681B0A49
:10201000DAB2724B5A72734B9B681B0CDAB26F4B7D
:102020009A72704B9B681B0EDAB26C4BDA726E4B75
:102030009B78DAB2694B1A736B4BDB78DAB2674B79
:102040005A73664BFA7983F82620FB79042B1AD150
:10205000624B00225A72654B1B78DAB25F4B9A7260
:10206000634B1B88DAB25D4BDA72614B1B881B0A2B
:102070009BB2DAB2594B1A73584B4D225A73574BD5
:10208000FA7983F82620FB79052B35D1594B1B882B
:10209000DAB2524B1A71574B1B881B0A9BB2DAB249
:1020A0004E4B5A71534B5B88DAB24C4B9A71514B81
:1020B0005B881B0A9BB2DAB2484BDA714E4B1B6845
:1020C000DAB2464B1A724C4B1B681B0ADAB2434B0E
:1020D0005A72494B1B681B0CDAB2404B9A72464B42
:1020E0001B681B0EDAB23D4BDA723C4B4D225A7321
:1020F0003A4BFA7983F82620FB79062B3DD13D4BEC
:102100001B88DAB2354B1A713A4B1B881B0A9BB2FB
:10211000DAB2324B5A71374B5B88DAB22F4B9A7175
:10212000344B5B881B0A9BB2DAB22C4B5A71324B90
:102130005B68DAB2294B1A722F4B5B681B0ADAB262
:10214000264B5A722C4B5B681B0CDAB2234B9A72EB
:10215000294B5B681B0EDAB2204BDA72244B5B888A
:10216000DAB21E4B1A73224B5B881B0A9BB2DAB29F
:102170001A4B5A73194BFA799A75184BDB78DBB204
:102180005C1E164BDB78DBB2013BDBB2002013494F
:102190001A46FFF72DF803461A46104B1A550F4BF7
:1021A000DB78DAB2154B1A70154B00221A70154BFA
:1021B00001221A7002E0022005F0BAFB104B1B78D6
:1021C000DAB20E4B1B78DBB29A42F4D3FFF76AF90E
:1021D0000C4B00221A700C37BD4690BD8C160020A7
:1021E00000080140000C01405C000020D2000020EB
:1021F0004C1600204000002038160020150000205A
:102200004A0000204900002080B400AF024B1B6848
:10221000BD465DF8047B70470000024080B400AF0B
:10222000024B1B68BD465DF8047B7047000002400E
:1022300080B586B000AF0120012105F0BFF905206F
:10224000012105F0D9F925233B7500237B75002377
:10225000BB750123FB7507F11403184607F020F83E
:102260004FF400733B820323BB741823FB7407F104
:10227000100324481946FEF735FB4FF480633B8278
:102280000423FB7407F110031E481946FEF72AFBCE
:102290001D4806F079F84FF48040012105F0ACF9B3
:1022A0004FF416533B600023BB800023FB800023C8
:1022B0003B810023BB810C237B813B46124819469E
:1022C00006F0BEF810484FF4587106F0A3F90E4B13
:1022D0000D4A928992B242F0200292B29A810A4B40
:1022E000094A928992B242F0400292B29A8106481B
:1022F000012106F05FF92520FEF73CFC1837BD46AA
:1023000080BD00BF000801400038014080B588B0A2
:1023100000AF1020012105F06FF90220012105F026
:1023200089F907F11C031846FEF798FB4FF4707308
:10233000BB830323BB771823FB7707F11C032048DB
:102340001946FEF7CFFA1F480121FEF79BFB07F164
:1023500010031846FEF764F94FF40073FB8240F255
:10236000E733BB82EF233B8207F11003164819467F
:10237000FDF7D8FE3B461846FEF76CF901237B803B
:1023800060233B800023FB803B460F481946FDF746
:1023900045FF3B460C481946FDF7CCFF3B460A4833
:1023A0001946FEF74FF83B4607481946FEF7D0F8A6
:1023B00005480121FEF770F92037BD4680BD00BFFA
:1023C00000100140000C1A000004004080B582B0EB
:1023D00000AF04F0B5FD0023FB8000237B7104F007
:1023E000AFFD0A2005F0A4FA04F0AAFD234804F08A
:1023F0006FFB234B00221A701EE003F0D7FE03464A
:102400001A461F4B1A701F4B1B88FB80052005F0D6
:102410008FFA0120002104F097FBFA881A4BA3FBE6
:1024200002135B099BB2DBB2184603F0B7FFFB88CF
:10243000DBB2184603F0B2FF114B1B78DBB2022B64
:10244000DBD10A2005F074FAFB8840F2D650194619
:1024500007F0F0F902F070F94FF4FA6005F068FA4D
:102460000A4804F035FB064B00221A7004F068FDA0
:1024700004F0BAFA0837BD4680BD00BF34A000089A
:10248000AD000020400000201F85EB5148A000084F
:1024900080B582B000AF012005F04AFA0023FB713D
:1024A000012005F045FA124B1B78DBB203F0020362
:1024B0005B10012B18D10F4B1B881A460E4B1B8843
:1024C0009BB202339A4202DD002000F017F801208F
:1024D00005F02EFA074B1A88074B1B889BB29A42CD
:1024E00002D2002000F03AF80837BD4680BD00BF98
:1024F0001700002040000020C416002080B483B0E4
:1025000000AF0346FB71FB79002B06D1114B114A3A
:10251000526942F480725A6109E00E4B0D4A5169CA
:10252000FA790A32012000FA02F20A435A61FB7971
:10253000012202FA03F3DAB2074B1B78DBB2DBB2FB
:102540001343DBB2DAB2044B1A700C37BD465DF8A8
:10255000047B7047000801405A16002080B483B005
:1025600000AF0346FB71FB79002B06D1124B124AD8
:10257000126942F480721A6109E00F4B0E4A116928
:10258000FA790A32012000FA02F20A431A61FB7951
:10259000012202FA03F3DBB2DB43DAB2074B1B780A
:1025A000DBB2DBB21340DBB2DAB2044B1A700C3789
:1025B000BD465DF8047B7047000801405A160020B4
:1025C00080B500AF012005F0D7F8034B1B685A1CFB
:1025D000014B1A6080BD00BF3816002080B500AFE7
:1025E000022005F0C9F8034B5B685A1C014B5A6086
:1025F00080BD00BF3816002080B500AF042005F074
:10260000BBF880BD80B500AF4FF4806005F0B4F832
:102610004FF4006005F0B0F84FF4805005F0ACF8CE
:1026200080BD00BF80B500AF202005F0A5F8402098
:1026300005F0A2F8802005F09FF880BD80B582B03B
:1026400000AF4FF4AF63FB800023BB80294B002217
:102650001A7047E003F0AAFD03461A46254B1A708C
:102660000023BB80FA883B1D1046194607F096F8F8
:1026700004F066FC204804F02BFAFB881846FEF7AD
:102680007FFD0120002104F05FFA1C4804F020FACD
:10269000BB881846FEF774FD012005F049F9154B7B
:1026A0001B78DBB2022B0AD1FB88B3F5FA6F03D299
:1026B000FB880133FB8002E04FF4AF63FB800D4BDE
:1026C0001B78DBB2012B0AD1FB88B3F5AF6F03D9BE
:1026D000FB88013BFB8002E04FF4FA63FB8006209D
:1026E00005F026F9034B1B78DBB2042BB2D1083777
:1026F000BD4680BDAD00002054A000085CA00008CD
:1027000080B582B000AF0023FB7104F019FC464B8A
:1027100000221A707DE0142005F00AF903F046FD4E
:1027200003461A46404B1A700020002104F00CFAB0
:102730003E4804F0CDF9FB79184603F02FFE3A4BE2
:102740001B78DBB2042B03D1FB791846FFF7D6FECA
:10275000354B1B78DBB2032B03D1FB791846FFF70F
:10276000FDFE314B1B78DBB2012B08D1FB79012B2D
:1027700003D8FB790133FB7101E00023FB710120D9
:1027800005F0D6F80120002104F0DEF9284804F015
:102790009FF9284B1B78DBB2184603F0FFFD0120A0
:1027A00005F0C6F8244804F093F9244B9B6803F025
:1027B0001003002B03D0224804F08AF902E02148DC
:1027C00004F086F91D4B9B6803F02003002B03D017
:1027D0001B4804F07DF91CE01A4804F079F9174B06
:1027E0009B6803F04003002B03D0154804F070F9F8
:1027F00002E0144804F06CF9104B9B6803F48073FA
:10280000002B03D00E4804F063F902E00D4804F0F9
:102810005FF9054B1B78DBB2022B7FF47CAF04F031
:102820008FFB0837BD4680BDAD00002064A00008C6
:1028300070A000085A16002074A00008000801408B
:102840007CA0000880A0000880B582B000AF022301
:10285000FB7104F075FB6FE0142005F069F803F0DC
:10286000A5FC03461A46394B1A700020002104F0DB
:102870006BF9374804F02CF9FB79184603F08EFD0C
:10288000324B1B78DBB2042B09D1324B314A116930
:10289000FA790B32012000FA02F20A431A612B4B3B
:1028A0001B78DBB2032B09D12A4B2A4A5169FA79EA
:1028B0000B32012000FA02F20A435A61234B1B78C3
:1028C000DBB2012B08D1FB79032B03D8FB79013351
:1028D000FB7101E00223FB71012005F029F80120C2
:1028E000002104F031F91C4804F0F2F81B4B1B786E
:1028F000DBB2184603F052FD012005F019F8184824
:1029000004F0E6F8134BDB6803F40053002B03D00C
:10291000144804F0DDF802E0134804F0D9F80D4B38
:10292000DB6803F48043002B03D00E4804F0D0F89A
:1029300002E00D4804F0CCF8044B1B78DBB2022B0C
:102940008AD104F0FDFA0837BD4680BDAD000020F5
:1029500064A000080008014070A000085A1600207A
:1029600074A000087CA0000880A0000880B582B098
:1029700000AF0023FB8004F0E3FA4C4B00221A70F6
:1029800083E0142004F0D4FF03F010FC03461A4641
:10299000464B1A700020002104F0D6F8444B1B88E7
:1029A000FB80FB88DBB2184603F0F8FC404B5B88E9
:1029B000FB80FB88DBB2184603F0F0FC3D4804F0D6
:1029C00087F83D4B9B8CFB80FB881846FEF7D8FBB5
:1029D000364B1B78DBB2042B02D10120FFF78EFDB2
:1029E000324B1B78DBB2012B02D10120FFF7B6FD81
:1029F000012004F09DFF0120002104F0A5F82F4BD9
:102A00001B78DBB2184603F0C9FC2D4804F060F8CF
:102A10000023BB802B4B9B685B09BB80BB8818469F
:102A2000FEF7AEFB284804F053F8012004F080FFC5
:102A3000244B9B685B0903F00103002B03D0234860
:102A400004F046F802E0224804F042F81D4B9B686F
:102A50009B0903F00103002B03D01C4804F038F855
:102A600002E01B4804F034F8164B9B68DB0903F0C6
:102A70000103002B03D0154804F02AF802E01448A3
:102A800004F026F8134804F023F8084B1B78DBB257
:102A9000022B7FF476AFFFF7D1FD04F051FAFFF778
:102AA0002FFEFFF7D1FE0837BD4680BDAD000020E8
:102AB0004000002084A00008004801405A16002071
:102AC00088A00008000801408CA000087CA0000835
:102AD00080A0000890A0000880B584B000AF134625
:102AE0000246FA800A467A713B710023FB73002389
:102AF000BB7300237B73FA887B7942FA03F37B7301
:102B00000020002104F020F8514803F0E1FF514B70
:102B100000221A7060E003F049FB03461A464D4B51
:102B20001A700120002104F00FF80023FB7305E068
:102B3000494803F0CDFFFB7B0133FB73FA7B397906
:102B40007B79CB1A9A42F3DB012004F0F1FE0023DB
:102B5000FB7309E00020002103F0F6FF3F4803F07B
:102B6000B7FFFB7B0133FB73FA7B39797B79CB1A97
:102B70009A42EFDBBB7B0020194603F0E5FF3448A7
:102B800003F0A6FF052004F0D3FE324B1B78DBB226
:102B9000042B08D1BA7B39797B79CB1A9A4202DAB5
:102BA000BB7B0133BB732B4B1B78DBB2012B05D1F5
:102BB000BB7B002B02D0BB7B013BBB73254B1B783F
:102BC000DBB2032B08D1BB7B012202FA03F3DAB29A
:102BD0007B7B5340DBB27B731E4B1B78DBB2022B3B
:102BE00099D10023FB7325E07A7BFB7B42FA03F348
:102BF00003F00103002B0DD0FA7B7B791344012BEA
:102C0000D4BF00230123DBB21A46FB8813439BB2D7
:102C1000FB800CE0FA7B7B791344012202FA03F378
:102C20009BB2DB439AB2FB8813409BB2FB80FB7BD9
:102C30000133FB73FA7B39797B79CB1A9A42D3DB68
:102C400001F07AFDFB8818461037BD4680BD00BFF5
:102C500094A00008AD0000207CA000088CA0000813
:102C600080B586B000AF0346FB710023BB82002312
:102C70007B8100233B8100233B6104F061F96748BD
:102C800003F026FFC82004F053FEFB799BB21A46DE
:102C9000520013449B009BB203F21463BB82BA8AB6
:102CA00007F10A031046194606F078FD7B89DBB26E
:102CB000184602F0A1F903467B817B89BA8A104647
:102CC000194606F0B7FD04F03BF90020052103F09A
:102CD0003BFF534803F0FCFEC82004F029FEFB79BB
:102CE0009BB21A46520013449B009BB203F21D6331
:102CF000BB82BA8A07F108031046194606F04EFD5A
:102D00003B89184600210322FFF7E6FE03463B817C
:102D10000023FB7511E003F049FA03461A46414BC4
:102D20001A70404B1B78DBB2042B03D1FB7DC3F13F
:102D30000103FB75192004F0FBFD3A4B1B78DBB255
:102D4000002BE8D0FB7D012B05D13B8943F001032B
:102D50009BB23B8104E03B8923F001039BB23B81A2
:102D60003B89BA8A1046194606F064FD052004F036
:102D7000DFFD01F0E1FC0023FB60FB799BB21A460A
:102D8000520013449B009BB203F21763BB82BB8AC1
:102D9000184603F0D3FCF860F868012102F03CFC0F
:102DA000F860FB689BB2BA8A1046194606F042FDED
:102DB000FB799BB21A46520013449B009BB203F26C
:102DC0001963BB82BB8A184603F0B8FCF860F86848
:102DD000012102F021FCF860FB689BB2BA8A104620
:102DE000194606F027FDFB799BB21A4652001344A0
:102DF0009B009BB203F21563BB82BB8A184603F0AB
:102E00009DFCF860F86802F00BFAF860BB8A18467F
:102E1000F96802F013F81837BD4680BD98A0000885
:102E2000A0A00008AD00002080B582B000AF002354
:102E3000FB7104F085F8094803F04AFEC82004F04D
:102E400077FDFB79184602F0D7F80346FB71FB7952
:102E5000184600F021F80837BD4680BDACA0000838
:102E600080B582B000AF0023FB7104F069F8094817
:102E700003F02EFEC82004F05BFDFB79184602F03B
:102E8000BBF80346FB71FB791846FFF7E9FE0837EC
:102E9000BD4680BDACA0000880B584B000AF03463D
:102EA000FB710023FB810023BB81FB799BB21A4697
:102EB000920013449BB203F24563FB81FA8907F148
:102EC0000C031046194606F069FC04F039F857481F
:102ED00003F0FEFDBB89184602F0E4F80346BB810F
:102EE000BB89FA891046194606F0A4FCFB799BB20F
:102EF0001A46920013449BB203F24663FB81FA899F
:102F000007F10C031046194606F048FC04F018F8C7
:102F1000474803F0DDFDBB89184602F0C3F80346BD
:102F2000BB81BB89FA891046194606F083FCFA89F1
:102F300007F10C031046194606F030FC04F000F8C7
:102F40003C4803F0C5FDBB89184602F0ABF80346C8
:102F5000BB81BB89FA891046194606F06BFCFB79E8
:102F60009BB21A46920013449BB203F24763FB8163
:102F7000FA8907F10C031046194606F00FFC03F01E
:102F8000DFFF2D4803F0A4FDBB89184602F08AF844
:102F90000346BB81BB89FA891046194606F04AFCF4
:102FA000FB799BB21A46920013449BB203F247632B
:102FB000FB81FA8907F10C031046194606F0EEFB77
:102FC00003F0BEFF1D4803F083FDBB89184602F0E5
:102FD00069F80346BB81BB89FA891046194606F099
:102FE00029FCFA8907F10C031046194606F0D6FBB6
:102FF00003F0A6FF124803F06BFDBB89184602F0F0
:1030000051F80346BB810A2004F092FCBB89FA897F
:103010001046194606F00EFC03F092FF0A2004F059
:1030200087FC03F0E1FC1037BD4680BDB8A0000866
:10303000CCA00008DCA00008ECA00008F8A0000864
:1030400008A1000890B585B000AF0023BB73002332
:10305000FB7303F075FF344803F03AFDC82004F019
:1030600067FCBB7B184601F0C7FF0346BB7303F048
:1030700067FF2E4803F02CFDBB7B184603F08EF94A
:103080002B4803F025FD0023FB7306E01E2004F00F
:103090004FFC03F08BF80346FB73FB7B022B02D043
:1030A000FB7B032BF2D1C82004F042FCFB7B022BFC
:1030B00032D1BA7B13465B0013449B0003F21563C5
:1030C000BB60BB689BB2184603F038FB7860BA7BE4
:1030D00013465B0013449B0003F21763BB6002F0CE
:1030E000E3FE3860BB689BB21846396801F0A6FE63
:1030F000BA7B13465B0013449B0003F21B63BB6067
:10310000BB689CB202F0D0FE02467B68D31A05333E
:103110002046194601F092FE03F012FFC82004F089
:1031200007FC1437BD4690BDACA0000814A10008F0
:1031300020A1000880B58EB000AF0346FB71A74BFD
:1031400002221A70FB79012202FA03F3DAB2A44BCD
:103150001B78DBB2DBB21343DBB2DAB2A04B1A70DE
:103160000023BB6202F0A0FEB8620420FFF7C6F99C
:103170009A4B03221A700023FB81002387F8373013
:1031800000237B6200233B620023FB6100233B633F
:103190000023FB6200237B830023BB8100233B834E
:1031A0000023FB8200237B810023BB82FB799BB23F
:1031B0001A46520013449B009BB203F214633B83F4
:1031C0003A8B07F10C031046194606F0E7FA854BD7
:1031D0005A88BB89DBB29BB2D31A9BB2BB8102F087
:1031E00063FE38637D4B04221A70642004F0A0FB58
:1031F00019E07D4B5B889AB27A4B5B88D31ABB820D
:10320000BB89BA8A9A4205D83B6B0533FB6204201E
:10321000FFF774F9FA2004F08BFB02F045FE3863E7
:103220006E4B05221A70FA6A3B6B9A42E1D8042071
:10323000FFF794F94FF47A7004F07AFB674B06229B
:103240001A70002387F837309AE097F837305733F1
:10325000DAB2624B1A7000233B83FB799BB21A46A9
:10326000520013449B009BB203F215633B833B8BDC
:10327000184603F063FA3862FB799BB21A46520093
:1032800013449B009BB203F217633B833B8B1846AE
:1032900003F054FAF861642004F04AFB97F83730E1
:1032A0009BB21A46920013449BB203F247633B83DE
:1032B0003A8B07F10E031046194606F06FFA02F03A
:1032C000F3FD0246FB69D21A3B6AB2FBF3F37B6261
:1032D000642004F02DFB414BC8221A70C82004F072
:1032E00027FBFB899BB2DAB27B6AB3FBF2F102FBEC
:1032F00001F29B1AFB7400233B81FB899BB21B0AE2
:10330000FB8200233B8397F837309BB21A4692002A
:1033100013449BB203F245633B833A8B07F10803E6
:103320001046194606F03AFAFB799BB2FA8A9A429D
:103330001BD13B89002B18D0FB7C002B15D1274BD0
:1033400063221A704FF4C87004F0F2FA97F837301D
:10335000184600F003F997F837306433DAB21F4BA0
:103360001A704FF4FA6004F0E3FA642004F0E0FA13
:103370001A4B08221A7097F83730013387F8373024
:1033800097F83730082B7FF660AF144B09221A707C
:10339000FB799BB21A46520013449B009BB203F286
:1033A0001D633B833A8B07F10A031046194606F06A
:1033B000F5F9012387F8373025E07B891A4697F81D
:1033C000373042FA03F303F00103002B0ED097F8D5
:1033D00037301846FFF792F80DE000BFAE0000202E
:1033E000D0000020400000208816002097F83730D9
:1033F0001846FFF7B3F8642004F09AFA97F83730CC
:10340000013387F8373097F83730042BD5D94E4B36
:103410000A221A704D4B1B78DBB243F00103DAB27B
:103420004A4B1A700023BB7400233B82484B1B7825
:10343000BB74474B30221A70FB799BB21A4652007C
:1034400013449B009BB203F213633B830023BB81B5
:103450003A8B07F10C031046194606F09FF902F06B
:1034600023FD0246BB891344FB623A4B1B78DBB257
:1034700023F00103DAB2374B1A700EE04FF4FA7002
:1034800004F056FAFB6ADAB23B6BDBB2D31ADAB25B
:103490002D4B1A7002F008FD38632E4B1B78DBB2FF
:1034A00003F00103002B03D13A6BFB6A9A42E5D388
:1034B000254B0C221A704FF47A7004F039FA234B22
:1034C0001B78DBB223F00103DAB2204B1A70002024
:1034D000002101F06FFC1E4BBA7C1A701D4B1B784B
:1034E000DBB223F00103DAB21A4B1A70164B0D222D
:1034F0001A704FF47A7004F01BFA00F087F9FB7928
:103500009BB21A46520013449B009BB203F21B630A
:103510003B833B8B1846B96A01F090FCFB79012292
:1035200002FA03F3DBB2DB43DAB20B4B1B78DBB2FC
:10353000DBB21340DBB2DAB2074B1A70C82004F0DA
:10354000F7F93837BD4680BDAE00002017000020D7
:1035500014000020AF000020D000002080B586B00D
:1035600000AF0346FB7100237B61FB799BB21A46D7
:10357000920013449BB203F246637B827A8A07F17E
:1035800010031046194606F009F9FB799BB21A465A
:10359000920013449BB203F245637B827A8A07F15F
:1035A0000E031046194606F0F9F8344B5F221A70E4
:1035B0004FF4C87004F0BCF900237B82FB799BB206
:1035C0001A46920013449BB203F5C9637B822B4BCE
:1035D0005E221A704FF4C87004F0AAF97A8A07F1D3
:1035E0000C031046194606F0D9F8244B5D221A70D8
:1035F0004FF4C87004F09CF902F056FC02463B8A76
:1036000013447B611D4B5C221A704FF4C87004F0A8
:103610008FF9FB89DBB21846012100F053F8174BF4
:103620005B221A704FF4C87004F082F905E0134B66
:103630005B221A70642004F07BF902F035FC02462C
:103640007B699A42F3D30D4B5A221A704FF4C8701B
:1036500004F06EF9FB89DBB21846002100F032F865
:10366000064B59221A704FF4C87004F061F9BB89F7
:10367000184600F005F81837BD4680BDAE000020A2
:1036800080B584B000AF0346FB800023FB6002F0EE
:103690000BFC0246FB881344FB600020012100F074
:1036A00011F802E00A2004F043F902F0FDFB0246A3
:1036B000FB689A42F6D30020002100F003F810378F
:1036C000BD4680BD80B483B000AF02460B46FA71A0
:1036D000BB71BB79002B0ED0FB79012202FA03F3F8
:1036E000DAB22D4B1B78DBB2DBB21343DBB2DAB2BA
:1036F000294B1A700FE0FB79012202FA03F3DBB2C7
:10370000DB43DAB2244B1B78DBB2DBB21340DBB213
:10371000DAB2214B1A70BB79012B02D10023BB71A5
:1037200003E0BB79C3F16403BB71FB79002B08D1C3
:103730001A4ABB799BB2194689000B445B009BB2C5
:103740009386FB79012B08D1144ABB799BB21946A9
:1037500089000B445B009BB21387FB79022B08D1D5
:103760000E4ABB799BB2194689000B445B009BB2A1
:103770009387FB79032B09D1084ABB799BB2194681
:1037800089000B445B009BB2A2F840300C37BD4669
:103790005DF8047B704700BFD200002000040040A9
:1037A00080B584B000AF02460B46FA71BB710023AE
:1037B000FB6002F079FB03460133FB6002E002206C
:1037C00004F0B6F802F070FB0246FB689A42F6D3AA
:1037D00002F06AFB0246BB791344FB60FB79184692
:1037E0000121FFF76FFF02E0022004F0A1F802F0D0
:1037F0005BFB0246FB689A42F6D3FB791846002130
:10380000FFF760FF1037BD4680BD00BF80B500AF39
:103810000320FEF7A3FE0420FEF7A0FE0020FEF723
:103820009DFE0120FEF79AFE0220FEF797FE80BD66
:1038300080B58AB000AF7860002387F82630FFF7A4
:10384000E5FFFEF725FEFDF7BFF906F047FA002376
:1038500087F827307AE00A2004F06AF897F82730D2
:103860009BB21A46520013449B009BB203F21B63A7
:10387000BB84BB8C184602F061FF386202F014FB77
:10388000F86197F827309BB21A46520013449B0008
:103890009BB203F21563BB84BB8C184602F04EFF4B
:1038A000B861FA693B6AD31A7B6197F827309BB2FB
:1038B0001A46520013449B009BB203F21763BB8469
:1038C000BB8C184602F03AFF386197F827309BB25C
:1038D0001A46520013449B009BB203F21963BB8447
:1038E000BB8C184602F02AFFF86097F827309BB28D
:1038F0001A46520013449B009BB203F21D63BB8423
:10390000BA8C07F10B031046194605F047FF0A2051
:1039100004F00EF87A69BB699A420FD9FA693B69DB
:103920009A420BD9FA69FB689A4207D2FB7A002BBC
:1039300004D097F827301846FFF7FCFB0A2003F065
:10394000F7FF97F82730013387F8273097F82730AB
:10395000022B80D975E700BF80B500AF4B4804212A
:10396000FCF7D6FE4948FCF7C5FE03461A46484B0D
:103970001A80474B1B889BB2002B18D04348FCF79A
:10398000ABFE0346642202FB03F2414B1B889BB251
:1039900092FBF3F39AB23F4B1A803F4B1A683C4BB1
:1039A0001B889BB2B2FBF3F23C4B1A6005E0394B2B
:1039B00000221A80394B00221A60394B1B78DBB287
:1039C0000133DAB2364B1A70354B1B78DAB2354B0D
:1039D0001B789A4258D9344B1B78DBB2002B53D159
:1039E0002C4B1B889BB2192B1AD92A4B1B889BB2D4
:1039F000222B15D82D4B1B782C4A12782C498A5C27
:103A0000D2B2D1B22B4A1278012000FA02F2D2B21D
:103A1000D243D2B20A40D2B2D1B2254AD15412E036
:103A2000224B1B78214A127821498A5CD2B2D1B24A
:103A3000204A1278012000FA02F2D2B20A43D2B22E
:103A4000D1B21B4AD1541B4B1B78002B16D1194BFA
:103A500007221A70154B1B780133DAB2134B1A7018
:103A6000124B1B78042B0FD10F4B01221A700F4BF6
:103A700000221A700F4B07221A7005E00D4B1B78BD
:103A8000013BDAB20B4B1A7080BD00BF000400404E
:103A90004C0000204E0000200000002050000020BC
:103AA000610000201600002062000020630000205A
:103AB000540000206400002080B500AF4548042178
:103AC000FCF726FE434B1B8F9AB2434B1A80424BA6
:103AD0001B889BB2002B0ED03E4B9B8E9BB2642268
:103AE00002FB03F23C4B1B889BB292FBF3F39AB2AE
:103AF0003A4B1A8005E0394B00221A80384B0022DD
:103B00001A60384B1B78DBB20133DAB2354B1A70CE
:103B1000344B1B78DAB2344B1B789A4258D9334B6A
:103B20001B78DBB2002B53D12C4B1B889BB2192B7B
:103B30001AD92A4B1B889BB2222B15D82C4B1B78E9
:103B40002B4A12782B498A5CD2B2D1B22A4A127817
:103B5000012000FA02F2D2B2D243D2B20A40D2B26B
:103B6000D1B2244AD15412E0214B1B78204A12785A
:103B700020498A5CD2B2D1B21F4A1278012000FAE1
:103B800002F2D2B20A43D2B2D1B21A4AD1541A4B7B
:103B90001B78002B16D1184B07221A70144B1B7878
:103BA0000133DAB2124B1A70114B1B78042B0FD170
:103BB0000E4B01221A700E4B00221A700E4B072278
:103BC0001A7005E00C4B1B78013BDAB20A4B1A70F5
:103BD00080BD00BF004001404C0000204E0000208E
:103BE000500000206100002016000020620000202C
:103BF00063000020540000206400002080B500AF66
:103C000009480221FCF784FD074B9B8C9BB2B3F55E
:103C1000C87F04D2044B9B8C9AB2044B5A80024B4F
:103C200000229A8480BD00BF004401404000002073
:103C300080B500AF0C480221FCF76AFD0B4B9B6876
:103C400003F40073002B0AD1074B9B8C9BB2B3F596
:103C5000C87F04D2044B9B8C9AB2054B1A80024B4E
:103C600000229A8480BD00BF00480140000C014042
:103C70004000002080B500AF284B00221A7044E0BD
:103C80001E2003F055FE02F091FA03461A46234B1C
:103C90001A700020002102F057FF214B1B781846B4
:103CA00002F07CFB1F4802F013FF1C4B1B78DBB2B9
:103CB000042B05D11A4B1B780133DAB2184B1A705A
:103CC000164B1B78DBB2012B05D1154B1B78013B42
:103CD000DAB2134B1A700120002102F035FF1248AE
:103CE00002F0F6FE114812490422022302F078F98C
:103CF0000120072102F028FF0E4802F0E9FE0E48DD
:103D00000B4904220A2302F06BF9044B1B78DBB247
:103D1000022BB5D103F014F980BD00BFAD00002027
:103D20001600002024A1000828A100086C00002033
:103D3000880000202CA100086800002080B584B015
:103D400000AF0346FB71FB79434AA3FB02015A1AF9
:103D500052080A449209652101FB02F29B1AFB7189
:103D60003E4B00221A706DE002F020FA03461A461C
:103D70003A4B1A700120032102F0E6FEFA79384B23
:103D800083FB02139911D317CB1A4FF47A7101FBFD
:103D900003F3D31A334A82FB03125211DB17D31AEF
:103DA000DBB23B72FB792F4AA2FB0312520964215A
:103DB00001FB02F29B1ADAB22B4BA3FB0213DB08C6
:103DC000DBB27B72FA79284BA3FB0213D9080B46AE
:103DD0009B000B445B00D31ADBB2BB72234802F09A
:103DE00077FE07F10803184621490322062302F053
:103DF000F7F801200C2102F0A7FE1E4802F068FE31
:103E00000A2003F095FD154B1B78DBB2042B08D17B
:103E1000FB79632B03D8FB790133FB7101E00023AD
:103E2000FB710E4B1B78DBB2012B08D1FB79002B09
:103E300002D10023FB7102E0FB79013BFB710A20F8
:103E400003F076FD054B1B78DBB2022B8CD1FB799E
:103E500018461037BD4680BD57866F44AD00002020
:103E6000D34D62101F85EB51CDCCCCCC30A10008D6
:103E70008800002034A1000880B582B000AF002384
:103E8000BB800023FB7103F05BF8204802F020FEAA
:103E90000A2003F04DFD3B1D40F20760194605F076
:103EA0007DFCBB88DBB21846FFF748FF0346FB7179
:103EB0000A2003F03DFDFB799BB240F207601946F2
:103EC00005F0B8FC03F03CF8114802F001FE0A20AE
:103ED00003F02EFD3B1D4FF4C160194605F05EFC5A
:103EE000BB88DBB21846FFF729FF0346FB710A20A7
:103EF00003F01EFDFB799BB24FF4C160194605F03B
:103F000099FC03F01DF80837BD4680BD38A10008B4
:103F100048A1000880B485B000AF78600023FB6042
:103F20007B68FA2202FB03F3FB6000BFFB685A1EAA
:103F3000FA60002BFAD11437BD465DF8047B704758
:103F400080B584B000AF02F0FBFF0020002102F03A
:103F5000FBFD02F0F5FF0020002102F0F5FD99487D
:103F6000012101F0BBFC47F23050FFF7D3FF00F016
:103F7000D5FA6420FFF7CEFF934B1B889BB2BB8022
:103F80000020002102F0E0FD9048022101F0A6FC93
:103F900047F23050FFF7BEFF00F0C0FA6420FFF791
:103FA000B9FF894B1B889BB2FB800020002102F0E7
:103FB000CBFD8748062101F091FC47F23050FFF716
:103FC000A9FF00F0ABFA6420FFF7A4FF7E4B1B882B
:103FD0009BB23B8102F0B4FF7E48012101F07EFCE0
:103FE00047F23050FFF796FF00F098FA6420FFF791
:103FF00091FF754B1B889BB27B817B89DB089AB252
:10400000BB88DB089BB29A4203D2734B01221A7021
:104010000EE07B89DB089AB2BB88DB089BB29A4230
:1040200003D96D4B00221A7002E06B4B02221A700A
:10403000694B1B78DBB2002B54D1FB881A46BB8836
:10404000D31ADA0F13445B109BB2053BFB81BA888D
:10405000FB895B089BB2D31A9AB2604B1A80BA886C
:10406000FB8913449AB25D4B5A80FA88FB89D31AB4
:104070009AB25A4B9A803B891A46FB88D31ADA0FB8
:1040800013445B109BB2053BFB81FA88FB89134408
:104090009AB2524BDA803A89FB89D31A9AB24F4BC3
:1040A0001A817B891A463B89D31ADA0F13445B10B5
:1040B0009BB2053BFB813A89FB8913449AB2474B7B
:1040C0005A817A89FB89D31A9AB2444B9A817A89A8
:1040D000FB895B089BB213449AB2404BDA8100F033
:1040E000DBF95AE03C4B1B78DBB2012B50D1BB888B
:1040F0001A46FB88D31ADA0F13445B109BB2053BB8
:10410000FB81BA88FB89D31A9AB2344B1A80BA88D9
:10411000FB8913449AB2314B5A80FA88FB89D31A2F
:104120009AB22E4B9A80FB881A463B89D31ADA0F33
:1041300013445B109BB2053BFB81FA88FB89134457
:104140009AB2264BDA803A89FB89D31A9AB2234B6A
:104150001A813B891A467B89D31ADA0F13445B1004
:104160009BB2053BFB813A89FB8913449AB21B4BF6
:104170005A817A89FB89D31A9AB2184B9A817A8923
:10418000FB8913449AB2154BDA8100F085F904E0FB
:10419000134802F09DFC00F0A1F9104B1B889AB265
:1041A0000E4B1B8A9BB29A4202D90B4B01221A700A
:1041B0000020002102F0C8FC0A4802F089FC1037F8
:1041C000BD4680BD30A10008C8000020ACA4000896
:1041D000B0A4000834A10008AC0000209C0000201E
:1041E000B8A40008C8A4000880B500AF02F0A8FE7B
:1041F0004FF4FA7003F09CFB3A4B00221A7068E00F
:1042000001F0D4FF03461A46364B1A7000200021F5
:1042100002F09AFC344802F05BFC344B1B889AB2E3
:10422000334BA3FB02135B099BB2DBB2184602F0CF
:10423000B5F82E4B1B889BB2DBB2184602F0AEF8E5
:104240002C4802F045FC294B5B889AB2284BA3FB13
:1042500002135B099BB2DBB2184602F09FF8234BB6
:104260005B889BB2DBB2184602F098F8012000216F
:1042700002F06AFC204802F02BFC1C4B9B889AB28F
:104280001B4BA3FB02135B099BB2DBB2184602F087
:1042900085F8164B9B889BB2DBB2184602F07EF87D
:1042A000164802F015FC114BDB889AB2104BA3FBA9
:1042B00002135B099BB2DBB2184602F06FF80B4B9E
:1042C000DB889BB2DBB2184602F068F8142003F0DA
:1042D0002FFB044B1B78DBB2022B91D102F030FE96
:1042E00080BD00BFAD000020989F0008C8000020DE
:1042F0001F85EB51D4A40008A09F0008D8A4000893
:1043000080B582B000AF0023FB7102F019FE4FF4BC
:10431000FA7003F00DFB284B00221A7041E001F007
:1043200045FF03461A46244B1A700020002102F074
:104330000BFC022003F0FCFA0023FB7109E0FB797F
:104340001E4AD35CDBB21846FCF7BAFCFB7901339A
:10435000FB71FB79042BF2D9012003F0E9FA01206B
:10436000002102F0F1FB154B5B79DBB21846FCF73C
:10437000A7FC124B9B79DBB21846FCF7A1FC104856
:1043800002F0A6FB0F4B1B78DBB2184602F006F8D2
:104390000A480D490722092301F022FE142003F0E8
:1043A000C7FA054B1B78DBB2022BB8D102F0C8FD6F
:1043B0000837BD4680BD00BFAD000020601600205C
:1043C0008CA00008D60000208800002080B582B0B4
:1043D00000AF0023FB7102F0B3FD4FF4FA7003F05D
:1043E000A7FA284B00221A7041E001F0DFFE0346D5
:1043F0001A46244B1A700020002102F0A5FB02206F
:1044000003F096FA0023FB7109E0FB791E4AD35CA6
:10441000DBB21846FCF754FCFB790133FB71FB79E6
:10442000042BF2D9012003F083FA0120002102F0CD
:104430008BFB154B5B79DBB21846FCF741FC124B4A
:104440009B79DBB21846FCF73BFC104802F040FBBE
:104450000F4B1B78DBB2184601F0A0FF0A480D494C
:104460000722092301F0BCFD142003F061FA054B7B
:104470001B78DBB2022BB8D102F062FD0837BD46D3
:1044800080BD00BFAD0000208C1600208CA000086D
:104490004A0000208800002080B582B000AF0023D1
:1044A000FB710023FB7110E0FB799BB203F20A63FE
:1044B0009AB2F979084B33F811309BB2104619467D
:1044C00005F0B8F9FB790133FB71FB79072BEBD9C8
:1044D0000837BD4680BD00BF9C00002080B582B07B
:1044E00000AF0023FB710023FB710FE0FB799BB24F
:1044F00003F20A639AB2FB795900074B0B4410464A
:10450000194605F04BF9FB790133FB71FB79072B59
:10451000ECD90837BD4680BD9C00002080B49BB01C
:1045200000AF002387F86730002387F86630002348
:104530003B660023FB650023BB6500237B650023EE
:1045400087F8663077E0002387F8673048E097F80F
:10455000671097F8673001335B0007F16802134476
:1045600033F8282C4B0007F168010B4423F8282C62
:1045700097F8671097F8673001335B0007F168021E
:10458000134433F83C2C4B0007F168010B4423F82B
:104590003C2C97F8671097F8673001335B0007F100
:1045A0006802134433F8502C4B0007F168010B44A8
:1045B00023F8502C97F8671097F8673001335B00A9
:1045C00007F16802134433F8642C4B0007F16801CB
:1045D0000B4423F8642C97F86730013387F8673071
:1045E00097F86730082BB2D9274BDB6B9BB2A7F843
:1045F0005230254B1B6C9BB2FB87234B5B6C9BB2F1
:104600007B85214B9B6C9BB2FB82B7F852303A6E94
:1046100013443B66FB8FFA6D1344FB657B8DBA6DCB
:104620001344BB65FB8A7A6D13447B6597F866304B
:10463000013387F8663097F86630082B83D93A6ED5
:10464000124BA3FB0213DB089AB2114B1A80FA6DCE
:104650000E4BA3FB0213DB089AB20D4B5A80BA6DC6
:104660000A4BA3FB0213DB089AB2094B9A807A6DBE
:10467000064BA3FB0213DB089AB2054BDA806C37BA
:10468000BD465DF8047B704700240140CDCCCCCC06
:10469000C800002080B584B000AF0346FB71002342
:1046A0007B730023FB8102F04BFC0020002102F011
:1046B0004BFA1F4802F00CFAFB790133FB71FB79CE
:1046C000184601F06BFE1B4802F002FAFB79013B31
:1046D000FB71FB799BB203F2FF53FB81FA8907F16F
:1046E0000D031046194605F059F8322003F020F961
:1046F0007B7B184600F080FC03467B73322003F07E
:1047000017F9FB799BB203F2FF53FB817B7BFA899C
:104710001046194605F08EF8052003F009F902F05D
:1047200063F9052003F004F91037BD4680BD00BFD2
:10473000DCA40008E4A4000880B500AF012003F069
:10474000F7F802F0FDFB064802F0C2F94FF4FA70E8
:1047500003F0EEF802F0F4FB012003F0E9F880BD6D
:10476000ACA4000880B588B000AF78600023FB7768
:104770000023BB770023BB6100237B6100233B61E7
:10478000FFF7CCFE01F090FBB8610023FB7772E0ED
:10479000FB7F9BB21A46920013449BB203F2DA539A
:1047A000FB81FB89184601F0C9FF7861FB89023360
:1047B0009BB2184601F0C2FF38617B69584AA2FBE0
:1047C0000312120C574901FB02F29B1A7B613B69F1
:1047D000534AA2FB0312120C524901FB02F29B1A2C
:1047E0003B61BB694E4AA2FB0312120C4D4901FB0F
:1047F00002F29B1ABB61012003F09AF8012003F03A
:1048000097F8BA693B699A4206D2BA697B699A42BB
:1048100002D90123BB7701E00023BB777A693B69AA
:104820009A420CD9BA697B699A4206D2BA693B6945
:104830009A4202D90023BB7701E00123BB77BB7FFB
:10484000012B0AD1FB7F012202FA03F31A46364BF1
:104850001B681A43344B1A600AE0FB7F012202FAFC
:1048600003F3DB431A46304B1B681A402E4B1A6089
:10487000FB7F0133FB77FB7F032B89D9012003F0FA
:1048800057F80023FB7747E0FB7F9BB21A46920064
:1048900013449BB203F5B863FB81FB89184601F012
:1048A0004DFF7861FB8902339BB2184601F046FF49
:1048B0003861012003F03CF801F0F6FAB861BB69F9
:1048C0003A69B3FBF2F2396901FB02F29B1ABB6150
:1048D000BA697B699A420CD20123BB77FB7F012224
:1048E00002FA03F31A46114B1B681A430F4B1A6066
:1048F0000CE00023BB77FB7F012202FA03F3DB43CA
:104900001A460A4B1B681A40084B1A60012003F034
:104910000FF8FB7F0133FB77FB7F022BB4D92FE726
:1049200007452EC280510100B0000020B4000020D5
:1049300080B400AFBD465DF8047B704780B584B09D
:1049400000AF78600023FB730023BB7300237B73ED
:1049500000233B73874B1B78DBB2332B00F00081C5
:1049600000233B73F8E000237B733B7B824AD35CDC
:10497000BB73BB7B1F2B0ED8BB7B012202FA03F358
:10498000DAB27E4B1B68DBB21340FB73FA7BBB7B56
:1049900042FA03F3FB73BB7B3F2B07D9BB7B422B54
:1049A00004D802237B73BB7B203BBB73BB7B422BB6
:1049B00007D9BB7B442B04D803237B73BB7B233BEE
:1049C000BB73BB7B452B04D9BB7B472B01D804238E
:1049D0007B73BB7B502B01D105237B73BB7B632B8C
:1049E00006D1FF237B733B7B1846012100F0E2F9DF
:1049F000BB7B622B06D1FE237B733B7B18460021D9
:104A000000F0D8F9BB7B1F2B14D9BB7B3F2B11D8EF
:104A1000BB7B203BBB73BB7B012202FA03F3DAB200
:104A2000574B1B68DBB21340FB73FA7BBB7B42FA2C
:104A300003F3FB737B7B022B13D1FB7B002B40F03A
:104A40008580504B1B881A463B7B42FA03F303F0E8
:104A50000103002B7AD03B7B1846002100F0AAF915
:104A600074E07B7B032B44D1FB7B012B15D1454BA1
:104A70001B881A463B7B42FA03F303F00103002B29
:104A80000BD1BB7B002B08D13F4B1B78012B04D1F2
:104A90003B7B1846012100F08DF9FB7B012B15D1E2
:104AA000384B1B881A463B7B42FA03F303F00103A1
:104AB000002B0BD1BB7B002B08D1334B1B78002B79
:104AC00004D13B7B1846012100F074F9FB7B002BDD
:104AD0003CD12C4B1B881A463B7B42FA03F303F074
:104AE0000103002B32D03B7B1846002100F062F915
:104AF0002CE07B7B042B29D07B7B052B26D1234B01
:104B00001B78DBB203F00103002B1FD0204B1B7876
:104B1000DBB203F00103002B18D11E4B9B889AB225
:104B20001D4B1B889A4203D90020002100F042F956
:104B3000012002F0FDFE174B9B889AB2174B1B8891
:104B40009A4203D20020012100F034F9012002F042
:104B5000EFFE3B7B01333B733B7B032B7FF603AFC5
:104B6000012002F0E5FE012002F0E2FEFFF7E0FE88
:104B7000F0E600BF1400002018000020B000002064
:104B8000B4000020BC0000207400002017000020AA
:104B9000AF000020C8000020C2000020C400002098
:104BA00080B582B000AF0023FB710023BB800023DF
:104BB0007B8000233B80524B33221A7002F0C0F9F5
:104BC00040F2FF537B807B881846502104F032FE70
:104BD0003B884C4A5021D1544B4801F079FF31E0D9
:104BE0000120002101F0B0FF484801F071FFFB797E
:104BF000012B03D10020012100F0DCF8FB79022B0E
:104C000003D10020002100F0D5F8FB79032B04D15B
:104C10003F4B9B889AB23F4B1A80192002F088FEC6
:104C20003B4B9B889BB21846FCF7AAFA3A4801F026
:104C30004FFF384B1B881846FCF7A2FA01F0B6FA72
:104C40000346FB71FB79042BCAD1344B1B78184601
:104C5000002100F0AFF8FFF76FFD0023FB7131E09A
:104C60000120002101F070FF2D4801F031FFFB7998
:104C7000012B03D10020012100F09CF8FB79022BCD
:104C800003D10020002100F095F8FB79032B04D11B
:104C90001F4B9B889AB2234B1A800A2002F048FED1
:104CA0001B4B9B889BB21846FCF76AFA1A4801F026
:104CB0000FFF1C4B1B881846FCF762FA01F076FACE
:104CC0000346FB71FB79042BCAD10020002100F0C0
:104CD00071F80B4B30221A700E4B1B8840F2476064
:104CE000194604F0A7FD0F4B1B884FF4C960194605
:104CF00004F0A0FDFFF720FD0837BD4680BD00BFD2
:104D00001400002018000020ECA40008FCA40008F7
:104D1000C8000020C200002004A50008C000002038
:104D200008A50008C400002080B582B000AF0023B1
:104D3000FB710023BB711D4B33221A702CE0002045
:104D4000002101F001FF1A4801F0C2FEFB7918466C
:104D500001F024FBBB79012B07D1FB790133FB71F7
:104D6000FB79042B01D10023FB71BB79022B04D109
:104D7000FB791846012100F01DF8BB79032B04D103
:104D8000FB791846002100F015F80A2002F0D0FD4A
:104D900001F00CFA0346BB71BB79042BCFD1034B56
:104DA00030221A700837BD4680BD00BF14000020B5
:104DB00010A5000880B483B000AF02460B46FA711C
:104DC000BB71FB79002B03D1BB79C3F10103BB712C
:104DD000BB79012B13D1174BFA79012101FA02F2A9
:104DE0001A61FB79012202FA03F39AB2124B1B8873
:104DF0009BB213439BB29AB20F4B1A8014E00D4B37
:104E0000FA79012101FA02F25A61FB79012202FAD0
:104E100003F39BB2DB439AB2074B1B889BB2134050
:104E20009BB29AB2044B1A800C37BD465DF8047BE6
:104E3000704700BF00100140BC00002080B584B066
:104E400000AF03463960FB803B68FB813B681B0C6D
:104E5000BB81FB8801339AB2FB891046194604F0E6
:104E6000E9FCFA88BB891046194604F0E3FC1037C8
:104E7000BD4680BD80B586B000AF0346FB71002300
:104E80007B610023FB7402F05BF8FB79013B1B2B79
:104E900000F2A98001A252F823F000BFE74F0008FA
:104EA0000D4F0008314F0008374F00083D4F0008F4
:104EB000594F0008E74F0008E74F00087D4F0008F2
:104EC000E74F0008E74F0008E74F0008E74F0008EA
:104ED000E74F0008E74F0008E74F0008A14F000820
:104EE000B34F0008E74F0008B94F0008C34F000850
:104EF000C94F0008CF4F0008E74F0008E74F0008F0
:104F0000E74F0008DB4F0008E14F0008374801F089
:104F1000DFFD01200421012200F0BCFA0346FB74EE
:104F2000FB7C013BFB74FB7C184600F0FBFA5AE06B
:104F3000FFF7FAFE57E0FFF733FE54E000F0B4FF4E
:104F400078617869012100F067FBF860F86800F08B
:104F5000BDFF01F0F5FF46E0254801F0B9FD012055
:104F60000421012200F096FA0346FB74FB7C013B0E
:104F7000FB74FB7C184600F015FA34E01D4801F084
:104F8000A7FD01200421012200F084FA0346FB74EE
:104F9000FB7C013BFB74FB7C1846FFF77BFB22E0AC
:104FA000FEF768FEFFF720F9FFF7AAF9FFF70EFA00
:104FB00019E0FEF761FF16E0FDF7D8FCFDF7D6FC1F
:104FC00011E0FDF74DFF0EE0FDF72EFF0BE0002096
:104FD00000216422FCF704F805E0FEF733F802E054
:104FE000FDF7F4F900BF1837BD4680BD18A50008CD
:104FF0002CA5000840A5000880B582B000AF03468C
:10500000FB71FB79632B01D96323FB71224B0022D7
:105010001A7035E001F0CAF803461A461E4B1A70A2
:10502000192002F085FC1C4B1B78DBB2012B08D148
:10503000FB79012B02D8FF23FB7102E0FB79013BD6
:10504000FB71154B1B78DBB2042B08D1FB79FF2BCE
:1050500002D10123FB7102E0FB790133FB710120D6
:10506000002101F071FD0D4801F032FDFB79184679
:10507000FBF726FE0A4801F02BFD192002F058FC30
:10508000054B1B78DBB2022BC4D1FFF755FBFB7934
:1050900018460837BD4680BDAD00002088A5000831
:1050A0008CA5000880B582B000AF0346FB80FA886B
:1050B0004FF6FF739A4201D10023FB80244B00225C
:1050C0001A7038E001F072F803461A46204B1A7045
:1050D000192002F02DFC1E4B1B78DBB2012B09D1ED
:1050E000FB88002B03D14FF6FF73FB8002E0FB88A7
:1050F000013BFB80164B1B78DBB2042B0AD1FA88EC
:105100004FF6FF739A4202D10023FB8002E0FB8836
:105110000133FB800120042101F016FD0D4801F050
:10512000D7FCFB881846FCF72BF80B4801F0D0FCA5
:10513000192002F0FDFB064B1B78DBB2022BC1D11C
:10514000FFF7FAFAFB8818460837BD4680BD00BF56
:10515000AD00002088A500088CA5000880B586B0A9
:1051600000AF02460B46FA807B71FA884FF6FF7358
:105170009A4201D10023FB80C82002F0D9FB254BC5
:1051800000221A703AE001F011F803461A46214B4A
:105190001A707B79184602F0CBFB1E4B1B78DBB2F2
:1051A000012B09D1FB88002B03D14FF6FF73FB8045
:1051B00002E0FB88013BFB80164B1B78DBB2042B23
:1051C0000AD1FA884FF6FF739A4202D10023FB807E
:1051D00002E0FB880133FB800120042101F0B4FCD4
:1051E0000D4801F075FCFB881846FBF7C9FF0B481A
:1051F00001F06EFC7B79184602F09AFB054B1B7898
:10520000DBB2022BBFD1FFF797FAFB88184618379D
:10521000BD4680BDAD00002088A500088CA5000813
:1052200080B586B000AF786079685A4BA3FB012344
:105230005A0913461B019B1A9B00CA1A13467B7519
:105240007A68544BA3FB02135B097B607968514B6E
:10525000A3FB01235A0913461B019B1A9B00CA1A80
:105260001346BB757A684B4BA3FB02135B097B604B
:105270007968494BA3FB01239A0913465B00134449
:105280005A011344CA1A1346FB7501F059FE142043
:1052900002F04EFB73E000F089FF03463B753B7D57
:1052A000012B08D1FB7D622B02D90023FB7502E0A4
:1052B000FB7D0133FB753B7D022B08D1BB7D3A2B77
:1052C00002D90023BB7502E0BB7D0133BB753B7D7A
:1052D000032B08D17B7D3A2B02D900237B7502E09A
:1052E0007B7D01337B75052002F022FB0020042129
:1052F00001F02AFCFB7D184601F050F8274801F028
:10530000E7FBBB7D184601F049F8244801F0E0FBBB
:105310007B7D184601F042F8052002F009FBFB7D79
:10532000FB74BB7DBB747B7D7B74FB7C4FF4616243
:1053300002FB03F37B60BA7C13461B019B1A9B00A4
:105340007A6813447B607B7C7A6813447B60052019
:1053500002F0EEFA0120032101F0F6FB07F1080349
:105360007868194601F004F907F1080318460C495A
:105370000A22022300F034FE0A2002F0D9FA3B7D13
:10538000042B88D1FFF7D8F97B6818461837BD463B
:1053900080BD00BF8988888803B57EA590A50008D8
:1053A0008800002080B584B000AF0346FB710A205E
:1053B00002F0BEFA01F0C4FDFB799BB21A469200DE
:1053C00013449BB203F5B8637B817B89184601F0D7
:1053D000B5F9F860FA682C4B9A4201D92A4BFB6068
:1053E0000020022101F0B0FB284801F071FB40F6DB
:1053F000B83002F09DFAF868FFF712FFF860FB7909
:105400009BB21A46920013449BB203F5B8637B81AA
:105410007B891846F968FFF711FD322002F088FAFF
:10542000FFF78AF9FB799BB21A46920013449BB2AC
:1054300003F2C2537B817B89184601F07FF9F86043
:1054400001F07EFD0020022101F07EFB104801F0FA
:105450003FFB4FF4FA7002F06BFAF868FFF7E0FEDA
:10546000F860FB799BB21A46920013449BB203F298
:10547000C2537B817B891846F968FFF7DFFCFFF791
:105480005BF91037BD4680BD3070050094A500085B
:10549000A4A5000880B582B000AF13460246FA7199
:1054A0000A46BA717B711E4B00221A702BE019203C
:1054B00002F03EFA0120002101F046FB7B791846FC
:1054C00000F06CFF164B1B78DBB2042B06D17A7907
:1054D000BB799A4202D27B7901337B71104B1B78E6
:1054E000DBB2012B06D17A79FB799A4202D97B791A
:1054F000013B7B7100F05AFE03461A46084B1A70B6
:10550000192002F015FA064B1B78DBB2022BCED124
:10551000FFF712F97B7918460837BD4680BD00BFFA
:10552000AD00002080B586B000AF0346FB71FB796B
:105530009BB21A46920013449BB203F2DA53FB82E9
:1055400001F0FEFC0020022101F0FEFA304801F0DB
:10555000BFFA40F2DC5002F0EBF901F0F1FC32202E
:1055600002F0E6F9FB8A184601F0E8F838613220CB
:1055700002F0DEF93869012100F04EF8F860FB8A8C
:105580001846F968FFF75AFC0020022101F0DCFA06
:10559000204801F09DFA322002F0CAF902F02AFAFE
:1055A000FB799BB21A46920013449BB203F2DC5380
:1055B000FB82FB8A184601F0C1F8386102F028FA34
:1055C00040F2DC5002F0B4F901F0BAFC3869012174
:1055D00000F022F8F860FB8A1846F968FFF72EFC05
:1055E00002F008FAFB799BB21A46920013449BB270
:1055F00003F2DE53FB82FB8A184601F09FF8386104
:1056000002F006FA322002F093F91837BD4680BD49
:10561000B4A50008C0A5000890B593B000AF7861AC
:105620000B46FB7401F08CFC07F1340318467969D2
:1056300000F074F985E000F0B9FD03461A46A34B6B
:105640001A70A24B1B78DBB2012B09D1BB8E162B33
:1056500002D90023BB8603E0BB8E01339BB2BB861D
:105660009A4B1B78DBB2022B09D1FB8E3A2B02D965
:105670000023FB8603E0FB8E01339BB2FB86934B3A
:105680001B78DBB2032B09D13B8F3A2B02D90023C5
:105690003B8703E03B8F01339BB23B87052002F041
:1056A00047F90020002101F04FFABB8EDBB218460B
:1056B00000F074FE864801F00BFAFB8EDBB2184650
:1056C00000F06CFE824801F003FA3B8FDBB2184613
:1056D00000F064FE07F134030FCB00F09DFA78640C
:1056E00007F124031846796C00F018F907F1180344
:1056F000786C194600F03CFF00200A2101F024FAE2
:10570000BB8CDBB2184600F049FEFB8CDBB21846BE
:1057100000F044FE3B8DDBB2184600F03FFE012056
:10572000022101F011FA052002F002F907F1180335
:10573000184668490A22022300F052FC142002F0A5
:10574000F7F8624B1B78DBB2042B7FF474AF5F4B2E
:1057500000221A70FEF7F0FFFB7C012B40F09880CE
:105760008FE000F023FD03461A46584B1A70574B42
:105770001B78DBB2032B09D1FB8F322B02D90C2310
:10578000FB8703E0FB8F01339BB2FB874F4B1B78FA
:10579000DBB2022B09D1BB8F0B2B02D90123BB87B4
:1057A00003E0BB8F01339BB2BB87484B1B78DBB256
:1057B000012B09D17B8F1E2B02D901237B8703E0AC
:1057C0007B8F01339BB27B87052002F0B1F807F194
:1057D00034030FCB00F020FA78643B461846796C0E
:1057E00000F09CF807F124033C4620686168A26839
:1057F00007C3A2891A8007F11803786C194600F0D4
:10580000B7FE052002F094F80020002101F09CF979
:105810007B8FDBB2184600F0C1FD2F4801F058F92C
:10582000BB8FDBB2184600F0B9FD2B4801F050F9F0
:10583000FB8FDBB2184600F0B1FD052002F078F8CE
:1058400000200A2101F080F97B8DDBB2184600F0C0
:10585000A5FDBB8DDBB2184600F0A0FDFB8DDBB2D1
:10586000184600F09BFD052002F062F807F11803CE
:10587000184618490A22022300F0B2FB322002F037
:1058800057F8124B1B78DBB2042B7FF46AAF16E09B
:1058900000237B64BB8E4FF4616202FB03F37A6CDE
:1058A00013447B64FB8E1A4613461B019B1A9B0014
:1058B0007A6C13447B643B8F7A6C13447B64FEF7F1
:1058C0003BFF7B6C18464C37BD4690BDAD000020B9
:1058D00090A5000888000020D0A5000880B584B0FD
:1058E00000AF78600B46FB700023BB730023FB7393
:1058F0000023FB730BE0FB7B7A6813441B78BB73BC
:10590000BB7B184601F0CAF9FB7B0133FB73FA7BC2
:10591000FB789A42EFD31037BD4680BD90B48AB071
:1059200000AF786039603A68AD4B13443B62396828
:10593000AC4BA3FB01035A0913461B019B1A9B00A6
:10594000CA1A93B23B823A68A64BA3FB02135B09C7
:105950003B603968A34BA3FB01235A0913461B0183
:105960009B1A9B00CA1A93B2FB813A689D4BA3FB1A
:1059700002035B093B6039689B4BA3FB01231A09B7
:1059800013465B001344DB00CA1A93B2BB813A6A28
:10599000964BA3FB02031B0C3B623A6A944BA3FB9E
:1059A0000213DB0940F2B55101FB03F3D31AFB8369
:1059B0003A6A8F4BA3FB0203DB097B77FB8B013336
:1059C000FB83FB8B3A2B08D87B7F03339BB29B0076
:1059D0009BB2FB82FB8B0133BB84FB8B3A2B18D928
:1059E000FB8BB3F5B77F14D87B7F9BB29B009AB239
:1059F000FB8B013B7F4981FB030119440912DB1733
:105A0000CB1A9BB213449BB20C339BB2FB82FB8B31
:105A1000BB84FB8BB3F5B77F24D37B7F9BB29B000A
:105A20009AB2FB8B013B734981FB030119440912B4
:105A3000DB17CB1A9BB213449BB20C339BB2FB8295
:105A4000FB8BA3F5B7736B4A82FB03121A44111246
:105A5000DA178A1A40F26D1101FB02F29A1A93B218
:105A60000133BB84BB8C002B08D0BB8C1F2B05D80B
:105A7000012387F82730BB8C87F82630BB8C1F2B7F
:105A80000AD9BB8C3B2B07D8022387F82730BB8C65
:105A9000DBB21F3B87F82630BB8C3B2B0AD9BB8C73
:105AA0005A2B07D8032387F82730BB8CDBB23B3B4C
:105AB00087F82630BB8C5A2B0AD9BB8C782B07D899
:105AC000042387F82730BB8CDBB25A3B87F826309B
:105AD000BB8C782B0AD9BB8C972B07D8052387F86A
