:020000040800F2
:10000000FC1F002031070008910700089107000835
:100010009107000891070008910700080000000000
:100020000000000000000000000000005DA50008C6
:10003000910700080000000031A600086DA6000826
:100040009107000891070008910700089107000830
:100050009107000891070008C12D0008DD2D000858
:10006000F92D000891070008910700089107000882
:100070009107000891070008212A0008352A000886
:100080009107000891070008910700080000000090
:10009000000000000000000000000000252E000805
:1000A000613C0008993D0008CD3D0008910700081B
:1000B000910700080D3B0008910700089107000810
:1000C00091070008910700089107000891070008B0
:1000D00091070008FD1D000891070008910700081E
:1000E000052E000891070008910700080000000095
:1000F0000000000000000000000000000000000000
:1001000000000000000000000000000000000000EF
:10011000000000000000000091070008910700089F
:100120005FF808F180B485B000AF786039600023D3
:10013000FB817B681B88FB817A682E4B9A4213D027
:100140007A682D4B9A420FD07B68B3F1804F0BD069
:100150007A682A4B9A4207D07A68294B9A4203D090
:100160007A68284B9A4208D1FB8923F07003FB81FF
:100170003B685A88FB891343FB817A68224B9A4279
:100180000CD07A68214B9A4208D0FB8923F4407343
:10019000FB813B68DA88FB891343FB817B68FA8922
:1001A0001A803B689A887B689A853B681A887B68C6
:1001B0001A857A680F4B9A420FD07A680E4B9A4292
:1001C0000BD07A68124B9A4207D07A68114B9A4248
:1001D00003D07A68104B9A4204D13B681B7A1A46C6
:1001E0007B681A867B6801229A821437BD465DF8C7
:1001F000047B7047002C01400034014000040040A3
:1002000000080040000C00400010004000140040B6
:1002100000400140004401400048014080B485B0E6
:1002200000AF7860396000237B810023FB810023CD
:10023000BB817B681B8C9BB223F001039AB27B6865
:100240001A847B681B8CFB817B689B88BB817B68E5
:100250001B8B7B817B8923F070037B817B8923F05F
:1002600003037B813B681A887B8913437B81FB896D
:1002700023F00203FB813B681A89FB891343FB814E
:100280003B685A88FB891343FB817A68244B9A4266
:100290000FD07A68234B9A420BD07A68224B9A424D
:1002A00007D07A68214B9A4203D07A68204B9A4251
:1002B00023D1FB8923F00803FB813B685A89FB8922
:1002C0001343FB81FB8923F00403FB813B689A887D
:1002D000FB891343FB81BB8923F48073BB81BB89FA
:1002E00023F40073BB813B689A89BB891343BB81AC
:1002F0003B68DA89BB891343BB817B68BA899A80E2
:100300007B687A891A833B68DA887B689A867B687F
:10031000FA891A841437BD465DF8047B704700BF24
:10032000002C0140003401400040014000440140E5
:100330000048014080B485B000AF78603960002388
:100340007B810023FB810023BB817B681B8C9BB2DC
:1003500023F010039AB27B681A847B681B8CFB81A4
:100360007B689B88BB817B681B8B7B817B8923F4AB
:10037000E0437B817B8923F440737B813B681B884E
:100380001B029AB27B8913437B81FB8923F02003F4
:10039000FB813B681B891B019AB2FB891343FB81DC
:1003A0003B685B881B019AB2FB891343FB817A6827
:1003B000224B9A4203D07A68214B9A422BD1FB8977
:1003C00023F08003FB813B685B891B019AB2FB89A8
:1003D0001343FB81FB8923F04003FB813B689B882F
:1003E0001B019AB2FB891343FB81BB8923F4806311
:1003F000BB81BB8923F40063BB813B689B899B0065
:100400009AB2BB891343BB813B68DB899B009AB2DC
:10041000BB891343BB817B68BA899A807B687A89E0
:100420001A833B68DA887B681A877B68FA891A84A2
:100430001437BD465DF8047B704700BF002C0140B7
:100440000034014080B485B000AF7860396000238B
:100450007B810023FB810023BB817B681B8C9BB2CB
:1004600023F480739AB27B681A847B681B8CFB81AF
:100470007B689B88BB817B689B8B7B817B8923F01E
:1004800070037B817B8923F003037B813B681A889F
:100490007B8913437B81FB8923F40073FB813B68D9
:1004A0001B891B029AB2FB891343FB813B685B8863
:1004B0001B029AB2FB891343FB817A68224B9A4252
:1004C00003D07A68214B9A422BD1FB8923F4006335
:1004D000FB813B685B891B029AB2FB891343FB815A
:1004E000FB8923F48063FB813B689B881B029AB2E3
:1004F000FB891343FB81BB8923F48053BB81BB89F8
:1005000023F40053BB813B689B891B019AB2BB89D2
:100510001343BB813B68DB891B019AB2BB89134340
:10052000BB817B68BA899A807B687A899A833B68A9
:10053000DA887B689A877B68FA891A841437BD4603
:100540005DF8047B704700BF002C0140003401407F
:1005500080B485B000AF786039600023BB81002390
:100560007B810023FB817B681B8C9BB223F480532F
:100570009AB27B681A847B681B8C7B817B689B8822
:10058000FB817B689B8BBB81BB8923F4E043BB81F0
:10059000BB8923F44073BB813B681B881B029AB262
:1005A000BB891343BB817B8923F400537B813B6868
:1005B0001B891B039AB27B8913437B813B685B8851
:1005C0001B039AB27B8913437B817A68124B9A4250
:1005D00003D07A68114B9A420AD1FB8923F48043F5
:1005E000FB813B689B899B019AB2FB891343FB818A
:1005F0007B68FA899A807B68BA899A833B68DA8833
:100600007B68A3F840207B687A891A841437BD463A
:100610005DF8047B704700BF002C014000340140AE
:1006200080B483B000AF78607B684FF6FF729A8029
:100630007B6800221A807B680022DA807B680022B7
:100640005A807B6800221A720C37BD465DF8047B25
:10065000704700BF80B483B000AF78607B68002231
:100660001A807B6800225A807B6800229A807B680F
:100670000022DA807B6800221A817B6800225A817E
:100680007B6800229A817B680022DA810C37BD46A4
:100690005DF8047B704700BF80B483B000AF786022
:1006A0000B46FB70FB78002B08D07B681B889BB245
:1006B00043F001039AB27B681A8007E07B681B88CD
:1006C0009BB223F001039AB27B681A800C37BD46B7
:1006D0005DF8047B704700BF80B483B000AF7860E2
:1006E0007B689B8E9BB218460C37BD465DF8047B39
:1006F000704700BF80B483B000AF78607B681B8F09
:100700009BB218460C37BD465DF8047B704700BFAE
:1007100080B483B000AF78600B467B807B88DB437E
:100720009AB27B681A820C37BD465DF8047B70472D
:1007300080B582B000AF114B7B60114B3B6007E08E
:100740003B681A1D3A607A68111D796012681A6058
:100750003A680C4B9A42F3D30B480C494FF0000215
:100760008842B8BF40F8042BFFF6FAAF00F014F847
:1007700006F016FF0837BD4680BD00BFB4DE000896
:10078000000000204800002048000020FC1B002042
:1007900080B400AFFEE700BF80B500AF164B164A2D
:1007A000126842F001021A60134A134B5968134B46
:1007B0000B405360104A104B1B6823F0847323F4E2
:1007C000803313600C4B0C4A126822F480221A60AA
:1007D000094B094A526822F4FE025A60064B4FF454
:1007E0001F029A60044B0022DA6200F00BF8044BFF
:1007F0004FF000629A6080BD001002400000FFF8D8
:1008000000ED00E080B500AF00F002F880BD00BF51
:1008100080B483B000AF00237B6000233B60304B8B
:100820002F4A126842F480321A602D4B1B6803F481
:1008300000333B607B6801337B603B68002B03D156
:100840007B68B3F5A06FF0D1254B1B6803F0020362
:10085000002B02D001233B6001E000233B603B689A
:10086000012B37D11E4B1E4A52685A601C4B1C4A42
:1008700052685A601A4B1A4A52685A60184B184A02
:10088000526822F47C125A60154B154A526842F4A1
:1008900098125A60124B124A126842F080721A6023
:1008A00000BF0F4B1B6803F00073002BF9D00C4BFB
:1008B0000B4A526822F003025A60094B084A5268F8
:1008C00042F002025A6000BF054B5B6803F00C0364
:1008D000082BF9D10C37BD465DF8047B704700BF8B
:1008E0000010024080B485B000AF0346FB710D4B91
:1008F0001B889BB2FB60FB79002B04D1FB6843F0A3
:100900003803FB6005E0FB6823F0380343F008037D
:10091000FB60044BFA6892B21A801437BD465DF84A
:10092000047B70470038004080B483B000AF0346BA
:10093000FB710C37BD465DF8047B704780B400AF97
:1009400001231846BD465DF8047B704780B582B030
:1009500000AF0346FB71FB799BB20A4819460BF0C6
:10096000EDFE00BF074801210BF004FF0346002BFA
:10097000F8D004480BF0F0FE0346DBB21846083707
:10098000BD4680BD0038004080B500AFFF20FFF7B6
:10099000DDFF0346184680BD80B582B000AF0A4B2C
:1009A00032221A60FFF7F0FFFFF7EEFF0346FB71FC
:1009B000FB79FF2B03D0044B1B68002BF4D1FB7990
:1009C00018460837BD4680BD4C00002080B500AFFA
:1009D00003484FF4805100F03BFEFFF7D5FF80BD88
:1009E000000C014080B400AF454B454A926942F08B
:1009F00001029A61424B424AD26942F48042DA6172
:100A00003F4B3F4A926942F008029A613D4B3D4A92
:100A1000526842F040525A603A4B3A4A526822F0C9
:100A200040425A60374B4FF400421A61354B354A09
:100A3000526842F040725A60324B324A526822F099
:100A400040625A602F4B2F4A526842F000625A604F
:100A50002C4B4FF480421A612A4B2A4A526822F4E6
:100A600040125A60274B274A526822F440025A60CB
:100A7000244B244A526842F400025A60214B214A16
:100A8000526842F440325A601E4B1E4A526822F4A9
:100A900040225A601B4B1B4A526842F400225A60A3
:100AA000174B174AD26942F48042DA61164B002292
:100AB0009A80154B04221A80134B134A128892B263
:100AC00042F0380292B21A800F4B0F4A128892B24B
:100AD00042F4807292B21A800B4B0B4A128892B287
:100AE00042F4007292B21A80074B074A128892B2FF
:100AF00042F0400292B21A80BD465DF8047B704716
:100B000000100240000C01400038004080B582B067
:100B100000AF1A4B1B78DBB203F00103002B08D1A6
:100B200017484FF4805100F0A1FDFFF735FFFFF7A4
:100B30004DFF14480BF0A8FD124800210BF0DEFD1C
:100B40004FF48040002107F0CDFF4FF46043BB809D
:100B50002823FB713B1D0A48194600F0A9FC002020
:100B6000FFF7E2FE054B1B78DBB243F00103DAB27C
:100B7000024B1A700837BD4680BD00BF140000202C
:100B8000000C01400038004090B585B000AF78609F
:100B90003960214B0A221A60FFF7F6FE0346FB7309
:100BA000FB7BFF2B03D11C4B1B68002BF4D1FB7B81
:100BB000FE2B01D000232AE07C68631C7B60FF20B1
:100BC000FFF7C4FE034623707C68631C7B60FF2034
:100BD000FFF7BCFE034623707C68631C7B60FF202C
:100BE000FFF7B4FE034623707C68631C7B60FF2024
:100BF000FFF7ACFE034623703B68043B3B603B6859
:100C0000002BD9D1FFF7C0FEFFF7BEFE0123184627
:100C10001437BD4690BD00BF4800002080B584B0A9
:100C200000AF78600B46FB70FFF7B6FE0346FF2B64
:100C300001D000232EE0FB781846FFF787FEFB78F3
:100C4000FD2B26D00023FB737B685A1C7A601B782F
:100C50001846FFF77BFE7B685A1C7A601B781846A3
:100C6000FFF774FEFB7B013BFB73FB7B002BEBD19F
:100C7000FF20FFF76BFEFF20FFF768FEFFF784FE03
:100C80000346BB73BB7B03F01F03052B01D000237E
:100C900000E0012318461037BD4680BD80B584B002
:100CA00000AF03463960FB71FB795BB2002B0EDAB3
:100CB000FB7903F07F03FB7177200021FFF7EEFF44
:100CC0000346BB73BB7B012B01D9BB7B51E02B4897
:100CD0004FF4805100F0BCFC28484FF4805100F0E4
:100CE000C5FCFFF759FE0346FF2B01D0FF2340E070
:100CF000FB791846FFF72AFE3B681B0EDBB218464D
:100D0000FFF724FE3B681B0CDBB21846FFF71EFE04
:100D10003B681B0ADBB21846FFF718FE3B68DBB2E4
:100D20001846FFF713FE0123FB73FB79402B01D11B
:100D30009523FB73FB79482B01D18723FB73FB7B46
:100D40001846FFF703FEFB794C2B01D1FFF71CFE81
:100D50000A23FB73FFF718FE0346BB73BB7B5BB232
:100D6000002B05DAFB7B013BFB73FB7B002BF1D1F6
:100D7000BB7B18461037BD4680BD00BF000C01404C
:100D800090B585B000AF0346FB71FB79002B01D015
:100D90000123C1E0624B1B78DBB203F00203002B9E
:100DA00003D05F4B1B78DBB2B6E0FFF71BFE0020E1
:100DB000FFF798FD0A23FB7304E0FFF7E5FDFB7BDB
:100DC000013BFB73FB7B002BF7D100237B7340209F
:100DD0000021FFF763FF0346012B40F08480514B55
:100DE00064221A6048204FF4D571FFF757FF03467D
:100DF000012B4DD10023FB730CE0FC7BFFF7C4FDFE
:100E000003461A4607F11003234403F8082CFB7B22
:100E10000133FB73FB7B032BEFD9BB7A012B62D130
:100E2000FB7AAA2B5FD100BF3E4B1B68002B07D07B
:100E3000E9204FF08041FFF731FF0346002BF3D14B
:100E4000384B1B68002B4ED07A200021FFF726FF7D
:100E50000346002B47D10023FB730CE0FC7BFFF71C
:100E600093FD03461A4607F11003234403F8082CA8
:100E7000FB7B0133FB73FB7B032BEFD93B7A03F046
:100E80004003002B01D00C2300E004237B732AE0F5
:100E9000E9200021FFF702FF0346012B04D80223BB
:100EA0007B73E923BB7303E001237B734123BB7393
:100EB00000BF1C4B1B68002B07D0BB7B18460021D2
:100EC000FFF7ECFE0346002BF3D1164B1B68002BFB
:100ED00007D050204FF40071FFF7E0FE0346002BCF
:100EE00001D000237B73104B7A7B1A70FFF76EFDE5
:100EF0007B7B002B0BD00A4B1B78DBB223F001036A
:100F0000DAB2074B1A700120FFF7ECFC01E0FFF7A3
:100F1000FDFD034B1B78DBB218461437BD4690BD70
:100F200014000020480000205000002080B483B04E
:100F300000AF0346FB71FB79002B01D0012302E0D7
:100F4000044B1B78DBB218460C37BD465DF8047BBA
:100F5000704700BF1400002080B584B000AFB960B6
:100F60007A600246FA73BB73FB7B002B02D1BB7B1A
:100F7000002B01D104234FE0294B1B78DBB203F097
:100F80000103002B01D0032346E0264B1B7803F01E
:100F90000803002B02D17B685B027B60BB7B012BCB
:100FA00011D151207968FFF779FE0346002B2BD130
:100FB000B8684FF40071FFF7E7FD0346002B23D01C
:100FC0000023BB7320E052207968FFF767FE0346D9
:100FD000002B19D1B8684FF40071FFF7D5FD034617
:100FE00083F00103DBB2002B00D009E0BB6803F5FE
:100FF0000073BB60BB7B013BBB73BB7B002BE9D1A8
:101000004C200021FFF74AFEFFF7E0FCBB7B002BE2
:101010000CBF00230123DBB218461037BD4680BD4C
:10102000140000205000002080B584B000AFB960EB
:101030007A600246FA73BB73FB7B002B02D1BB7B49
:10104000002B01D1042369E0364B1B78DBB203F09F
:101050000103002B01D0032360E0324B1B78DBB28D
:1010600003F00403002B01D0022357E02E4B1B7822
:1010700003F00803002B02D17B685B027B60BB7B23
:10108000012B10D158207968FFF708FE0346002B8A
:101090003CD1B868FE21FFF7C1FD0346002B35D0D7
:1010A0000023BB7332E0204B1B7803F00603002BB8
:1010B00004D0BB7BD7201946FFF7F0FD5920796893
:1010C000FFF7ECFD0346002B20D1B868FC21FFF7A9
:1010D000A5FD034683F00103DBB2002B00D009E03D
:1010E000BB6803F50073BB60BB7B013BBB73BB7B81
:1010F000002BEAD10020FD21FFF790FD034683F08D
:101100000103DBB2002B01D00123BB73FFF75EFCB0
:10111000BB7B002B0CBF00230123DBB2184610372A
:10112000BD4680BD140000205000002090B58BB05B
:1011300000AF0B463A600246FA71BB713B683B62F6
:10114000FB79002B01D00423ADE1012387F8273080
:10115000BB79052B28D13B6A1B78012B0ED0022BC3
:1011600012D0002B1BD1FFF7E9FB0346002B01D067
:10117000FFF7CCFC002387F8273014E0FFF732FCA0
:10118000002387F827300EE03B6A5C1CFFF7D6FB94
:101190000346DBB22370002387F8273003E00423E3
:1011A00087F827307DE17CE1B84B1B78DBB203F098
:1011B0000103002B01D0032375E1BB790E2B00F254
:1011C0006B8101A252F823F00512000823120008D7
:1011D000CF120008DF1200089914000899140008C3
:1011E000991400089914000899140008991400082B
:1011F000C7130008D7130008FD13000823140008C4
:1012000063140008A2484FF4805100F02FFAFFF752
:10121000C3FB0346FF2B03D1002387F827303EE1B1
:101220003DE149200021FFF739FD0346002B4DD158
:1012300007F10C0318461021FFF7A6FC0346002B0C
:1012400044D03B7B9B09DBB2012B0DD17B7D1A4641
:101250003B7D1B029BB213449BB20133FB83FB8B90
:101260009A023B681A602DE07B7C03F00F03DAB230
:10127000BB7DDB09DBB21344DAB27B7D03F00303F1
:10128000DBB25B00DBB21344DBB2023387F82630FB
:101290003B7D9B09DBB21A46FB7C9B009BB213444F
:1012A0009AB2BB7C03F003039BB29B029BB2134434
:1012B0009BB20133FB83FA8B97F82630093B9A40A7
:1012C0003B681A60002387F82730E8E0E7E03B68D6
:1012D0004FF400721A80002387F82730DFE06D4B4F
:1012E0001B7803F00403002B2BD0CD200021FFF747
:1012F000D5FC0346002B65D1FFF746FB07F10C0335
:1013000018461021FFF740FC0346002B5AD030232B
:1013100087F8263006E0FFF737FB97F82630013BC9
:1013200087F8263097F82630002BF4D1BB7D1B09B7
:10133000DBB210229A403B681A60002387F82730FE
:10134000ADE049200021FFF7A9FC0346002B39D16D
:1013500007F10C0318461021FFF716FC0346002B7B
:1013600030D04C4B1B7803F00203002B12D0BB7D16
:1013700003F03F035A00FB7DDB09DBB213445A1C28
:101380007B7E9B09DBB2013B02FA03F31A463B6802
:101390001A6013E0BB7D03F07C039B109BB201330A
:1013A000FA7D02F00302D100FA7D5209D2B20A445A
:1013B000013202FB03F31A463B681A60002387F8E8
:1013C00027306CE06BE0334B1A783B6A1A700023CD
:1013D00087F8273063E049200021FFF75FFC0346D0
:1013E000002B0AD1386A1021FFF7CEFB0346002BF1
:1013F00003D0002387F8273051E050E04A20002135
:10140000FFF74CFC0346002B0AD1386A1021FFF786
:10141000BBFB0346002B03D0002387F827303EE0B8
:101420003DE07A200021FFF739FC0346002B17D15D
:10143000042387F826300BE03C6A631C3B62FFF70D
:10144000A3FA0346237097F82630013B87F826302D
:1014500097F82630002BEFD1002387F827301EE0C5
:101460001DE0CD200021FFF719FC0346002B0CD115
:10147000FFF78AFA386A4021FFF786FB0346002B04
:1014800003D0002387F8273009E008E0140000208B
:10149000000C014050000020042387F82730FFF79C
:1014A00095FA97F8273018462C37BD4690BD00BFF7
:1014B00080B489B000AF786039600023FB610023FD
:1014C0003B610023BB610023FB6000237B610023A1
:1014D000BB603B68DB7803F00F03FB613B68DB78A4
:1014E00003F01003002B04D03B689B78FA69134388
:1014F000FB613B681B88DBB2002B44D07B681B6818
:101500007B610023BB6138E0BB69012202FA03F36F
:10151000FB603B681B881A46FB6813403B613A69D5
:10152000FB689A4226D1BB699B00FB60FB680F22D7
:1015300002FA03F3BB60BB68DB437A6913407B614B
:10154000FB68FA6902FA03F37A6913437B613B682B
:10155000DB78282B05D1BB6901229A407B685A6150
:1015600008E03B68DB78482B04D1BB6901229A4034
:101570007B681A61BB690133BB61BB69072BC3D9A7
:101580007B687A691A603B681B88FF2B46D97B68A9
:101590005B687B610023BB613AE0BB6908330122D1
:1015A00002FA03F3FB603B681B881A46FB68134092
:1015B0003B613A69FB689A4227D1BB699B00FB609B
:1015C000FB680F2202FA03F3BB60BB68DB437A6956
:1015D00013407B61FB68FA6902FA03F37A691343EB
:1015E0007B613B68DB78282B05D1BB69083301227E
:1015F0009A407B685A613B68DB78482B05D1BB6910
:10160000083301229A407B681A61BB690133BB61D0
:10161000BB69072BC1D97B687A695A602437BD46FC
:101620005DF8047B704700BF80B483B000AF786082
:101630007B684FF6FF721A807B6802229A707B6883
:101640000422DA700C37BD465DF8047B704700BF9A
:1016500080B483B000AF78600B467B807A887B686B
:101660001A610C37BD465DF8047B704780B483B0C7
:1016700000AF78600B467B807A887B685A610C37B4
:10168000BD465DF8047B704780B487B000AF7860DA
:101690000B46FB7000233B610023FB6000237B6152
:1016A0000023BB607B68002B03DA2E4BDB697B6178
:1016B00002E02C4B5B687B617B6803F470231B0C9E
:1016C000BB607B689BB23B617B6803F44013B3F55E
:1016D000401F0AD17B6923F070637B61214B214A53
:1016E000526822F070625A6021E07B6803F4801334
:1016F000002B0ED0BB68032202FA03F3FB60FB68E9
:10170000DB437A6913407B617B6943F070637B61E3
:101710000DE07B685B0D1B013A6902FA03F3DB43C2
:101720007A6913407B617B6943F070637B61FB786E
:10173000002B08D07B685B0D1B013A6902FA03F3AA
:101740007A6913437B617B68002B03DA054B7A6966
:10175000DA6102E0034B7A695A601C37BD465DF8D6
:10176000047B70470000014080B400AFBFF34F8F8F
:10177000BD465DF8047B704780B483B000AF03467C
:10178000FB71084B97F907205209F97901F01F0105
:10179000012000FA01F143F822100C37BD465DF834
:1017A000047B704700E100E080B500AF054A054BBF
:1017B000DB6803F4E061044B0B43D360FFF7D4FF15
:1017C000FEE700BF00ED00E00400FA0580B582B03E
:1017D00000AF3A4B1B7803F004039B10012B67D139
:1017E000374B9A8840F68C239A4203D90020002177
:1017F00004F06AF805F014F90246324B1B68D31A5C
:101800007B602E4B1B7803F00103002B18D02C4B70
:101810009B88B3F5167F0ED27B683C2B10D9002035
:10182000002104F051F8284B1B7843F00103DAB291
:10183000254B1A7004E005F0F3F80246214B1A60BC
:101840001E4B1B7803F00103002B0DD01C4B9B8813
:10185000B3F5167F08D27B683C2B04D90020002109
:1018600004F032F805E004E005F0DAF80246154B22
:101870001A60012007F06CFA144B1B880E2B02D85B
:10188000002001F06BFA012007F062FA0F4B5B8831
:10189000082B02D8012001F061FA012007F058FA64
:1018A0000A4B5B882B2B03D90320002104F00CF892
:1018B000012007F04DFA0837BD4680BD8F0000209B
:1018C000801B0020C000002090000020681B00202A
:1018D00080B582B000AF0346FB711A4B1B78002B1A
:1018E00010D1194B1B785A1CD1B2174A1170F979D3
:1018F000164AA2FB01025209D2B23032D1B2144AC6
:10190000D1540FE0104B1B785A1CD1B20E4A117003
:10191000F9790E4AA2FB01025209D2B23032D1B299
:101920000C4AD154FB79094AA2FB031252096421E3
:1019300001FB02F29B1ADBB2184605F00FFB0837D9
:10194000BD4680BD8D0000208C0000201F85EB511E
:101950006C0000207C00002080B584B000AF002324
:10196000FB730023BB7300237B7300233B730023B3
:101970007B8100237B6000233B6006F039FD6A48D1
:1019800006F004FB4FF4FA7007F0E2F932E005F0DC
:10199000EFF90346FB730020002106F02DFB63489E
:1019A00006F0F4FA624B1B689BB2184600F0CCF9C3
:1019B000604806F0EBFA5E4B5B689BB2184600F09D
:1019C000C3F90120002106F017FB0A2007F0C0F937
:1019D000594806F0DBFA564B9B689BB2184600F05C
:1019E000B3F9564806F0D2FA514BDB689BB2184661
:1019F00000F0AAF9FB7B002BC9D006F0F9FCFB7BB9
:101A0000013B7B730023FB734D4806F0BFFABB7BA1
:101A1000184604F0E1F80346BB73BB7B184601F09F
:101A20009DF906F0E5FC474806F0B0FA3B7B184606
:101A300004F0D2F803463B737A7B3D4B53F82230D7
:101A40007B6006F0D5FC404806F0A0FABB7B184648
:101A500001F054F90023FB7317E00A2007F078F92E
:101A600005F086F90346FB7306F0C2FC374806F022
:101A70008DFA0120002106F0BFFA7A7B2C4B53F837
:101A800022309BB2184600F05FF9FB7B022BE4D1B9
:101A90007A7B274B53F822303B60BB7B184601F022
:101AA0005DF9C82007F054F93B689AB27B689BB295
:101AB000D31A9BB21A463B7B92FBF3F37B817A7B72
:101AC000234B798923F8121006F092FC214806F086
:101AD0005DFA3B689BB2184600F036F90120002100
:101AE00006F08AFA1C4806F051FA7B89184600F085
:101AF0002BF97B8940F2426019460BF0C1F80023B4
:101B0000FB7306E00A2007F023F905F031F90346DC
:101B1000FB73FB7B022BF5D106F06AFCC82007F0B3
:101B200017F91037BD4680BD48D3000854D30008CC
:101B30007818002058D300085CD3000860D3000850
:101B400064D3000874D3000884D3000894D3000839
:101B5000FC1A0020A4D30008ACD3000880B584B0E0
:101B600000AF13460246FA710A46BA71BB800023E1
:101B7000FB60BB880F4A128802FB03F20E4BA3FBEB
:101B80000213DB08FB60002001F0B8F8BA790B4BB8
:101B9000002143F8221002E00A2007F0D9F8074B91
:101BA0001A68FB689A42F7D3002001F0D7F8103783
:101BB000BD4680BDFC1A0020CDCCCCCC78180020CE
:101BC00080B584B000AF13460246FA710A46BA7176
:101BD000BB800023BB600023FB8100237B7306F0E6
:101BE00007FC4F4806F0D2F906E00A2007F0B0F8EB
:101BF00005F0BEF803467B737B7B002BF5D07B7B27
:101C0000022B01D1FFF7A8FE01233B7380E006F011
:101C1000EFFB444806F0BAF9434B1B88184600F026
:101C200093F8FB891846052104F070F80346FB8100
:101C3000FB893D4A128802FB03F23C4BA3FB0213D3
:101C4000DB08BB6006F0D4FB394806F09FF9BB689F
:101C50009BB2184600F078F80120002106F0CCF97C
:101C6000344806F093F9BA79334B53F82220324BBB
:101C700053F822309BB2184600F066F800237B73BD
:101C8000002001F03BF8BA792B4B002143F82210D9
:101C90001BE00A2007F05CF806F0AAFB274806F0D4
:101CA00075F9BA79244B53F822309BB2184600F0EC
:101CB0004BF80120002106F09FF9214806F066F953
:101CC000BB689BB2184600F03FF81B4B1A68BB6814
:101CD0009A42DED3002001F041F806F089FB194852
:101CE00006F054F906E00A2007F032F805F040F853
:101CF00003467B737B7B002BF5D07B7B022B05D1CE
:101D000001233B730C4B00221A6001E000233B735C
:101D10003B7B012B3FF47BAF1037BD4680BD00BF3E
:101D2000B4D30008C4D30008FC1A0020CDCCCCCC1E
:101D3000D0D30008D8D3000878180020DCD30008DE
:101D4000E4D30008E8D3000880B582B000AF0346B2
:101D5000FB80FA88164BA3FB02135B0B9BB2DBB232
:101D6000184605F0FBF8FB88114AA2FB0312520B40
:101D700042F2107101FB02F29B1A9AB20D4BA3FBC7
:101D800002135B099BB2DBB2184605F0E7F8FB884B
:101D9000084AA2FB03125209642101FB02F29B1ABA
:101DA0009BB2DBB2184605F0D9F80837BD4680BDB6
:101DB0005917B7D11F85EB5180B485B000AF39609A
:101DC00013460246FA71BB710023FB730023FB73B9
:101DD00009E0FB7B3A6813441A78FB795340FB71A6
:101DE000FB7B0133FB73FA7BBB799A42F1D3FB791E
:101DF00018461437BD465DF8047B704780B500AFC8
:101E0000574B1B78062B02D9554B00221A705548A8
:101E100040F2255107F01EFE0346002B0ED051481C
:101E200007F0F8FD0346DAB24F4B1A704D4B4D4A9E
:101E3000128892B222F0200292B21A80494B494A8B
:101E4000128892B222F0400292B21A80474B1B785D
:101E5000002B17D0464B1A78464B1B789A4211D26A
:101E6000404A434B1B78591CC8B24149087042494B
:101E7000CB5C93803B4B3B4A128892B222F04002EB
:101E800092B21A803D4B1B78002B67D13C4B1B78DC
:101E9000042B32D13B4B1B78002B03D1324B1A78E9
:101EA000394B1A70374B1B785A1CD1B2354A117016
:101EB0002D4A1178354AD154324B1A78324B1B785F
:101EC0009A421AD1304B1B78302030491A46FFF71E
:101ED00073FF03461A462E4B1A702D4B1B78002BAE
:101EE00003D1264B01221A7001E000F093F8244B35
:101EF00000221A70234B00221A701B4B1B785A2B9E
:101F000003D1244B01221A7028E0174B1B78582B61
:101F100007D1204B1B78012B03D11E4B02221A70D4
:101F20001CE01C4B1B78022B18D10F4B1B78302B5D
:101F300011D00D4B1B78312B03D1114B03221A709A
:101F400009E0094B1B78322B05D10D4B04221A7086
:101F50000C4B00221A700F4B00221A7080BD00BF7C
:101F60005B00002000380140F41A002059000020D6
:101F70005A00002019000020401B0020BD00002056
:101F8000BC000020BA000020BB0000208C180020FC
:101F9000BE000020B900002080B582B000AF78609C
:101FA0000A4B1B78012B04D100F04EF8074B00229E
:101FB0001A700A2006F0CCFE054B1B78012B01D1CC
:101FC00000F008F80A2006F0C3FEE9E7BD00002093
:101FD0005900002080B500AF0A4BDA780A4B1A701E
:101FE0000A4B00221A7002E0052006F0B1FE074BF2
:101FF0001A78054B1B789A42F6D3054B00221A70CB
:1020000080BD00BF401B0020190000205A000020A6
:102010005900002080B483B000AF0023FB7100237F
:10202000FB7106E0FB79074A0021D154FB790133AB
:10203000FB71FB790F2BF5D90C37BD465DF8047B9E
:10204000704700BF8C18002080B500AF894B5B78CB
:10205000152B00F20B8101A252F823F0B5200008E5
:10206000D9200008EB200008FB200008032100080D
:102070000F2100081B210008272100083321000838
:10208000472100085921000863210008AF210008FA
:10209000D3210008D9210008EB21000809220008FB
:1020A00027220008432200085F220008652200085A
:1020B0006D2200086F4B99786E4BDA786D4B1B7967
:1020C0001B0298B26B4B5B7903449BB208461146E6
:1020D0001A46FFF743FDC9E0664B9A78654BDB78FB
:1020E0001046194603F0F0FBC0E0634B33221A7030
:1020F0000020002103F0E8FBB8E05F4B30221A70AB
:10210000B4E05C4B9B78184600F0F8FDAEE0594B0C
:102110009B78184600F022FEA8E0564B9B781846A4
:1021200000F028FCA2E0534B9B78184600F0B2F96F
:102130009CE0514B1B78332B04D14E4B9A784F4B7C
:102140001A7093E092E04B4B9A784A4BDB7810463A
:10215000194600F099F889E0464B9A78484B1A7076
:1021600084E0464B00221A70434B33221A70434BD3
:1021700000221A700020002103F0A6FB012000219C
:1021800003F0A2FB0220002103F09EFB03200021AC
:1021900003F09AFB022000F0E1FD032000F0DEFDD9
:1021A000002000F0DBFD012000F0D8FD5EE0314BA7
:1021B0009B781A022F4BDB7813441A022D4B1B79A4
:1021C00013441A022B4B5B791344184604F03AFC73
:1021D0004CE0FFF7E9FA49E0264B9A78254BDB788B
:1021E0001046194601F0AEFB40E0224B9B781A46A0
:1021F000204BDB781B029BB213409BB29BB218466C
:10220000012100F071F831E01A4B9B781A46194B06
:10221000DB781B029BB213409BB29BB21846022193
:1022200000F062F822E0134B9B781A46114BDB78E2
:102230001B029BB213449BB21846012100F090F898
:1022400014E00C4B9B781A460A4BDB781B029BB2BE
:1022500013449BB21846022100F082F806E005F014
:1022600095FA03E0074B00221A7000BFFFF7D2FE79
:1022700080BD00BF8C180020180000208F000020B7
:102280002C1B00205800002080B584B000AF02460F
:102290000B46FA71BB710023BB600023FB6004F0A6
:1022A000BFFBF860BA79FB681344BB60FB79184642
:1022B000012101F0DBFA0BE004F0B2FBF860192019
:1022C00006F046FD012000F0E5F8192006F040FD7B
:1022D000FA68BB689A42EFD3FB791846002101F0F7
:1022E000C5FA1037BD4680BD80B584B000AF024648
:1022F0000B46FA807B710023FB6000237B817B7996
:10230000012B0FD1154B1B791A46144B5B791B021D
:102310009BB213409BB27B81FA887B891046194699
:102320000AF0AEFC7B79022B14D10C4B1B791A46B8
:102330000A4B5B791B021A40084B9B791B041A401D
:10234000064BDB791B061340FB60FB881846F968D7
:1023500003F0F6FA1037BD4680BD00BF8C18002090
:1023600090B587B000AF02460B46FA807B717B794F
:10237000012B2ED1424B9B781A46414BDB781B0236
:102380009BB213409BB2FB82FA8A07F10E03104600
:1023900019460AF029FC3B4B5A221A70394B582235
:1023A0005A70384B31229A70364B0922DA70344B0E
:1023B0009A78344B1A71324BDA78324B5A71FB8966
:1023C000DAB2304B9A71FB891B0A9BB2DAB22D4B01
:1023D000DA717B79022B35D1294B9B781A46284B31
:1023E000DB781B029BB213409BB2FB82FB8A184630
:1023F00004F0DCFF3861234B5A221A70214B58221B
:102400005A70204B31229A701E4B0B22DA701C4BF3
:102410009A781C4B1A711A4BDA781A4B5A713B692D
:10242000DAB2184B9A713B691B0ADAB2154BDA71B2
:102430003B691B0CDAB2134B1A723B691B0EDAB202
:10244000104B5A720F4BDB785C1E0E4BDB78013B56
:10245000DBB200200B491A46FFF7AEFC03461A46D2
:10246000084B1A55074BDA78074B1A70074B0022B6
:102470001A70074B01221A701C37BD4690BD00BF71
:102480008C180020401B0020190000205A0000205A
:102490005900002080B582B000AF0346FB71964B17
:1024A0005A221A70944B58225A70934B33229A70C6
:1024B000914B2822DA70FB79012B40F0C4808F4BBE
:1024C0001A788D4B1A718E4B1B68DAB28A4B5A718F
:1024D0008C4B1B68DAB2884B9A718B4B1A78864BFF
:1024E000DA718A4B1B68DAB2834B1A72884B1A78FE
:1024F000814B5A72874B1A787F4B9A72854B5A7868
:102500007D4BDA72834B9A787B4B1A73814BDA7866
:10251000794B5A73804B1B8B9BB2DAB2764B9A7312
:102520007D4B1B8B9BB21B0A9BB2DAB2724BDA73E8
:10253000794B9B8B9BB2DAB26F4B1A74764B9B8BA9
:102540009BB21B0A9BB2DAB26B4B5A74734B1B885B
:10255000DAB2694B9A74714B1B881B0A9BB2DAB2D0
:10256000654BDA746D4B5B88DAB2634B1A756B4B53
:102570005B881B0A9BB2DAB25F4B5A75684B1B88AB
:10258000DAB25D4B9A75664B1B881B0A9BB2DAB2B6
:10259000594BDA75624B5B88DAB2574B1A76604B4F
:1025A0005B881B0A9BB2DAB2534B5A765C4B9B8812
:1025B000DAB2514B9A765A4B9B881B0A9BB2DAB21D
:1025C0004D4BDA76564BDB88DAB24B4B1A77544BCD
:1025D000DB881B0A9BB2DAB2474B5A77514B1B6818
:1025E000DAB2454B9A774F4B1B681B0ADAB2424B63
:1025F000DA774C4B1B681B0CDAB23F4B83F8202078
:10260000484B1B681B0EDAB23B4B83F82120464B2C
:102610001A78394B83F82220444B1A78364B83F8CA
:1026200023203E4B5B88DAB2334B83F824203B4BAC
:102630005B881B0A9BB2DAB22F4B83F825202E4B06
:10264000FA7983F82620FB79022B3DD1384B1B8881
:10265000DAB2294B1A71364B1B881B0A9BB2DAB2CD
:10266000254B5A71334B1B88DAB2234B9A71314B8D
:102670001B881B0A9BB2DAB21F4BDA711E4B002279
:102680001A72274B1B881B0A9BB2DAB21A4B5A727A
:10269000234B5B88DAB2184B9A72214B5B881B0A7A
:1026A0009BB2DAB2144BDA721D4B9B88DAB2124B32
:1026B0001A731B4B9B881B0A9BB2DAB20E4B5A73E0
:1026C0000D4BFA7983F82620FB79032B5CD11A4B4A
:1026D0009B68DAB2084B1A71174B9B681B0ADAB277
:1026E000054B5A71144B9B681B0CDAB2024B9A7162
:1026F000114B9B681B0E21E0401B0020180000209E
:10270000F81A002088180020201B0020381B002009
:102710009D180020A01B002000280040681B0020FE
:10272000801B002078180020D01A00208F00002085
:10273000960000209800002000080140DAB27B4B90
:10274000DA717B4B9B68DAB2784B1A72784B9B68D4
:102750001B0ADAB2754B5A72754B9B681B0CDAB2C6
:10276000724B9A72724B9B681B0EDAB26F4BDA7225
:10277000704B9A786D4B1A736E4BDA786B4B5A73B9
:102780006A4BFA7983F82620FB79042B38D16A4BFF
:102790001A78664B1A71694B1A78644B5A71684BF8
:1027A0001B789B00DAB2674B1B781344DAB25F4B9D
:1027B0009A71654B1B88DAB25C4BDA71634B1B88EC
:1027C0001B0A9BB2DAB2594B1A72584B00225A724A
:1027D0005F4B1A78554B9A725E4B1B88DAB2534B9B
:1027E000DA725C4B1B881B0A9BB2DAB24F4B1A732E
:1027F000594B1A784D4B5A734C4BFA7983F8262073
:10280000FB79052B3AD1554B1B88DAB2474B1A712D
:10281000524B1B881B0A9BB2DAB2444B5A714F4B86
:102820005B88DAB2414B9A714C4B5B881B0A9BB2B6
:10283000DAB23E4BDA714A4B1B68DAB23B4B1A7282
:10284000474B1B681B0ADAB2384B5A72444B1B6861
:102850001B0CDAB2354B9A72414B1B681B0EDAB275
:10286000324BDA723F4B1A78304B1A733A4B1A7864
:102870002E4B5A732D4BFA7983F82620FB79062BC1
:102880003DD1364B1B88DAB2284B1A71334B1B886B
:102890001B0A9BB2DAB2254B5A71304B5B88DAB215
:1028A000224B9A712D4B5B881B0A9BB2DAB21F4BED
:1028B0005A712B4B5B68DAB21C4B1A72284B5B685F
:1028C0001B0ADAB2194B5A72254B5B681B0CDAB241
:1028D000164B9A72224B5B681B0EDAB2134BDA72FC
:1028E0001C4B5B88DAB2114B1A731A4B5B881B0ABC
:1028F0009BB2DAB20D4B5A730C4BFA799A750020E1
:102900000A492722FFF758FA03461A46074B83F86D
:102910002720064BDA78144B1A70144B00221A70D9
:10292000134B01221A700837BD4680BD401B0020A2
:10293000000C0140301B0020B0000020B10000203E
:10294000B3000020B2000020921B00201E1B0020BC
:10295000D01A0020FC1A0020041B0020681B002055
:10296000781800202C1B0020190000205A0000209D
:102970005900002080B584B000AF0346FB710023EE
:10298000FB730023BB8100237B81204BDAB2204BF9
:102990001A70204BDAB21E4B5A701F4BDAB21C4B26
:1029A0009A701B4B0D22DA70194BFA791A710023B9
:1029B000FB7321E0FB7903F5B8735A00FB7B1344EA
:1029C0009BB25B00BB81BA8907F10A031046194626
:1029D0000AF00AF9FB7B5B0005330D4A0021D15454
:1029E000FB7B03335B007A89D2B25242D1B2084AF0
:1029F000D154FB7B0133FB73FB7B032BDAD9074BF1
:102A000001221A701037BD4680BD00BFF0D3000808
:102A1000401B0020F4D30008F8D300085900002020
:102A200080B400AF024B1B68BD465DF8047B704765
:102A30000000024080B400AF024B1B68BD465DF849
:102A4000047B70470000024080B586B000AF0120D3
:102A5000012106F00BF80520012106F025F82523B9
:102A60003B7500237B750023BB750123FB7507F1C4
:102A70001403184609F0A8FD4FF400733B820323AA
:102A8000BB741823FB7407F1100324481946FEF7A2
:102A90000FFD4FF480633B820423FB7407F11003A6
:102AA0001E481946FEF704FD1D4806F07DFE4FF452
:102AB0008040012105F0F8FF4FF416533B600023DE
:102AC000BB800023FB8000233B810023BB810C23C0
:102AD0007B813B461248194606F0C2FE10484FF46F
:102AE000587106F0A7FF0E4B0D4A928992B242F040
:102AF000200292B29A810A4B094A928992B242F01C
:102B0000400292B29A810648012106F063FF252017
:102B1000FEF732FE1837BD4680BD00BF00080140F9
:102B20000038014080B588B000AF1020012105F0C9
:102B3000BBFF0220012105F0D5FF07F11C03184659
:102B4000FEF772FD4FF47073BB830323BB7718232A
:102B5000FB7707F11C0320481946FEF7A9FC1F4824
:102B60000121FEF791FD07F110031846FDF758FD0E
:102B70004FF40073FB8240F2E733BB82EF233B82CA
:102B800007F1100316481946FDF7CCFA3B461846E4
:102B9000FDF760FD01237B8060233B800023FB80E9
:102BA0003B460F481946FDF739FB3B460C48194692
:102BB000FDF7C0FB3B460A481946FDF743FC3B4680
:102BC00007481946FDF7C4FC05480121FDF764FDDF
:102BD0002037BD4680BD00BF00100140000C1A0028
:102BE0000004004080B582B000AF05F001FC002376
:102BF000FB8000237B7100233B7105F0F9FB0A2069
:102C000006F0A6F805F0F4FB1F4805F0BFF91CE03C
:102C100004F0AEF803467B711C4B1B88FB8005203B
:102C200006F096F80120002105F0E6F9FA88184B25
:102C3000A3FB02135B099BB2DBB2184604F08EF9CA
:102C4000FB88DBB2184604F089F97B79022BDFD1CF
:102C50000A2006F07DF8FB8840F2226019460AF04F
:102C60000FF802F00BFB4FF4FA6006F071F8094818
:102C700005F08CF900237B7105F0BAFB04F086FDAA
:102C80000837BD4680BD00BFFCD30008681B00208C
:102C90001F85EB5110D4000880B582B000AF012031
:102CA00006F056F80023FB71012006F051F8104B96
:102CB0001B7803F002035B10012B16D10D4B1B8810
:102CC0001A460D4B1B8802339A4202DD002000F0A9
:102CD00015F8012006F03CF8064B1A88064B1B88B5
:102CE0009A4202D2002000F039F80837BD4680BD74
:102CF0008F000020681B0020B41B002080B483B02C
:102D000000AF0346FB71FB79002B06D1114B114A32
:102D1000526942F480725A6109E00E4B0D4A5169C2
:102D2000FA790A32012000FA02F20A435A61FB7969
:102D3000012202FA03F3DAB2074B1B78DBB213432A
:102D4000DBB2DAB2044B1A700C37BD465DF8047B77
:102D5000704700BF00080140201B002080B483B0F2
:102D600000AF0346FB71FB79002B06D1124B124AD0
:102D7000126942F480721A6109E00F4B0E4A116920
:102D8000FA790A32012000FA02F20A431A61FB7949
:102D9000012202FA03F3DBB2DB43DAB2074B1B7802
:102DA000DBB21340DBB2DAB2044B1A700C37BD460B
:102DB0005DF8047B704700BF00080140201B002025
:102DC00080B500AF012005F0E7FE034B1B685A1CDD
:102DD000014B1A6080BD00BF7818002080B500AF9D
:102DE000022005F0D9FE034B5B685A1C014B5A6068
:102DF00080BD00BF7818002080B500AF042005F02A
:102E0000CBFE80BD80B500AF4FF4806005F0C4FEFE
:102E10004FF4006005F0C0FE4FF4805005F0BCFE9A
:102E200080BD00BF80B500AF202005F0B5FE40207A
:102E300005F0B2FE802005F0AFFE80BD80B582B007
:102E400000AF0023FB710023BB7105F0D1FA74E0E1
:102E5000142005F07DFF03F08BFF0346FB7100207B
:102E6000002105F0C9F8394805F090F8BB791846FB
:102E700004F074F8FB79042B03D1BB791846FFF7F3
:102E80003DFFFB79032B03D1BB791846FFF766FFA3
:102E9000FB79012B08D1BB79012B03D8BB79013316
:102EA000BB7101E00023BB71012005F051FF01203F
:102EB000002105F0A1F8264805F068F8254B1B789D
:102EC000184604F04BF8012005F042FF224805F0B7
:102ED0005DF8224B9B6803F01003002B03D02048C1
:102EE00005F054F802E01F4805F050F81B4B9B68B2
:102EF00003F02003002B03D0194805F047F81CE02D
:102F0000184805F043F8154B9B6803F04003002B6D
:102F100003D0134805F03AF802E0124805F036F8FD
:102F20000E4B9B6803F48073002B03D00C4805F014
:102F30002DF802E00B4805F029F8FB79022B87D128
:102F400005F056FA0837BD4680BD00BF1CD4000806
:102F500028D40008201B00202CD4000800080140C1
:102F600034D40008F8D3000880B582B000AF002345
:102F7000FB710223BB7105F03BFA66E0142005F0FB
:102F8000E7FE03F0F5FE0346FB710020002105F08B
:102F900033F8324804F0FAFFBB79184603F0DEFF3D
:102FA000FB79042B09D12E4B2D4A1169BA790B32CA
:102FB000012000FA02F20A431A61FB79032B09D1BE
:102FC000274B274A5169BA790B32012000FA02F2E5
:102FD0000A435A61FB79012B08D1BB79032B03D833
:102FE000BB790133BB7101E00223BB71012005F005
:102FF000AFFE0120002104F0FFFF1A4804F0C6FFD5
:10300000194B1B78184603F0A9FF012005F0A0FE1C
:10301000164804F0BBFF124BDB6803F40053002B8F
:1030200003D0134804F0B2FF02E0124804F0AEFFF0
:103030000B4BDB6803F48043002B03D00C4804F0F7
:10304000A5FF02E00B4804F0A1FFFB79022B95D10C
:1030500005F0CEF90837BD4680BD00BF1CD400087E
:103060000008014028D40008201B00202CD40008B0
:1030700034D40008F8D3000880B582B000AF002334
:10308000FB710023BB8005F0B3F97CE0142005F050
:103090005FFE03F06DFE0346FB710020002104F08B
:1030A000ABFF3F4B1B88BB80BB88DBB2184603F0ED
:1030B00055FF3B4B5B88BB80BB88DBB2184603F0F7
:1030C0004DFF384804F062FF374B9B8CBB80BB88B8
:1030D0001846FEF739FEFB79042B02D10120FFF7D9
:1030E0000DFEFB79012B02D10120FFF737FE0120F5
:1030F00005F02EFE0120002104F07EFF2B4B1B78F3
:10310000184603F02BFF2A4804F040FF00237B8081
:10311000284B9B685B097B807B881846FEF714FE72
:10312000254804F033FF012005F012FE214B9B6877
:103130005B0903F00103002B03D0204804F026FFB5
:1031400002E01F4804F022FF1A4B9B689B0903F022
:103150000103002B03D0194804F018FF02E01848BF
:1031600004F014FF134B9B68DB0903F00103002BF1
:1031700003D0124804F00AFF02E0114804F006FFF1
:10318000104804F003FFFB79022B7FF47FAF05F0BA
:103190002FF9FFF753FEFFF7E7FE0837BD4680BD66
:1031A000681B002038D4000800480140201B002084
:1031B0003CD400080008014040D4000834D4000882
:1031C000F8D3000844D4000880B483B000AF0346AD
:1031D000FB710C37BD465DF8047B704780B582B04B
:1031E00000AF0023FB7105F003F9094804F0CEFE9F
:1031F000C82005F0ADFDFB79184602F0EDFC034652
:10320000FB71FB79184600F021F80837BD4680BDF8
:1032100048D4000880B582B000AF0023FB7105F0F0
:10322000E7F8094804F0B2FEC82005F091FDFB79EB
:10323000184602F0D1FC0346FB71FB791846FFF7F4
:10324000C3FF0837BD4680BD48D4000880B584B0B0
:1032500000AF0346FB710023FB810023BB81FB7998
:103260009BB21A46D200D31A9BB203F24563FB818C
:10327000FA8907F10C031046194609F0B5FC05F070
:10328000B7F8604804F082FEBB89184602F0EEFCF5
:103290000346BB81BB89FA891046194609F0F0FC48
:1032A000FB799BB21A46D200D31A9BB203F2466353
:1032B000FB81FA8907F10C031046194609F094FCCA
:1032C00005F096F8504804F061FEBB89184602F0FC
:1032D000CDFC0346BB81BB89FA891046194609F02B
:1032E000CFFCFB799BB21A46D200D31A9BB203F2F1
:1032F0004763FB81FA8907F10C031046194609F070
:1033000073FC05F075F8414804F040FEBB8918468F
:1033100002F0ACFC0346BB81BB89FA891046194612
:1033200009F0AEFCFB799BB21A46D200D31A9BB2CD
:1033300003F5C963FB81FA8907F10C0310461946AE
:1033400009F052FC05F054F8314804F01FFEBB8927
:10335000184602F08BFC0346BB81BB89FA891046F4
:10336000194609F08DFCFB799BB21A46D200D31A9C
:103370009BB203F24963FB81FA8907F10C03104603
:10338000194609F031FC05F033F8224804F0FEFD3F
:10339000BB89184602F06AFC0346BB81BB89FA89E7
:1033A0001046194609F06CFCFB799BB21A46D20014
:1033B000D31A9BB203F24A63FB81FA8907F10C032B
:1033C0001046194609F010FC05F012F8124804F0F6
:1033D000DDFDBB89184602F049FC0346BB810A208B
:1033E00005F0B6FCBB89FA891046194609F048FC7D
:1033F00004F0FEFF0A2005F0ABFC04F0C7F910371B
:10340000BD4680BD54D4000868D4000878D40008B4
:1034100088D4000894D40008A4D4000890B585B0DE
:1034200000AF0023BB730023FB7304F0E1FF3548BA
:1034300004F0ACFDC82005F08BFCBB7B184602F005
:10344000CBFB0346BB7304F0D3FF2F4804F09EFD73
:10345000BB7B184603F082FD2C4804F097FD06E084
:103460001E2005F075FC03F083FC0346FB73FB7B19
:10347000022B02D0FB7B032BF2D1C82005F068FCA5
:10348000FB7B022B35D1BA7B13469B0013445B00B8
:10349000134403F21563BB60BB689BB2184603F08C
:1034A00085FF7860BA7B13469B0013445B0013448E
:1034B00003F21763BB6003F0B3FA3860BB689BB2DA
:1034C0001846396802F03CFABA7B13469B00134455
:1034D0005B00134403F21B63BB60BB689CB203F048
:1034E0009FFA02467B68D31A05332046194602F03C
:1034F00027FA04F07DFFC82005F02AFC1437BD46EA
:1035000090BD00BF48D40008B0D40008BCD4000867
:1035100080B58CB000AF0346FB710120FFF7EEFBD6
:1035200000237B82002387F82F3000237B62002357
:103530003B620023FB610023BB620023BB610023CD
:103540003B820023FB820023FB81FB799BB21A465E
:1035500092001A44520013449BB203F21463FB829C
:10356000FA8A07F110031046194609F03DFB7B4B20
:103570005A883B8ADBB29BB2D31A9BB23B8203F0E0
:103580004FFAB862BB6A03F51673BB6105E003F03E
:1035900047FAB862192005F0DBFB704B5A883B8A6A
:1035A0009A4203D9BA6ABB699A42F0D30120FFF765
:1035B000D5FB4FF47A7005F0CBFB002387F82F3052
:1035C0007AE0FB799BB21A4692001A4452001344E7
:1035D0009BB203F21563FB82FB8A184603F0E6FEFA
:1035E0003862FB799BB21A4692001A445200134487
:1035F0009BB203F21763FB82FB8A184603F0D6FEE8
:10360000F86197F82F309BB21A46D200D31A9BB2BA
:1036100003F24963FB82FA8A07F112031046194646
:1036200009F0E2FA03F0FCF90246FB69D21A3B6AA0
:10363000B2FBF3F37B627B8A7A6AB2FBF3F37B75AE
:103640000023BB8197F82F309BB21A46D200D31AC1
:103650009BB203F5C963FB82FA8A07F10E03104699
:10366000194609F0C1FA97F82F309BB21A46D200DA
:10367000D31A9BB203F24A63FB82FA8A07F10C0366
:103680001046194609F0B0FAFB799AB2FB899A42C2
:103690000AD1BB89012B07D17B7D002B04D197F880
:1036A0002F30184600F062F80A2005F051FB97F819
:1036B0002F30013387F82F3097F82F30082B80D91F
:1036C000274B1B7843F00103DAB2254B1A7002E056
:1036D000012005F03DFBBA6ABB699A4205D2214B35
:1036E0001B7803F00103002BF2D11D4B1B7823F054
:1036F0000103DAB21A4B1A700020002102F0E4F83C
:103700000A2005F025FB00F053F9FB799BB21A461D
:1037100092001A44520013449BB203F21B63FB82D3
:1037200003F07EF90346FA8A1046194602F008F9BA
:10373000FB79012202FA03F3DBB2DB43DAB20A4B74
:103740001B78DBB21340DBB2DAB2074B1A70C82029
:1037500005F0FEFA3037BD4680BD00BF681B002073
:103760008F000020900000209D18002080B586B0BA
:1037700000AF0346FB7100237B61FB799BB21A46C5
:10378000D200D31A9BB203F246637B827A8A07F196
:1037900010031046194609F027FAFB799BB21A4626
:1037A000D200D31A9BB203F245637B827A8A07F177
:1037B0000E031046194609F017FAFB799BB21A4618
:1037C000D200D31A9BB203F247637B827A8A07F155
:1037D0000C031046194609F007FA03F021F90246D6
:1037E0003B8A13447B61FB89DBB21846012100F060
:1037F0003DF802E00A2005F0ABFA03F011F90246A9
:103800007B699A42F6D3FB89DBB21846002100F0AF
:103810002DF8BB89184600F003F81837BD4680BD67
:1038200080B584B000AF0346FB800023FB6003F04B
:10383000F7F80246FB881344FB600320012102F0E5
:1038400043F802E00A2005F083FA03F0E9F80246A3
:10385000FB689A42F6D3044B1B781846002102F00D
:1038600033F81037BD4680BDD81A002080B483B02D
:1038700000AF02460B46FA71BB71BB79002B0DD02D
:10388000FB79012202FA03F3DAB22C4B1B78DBB28C
:103890001343DBB2DAB2294B1A700EE0FB79012236
:1038A00002FA03F3DBB2DB43DAB2244B1B78DBB260
:1038B0001340DBB2DAB2214B1A70BB79012B02D173
:1038C0000023BB7103E0BB79C3F16403BB71FB79D7
:1038D000002B08D11A4ABB799BB2194689000B44C8
:1038E0005B009BB29386FB79012B08D1144ABB790C
:1038F0009BB2194689000B445B009BB21387FB798E
:10390000022B08D10E4ABB799BB2194689000B44A1
:103910005B009BB29387FB79032B09D1084ABB79E3
:103920009BB2194689000B445B009BB2A2F8403061
:103930000C37BD465DF8047B704700BFD01A0020ED
:103940000004004080B584B000AF02460B46FA7117
:10395000BB710023FB6003F063F803460133FB6097
:1039600002E0022005F0F4F903F05AF80246FB6881
:103970009A42F6D303F054F80246BB791344FB6035
:10398000FB7918460121FFF771FF02E0022005F0E4
:10399000DFF903F045F80246FB689A42F6D3FB795B
:1039A00018460021FFF762FF1037BD4680BD00BFFB
:1039B00080B500AF0320FFF7D1F90420FFF7CEF95F
:1039C0000020FFF7CBF90120FFF7C8F980BD00BF49
:1039D00080B58AB000AF7860002387F82630FFF703
:1039E000E7FFFFF759F9FDF7F1FE09F09DFB002312
:1039F00087F8273084E00A2005F0AAF997F82730E5
:103A00009BB21A4692001A44520013449BB203F22E
:103A10001B63BB84BB8C184603F0C8FC386202F001
:103A2000FFFFF86197F827309BB21A4692001A44BC
:103A3000520013449BB203F21563BB84BB8C18463F
:103A400003F0B4FCB861FA693B6AD31A7B6197F85A
:103A500027309BB21A4692001A44520013449BB27C
:103A600003F21763BB84BB8C184603F09FFC3861DC
:103A700097F827309BB21A4692001A44520013441A
:103A80009BB203F21963BB84BB8C184603F08EFC17
:103A9000F86097F827309BB21A4692001A445200F9
:103AA00013449BB203F21D63BB84BA8C07F10B0372
:103AB0001046194609F098F8FB7A03F00103DBB2CF
:103AC000FB720A2005F044F97A69BB699A420FD962
:103AD000FA693B699A420BD9FA69FB689A4207D2A4
:103AE000FB7A012B04D197F827301846FFF710FD19
:103AF0000A2005F02DF997F82730013387F8273091
:103B000097F82730022B7FF676AF6AE780B500AFD3
:103B100048480421FCF7FCFD4648FCF7EBFD034652
:103B20001A46454B1A80444B1B889BB2002B18D079
:103B30004048FCF7D1FD0346642202FB03F23E4BF2
:103B40001B889BB292FBF3F39AB23C4B1A803C4B1E
:103B50001A68394B1B889BB2B2FBF3F2394B1A60DF
:103B600005E0364B00221A80364B00221A60364B95
:103B70001B780133DAB2344B1A70334B1A78334B5B
:103B80001B789A4255D9324B1B78002B51D12B4BC5
:103B90001B889BB2192B19D9284B1B889BB2222B4F
:103BA00014D82C4B1B782B4A12782B498A5CD1B243
:103BB0002A4A1278012000FA02F2D2B2D243D2B2DB
:103BC0000A40D2B2D1B2244AD15411E0214B1B7821
:103BD000204A127820498A5CD1B2204A127801200A
:103BE00000FA02F2D2B20A43D2B2D1B21A4AD15486
:103BF0001A4B1B78002B16D1184B07221A70154B45
:103C00001B780133DAB2134B1A70124B1B78042B5A
:103C10000FD10F4B01221A700E4B00221A700F4B5E
:103C200007221A7005E00D4B1B78013BDAB20B4BF3
:103C30001A7080BD000400405E000020600000207B
:103C40000000002064000020680000201A0000200E
:103C50006A000020B61B0020A01B0020941B00203F
:103C600080B500AF42480421FCF752FD404B1B8F4A
:103C70009AB2404B1A803F4B1B889BB2002B0ED050
:103C80003B4B9B8E9BB2642202FB03F2394B1B8899
:103C90009BB292FBF3F39AB2374B1A8005E0364B96
:103CA00000221A80354B00221A60354B1B780133F5
:103CB000DAB2334B1A70324B1A78324B1B789A4275
:103CC00055D9314B1B78002B51D12B4B1B889BB204
:103CD000192B19D9284B1B889BB2222B14D82B4B9C
:103CE0001B782A4A12782A498A5CD1B2294A12786A
:103CF000012000FA02F2D2B2D243D2B20A40D2B2CA
:103D0000D1B2234AD15411E0204B1B781F4A1278BC
:103D10001F498A5CD1B21F4A1278012000FA02F2D0
:103D2000D2B20A43D2B2D1B2194AD154194B1B783C
:103D3000002B16D1174B07221A70144B1B78013336
:103D4000DAB2124B1A70114B1B78042B0FD10E4BA9
:103D500001221A700D4B00221A700E4B07221A70A6
:103D600005E00C4B1B78013BDAB20A4B1A7080BDA0
:103D7000004001405E000020600000206400002040
:103D8000680000201A0000206A000020B61B0020F6
:103D9000A01B0020941B002080B500AF0948022121
:103DA000FCF7B6FC074B9B8C9BB2B3F5C87F04D2E3
:103DB000044B9B8C9AB2044B5A80024B00229A848B
:103DC00080BD00BF00440140681B002080B500AFEB
:103DD0000C480221FCF79CFC0B4B9B6803F400731E
:103DE000002B0AD1074B9B8C9BB2B3F5C87F04D242
:103DF000044B9B8C9AB2054B1A80024B00229A848A
:103E000080BD00BF00480140000C0140681B00203D
:103E100080B582B000AF0023FB713EE01E2004F0AD
:103E200097FF02F0A5FF0346FB710020002104F07C
:103E3000E3F81E4B1B78184603F090F81C4804F07A
:103E4000A5F8FB79042B05D1184B1B780133DAB2A6
:103E5000164B1A70FB79012B05D1144B1B78013BD3
:103E6000DAB2124B1A700120002104F0C5F8114893
:103E700004F08CF8104811490422022302F076FE67
:103E80000120072104F0B8F80D4804F07FF80D4830
:103E90000A4904220A2302F069FEFB79022BBDD1F4
:103EA00004F0A6FA0837BD4680BD00BF1A00002006
:103EB000C0D40008C4D40008A81B00207C00002047
:103EC000C8D40008281B002080B483B000AF03468C
:103ED000FB80FA88094B1B68D21A13469B001344D7
:103EE0005B001A46064B1B68B2FBF3F3DBB21846C5
:103EF0000C37BD465DF8047B704700BFA000002072
:103F0000AC00002080B483B000AF0346FB71FB79A6
:103F10000A4A126802FB03F3094A82FB0312921059
:103F2000DB17D31A9AB2074B1B689BB213449BB2A0
:103F300018460C37BD465DF8047B7047AC00002086
:103F400067666666A000002080B582B000AF0023DF
:103F5000BB800023FB7104F04BFA284804F016F8EC
:103F60000A2004F0F5FE3B1D40F20460194608F0FB
:103F70003BFEBB881846FFF7A7FF0346FB71FB79A2
:103F8000184600F085F90346FB710A2004F0E0FEB4
:103F9000FB791846FFF7B6FF034640F20460194666
:103FA00008F06EFE04F024FA154803F0EFFF0A2033
:103FB00004F0CEFE3B1D40F20560194608F014FEE9
:103FC000BB881846FFF780FF0346FB71FB79184654
:103FD00000F05EF90346FB710A2004F0B9FEFB799C
:103FE0001846FFF78FFF034640F20560194608F0B8
:103FF00047FE04F0FDF90837BD4680BDCCD400086B
:1040000010D4000880B584B000AF0346FB710023D4
:10401000FB73FB793E4AA3FB02015A1A52080A4479
:104020009209652101FB02F29B1AFB7167E002F025
:104030009FFE0346FB730120032103F0DDFFFA79A5
:10404000344B83FB02139911D317CB1A4FF47A71B7
:1040500001FB03F3D31A304A82FB03125211DB1720
:10406000D31ADBB23B72FB792B4AA2FB0312520933
:10407000642101FB02F29B1ADAB2284BA3FB021364
:10408000DB08DBB27B72FA79244BA3FB0213D9085D
:104090000B469B000B445B00D31ADBB2BB7220487B
:1040A00003F074FF07F1080318461E490322062394
:1040B00002F05CFD01200C2103F09EFF1A4803F082
:1040C00065FF0A2004F044FEFB7B042B08D1FB793A
:1040D000632B03D8FB790133FB7101E00023FB71F3
:1040E000FB7B012B08D1FB79002B02D10023FB7154
:1040F00002E0FB79013BFB710A2004F029FEFB7B07
:10410000022B94D1FB7918461037BD4680BD00BF05
:1041100057866F44D34D62101F85EB51CDCCCCCC6C
:10412000DCD400087C000020E0D4000880B582B018
:1041300000AF0023BB800023FB7104F059F9204835
:1041400003F024FF0A2004F003FE3B1D40F2076049
:10415000194608F049FDBB88DBB21846FFF752FF4D
:104160000346FB710A2004F0F3FDFB799BB240F299
:104170000760194608F084FD04F03AF9114803F08D
:1041800005FF0A2004F0E4FD3B1D4FF4C160194611
:1041900008F02AFDBB88DBB21846FFF733FF034661
:1041A000FB710A2004F0D4FDFB799BB24FF4C1608F
:1041B000194608F065FD04F01BF90837BD4680BDBF
:1041C000E4D40008F4D4000880B582B000AF034600
:1041D0003960FB713B68DA1CF9792C4BA3FB0103B6
:1041E000DB08DBB219464901C91A8900CB1A5B000A
:1041F000D9B2FB790B44DBB23033DBB2137005204C
:1042000004F0A6FDFA79214BA3FB0213DB08FB7136
:104210003B6802332E221A703B685A1CF9791B4BFB
:10422000A3FB0103DB08DBB219464901C91A890067
:10423000CB1A5B00D9B2FB790B44DBB23033DBB273
:104240001370052004F084FDFA79104BA3FB0213D0
:10425000DB08FB71FA790D4BA3FB0203DB08DBB231
:104260001A465201D21A9200D31A5B00DAB2FB79D5
:104270001344DBB23033DAB23B681A703B68043364
:1042800000221A700837BD4680BD00BFCDCCCCCC13
:1042900080B584B000AF0346FB710023FB733EE0A2
:1042A00002F066FD0346FB730120032103F0A4FE28
:1042B000FA7907F1080310461946FFF785FF1C48F5
:1042C00003F064FE07F1080318461A490422062386
:1042D00002F04CFC01200C2103F08EFE164803F086
:1042E00055FE0A2004F034FDFB7B042B08D1FB793A
:1042F000FD2B03D8FB790133FB7101E00023FB7137
:10430000FB7B012B08D1FB79002B02D10023FB7131
:1043100002E0FB79013BFB710A2004F019FDFB7BF5
:10432000022BBDD1FB7918461037BD4680BD00BFBA
:10433000DCD400087C000020E0D4000880B58AB0FE
:1043400000AF7860396000233B767968AC4BA3FB03
:104350000123DA0813469B0013445B00CA1AD3B248
:104360003033DBB2FB757A68A54BA3FB0213DB0885
:104370007B607968A24BA3FB0123DA0813469B00FC
:1043800013445B00CA1AD3B23033DBB2BB757A6810
:104390009B4BA3FB0213DB087B607968984BA3FB64
:1043A0000123DA0813469B0013445B00CA1AD3B2F8
:1043B0003033DBB27B757A68914BA3FB0213DB08C9
:1043C0007B6079688E4BA3FB0123DA0813469B00C0
:1043D00013445B00CA1AD3B23033DBB23B757A6840
:1043E000874BA3FB0213DB087B607968844BA3FB3C
:1043F0000123DA0813469B0013445B00CA1AD3B2A8
:104400003033DBB2FB747A687D4BA3FB0213DB080D
:104410007B6079687A4BA3FB0123DA0813469B0083
:1044200013445B00CA1AD3B23033DBB2BB74192019
:1044300004F08EFC7A68724BA3FB0213DB087B60EE
:1044400079686F4BA3FB0123DA0813469B001344E2
:104450005B00CA1AD3B23033DBB27B747A68684B24
:10446000A3FB0213DB087B607968654BA3FB012388
:10447000DA0813469B0013445B00CA1AD3B23033E8
:10448000DBB23B747A685E4BA3FB0213DB087B60F4
:1044900079685B4BA3FB0123DA0813469B001344A6
:1044A0005B00CA1AD3B23033DBB2FB737A68544B69
:1044B000A3FB0213DB087B607968514BA3FB01234C
:1044C000DA0813469B0013445B00CA1AD3B2303398
:1044D000DBB2BB737A684A4BA3FB0213DB087B6039
:1044E0007968474BA3FB0123DA0813469B0013446A
:1044F0005B00CA1AD3B23033DBB27B737A68404BAD
:10450000A3FB0213DB087B6079683D4BA3FB01230F
:10451000DA0813469B0013445B00CA1AD3B2303347
:10452000DBB23B737A68364BA3FB0213DB087B607C
:104530007968334BA3FB0123DA0813469B0013442D
:104540005B00CA1AD3B23033DBB2FB727A682C4BF1
:10455000A3FB0213DB087B607968294BA3FB0123D3
:10456000DA0813469B0013445B00CA1AD3B23033F7
:10457000DBB2BB727A68224BA3FB0213DB087B60C1
:1045800079681F4BA3FB0123DA0813469B001344F1
:104590005B00CA1AD3B23033DBB27B727A68184B35
:1045A000A3FB0213D908164BA3FB0123DA08134619
:1045B0009B0013445B00CA1AD3B23033DBB23B72A8
:1045C00000233B6207F108023B6A13441B78FB613E
:1045D0003023FB61192004F0BBFB08E03B6A013388
:1045E0003B6207F108023B6A13441B78FB61FB69DD
:1045F000302BF3D0192004F0ABFB3B6A7B620FE059
:10460000CDCCCCCC7A6A3B6AD31A3A68134407F112
:1046100008017A6A0A4412781A707B6A01337B6255
:104620007B6A102BEEDD3B6818462837BD4680BDFF
:1046300080B485B000AF78607B68FA2202FB03F398
:10464000FB6000BFFB685A1EFA60002BFAD11437DA
:10465000BD465DF8047B704780B584B000AF03F0C1
:10466000C7FE0020002103F0C7FC9E4B1B6803F12E
:1046700030029C4B1A609B4B1B681846012101F0CD
:10468000E5FE03F0B5FE0020002103F0B5FC9648DE
:10469000012101F0DBFE47F23050FFF7C9FF00F0C7
:1046A000ADFB6420FFF7C4FF904B1B88BB8000204C
:1046B000002103F0A1FC8E48022101F0C7FE47F261
:1046C0003050FFF7B5FF00F099FB6420FFF7B0FF13
:1046D000864B1B88FB800020002103F08DFC854861
:1046E000062101F0B3FE47F23050FFF7A1FF00F0C2
:1046F00085FB6420FFF79CFF7C4B1B883B8103F00C
:1047000077FE7D48012101F0A1FE47F23050FFF70E
:104710008FFF00F073FB6420FFF78AFF734B1B8849
:104720007B817B89DB089AB2BB88DB089BB29A420B
:1047300003D2724B01221A700EE07B89DB089AB219
:10474000BB88DB089BB29A4203D96C4B00221A70DB
:1047500002E06A4B02221A70684B1B78002B54D17E
:10476000FB881A46BB88D31ADA0F13445B109BB23E
:10477000053BFB81BA88FB895B089BB2D31A9AB2CE
:104780005F4B1A80BA88FB8913449AB25C4B5A80FB
:10479000FA88FB89D31A9AB2594B9A803B891A46F8
:1047A000FB88D31ADA0F13445B109BB2053BFB81E5
:1047B000FA88FB8913449AB2514BDA803A89FB8913
:1047C000D31A9AB24E4B1A817B891A463B89D31A67
:1047D000DA0F13445B109BB2053BFB813A89FB89DE
:1047E00013449AB2464B5A817A89FB89D31A9AB2FA
:1047F000434B9A817A89FB895B089BB213449AB236
:104800003F4BDA8100F08CF959E03C4B1B78012BCF
:1048100050D1BB881A46FB88D31ADA0F13445B10B9
:104820009BB2053BFB81BA88FB89D31A9AB2344B01
:104830001A80BA88FB8913449AB2314B5A80FA889D
:10484000FB89D31A9AB22E4B9A80FB881A463B8971
:10485000D31ADA0F13445B109BB2053BFB81FA8835
:10486000FB8913449AB2264BDA803A89FB89D31A22
:104870009AB2234B1A813B891A467B89D31ADA0FE5
:1048800013445B109BB2053BFB813A89FB891344BF
:104890009AB21B4B5A817A89FB89D31A9AB2184B68
:1048A0009A817A89FB8913449AB2154BDA8100F018
:1048B00037F904E0134803F069FB00F04FF9104B9F
:1048C0001A880F4B1B8A9A4202D90C4B01221A708C
:1048D0000020002103F090FB0B4803F057FB10373A
:1048E000BD4680BD20000020DCD40008801B0020D5
:1048F00020DB000824DB0008E0D400088E00002044
:10490000081B00202CDB00083CDB000880B582B0CF
:1049100000AF0023FB7103F06BFD4FF4FA7004F05D
:1049200017FA5EE002F024FA0346FB710020002132
:1049300003F062FB2F4803F029FB2F4B1A882F4B03
:10494000A3FB02135B099BB2DBB2184602F006FB25
:10495000294B1B88DBB2184602F000FB284803F005
:1049600015FB254B5A88254BA3FB02135B099BB211
:10497000DBB2184602F0F2FA1F4B5B88DBB2184636
:1049800002F0ECFA0120002103F036FB1D4803F091
:10499000FDFA194B9A88194BA3FB02135B099BB2D2
:1049A000DBB2184602F0DAFA134B9B88DBB21846EA
:1049B00002F0D4FA144803F0E9FA0F4BDA880F4BEF
:1049C000A3FB02135B099BB2DBB2184602F0C6FAE6
:1049D000094BDB88DBB2184602F0C0FA142004F061
:1049E000B7F9FB79022B9DD103F002FD0837BD46D4
:1049F00080BD00BF54D30008801B00201F85EB51F1
:104A000048DB00085CD300084CDB000880B582B0AE
:104A100000AF0023FB7103F0EBFC4FF4FA7004F0DD
:104A200097F919E002F0A4F90346FB710020002178
:104A300003F0E2FA022004F08BF9012004F088F977
:104A40000120002103F0D8FA074B1B78184602F02A
:104A500085FA142004F07CF9FB79022BE2D103F0F3
:104A6000C7FC0837BD4680BDBE00002080B582B0BF
:104A700000AF0023FB710023BB7103F0B9FC4FF4BE
:104A8000FA7004F065F93BE002F072F90346FB713D
:104A90000020002103F0B0FA022004F059F90023AD
:104AA000BB7108E0BB791A4AD35C1846FCF710FFCB
:104AB000BB790133BB71BB79042BF3D9012004F01E
:104AC00047F90120002103F097FA114B5B79184652
:104AD000FCF7FEFE0E4B9B791846FCF7F9FE0D48DD
:104AE00003F054FA0C4B1B78184602F037FA0848CA
:104AF0000A490722092302F039F8142004F028F9A2
:104B0000FB79022BC0D103F073FC0837BD4680BD92
:104B1000401B002040D400085A0000207C000020E8
:104B200080B582B000AF0023FB710FE0FB799BB230
:104B300003F20A639AB2F979074B33F81130104641
:104B4000194608F09DF8FB790133FB71FB79072BBF
:104B5000ECD90837BD4680BD081B002080B582B067
:104B600000AF0023FB710FE0FB799BB203F20A63F5
:104B70009AB2FB795900074B0B441046194608F0CE
:104B800033F8FB790133FB71FB79072BECD908373C
:104B9000BD4680BD081B002080B588B000AF78609E
:104BA00039602D4B1B68002B4ED12C4A07F10C03AA
:104BB00007CA03C31A8004F02DF907F10C03284833
:104BC0001946032207F02EF80346FB77FB7F002BE4
:104BD0000DD007F10C03224819460A2207F022F8EB
:104BE0000346FB77FB7F002B01D0FB7F2FE01C4BA4
:104BF000DB681B48194607F093FB0346FB77FB7FF6
:104C0000002B01D0FB7F22E03A6807F1180314481B
:104C1000796807F043F90346FB77FB7F002B01D04F
:104C2000FB7F14E00E4807F0BFFA0346FB77FB7FDB
:104C3000002B01D0FB7F0AE0094807F05DFB03462B
:104C4000FB7704F0F5F801E00023FB77FB7F1846C3
:104C50002037BD4680BD00BF2000002050DB00088B
:104C6000C400002080B584B000AF0023FB6046E0A4
:104C700002F07EF80346FB60052004F069F800208E
:104C8000002103F0B9F9554803F080F9052004F03C
:104C90005FF840F20160524907F0A6FF504B1B88B5
:104CA0001A463B1D1046194602F020FB3B1D1846D4
:104CB0004C490422082301F059FF0120052103F08B
:104CC0009BF9494B9B881A463B1D1046194602F03A
:104CD0000DFB3B1D184603F059F90A2004F038F883
:104CE0000120002103F088F900F028F90A2004F0DF
:104CF0002FF83E4803F04AF9642004F029F8FB68D5
:104D0000022BB5D1384B9B887B817B8940F20160B7
:104D1000194607F0B5FF0023FB600020002103F0D7
:104D20006BF9334803F032F94FF4FA6004F010F8ED
:104D300042E002F01DF80346FB6003F059FB192026
:104D400004F006F80020002103F056F9294803F08A
:104D50001DF90020082103F04FF900F0EFF8264B71
:104D60001B881A463B1D10461946FFF7E7FA3B1D04
:104D7000184603F00BF90120052103F03DF91A4B09
:104D8000DB881A463B1D10461946FFF7D7FA3B1D34
:104D9000184603F0FBF8192003F0DAFF0120002188
:104DA00003F02AF9192003F0D3FF104803F0EEF8BE
:104DB0004FF4FA7003F0CCFFFB68022BB9D10A4B19
:104DC0009B887B81084BDB884FF4C060194607F055
:104DD00057FF02F0DBFC1037BD4680BD5CDB0008EE
:104DE0009C0000206C000020801B0020981B0020ED
:104DF00064DB000874DB0008A400002080B487B0E6
:104E000000AF00237B6100233B610023FB60002394
:104E1000BB6000237B6000233B6000233B6157E0C5
:104E200000237B6126E07B695A1C3D4B33F812104E
:104E30003B4B7A6923F812107B695A1C394B33F8C3
:104E40001210384B7A6923F812107B695A1C364BC2
:104E500033F81210344B7A6923F812107B695A1C0C
:104E6000324B33F81210314B7A6923F812107B69F8
:104E700001337B617B69082BD5DD2D4BDB6B9AB24F
:104E8000274B5A822A4B1B6C9AB2264B5A82284BCC
:104E90005B6C9AB2244B5A82254B9B6C9AB2234B83
:104EA0005A821F4B5B8AFA681344FB601D4B5B8A76
:104EB000BA681344BB601C4B5B8A7A6813447B60FE
:104EC0001A4B5B8A3A6813443B603B6901333B6190
:104ED0003B69082BA4DDFA68164BA3FB0213DB0821
:104EE0009AB2154B1A80BA68124BA3FB0213DB0867
:104EF0009AB2114B5A807A680E4BA3FB0213DB085F
:104F00009AB20D4B9A803A680A4BA3FB0213DB0856
:104F10009AB2094BDA801C37BD465DF8047B7047B6
:104F20006C1B0020DC1A00204418002060180020B0
:104F300000240140CDCCCCCC801B002080B582B0B9
:104F400000AF052003F004FF464B9A88464B1B88B0
:104F50009A4203D9454B02221A700CE0414B9A88C1
:104F6000434B1B889A4203D2404B01221A7002E045
:104F70003E4B00221A703B4BDA883E4B1B889A420C
:104F800003D93D4B02221A700CE0364BDA883B4BBA
:104F90001B889A4203D2384B01221A7002E0364B2A
:104FA00000221A70052003F0D3FE2E4BDB881A4630
:104FB000334B1B68D21A13469B0013445B001A46FE
:104FC000304B1B68B2FBF3F37B607B68DAB22E4B8D
:104FD0001A7079682D4BA3FB0123DA0813469B0056
:104FE00013445B00CA1AD3B23033DAB2284BDA70FA
:104FF000052003F0ADFE7A68244BA3FB0213DB0807
:105000007B60234B2E229A707968204BA3FB0123EF
:10501000DA0813469B0013445B00CA1AD3B230333C
:10502000DAB21B4B5A70052003F092FE7A68174BD8
:10503000A3FB0213DB087B607968144BA3FB0123FD
:10504000DA0813469B0013445B00CA1AD3B230330C
:10505000DAB20F4B1A700E4B00221A710837BD4698
:1050600080BD00BF801B0020921B0020B2000020EA
:105070001E1B00205C180020B300002074180020C4
:10508000A0000020AC000020B1000020CDCCCCCC92
:10509000981B002080B584B000AF0023BB600520C2
:1050A00003F056FE434BDA88434B1B889A4203D9E0
:1050B000424B02221A700CE03E4BDA88404B1B88B0
:1050C0009A4203D23D4B01221A7002E03B4B002270
:1050D0001A70052003F03CFE3A4B1B881A463A4BE7
:1050E0001B88D31A642202FB03F3384A82FB0312A3
:1050F0005211DB17D31A7B602E4BDA88324B1B8898
:105100009A420ED92B4BDB881A462F4B1B88D31A99
:10511000642202FB03F31A467B68B2FBF3F3FB60E5
:1051200001E00023FB60FB68DAB2294B1A70294BBF
:1051300000221A71F968284BA3FB0123DA081346F1
:105140009B0013445B00CA1AD3B23033DAB2214B4E
:10515000DA70FA68204BA3FB0213DB08FB60F968E6
:105160001D4BA3FB0123DA0813469B0013445B008D
:10517000CA1AD3B23033DAB2164B9A70154B2E22BC
:105180005A70FA68144BA3FB0213DB08FB60F96842
:10519000114BA3FB0123DA0813469B0013445B0069
:1051A000CA1AD3B23033DAB20A4B1A701037BD467E
:1051B00080BD00BF801B00205C180020B3000020D1
:1051C00074180020A6000020A80000201F6B193AC8
:1051D000B0000020AC1B0020CDCCCCCC80B584B07E
:1051E00000AF0346FB710023FB7303F001F90020BD
:1051F000002102F001FF1F4802F0C8FEFB790133D5
:10520000FB71FB79184601F0A9FE1B4802F0BEFEB7
:10521000FB79013BFB71FB799BB203F2FF53BB812E
:10522000BA8907F10A031046194607F0DDFC32205F
:1052300003F08EFD7B89DBB2184600F0CDFC0346FF
:105240007B81322003F084FDFB799BB203F2FF5394
:10525000BB817B89BA891046194607F011FD0520EC
:1052600003F076FD02F092FA052003F071FD10378D
:10527000BD4680BDD4DB0008DCDB000880B500AF94
:1052800003F0B6F8044802F081FE4FF4FA7003F020
:105290005FFD03F0ADF880BD20DB000880B588B06D
:1052A00000AF786001F0BCFBB8610023FB7772E0CF
:1052B000FB7F9BB21A46D20013449BB203F2DA532F
:1052C000FB82FB8A184602F071F83861FB8A0233D0
:1052D0009BB2184602F06AF8F8603B69584AA2FB94
:1052E0000312120C574901FB02F29B1A3B61FB6847
:1052F000534AA2FB0312120C524901FB02F29B1A01
:10530000FB60BB694E4AA2FB0312120C4D4901FB24
:1053100002F29B1ABB61012003F01AFD012003F089
:1053200017FDBA69FB689A4206D2BA693B699A428C
:1053300002D90123BB7701E00023BB773A69FB6800
:105340009A420CD9BA693B699A4206D2BA69FB689B
:105350009A4202D90023BB7701E00123BB77BB7FD0
:10536000012B0AD1FB7F012202FA03F31A46364BC6
:105370001B681A43344B1A600AE0FB7F012202FAD1
:1053800003F3DB431A46304B1B681A402E4B1A605E
:10539000FB7F0133FB77FB7F022B89D9012003F0D0
:1053A000D7FC0023FB7747E0FB7F9BB21A469200B5
:1053B00013449BB203F5B863FB82FB8A184601F0E5
:1053C000F5FF3861FB8A02339BB2184601F0EEFF0D
:1053D000F860012003F0BCFC01F022FBB861BB695E
:1053E000FA68B3FBF2F2F96801FB02F29B1ABB61A7
:1053F000BA693B699A420CD20123BB77FB7F012239
:1054000002FA03F31A46114B1B681A430F4B1A603A
:105410000CE00023BB77FB7F012202FA03F3DB439E
:105420001A460A4B1B681A40084B1A60012003F009
:105430008FFCFB7F0133FB77FB7F022BB4D931E775
:1054400007452EC280510100F81A0020881800205C
:1054500080B584B000AF7860914B1B78332B00F09F
:10546000188100233B7310E100237B733B7B8D4A43
:10547000D35CBB73BB7B1F2B0ED8BB7B012202FA14
:1054800003F3DAB2884B1B68DBB21340FB73FA7B81
:10549000BB7B42FA03F3FB73BB7B3F2B07D9BB7B80
:1054A000422B04D802237B73BB7B203BBB73BB7BAB
:1054B000422B07D9BB7B442B04D803237B73BB7BD4
:1054C000233BBB73BB7B452B04D9BB7B472B01D84C
:1054D00004237B73BB7B4F2B04D9BB7B502B01D8A0
:1054E00005237B73BB7B632B06D1FF237B733B7B45
:1054F0001846012100F0E8F9BB7B622B06D1FE23A0
:105500007B733B7B1846002100F0DEF9BB7B1F2B31
:1055100014D9BB7B3F2B11D8BB7B203BBB73BB7B20
:10552000012202FA03F3DAB2604B1B68DBB21340CC
:10553000FB73FA7BBB7B42FA03F3FB737B7B022B8F
:1055400059D1FB7B012B14D1594B1A683B7B22FAB2
:1055500003F303F00103002B0BD1BB7B002B08D11D
:10556000544B1B78012B04D13B7B1846012100F0E2
:10557000ABF9FB7B012B14D14D4B1A683B7B22FA14
:1055800003F303F00103002B0BD1BB7B012B08D1EC
:10559000484B1B78022B04D13B7B1846012100F0BD
:1055A00093F9FB7B012B14D1414B1A683B7B22FA08
:1055B00003F303F00103002B0BD1BB7B022B08D1BB
:1055C0003C4B1B78002B04D03B7B1846012100F09C
:1055D0007BF9FB7B002B52D1354B1A683B7B22FABF
:1055E00003F303F00103002B49D03B7B1846002155
:1055F00000F06AF943E07B7B032B40D1FB7B012B5E
:1056000014D12B4B1A683B7B22FA03F303F00103FE
:10561000002B0BD1BB7B002B08D1274B1B78012B18
:1056200004D13B7B1846012100F04EF9FB7B012B96
:1056300014D11F4B1A683B7B22FA03F303F00103DA
:10564000002B0BD1BB7B002B08D11B4B1B78002BF5
:1056500004D13B7B1846012100F036F9FB7B002B7F
:105660000DD1134B1A683B7B22FA03F303F00103BD
:10567000002B04D03B7B1846002100F025F90120C7
:1056800003F066FB3B7B01333B733B7B032B7FF6D5
:10569000EBAE012003F05CFB012003F059FBDBE6DD
:1056A000180000201C000020F81A00208818002094
:1056B000381B0020B20000206B00002080B582B0B3
:1056C00000AF0023FB710023BB8000237B800023FD
:1056D0003B80504B33221A7002F08AFE40F2FF5397
:1056E0007B807B881846502107F0CAFA3B884A4ADB
:1056F0005021D154494802F049FC2FE001200021FB
:1057000002F07AFC464802F041FCFB79012B03D100
:105710000020012100F0D8F8FB79022B03D10020F2
:10572000002100F0D1F8FB79032B03D13D4B9A887F
:105730003D4B1A80192003F00BFB3A4B9B8818460F
:10574000FCF702FB394802F021FC374B1B88184656
:10575000FCF7FAFA01F00CFB0346FB71FB79042B12
:10576000CCD1334B1B781846002100F0ADF8FFF781
:1057700085FD0023FB712FE00120002102F03CFC9D
:105780002C4802F003FCFB79012B03D100200121FE
:1057900000F09AF8FB79022B03D10020002100F0E1
:1057A00093F8FB79032B03D11E4B9A88224B1A8066
:1057B0000A2003F0CDFA1B4B9B881846FCF7C4FA6D
:1057C0001A4802F0E3FB1C4B1B881846FCF7BCFA96
:1057D00001F0CEFA0346FB71FB79042BCCD10020FB
:1057E000002100F071F80B4B30221A700E4B1B8811
:1057F00040F24760194607F043FA0F4B1B884FF4FD
:10580000C960194607F03CFAFFF738FD0837BD4676
:1058100080BD00BF180000201C000020E4DB000851
:10582000F4DB0008801B002096000020FCDB000851
:105830009400002000DC00089800002080B582B0B1
:1058400000AF0023FB710023BB711D4B33221A7084
:105850002CE00020002102F0CFFB1A4802F096FB5A
:10586000FB79184601F07AFBBB79012B07D1FB7954
:105870000133FB71FB79042B01D10023FB71BB7950
:10588000022B04D1FB791846012100F01DF8BB79E9
:10589000032B04D1FB791846002100F015F80A20EB
:1058A00003F056FA01F064FA0346BB71BB79042B8E
:1058B000CFD1034B30221A700837BD4680BD00BFE0
:1058C0001800002008DC000880B483B000AF024656
:1058D0000B46FA71BB71FB79002B03D1BB79C3F185
:1058E0000103BB71BB79012B10D1134BFA79012154
:1058F00001FA02F21A61FB79012202FA03F31A4655
:105900000E4B1B681A430D4B1A6010E00A4BFA79D4
:10591000012101FA02F25A61FB79012202FA03F332
:10592000DB431A46054B1B681A40044B1A600C37C0
:10593000BD465DF8047B704700100140381B002015
:1059400080B584B000AF03463960FB803B68FB81C3
:105950003B681B0CBB81FB8801339AB2FB89104664
:10596000194607F08DF9FA88BB891046194607F0E9
:1059700087F91037BD4680BD80B586B000AF0346BD
:10598000FB7102F035FDFB79013B1B2B00F2B2806D
:1059900001A252F823F000BFF55A0008095A000886
:1059A0002D5A0008335A0008395A0008555A000881
:1059B000F55A0008F55A0008795A0008F55A000807
:1059C000F55A0008F55A00089D5A0008F55A0008D3
:1059D000A35A0008A95A0008AF5A0008C15A000883
:1059E000F55A0008C75A0008D15A0008D75A0008CB
:1059F000DD5A0008F55A0008F55A0008F55A000863
:105A0000E95A0008EF5A00083C4802F0BFFA0120AA
:105A10000421012200F00AFB0346FB75FB7D013BDC
:105A2000FB75FB7D184600F03DFB63E0FFF706FFCA
:105A300060E0FFF743FE5DE000F0F2FF3861386997
:105A4000012100F0A9FBF860F86800F0FBFF02F00C
:105A5000CFFC4FE02A4802F099FA012004210122EC
:105A600000F0E4FA0346FB75FB7D013BFB75FB7D13
:105A7000184600F065FA3DE0224802F087FA01205E
:105A80000421012200F0D2FA0346FB75FB7D013BA5
:105A9000FB75FB7D1846FFF7A1FB2BE000F034F807
:105AA00028E0FFF7DFF825E0FEF74EFA22E0FEF7E8
:105AB000AFF9FEF72BFFFEF7A9FFFEF7D7FF19E0BE
:105AC000FEF734FB16E0FDF7D7FAFDF7D5FA11E043
:105AD000FDF7A0FB0EE0FDF781FB0BE000200021AD
